:020000041FFFDC
:1008000000000000F1A5FF1FF8BCFF1F1CBDFF1F6B
:10081000CCC3FF1F0000000000000000000000002B
:1008200000000000000000000000000000000000C8
:1008300000000000000000000000000000000000B8
:1008400000000000000000000000000000000000A8
:100850000000000000000000000000000000000098
:100860000000000000000000000000000000000088
:100870000000000000000000000000000000000078
:100880000000000000000000000000000000000068
:100890000000000000000000000000000000000058
:1008A0000000000000000000000000000000000048
:1008B0000000000000000000000000000000000038
:1008C0000000000000000000000000000000000028
:1008D0000000000000000000000000000000000018
:1008E0000000000000000000000000000000000008
:1008F00000000000000000000000000000000000F8
:1009000000000000000000000000000000000000E7
:1009100000000000000000000000000000000000D7
:1009200000000000000000000000000000000000C7
:1009300000000000000000000000000000000000B7
:1009400000000000000000000000000000000000A7
:100950000000000000000000000000000000000097
:100960000000000000000000000000000000000087
:100970000000000000000000000000000000000077
:100980000000000000000000000000000000000067
:10099000C98CFF1F5D8DFF1F59AFFF1F00000000B6
:1009A0000000000000000000000000000000000047
:1009B0000000000000000000000000000000000037
:1009C0000000000000000000000000000000000027
:1009D0000000000000000000000000000000000017
:1009E0000000000000000000000000000000000007
:1009F00000000000000000000000000000000000F7
:100A000000000000000000000000000000000000E6
:100A100000000000000000000000000000000000D6
:100A200000000000000000000000000000000000C6
:100A300000000000000000000000000000000000B6
:100A400000000000000000000000000000000000A6
:100A50000000000000000000000000000000000096
:100A60000000000000000000000000000000000086
:100A70000000000000000000000000000000000076
:100A80000000000000000000000000000000000066
:100A90000000000000000000000000000000000056
:100AA0000000000000000000000000000000000046
:100AB0000000000000000000000000000000000036
:100AC0000000000000000000000000000000000026
:100AD0000000000000000000000000000000000016
:100AE0000000000000000000000000000000000006
:100AF00000000000000000000000000000000000F6
:100B000000000000000000000000000000000000E5
:100B100000000000000000000000000000000000D5
:100B200000000000000000000000000000000000C5
:100B300000000000000000000000000000000000B5
:100B400000000000000000000000000000000000A5
:100B50000000000000000000000000000000000095
:100B60000000000000000000000000000000000085
:100B70003590FF1F00000000000000000000000092
:100B80000000000000000000D56EFF1F0000000004
:100B90000000000000000000000000000000000055
:100BA000000000000000000000000000A985FF1FF9
:100BB0000000000000000000000000000000000035
:100BC0009185FF1F000000000000000000000000F1
:100BD0000000000000000000000000000000000015
:100BE0000000000000000000000000000000000005
:100BF00000000000FD84FF1F000000000000000056
:0C0C000001FF01FF01FF01FF41000000A7
:020000041FFFDC
:1040000078D0FF1FD540FF1FDD40FF1FDF40FF1F9F
:1040100000000000000000000000000000000000A0
:10402000000000000000000000000000E140FF1F51
:104030000000000000000000E340FF1FE540FF1FFC
:104040000000000000000000000000000000000070
:104050000000000000000000000000000000000060
:104060000000000000000000000000000000000050
:104070000000000000000000000000000000000040
:104080000000000000000000000000000000000030
:104090000000000000000000000000000000000020
:1040A0000000000000000000000000000000000010
:1040B0000000000000000000000000000000000000
:1040C0000348854600F048FA004800477DA3FF1FDB
:1040D00078D0FF1F0448804704480047FEE7FEE70A
:1040E000FEE7FEE7FEE7FEE7C56EFF1FC140FF1FCC
:1040F00003460B439B0703D009E008C9121F08C001
:10410000042AFAD203E00B780370401C491C521EAB
:10411000F9D27047D2B201E00270401C491EFBD2B6
:1041200070470022F6E710B513460A4604461946C2
:10413000FFF7F0FF204610BD0321001D401E03784D
:1041400012021A43491EF9D510467047F8B50246C7
:104150004A40D40F42004B0052085B089A4202D2F8
:104160000246084611464A0023D0C30D4A00DDB27C
:10417000120EAD1A202D35DA49020126490AF6053C
:104180008A19002C00D0524220214F1B1146B94001
:104190002A411018C20D9A4221D0002C17D0012DAF
:1041A00008DCDA05801AD20F8019D207DBB200F0E2
:1041B0003AF9F8BDDA05801A012340001B06C01841
:1041C00080185A428018CA0F1043490007E0490876
:1041D000C2071143DA05801A80194008801800F0E0
:1041E0001AF9F8BD61000122511A001BF7E70122FC
:1041F000D2075140AAE70122D2075040A6E7024663
:1042000070B54A40D30FDB0740002DD04A002AD0BA
:10421000010E140E000212020919400A520A8418F3
:10422000E50104465443000A120A2E045043A4191F
:104230004219200CC543AA18120C0125AD03521CCB
:10424000521912047F39240400D0521C104301D4A7
:104250004000491EC2B20C06C0092018401C40088C
:10426000802A02D003E0002070BD400840000029F1
:1042700000DA0020184370BD70B502464A40D50FE1
:1042800040004A00ED0740085208002814D0002AD8
:1042900012D0C40DD30D41020120C0055202490ABB
:1042A000520AE41A091812187D34914201D3641C91
:1042B00000E04900002C01DA002070BD002391428B
:1042C00001D3891A0343400849000028F7D1002987
:1042D0000AD0914202D10121C90705E0914201D2E1
:1042E000012101E00121C943E005C018401900F097
:1042F00092F870BD420005D04200120E52428A422E
:1043000001DB00207047C9050818704770B54B00E5
:104310005B0803430BD04B005C0D0026334665421F
:10432000B341D417AD1AA34102DB0020014670BD92
:1043300012053018514170BDC217C10F504010B561
:104340004018CA079623002100F06DF810BD10B583
:1043500000229623114600F066F810BD0EB5C21774
:10436000C10F5040CA0740180021054B029301922B
:1043700000910A460B4600F09CF803B000BD000017
:1043800033040000C20F410040020123400ADB0554
:10439000D207090EC0187F2901DA0020704796293C
:1043A00003DC9623591AC84001E096398840002A58
:1043B000F4D040427047410040020122400AD20539
:1043C000090E80187F2901DA00207047962903DC46
:1043D0009622511AC8407047963988407047CB0FD3
:1043E000DB07490010B5490802460A4307D00A0D09
:1043F00007240903E401090B121B002A01DC002039
:1044000010BDC900440F0C43C100E018D20580184C
:1044100000F001F810BD002904DA401C490001D168
:1044200040084000704770B40024050C05D11024EA
:10443000000402D1002921D01124050E01D100026F
:104440000834050F01D10001241D850F01D1800022
:10445000A41C002801DB4000641C002908D0202592
:104460002E1B0D46F540A14000D0012129430843F1
:1044700001061B1B000ADB1D02D5002070BC704723
:10448000DB05181880180029F8DA401C4900F5D11E
:1044900070BC40084000704710B5002B08DA0024BB
:1044A000401C614192185B411A4301D14008400011
:1044B00010BDF0B51FB482B005460C0003D008460D
:1044C00002F072FD02E002F06FFD20300246009023
:1044D0002146284600F052F8049B059A04460F46F0
:1044E00018431143084314D0184610431BD00098BA
:1044F00040210A1A1846059900F050F805460E4664
:10450000009A0599049800F039F8084305D0012075
:1045100004E02046394607B0F0BD0020C11705432E
:104520000E432C43374300990E986305401A7905D2
:10453000E40A00220C43FD0A0A3002D5002001469D
:10454000E9E70105101969410C9C0D9D00196941AD
:10455000FFF7A2FFDFE70000064C0125064E05E04D
:10456000E36807CC2B430C3C98471034B442F7D394
:10457000FFF7AAFD48BDFF1F98BDFF1F10B5202AF9
:1045800004DB0146203A9140002010BD91402023D9
:104590009C1A0346E3401943904010BD10B5202AF1
:1045A00004DB0846203AD040002110BD0B46D34022
:1045B000D0402024A21A91400843194610BD70B57E
:1045C0008C180578401C6B075B0F01D10378401CE9
:1045D0002A1106D10278401C03E006780E70401CB8
:1045E000491C5B1EF9D12B0705D40023521E0DD4A4
:1045F0000B70491CFAE70378401CCB1A921C03E0AD
:104600001D780D70491C5B1C521EF9D5A142D8D3F0
:10461000002070BD03B40148019001BD4D6600004B
:1046200003B40148019001BD0FF4000003B4014838
:10463000019001BD41F4000003B40148019001BDA7
:10464000FD0E000003B40148019001BD61F20000BD
:1046500003B40148019001BD8117000003B4014873
:10466000019001BDA916000003B40148019001BDED
:10467000F1F3000003B40148019001BD6116000090
:1046800003B40148019001BD5113000003B4014877
:10469000019001BD3916000003B40148019001BD2D
:1046A0005DF6000003B40148019001BD75F40000FF
:1046B00003B40148019001BD8913000003B401480F
:1046C000019001BD5D2F000003B40148019001BDC0
:1046D000CDF9000003B40148019001BDF1F90000DB
:1046E00003B40148019001BDD111000003B4014899
:1046F000019001BD59F9000003B40148019001BDCA
:104700009D18000003B40148019001BDF1F10000C3
:1047100003B40148019001BD6117000003B40148D2
:10472000019001BDF117000003B40148019001BDE3
:104730005114000003B40148019001BD6916000046
:1047400003B40148019001BD0915000003B40148FC
:10475000019001BDC960000003B40148019001BD92
:10476000B51F000003B40148019001BDE9BF00007E
:1047700003B40148019001BD1D1B000003B40148B2
:10478000019001BDED1B000003B40148019001BD83
:104790006506000003B40148019001BD21FA000044
:1047A00003B40148019001BDC11F000003B40148DA
:1047B000019001BD89F2000003B40148019001BDE0
:1047C00049F4000003B40148019001BDC9F600009E
:1047D00003B40148019001BDC520000003B40148A5
:1047E000019001BDD541000003B40148019001BD15
:1047F0002141000003B40148019001BDE9FB000024
:1048000003B40148019001BD55DD000003B4014827
:10481000019001BD89DF000003B40148019001BD92
:1048200075E0000003B40148019001BDE1DE000025
:1048300003B40148019001BD35E1000003B4014813
:10484000019001BD29E4000003B40148019001BDBD
:1048500069E5000003B40148019001BD91E000004A
:1048600003B40148019001BDE1E2000003B4014836
:10487000019001BDF1E2000003B40148019001BDC7
:10488000CDE6000003B40148019001BD09E9000034
:1048900003B40148019001BDE1E7000003B4014801
:1048A000019001BDB5DF000003B40148019001BDD6
:1048B0006102000003B40148019001BD6DDF0000FA
:1048C00003B40148019001BD85E0000003B4014834
:1048D000019001BDD1E5000003B40148019001BD84
:1048E000CDDF000003B40148019001BD1DE00000D0
:1048F00003B40148019001BDCDE0000003B40148BC
:10490000019001BD31E2000003B40148019001BDF6
:1049100049E7000003B40148019001BD1DDB000020
:1049200003B40148019001BD2DCF000003B401483C
:10493000019001BDA90B010003B40148019001BD24
:104940005D0B010003B40148019001BD690B01003A
:1049500003B40148019001BD250E010003B40148D4
:10496000019001BDF5E3000003B40148019001BDD1
:1049700021E3000003B40148019001BD15E30000EC
:1049800003B40148019001BDC1E0000003B4014837
:10499000019001BD6DDD000003B40148019001BD2F
:1049A000F1DE000003B40148019001BD7574000000
:1049B00003B40148019001BD8574000003B40148AF
:1049C000019001BD0959000003B40148019001BDE7
:1049D00015F2000003B40148019001BDFDF600008E
:1049E00003B40148019001BDC5F9000003B40148BA
:1049F000019001BDDD74000003B40148019001BDC8
:104A0000890D010003B40148019001BDD576000075
:104A100003B40148019001BD0D34000003B4014806
:104A2000019001BD45C0000003B40148019001BDE3
:104A30009107000003B40148019001BD691B00000B
:104A400003B40148019001BDBD07000003B4014853
:104A5000019001BD6107000003B40148019001BD50
:104A6000F90D000003B40148019001BD290D0000BB
:104A700003B40148019001BD3107000003B40148AF
:104A8000019001BD7919000003B40148019001BDF6
:104A9000010D000003B40148019001BD6F21000029
:104AA00003B40148019001BD5D0D000003B401484D
:104AB000019001BD990D000003B40148019001BDB2
:104AC000D10D000003B40148019001BD410E00006A
:104AD00003B40148019001BD3975000003B40148D9
:104AE000019001BD8D75000003B40148019001BD26
:104AF0008572000003B40148019001BDE52C01005E
:104B000003B40148019001BD7D9E000003B401483B
:104B1000019001BDF59E000003B40148019001BD64
:104B2000F94C000003B40148019001BDA53D00000F
:104B300003B40148019001BD5D52000003B4014877
:104B4000019001BD552B010003B40148019001BD46
:104B5000B1C2000003B40148019001BDF1F00000B2
:104B600003B40148019001BDC5C5000003B401486C
:104B7000019001BD0DC7000003B40148019001BDC3
:104B80000BC5000003B40148019001BD394200008B
:104B900003B40148019001BDF140000003B4014895
:104BA000019001BDC140000003B40148019001BD66
:104BB0005D41000003B40148019001BD95C30000B0
:104BC00003B40148019001BD1DC3000003B40148B6
:104BD000019001BD6D45000003B40148019001BD85
:104BE000753C000003B40148019001BD7DCE00007A
:104BF00003B40148019001BD71D7000003B401481E
:104C0000019001BD99D7000003B40148019001BD96
:104C1000B943000003B40148019001BD3D440000C8
:104C200003B40148019001BDE1D5000003B401487F
:104C3000019001BD7DD2000003B40148019001BD87
:104C40007D4E000003B40148019001BD95DA0000DB
:104C500003B40148019001BD4D4F000003B4014869
:104C6000019001BDE9CF000003B40148019001BDEE
:104C70003DD8000003B40148019001BD89D4000073
:104C800003B40148019001BD5DD6000003B40148A2
:104C9000019001BD3DC4000003B40148019001BD75
:104CA000B551000003B40148019001BD3D0D010064
:104CB00003B40148019001BD55E5000003B401486B
:104CC000019001BDBD9E000003B40148019001BDEB
:104CD000F5C4000003B40148019001BD3D3F000050
:104CE00003B40148019001BD25C2000003B401488E
:104CF000019001BD17C4000003B40148019001BD3B
:104D0000F7C2000003B40148019001BD01C40000D6
:104D100003B40148019001BDD938000003B4014833
:104D2000019001BDDBC2000003B40148019001BD48
:104D3000E1C1000003B40148019001BD41CF000072
:104D400003B40148019001BD199F000003B401485C
:104D5000019001BDC9C5000003B40148019001BD27
:104D60008DC9000003B40148019001BD39CD000098
:104D700003B40148019001BD35D3000003B40148DC
:104D8000019001BD6959000003B40148019001BDC3
:104D90001500010003B40148019001BD59C5000090
:104DA00003B40148019001BD99C4000003B4014857
:104DB000019001BDD54A000003B40148019001BD36
:104DC0003D29000003B40148019001BD9534000065
:104DD00003B40148019001BD6913000003B4014808
:104DE000019001BDE11D000003B40148019001BD27
:104DF000B55E000003B40148019001BD65B7000035
:104E000003B40148019001BDD5F6000003B4014888
:104E1000019001BDDDFB000003B40148019001BD1C
:104E2000999E000003B40148019001BDED7500009A
:104E300003B40148019001BD3903000003B40148E7
:104E4000019001BD01E4000003B40148019001BDDF
:104E50007DE5000003B40148019001BDD1000100CF
:104E600003B40148019001BDD1EB000003B4014837
:104E7000019001BDF50D010003B40148019001BD91
:104E80002D68000003B40148019001BDB90D010077
:104E900003B40148019001BDFDE2000003B40148E4
:104EA000019001BDE9E3000003B40148019001BD98
:104EB0003DE4000010B5034A1321034800F070FDE3
:104EC00010BD0000ECBCFF1F94C2FF1F70B515465B
:104ED00000240300FFF79EFB0705092410151A1F85
:104EE00024000A462946104803E00F480A4629468E
:104EF0000830FFF795FB14E00B480A4629461C30A2
:104F0000F7E709480A4629463030F2E706480A46DC
:104F100029464430EDE704480A4629465830E8E778
:104F20000224204670BD000017C2FF1FFFB599B0D4
:104F30000026079607AA089600F098F805460A2862
:104F40007CD204460620444320462030C0B26A4644
:104F50000E2105F025FC002802D168468089C6B2E2
:104F60001B984149099009781C98022913D0002107
:104F70001791082811D020462130C7B21C220021E9
:104F80006846FFF753FB6A461C21384605F008FCCB
:104F9000002805D010E00121EAE720462230ECE7A6
:104FA0006846807EC01F092806D8F107C90F6A46E7
:104FB000179B0998FFF740FB142200210BA8FFF76D
:104FC00035FB20462430C0B20BAA102105F0E8FBC7
:104FD000002812D11022FF210BA8FFF733FB002875
:104FE0000BD12534E0B20FAA042105F0D9FBF1075B
:104FF000C90F0BAA1B98FFF72BFB7035E8B210AA5C
:10500000102105F0CDFB002811D110A802F01FFBE4
:10501000002410ADA00040190188002903D0827837
:105020001B9800F019FD641CE4B2042CF2D3B00705
:1050300004D50D48017B1B9800F0FCFC1C9804284B
:105040000FD10949087802280BD10A791B98002A48
:1050500000D001224978002900D004211143FFF734
:10506000FDFA00201DB0F0BD98BDFF1FF0B50A2469
:1050700085B016460F46002807D0012805D00A251E
:10508000022810D0032847D11FE0084602F0ACFAEE
:1050900004460A2840D2002E3ED006223946304629
:1050A000FFF7BEFA38E01E4F002400910E20604347
:1050B000C0190622801D0099FFF7D6FA002823D1D7
:1050C000641CE4B20A2CF1D31CE000242046062123
:1050D00048432330C0B26A46102105F061FB002826
:1050E0000CD11022FF216846FFF7ACFA002805D149
:1050F00039466846FFF7BEFA002805D0641CE4B2C2
:105100000A2CE3D32C4607E00A2C05D2002E03D04C
:105110003146204602F080FA204605B0F0BD00007E
:1051200010C5FF1F70B50C460146032000020A1A85
:10513000002534481300FFF76DFA1D1012151C1FCF
:105140002326282C303234383A3C3E4042444648EC
:105150004A4E50525A5456585A00C07911E0102203
:10516000294902E02849102210312046FFF758FA59
:1051700045E0C06A206042E0224906223C31F4E763
:10518000007820703BE0808936E01E494278423149
:10519000EBE71D4982781F39E7E7007AF1E7407AAB
:1051A000EFE7184906223031DFE7807AE9E7C07A75
:1051B000E7E7C08920E0808A1EE0C0781CE0C08A52
:1051C0001AE0008B18E0408B16E0808B14E00D494C
:1051D00006223631C9E7C08B0EE0008C0CE0408C13
:1051E0000AE08079CDE7008A06E0408A04E02729BA
:1051F00004D20846FFF744FA208000E00225284642
:1052000070BD000040BEFF1FDBC5FF1F70B50E4C18
:1052100000256071A571691EE181FFF737FA04204E
:10522000E071102200210948FFF700FA0748102218
:1052300000211030FFF7FAF9E5622572657201204E
:10524000A072E57270BD000040BEFF1FDBC5FF1FEE
:10525000FEB53B4D0C4608040CD56879FFF71CFAE7
:10526000050004D002F0FCFA2846FFF71BFA0120E3
:10527000C00360E0600403D5012080034840FEBD08
:105280002F48E1070126807900292AD029780029B2
:1052900020D0052821D0297A68460170697A4170AA
:1052A000274906223031801CFFF7BAF9A97A6846EF
:1052B0000172E97A417269466879FFF7F9F90028C5
:1052C00008D00720A871696A002903D0096800295D
:1052D00000D0884720467040FEBD03206946087014
:1052E000E4E7A1070DD5052809D1E889FFF7E6F91C
:1052F000AA8A002A03D002216879FFF7E5F9022083
:1053000019E0600704D5002002F0EAFA042012E058
:10531000200712D52879012802D002280AD107E0F7
:105320000096AB8B6A8B298BE88A00F00BF801E0C2
:1053300000F05AF908206040FEBD0020FEBD0000CC
:1053400040BEFF1FF8B5134C069EA579052D01D070
:105350001420F8BD104F851FBD4219D2062917D35E
:10536000BD1DA94214D2FF27F537BA4210D20A2B2D
:105370000ED3AB420CD2E08221836283A3833046FA
:1053800002F0AEFA04216079FFF7A4F90020F8BD1D
:105390001820F8BD40BEFF1F7A0C0000F7B50D467F
:1053A00080490098164642187F4F00247879B979D1
:1053B0001300FFF72FF9190E141BE920404559700F
:1053C000777E888FE996A2A9B4BFC8E9E9E9E9D355
:1053D000E900102D76D11022314674486FE0102D6F
:1053E00070D1724810223146103068E0042D69D126
:1053F0003068F862CEE0012D64D13B7832783A70A3
:10540000002B0AD0002A07D1022903D0062901D097
:10541000042901D1FFF764F9BCE0002A0AD0012970
:1054200005D0032903D0052901D0042902D1012187
:10543000FFF75CF9AEE0022D44D13088B881A9E0D5
:105440001F2D3FD858481F2200214230FFF7EEF8A9
:1054500055482A4631464230FFF7E2F8524B7D70FC
:1054600042332A46012112E01F2D7CD84F481F22CB
:1054700000211F38FFF7DAF84C482A4631461F381A
:10548000FFF7CEF8494B2A461F3BBD7000217879C3
:10549000FFF732F983E0012D65D13078042862D816
:1054A000387277E0012D5ED1307803285BD87872AE
:1054B00070E0062D57D13C48062231463030FFF7C8
:1054C000AFF867E04FE0012D4DD1307807284AD87A
:1054D000B8725FE0012D46D13078032843D8F872C6
:1054E00058E0022D3FD13288BA82002A52D00529D5
:1054F00050D10221FFF7E8F84CE0012D33D130788C
:10550000012830D8F87045E03088022D2BD10628CC
:1055100029D31921C901884225D8F8823AE0308878
:10552000022D20D106281ED31921C90188421AD87C
:1055300038832FE03088022D15D1FF21F5318842C4
:1055400011D2788326E03088022D0CD10A280AD3A4
:105550001921C901884206D8B8831BE03178012D92
:1055600001D1012901D0182414E00821FFF7CAF85D
:10557000002801D016240DE0002002F0B1F904212A
:105580007879FFF7A7F805E00098272801D2022DC7
:1055900002D002242046FEBD3188FFF7B9F8044648
:1055A000F8E70000FFFCFFFF40BEFF1FDBC5FF1F49
:1055B0001CB50B4CA179002901D011201CBD00287D
:1055C00000D06062064907482C31034601910090E3
:1055D000103B0022E179607900F016F800201CBD34
:1055E00040BEFF1FEBC5FF1F10B506488179052996
:1055F00001D0122010BDC18913224079FFF78EF827
:1056000010BD000040BEFF1FF8B51D460224069FD6
:10561000079E0B00FEF7FEFF051104111104110097
:10562000FFF782F8040008D1324639462846FFF7D2
:1056300081F8FFF785F8FFF789F82046F8BD0000EC
:10564000014610B50020C90704D0034A04210348CD
:1056500000F0A6F910BD000080BCFF1FBCBEFF1FFC
:1056600070B50F4D0F4CA87029461031204600F040
:105670001DF8002128460B460830CA008452121833
:10568000491C09065360090EF7D0142002F002FDF0
:10569000A878FFF761F80448FFF764F870BD0000D0
:1056A000A4BEFF1FFFFF0000AD79FF1F70B50A4CBD
:1056B0000025A04209D1002082008C525218401CC3
:1056C000C0B295700228F7D370BD02F03EF90028F1
:1056D000FAD00480857070BDFFFF0000F8B50E465B
:1056E0000746069900240798002902D00B2420467B
:1056F000F8BD022B01D00D24F9E71178527812027F
:1057000089188DB22946814301D08024EFE73846BD
:10571000F16800F03DF9A842E9D02A463846F16820
:1057200000F0C6F90400E2D171892A46384600F03B
:1057300065F9DCE770B50C46080412D50A48807894
:10574000FEF7AAFF050008D02878B02802D1284625
:1057500002F00CFA2846FEF7A5FF0120C0036040C6
:1057600070BD002070BD0000A4BEFF1FFFB587B054
:10577000087A0025109E1C460F46C0060DD50998D4
:1057800002F0DCF8030006D00A2239460798984751
:10579000050035D101E00E2532E0387802281DD110
:1057A000786829220178407812020002081880B235
:1057B000811A90427ED009DC7249401A23D0012818
:1057C00021D0022851D0032808D125E0012972D028
:1057D000022971D003296DD004296ED0099802F0F6
:1057E000D5F80028D7D00568002DD4D0129911988B
:1057F000019100903346224639460798A84705464E
:1058000028460BB0F0BD1198002873D1F8680178D4
:1058100031700278416897E0119800286AD1012020
:105820003070F8680021007820707889401C80B2C0
:10583000FEF79EFF00280FD0317802788918891C66
:105840003170817A61704189090AA17002784168DA
:10585000E01CFEF7E5FED3E730780422001D30702F
:105860000021601CFEF7E2FECAE71198002872D101
:10587000F86804A900880090042030700098207017
:105880000098000A60700098FEF772FF070028D0A9
:10589000F86805906846028A03AB3B493846FEF734
:1058A0006DFF00280FD13B78022138487A68FEF757
:1058B0006BFF03E027E031E01DE049E0002802D162
:1058C0003148694688810598007802280CD10598EE
:1058D00002224168201DFEF7A3FE3078801C307044
:1058E00002E069460098888168468089A070000AB5
:1058F000E07085E72FE0119800282CD1F96807980F
:1059000000F046F804E01198002824D1F8680088D7
:10591000022131702070000A607071E7F868FEF7AC
:1059200039FF1199C0B2814210D8814201D10022C1
:1059300006E0129A8918814202D31199401AC2B224
:105940003270F96811980918204682E7072557E751
:105950001198002801D00B2552E70721F868317013
:1059600001782170417861708178A1704188090ABD
:10597000E1700179217181796171C088000AA0719B
:105980003EE7000000280000FFFF0000DA2F0100C2
:1059900010B501F0DAFF002800D0807810BD0000BB
:1059A0007CB51446050019D0684601950180FEF7C4
:1059B000F7FE03001DD1002C1BD06D89002D0DD0EA
:1059C0000C20FEF7F3FE00280AD000230360858038
:1059D000094A84605168002904D006E0022308E0E7
:1059E000132306E0506004E011460A68002AFBD148
:1059F000086018467CBD0000A4BEFF1FF8B50C4C23
:105A00000746207815460E46FF280FD00A20FEF7DD
:105A1000D3FE01000AD0B120087000204870087140
:105A20004F80CE800D812078FEF7CCFEF8BD0000BF
:105A3000A4BEFF1F70B50C4605460649FFF7A8FF38
:105A4000800704D521462846FEF7C2FE70BD01201E
:105A500070BD0000B4BEFF1F1CB56B461A71120A60
:105A60005A7100220092022301AA00F001F81CBD25
:105A7000FFB583B008461E4601A90C9FFEF778FECD
:105A8000050012D06846808801F080FF00280AD007
:105A90004468002C07D00097F3B22946059A039872
:105AA000A04707B0F0BD0E20FBE70120F9E700009A
:105AB00070B514460E46054601F047FF002806D192
:105AC0003146054801F041FF002803D0058084706D
:105AD000002070BD112070BDFFFF0000014610B511
:105AE0000020C90704D0034A07210348FFF758FFE5
:105AF00010BD00006CBCFF1FCCBDFF1F70B50D4674
:105B0000164600241D490300FEF784FD08051234E3
:105B1000341934222934152D23D81622002118488F
:105B2000FEF784FD2A4631461548FEF779FD22E04E
:105B3000022D16D111491088103908801BE0082D5C
:105B40000FD10E48082231460838FEF7D1FA12E08C
:105B5000012D06D1CA6909493078283107E0012DA5
:105B600001D0182407E0CA6B04493078483102F0AC
:105B70005AFB00E00224204670BD0000CCBDFF1F90
:105B8000A6C5FF1FFFB504464E4F81B00020386008
:105B900020461D46BF30FEF721FE4B4826460078C2
:105BA000B23680340828A06E32462CD00121FEF790
:105BB0001BFE444F3078F863761C3046FEF7BCFA83
:105BC00000BA000AF17800020843B863361D304677
:105BD000FEF7B2FA00BA000AF178000208437863CF
:105BE000361D3046FEF7A8FA00BA000AF178000226
:105BF000084338630398010202980143F960039F48
:105C000000263F1D0EE00021D1E7A819401CFEF739
:105C100093FA0102A85D01432C4830180160361D3B
:105C2000F6B23F1F042FF0DA032F04D0022F08D062
:105C3000012F0FD014E0A819FEF77EFA0102090A1D
:105C400009E0A91948780978000208431F4971182A
:105C5000086003E0A95D1D4830180160361DF6B2EA
:105C600000211A4A02E0B0180160361DFF2EFADD4D
:105C70001448174B43600F230361012303604369FA
:105C8000002BFCD0436901600020039B11E08118C8
:105C900009682954401CC0B20E0A2E54401C0E0C38
:105CA000C0B22E54401CC0B2090E2954401CC0B2D0
:105CB0001B1F002BEBDCA06E401CA066012005B072
:105CC000F0BD000000000440E511FF1F000104408A
:105CD000080F0000FFB504464D4F81B0002038602A
:105CE00020461D46BF30FEF779FD4A48264600781B
:105CF000B23680340828606E32462BD00021FEF781
:105D000073FD434F3078F863761C3046FEF714FA83
:105D100000BA000AF17800020843B863361D304625
:105D2000FEF70AFA00BA000AF17800020843786325
:105D3000361D3046FEF700FA00BA000AF17800027C
:105D4000084338630398029900020843F86000266C
:105D5000039F0EE00121D2E7A819401CFEF7ECF9E1
:105D6000A95D000208432C4971180860361DF6B27F
:105D70003F1F042FF0DA032F04D0022F08D0012F89
:105D80000FD014E0A819FEF7D7F90102090A09E0BB
:105D9000A91948780978000208431F49711808605A
:105DA00003E0A95D1C4830180160361DF6B20021E1
:105DB000194A02E0B0180160361DFF2EFADD0F23EC
:105DC00013481B0243600F230361012303604369EF
:105DD000002BFCD0016003980023001D11E09918EE
:105DE0000968E9545B1CDBB20E0AEE545B1C0E0C16
:105DF000DBB2EE545B1CDBB2090EE9545B1CDBB278
:105E0000001F0028EBDC606E401C606605B0F0BD32
:105E100000000440E511FF1F00010440F0B589B007
:105E2000FEF7E8FCFE4908600420FEF7E9FCFEF7F7
:105E3000EDFC0446C00712D0FA490020086072B693
:105E4000FEF7EAFCF849F94DF94E02280BD001287B
:105E50007ED0F84F05287CD004287BD0ADE2FEF739
:105E6000E1FC09B0F0BD08780F46012806D00328F0
:105E700004D0022802D005286DD09EE20720FEF74C
:105E8000BFFC08AB07AA06A9EB48FEF7D1FCEA491C
:105E90003439898E0B074906CA0FE7491B0F34397D
:105EA0000C46403420319446002801D0032B05D005
:105EB000052B6ED0387801286CD081E23878012823
:105EC00001D00328F9D1D94843695B1C4361DB4BFE
:105ED000087FDD79A842F0D1487F1D7AA842ECD135
:105EE000887F5D7AA842E8D1C87F9D7AA842E4D134
:105EF0002078DD7AA842E0D160781D7BA842DCD111
:105F0000F5680020AD8D2D072DD5DB7B012B01D051
:105F1000032B28D1C3001F1AC94BDD5D95421DD14B
:105F2000FB188D7D5F78BD4218D1CD7D9F78BD4235
:105F300014D10D7EDF78BD4210D14D7E1F79BD4258
:105F40000CD18D7E5F79BD4208D1CD7E9B7903E077
:105F5000E5E0E6E02EE2E0E09D4202D0401C0828A9
:105F6000D8DB082817D0B14D686D401C6865706C8F
:105F7000002802D0804700289FD0FEF75FFC012751
:105F80007770FEF737FCA6490968884208D9401A9D
:105F900009E02CE0AFE0A548016A491C01620FE26C
:105FA000A84A511A0818F16876230A79181A801A33
:105FB0004A6C096CD2B2C9B2C0B2FEF745FCFEF71A
:105FC00049FC9848076000207070FEF749FCFEF716
:105FD0004DFCA08C010A9848891C3030FEF74CFC1F
:105FE0000E20FEF70DFCA869401CA861E8E13F788F
:105FF000012F01D0022FD2D1E869401CE8618F48FF
:106000000B7FC0798342CAD18C484B7F007A834290
:10601000C5D18A488B7F407A8342C0D18748CB7FE5
:10602000807A8342BBD185482378C07A8342B6D137
:106030006078824C237B9842B1D1F0680023808D38
:10604000000726D5E07B022801D0032821D1D80003
:10605000C61A7B48845D944218D130188C7D4678EE
:10606000B44213D1CC7D8678B4420FD10C7EC67871
:10607000B4420BD14C7E0679B44207D18C7E46796E
:10608000B44203D1CC7E8079844202D05B1C082BC1
:10609000DDDB6D48022F1AD10478644527D18A7D53
:1060A0004478A24223D1CA7D8478A2421FD10A7EBD
:1060B000C478A2421BD14A7E0479A24217D18A7EBB
:1060C0004479A24213D1C97E827991420FD1082B23
:1060D0000DD0696D0622491C6965614601705649FB
:1060E000401C891CFEF79CFAFEF7CCFB68E1686A4D
:1060F000401C686264E15149487BC20701D02520F9
:1061000004E0800701D5262000E02720097D814298
:10611000ECD93220FEF7BCFB52E107204EE106200D
:106120004CE10878072879D10B20FEF769FB41493B
:10613000FF22097825325143444A00208B185870B9
:10614000505443480068002805D0FEF7A7FB40499B
:106150000978C84005E0FEF7A1FB3E490968FEF753
:10616000A3FB0746E00535D539480068002805D06F
:10617000FEF7A0FB36490978C84005E0FEF79AFB18
:1061800034490968FEF790FB2A4B00901878FF21EC
:10619000253148432D4940180279002A01D00022B8
:1061A0000271234A7130121D911D04F0BDFEF16889
:1061B0000098C968381A411827480160600526D53B
:1061C0001C49FF22097825325143204A01208918B1
:1061D00048701CE01748FF22007825321B4B012134
:1061E00050431954296DFF3F491C2965F1680F3F41
:1061F0000969C018CA19184920300A60407E410058
:1062000016480818FF300130018D491C01852046D1
:10621000009904F01FF8FEF753FB21E0CDE00000E9
:106220001C12FF1F1812FF1FE511FF1F0C31FF1F6B
:1062300064C4FF1F1512FF1FF82BFF1F442AFF1F06
:10624000892BFF1F40420F000C12FF1F5C2AFF1F0B
:106250002410FF1F2010FF1F2012FF1F4CCCFF1F18
:106260006149074608700020087248728872C87237
:106270005E48044202D0E86C401CE8645C48FF229F
:106280000078253250435B4A57498318D81DF930AE
:10629000827C06928A1DFF33C07C491C1333FEF7B3
:1062A00015FB02465248FF210078253148435149E9
:1062B0004018C11DF931CA740279002A0CD1022399
:1062C000069A897C1A4019408A4205D046494A7884
:1062D000002A01D101224A70474949688E220904E7
:1062E000090E0391125C002A02D0AA6ED219AA6686
:1062F0002030407E414D40004019C030C18BC9194B
:10630000C183FEF7E9FA01463948FF2200782532B9
:106310005043384A80182030407E40004019803079
:10632000828A8918818207AA05A904A8FEF7DAFAE9
:106330002F48FF210078253148432E49401820304E
:10634000407E694640002A5A097D51182952401959
:10635000403069464289097C51184181600705D562
:106360000398874202D23846FEF7C2FAFEF7C6FA11
:106370001D480021224B81701A78012A0CD1002F70
:106380000AD0204A1469002C03D0127DD243920710
:1063900002D00122827019708079002801D0FEF7A6
:1063A000B3FAFEF7B7FAF078002809D03189FEF782
:1063B0009DF905E00878082809D00520FEF720FAA5
:1063C000FEF730FA62B60320FEF71AFA49E538788C
:1063D000FF212531484307490B4A4018911D713070
:1063E00004F0A2FD0920E9E78031FF1F0208000048
:1063F0001512FF1F5C2AFF1F001003404CCCFF1F2B
:106400001312FF1F442FFF1F68C4FF1FF8B58E4FE4
:10641000079CBE1D9C460D46002A1FD0012A05D0B0
:10642000032A0ED0022A0CD0042A59D1002C57D0AE
:106430000699002901D0012952D1032A01D0022A4C
:106440000AD10146814BA039994249D2A02D47D3A8
:10645000012189038D4243D8002A0BD17B4B014691
:106460002039803399423BD2202D39D30121890331
:106470008D4235D8854233D36146002901D00129A8
:106480002ED10999002905D0012903D0022901D074
:10649000032925D10899490722D06D4B99880129F4
:1064A00020D09A7308994907490F59731CD068493D
:1064B000099BCB736346002B1BD001238B71337870
:1064C000CB7173780B72B3784B72F3788B7233792C
:1064D000CB7273790B73012A19D0042A28D036E0C5
:1064E0001220F8BD0C20F8BD594807214173302017
:1064F000F8BD00238B713B78CB717B780B72BB7836
:106500004B72FB788B723B79CB727B79E2E7514817
:10651000069B03702378437063788370A378C370FD
:10652000E3780371237943716379837102200EE06C
:10653000484B069E1E7026785E7066789E70A67820
:10654000DE70E6781E7126795E7164799C714880F0
:106550001300FEF75FF80504060A08060B00002585
:1065600004E0012502E0022500E006253A4E8A7982
:10657000B0880C460009000128434023910198434C
:106580000143D001802291430843B0800622E11DDF
:10659000B01DFEF745F837464037B88CA1790009A1
:1065A00000014022001D904389010143B984304617
:1065B0000622E11D6630FEF733F8A07C03210002BD
:1065C00049024118B2883F2000028243114389B238
:1065D000B180012D12D18143032080020818B080C0
:1065E0001C49BB8C087880229343C0011843B884AF
:1065F000304606220C30491CFEF712F81748017885
:1066000008291AD0072918D0A17B0B00FEF702F841
:10661000050408100C081700012101701F200AE072
:1066200002210170202006E004210170222002E0F6
:10663000032101702120FEF7E3F80020F8BD0021BE
:1066400001701E20F7E70000F911FF1F613F0000F5
:10665000442AFF1F0C12FF1FC42BFF1FE511FF1F51
:1066600010B50E480E4B0278FF2025304243002122
:10667000D018FF24C17013342154995401230246C9
:1066800003716032937113742023816119548E2336
:10669000195451740521818110BD00001512FF1F8E
:1066A0005C2AFF1FFEB572B65548C068476D866DFF
:1066B000082F01D8002F00D10427082E01D8002E62
:1066C00000D104264F48504D816C504C491C8164C8
:1066D0002878FF212531484300192030407E4100B1
:1066E0004B480818FF304130418E491C4186FEF767
:1066F00017F9FEF7B5F8FEF7B9F82878FF2125312C
:1067000048430019806AFEF711F92878FF212531E6
:1067100048430019406AFEF70FF92878FF21253118
:10672000484300192030407EFEF70CF92878FF21FD
:106730002531484300192030407EFEF709F92978B9
:10674000FF202530414308190279002A0BD02E2161
:10675000095C304A40695143400009182848C06824
:10676000C06F081815E0615C0029254909D0CA6886
:106770004069096C136940185B0040001818D16C1F
:1067800006E0C9684069CA6840005200C96C101828
:106790004018FEF7E3F81A4DE868806CFEF7E4F85D
:1067A000E868416CCAB2016C808FC9B2C0B2FEF712
:1067B0004BF80420FEF7DEF80720FEF7E1F802A907
:1067C0003846FEF7E3F869460989C2B201250E484A
:1067D000019100950078FF21253148430019FF30D1
:1067E0000130817CF3B23020FEF7D6F8FEF732F8A4
:1067F0000948056062B61420FEF702F8FEBD0000ED
:1068000064C4FF1F0C31FF1F1512FF1F5C2AFF1FFE
:106810004CCCFF1F710200001812FF1F002805DB7F
:10682000C106C90E01208840014908607047000078
:1068300000E100E08307FF22DB0E9A408907090E82
:106840009940002808DB830809489B001B1818683A
:1068500090430843186070470007000F083883080A
:1068600004489B001B18D86990430843D8617047BF
:1068700000E400E000ED00E08307FF22DB0E9A4019
:106880008907090E9940002808DB830809489B0006
:106890001B18186890430843186070470007000FE2
:1068A0000838830804489B001B18D86990430843A4
:1068B000D861704700E400E000ED00E0F8B5044660
:1068C000002003460A5C8507ED0EAA401343401CD6
:1068D0000428F7DB00F068FC0028FBD100F0BEFDC7
:1068E00021022004090E0843FF273F0221463940B8
:1068F000084372B600211A4DA960194E0002803E6D
:10690000801C3060336062B600F04EFC0028FBD182
:1069100000F094FD11200006201869462A695207EC
:10692000FCD572B60422AA6004020204240E22439B
:10693000384002431002C01C306062B6286940072C
:10694000FCD53078087030784870307888703078AE
:10695000C8700098984201D00020F8BD0120F8BD11
:106960008000081170B5974C8CB0E07006211F2094
:10697000FDF7CEFE01216846017201730721017403
:1069800000268682502181831921490101847D21BD
:106990008684C90001858CA003C8019100906846D7
:1069A000067606AA01218A48FEF7F8FC88486A465E
:1069B0000621801CFEF7F2FCC32004AA01218000FE
:1069C000FEF7ECFC824802AA0121001FFEF7E6FC5C
:1069D0007F4805AA0221C01EFEF7E0FC2246612086
:1069E00024321E21C000FEF7D9FC794822464232EB
:1069F0001E21801EFEF7D2FC312003AA01210001D6
:106A0000FEF7CCFC724807AA02210830FEF7C6FC4C
:106A10006F4808AA02210930FEF7C0FC6C4809AA99
:106A200002210A30FEF7BAFCC5200AAA0221800022
:106A3000FEF7B4FC2246603215210020FFF75EF815
:106A400019252D0229460620FDF762FE294607205A
:106A5000FDF75EFE29460820FDF75AFE294609206B
:106A6000FDF756FE751E2846FFF738F82846FEF754
:106A7000E7FDFEF71FFA284600F04CF9554B564942
:106A800000208200D5182D68401CC0B28D503828D7
:106A9000F7D3514A0020303A8300CB5C1354401C9A
:106AA000C0B21028F8D3086C2081486CE0814A4AB3
:106AB0000020203A83005B189B6C1354401CC0B22A
:106AC0001028F7D3444D803528896081A889208219
:106AD00000202B46903B820052188032127C1A54C0
:106AE000401CC0B21028F6D3286DA081686D60826A
:106AF000A86DC0B2A07004F02BFCE86D80B2E080FD
:106B000004F078FB6846344A0670303A10210120C0
:106B100000F05AF92B4A02210832084600F054F9D5
:106B2000284A02210E32032000F04EF92A4A102191
:106B3000203A042000F048F9224A02210A320520B6
:106B400000F042F91F4A02211032062000F03CF901
:106B5000214A1021103A072000F036F9194A022183
:106B60000C32082000F030F9164A022112320920B6
:106B700000F02AF9134A0121921C0A2000F024F99E
:106B80006A4601210C2000F01FF90E4A0221921DD5
:106B90000B2000F019F90B48183000F00BF9012117
:106BA000E078FDF7A3FD7D2109010F2002F0B6FB7F
:106BB00000F058FA0121094A4902E078FDF784FD06
:106BC0000CB070BDD0C3FF1F010203040506000016
:106BD00009030000005000116CC8FF1FDC05000015
:106BE000F8B5444D0C46E878090408D5FDF754FD86
:106BF000002801D0FDF756FD0120C0035EE0E1074B
:106C00003D4F0126002909D03A481C30FEF7D0FC40
:106C10003A460221E878FDF757FD58E0A1070DD567
:106C20003A460221FDF750FDA8883449884203D234
:106C30002021E878FDF75AFD02203FE0610703D5E7
:106C400004F074FE042039E0210708D56846067078
:106C50006A4601212A48FEF7A1FB08202EE0E10642
:106C600013D500F021FA00F03DFA2649FDF7C7FAE6
:106C70000646FDF7A0FBA8803046FDF783FB0146E2
:106C800021A003F027FE102018E0A10606D540221F
:106C900064210E2002F065FB20200FE0610604D580
:106CA0000E2002F06FFB402008E0184E210607D5A9
:106CB000324664210F2002F054FB80206040F8BD72
:106CC000E10507D5802212490F2002F03AFB204649
:106CD0007040F8BDA1050AD5EA8801256D02294654
:106CE000FDF7F2FC04F022FE20466840F8BD0020CB
:106CF000F8BD0000D0C3FF1F88130000B80B0000D0
:106D00000503000000007A4425640A000001000029
:106D10006C07000070B5054600240648FDF722FD0B
:106D2000E80705D0044A27210448FEF739FE044647
:106D3000204670BD1DB5FF1FB0BCFF1F30BFFF1F39
:106D400070B50C460146002518480B00FDF762FCA3
:106D50000D2A080B0D1017191B1F212325272A00A8
:106D60001022134907E0408800E0808820801AE064
:106D70000F49102210312046FDF752FC13E0C08865
:106D8000F4E70089F2E70A4910222031F3E740894D
:106D9000ECE78089EAE7007802E0C089E6E740781E
:106DA000207000E00225284670BD000000BFFF1FD4
:106DB0000CC8FF1F002803D002490861002070475B
:106DC0001120704700BFFF1F70B515460246002412
:106DD0003A481300FDF71EFC0E6E080E17202730F0
:106DE00039424B545962696E102959D80A462946CE
:106DF000334830E0022953D169782A7809021143D7
:106E000049BA418057E002294AD169782A780902B3
:106E1000114349BA81804EE0102941D828480A46DA
:106E20002946103017E002293AD169782A780902F8
:106E3000114349BAC1803EE0022931D169782A78EC
:106E40000902114349BA018135E0102928D81C48AC
:106E50000A4629462030FDF7E3FB2CE002291FD12A
:106E600069782A780902114349BA418123E002294D
:106E700016D169782A780902114349BA81811AE04A
:106E800001290DD12978017015E0022908D169780E
:106E90002A780902114349BAC1810CE0012901D0C5
:106EA000182408E02978417005E004480A4629467C
:106EB0001C30D0E70224204670BD000000BFFF1F39
:106EC0000CC8FF1F024901480860704740787D01E7
:106ED00060C4FF1F10B572B61948C068C00703D060
:106EE0001748001FFDF75EFD154C403CA06BC00726
:106EF00007D013481838FDF755FD12480168491CA2
:106F00000160606AC0070CD0E16A0F48C162A169E4
:106F100041630B482C38FDF745FD0C480168491CBE
:106F200001602069C00707D02046FDF73BFD2046E1
:106F3000FDF73EFDFDF742FD62B6002010BD0000EA
:106F4000401002402C10FF1F64C4FF1F3010FF1FB1
:106F500010B57D21C003C900FDF7A6FC00F002F8C2
:106F600010BD0000F8B50646002400F095F905466E
:106F70000648471B06E000F08FF9A84201D3441BE6
:106F800000E03C18B442F6D3F8BD0000FFFFFF005C
:106F900008B500020091000A04226946FFF78EFC42
:106FA000002800D0012008BD2021020C01D01021B2
:106FB0001046020A01D010460839020901D01046D5
:106FC000091F820801D01046891E420801D0881E80
:106FD0007047081A704702E008C8121F08C1002A4B
:106FE000FAD170477047002001E001C1121F002A4A
:106FF000FBD1704710B5FDF7E7FC0120FDF7EAFC77
:10700000FDF7EEFC002010BDF0B500248E464A1EB0
:1070100012E0714600230D1B6D1E0AE09E00311820
:107020008C46875949688F4202D9815161464F6029
:107030005B1C9D42F2D8641C9442EAD3F0BD000070
:1070400038B50168064C012908D100210091027B66
:1070500081680079002301F0B1FB606038BD000059
:1070600048C4FF1F10B50BA003F034FC0C480021EE
:107070000160416000F018F80A487D2212011021D9
:107080000078FDF721FBFF20F53000F01FF800200D
:1070900010BD0000626174745F696E69740A00005B
:1070A00048C4FF1FD3C3FF1F10B50021054A0620A7
:1070B00001F09AFA002801D101F010FB024800F01B
:1070C00005F810BD4170FF1F60EA0000024610B5D0
:1070D000034810210078FDF7F7FA002010BD0000EA
:1070E000D3C3FF1F014840687047000048C4FF1F1A
:1070F00010B505231B221F210D4804F045FB0C4C45
:107100000C4B083407221021204604F03DFB0622D8
:1071100001231146204604F037FB05481438416A24
:10712000012211434162C169034A1143C16110BD8B
:1071300014F00040FB03000004003E0070B5084D51
:10714000284600F029FA074E0024A00031584019C3
:10715000FFF71EFF641CA4B2382CF6D370BD0000EC
:10716000005000116CC8FF1F10B50020054CFF2116
:107170002218401C51704028FADB03F08DFD20706E
:1071800010BD000030CEFF1F10B50020054CFF21C0
:107190002218401C51700628FADB03F09BFD20707A
:1071A00010BD0000F7C4FF1F084801694907FCD55E
:1071B000012181600549052280390A700269520760
:1071C000FCD50878C007C00F704700008000081188
:1071D000F0B58646080CFF268446002388B2374661
:1071E0001C46194601228A4005461540CD402C19FF
:1071F000A4B2FF2F02D1012C00D18FB265462A40E4
:10720000CA40D21893B2FF2E02D1012B00D18EB208
:10721000491C1029E6DB012C02D0102C08D009E013
:10722000012B07D13001C019714608700220F0BD52
:10723000102B01D00320F0BD0120F0BD10B5282196
:107240000148FCF76EFF10BD24CCFF1F032806D3B6
:10725000012189078A68012383409A438A60704725
:10726000032806D3012189078A68012383401A4332
:107270008A60704701480068704700001410FF1FC3
:10728000012189070B680122824093430B60086843
:1072900010430860704700000449886A0202886A47
:1072A000120A0002000A9042F7D1704700F0004035
:1072B00010B504460120FFF755FE1149CB6A11486D
:1072C000C26A934202D2C96A511A00E000210163E6
:1072D000FFF7E2FF0C490123C86201190A46083290
:1072E0001B069A4203D309310902090A641A0119DB
:1072F0000648C162416A2922D2031143416210BD8E
:107300000010024064C4FF1F0012FF1F00F0004085
:10731000F8B5496894460A784978069C09025118DC
:107320008EB2424A132100250798B71A091B9642CC
:107330003FD009DC3E4AB21813D0012A1CD0022AE1
:1073400024D0032A08D12AE0012F3CD0022F44D0B8
:10735000032F4CD0292F56D0002018700A2528461C
:10736000F8BD082C51D20821091B814200D80846DB
:10737000C2B21A702F4853E0132C46D2814200D873
:107380000846C2B22B481A70083049E0132C3CD290
:10739000814200D80846C2B21A70274840E0132C38
:1073A00033D2814200D80846C2B222481A701C303B
:1073B00036E0132C29D2814200D80846C2B21D48BB
:1073C0001A7030302CE0132C1FD2814200D80846AE
:1073D000C2B218481A70443022E0132C15D28142F0
:1073E00000D80846C2B213481A70583018E00E2C64
:1073F0000BD20E21091B814200D80846C2B20D48AB
:107400001A706C300CE0072C01D30725A7E7072181
:10741000091B814200D80846C2B206481A70C01F34
:1074200001196046FDF7FCF899E70000272A0000E3
:10743000DDD5FFFF17C2FF1FD8BCFF1F064801693B
:107440004907FCD500218160034A0421803A11706C
:1074500001694907FCD57047800008110648016999
:107460004907FCD500218160034A0621803A11704A
:1074700001694907FCD5704780000811F8B5414AF9
:107480000446D068808DC00764D03F48406A3F4DB5
:107490008104890CA94202D96842081800E0681AE0
:1074A000C82819D32B2601233601DB02B04207D2AC
:1074B000C80041028601891BC6008919081A09E023
:1074C000C80041028601891B4601891BC600891B31
:1074D00040000818C018010B2C482D4BC4308142C5
:1074E00000D9196819607D26906AF600B0420AD268
:1074F000284EFF278E198A37BE4200D3116A401CDE
:107500001960906209E0106A060A37188F4203D3A7
:10751000861B8E4200D808461860106AC100091AFE
:1075200018680918C9081162C108A8420AD9194A7D
:10753000C43A80186043C00801E0401A641E8842C3
:10754000FBD807E0281A6043C00801E0401A641C19
:107550008842FBD80C48062200231146243804F048
:1075600013F92046FDF742FA01F0AEFB01F03CFBB7
:107570000020FDF745F90120FDF73EFA0120FDF757
:1075800041FAF8BD64C4FF1F40F00040420F000004
:107590003412FF1F82F1FFFF03460002012100B5F4
:1075A000000A490388421BD3FFF7FEFD0028FBD1E8
:1075B000FFF754FF0B490020886019021804090ED8
:1075C0000843FF2109020B40184306490002803995
:1075D00020300860FFF7E8FD0028FBD1FFF72EFF01
:1075E00000BD00008000081170B50A4D0646002459
:1075F0000E206043401906223146FDF735F8002879
:1076000001D0204670BD641CE4B20A2CF0D30A20DD
:1076100070BD000010C5FF1F7FB50C460A280CD2B4
:10762000002C0AD0062148432030C0B26A460E2101
:1076300003F0B6F8050003D007E0022004B070BDE7
:10764000062269462046FCF7EBFF2846F6E70021B4
:107650008A00835A491CDB43835212189378C9B2BB
:10766000DB4393700429F3D370470000F8B57A4CDC
:1076700087780146002507266079A2793B00FCF750
:10768000C9FF0805361A37375F9ACD364878002883
:107690005CD1714806223C30C91CFCF7C1FF0120B7
:1076A000A0716D4B0146423362786079FDF724F892
:1076B00000284BD1A8E00F464978002946D1F97837
:1076C000002906D0654BA2780021FDF715F87870E7
:1076D0000AE0022A0BD00121FDF714F8002803D19B
:1076E00001216079FDF702F8787800282ED1F8BDE5
:1076F000497800292AD1032F09D0A289002A0CD069
:10770000217800290AD00121FCF7DEFF06E0052AD6
:1077100001D0022012E0062010E02570A079062892
:1077200002D0042802D008E0052007E001202070E4
:1077300001466079FCF7DAFF66E00320A07163E0A0
:1077400048780F46002803D0312832D0A6715BE07C
:1077500041480622391D3630FCF762FF7889E08106
:10776000B8892082F88960820520A071A28A002A47
:1077700003D002216079FCF7A7FFB889E083F8897C
:107780002084388A6084E07801280AD11F20FCF721
:1077900077FF7D21C9004843024604216079FCF748
:1077A00093FF7A89F8780423391DFDF7BFFB257014
:1077B0002AE02570C1E728480E460622002136300F
:1077C000FCF734FFE5832584658404216079FCF7A8
:1077D00081FF08216079FCF77DFFB079082808D087
:1077E0000320A0712078002805D06079FCF778FF8D
:1077F00007E00420F5E70120207001466079FCF7DE
:1078000075FF0020C043E081606A002800D16EE768
:1078100001680029FBD0A0798847F8BD0D460821F2
:10782000FCF758FF687829460028F6D1E888E083FD
:10783000288920844889608404216079FCF762FFEC
:107840000028EAD1A06A0028E7D00368628C218C66
:10785000E08B9847F8BD000040BEFF1FBCC5FF1F6E
:1078600010B501781C4C912906D0A2291BD0D02933
:1078700001D1FFF7FBFE10BD41780E29FBD18188B5
:10788000164A9142F7D1816803200856A17905294B
:10789000F1D17F28EFD0616A0029ECD04968002936
:1078A000E9D0884710BD41791329FBD1008901280F
:1078B00002D12079022808D00520FCF7E1FE02461B
:1078C00008216079FCF700FF10BD08216079FCF702
:1078D00001FFFDF789FE10BD40BEFF1F051400002B
:1078E0007CB5154C0546E08BE18A88420AD3218B92
:1078F000884207D8208C618B884203D1608CA18B91
:10790000884217D00520FCF7BBFE0646E18A684690
:107910000180218B4180618B8180A18BC180627944
:107920006946E089FDF774F82571324608216079CF
:10793000FCF7CAFE7CBD000040BEFF1F10B500F082
:1079400025F8002800D0806810BD00229300CB5A93
:10795000834202D1900040187047521CD2B2022AD2
:10796000F4D3002070470000074A0021CB00D35A0F
:10797000834202D1C80080187047491C0906090ECD
:10798000F4D0002070470000ACBEFF1F06494968D4
:1079900005E08A88824201D1886870470968002919
:1079A000F7D1002070470000A4BEFF1FF8B50746BE
:1079B000012906D0022924D10121FDF72FF8002842
:1079C0001FD13846FFF7D0FF050015D000240D4E1B
:1079D0000CE018206968604308180188002908D065
:1079E00018220021FCF722FE641CE4B27078844265
:1079F000EFD30020C0432880024938461031FDF7FC
:107A000055FEF8BDA4BEFF1FF3B5064683B008308F
:107A10000190002000907088FFF7A6FF07002FD08C
:107A2000002523E01820796868430C182188002974
:107A300020D00198007801280FD160880090237928
:107A40007088621DFEF714F80090002805D0019997
:107A50000020087004982188018018220021204607
:107A6000FCF7E4FD00206D1C2080EDB20748407853
:107A70008542D7D30020C04338800098002802D127
:107A80007088FCF7D1FF009805B0F0BDA4BEFF1FC1
:107A9000F3B50546334C064685B00835162200215D
:107AA0002046FCF7C3FD03A800902B79698828883D
:107AB0006A1DFCF7BFFF074640E02B48102200215B
:107AC0006B4607C3274B69468A897088163B39463F
:107AD000FDF74CFE002812D12348E979C01EC27878
:107AE00091420CD11F49284616390830FCF7BCFDDD
:107AF000002804D0217878898900091948806846CF
:107B00008289698804AB3846FCF738FE074620783E
:107B1000810009194A88002A10D0002F05D06A4632
:107B2000128A401C20708A800AE002060021920D11
:107B3000C9431219401C2070918004E0002F02D02C
:107B400020780528B9D32078002806D070882146EF
:107B5000FCF776FF002007B0F0BD06982988018069
:107B60000A20F8E7F2C7FF1FA7BEFF1FF0B585B0D8
:107B7000044600276846878120790E2860D00EDCF5
:107B8000082821D004DC022812D006287FD116E074
:107B9000254608350A281CD00C2878D133E0102857
:107BA00053D0122856D0162859D018286FD15BE030
:107BB0003949172008806088FCF748FF67E003A96F
:107BC0002046FFF765FF53E003A9204600F056F971
:107BD0004EE0288804A9FCF7CBFD010011D02E4E01
:107BE00016200197009602906A466088731C128ADC
:107BF000FDF7BCFD00281AD160883146FCF72CFF48
:107C000045E0012013E0288804A9FCF7B1FD01003C
:107C1000F7D06A88204E16200192009602906A469C
:107C20006088128A731CFDF7A1FD002803D0298803
:107C30006A4691811CE060883146FCF713FF26E01C
:107C400003A9204600F09AF912E003A9204600F0AB
:107C500075F80DE003A9204600F0E4F908E003A957
:107C6000204600F01BF803E003A92046FFF7CCFEF6
:107C700000280CD06178142909D0074922790A70AC
:107C80006A4692894A8008716088FCF7F1FE2046B6
:107C9000FCF7F4FE05B0F0BDF2C7FF1FF8B50446CF
:107CA0000F460546083400896946FCF761FD060069
:107CB0003AD0307A80060ED568460088FFF73EFE3F
:107CC000030006D06888122231469847060002D089
:107CD0002BE00E2629E06E883046FFF745FE0100B6
:107CE00005D11448FFF740FE01000ED00E80124A65
:107CF0000020527807E018264B6846439B5B002B18
:107D000005D0401CC0B29042F5D309260DE0496869
:107D10001822504308182146FCF782FC0026688888
:107D20002146FCF7B1FE02E001262088388030466B
:107D3000F8BD0000FFFF0000A4BEFF1FF3B58BB02D
:107D400000200B9E0746039004A800903246337B28
:107D500071893089474C0D320836FCF76BFE0546B9
:107D60006DE00B98297A4088FCF794FE070003D059
:107D70000C986989018064E03F48112200216B461C
:107D800007C30B983B4B69460A8A4088163B294635
:107D9000FDF7ECFC0700EBD1039800282DD0364806
:107DA0006178C01EC078021D91424DD10399081818
:107DB000112849D80398A97A2018817003986989F5
:107DC000401CC0B22218090A401C9170C0B2039036
:107DD0006846028A718807AB2846FCF7CFFC05008D
:107DE00011D06946888B0399611888700398694699
:107DF000401C898BC0B2090A0CE01F48C01EC07825
:107E0000001D6070D6E70398FF2120188170039849
:107E1000401CC0B222189170401CC0B21649039099
:107E2000C91ECA78134920181639801CFCF7F8FBC4
:107E300011490398C91EC9784018C0B20390002D9B
:107E40008FD1039800280CD061780398FCF72CFDA3
:107E500020700B9821464088FCF722FE00200DB0D0
:107E6000F0BD002F00D10A270C98318801803846D8
:107E7000F5E70000F2C7FF1FA7BEFF1FF3B585B0EF
:107E8000059E3B4D308900240836039004A80090DD
:107E900033797188721D0398FCF7CCFD070050D030
:107EA000788903900598397A4088FCF7F3FD00281B
:107EB0000FD13048132200216B4607C305982C4B85
:107EC00069460A8A4088163B3946FDF74FFC002870
:107ED0000ED0002C44D069782046FCF7E5FC2870D1
:107EE000059829464088FCF7E1FD002007B0F0BD69
:107EF000002C29D01F486978C01EC078801C8142A0
:107F0000E9D11C49C91EC8782018132819D82A1984
:107F1000B87A9070641CE0B27A892B18120A9A70B1
:107F2000401C0C46CA78C7B21149E8191639801CA2
:107F3000FCF776FBE07810493818C4B20398884201
:107F400008D1002CC7D10DE00A48C01EC078801CA3
:107F50006870D6E7401C80B20390132C96D9BAE71C
:107F6000002800D10A20069A03991180BEE700007C
:107F7000F2C7FF1FA7BEFF1FFFFF0000F3B585B0CC
:107F80000027264C059E27703D46083638E06800DD
:107F9000305A03A9FCF7ECFB010013D0204816234C
:107FA00000226F460DC705981C4B6A464088163B59
:107FB0009289FDF7DBFB070006D06800315A06986E
:107FC000018028E00127F8E7154A2078D21ED178F1
:107FD0004118162902D91621081AD0702178601C80
:107FE00008180F49C91ECA780C491639FCF718FB46
:107FF0000B482178C01EC07808186D1C2070EDB2A7
:10800000B07DA84202D920781628C0D30598214611
:108010004088FCF751FD384607B0F0BDF2C7FF1F9E
:10802000A7BEFF1FFEB504460F460646083400896A
:1080300001A9FCF79DFB050022D0287A80060ED509
:1080400068468088FFF77AFC030006D07088122209
:1080500029469847050002D013E00E2511E00020C4
:108060000090A37821887088E21CFDF701FD0500CF
:1080700007D1207E002806D17088FCF723FD02E09E
:10808000012520883880207E002801D00020FEBDF8
:108090002846FEBDF8B5044602461820424319485A
:1080A00000250746457008377868002807D000206B
:1080B000C100C919401C00064D60000EF8D0124ED8
:1080C00000213046FCF7B2FA002001466143C9B2F4
:1080D000182251438B190B49C20008315218002154
:1080E000536005E018274F435368491CDD53C9B25C
:1080F000A142F7D3401C0006000EE6D001484470B0
:108100000020F8BDA4BEFF1FFCC5FF1F7CB50C7886
:10811000069D022C0ED14C6826786478240234190E
:10812000054EA4B2F44205D1022400950194FDF756
:10813000D5FA7CBD01207CBDFED6FFFF0848816CCE
:10814000491C8164C16CC26C0902C90F5203D20F71
:108150005140C26C5202120A5118C164C06C70477F
:1081600064C4FF1FF8B5069800271D4614460E4646
:10817000002801D00B20F8BD30780021022801D062
:1081800019704DE0706802784078000210181522CE
:1081900080B25202801A0300FCF73CFA0504121F59
:1081A0001A254100F068FCF7F5FAC2B2079882423E
:1081B00000D902462A70F1682046FCF731FA30E017
:1081C000F0680221008829702070000A607028E0A1
:1081D000062028700246F168EEE701202870F0685A
:1081E000007820701DE0F068002816D00821297062
:1081F000017821700188090A61708178A170418835
:10820000090AE170017921718188090A6171817916
:10821000A171C088000AE07103E0297001E02970B3
:1082200001273846F8BD10B50B78840702D5022423
:10823000234301E0FD2423400B7003070B7802D594
:108240000824234301E0F72423400B7083060B78B6
:1082500002D52024234301E0DF2423400B700A21B0
:10826000084201D1810603D510780C21084304E0AF
:10827000002803D11078F3210840107010BD0000D1
:10828000FFB581B0087800240A9E1F460D460228DB
:108290000FD168680178407800020818152180B273
:1082A0004902401A09D0012829D0022848D00328C1
:1082B0003CD00124204605B0F0BDE868FCF76AFA1E
:1082C000C0B2864205D8F0190090152803D90D24B4
:1082D000F0E70724EEE7E8683A4680190399FCF7CF
:1082E0009FF90098EA6880B2002111541C48406848
:1082F0000028DFD001680029DCD0002012E0002E29
:1083000012D1022BE3D10399E8680A78497809026F
:1083100051180180124840680028CBD0016800291C
:10832000C8D001208847C5E70B24C3E7002EFBD146
:10833000062BCCD10622E8680399FCF771F9B9E75E
:10834000002EF1D1012BC2D103980078002803D070
:10835000012801D08024ADE7E9680870AAE7000091
:10836000BCBDFF1F10B5122801D3052010BD0C4B5A
:108370009C6B01228240104620439863586B9043C7
:108380005863DC6B002907D020469043D863186BF4
:1083900002431A63002010BD10462043F6E7000098
:1083A00000800040084A042807D2012307E0184350
:1083B00000E0984350610020704701231238834049
:1083C00050690029F5D0F2E70038004070B50F4D34
:1083D00000242E197078022807D9E0B200F048FB7B
:1083E000E2B20146104600F05FFB232C0ADA7078F7
:1083F000022807D9E0B200F03BFB0C216143491988
:1084000020314871641C232CE3DB70BDC4C9FF1FFD
:1084100070B502211020FEF72FFA1020FEF7FEF9AA
:10842000114E00240C206043801920300079002870
:1084300013D0E0B200F080FBE5B2284600F018FB54
:1084400000280ED000210C226A4392192032527962
:10845000824202D0284600F03FF8641C232CE1DB66
:1084600070BD0121EFE70000C4C9FF1FF3B5194E2D
:10847000002481B0074601252846A040384225D077
:108480000299084201D1012000E000200090E0B2F2
:10849000009900F021F80C20604380194168806841
:1084A00000290ED0002807D00098002802D0002113
:1084B000E0B203E00121FBE7E0B20021FFF752FF49
:1084C00004E0002802D0E0B20121F7E7641C122C7E
:1084D000D2DBFEBDE8C9FF1F074A0C2343439B18AC
:1084E0005A68002A01D0002904D09A68002A02D0D4
:1084F000012900D110477047E8C9FF1FF0B5204C93
:1085000095B0606B400A40026063002504AEE26BE8
:1085100001210846A84084460240900521D0002051
:10852000EA018300D718174BFB18DB6847001B05CF
:108530001B0D401CF3531D28F3DBA06B6246104358
:10854000A06311480278002A0BD0AA0010184268D4
:10855000002A06D00091684605711D21029601731C
:1085600090476D1C082DD2DB07484078002801D1C8
:1085700000F0DAF8606B05490843606315B0F0BDA0
:10858000000005400004054024CCFF1FFF0100004F
:1085900010B50448C16B034A40321068D060FFF741
:1085A00065FF10BD0080004010B50E4880680007D0
:1085B000000F062807D007DC02280BD0042802D1C0
:1085C000012000F045FE10BD072806D00C28FAD186
:1085D0000220F6E700F062FE10BD02484030C06B9A
:1085E00010BD000000400040F7B504463848007850
:1085F000002805D037480178002903D01120FEBD9E
:108600001220FEBD002A0BD0082C0BD0002C09D064
:1086100069464D79012C07D0002D05D0E10703D024
:108620000620FEBD0520FEBD8570A1000818426031
:108630001120FEF715FE2848C16B40221143C1638B
:1086400025484030016812031143016041688022CF
:108650001143416041689203914341604168421473
:1086600011434160C16B10221143C1636846817997
:108670002A46204602F026FE174E20464836002D98
:1086800013D002F0D9FD082200231146304603F032
:108690007BF80B2200231146304603F075F8204684
:1086A00002F0BEFD641CE0B20EE002F0C5FDE00782
:1086B00003D001230B22114602E0012308221146B8
:1086C000304603F061F8204602F0AAFD0020FEBD0E
:1086D0005AC4FF1F24CCFF1F00F0004010B50C4807
:1086E0000078002812D00B4901200870112000F0FA
:1086F000A3FA094881680822114381600749C0052F
:108700000860084906484863002010BD122010BDCB
:108710005AC4FF1F24CCFF1F40F0004000E100E0DE
:10872000FF01000000000540F8B51D480078002852
:1087300034D01D491B48486301201C49400708608C
:108740001B4881680822914381604168421491432B
:108750004160184D184E0024A000401940680028C0
:108760000FD0E0B2375CFF2F0BD00021384600F06D
:10877000BFF80021384600F035F90021384600F0F6
:108780005DF9641C092CE7DB1120FEF75FFDFEF7A5
:1087900055FD112000F0B2FA0020F8BD1220F8BDFE
:1087A0005AC4FF1FFF0100000000054080E100E007
:1087B00040F0004024CCFF1F3CBDFF1FFFB581B03F
:1087C0000025174628460A9E06E042008A5A1205EE
:1087D000120D5519401CC0B2B842F6D3394C60781E
:1087E00000280DD101206070374801680905090D86
:1087F000A18000680001020D628034A002F06AF8D6
:108800003846FBF7A4FD07462846FBF795FD394699
:10881000FBF732FD009065883048854238D0A48847
:10882000844235D0281BFBF799FD0022D243FBF789
:108830006DFDFBF7D4FD07460198C0071AD0002E46
:108840000FD02819FBF783FD04464521090600983F
:10885000FBF7CDFC3946FBF7CAFC0121FBF74AFDCB
:1088600012E02819FBF773FD044639460098FBF720
:108870006DFC09E0002EE4D12819FBF768FD0446E1
:1088800039460098FBF7B3FC2146FBF7F5FC10E0F6
:10889000002E09D00A21C9430098FBF72BFD7F2148
:1088A000C905FBF7A4FC04E00B21C9430098FBF7C2
:1088B00021FD0499002902D10221FBF71BFD05B01F
:1088C000F0BD00005AC4FF1F0010001141445F4377
:1088D000414C5B25782025785D0A0000FF0F0000E1
:1088E00003E00B780370401C491C521EF9D27047FC
:1088F00070B5024601250B3A2E4696400B4C0029D6
:108900000ED0C106C90E8D40410989000919CA6BF4
:10891000AA43CA63002100F091F82068304301E0C7
:108920002068B0432060002070BD00000038004087
:10893000C306DB0E01229A40064B40098000C01896
:108940000029C16801D0114300E09143C1600020BB
:10895000704700000038004030B50C460546012144
:10896000FFF7E6FFA9080748890009188869AA07E0
:10897000D20EFF2393409843944020438861002007
:1089800030BD00000038004010B5114C20780028A0
:1089900001D0072010BDFF21C9310D48FBF7C1FBF5
:1089A000012020700B490020086348630A490862CF
:1089B000486202211020FDF75FFF1020FDF72EFF17
:1089C000064A07490D2000F061F9002010BD0000A3
:1089D000C4C9FF1F0080004080F000401184FF1FC9
:1089E000CD83FF1F30B50D460446042803D320462F
:1089F0001F38032803D801212046FFF7D3FC0021AC
:108A00002046FFF795FF01230B4A122C08D2A34002
:108A10005068002D01D0184300E09843506008E0F2
:108A2000123CA3401069002D01D0184300E0984388
:108A30001061002030BD00000080004070B50C4681
:108A40000A21FBF731FF4A00891801221346491C0D
:108A50008B404D1CAA4013438200044812189068B2
:108A60008C40984304439460002070BD00F00040A7
:108A70000C4A0C4B0121403A122807D28140506821
:108A8000084201D0106809E0186907E012388140F7
:108A90001069084201D0D06800E05869084000D051
:108AA0000120704740800040F8B50E4605460A2177
:108AB000FBF7FAFE48000918EA060124D20E204608
:108AC00090406A0993000B4A9A18136A0343136291
:108AD0008C40084F2846803F0A21FBF7E5FE8000C6
:108AE000C0198168002E01D0214300E0A1438160BC
:108AF0000020F8BD80F0004030B50D46044601214D
:108B0000FFF770FF01230B4A122C08D2A340106814
:108B1000002D01D0184300E09843106008E0123C9B
:108B2000A340D068002D01D0184300E09843D060E6
:108B3000002030BD0080004070B5044618480C226B
:108B40006243151869680126002902D1A968002925
:108B500006D0134924390919122C03D3032302E048
:108B6000122070BD04234B70012181540021204646
:108B7000FFF738FF6868002810D0A86800280CD0DC
:108B80002046FFF775FF002801D0012100E00021F9
:108B90002046FFF7E7FB002070BD00263146F7E7CF
:108BA000E8C9FF1F002101E0401C491C0278002A8F
:108BB000FAD10846704700000449420903D000205A
:108BC00048600620704748600020704750C4FF1F6F
:108BD00010B5002311221521024802F0D5FD002016
:108BE00010BD00001CF0004010B50448112243687D
:108BF0001521034802F0C8FD002010BD50C4FF1F1E
:108C00001CF0004010B578210948FBF78AFA0948A2
:108C10000078012805D0022806D0032806D00428B1
:108C200004D1FBF755FF01E0FBF758FF002010BD12
:108C30004CC9FF1F50C4FF1F10B5124903460978E5
:108C40001220012914D0042912D072B600210E4A34
:108C50000C244C43145D002C11D09C420CD10C23ED
:108C60005943012089184870FBF732FF002006E0C5
:108C7000FBF72EFF002010BD491C0A29E8DB62B675
:108C800010BD000050C4FF1F4CC9FF1F30B50D4C74
:108C900000230C255D43655D854201D1072030BD71
:108CA000002D04D05B1C0A2BF3DB032030BD0C2508
:108CB0006B431B19F9D000245C7018709A60204631
:108CC000596030BD4CC9FF1F70B5FFF78DFF0A4DCD
:108CD000002420460C214843295C002909D0401972
:108CE0004068002800D08047641C0A2CF1DB00207B
:108CF00070BD122070BD00004CC9FF1F70B5154932
:108D00000023097801290FD004290DD072B6002163
:108D1000114A0D460C244C43165D002E0FD086429E
:108D200005D1A418657007E0FBF7D2FE0CE0A4188B
:108D30006478002C00D05B1C491C0A29EADB002B5C
:108D400004D0FBF7C5FE62B6002070BDFBF7C6FE7F
:108D5000F9E7000050C4FF1F4CC9FF1F70B50A4D52
:108D6000002420460C214843295C002909D04019E1
:108D70008068002800D08047641C0A2CF1DB0020AA
:108D800070BD122070BD00004CC9FF1F10B5164900
:108D90000A20087015490120087015490020087044
:108DA00000F030F813480421C16113498160C160AB
:108DB00001611249416101210A20FFF73FFE0D4880
:108DC0000D230F221221143002F0DEFC00210420BA
:108DD000FDF730FD01210220FDF72CFD084A00219E
:108DE0002020FFF753FF10BDBFC4FF1FC0C4FF1FEB
:108DF000C1C4FF1F00F00040B66DDB36B6EDC3B056
:108E0000E1B1FF1F70B515480022C0680424866BCD
:108E10001025134813493300FBF7FCFB070808052E
:108E20000C0E1308050005600C600DE020220260A6
:108E3000052004E0302305E040220260062008609F
:108E400002E0602303600A60FBF74EFEFBF752FE70
:108E500002F082F801F05EFF70BD000064C4FF1FE5
:108E60002010FF1F2410FF1FF8B51F4D1E4F08359F
:108E70001E4C1126012820D000281DD100211020D1
:108E8000FFF7DCFD00211120FFF7D8FD03230822A6
:108E90000921284602F078FC0622002311462846C4
:108EA00002F072FC16231B221F21384602F06CFCD4
:108EB0002068C16AB143C162F8BD05231B221F218E
:108EC000384602F061FC0A4B07221021284602F0C6
:108ED0005BFC062201231146284602F055FC20685F
:108EE000C16A3143E7E7000014F0004070C4FF1F7F
:108EF000FB030000F8B5FF222D322A4E2A4C002831
:108F000032D0012329499B0402282FD08025012833
:108F100031D00E681E430E604B6806460B360127A3
:108F2000B7403B434B604B682B434B60032832D028
:108F3000042832D01E492160521E1204120CFBD1AB
:108F400003461A480321001F02F01EFC012080077F
:108F5000C169184D890722D580690005010E491C99
:108F60002068FBF7A1FC1BE02660E5E70D681D43C8
:108F70000D601149DFE70F681F430F604B68012741
:108F80007F05BB434B604B683F123B434B604B68D4
:108F90002B434B60E8E70949CDE70949CBE7206857
:108FA0002860F8BD0048E8011010FF1F40F00040A5
:108FB00000D8B8051410FF1F0024F400006CDC0278
:108FC0000090D0031FB5124C2078002802D0112049
:108FD00004B010BD20210E48FBF7A3F86846407A84
:108FE000002803D16846C07A002801D00520EFE7A9
:108FF00068460FC810340FC40120203C207002F0D6
:1090000049FC044A00210820FFF740FE0020DFE76A
:109010008CCBFF1F95B8FF1F10B5054A927E002A22
:1090200002D002F0F7FB10BD02F0C0FB10BD000043
:109030008CCBFF1F6D46294606A001F04BFC002497
:10904000A000295809A001F045FC641C102CF7DB96
:10905000FEE7000048617264204661756C7420531D
:10906000502069732025780A0000000030782578A8
:109070002C000000F8B55249504A534B5148CA6081
:10908000D861002003468400401C1351FF28FADDFC
:10909000C8684E4A04468034A2600622C2620A2290
:1090A00002654B4A157885634A4DC56115781426CB
:1090B000022D03D01578032D03D003E0102505629F
:1090C00000E00662444D4561444D85613C25E56004
:1090D0003625C5633427476408250564392767604A
:1090E00032272760AF24E40004601478022C03D0F8
:1090F0001278032A02D003E0466001E00B224260AE
:10910000C824FF22C4602D328260A4000461344C64
:1091100084647D26F6004662324CC464324E866218
:109120000226466682660926C666304E0667456791
:109130008267B210C2674C618B70CB80CB700B81A1
:109140002C482B491F4A81602B49803A294B1161D9
:109150002A49803399622A49C1622A490163254814
:109160002949C0384163294901602249284A803988
:10917000CA62284A0A60284AC2601E4A274C403AFE
:109180009463274C1463274C5463274C4C61274C41
:109190008C61274C0C62274CDC61274C1C62274BEE
:1091A000D363274ACA61274981622749C162274997
:1091B0008163FDF7D9FFFDF7E7FFF8BD000CFF1F46
:1091C00064C4FF1F000CFF1F0010FF1F78D0FF1F9B
:1091D000C2C4FF1F7E04000060E31600DC0500002F
:1091E00050C30000540B00006A180000204E00001D
:1091F000EDA2FF1F0009FF1F1D5EFF1F15ADFF1F22
:10920000D55CFF1F855BFF1F7D97FF1F0D64FF1F50
:109210006D9AFF1FE993FF1F6166FF1FE5B9FF1FEE
:1092200055A6FF1F7D74FF1FC5A3FF1FA566FF1F67
:10923000E59EFF1F8DBBFF1FF170FF1FB172FF1F67
:10924000019AFF1F39A0FF1FF59CFF1F5595FF1FB7
:1092500070B5104C8AB0227E0F496D46002A0BD0A3
:109260000D4A80325268D3B2002202E00E78AE542A
:10927000521C9A42FADB03E00A7D01230978297027
:10928000E169002904D0287506952B7705A8884741
:109290000AB070BD8CCBFF1F004000403EB51C499A
:1092A0000A78081D002A31D00A46097E00292DD0EF
:1092B000917E00292AD00178022927D1818844880B
:1092C0008368091B89B2102901D9102101E0002906
:1092D0000BD0104D0A46491E89B2002A16D042888A
:1092E000541C44809A5C2A70F4E70121017000212B
:1092F00041808180D169002905D0074A6C460DCA9A
:109300000DC4684688470820FFF7F8FC3EBD000002
:109310008CCBFF1F0040004020BDFF1F70B50D46E5
:109320000446222801D9062070BD0121FFF7E4FB85
:109330002846FDF70DFE00212046FFF7DDFB00204B
:1093400070BD70B514460D46222801D9062070BDA7
:109350000321FFF773FB2146284600F02BF800207D
:1093600070BD70B514460D46222801D9062070BD87
:109370000221FFF763FB2146284600F01BF800207E
:1093800070BD000070B50446222801D9062070BDCA
:10939000074D80212878FBF79DF9FF2101312878BE
:1093A000FBF798F903212046FFF748FB002070BD2A
:1093B000D3C3FF1F024610B502480078FBF784F9BB
:1093C000002010BDD3C3FF1F10B519242402428E04
:1093D00001E0491E4184418C4B1C5343A34201DDF3
:1093E0000029F6D110BD0000F0B585B054480290B8
:1093F000FBF786FB002856D000200190FBF786FB88
:10940000302148434F4945184F482818FF35FF354C
:1094100002350090A88A060A8707BF0F44D0484843
:109420000446803060340390032F14D0002E02D005
:10943000207C002838D04548816D491C81650398FF
:10944000807B002800D00420301A80B2FBF764FB38
:109450000190002831D00398807B002809D0361F66
:10946000F6B232463946009B0298FBF75BFB0028B8
:1094700028D0032F2ED035483246816B491C81639A
:1094800000990198FFF72CFA1120205600902C48E3
:109490003B46C07832460199FBF74AFB0020286121
:1094A000A882FBF74BFB3EE03D210298FBF74CFB0B
:1094B0002648C16B491CC1633FE02448016E491C2A
:1094C00001663AE00198FBF745FB3D210298FBF766
:1094D0003BFB32E01D4E706B401C7063FBF72EFBB4
:1094E0001B48007808280DD000980078032813D076
:1094F000062811D002280FD00D280DD0207C00287E
:1095000005D009E000990298FBF72AFB0BE00298CE
:10951000E030007B002809D000990298FBF726FB79
:1095200000202861A882012005B0F0BD3D210298ED
:10953000FBF70AFBF06B401CF0630020F4E700002F
:109540005C2AFF1FC42BFF1F160200000C31FF1FF7
:10955000E511FF1FF8B504460A78FF302646274676
:1095600025460130E03660378035491C1300FBF793
:1095700051F80D084BF865F5F5AE60BE60B1BBDB88
:10958000F50008782870204602228230491CFBF73B
:10959000F3FA0146204602228430FBF7EDFA014639
:1095A000204602228630FBF7E7FA014620460222D7
:1095B0008830FBF7E1FA297802224900297069888E
:1095C00049006980A9884900A98029890901298160
:1095D000014620467E30FBF7CFFA7E20005BE18813
:1095E000401A81B26148814201D3282122E0E888F3
:1095F000A988401C490048432989884201D33B215E
:1096000018E00120387712E005225948FBF7B4FA38
:109610000146204602228C30FBF7AEFAA889E18889
:10962000401A81B251488142DFD20120A872002045
:10963000E083F8BD2046FBF787FAF8BD307D0028AF
:1096400009D14C4A25181318E035401C5B78C0B28C
:109650006B750828F6D3707DC00734D00020B87130
:1096600038740120307420460822A830FBF784FAB1
:10967000014620460222B030FBF77EFA0146204622
:10968000A03008220646FBF777FA05460821304647
:10969000FBF778FA20462946943004220546FBF76A
:1096A0006BFA04212846FBF76DFA20469830FBF749
:1096B0006FFA20469030FBF771FA0C212E48FBF729
:1096C00073FA04212CE01A2070730D2128E0012088
