:020000041FFFDC
:1008000000000000B1A9FF1F60BBFF1F84BBFF1FDA
:10081000C8020120000000000000000000000000ED
:1008200000000000000000000000000000000000C8
:1008300000000000000000000000000000000000B8
:1008400000000000000000000000000000000000A8
:100850000000000000000000000000000000000098
:100860000000000000000000000000000000000088
:100870000000000000000000000000000000000078
:100880000000000000000000000000000000000068
:100890000000000000000000000000000000000058
:1008A0000000000000000000000000000000000048
:1008B0000000000000000000000000000000000038
:1008C0000000000000000000000000000000000028
:1008D0000000000000000000000000000000000018
:1008E0000000000000000000000000000000000008
:1008F00000000000000000000000000000000000F8
:1009000000000000000000000000000000000000E7
:1009100000000000000000000000000000000000D7
:1009200000000000000000000000000000000000C7
:1009300000000000000000000000000000000000B7
:1009400000000000000000000000000000000000A7
:100950000000000000000000000000000000000097
:100960000000000000000000000000000000000087
:100970000000000000000000000000000000000077
:100980000000000000000000000000000000000067
:100990002990FF1FED90FF1F0DB3FF1F0000000007
:1009A0000000000000000000000000000000000047
:1009B0000000000000000000000000000000000037
:1009C0000000000000000000000000000000000027
:1009D0000000000000000000000000000000000017
:1009E0000000000000000000000000000000000007
:1009F00000000000000000000000000000000000F7
:100A000000000000000000000000000000000000E6
:100A100000000000000000000000000000000000D6
:100A200000000000000000000000000000000000C6
:100A300000000000000000000000000000000000B6
:100A400000000000000000000000000000000000A6
:100A50000000000000000000000000000000000096
:100A60000000000000000000000000000000000086
:100A70000000000000000000000000000000000076
:100A80000000000000000000000000000000000066
:100A90000000000000000000000000000000000056
:100AA0000000000000000000000000000000000046
:100AB0000000000000000000000000000000000036
:100AC0000000000000000000000000000000000026
:100AD0000000000000000000000000000000000016
:100AE0000000000000000000000000000000000006
:100AF00000000000000000000000000000000000F6
:100B000000000000000000000000000000000000E5
:100B100000000000000000000000000000000000D5
:100B200000000000000000000000000000000000C5
:100B300000000000000000000000000000000000B5
:100B400000000000000000000000000000000000A5
:100B50000000000000000000000000000000000095
:100B60000000000000000000000000000000000085
:100B70004194FF1F00000000000000000000000082
:100B80000000000000000000AD6CFF1F000000002E
:100B90000000000000000000000000000000000055
:100BA0000000000000000000000000002189FF1F7D
:100BB0000000000000000000000000000000000035
:100BC0000589FF1F00000000000000000000000079
:100BD0000000000000000000000000000000000015
:100BE0000000000000000000000000000000000005
:100BF00000000000000000000000000000000000F5
:0C0C000001FF01FF01FF01FF41000000A7
:020000041FFFDC
:10400000E80F0120D540FF1FDD40FF1FDF40FF1FED
:1040100000000000000000000000000000000000A0
:10402000000000000000000000000000E140FF1F51
:104030000000000000000000E340FF1FE540FF1FFC
:104040000000000000000000000000000000000070
:104050000000000000000000000000000000000060
:104060000000000000000000000000000000000050
:104070000000000000000000000000000000000040
:104080000000000000000000000000000000000030
:104090000000000000000000000000000000000020
:1040A0000000000000000000000000000000000010
:1040B0000000000000000000000000000000000000
:1040C0000348854600F042F80048004761A7FF1FFB
:1040D000E80F01200448804704480047FEE7FEE758
:1040E000FEE7FEE7FEE7FEE79D6CFF1FC140FF1FF6
:1040F00003460B439B0703D009E008C9121F08C001
:10410000042AFAD203E00B780370401C491C521EAB
:10411000F9D27047D2B201E00270401C491EFBD2B6
:1041200070470022F6E710B513460A4604461946C2
:10413000FFF7F0FF204610BD0321001D401E03784D
:1041400012021A43491EF9D510467047064C012544
:10415000064E05E0E36807CC2B430C3C984710342F
:10416000B442F7D3FFF7B0FFA8BBFF1FE8BBFF1FA8
:1041700070B58C180578401C6B075B0F01D1037874
:10418000401C2A1106D10278401C03E006780E700C
:10419000401C491C5B1EF9D12B0705D40023521E7D
:1041A0000DD40B70491CFAE70378401CCB1A921C03
:1041B00003E01D780D70491C5B1C521EF9D5A1420D
:1041C000D8D3002070BD000003B40148019001BDA8
:1041D0000FF4000003B40148019001BD41F4000058
:1041E00003B40148019001BD61F2000003B401482D
:1041F000019001BD8117000003B40148019001BD89
:104200006117000003B40148019001BD4D66000034
:1042100003B40148019001BD5113000003B40148EB
:10422000019001BD3916000003B40148019001BDA1
:104230005DF6000003B40148019001BD75F4000073
:1042400003B40148019001BD8913000003B4014883
:10425000019001BD5D2F000003B40148019001BD34
:10426000CDF9000003B40148019001BDF1F900004F
:1042700003B40148019001BDD111000003B401480D
:10428000019001BD59F9000003B40148019001BD3E
:104290009D18000003B40148019001BDF1F1000038
:1042A00003B40148019001BDF117000003B40148B7
:1042B000019001BD5114000003B40148019001BDFB
:1042C0006916000003B40148019001BD0915000002
:1042D00003B40148019001BDC960000003B4014866
:1042E000019001BDB51F000003B40148019001BD5C
:1042F000E9BF000003B40148019001BD1D1B00008F
:1043000003B40148019001BDED1B000003B4014856
:10431000019001BD6506000003B40148019001BD94
:1043200021FA000003B40148019001BDC11F000043
:1043300003B40148019001BD49F4000003B40148F1
:10434000019001BDC9F6000003B40148019001BD10
:10435000C520000003B40148019001BDD541000013
:1043600003B40148019001BD2141000003B401489C
:10437000019001BDE9FB000003B40148019001BDBB
:1043800055DD000003B40148019001BD89DF000044
:1043900003B40148019001BD75E0000003B4014879
:1043A000019001BDE1DE000003B40148019001BDB0
:1043B00035E1000003B40148019001BD29E400008B
:1043C00003B40148019001BD69E5000003B4014850
:1043D000019001BD91E0000003B40148019001BDCE
:1043E000E1E2000003B40148019001BDF1E20000E8
:1043F00003B40148019001BDCDE6000003B40148BB
:10440000019001BD09E9000003B40148019001BD1C
:10441000E1E7000003B40148019001BDB5DF0000F1
:1044200003B40148019001BD6102000003B40148DA
:10443000019001BD6DDF000003B40148019001BD92
:1044400085E0000003B40148019001BDD1E5000002
:1044500003B40148019001BDCDDF000003B4014861
:10446000019001BD1DE0000003B40148019001BDB1
:10447000CDE0000003B40148019001BD31E200002D
:1044800003B40148019001BD49E7000003B40148AD
:10449000019001BD1DDB000003B40148019001BD86
:1044A0002DCF000003B40148019001BDA90B01000C
:1044B00003B40148019001BD5D0B010003B4014844
:1044C000019001BD690B010003B40148019001BDD9
:1044D000250E010003B40148019001BDF5E3000081
:1044E00003B40148019001BD21E3000003B4014879
:1044F000019001BD15E3000003B40148019001BD26
:10450000C1E0000003B40148019001BD6DDD000071
:1045100003B40148019001BDF1DE000003B401487D
:10452000019001BD7574000003B40148019001BD04
:104530008574000003B40148019001BD09590000D1
:1045400003B40148019001BD15F2000003B4014815
:10455000019001BDFDF6000003B40148019001BDCA
:10456000C5F9000003B40148019001BDDD740000ED
:1045700003B40148019001BD890D010003B4014855
:10458000019001BDD576000003B40148019001BD42
:10459000FD0E000003B40148019001BDF1F30000DD
:1045A00003B40148019001BD6116000003B4014845
:1045B000019001BDA916000003B40148019001BD9E
:1045C0000D34000003B40148019001BD45C0000056
:1045D00003B40148019001BD6107000003B4014824
:1045E000019001BD9107000003B40148019001BD95
:1045F000691B000003B40148019001BDBD07000024
:1046000003B40148019001BD3107000003B4014823
:10461000019001BD7919000003B40148019001BD6A
:10462000010D000003B40148019001BD290D0000F7
:1046300003B40148019001BD6F21000003B401489B
:10464000019001BD8D02000003B40148019001BD3D
:104650005D0D000003B40148019001BD990D0000FB
:1046600003B40148019001BDD10D000003B401481D
:10467000019001BDF90D000003B40148019001BD96
:10468000410E000003B40148019001BD89F2000011
:1046900003B40148019001BD3975000003B401481D
:1046A000019001BD8D75000003B40148019001BD6A
:1046B0008572000003B40148019001BDE52C0100A2
:1046C00003B40148019001BD7D9E000003B4014880
:1046D000019001BDF59E000003B40148019001BDA9
:1046E000F94C000003B40148019001BDA53D000054
:1046F00003B40148019001BD5D52000003B40148BC
:10470000019001BD552B010003B40148019001BD8A
:10471000B1C2000003B40148019001BDF1F00000F6
:1047200003B40148019001BDC5C5000003B40148B0
:10473000019001BD0DC7000003B40148019001BD07
:104740000BC5000003B40148019001BD39420000CF
:1047500003B40148019001BDF140000003B40148D9
:10476000019001BDC140000003B40148019001BDAA
:104770005D41000003B40148019001BD95C30000F4
:1047800003B40148019001BD1DC3000003B40148FA
:10479000019001BD6D45000003B40148019001BDC9
:1047A000753C000003B40148019001BD7DCE0000BE
:1047B00003B40148019001BD71D7000003B4014862
:1047C000019001BD99D7000003B40148019001BDDB
:1047D000B943000003B40148019001BD3D4400000D
:1047E00003B40148019001BDE1D5000003B40148C4
:1047F000019001BD7DD2000003B40148019001BDCC
:104800007D4E000003B40148019001BD95DA00001F
:1048100003B40148019001BD4D4F000003B40148AD
:10482000019001BDE9CF000003B40148019001BD32
:104830003DD8000003B40148019001BD89D40000B7
:1048400003B40148019001BD5DD6000003B40148E6
:10485000019001BD3DC4000003B40148019001BDB9
:10486000B551000003B40148019001BD3D0D0100A8
:1048700003B40148019001BD55E5000003B40148AF
:10488000019001BDBD9E000003B40148019001BD2F
:10489000F5C4000003B40148019001BD3D3F000094
:1048A00003B40148019001BD25C2000003B40148D2
:1048B000019001BD17C4000003B40148019001BD7F
:1048C000F7C2000003B40148019001BD01C400001B
:1048D00003B40148019001BDD938000003B4014878
:1048E000019001BDDBC2000003B40148019001BD8D
:1048F000E1C1000003B40148019001BD41CF0000B7
:1049000003B40148019001BD199F000003B40148A0
:10491000019001BDC9C5000003B40148019001BD6B
:104920008DC9000003B40148019001BD39CD0000DC
:1049300003B40148019001BD35D3000003B4014820
:10494000019001BD6959000003B40148019001BD07
:104950001500010003B40148019001BD59C50000D4
:1049600003B40148019001BD99C4000003B401489B
:10497000019001BDD54A000003B40148019001BD7A
:104980003D29000003B40148019001BD95340000A9
:1049900003B40148019001BD6913000003B401484C
:1049A000019001BDE11D000003B40148019001BD6B
:1049B000B55E000003B40148019001BD65B7000079
:1049C00003B40148019001BDD5F6000003B40148CD
:1049D000019001BDDDFB000003B40148019001BD61
:1049E000999E000003B40148019001BDED750000DF
:1049F00003B40148019001BD3903000003B401482C
:104A0000019001BD01E4000003B40148019001BD23
:104A10007DE5000003B40148019001BDD100010013
:104A200003B40148019001BDD1EB000003B401487B
:104A3000019001BDF50D010003B40148019001BDD5
:104A40002D68000003B40148019001BDB90D0100BB
:104A500003B40148019001BDFDE2000003B4014828
:104A6000019001BDE9E3000003B40148019001BDDC
:104A70003DE4000010B5034A1321034800F01EFF77
:104A800010BD00002CBBFF1F24000120F8B5044618
:104A90000D4616460027002C05D12A46314604480B
:104AA000FFF792FB01E0022700BF00BF3846F8BDC8
:104AB0000D000120FFB58DB000200B900C900BAACB
:104AC0000E990D9800F086F804460A2C5EDA20460E
:104AD00002F06BFC054634480078022801D1012021
:104AE00000E0002000902A462146109B0F9802F01B
:104AF000DDFB1422002106A8FFF76CFB21460622ED
:104B000051432431C8B206AA102106F02BF8002820
:104B100015D11022FF2106A8FFF762FB00280ED155
:104B20002146062251432531C8B20AAA042106F0C3
:104B300019F8E907C90F06AA0F98FFF757FB214696
:104B40007031C8B202AA102106F00CF8002813D167
:104B500002A802F03EFC00260CE0B00002A94718B3
:104B60003888002804D0BA7839880F9800F0F6FE0B
:104B7000701CC6B2042EF0DB02202840002804D0AE
:104B80000A4801780F9800F0D3FE00BF109804285F
:104B900006D105480078022802D10F9802F052FC95
:104BA000002011B0F0BD00001D0201201C020120F8
:104BB00010B5044605480460054801782620FFF733
:104BC0001BFB0348007800F073FE10BD300201208B
:104BD0001C020120F8B506460F4614460A25002E91
:104BE00006D0012E05D0022E11D0032E29D11BE0B4
:104BF00000BF384602F08AFB05460A2D06DA002C73
:104C000004D0062239462046FFF7DEFA1AE038467D
:104C100002F094FB05460A2D05DA002C03D021464C
:104C2000284602F0A5FB0DE0384602F0E6FB0546FB
:104C30000A2D05DA002C03D02146284602F098FB05
:104C400000E000BF00BF2846F8BD000070B5054673
:104C50000C46002603200002281A0300FFF7D2FAB0
:104C60001D10141A20242A2E32394044484E525620
:104C70005A5E62666A6E72787C809084888C90003E
:104C800045480078207084E0102244492046FFF710
:104C90009BFA7EE0102242492046FFF795FA78E021
:104CA00040480068206074E006223F492046FFF734
:104CB0008BFA6EE03D48007820706AE03C4800883E
:104CC000208066E03B4802783B492046FFF77CFAAB
:104CD0005FE03A4802783A492046FFF775FA58E013
:104CE00038480078207054E037480078207050E051
:104CF000062236492046FFF767FA4AE03448007832
:104D0000207046E033480078207042E03248008846
:104D100020803EE03148008820803AE0304800782A
:104D2000208036E02F480088208032E02E4800881E
:104D300020802EE02D48008820802AE02C48008822
:104D4000208026E006222B492046FFF73DFA20E08E
:104D50002948008820801CE028480088208018E02E
:104D600027480088208014E026480078207010E052
:104D70002548008820800CE024480088208008E036
:104D8000272D04DA2846FFF743FA208000E00226A8
:104D900000BF00BF304670BDB6010120C40801202D
:104DA000D4080120B8010120BC010120C20101206A
:104DB000C4010120C6010120C7010120E601012034
:104DC000E4080120E7010120E8010120E9010120B8
:104DD000EF010120F0010120F2010120F801012082
:104DE000000201200202012004020120060201202B
:104DF00008020120FA0101200A0201200C02012010
:104E00000E020120B5010120F4010120F60101206C
:104E100010B5044613480470002013490870401E62
:104E2000124908800F480078FFF7F8F9042010496C
:104E30000870102200210F48FFF7CCF91022002142
:104E40000D48FFF7C7F900200C4908600C490870AD
:104E50000C49087001200C49087000200B490870AB
:104E600010BD0000B4010120B5010120F2010120B4
:104E7000B6010120C4080120D4080120B801012096
:104E8000E7010120E8010120EF010120F0010120EC
:104E9000FEB506460C460120C0032040002810D075
:104EA00047480078FFF7C0F9051E05D0284602F0F4
:104EB00097FC2846FFF7BEF920460121C903484068
:104EC000FEBD012080032040002804D0204601219F
:104ED00089034840F4E7E007C00F00283ED0394876
:104EE0000078002836D038480078052803D1032000
:104EF000694608700CE0354801786846017034480E
:104F000001786846417006223249801CFFF75CF93F
:104F1000314801786846017230480178684641722C
:104F2000694627480078FFF78BF9002811D0072041
:104F3000254908702A48006800280AD028480068D7
:104F40000068002805D02648006801681E480078DF
:104F5000884700BF204601214840B1E70220204099
:104F6000002816D01848007805280ED11D48008862
:104F7000FFF76CF91C480088002806D01A48028800
:104F800002210F480078FFF767F9204602214840C8
:104F900096E704202040002806D0002002F098FC6C
:104FA0002046042148408BE708202040002805D0F7
:104FB00002F064FA20460821484081E700207FE79C
:104FC000B4010120C2010120B5010120E701012047
:104FD000E8010120E9010120EF010120F001012099
:104FE00014020120F2010120F8010120F8B5044665
:104FF0000D4617461E4617480078052801D0142094
:10500000F8BD062C23DB1920C00184421FDA062DCF
:105010001DDB85421BDAFF20F530874217DA0A2EA6
:1050200015DB1920C001864211DA0B4804800B48B9
:1050300005800B4807800B480680069802F048FC64
:10504000042109480078FFF70DF90020D8E718205F
:10505000D6E70000B5010120020201200402012070
:105060000602012008020120B4010120F8B506461D
:105070000C46154600200090BA4830180300FFF790
:10508000C1F8190E1924FD2D6A738DA7B3BFCAD6B6
:10509000FDE2FCFBFAF9F8FDFDFDFDF7FD00102C2B
:1050A00005D110222946B048FFF78EF801E01820FC
:1050B000009054E1102C05D110222946AB48FFF78F
:1050C00083F801E01820009049E1042C03D1A8499D
:1050D0002868086001E01820009040E1012C37D1D9
:1050E000A44807782878A3490870002F14D00846F0
:1050F0000078002810D1A0480078022807D09E48E8
:105100000078062803D09C48007804281FD19B48CB
:105110000078FFF7ADF81AE0002F18D19548007815
:10512000002814D09448007801280BD092480078C9
:10513000032807D090480078052803D08E480078CF
:10514000042804D101218D480078FFF797F801E089
:105150001820009003E1022C03D128888849088098
:1051600001E018200090FAE01F2C14DC1F2200211F
:105170008448FFF72FF8224629468248FFF724F893
:10518000814804707F4B224601217C480078FFF75C
:105190007BF8009001E018200090E0E01F2C14DC68
:1051A0001F2200217948FFF715F822462946774843
:1051B000FFF70AF876480470744B027800216F48B4
:1051C0000078FFF761F8009001E018200090C6E039
:1051D000012C06D12878042803DC28786D49087052
:1051E00001E018200090BAE0012C06D128780328AD
:1051F00003DC28786849087001E018200090AEE0D0
:10520000062C05D1062229466448FEF7DDFF01E0A1
:1052100018200090A3E0012C06D12878072803DC91
:1052200028785F49087001E01820009097E0012C71
:1052300006D12878032803DC28785A49087001E051
:10524000182000908BE0022C19D12888564908803C
:1052500008460088002814D047480078052810D157
:1052600008460288022145480078FEF7F5FF08E06D
:105270004EE03EE030E020E010E003E062E0182085
:1052800000906CE0012C06D12878012803DC2878F6
:105290004649087001E01820009060E02888022C40
:1052A00008D1062806DB1921C901884202DC4049E1
:1052B000088001E01821009151E02888022C08D1D3
:1052C000062806DB1921C901884202DC3949088019
:1052D00001E01821009142E02888022C06D1FF212C
:1052E000F531884202DA3449088001E01821009142
:1052F00035E02888022C08D10A2806DB1921C901CB
:10530000884202DC2D49088001E01821009126E046
:105310002F78012C13D1012F11D1082117480078C3
:10532000FEF7B8FF002807D102F0D2FA0421134893
:105330000078FEF797FF04E01620009001E01820A7
:1053400000900CE0272E07DA022C05D12988304680
:10535000FEF752FF009001E00220009000BF00BF66
:105360000098F8BDFFFCFFFFC4080120D40801200D
:10537000B8010120C2010120B5010120B4010120C2
:10538000C4010120C7010120C6010120E408012059
:10539000E6010120E7010120E8010120E9010120E7
:1053A000EF010120F0010120F8010120000201209D
:1053B000020201200402012006020120080201204D
:1053C00010B5044606480078002807D1002C01D00B
:1053D0000448046002F064FA002010BD1120FCE7CC
:1053E000B50101201402012010B5074800780528F6
:1053F00007D113220548018805480078FEF750FFC1
:1054000010BD1220FCE70000B5010120F2010120CF
:10541000B4010120F8B507460C461E4602252300BC
:10542000FEF7F0FE0A0F06080C090F0D0F0B0E0F0A
:10543000002508E007E0002505E004E003E002E0C5
:1054400001E0022500BF00BF002D0FD121463846E4
:10545000FEF72CFF0546002D08D13046079A069925
:10546000FEF72AFFFEF72EFFFEF732FF2846F8BDB3
:1054700070B504460025E007C00F002805D0044A97
:105480000421044800F01AFA0546284670BD0000C1
:1054900040BBFF1F7401012010B504460F48047083
:1054A0000F49104800F024F800200AE00021C94309
:1054B000C2000D4B99520021C200D2185160411C0C
:1054C000C8B20128F2DB142002F00AFF034800787A
:1054D000FEF704FF0548FEF707FF10BD5401012049
:1054E0006A010120FFFF000058010120897AFF1F97
:1054F00070B506460C46104886420ED1002009E0E1
:105500000021C9438200A15200218200121991702A
:10551000411CC8B20228F3DB0CE02146304602F001
:1055200066FA0546002D04D00020C04328800020E4
:10553000A87000BF70BD0000FFFF0000FFB581B084
:105540000C4615461F46002000900A98002826D1D8
:10555000022F21D1287869780902401886B2314695
:105560000B988143002914D1E168019800F092F969
:10557000B04210D03246E168019800F025FA009060
:105580000098002807D161893246019800F0B0F9EF
:1055900001E08020009004E00D20009001E00B204D
:1055A0000090009805B0F0BD70B506460C4601208D
:1055B000C0032040002816D00C480078FEF734FEC7
:1055C000051E0BD02878B02803D1284602F064FBD2
:1055D00000E000BF00BF2846FEF72CFE2046012158
:1055E000C903484070BD0020FCE7000054010120C1
:1055F000FFB587B00D461C46109E00200690059012
:10560000287A10210840002814D0099802F0E4F903
:105610000746002F05D00A2229460798B84705906B
:1056200001E00E2005900598002802D005980BB0E7
:10563000F0BD00BF287802287ED1686800786968CC
:1056400049780902401880B2049029221202049875
:10565000811A904271D009DC8B49401A0FD0012881
:105660000ED0022848D0032868D118E0012966D05E
:1056700002297DD003297CD00429F5D1C9E000BFDF
:105680001198002808D1EF68387830703A782046B1
:105690007968FEF799FD01E00B200590D6E011989E
:1056A000002826D101203070E868007820706989D0
:1056B000491C88B20021FEF71DFE0746002F0FD0BF
:1056C00031783878801C08183070B87A6070788922
:1056D0000012A0703A78E01C7968FEF775FD07E0CB
:1056E0003078001D307004220021601CFEF772FD2E
:1056F00001E00B200590A9E01198002844D1E8684A
:1057000000880190042030700198207001980012E8
:10571000607003A90198FEF7EDFD0746002F29D020
:10572000F868009002AB6846828958493846FEF70F
:10573000E7FD00280ED103E08AE039E083E046E08F
:105740003B78022152487A68FEF7E0FD002801D13B
:10575000401E029000980078022808D1009802228A
:105760004168201DFEF730FD3078801C307003E06A
:105770000DE01EE00198029068460089A07068461E
:1057800000890012E07001E00B2005905EE01198A6
:1057900000280AD1E968079800F07CF80746022043
:1057A000307027703812607001E00B2005904DE0DA
:1057B00000BF1198002807D1E968088802213170DC
:1057C00020700112617001E00B2005903EE0E86856
:1057D000FEF7A2FDC7B21198B84217DC1198B84283
:1057E00001D1002709E0129911984018B84201DA56
:1057F000129F02E01198381AC7B23770EA68119800
:1058000011183A462046FEF7DFFC01E0072005901C
:105810001CE01198002813D1E86807213170017845
:105820002170417861708178A17041880912E1701E
:105830000179217181796171C1880912A17101E039
:105840000B20059002E00120069000BF00BF01E0A0
:10585000012006900698012813D1099802F0ECF86F
:105860000746002F0AD0129911983346224601911B
:10587000009029460798B847059001E00E20059052
:1058800000BF0598D3E6000000280000FFFF0000DD
:10589000DA2F010070B505460E463146284602F063
:1058A000A6F80446002C01D0A07870BD0020FCE7CB
:1058B000014908707047000055010120FEB50446FB
:1058C0000F461646002C0FD0019468460780FEF75D
:1058D00029FD0546002D06D1002E04D060893146F1
:1058E00002F0D6FC054600E002252846FEBD000079
:1058F000F8B505460E4617460C480078FF2813D029
:105900000A20FEF715FD0446002C0CD0B1202070B3
:105910000020607020716580E68027812146034861
:105920000078FEF70BFD00BFF8BD00005501012017
:1059300070B504460D4608492046FFF7ABFF064602
:1059400002203040002804D029462046FEF7FCFC07
:1059500070BD0120FCE700006A0101207CB505460E
:105960000E461446684604712004010E68464171D3
:105970000020022301AA31460090284600F001F8D9
:105980007CBDFFB583B00D461E4602A92846FEF732
:10599000B1FC01900198002811D06846008902F0FE
:1059A00067F80746002F08D00C98F3B20090059ACC
:1059B00001990398B847044600E00E2400E0012452
:1059C000204607B0F0BD0000F8B505460F46164664
:1059D0003946284602F00BF80446002C09D1394616
:1059E000054802F004F80446002C01D11120F8BD4E
:1059F0002580A6700020FAE7FFFF000070B504467E
:105A00000025E007C00F002805D0044A07210448FC
:105A1000FFF754FF0546284670BD000054BBFF1F2A
:105A200058020120F8B506460C46154600273300FB
:105A3000FEF7E8FB0805143C3C1C3C26313C152CC9
:105A40000ADC162200211C48FEF7C4FB2246294628
:105A50001948FEF7B9FB00E0182729E0022C03D112
:105A600028881649088000E0182721E0082C05D175
:105A7000082229461248FEF73BFB00E0182717E0F2
:105A8000012C06D10F492878CA69283102F026FD79
:105A900000E018270CE0012C06D10A492878CA6BCF
:105AA000483102F01BFD00E0182701E0022700BF8B
:105AB00000BF3846F8BD0000AA0901204A020120B3
:105AC0004E02012058020120FFB504464E4F81B01E
:105AD0000020386020461D46BF30FEF73BFC4B4897
:105AE00026460078B23680340828A06E32462CD084
:105AF0000121FEF735FC444F3078F863761C3046C0
:105B0000FEF71AFB00BA000AF17800020843B863F6
:105B1000361D3046FEF710FB00BA000AF17800028D
:105B200008437863361D3046FEF706FB00BA000ACC
:105B3000F178000208433863039801020298014398
:105B4000F960039F00263F1D0EE00021D1E7A81950
:105B5000401CFEF7F1FA0102A85D01432C48301801
:105B60000160361DF6B23F1F042FF0DA032F04D078
:105B7000022F08D0012F0FD014E0A819FEF7DCFA8D
:105B80000102090A09E0A9194878097800020843C6
:105B90001F497118086003E0A95D1D4830180160B5
:105BA000361DF6B200211A4A02E0B0180160361D17
:105BB000FF2EFADD1448174B43600F2303610123C6
:105BC00003604369002BFCD0436901600020039B04
:105BD00011E0811809682954401CC0B20E0A2E54E5
:105BE000401C0E0CC0B22E54401CC0B2090E2954E9
:105BF000401CC0B21B1F002BEBDCA06E401CA0663B
:105C0000012005B0F0BD000000000440E511FF1FB9
:105C100000010440080F0000FFB504464D4F81B05D
:105C20000020386020461D46BF30FEF793FB4A48EF
:105C300026460078B23680340828606E32462BD073
:105C40000021FEF78DFB434F3078F863761C304619
:105C5000FEF772FA00BA000AF17800020843B8634E
:105C6000361D3046FEF768FA00BA000AF1780002E5
:105C700008437863361D3046FEF75EFA00BA000A24
:105C8000F178000208433863039802990002084340
:105C9000F8600026039F0EE00121D2E7A819401CFE
:105CA000FEF74AFAA95D000208432C497118086002
:105CB000361DF6B23F1F042FF0DA032F04D0022F57
:105CC00008D0012F0FD014E0A819FEF735FA010211
:105CD000090A09E0A91948780978000208431F4910
:105CE0007118086003E0A95D1C4830180160361D7A
:105CF000F6B20021194A02E0B0180160361DFF2EED
:105D0000FADD0F2313481B0243600F2303610123B5
:105D100003604369002BFCD0016003980023001D41
:105D200011E099180968E9545B1CDBB20E0AEE54C5
:105D30005B1C0E0CDBB2EE545B1CDBB2090EE954AB
:105D40005B1CDBB2001F0028EBDC606E401C606651
:105D500005B0F0BD00000440E511FF1F0001044044
:105D6000F0B589B0FEF702FBFE4908600420FEF79B
:105D700003FBFEF707FB0446C00712D0FA490020D8
:105D8000086072B6FEF704FBF849F94DF94E022897
:105D90000BD001287ED0F84F05287CD004287BD07A
:105DA000ADE2FEF7FBFA09B0F0BD08780F46012816
:105DB00006D0032804D0022802D005286DD09EE228
:105DC0000720FEF7D9FA08AB07AA06A9EB48FEF7A9
:105DD000EBFAEA493439898E0B074906CA0FE749BD
:105DE0001B0F34390C46403420319446002801D032
:105DF000032B05D0052B6ED0387801286CD081E2BA
:105E00003878012801D00328F9D1D94843695B1CAF
:105E10004361DB4B087FDD79A842F0D1487F1D7AD2
:105E2000A842ECD1887F5D7AA842E8D1C87F9D7AEC
:105E3000A842E4D12078DD7AA842E0D160781D7BC9
:105E4000A842DCD1F5680020AD8D2D072DD5DB7B78
:105E5000012B01D0032B28D1C3001F1AC94BDD5DD4
:105E600095421DD1FB188D7D5F78BD4218D1CD7D47
:105E70009F78BD4214D10D7EDF78BD4210D14D7E9A
:105E80001F79BD420CD18D7E5F79BD4208D1CD7E98
:105E90009B7903E0E5E0E6E02EE2E0E09D4202D0FF
:105EA000401C0828D8DB082817D0B14D686D401C6D
:105EB0006865706C002802D0804700289FD0FEF7EC
:105EC00079FA01277770FEF751FAA64909688842E6
:105ED00008D9401A09E02CE0AFE0A548016A491C46
:105EE00001620FE2A84A511A0818F16876230A796C
:105EF000181A801A4A6C096CD2B2C9B2C0B2FEF745
:105F00005FFAFEF763FA9848076000207070FEF7AA
:105F100063FAFEF767FAA08C010A9848891C3030B2
:105F2000FEF766FA0E20FEF727FAA869401CA86162
:105F3000E8E13F78012F01D0022FD2D1E869401C5F
:105F4000E8618F480B7FC0798342CAD18C484B7F70
:105F5000007A8342C5D18A488B7F407A8342C0D180
:105F60008748CB7F807A8342BBD185482378C07A2B
:105F70008342B6D16078824C237B9842B1D1F068DD
:105F80000023808D000726D5E07B022801D003285E
:105F900021D1D800C61A7B48845D944218D13018AC
:105FA0008C7D4678B44213D1CC7D8678B4420FD133
:105FB0000C7EC678B4420BD14C7E0679B44207D130
:105FC0008C7E4679B44203D1CC7E8079844202D063
:105FD0005B1C082BDDDB6D48022F1AD10478644569
:105FE00027D18A7D4478A24223D1CA7D8478A242F7
:105FF0001FD10A7EC478A2421BD14A7E0479A242F4
:1060000017D18A7E4479A24213D1C97E8279914206
:106010000FD1082B0DD0696D0622491C69656146B8
:1060200001705649401C891CFEF7CEF8FEF7E6F9D0
:1060300068E1686A401C686264E15149487BC207B4
:1060400001D0252004E0800701D5262000E027208C
:10605000097D8142ECD93220FEF7D6F952E10720C2
:106060004EE106204CE10878072879D10B20FEF795
:1060700083F94149FF22097825325143444A0020DF
:106080008B185870505443480068002805D0FEF71C
:10609000C1F940490978C84005E0FEF7BBF93E491F
:1060A0000968FEF7BDF90746E00535D539480068AF
:1060B000002805D0FEF7BAF936490978C84005E04E
:1060C000FEF7B4F934490968FEF7AAF92A4B0090A3
:1060D0001878FF21253148432D4940180279002ABC
:1060E00001D000220271234A7130121D911D05F06A
:1060F000F5F8F1680098C968381A41182748016016
:10610000600526D51C49FF22097825325143204AD3
:106110000120891848701CE01748FF2200782532BA
:106120001B4B012150431954296DFF3F491C296520
:10613000F1680F3F0969C018CA19184920300A6070
:10614000407E410016480818FF300130018D491C7F
:1061500001852046009904F06FFAFEF76DF921E001
:10616000CDE000001C12FF1F1812FF1FE511FF1FDA
:106170000C31FF1F400301201512FF1FF82BFF1FDA
:10618000442AFF1F892BFF1F40420F000C12FF1FE4
:106190005C2AFF1F2410FF1F2010FF1F2012FF1F6B
:1061A000C009012061490746087000200872487242
:1061B0008872C8725E48044202D0E86C401CE864F1
:1061C0005C48FF220078253250435B4A57498318C8
:1061D000D81DF930827C06928A1DFF33C07C491C91
:1061E0001333FEF72FF902465248FF21007825317C
:1061F000484351494018C11DF931CA740279002A37
:106200000CD10223069A897C1A4019408A4205D093
:1062100046494A78002A01D101224A704749496813
:106220008E220904090E0391125C002A02D0AA6E84
:10623000D219AA662030407E414D40004019C0303E
:10624000C18BC919C183FEF703F901463948FF2202
:10625000007825325043384A80182030407E400074
:1062600040198030828A8918818207AA05A904A86A
:10627000FEF7F4F82F48FF210078253148432E49D6
:1062800040182030407E694640002A5A097D511846
:1062900029524019403069464289097C5118418190
:1062A000600705D50398874202D23846FEF7DCF82E
:1062B000FEF7E0F81D480021224B81701A78012A70
:1062C0000CD1002F0AD0204A1469002C03D0127D73
:1062D000D243920702D0012282701970807900287F
:1062E00001D0FEF7CDF8FEF7D1F8F078002809D0FC
:1062F0003189FDF7C3FF05E00878082809D005209B
:10630000FEF73AF8FEF74AF862B60320FEF734F8D3
:1063100049E53878FF212531484307490B4A4018A1
:10632000911D713004F0DAFF0920E9E78031FF1F89
:10633000020800001512FF1F5C2AFF1F0010034017
:10634000C00901201312FF1F442FFF1F4403012027
:10635000F8B58E4F079CBE1D9C460D46002A1FD0E7
:10636000012A05D0032A0ED0022A0CD0042A59D1C2
:10637000002C57D00699002901D0012952D1032AB7
:1063800001D0022A0AD10146814BA039994249D253
:10639000A02D47D3012189038D4243D8002A0BD178
:1063A0007B4B01462039803399423BD2202D39D393
:1063B000012189038D4235D8854233D361460029B6
:1063C00001D001292ED10999002905D0012903D036
:1063D000022901D0032925D10899490722D06D4B04
:1063E0009988012920D09A7308994907490F597350
:1063F0001CD06849099BCB736346002B1BD001233B
:106400008B713378CB7173780B72B3784B72F378EE
:106410008B723379CB7273790B73012A19D0042AEA
:1064200028D036E01220F8BD0C20F8BD59480721CD
:1064300041733020F8BD00238B713B78CB717B78A2
:106440000B72BB784B72FB788B723B79CB727B798A
:10645000E2E75148069B03702378437063788370AA
:10646000A378C370E37803712379437163798371EF
:1064700002200EE0484B069E1E7026785E706678FD
:106480009E70A678DE70E6781E7126795E7164795A
:106490009C7148801300FDF7B5FE0504060A080646
:1064A0000B00002504E0012502E0022500E006259E
:1064B0003A4E8A79B0880C460009000128434023EF
:1064C000910198430143D001802291430843B08059
:1064D0000622E11DB01DFDF777FE37464037B88C28
:1064E000A179000900014022001D90438901014368
:1064F000B98430460622E11D6630FDF765FEA07CBA
:106500000321000249024118B2883F200002824361
:10651000114389B2B180012D12D181430320800241
:106520000818B0801C49BB8C087880229343C001B6
:106530001843B884304606220C30491CFDF744FE4F
:106540001748017808291AD0072918D0A17B0B0019
:10655000FDF758FE050408100C0817000121017012
:106560001F200AE002210170202006E004210170B2
:10657000222002E0032101702120FDF7FDFE002012
:10658000F8BD002101701E20F7E70000F911FF1F80
:10659000613F0000442AFF1F0C12FF1FC42BFF1F86
:1065A000E511FF1F10B50E480E4B0278FF20253075
:1065B00042430021D018FF24C17013342154995450
:1065C00001230246037160329371137420238161A9
:1065D00019548E23195451740521818110BD000076
:1065E0001512FF1F5C2AFF1FFEB572B65548C06822
:1065F000476D866D082F01D8002F00D10427082E83
:1066000001D8002E00D104264F48504D816C504CCB
:10661000491C81642878FF21253148430019203026
:10662000407E41004B480818FF304130418E491CE4
:106630004186FDF731FFFDF7CFFEFDF7D3FE287849
:10664000FF21253148430019806AFDF72BFF287888
:10665000FF21253148430019406AFDF729FF2878BA
:10666000FF212531484300192030407EFDF726FFE9
:106670002878FF212531484300192030407EFDF75E
:1066800023FF2978FF202530414308190279002A89
:106690000BD02E21095C304A406951434000091853
:1066A0002848C068C06F081815E0615C00292549BA
:1066B00009D0CA684069096C136940185B00400042
:1066C0001818D16C06E0C9684069CA6840005200D9
:1066D000C96C10184018FDF7FDFE1A4DE868806C73
:1066E000FDF7FEFEE868416CCAB2016C808FC9B24A
:1066F000C0B2FDF765FE0420FDF7F8FE0720FDF7A8
:10670000FBFE02A93846FDF7FDFE69460989C2B2C3
:1067100001250E48019100950078FF21253148435D
:106720000019FF300130817CF3B23020FDF7F0FE1C
:10673000FDF74CFE0948056062B61420FDF71CFE0B
:10674000FEBD0000400301200C31FF1F1512FF1F8A
:106750005C2AFF1FC0090120710200001812FF1FF0
:10676000002805DBC206D20E01219140014A1160CA
:106770007047000000E100E010B5002819DB1A4A5C
:1067800003231B02D21883089B00D2588307DC0E18
:10679000FF23A3409A438B071B0E8407E40EA340FC
:1067A0001A43114B032424021B198408A4001A5114
:1067B00018E00E4A03071B0F083B9B089B00D258AA
:1067C0008307DC0EFF23A3409A438B071B0E84072D
:1067D000E40EA3401A43054B0407240F083CA40809
:1067E000A4001A5110BD000000E100E01CED00E023
:1067F00010B5002819DB1A4A03231B02D21883089C
:106800009B00D2588307DC0EFF23A3409A438B07DB
:106810001B0E8407E40EA3401A43114B03242402E9
:106820001B198408A4001A5118E00E4A03071B0F15
:10683000083B9B089B00D2588307DC0EFF23A34034
:106840009A438B071B0E8407E40EA3401A43054BA3
:106850000407240F083CA408A4001A5110BD00002E
:1068600000E100E01CED00E010B5002819DB1A4A39
:1068700003231B02D21883089B00D2588307DC0E27
:10688000FF23A3409A438B071B0E8407E40EA3400B
:106890001A43114B032424021B198408A4001A5123
:1068A00018E00E4A03071B0F083B9B089B00D258B9
:1068B0008307DC0EFF23A3409A438B071B0E84073C
:1068C000E40EA3401A43054B0407240F083CA40818
:1068D000A4001A5110BD000000E100E01CED00E032
:1068E00010B50446002C16DD642C14DC01230022B4
:1068F0000621104602F056FA64222146002002F0DA
:10690000A5FA1721002002F08BFA02F0B9FA012053
:10691000094908600EE008480068002807D00020F8
:1069200002F0ECF9002002F0F7F902F0BFFA0020C3
:106930000149086010BD0000000301201CB5044699
:1069400021463DA004F03AF9052C04D13F494048C6
:10695000FEF77CF96CE03F480078052827D1052C2C
:1069600025D001200190042C0CD120210820FDF716
:1069700043FC20210920FDF73FFC37490020FDF7AB
:106980003BFC0DE0192189010820FDF735FC192198
:1069900089010920FDF730FC00210846FDF72CFC99
:1069A00001AA01212A480938FEF760FB40E0294886
:1069B0000078022825D1032C23D12848007800280C
:1069C00003D000202549087032E00820FDF720FCA4
:1069D00020282DD101200190192189010820FDF7DF
:1069E0000BFC192189010920FDF706FC002108464E
:1069F000FDF702FC01AA012115480938FEF736FB14
:106A000016E0012C14D16946C1208000FEF71EF962
:106A100068464179C17101798171C1784171002164
:106A20000171C1706A4608210020FEF72FF800BFEF
:106A3000084804701CBD000050574D4761705374E6
:106A400061746543423A202564000000F40201208D
:106A50000E030000CD02012030750000F602012077
:106A600070B504460025054A03210548FEF726FFB8
:106A7000054604480460284670BD00009CBBFF1F0B
:106A80000C03012004030120F0B5059C0026002C16
:106A900001DD0B20F0BD486800784F687F783F0229
:106AA000C01985B20548854205D101201870C86813
:106AB0000078107000E00A263046EBE702FF000085
:106AC000FEB50C4615461E46089F002001906068E2
:106AD0000078616849780902401880B200900E4938
:106AE00000984018002811D1002F02DD0B200190E2
:106AF0000BE0012E02D00D20019006E02878E1681D
:106B00000870287805490968884702E00A20019042
:106B100000BF00BF0198FEBDFE00FFFF040301207F
:106B200030B58BB004464148047001210A91072119
:106B30000991002108910791C8210691C90005918A
:106B4000012104917D21C900039139A103C902915A
:106B5000019001AA06213848FEF788FA09AA012106
:106B6000C3208000FEF782FA0AAA01213248801F62
:106B7000FEF77CFA08AA02212F48401FFEF776FA9A
:106B80002E4A0A216120C000FEF770FA2C4A072124
:106B90002948001FFEF76AFA07AA012131200001E7
:106BA000FEF764FA06AA02212348801DFEF75EFA6A
:106BB00005AA02212048C01DFEF758FA04AA0221A6
:106BC0001D480830FEF752FA03AA0221C5208000B2
:106BD000FEF74CFA1B4A15210020FEF723FFFF2584
:106BE000913529460620FDF707FB29460720FDF7CA
:106BF00003FB29460820FDF7FFFA29460920FDF787
:106C0000FBFA0020C043FEF7F9FE0020C043FEF768
:106C10002FFCFDF72FFF0C48FFF722FF012103484F
:106C20000078FDF72BFB0BB030BD0000CC0201203B
:106C300001020304050600000B030000CE02012040
:106C4000D8020120DF020120E168FF1F70B5054670
:106C50000C46214609A003F0B1FFE007C00F002851
:106C600009D00C48FEF7ACFB0B48FDF7A1FF20460E
:106C70000121484070BD0020FCE7000050574D5FE7
:106C800050726F636573734576656E743A20307821
:106C900025780A00F802012088BBFF1F014802493D
:106CA0000860704740787D013C03012010B572B642
:106CB0001948C068C00703D01748001FFDF72EFC15
:106CC000154C403CA06BC00707D013481838FDF79F
:106CD00025FC12480168491C0160606AC0070CD09D
:106CE000E16A0F48C162A16941630B482C38FDF786
:106CF00015FC0C480168491C01602069C00707D0D9
:106D00002046FDF70BFC2046FDF70EFCFDF712FCBC
:106D100062B6002010BD0000401002402C10FF1F82
:106D2000400301203010FF1FF8B50646002700F091
:106D3000E9F805460AE000F0E5F80446AC4201D364
:106D4000601B02E00348401B00190746B742F2D31C
:106D5000F8BD0000FFFFFF0002E008C8121F08C1D5
:106D6000002AFAD170477047002001E001C1121FCC
:106D7000002AFBD1704710B5FDF7E2FB0120FDF7BB
:106D8000E5FBFDF7E9FB002010BDF0B500248E46C1
:106D90004A1E12E0714600230D1B6D1E0AE09E0084
:106DA00031188C46875949688F4202D98151614612
:106DB0004F605B1C9D42F2D8641C9442EAD3F0BD44
:106DC00010B505231B221F210D4804F009FC0C4CB3
:106DD0000C4B083407221021204604F001FC062247
:106DE00001231146204604F0FBFB05481438416A94
:106DF000012211434162C169034A1143C16110BDBF
:106E000014F00040FB03000004003E0010B5002019
:106E1000054CFF212218401C51704028FADB04F079
:106E200015F9207010BD0000A40B012010B5002042
:106E3000054CFF212218401C51700628FADB04F093
:106E400023F9207010BD0000D3030120F0B5864661
:106E5000080CFF268446002388B237461C46194694
:106E600001228A4005461540CD402C19A4B2FF2FBF
:106E700002D1012C00D18FB265462A40CA40D218F7
:106E800093B2FF2E02D1012B00D18EB2491C1029E2
:106E9000E6DB012C02D0102C08D009E0012B07D131
:106EA0003001C019714608700220F0BD102B01D0CE
:106EB0000320F0BD0120F0BD032800DA7047012156
:106EC000890789680122824011430122920791605B
:106ED00000BFF3E701480068704700001410FF1F6F
:106EE000012189070968012282409143012292070A
:106EF0001160114609680122824011430122920764
:106F0000116070470449886A0202886A120A000206
:106F1000000A9042F7D1704700F0004010B50446D7
:106F20000120FFF701FF1149CB6A1148C26A934261
:106F300002D2C96A511A00E000210163FFF7E2FFA3
:106F40000C490123C86201190A4608321B069A42FD
:106F500003D309310902090A641A01190648C162FA
:106F6000416A2922D2031143416210BD0010024040
:106F7000400301200012FF1F00F00040FFB583B066
:106F80000F461D460D9E0C9C0020029078680078EC
:106F9000796849780902401880B20190714A0198D5
:106FA000811A904268D00ADC6F49401800280FD03F
:106FB000012822D0022835D0032872D147E00129C8
:106FC00073D002296FD003296ED02929F5D1ABE007
:106FD000082C02D3072002900EE00820001BB042CC
:106FE00001D9304601E00820001B28702A785F484C
:106FF00001190598FDF7E8F8B0E00C2C02D3072042
:1070000002900EE00C20001BB04201D9304601E096
:107010000C20001B28702A78554801190598FDF7A7
:10702000D3F89BE00D2C02D3072002900EE00D2038
:10703000001BB04201D9304601E00D20001B287032
:107040002A784C4801190598FDF7BEF886E0112C06
:1070500002D3072002900EE01120001BB04201D99C
:10706000304601E01120001B28702A78424801199F
:107070000598FDF7A9F871E0112C02D307200290C2
:107080000EE01120001BB04201D9304601E0112072
:10709000001B28702A78394801190598FDF794F8E3
:1070A0005CE056E001E015E029E0112C02D3072056
:1070B00002900EE01120001BB04201D9304601E0E1
:1070C0001120001B28702A782D4801190598FDF71A
:1070D0007BF843E0112C02D3072002900EE0112030
:1070E000001BB04201D9304601E01120001B28707E
:1070F0002A78244801190598FDF766F82EE00E2C31
:1071000002D3072002900EE00E20001BB04201D9EE
:10711000304601E00E20001B28702A781A48011919
:107120000598FDF751F819E0072C02D307200290CB
:107130000EE00720001BB04201D9304601E00720D5
:10714000001B28702A78114801190598FDF73CF8B2
:1071500004E0002028700A20029000BF00BF0298BF
:1071600007B0F0BD272A0000DDD5FFFF0D0001208C
:10717000B8BAFF1FC5BAFF1FD3BAFF1FE5BAFF1F7A
:10718000F7BAFF1F09BBFF1F1BBBFF1F1D0001201C
:10719000F8B5414A0446D068808DC00764D03F48A6
:1071A000406A3F4D8104890CA94202D968420818FF
:1071B00000E0681AC82819D32B2601233601DB0208
:1071C000B04207D2C80041028601891BC600891956
:1071D000081A09E0C80041028601891B4601891B83
:1071E000C600891B40000818C018010B2C482D4B05
:1071F000C430814200D9196819607D26906AF60072
:10720000B0420AD2284EFF278E198A37BE4200D3D9
:10721000116A401C1960906209E0106A060A37186A
:107220008F4203D3861B8E4200D808461860106A2E
:10723000C100091A18680918C9081162C108A842D2
:107240000AD9194AC43A80186043C00801E0401ABC
:10725000641E8842FBD807E0281A6043C00801E09A
:10726000401A641C8842FBD80C48062200231146B1
:10727000243804F0B5F92046FDF774F901F0D4FE86
:1072800001F046FE0020FDF777F80120FDF770F9C8
:107290000120FDF773F9F8BD4003012040F00040E4
:1072A000420F00003412FF1F82F1FFFFFFB587B0CD
:1072B0000C4616461F46082F05D120460621484396
:1072C0002230C5B204E02046062148432130C5B231
:1072D0001C2200216846FCF77DFF6A461C212846D7
:1072E00003F040FC00280ED16846807E07280ADBA8
:1072F0006846807E102806DCF107C90F6A46109B9D
:107300000798FDF741F90BB0F0BD000070B50546D8
:1073100000240DE00E216143074A88180622294601
:10732000FDF738F9002801D0204670BD601CC4B2BA
:107330000A2CEFDB0A20F8E71409012070B5054696
:1073400000240EE00E216143084A8918881D062298
:107350002946FDF71FF9002801D0204670BD601CAA
:10736000C4B20A2CEEDB0A20F8E700001409012061
:107370007FB504460D460A2C01DA002D02D1022009
:1073800004B070BD2146062251432031C8B26A467E
:107390000E2103F0E7FB0646002E04D106226946C3
:1073A0002846FCF711FF3046EAE71FB504462146A0
:1073B000062251432031C8B26A460E2103F0D2FBA7
:1073C000002804D168468089C0B204B010BD0020F6
:1073D000FBE7014600200DE082008A5AD243830079
:1073E000CA52820052189278D24383005B189A7076
:1073F000421CD0B20428EFDB70477FB5054600245D
:107400001CE02146062251432331C8B26A461021AE
:1074100003F0A8FB00280FD11022FF216846FCF7DB
:10742000DFFE002808D129466846FDF7B9F8002894
:1074300002D1204604B070BD601CC4B20A2CE0DB4F
:107440000A20F7E770B5054600240A4800780028AE
:1074500001D0012000E00020044307480078002804
:1074600001D0042000E00020044321462846FDF717
:107470009DF870BD230201202002012008B50E48AE
:107480000078002815D0012802D0022810D10CE085
:1074900001200090094803880948028809480188AA
:1074A00009480088FDF7A2FD04E0FDF79DFF01E01B
:1074B00000BF00BF00BF08BD10020120080201206C
:1074C000060201200402012002020120F8B5044650
:1074D0000026A0780300FCF795FE0805FE214A4B24
:1074E0008FE3FDFE25466F78002F10D10622E91CA0
:1074F000A748FCF769FE0120A6490870A64BA748DB
:1075000002780121A6480078FCF7BEFE0746002F4E
:1075100002D007209F490870012625E1254668789A
:1075200000281CD1E878002809D09E4B9E4802789C
:1075300000219B480078FCF7A7FE68700FE0954893
:10754000007802280BD0012195480078FCF7A2FEB4
:10755000002804D1012192480078FCF78FFE68785A
:10756000002803D007208B4908700126FCE000BFEB
:107570002546687800283AD1A07803280BD18548A1
:107580000078052803D106208249087032E00220E5
:10759000804908702EE08548008800280BD0844878
:1075A000007800280AD08148028801217C480078B0
:1075B000FCF752FE02E000207D4908707548007813
:1075C000062803D105207349087013E0714800783C
:1075D000042808D1012076490870012170480078FC
:1075E000FCF74CFE06E003206A49087002E0072021
:1075F000684908700126B7E025466878002840D120
:107600000622291D6B48FCF7DFFD68896A4908805E
:10761000A8896A490880E8896949088005205D4988
:10762000087068480088002806D066480288022151
:107630005B480078FCF710FEA88963490880E88958
:1076400062490880288A62490880624800780128D7
:107650000DD11F20FCF7DCFD07467D20C0007843DC
:10766000024604214E480078FCF7F6FD00BF6A8907
:10767000E8780423291DFDF71DFA00204C49087005
:107680000CE06878312806D10020494908700320B1
:107690004049087002E007203E490870012663E077
:1076A0002546062200214348FCF794FD0020464968
:1076B00008804649088046490880042138480078F7
:1076C000FCF7D0FD082136480078FCF7CBFDA879FF
:1076D000082801E01FE046E003D104202D4908708E
:1076E00002E003202B490870012631480078002869
:1076F00004D02B480078FCF7BBFD07E001202C49A3
:107700000870012126480078FCF7B8FD0020C0432E
:107710002949088028E02546082121480078FCF7FF
:10772000A1FD687800281DD1E888274908802889AC
:10773000264908806889264908800421184800786D
:10774000FCF7A8FD00280DD123480068002809D0C7
:107750002148006803681E4802881C4801881A48AE
:107760000088984700E000BF00BF012E0ED11B48E3
:10777000006800280AD0194800680068002805D071
:10778000164800680168034800788847F8BD000083
:10779000BC010120B5010120C7010120C601012063
:1077A000B4010120E4080120E6010120C401012008
:1077B000C2010120FA010120F2010120F40101209F
:1077C000F6010120F80101200A0201200C0201202B
:1077D0000E020120000201201802012014020120E3
:1077E000F8B504462078912804D0A22828D0D028C3
:1077F00048D121E060780E281DD12546A88823496C
:10780000884217D1A868C07846B221480078052878
:107810000FD17F2E0DD01F480068002809D01D48C9
:1078200000684068002804D01A4800684168304663
:10783000884700BF00BF26E02046FFF747FE22E052
:107840002546687913281CD12E4608363088012831
:107850000BD111480078022807D108210F48007881
:10786000FCF700FDFDF7C0FD0AE00520FCF7D0FCA9
:1078700007463A46082109480078FCF7EDFC00BFAE
:1078800000BF00E000BF00BFF8BD0000051400000D
:10789000B50101201402012010020120B4010120D1
:1078A0001CB506480649074B002200910190064886
:1078B000017806480078FDF7ADFD1CBDB801012038
:1078C000D4080120C4080120B6010120B401012020
:1078D0007CB504461E4800881E490988884211DB91
:1078E0001B4800881C49098888420BDC1B4800881B
:1078F0001B490988884205D11A4800881A49098815
:10790000884223D00520FCF783FC054611480188F6
:107910006846018010480188684641801048018807
:1079200068468180104801886846C1800F48027807
:1079300069460F480088FCF73FFE0E4804702A464F
:1079400008210A480078FCF787FC00BF7CBD0000D6
:107950000A02012002020120040201200C0201207F
:10796000060201200E02012008020120B4010120BC
:10797000F201012010020120F8B506460F463046FC
:1079800000F046F80446002C06D1114800F040F8FB
:107990000446002C00D02680002C17D0002511E0D2
:1079A000182068436168085A002809D118216943E2
:1079B0006268501818223946FCF706FC0020F8BD12
:1079C000681CC5B2034800788542E9DB0920F6E768
:1079D000FFFF00006001012070B50546284600F059
:1079E00037F80446002C00D170BDA068FCE70346C0
:1079F0000A46002108E08800105A984202D1880007
:107A000080187047481CC1B20229F4DB0020F8E757
:107A10000246002109E0C800064B185A904202D1E4
:107A2000C800C0187047481CC1B20129F3DB002010
:107A3000F8E700005801012070B50546284600F01F
:107A400007F80446002C00D170BD2068FCE7000058
:107A500002460648016805E08888904201D188689E
:107A6000704709680029F7D10020F9E76401012077
:107A700070B505462846FFF7EBFF0446002C00D101
:107A800070BD6068FCE70000F3B581B00C46012CC6
:107A900007D0022C29D101210198FCF793FD002881
:107AA00023D10198FFF7B4FF0546002D18D000261A
:107AB0000EE01820704369680F183888002800D13C
:107AC0000AE0182200213846FCF784FB701CC6B27D
:107AD000064800788642ECDB00BF0020C0432880C7
:107AE00003490198FDF704FD00BFFEBD60010120C0
:107AF0006A01012070B50446044D17202880608873
:107B00002946FCF765FD002070BD0000AA08012091
:107B1000F3B585B0054628460830049000276888EC
:107B2000FFF776FF0646002E35D00020039029E0AF
:107B300071681822039850430C182088002800D13F
:107B400025E004980078012811D1608800902379FD
:107B500021886888621D0290FDF713FF0746002FF9
:107B600005D0002104980170218806980180182210
:107B700000212046FCF72EFB002020800398401CAB
:107B8000C0B203900849097803988842D0DB00BF4F
:107B90000020C0433080002F02D16888FCF71EFD12
:107BA000384607B0F0BD000060010120F3B585B094
:107BB00007463D460835354C162200212046FCF785
:107BC00009FB04A800902B79698828886A1D039016
:107BD000FCF70AFD064645E0102000212C4A0092E1
:107BE0000191029078882B4B69460A8A3146FDF74D
:107BF000FFFC002812D1E8792549097888420DD187
:107C000023480278234928460830FCF7C3FC0028A3
:107C100004D0718920788200A01C8152698803AB4E
:107C20006846028A3046FCF76BFB064620788100E6
:107C3000A01C405A002814D0002E09D06846818923
:107C40002278501C20709200A01C1018418008E07F
:107C50000021C9432278501C20709200A01C1018EB
:107C6000418000BF002E02D020780528B4DB2078A8
:107C7000002806DD78882146FCF7BCFC002007B010
:107C8000F0BD2988069801800A20F8E7AA0801209B
:107C90006801012094080120F8B5054600200090F5
:107CA00028790E2833D00CDC08281ED004DC0228EA
:107CB00010D0062849D112E00A281CD00C2844D143
:107CC0001FE0102829D012282DD0162831D01828CE
:107CD0003BD134E02846FFF70DFF044637E0694604
:107CE0002846FFF763FF044631E06946284600F066
:107CF0005FF904462BE06946284600F051FA044635
:107D000025E06946284600F075F804461FE06946FC
:107D1000284600F0E1F9044619E06946284600F0DB
:107D200099F8044613E06946284600F06BFA0446C9
:107D30000DE06946284600F023F8044607E069464E
:107D40002846FFF7E5FE044601E0002400BF00BF1F
:107D5000002C0ED0687814280BD0084E287930708B
:107D6000684600887080347168883146FCF748FCAA
:107D700000BF2846FCF74AFCF8BD0000AA08012015
:107D8000F3B583B00446264608360025308802A99C
:107D9000FCF7B0FA0746002F23D0387A202108409C
:107DA000002810D068460089FFF716FE0190019860
:107DB000002806D0608812223946019B9847054664
:107DC00000E00E2500BF002D0CD160883146FFF782
:107DD000D3FD0546002D05D160883146FCF71CFC1B
:107DE00000E00125002D02D031880498018028464A
:107DF00005B0F0BDF3B587B005462E46083630888D
:107E000005A9FCF777FA06900698002816D0104FBF
:107E10001621708800970291019068887B1C04905D
:107E20006846828A06990498FDF7E2FB0446002C16
:107E300003D168883946FCF7F5FB00E00124002CEB
:107E400002D0318808980180204609B0F0BD0000BA
:107E5000AA080120F3B587B0079807460837514CA8
:107E600000250020059006A800903B797988388885
:107E70007A1D0490FCF7B8FB064677E0317A079A42
:107E80005088FCF7D5FB05900598002803D0718930
:107E9000089801806CE011200021434A0092019172
:107EA000029007984088414B03906846028B314608
:107EB0000398FDF79DFB05900598002803D0718974
:107EC0000898018054E0002D04D137480078001D47
:107ED00060700CE0617834480078001D814200D069
:107EE00046E0314800782818112800DD40E0B17ADA
:107EF00028466A1CD5B2A21C11547089001229466A
:107F00006A1CD5B2A21C5054798804AB6846028B17
:107F10003046FCF7F5F90646002E10D06846008A78
:107F2000C1B228466A1CD5B2A21C11546846008A08
:107F3000001229466A1CD5B2A21C50540AE0FF2147
:107F400028466A1CD5B2A21C115428466A1CD5B218
:107F5000A21C1154A11C481913490A781349FCF7B3
:107F600033F9114800782818C5B200BF002E85D11A
:107F700000BF002D0CDD61782846FCF75FFB207008
:107F8000079948882146FCF75FFB002009B0F0BD47
:107F90000598002801D10A200590398808980180A9
:107FA0000598F3E7AA080120680101209408012040
:107FB000F3B589B00746384608300890424D089816
:107FC0000088079000240020069061E005A800903A
:107FD000089803794188421D0798FCF705FB06467F
:107FE000002E00D156E070890790317A7888FCF72E
:107FF0001FFB06900698002800D04BE013200021BC
:10800000324A0092019102907888314B0490684680
:10801000828A31460498FDF7EBFA0690069800280C
:1080200000D037E0002C04D128480078801C68700C
:1080300006E0697825480078801C814200D029E05C
:10804000224800782018132800DD23E0B17A20466A
:10805000621CD4B2AA1C1154708900122146621C01
:10806000D4B2AA1C5054A91C081918490A781849F6
:10807000FCF7AAF8154800782018C4B215490798EB
:10808000884200D106E00798401C80B2079000BFEC
:10809000132C9BDD00BF002C0BDD69782046FCF71C
:1080A000CDFA287078882946FCF7D4FA00200BB066
:1080B000F0BD0698002801D10A2006900A99079879
:1080C00008800698F3E70000AA0801206801012053
:1080D00094080120FFFF0000F3B587B0064637463D
:1080E00008372C4C002006902070002541E06900E4
:1080F000785A04A9FCF7FEF805900598002806D1E7
:10810000012006906800395A0898018037E016204F
:108110000021214A00920191029070881F4B039028
:108120006846028A05990398FDF762FA0690069858
:10813000002804D06800395A089801801FE0207890
:10814000154909784018162804DD20781621081AE8
:10815000114908702278611C50180F490A780F499C
:10816000FCF732F820780C49097840182070681C18
:10817000C5B2B87DA84202DD20781628B7DB00BF63
:108180000698002803D170882146FCF769FA069802
:1081900009B0F0BDAA08012068010120940801205F
:1081A000F0B587B005460F46284608300690069978
:1081B000088804A9FCF79EF805900598002816D0B9
:1081C0000F4E162000210096019102906888731CC2
:1081D00003906846028A05990398FDF709FA044658
:1081E000002C03D168883146FCF740FA00E00124F6
:1081F000002C02D0069800883880204607B0F0BDD9
:10820000AA080120F3B583B005462C4608340027A0
:10821000208802A9FCF76EF80646002E2AD0307A94
:1082200020210840002810D068460089FFF7D4FBC1
:1082300001900198002806D0688812223146019BDF
:108240009847074600E00E2700BF002F13D10020FB
:108250000090A37821886888E21C0190FDF791FBCB
:108260000746002F07D1207E002804D16888FCF73C
:1082700003FA00E00127002F02D021880498018032
:10828000207E002802D0002005B0F0BD3846FBE774
:1082900070B505460E46002D01D1022070BD0C20A0
:1082A000FCF7F0F90446002C01D11320F6E700207A
:1082B0002060A580A66009480068002802D1074810
:1082C000046008E00549086800E0006801680029CA
:1082D000FBD1046000BF0020E0E700006401012042
:1082E000F8B5044618206043009000201E4908702D
:1082F0001E48406800280AD0002006E00021C20085
:108300001A4BD2185160411CC8B20128F6DB184D37
:10831000002D26D000212846009AFBF75BFF0020A5
:1083200019E001466143CAB2182151434919C300FB
:108330000E4E9B195960002109E00023C6000B4F27
:10834000F619766818274F43F3534B1CD9B2A14254
:10835000F3DB411CC8B20128E3DB034804700020B2
:10836000F8BD1320FCE70000600101205801012046
:10837000B4060120FFB585B005460C4616460E9F93
:1083800000200490207802281CD160680078616881
:1083900049780902401880B203900D4903984018AB
:1083A00000280AD102200097019032462146284633
:1083B000089BFDF7C3F8049002E00120049000BF81
:1083C00000BF01E001200490049809B0F0BD000056
:1083D000FED6FFFF0848816C491C8164C16CC26CE9
:1083E0000902C90F5203D20F5140C26C5202120A45
:1083F0005118C164C06C704740030120FEB50D46A2
:1084000014461E46002000900898002801DD0B202D
:10841000FEBD287802285BD16868007869684978D1
:108420000902401880B20190152149020198401AB2
:108430000300FBF7E7FE050413231B294700E86848
:10844000FBF76AFFC7B20998874200DD099F3770C2
:108450003A462046E968FBF7B7FE38E0E968088845
:108460000221317020700112617030E006203070FE
:1084700006222046E968FBF7A7FE28E001203070BD
:10848000E8680078207022E0E868002817D0E868E3
:10849000082131700178217001880912617081789A
:1084A000A17041880912E170017921718188091256
:1084B00061718179A171C1880912E17101E0002027
:1084C000307004E0002030700120009000BF03E015
:1084D0000020307001200090009899E710B5022329
:1084E0000340002B04D00B78022423430B7003E0DD
:1084F0000B780224A3430B7008230340002B04D005
:108500000B78082423430B7003E00B780824A34363
:108510000B7020230340002B04D00B78202423432E
:108520000B7003E00B782024A3430B70022303405D
:10853000002B07D108230340002B03D12023034045
:10854000002B04D013780C242343137005E000287B
:1085500003D113780C24A343137010BDFEB50C4651
:1085600016461F46089D002002902078022877D1E9
:1085700060680078616849780902401880B201900B
:10858000152149020198401A06D0012831D002284D
:1085900068D0032873D151E0E068FBF7BDFEC0B29C
:1085A00000900098854205DCE819152804DD0D20AF
:1085B000029001E0072002900298002818D1E1689B
:1085C00048193A463146FBF7FFFDE81985B200200D
:1085D000E168485535480068002809D033480068EC
:1085E0000068002804D031480068016800208847EE
:1085F00055E0002D04D1022F04D00D20029001E09F
:108600000B2002900298002817D1E0680090307883
:1086100071780902401881B20098018023480068EF
:10862000002809D0214800680068002804D01F48AD
:10863000006801680120884700BF30E0002D04D1A8
:10864000062F04D00D20029001E00B20029002982A
:10865000002804D106223146E068FBF7B5FD1EE094
:108660001FE0FFE7002D0ED1012F09D1307800283F
:108670000BD03078012808D08020029005E00BE074
:108680000D20029001E00B2002900298002802D1F8
:108690003078E168087002E00120029000BF00BF5E
:1086A00001E0012002900298FEBD0000440201207A
:1086B00010B502460B46122A01DB052010BD1248F8
:1086C000816B0120904001430F488163416B012081
:1086D00090400C46844321460B484163C16B002BFC
:1086E00003D101209040014304E0012090400C465A
:1086F000844321460448C163016B0120904001433B
:10870000014801630020D9E70080004010B502460F
:10871000042A11DA002907D0134840690123934045
:108720001843114B58611CE00F48406901239340E6
:1087300098430D4B586114E0002909D00A4840695C
:108740001346123B01249C402043074B586108E02C
:10875000054840691346123B01249C40A043024B4C
:108760005861002010BD00000038004070B50024A2
:108770001BE00F48005D022807DDE0B200F0DAF9E7
:108780000546E0B2294600F003FA232C0CDA08482B
:10879000005D022808DDE0B200F0CCF90C21614355
:1087A000034A233289184870641C232CE1DB70BD16
:1087B000DD03012010B502211020FEF719F810206A
:1087C000FDF7CEFF00240CE00C2060430649085C56
:1087D000002805D0E0B200F015FAE0B200F078F819
:1087E000641C232CF0DB10BD00040120F3B581B024
:1087F0000646234D002440E00120A04030400028E0
:108800003AD00120A04002990840002801D101205F
:1088100000E000200746E0B2394600F033F80C20B3
:10882000604340194068002810D00C206043401974
:10883000806800280AD0002F01D1012000E000202C
:108840000746E0B23946FFF733FF14E00C206043DF
:1088500040194068002804D0E0B20021FFF728FF4B
:1088600009E00C20604340198068002803D0E0B282
:108870000121FFF71DFF00BF641C122CBCDBFEBDF5
:108880000004012070B504460E46104D0C206043D4
:1088900040194068002808D0002E06D10C20604303
:1088A00040194268204690470EE00C206043401972
:1088B0008068002808D0012E06D10C2060434019A2
:1088C000012182682046904770BD0000000401200D
:1088D00070B50446204600F02DF90546002D01D163
:1088E000012000E0002006460C20604304494018A7
:1088F0004078A84203D031462046FFF7C3FF70BD41
:108900000004012070B50548C56B04484030046878
:10891000C46029462046FFF769FF70BD0080004013
:1089200010B5114880680407240F062C14D004DC0D
:10893000022C0ED0042C14D107E0072C0DD00C2CE7
:108940000FD1022000F0AEFE0BE0012000F0AAFEE5
:1089500007E000F0DBFE04E003E003484030C06BBA
:1089600000BF00BF10BD00000040004070B50346CE
:108970000C4603E025781D70641C5B1C1546521ED6
:10898000002DF7D170BD000030B50246D406E40ECC
:108990000120A040034600290BD0501180000B4C51
:1089A0000019C06818435411A400084D6419E06010
:1089B0000AE050118000054C0019C068984354111A
:1089C000A400024D6419E060002030BD0038004072
:1089D00030B504460D4601212046FFF7D5FFA01013
:1089E00080000A4940188069A107CA0EFF21914002
:1089F0008843A107CA0E294691400843A110890067
:108A0000024A89188861002030BD0000003800400B
:108A100010B511480078002801D0072010BDFF21B3
:108A2000C9310D48FBF77DFB01200B490870002080
:108A30000A49086348630A49086248620221102013
:108A4000FDF7D6FE1020FDF78BFE064A06490D20E5
:108A500000F0C0FA0020E1E7DC03012000800040C4
:108A600080F00040B587FF1F6D87FF1F70B504467B
:108A70000E46042C03DB222C05DC1F2C03DB01211A
:108A80002046FFF743FE00212046FFF77DFF122C12
:108A90000FDA0125A540002E05D00F484068284375
:108AA0000D49486016E00C484068A8430A494860F0
:108AB00010E02046123801258540002E05D00648DA
:108AC000006928430449086104E003480069A84399
:108AD00001490861002070BD00800040F3B581B0FD
:108AE0000C4626460A210198FBF7A8FD4800081805
:108AF000451C0120A840691C01228A401043C7433D
:108B00000A210198FBF79AFD800009494018806806
:108B100007403046A840384306460A210198FBF733
:108B20008DFD80000249401886600020FEBD0000D7
:108B300000F0004030B50346122B0FDA01229A40B4
:108B4000124844681440002C01D0016802E00F482C
:108B50004030016908461040014610E018461238BE
:108B600001228240094804691440002C01D0C168E8
:108B700002E006484030416908461040014600299D
:108B800001D0012030BD0020FCE700000080004043
:108B9000F3B581B00C460A210198FBF74FFD480060
:108BA0000818C6B20121019800F05AFD0120B0401A
:108BB0000546002C11D00A210198FBF73FFD8000EB
:108BC0000F49401887682F430A210198FBF736FDAB
:108BD00080000B494018876010E00A210198FBF7DC
:108BE0002DFD8000064940188768AF430A2101988F
:108BF000FBF724FD80000249401887600020FEBD7D
:108C000000F00040F8B504462A4D012600270C204C
:108C1000604340194068002807D10C206043401988
:108C20008068002801D11220F8BD122C04DB03213A
:108C300020482338015503E004211E4823380155FC
:108C400001210C206043295400212046FFF70EFF2C
:108C50000C20604340194068002815D00C20604368
:108C60004019806800280FD02046FFF763FF0746B1
:108C7000002F01D0012000E00020064631462046AA
:108C8000FFF716FD0020CFE70C2060434019406835
:108C9000002801D0002606E00C20604340198068BF
:108CA000002800D0012631462046FFF701FD0020B4
:108CB000BAE700000004012010B50948007800F070
:108CC000F1FA002000F0A0FA1F2000F005F901F0F1
:108CD00095FFFFF79DFE03A001F070FF10BD00009F
:108CE0009E030120616C6C20647269766572206954
:108CF0006E6974204F4B210A0000000010B5044635
:108D00000C216143034A881800231A46194602F0D1
:108D100067FC10BD04E0004010B504460C2161431F
:108D20001F4A881800231A46194602F059FC0C21E4
:108D300061431B4A881800231022114602F050FCA0
:108D40000C216143164A881800230C220E2102F0E0
:108D500047FC0C216143124A88180023082211465F
:108D600002F03EFC0C2161430D4A881800230422C6
:108D7000114602F035FC0C216143094A121D881886
:108D800000231A460F2102F02BFC0C216143044AF8
:108D9000121D8818002310221F2102F021FC10BD93
:108DA00004E00040F8B504460D4616461F46122062
:108DB000FEF782F80C216143184A881800231A46EE
:108DC000194602F00DFC0C216143144A88182B4609
:108DD0000C220E2102F004FC0C2161430F4A88187A
:108DE00033460822114602F0FBFB0C2161430B4A7B
:108DF00088183B460422114602F0F2FB0C21614325
:108E0000064A881801231F22114602F0E9FB0022BE
:108E10001146122000F0DEF8F8BD000004E000402A
:108E200070B504460D4620460A30C1B22846FFF709
:108E3000CFFD0C216143044A88180123002211460A
:108E400002F0CEFB70BD000004E0004070B50446A7
:108E50000D4616460C216143084A88182B461022FD
:108E60001F2102F0BDFB0C216143044A88183346E0
:108E700000220F2102F0B4FB70BD000008E00040AA
:108E800010B5122000F072F800BF074800680121F9
:108E90000843054908600846006810210843024954
:108EA000086000BF10BD000000E0004010B51220B7
:108EB00000F0DCF800BF07480068012108430549BD
:108EC000086008460068102108430249086000BF96
:108ED00010BD000000E000400146480940010028A4
:108EE00004D00020034A106006207047014801604A
:108EF0000020FAE70800012010B5002311221521F7
:108F0000024802F06DFB002010BD00001CF0004084
:108F100010B50448112215210368034802F060FBD4
:108F2000002010BD080001201CF0004010B5782181
:108F30000C48FBF7F6F80C480078012806D0022808
:108F400008D0032809D0042808D100E000BFFBF7AF
:108F50009FFB03E0FBF7A2FB00E000BF00BF002087
:108F600010BD00003C0601200400012070B505463C
:108F7000122616480078012803D0144800780428E7
:108F800003D1FBF785FB002070BD72B6002417E00B
:108F90000C2060430E49085C002800D112E00C2030
:108FA00060430B49085CA84209D101210C206043B1
:108FB000074A80184170FBF76BFB002602E0641C37
:108FC0000A2CE5DB00BF62B63046DDE70400012075
:108FD0003C06012070B503460C46154600210022D0
:108FE00012E00C2050430F4E305C984201D1072014
:108FF00070BD0C2050430B4E305C002803D10C2078
:109000005043811902E0521C0A2AEADB00BF002902
:1090100001D10320ECE7002048700B704C608D609C
:1090200000BFE5E73C06012010B5FFF771FF002403
:1090300015E00C2060430C49085C002801D1122087
:1090400010BD0C206043084940184068002805D036
:109050000C216143044A891848688047641C0A2C23
:10906000E7DB0020ECE700003C06012070B5054678
:1090700000261C480078012803D01A4800780428EC
:1090800003D1FBF705FB002070BD72B600241BE086
:109090000C2060431449085C002800D116E00C2025
:1090A00060431149085CA84205D100210C206043AF
:1090B0000D4A801841700C2060430B4940184078DD
:1090C000002800D0761C641C0A2CE1DB00BF002EB7
:1090D00002D1FBF7E3FA01E0FBF7DAFA62B600200F
:1090E000D2E70000040001203C06012010B5002456
:1090F00015E00C2060430C49085C002801D11220C7
:1091000010BD0C206043084940188068002805D035
:109110000C216143044A891888688047641C0A2C22
:10912000E7DB0020ECE700003C06012010B50A2038
:10913000154908700120154908700020144908706D
:1091400000F030F804201349C86113488860C860F3
:1091500008611248486101210A20FFF7BFFC0D2376
:109160000F2212210B48143002F03AFA0021042099
:10917000FDF702FB01210220FDF7FEFA084A00215B
:109180002020FFF727FF10BD9B0301209C03012037
:109190009D03012000F00040B66DDB36B6EDC3B094
:1091A00095B5FF1F70B515480022C0680424866B72
:1091B0001025134813493300FBF724F80708080566
:1091C0000C0E1308050005600C600DE02022026003
:1091D000052004E0302305E04022026006200860FC
:1091E00002E0602303600A60FBF75EFAFBF762FAB5
:1091F00002F08CF801F068FF70BD00004003012010
:109200002010FF1F2410FF1F10B50446012C1CD195
:1092100005231B221F21204802F0E2F91F4B0722E1
:1092200010211D48083002F0DBF901230622114607
:109230001948083002F0D4F919480068C06A1121B1
:10924000084317490968C86225E0002C23D1002192
:109250001020FFF743FC00211120FFF73FFC032300
:10926000082209210C48083002F0BAF9002306222E
:1092700011460948083002F0B3F916231B221F21BA
:10928000054802F0ADF906480068C06A112188431C
:1092900003490968C86210BD14F00040FB030000D8
:1092A0004C03012070B50446FF252D35002C03D159
:1092B0003B483C4908604EE0022C09D13A4800681E
:1092C000610408433849086038483649086042E07C
:1092D000012C1BD134480068A104084332490860BE
:1092E00008464068610588432F4948600846406841
:1092F000491408432C4948600846406880210843C7
:109300002949486026482749086024E02648006823
:109310000121890408432449086008464068214621
:109320000B3101228A4010431F49486008464068BB
:10933000802108431C494860032C03D11C4819496B
:10934000086008E0042C03D11A481649086002E0BE
:1093500019481449086001E0681E85B2002DFBDC45
:109360002346002203211048001F02F039F9012092
:109370008007C0690221084000280BD04807806997
:109380000005060E711C07480068FBF749F80B49F9
:10939000086003E0034800680849086070BD0000E9
:1093A0000048E8011010FF1F40F000400024F400C6
:1093B000006CDC020090D00300D8B8051410FF1F29
:1093C0001FB513480078002802D0112004B010BD4A
:1093D00020210F48FAF7A5FE6846407A002803D1FD
:1093E0006846C07A002801D00520EFE708486946A2
:1093F0001EC910301EC001200549087002F0A6F9F0
:10940000044A00210820FFF7E5FD0020DEE7000008
:109410001C0601204DB7FF1F70B504460D460748D6
:10942000807E002804D02946204602F03FF970BD16
:109430002946204602F0F0F8F9E700001C0601205A
:109440006D46294607A001F0B9FB002405E0A00005
:1094500029580AA001F0B2FB641C102CF7DB00BFF6
:10946000FEE7000048617264204661756C74205309
:10947000502069732025780A000000003078257894
:109480002C000000F8B55249504A534B5148CA606D
:10949000D861002003468400401C1351FF28FADDE8
:1094A000C8684E4A04468034A2600622C2620A227C
:1094B00002654B4A157885634A4DC56115781426B7
:1094C000022D03D01578032D03D003E0102505628B
:1094D00000E00662444D4561444D85613C25E560F0
:1094E0003625C56334274764082505643927676036
:1094F00032272760AF24E40004601478022C03D0E4
:109500001278032A02D003E0466001E00B22426099
:10951000C824FF22C4602D328260A4000461344C50
:1095200084647D26F6004662324CC464324E866204
:109530000226466682660926C666304E066745677D
:109540008267B210C2674C618B70CB80CB700B818D
:109550002C482B491F4A81602B49803A294B1161C5
:109560002A49803399622A49C1622A490163254800
:109570002949C0384163294901602249284A803974
:10958000CA62284A0A60284AC2601E4A274C403AEA
:109590009463274C1463274C5463274C4C61274C2D
:1095A0008C61274C0C62274CDC61274C1C62274BDA
:1095B000D363274ACA61274981622749C162274983
:1095C0008163FDF723FCFDF731FCF8BD000CFF1FA4
:1095D00040030120000CFF1F0010FF1FE80F0120B7
:1095E0009E0301207E04000060E31600DC050000FD
:1095F00050C30000540B00006A180000204E000009
:10960000D1A6FF1F0009FF1F615DFF1FC9B0FF1F2B
:10961000195CFF1FC95AFF1F619BFF1F5163FF1F8A
:10962000519EFF1FCD97FF1FA565FF1F01B8FF1FAC
:1096300019AAFF1F9171FF1F85A7FF1FE965FF1F73
:10964000C9A2FF1FA9B9FF1FC16DFF1F1D6FFF1F1B
:10965000E59DFF1F1DA4FF1FD9A0FF1F3999FF1F04
:1096600030B5C406E40E0123A3401A4600290BD0EE
:1096700043119B000A4C1B191B6A13434411A4009D
:10968000074D641923620AE043119B00044C1B1927
:109690001B6A93434411A400014D6419236230BD39
:1096A00080F0004070B588B006461648007E00285D
:1096B0000DD015484068C5B2002405E01248803836
:1096C000007804A90855641CAC42F7DB08E00125CA
