:020000041FFFDC
:1008000000000000119DFF1F74ABFF1F98ABFF1F7E
:1008100078AFFF1F00000000000000000000000093
:1008200000000000000000000000000000000000C8
:1008300000000000000000000000000000000000B8
:1008400000000000000000000000000000000000A8
:100850000000000000000000000000000000000098
:100860000000000000000000000000000000000088
:100870000000000000000000000000000000000078
:100880000000000000000000000000000000000068
:100890000000000000000000000000000000000058
:1008A0000000000000000000000000000000000048
:1008B0000000000000000000000000000000000038
:1008C0000000000000000000000000000000000028
:1008D0000000000000000000000000000000000018
:1008E0000000000000000000000000000000000008
:1008F00000000000000000000000000000000000F8
:1009000000000000000000000000000000000000E7
:1009100000000000000000000000000000000000D7
:1009200000000000000000000000000000000000C7
:1009300000000000000000000000000000000000B7
:1009400000000000000000000000000000000000A7
:100950000000000000000000000000000000000097
:100960000000000000000000000000000000000087
:100970000000000000000000000000000000000077
:100980000000000000000000000000000000000067
:100990005184FF1FE584FF1FD1A2FF1F000000004C
:1009A0000000000000000000000000000000000047
:1009B0000000000000000000000000000000000037
:1009C0000000000000000000000000000000000027
:1009D0000000000000000000000000000000000017
:1009E0000000000000000000000000000000000007
:1009F00000000000000000000000000000000000F7
:100A000000000000000000000000000000000000E6
:100A100000000000000000000000000000000000D6
:100A200000000000000000000000000000000000C6
:100A300000000000000000000000000000000000B6
:100A400000000000000000000000000000000000A6
:100A50000000000000000000000000000000000096
:100A60000000000000000000000000000000000086
:100A70000000000000000000000000000000000076
:100A80000000000000000000000000000000000066
:100A90000000000000000000000000000000000056
:100AA0000000000000000000000000000000000046
:100AB0000000000000000000000000000000000036
:100AC0000000000000000000000000000000000026
:100AD0000000000000000000000000000000000016
:100AE0000000000000000000000000000000000006
:100AF00000000000000000000000000000000000F6
:100B000000000000000000000000000000000000E5
:100B100000000000000000000000000000000000D5
:100B200000000000000000000000000000000000C5
:100B300000000000000000000000000000000000B5
:100B400000000000000000000000000000000000A5
:100B50000000000000000000000000000000000095
:100B60000000000000000000000000000000000085
:100B7000FD87FF1F000000000000000000000000D3
:100B800000000000000000008966FF1F0000000058
:100B90000000000000000000000000000000000055
:100BA000000000000000000000000000A97FFF1FFF
:100BB0000000000000000000000000000000000035
:100BC000917FFF1F000000000000000000000000F7
:100BD0000000000000000000000000000000000015
:100BE0000000000000000000000000000000000005
:100BF00000000000000000000000000000000000F5
:0C0C000001FF01FF01FF01FF41000000A7
:020000041FFFDC
:10400000C0C1FF1FD540FF1FDD40FF1FDF40FF1F66
:1040100000000000000000000000000000000000A0
:10402000000000000000000000000000E140FF1F51
:104030000000000000000000E340FF1FE540FF1FFC
:104040000000000000000000000000000000000070
:104050000000000000000000000000000000000060
:104060000000000000000000000000000000000050
:104070000000000000000000000000000000000040
:104080000000000000000000000000000000000030
:104090000000000000000000000000000000000020
:1040A0000000000000000000000000000000000010
:1040B0000000000000000000000000000000000000
:1040C0000348854600F042F800480047659AFF1F04
:1040D000C0C1FF1F0448804704480047FEE7FEE7D1
:1040E000FEE7FEE7FEE7FEE77966FF1FC140FF1F20
:1040F00003460B439B0703D009E008C9121F08C001
:10410000042AFAD203E00B780370401C491C521EAB
:10411000F9D27047D2B201E00270401C491EFBD2B6
:1041200070470022F6E710B513460A4604461946C2
:10413000FFF7F0FF204610BD0321001D401E03784D
:1041400012021A43491EF9D510467047064C012544
:10415000064E05E0E36807CC2B430C3C984710342F
:10416000B442F7D3FFF7B0FFB8ABFF1F08ACFF1F97
:1041700070B58C180578401C6B075B0F01D1037874
:10418000401C2A1106D10278401C03E006780E700C
:10419000401C491C5B1EF9D12B0705D40023521E7D
:1041A0000DD40B70491CFAE70378401CCB1A921C03
:1041B00003E01D780D70491C5B1C521EF9D5A1420D
:1041C000D8D3002070BD000003B40148019001BDA8
:1041D000CDF9000003B40148019001BD0FF40000C7
:1041E00003B40148019001BD41F4000003B401484B
:1041F000019001BDFD0E000003B40148019001BD16
:1042000061F2000003B40148019001BD8117000074
:1042100003B40148019001BDA916000003B4014890
:10422000019001BDF1F3000003B40148019001BD0C
:104230006116000003B40148019001BD4D66000005
:1042400003B40148019001BD5113000003B40148BB
:10425000019001BD3916000003B40148019001BD71
:104260005DF6000003B40148019001BD75F4000043
:1042700003B40148019001BD8913000003B4014853
:10428000019001BD5D2F000003B40148019001BD04
:10429000F1F9000003B40148019001BDD111000003
:1042A00003B40148019001BD59F9000003B401486D
:1042B000019001BD9D18000003B40148019001BDAB
:1042C000F1F1000003B40148019001BD6117000045
:1042D00003B40148019001BDF117000003B4014887
:1042E000019001BD5114000003B40148019001BDCB
:1042F0006916000003B40148019001BD09150000D2
:1043000003B40148019001BDC960000003B4014835
:10431000019001BDB51F000003B40148019001BD2B
:10432000E9BF000003B40148019001BD1D1B00005E
:1043300003B40148019001BDED1B000003B4014826
:10434000019001BD6506000003B40148019001BD64
:1043500021FA000003B40148019001BDC11F000013
:1043600003B40148019001BD89F2000003B4014883
:10437000019001BD49F4000003B40148019001BD62
:10438000C9F6000003B40148019001BDC52000003A
:1043900003B40148019001BDD541000003B40148B8
:1043A000019001BD2141000003B40148019001BD0D
:1043B000E9FB000003B40148019001BD55DD000098
:1043C00003B40148019001BD89DF000003B4014836
:1043D000019001BD75E0000003B40148019001BDEA
:1043E000E1DE000003B40148019001BD35E10000A9
:1043F00003B40148019001BD29E4000003B4014861
:10440000019001BD69E5000003B40148019001BDC0
:1044100091E0000003B40148019001BDE1E2000019
:1044200003B40148019001BDF1E2000003B401486A
:10443000019001BDCDE6000003B40148019001BD2B
:1044400009E9000003B40148019001BDE1E7000063
:1044500003B40148019001BDB5DF000003B4014879
:10446000019001BD6102000003B40148019001BD4B
:104470006DDF000003B40148019001BD85E000003C
:1044800003B40148019001BDD1E5000003B4014827
:10449000019001BDCDDF000003B40148019001BDD2
:1044A0001DE0000003B40148019001BDCDE0000013
:1044B00003B40148019001BD31E2000003B401489A
:1044C000019001BD49E7000003B40148019001BD1E
:1044D0001DDB000003B40148019001BD2DCF000099
:1044E00003B40148019001BDA90B010003B40148C8
:1044F000019001BD5D0B010003B40148019001BDB5
:10450000690B010003B40148019001BD250E0100B3
:1045100003B40148019001BDF5E3000003B4014874
:10452000019001BD21E3000003B40148019001BDE9
:1045300015E3000003B40148019001BDC1E0000093
:1045400003B40148019001BD6DDD000003B40148D2
:10455000019001BDF1DE000003B40148019001BDEE
:104560007574000003B40148019001BD857400001A
:1045700003B40148019001BD0959000003B401488A
:10458000019001BD15F2000003B40148019001BD86
:10459000FDF6000003B40148019001BDC5F900001B
:1045A00003B40148019001BD45C0000003B40148B7
:1045B000019001BD9D1E000003B40148019001BDA2
:1045C000DD74000003B40148019001BD890D0100B4
:1045D00003B40148019001BDD576000003B4014841
:1045E000019001BD0D34000003B40148019001BDEC
:1045F0009107000003B40148019001BD691B000050
:1046000003B40148019001BDBD07000003B4014897
:10461000019001BD6107000003B40148019001BD94
:10462000F90D000003B40148019001BD290D0000FF
:1046300003B40148019001BD3107000003B40148F3
:10464000019001BD7919000003B40148019001BD3A
:10465000010D000003B40148019001BD6F2100006D
:1046600003B40148019001BD5D0D000003B4014891
:10467000019001BD990D000003B40148019001BDF6
:10468000D10D000003B40148019001BD410E0000AE
:1046900003B40148019001BD3975000003B401481D
:1046A000019001BD8D75000003B40148019001BD6A
:1046B0008572000003B40148019001BDE52C0100A2
:1046C00003B40148019001BD7D9E000003B4014880
:1046D000019001BDF59E000003B40148019001BDA9
:1046E000F94C000003B40148019001BDA53D000054
:1046F00003B40148019001BD5D52000003B40148BC
:10470000019001BD552B010003B40148019001BD8A
:10471000B1C2000003B40148019001BDF1F00000F6
:1047200003B40148019001BDC5C5000003B40148B0
:10473000019001BD0DC7000003B40148019001BD07
:104740000BC5000003B40148019001BD39420000CF
:1047500003B40148019001BDF140000003B40148D9
:10476000019001BDC140000003B40148019001BDAA
:104770005D41000003B40148019001BD95C30000F4
:1047800003B40148019001BD1DC3000003B40148FA
:10479000019001BD6D45000003B40148019001BDC9
:1047A000753C000003B40148019001BD7DCE0000BE
:1047B00003B40148019001BD71D7000003B4014862
:1047C000019001BD99D7000003B40148019001BDDB
:1047D000B943000003B40148019001BD3D4400000D
:1047E00003B40148019001BDE1D5000003B40148C4
:1047F000019001BD7DD2000003B40148019001BDCC
:104800007D4E000003B40148019001BD95DA00001F
:1048100003B40148019001BD4D4F000003B40148AD
:10482000019001BDE9CF000003B40148019001BD32
:104830003DD8000003B40148019001BD89D40000B7
:1048400003B40148019001BD5DD6000003B40148E6
:10485000019001BD3DC4000003B40148019001BDB9
:10486000B551000003B40148019001BD3D0D0100A8
:1048700003B40148019001BD55E5000003B40148AF
:10488000019001BDBD9E000003B40148019001BD2F
:10489000F5C4000003B40148019001BD3D3F000094
:1048A00003B40148019001BD25C2000003B40148D2
:1048B000019001BD17C4000003B40148019001BD7F
:1048C000F7C2000003B40148019001BD01C400001B
:1048D00003B40148019001BDD938000003B4014878
:1048E000019001BDDBC2000003B40148019001BD8D
:1048F000E1C1000003B40148019001BD41CF0000B7
:1049000003B40148019001BD199F000003B40148A0
:10491000019001BDC9C5000003B40148019001BD6B
:104920008DC9000003B40148019001BD39CD0000DC
:1049300003B40148019001BD35D3000003B4014820
:10494000019001BD6959000003B40148019001BD07
:104950001500010003B40148019001BD59C50000D4
:1049600003B40148019001BD99C4000003B401489B
:10497000019001BDD54A000003B40148019001BD7A
:104980003D29000003B40148019001BD95340000A9
:1049900003B40148019001BD6913000003B401484C
:1049A000019001BDE11D000003B40148019001BD6B
:1049B000B55E000003B40148019001BD65B7000079
:1049C00003B40148019001BDD5F6000003B40148CD
:1049D000019001BDDDFB000003B40148019001BD61
:1049E000999E000003B40148019001BDED750000DF
:1049F00003B40148019001BD01E4000003B4014883
:104A0000019001BD7DE5000003B40148019001BDA6
:104A1000D100010003B40148019001BDD1EB0000B9
:104A200003B40148019001BDF50D010003B4014834
:104A3000019001BD2D68000003B40148019001BD43
:104A4000B90D010003B40148019001BDFDE2000071
:104A500003B40148019001BDE9E3000003B401483B
:104A6000019001BD3DE4000010B50D4C20780028F8
:104A700014D10C492046FFF754FB0120207000217F
:104A8000122003F09FFB0021172003F09BFB002165
:104A9000142003F097FB212003F0F4FC002010BD4C
:104AA00030B3FF1F0708000070B5184C0D460146D3
:104AB00063792079A21D9B18002807D001281CD0FB
:104AC00002281AD000202071002070BD18462A4606
:104AD000FFF70EFB6079012140196071122003F08D
:104AE00071FB0221122003F00DFB01220848227104
:104AF00002210078FFF768FBE6E718462A46FFF731
:104B0000F7FA607940196071DEE7000030B5FF1FE9
:104B1000BDAEFF1F10B5094C6079002802D000F02F
:104B20000FF809E00021122003F04CFB03211220B2
:104B300003F0E8FA00202071002010BD30B5FF1FFF
:104B400010B50B48C41DFF34FA34217900290CD06C
:104B50006179002909D0074A801803F023FE00205C
:104B6000607102202071002010BD072010BD0000E0
:104B700030B3FF1F0602000070B5134C00262178E9
:104B8000124D00290CD0A178201D08181049AA79CF
:104B90006118FFF7ADFAE078002805D0112070BD4C
:104BA000A670E670AE7107E0A078A9794018A070F1
:104BB000AE716078002801D0072070BD01206070C0
:104BC00005F0D4FC002070BD30B3FF1F30B7FF1FCD
:104BD00007040000F0B587B0314C0027212003F016
:104BE00051FC6078002859D0A078002856D001F0F8
:104BF000FDFE002803D06078012803D00DE01520C9
:104C000007B0F0BD01273946172003F0DBFA022177
:104C1000172003F077FA02206070261D18216846DD
:104C2000FFF77FFAA078E178401A142800DD1420FD
:104C3000C5B200A889192A460330FFF759FA684619
:104C400085701848694602781748008801F0BCFE54
:104C5000002803D0042815D01120D1E7E0784019AE
:104C6000C0B2E070A1788842D8D100206070E070B6
:104C7000A0700146172003F0A5FA0321172003F0C6
:104C800041FA09E0002F01D0012003E001F0C2FF4A
:104C9000401E80B205F06AFC0020B1E70720AFE7B4
:104CA00030B3FF1FBDAEFF1FBEAEFF1F10B50A49D8
:104CB0000A48FFF736FA0021122003F083FA002198
:104CC000172003F07FFA0021142003F07BFA212043
:104CD00003F0D8FB002010BD0708000030B3FF1F11
:104CE00010B5144B124C0FCB03F032FD12480121CA
:104CF0004902201803F064FD002210490F2003F040
:104D0000DBFA00221146212003F080FB0021122053
:104D100003F058FA0021172003F054FA0021142060
:104D200003F050FA06492046FFF7FBF9002010BDBA
:104D300030B3FF1F9CABFF1F07060000657EFF1FFF
:104D40000708000010B5034A1321034800F054FD82
:104D500010BD0000FCAAFF1F1CACFF1F10B50024F3
:104D60001346002802D00224204610BD0A461946E8
:104D70000148FFF72FFAF7E713ACFF1FFFB595B017
:104D80000025109510AA119500F098F806460A28FB
:104D90007CD204460620444320462030C0B26A46F6
:104DA0000E2105F08DF8002802D168468089C5B231
:104DB00017981390404818990078022813D00020C3
:104DC0001290082911D020462130C7B21C220021A0
:104DD0006846FFF705FA6A461C21384605F070F868
:104DE000002805D010E00120EAE720462230ECE759
:104DF0006846807EC01F092806D8E907C90F6A46A1
:104E0000129B1398FFF7F2F91422002107A8FFF76D
:104E1000E7F920462430C0B207AA102105F050F867
:104E2000002812D11022FF2107A8FFF7E5F900287A
:104E30000BD12534E0B20BAA042105F041F8E907B3
:104E4000C90F07AA1798FFF7DDF97036F0B20CAA60
:104E5000102105F035F8002811D10CA802F02DF929
:104E600000240CAEA00080190188002903D08278AC
:104E7000179800F01DFD641CE4B2042CF2D3A807BF
:104E800004D50D48017B179800F000FD1898042800
:104E90000FD10949087802280BD10A791798002AFE
:104EA00000D001224978002900D004211143FFF7E6
:104EB000AFF9002019B0F0BD54ADFF1FF0B50A24C2
:104EC00085B015460F46002806D0012804D00228D8
:104ED00010D0032846D11FE0084602F0BBF8044674
:104EE0000A283FD2002D3DD0062239462846FFF73A
:104EF00071F937E01D4E00240E2060438019062210
:104F00003946801DFFF78AF9002823D1641CE4B2DA
:104F10000A2CF1D30A241DE0002420460621484330
:104F20002330C0B26A46102104F0CAFF00280CD119
:104F30001022FF216846FFF75FF9002805D13946A6
:104F40006846FFF771F9002804D0641CE4B20A2C0B
:104F5000E3D3DFE70A2C05D2002D03D029462046F3
:104F600002F090F8204605B0F0BD000034B0FF1FFD
:104F700070B50C460146032000020A1A0025344889
:104F80001300FFF757F91D1012151C1F2326282C9C
:104F9000303234383A3C3E40424446484A4E505201
:104FA0005A5456585A00C07911E01022294902E09B
:104FB0002849102210312046FFF70CF945E0C06A5D
:104FC000206042E0224906223C31F4E7007820705C
:104FD0003BE0808936E01E4942784231EBE71D49CB
:104FE00082781F39E7E7007AF1E7407AEFE718495E
:104FF00006223031DFE7807AE9E7C07AE7E7C08947
:1050000020E0808A1EE0C0781CE0C08A1AE0008B95
:1050100018E0408B16E0808B14E00D4906223631F3
:10502000C9E7C08B0EE0008C0CE0408C0AE0807970
:10503000CDE7008A06E0408A04E0272904D208462A
:10504000FFF7FEF8208000E00225284670BD000032
:10505000FCADFF1FFFB0FF1F70B50E4C0025607147
:10506000A571691EE181FFF7F1F80420E0711022BB
:1050700000210948FFF7B4F807481022002110303A
:10508000FFF7AEF8E562257265720120A072E57245
:1050900070BD0000FCADFF1FFFB0FF1FFEB53B4D14
:1050A0000C4608040CD56879FFF7D6F8050004D043
:1050B00002F00CF92846FFF7D5F80120C00360E0A4
:1050C000600403D5012080034840FEBD2F48E1075E
:1050D0000126807900292AD02978002920D00528A6
:1050E00021D0287A69460870687A4870274900A854
:1050F000062230310230FFF76DF8A87A694608724F
:10510000E87A48726879FFF7B3F8002808D00720DA
:10511000A871696A002903D00968002900D088476E
:1051200020467040FEBD032069460870E5E7A107F0
:105130000DD5052809D1E889FFF7A0F8AA8A002A29
:1051400003D002216879FFF73FF8022019E06007D9
:1051500004D5002002F0FAF8042012E0200712D54E
:105160002879012802D002280AD107E00096AB8BEB
:105170006A8B298BE88A00F00BF801E000F05AF9FD
:1051800008206040FEBD0020FEBD0000FCADFF1FFA
:10519000F8B5134C069DA679052E01D01420F8BD54
:1051A000104F861FBE4219D2062917D3BE1DB14229
:1051B00014D2FF27F537BA4210D20A2B0ED3B342CE
:1051C0000CD2E08221836283A383284602F0BEF8DA
:1051D00004216079FFF758F80020F8BD1820F8BDC9
:1051E000FCADFF1F7A0C0000F7B50C468049009813
:1051F000164642187F4F00257879B9791300FFF7DA
:1052000019F8190E141BE92040455970777E888FD4
:10521000E996A2A9B4BFC8E9E9E9E9D3E900102CED
:1052200076D11022314674486FE0102C70D172484C
:1052300010223146103068E0042C69D13068F862E1
:10524000CEE0012C64D13B7832783A70002B0AD042
:10525000002A07D1022903D0062901D0042901D14F
:10526000FFF718F8BCE0002A0AD0012905D003296D
:1052700003D0052901D0042902D10121FFF710F83C
:10528000AEE0022C44D13088B881A9E01F2C3FD871
:1052900058481F2200214230FEF7A2FF55482246FF
:1052A00031464230FEF796FF524B7C704233224625
:1052B000012112E01F2C7CD84F481F2200211F38EB
:1052C000FEF78EFF4C48224631461F38FEF782FF1C
:1052D000494BBC701F3B224600217879FEF7E6FF60
:1052E00083E0012C65D13078042862D8387277E0E9
:1052F000012C5ED1307803285BD8787270E0062CE0
:1053000057D13C48062231463030FEF763FF67E054
:105310004FE0012C4DD1307807284AD8B8725FE0B1
:10532000012C46D13078032843D8F87258E0022C7B
:105330003FD13288BA82002A52D0052950D10221A9
:10534000FEF742FF4CE0012C33D13078012830D8F1
:10535000F87045E03088022C2BD1062829D319217A
:10536000C901884225D8F8823AE03088022C20D141
:1053700006281ED31921C90188421AD838832FE084
:105380003088022C15D1FF21F531884211D2788363
:1053900026E03088022C0CD10A280AD31921C90131
:1053A000884206D8B8831BE03178012C01D101294D
:1053B00001D0182514E00821FEF77EFF002801D057
:1053C00016250DE0002001F0C1FF04217879FEF7D9
:1053D0005BFF05E00098272801D2022C02D00225AD
:1053E0002846FEBD3188FEF76DFF0546F8E7000050
:1053F000FFFCFFFFFCADFF1FFFB0FF1F1CB50B4CF8
:10540000A179002901D011201CBD002800D06062C4
:10541000064907482C31034601910090103B0022B9
:10542000E179607900F016F800201CBDFCADFF1F8B
:105430000FB1FF1F10B506488179052901D0122050
:1054400010BDC18913224079FEF742FF10BD000054
:10545000FCADFF1FF8B51D460224069F079E0B00FA
:10546000FEF7E8FE0A1508060608150615060615D5
:10547000002C0CD1FEF732FF040008D13246394629
:105480002846FEF731FFFEF735FFFEF739FF2046CD
:10549000F8BD0000014610B50020C90704D0034A3A
:1054A0000421034800F0A8F910BD000024ABFF1F41
:1054B00078AEFF1F70B50F4D0F4CA8702946103104
:1054C000204600F01DF8002128460B460830CA008F
:1054D00084521218491C09065360090EF7D0142093
:1054E00002F004FBA878FEF711FF0448FEF714FF52
:1054F00070BD000060AEFF1FFFFF00001574FF1FAE
:1055000070B50A4C0025A04209D1002082008C52BF
:105510005218401CC0B295700228F7D370BD01F03C
:1055200048FF0028FAD00480857070BDFFFF00009E
:10553000F8B50E460746069900240798002902D0C0
:105540000B242046F8BD022B01D00D24F9E7117879
:105550005278120289188DB22946814301D08024E5
:10556000EFE73846F16800F03FF9A842E9D02A4653
:105570003846F16800F0CAF90400E2D171892A4680
:10558000384600F067F9DCE770B50C46080412D520
:105590000A488078FEF760FE050008D02878B02819
:1055A00002D1284602F016F82846FEF75BFE0120DD
:1055B000C003604070BD002070BD000060AEFF1FE2
:1055C000FFB583B0087A00250C9E1C460F46C00626
:1055D0000DD5059801F0E6FE030006D00A223946F3
:1055E00003989847050035D101E00E2532E0387860
:1055F00002281DD178682922017840781202000221
:10560000081881B2881A91427ED009DC7348081AC2
:1056100023D0012821D002284FD0032808D125E02B
:10562000012872D0022871D003286DD004286ED0D2
:10563000059801F0DFFE00286AD00568002DD4D05F
:105640000E990D98019100903346224639460398F1
:10565000A8470546284607B0F0BD0D98002872D12E
:10566000F868017831700278416896E00D9800285A
:1056700069D101203070F8680021007820707889A5
:10568000401C80B2FEF74EFE00280DD03178027823
:105690008918891C3170817A61704189090AA17069
:1056A00002784168E01C79E030780422001D3070F7
:1056B0000021601CFEF794FDCCE70D98002875D101
:1056C000F86802A9008800900420307000982070CB
:1056D0000098000A60700098FEF724FE070029D0A9
:1056E000F86800906846028901AB3D493846FEF7EC
:1056F0001FFE002810D13B7802213A487A68FEF755
:105700001DFE002808D104E026E030E01CE04AE05D
:1057100062E03348694688800098007802280CD1FE
:10572000009802224168201DFEF754FD3078801C4D
:10573000307002E069460098888068468088A070D2
:10574000000AE07086E731E00D9800282ED1F96854
:10575000039800F049F804E00D98002826D1F86875
:105760000088022131702070000A607072E7F868CA
:10577000FEF7EAFD0D99C0B2814212D8814201D1F3
:10578000002206E00E9A8918814202D30D99401A30
:10579000C2B23270F9680D9809182046FEF71AFD5A
:1057A00058E7072556E70D98002801D00B2551E74B
:1057B0000721F86831700178217041786170817833
:1057C000A1704188090AE1700179217181796171C3
:1057D000C088000AA0713DE700252FE700280000DF
:1057E000FFFF0000DA2F010010B501F0E2FD0028F4
:1057F00000D0807810BD00007CB51546040019D09B
:10580000684601940180FEF7A5FD03001DD1002D1F
:105810001BD06489002C0DD00C20FEF7A1FD0028C0
:105820000AD0002303608480094A856051680029FA
:1058300004D006E0022308E0132306E0506004E0F1
:1058400011460A68002AFBD1086018467CBD00009A
:1058500060AEFF1FF8B50C4C0746207815460E4683
:10586000FF280FD00A20FEF781FD01000AD0B120E9
:1058700008700020487008714F80CE800D8120781C
:10588000FEF77AFDF8BD000060AEFF1F70B50C4654
:1058900005460649FFF7A8FF800704D5214628469C
:1058A000FEF770FD70BD012070BD000070AEFF1FDF
:1058B0001CB56B461A71120A5A710022009202231B
:1058C00001AA00F001F81CBDFFB583B008461E46D2
:1058D00001A90C9FFEF726FD050014D068468088BC
:1058E00001F088FD00280AD04468002C09D00097F8
:1058F000F3B22946059A0398A04707B0F0BD0024EB
:10590000F3E70E20F9E70120F7E7000070B5144631
:105910000E46054601F04DFD002806D131460548EA
:1059200001F047FD002803D005808470002070BD81
:10593000112070BDFFFF0000014610B50020C9070F
:1059400004D0034A07210348FFF756FF10BD0000AB
:1059500010ABFF1F88ADFF1F70B50D461646002423
:105960001D490300FEF766FC080512343419342281
:105970002934152D23D8162200211848FEF730FCB3
:105980002A4631461548FEF725FC22E0022D16D1A5
:1059900011491088103908801BE0082D0FD10E48DE
:1059A000082231460838FEF7A3FB12E0012D06D18C
:1059B000CA6909493078283107E0012D01D018243F
:1059C00007E0CA6B04493078483102F058F900E02A
:1059D0000224204670BD000088ADFF1FCAB0FF1F23
:1059E000FFB504464E4F81B00020386020461D466A
:1059F000BF30FEF7CDFC4B4826460078B2368034E7
:105A00000828A06E32462CD00121FEF7C7FC444F77
:105A10003078F863761C3046FEF78EFB00BA000A39
:105A2000F17800020843B863361D3046FEF784FB68
:105A300000BA000AF178000208437863361D304648
:105A4000FEF77AFB00BA000AF178000208433863D7
:105A50000398010202980143F960039F00263F1D4D
:105A60000EE00021D1E7A819401CFEF765FB0102FA
:105A7000A85D01432C4830180160361DF6B23F1F67
:105A8000042FF0DA032F04D0022F08D0012F0FD0FB
:105A900014E0A819FEF750FB0102090A09E0A91950
:105AA00048780978000208431F497118086003E02C
:105AB000A95D1D4830180160361DF6B200211A4A52
:105AC00002E0B0180160361DFF2EFADD1448174BB6
:105AD00043600F230361012303604369002BFCD063
:105AE000436901600020039B11E081180968295473
:105AF000401CC0B20E0A2E54401C0E0CC0B22E54D4
:105B0000401CC0B2090E2954401CC0B21B1F002B00
:105B1000EBDCA06E401CA066012005B0F0BD0000CB
:105B200000000440E511FF1F00010440080F0000C1
:105B3000FFB504464D4F81B00020386020461D4619
:105B4000BF30FEF725FC4A4826460078B23680343E
:105B50000828606E32462BD00021FEF71FFC434F11
:105B60003078F863761C3046FEF7E6FA00BA000A91
:105B7000F17800020843B863361D3046FEF7DCFAC0
:105B800000BA000AF178000208437863361D3046F7
:105B9000FEF7D2FA00BA000AF1780002084338632F
:105BA0000398029900020843F8600026039F0EE064
:105BB0000121D2E7A819401CFEF7BEFAA95D000238
:105BC00008432C4971180860361DF6B23F1F042F98
:105BD000F0DA032F04D0022F08D0012F0FD014E0E9
:105BE000A819FEF7A9FA0102090A09E0A9194878DB
:105BF0000978000208431F497118086003E0A95D95
:105C00001C4830180160361DF6B20021194A02E026
:105C1000B0180160361DFF2EFADD0F2313481B025A
:105C200043600F230361012303604369002BFCD011
:105C3000016003980023001D11E099180968E954D8
:105C40005B1CDBB20E0AEE545B1C0E0CDBB2EE5496
:105C50005B1CDBB2090EE9545B1CDBB2001F0028A1
:105C6000EBDC606E401C606605B0F0BD00000440D7
:105C7000E511FF1F00010440F0B589B0FEF794FB69
:105C8000FE4908600420FEF795FBFEF799FB0446E9
:105C9000C00712D0FA490020086072B6FEF796FBE2
:105CA000F849F94DF94E02280BD001287ED0F84F63
:105CB00005287CD004287BD0ADE2FEF78DFB09B02F
:105CC000F0BD08780F46012806D0032804D002282A
:105CD00002D005286DD09EE20720FEF76BFB08ABD3
:105CE00007AA06A9EB48FEF77DFBEA493439898EFD
:105CF0000B074906CA0FE7491B0F34390C464034DD
:105D000020319446002801D0032B05D0052B6ED0FE
:105D1000387801286CD081E23878012801D0032836
:105D2000F9D1D94843695B1C4361DB4B087FDD79BE
:105D3000A842F0D1487F1D7AA842ECD1887F5D7AD5
:105D4000A842E8D1C87F9D7AA842E4D12078DD7AC4
:105D5000A842E0D160781D7BA842DCD1F568002024
:105D6000AD8D2D072DD5DB7B012B01D0032B28D149
:105D7000C3001F1AC94BDD5D95421DD1FB188D7DF7
:105D80005F78BD4218D1CD7D9F78BD4214D10D7E84
:105D9000DF78BD4210D14D7E1F79BD420CD18D7E82
:105DA0005F79BD4208D1CD7E9B7903E0E5E0E6E076
:105DB0002EE2E0E09D4202D0401C0828D8DB0828F3
:105DC00017D0B14D686D401C6865706C002802D01A
:105DD000804700289FD0FEF70BFB01277770FEF766
:105DE000E3FAA6490968884208D9401A09E02CE07C
:105DF000AFE0A548016A491C01620FE2A84A511AA6
:105E00000818F16876230A79181A801A4A6C096C06
:105E1000D2B2C9B2C0B2FEF7F1FAFEF7F5FA98486D
:105E2000076000207070FEF7F5FAFEF7F9FAA08C13
:105E3000010A9848891C3030FEF7F8FA0E20FEF768
:105E4000B9FAA869401CA861E8E13F78012F01D0A8
:105E5000022FD2D1E869401CE8618F480B7FC079DE
:105E60008342CAD18C484B7F007A8342C5D18A488D
:105E70008B7F407A8342C0D18748CB7F807A834230
:105E8000BBD185482378C07A8342B6D16078824CF2
:105E9000237B9842B1D1F0680023808D000726D57E
:105EA000E07B022801D0032821D1D800C61A7B4804
:105EB000845D944218D130188C7D4678B44213D159
:105EC000CC7D8678B4420FD10C7EC678B4420BD11B
:105ED0004C7E0679B44207D18C7E4679B44203D118
:105EE000CC7E8079844202D05B1C082BDDDB6D48C0
:105EF000022F1AD10478644527D18A7D4478A242C2
:105F000023D1CA7D8478A2421FD10A7EC478A242DE
:105F10001BD14A7E0479A24217D18A7E4479A242DB
:105F200013D1C97E827991420FD1082B0DD0696DB2
:105F30000622491C6965614601705649401C891C4E
:105F4000FEF748F9FEF778FA68E1686A401C686273
:105F500064E15149487BC20701D0252004E0800755
:105F600001D5262000E02720097D8142ECD932208E
:105F7000FEF768FA52E107204EE106204CE108786E
:105F8000072879D10B20FEF715FA4149FF2209783D
:105F900025325143444A00208B18587050544348CE
:105FA0000068002805D0FEF753FA40490978C84038
:105FB00005E0FEF74DFA3E490968FEF74FFA07463D
:105FC000E00535D539480068002805D0FEF74CFAC1
:105FD00036490978C84005E0FEF746FA34490968B1
:105FE000FEF73CFA2A4B00901878FF2125314843F0
:105FF0002D4940180279002A01D000220271234A5B
:106000007130121D911D04F04BF9F1680098C968B8
:10601000381A411827480160600526D51C49FF221F
:10602000097825325143204A0120891848701CE024
:106030001748FF22007825321B4B01215043195489
:10604000296DFF3F491C2965F1680F3F0969C01898
:10605000CA19184920300A60407E410016480818C5
:10606000FF300130018D491C01852046009903F065
:1060700065FCFEF7FFF921E0CDE000001C12FF1FD8
:106080001812FF1FE511FF1F0C31FF1F88AFFF1F04
:106090001512FF1FF82BFF1F442AFF1F892BFF1F1C
:1060A00040420F000C12FF1F5C2AFF1F2410FF1F2D
:1060B0002010FF1F2012FF1F98BDFF1F61490746D8
:1060C00008700020087248728872C8725E480442E4
:1060D00002D0E86C401CE8645C48FF22007825325E
:1060E00050435B4A57498318D81DF930827C069289
:1060F0008A1DFF33C07C491C1333FEF7C1F90246E9
:106100005248FF2100782531484351494018C11DAC
:10611000F931CA740279002A0CD10223069A897CCB
:106120001A4019408A4205D046494A78002A01D1CE
:1061300001224A70474949688E220904090E0391D9
:10614000125C002A02D0AA6ED219AA662030407EC4
:10615000414D40004019C030C18BC919C183FEF7C1
:1061600095F901463948FF22007825325043384AD4
:1061700080182030407E400040198030828A891883
:10618000818207AA05A904A8FEF786F92F48FF21F6
:106190000078253148432E4940182030407E69461A
:1061A00040002A5A097D5118295240194030694649
:1061B0004289097C51184181600705D503988742BF
:1061C00002D23846FEF76EF9FEF772F91D4800213B
:1061D000224B81701A78012A0CD1002F0AD0204A54
:1061E0001469002C03D0127DD243920702D0012201
:1061F000827019708079002801D0FEF75FF9FEF7F0
:1062000063F9F078002809D03189FEF749F805E0F4
:106210000878082809D00520FEF7CCF8FEF7DCF84E
:1062200062B60320FEF7C6F849E53878FF2125312C
:10623000484307490B4A4018911D713004F030F86B
:106240000920E9E78031FF1F020800001512FF1F37
:106250005C2AFF1F0010034098BDFF1F1312FF1F91
:10626000442FFF1F8CAFFF1FF8B58E4F079CBE1D3C
:106270009C460D46002A1FD0012A05D0032A0ED0C5
:10628000022A0CD0042A59D1002C57D00699002993
:1062900001D0012952D1032A01D0022A0AD1014694
:1062A000814BA039994249D2A02D47D301218903BE
:1062B0008D4243D8002A0BD17B4B014620398033D5
:1062C00099423BD2202D39D3012189038D4235D803
:1062D000854233D36146002901D001292ED1099985
:1062E000002905D0012903D0022901D0032925D195
:1062F0000899490722D06D4B9988012920D09A73BB
:1063000008994907490F59731CD06849099BCB73F9
:106310006346002B1BD001238B713378CB717378CC
:106320000B72B3784B72F3788B723379CB727379CB
:106330000B73012A19D0042A28D036E01220F8BDA8
:106340000C20F8BD5948072141733020F8BD0023C7
:106350008B713B78CB717B780B72BB784B72FB787F
:106360008B723B79CB727B79E2E75148069B0370D5
:106370002378437063788370A378C370E3780371E4
:10638000237943716379837102200EE0484B069EA6
:106390001E7026785E7066789E70A678DE70E6784D
:1063A0001E7126795E7164799C7148801300FDF737
:1063B00041FF0504060A08060B00002504E001253C
:1063C00002E0022500E006253A4E8A79B0880C46A4
:1063D0000009000128434023910198430143D00163
:1063E000802291430843B0800622E11DB01DFDF7D5
:1063F000F1FE37464037B88CA179000900014022F0
:10640000001D904389010143B98430460622E11DF5
:106410006630FDF7DFFEA07C03210002490241182F
:10642000B2883F2000028243114389B2B180012D1E
:1064300012D18143032080020818B0801C49BB8C14
:10644000087880229343C0011843B884304606225E
:106450000C30491CFDF7BEFE1748017808291AD0F8
:10646000072918D0A17B0B00FDF7E4FE05040810F6
:106470000C081700012101701F200AE002210170A1
:10648000202006E004210170222002E00321017097
:106490002120FDF78FFF0020F8BD002101701E2094
:1064A000F7E70000F911FF1F613F0000442AFF1FBA
:1064B0000C12FF1FC42BFF1FE511FF1F10B50E4864
:1064C0000E4B0278FF20253042430021D018FF24D4
:1064D000C170133421549954012302460371603270
:1064E000937113742023816119548E2319545174AC
:1064F0000521818110BD00001512FF1F5C2AFF1FBE
:10650000FEB572B65548C068476D866D082F01D834
:10651000002F00D10427082E01D8002E00D1042618
:106520004F48504D816C504C491C81642878FF21A4
:106530002531484300192030407E41004B4808185F
:10654000FF304130418E491C4186FDF7C3FFFDF706
:1065500061FFFDF765FF2878FF21253148430019C9
:10656000806AFDF7BDFF2878FF21253148430019D7
:10657000406AFDF7BBFF2878FF2125314843001909
:106580002030407EFDF7B8FF2878FF2125314843B1
:1065900000192030407EFDF7B5FF2978FF20253017
:1065A000414308190279002A0BD02E21095C304A98
:1065B00040695143400009182848C068C06F081856
:1065C00015E0615C0029254909D0CA684069096C59
:1065D000136940185B0040001818D16C06E0C968C8
:1065E0004069CA6840005200C96C10184018FDF795
:1065F0008FFF1A4DE868806CFDF790FFE868416CEA
:10660000CAB2016C808FC9B2C0B2FDF7F7FE042098
:10661000FDF78AFF0720FDF78DFF02A93846FDF739
:106620008FFF69460989C2B201250E480191009584
:106630000078FF21253148430019FF300130817C6B
:10664000F3B23020FDF782FFFDF7DEFE094805605A
:1066500062B61420FDF7AEFEFEBD000088AFFF1F3E
:106660000C31FF1F1512FF1F5C2AFF1F98BDFF1F73
:10667000710200001812FF1F0249014808607047AC
:1066800040787D0184AFFF1F10B572B61948C0680D
:10669000C00703D01748001FFDF75EFF154C403CB4
:1066A000A06BC00707D013481838FDF755FF1248F4
:1066B0000168491C0160606AC0070CD0E16A0F489C
:1066C000C162A16941630B482C38FDF745FF0C48B6
:1066D0000168491C01602069C00707D02046FDF70A
:1066E0003BFF2046FDF73EFFFDF742FF62B600206C
:1066F00010BD0000401002402C10FF1F88AFFF1F8C
:106700003010FF1FF8B50646002700F03FFB044697
:106710000648051B06E000F039FBA04201D3071B29
:1067200000E02F18B742F6D3F8BD0000FFFFFF00CE
:10673000002805DBC106C90E012088400149086018
:106740007047000000E100E08307FF22DB0E9A4063
:106750008907090E9940002808DB830809489B0037
:106760001818036893430B43036070470007000F3A
:106770000838830804489B001818C36993430B43E7
:10678000C361704700E400E000ED00E08307FF22F2
:10679000DB0E9A408907090E9940002808DB830820
:1067A00009489B001818036893430B430360704724
:1067B0000007000F0838830804489B001818C369B5
:1067C00093430B43C361704700E400E000ED00E039
:1067D00002E008C8121F08C1002AFAD170477047AA
:1067E000002001E001C1121F002AFBD1704710B543
:1067F000FDF7C4FE0120FDF7C7FEFDF7CBFE00202C
:1068000010BDF0B500248E464A1E12E071460023EA
:106810000D1B6D1E0AE09E0031188C468759496891
:106820008F4202D9815161464F605B1C9D42F2D874
:10683000641C9442EAD3F0BD10B504460848FDF745
:106840006BFD00210748C943018000218170064A81
:106850000621001DFEF7D0FF0249091F0C6010BD84
:106860006D68FF1F10AFFF1F60ABFF1F084A10B518
:1068700090420BD0012906D0022907D10121FDF752
:106880008FFE002802D103490020887010BD00004F
:10689000FEFF000010AFFF1F30B5454C8BB060709D
:1068A00006211F20FDF70EFD01206A4610721073AD
:1068B0000720107600209083142111841E2111825C
:1068C00090827D20C00090843AA003C8019100907E
:1068D00006213A48FEF788FCC32006AA0121800061
:1068E000FEF782FC354802AA0121801FFEF77CFCDE
:1068F000324807AA0221401FFEF776FC224661209B
:106900000C321721C000FEF76FFC2C4822462332C0
:106910001521001FFEF768FC312003AA01210001A8
:10692000FEF762FC254808AA0221801DFEF75CFCE8
:10693000224804AA0221C01DFEF756FC1F4805AAE2
:1069400002210830FEF750FCC52009AA0221800070
:10695000FEF74AFC2246383215210020FEF7FCFFE4
:10696000FF25913529460620FDF7ACFC2946072076
:10697000FDF7A8FC29460820FDF7A4FC29460920BC
:10698000FDF7A0FC0025ED432846FEF7D5FF28467D
:10699000FEF780FDFEF7D6F90948FFF74DFF0948DD
:1069A000FEF79EF901216078FDF77AFC0BB030BD4F
:1069B000BCAEFF1F01020304050600000B0300002C
:1069C000DD9CFF1FD99CFF1F10B5074A9278D207A4
:1069D00007D0054A443252890A800022FDF7E6FDBD
:1069E00010BD122010BD000010AFFF1F02488078BC
:1069F000012800D00020704710AFFF1F38B5C8072E
:106A000001250C46002805D01948FEF7F7FC204662
:106A1000684038BD200708D5684605706A460121E0
:106A20001448FEF7E1FB08201DE0600602D5402077
:106A3000484038BDA00703D5FEF782F8022012E0D7
:106A4000200603D5FEF7C6F880200CE0E00504D54B
:106A5000FEF760F8FF20013005E0A00505D5FEF740
:106A60008BF801204002604038BD002038BD000096
:106A7000C0AEFF1F05030000F8B5087A00271D46C9
:106A800016460C46C00601D50820F8BD207802281D
:106A900060680DD010221149FDF7C0FB002817D007
:106AA0000E49102210396068FDF7B8FB3846F8BD72
:106AB0000178407800020818094980B28842F5D16F
:106AC0000220187002463046E168FDF783FBEDE7CF
:106AD0000120287031203070E8E7000050ABFF1F24
:106AE000022900001FB504460300FDF7A3FB06447E
:106AF000041F44443844C12002A98000FEF738FA3C
:106B00006946087A0870487A4870887A8870002048
:106B10000871C870487BC871087B8871C87A487151
:106B20006A4608210020FEF719F924E0002114200C
:106B300001F048FB0321142001F0E4FAFEF7B6F857
:106B40000021122001F03EFB0321122001F0DAFAAD
:106B50000021172001F036FB0321172009E0084926
:106B60000848FEF705FA0121142001F02BFB022151
:106B7000142001F0C7FA0248801E04701FBD0000F7
:106B8000BEAEFF1F0E030000FEB58446087A002447
:106B9000089F1546800601D50820FEBD08781B4ECB
:106BA000022811D0488931460831498D884209D1DF
:106BB0003168002906D003206A4610705380019581
:106BC000104688472046FEBD48680278407800029B
:106BD00010180F4A80B29042F4D1012001902A4649
:106BE00000976046FEF7A4FC0400EBD13168002951
:106BF000E8D06A782878120280180004000C03D0CC
:106C000002206A461070DBE70120FAE70CAFFF1F95
:106C1000022900001CB569460A48FEF7A9F9C720F9
:106C200001A98000FEF7A4F9694688880988401CFC
:106C3000484381004018C117890F08188003000CD1
:106C40001CBD00001B03000010B505231B221F21E3
:106C50000D4803F0A9FC0C4C0C4B08340722102102
:106C6000204603F0A1FC062201231146204603F032
:106C70009BFC05481438416A012211434162C169F5
:106C8000034A1143C16110BD14F00040FB03000032
:106C900004003E0010B50020054CFF212218401CC6
:106CA00051704028FADB03F0B3F9207010BD0000EA
:106CB0007CBFFF1F10B50020054CFF212218401C8F
:106CC00051700628FADB03F0C1F9207010BD0000F6
:106CD0001BB0FF1FF0B58646080CFF268446002334
:106CE00088B237461C46194601228A40054615409F
:106CF000CD402C19A4B2FF2F02D1012C00D18FB2AC
:106D000065462A40CA40D21893B2FF2E02D1012B09
:106D100000D18EB2491C1029E6DB012C02D0102CC8
:106D200008D009E0012B07D13001C0197146087065
:106D30000220F0BD102B01D00320F0BD0120F0BDDA
:106D4000032806D3012189078B68012282409343DF
:106D50008B607047032806D3012189078B680122C5
:106D6000824013438B607047014800687047000001
:106D70001410FF1F012292071368012181408B43E9
:106D80001360106808431060704700000449886A67
:106D90000202886A120A0002000A9042F7D1704784
:106DA00000F0004010B504460120FFF7ABFC11498C
:106DB000CB6A1148C26A934202D2C96A511A00E0F2
:106DC00000210163FFF7E2FF0C490123C8620119AA
:106DD0000A4608321B069A4203D309310902090AFE
:106DE000641A01190648C162416A2922D20311437B
:106DF000416210BD0010024088AFFF1F0012FF1F4C
:106E000000F00040F8B5496894460A784978069839
:106E1000090251188FB2444A11210025079CBE1A5D
:106E2000091A974243D009DC404ABA1813D0012A04
:106E30001CD0022A25D0032A08D12EE0012E40D0F2
:106E4000022E48D0032E50D0292E5AD00020187080
:106E50000A252846F8BD082855D20821091AA1425A
:106E600000D80C46E2B21A70314957E00C284AD2D9
:106E70000C21091AA14200D80C46E2B21A702D4921
:106E80004CE00D283FD20D21091AA14200D80C4632
:106E90002849E2B21A700D3140E0112833D2A142E4
:106EA00000D80C462349E2B21A701B3136E0112893
:106EB00029D2A14200D80C461E49E2B21A702D31E7
:106EC0002CE011281FD2A14200D80C461949E2B289
:106ED0001A703F3122E0112815D2A14200D80C4689
:106EE0001449E2B21A70513118E00E280BD20E216B
:106EF000091AA14200D80C460E49E2B21A70633159
:106F00000CE0072801D30725A3E70721091AA142AE
:106F100000D80C460649E2B21A70C91F091860462B
:106F2000FDF758F995E70000272A0000DDD5FFFF9F
:106F300013ACFF1F88AAFF1FF8B5414A0446D0686A
:106F4000808DC00764D03F48406A3F4D8104890C62
:106F5000A94202D96842081800E0681AC82819D363
:106F60002B2601233601DB02B04207D2C8004102C2
:106F70008601891BC6008919081A09E0C800410268
:106F80008601891B4601891BC600891B4000081821
:106F9000C018010B2C482D4BC430814200D9196810
:106FA00019607D26906AF600B0420AD2284EFF276B
:106FB0008E198A37BE4200D3116A401C1960906254
:106FC00009E0106A060A37188F4203D3861B8E42E7
:106FD00000D808461860106AC100091A1868091814
:106FE000C9081162C108A8420AD9194AC43A8018CE
:106FF0006043C00801E0401A641E8842FBD807E0E5
:10700000281A6043C00801E0401A641C8842FBD87B
:107010000C48062200231146243803F0C5FA204606
:10702000FDF7CAFA01F014FA01F076F90020FDF735
:10703000C1F90120FDF7C6FA0120FDF7C9FAF8BD34
:1070400088AFFF1F40F00040420F00003412FF1FC6
:1070500082F1FFFF70B50A4D064600240E20604302
:10706000401906223146FDF7D9F8002801D0204604
:1070700070BD641CE4B20A2CF0D30A2070BD00007D
:1070800034B0FF1F7FB50D460A280CD2002D0AD060
:10709000062148432030C0B26A460E2102F010FF9C
:1070A000040003D007E0022004B070BD0622694648
:1070B0002846FDF78FF82046F6E700218A00835A1C
:1070C000491CDB43835212189378C9B2DB43937097
:1070D0000429F3D370470000F8B50746002000905C
:1070E000784CB978054607266079A2790B00FDF740
:1070F000A1F80805DD1A36365E98C1DD78780028DB
:107100005AD170480622F91C3C30FDF763F8012083
:10711000A0716C4B0146423362786079FDF7C6F886
:10712000002849D1C5E07978002945D1F9780029AE
:1071300006D0654BA2780021FDF7B8F878700AE018
:10714000022A0BD00121FDF7B7F8002803D1012155
:107150006079FDF7A5F8787800282DD1F8BD7B7807
:10716000002B29D1032909D0A289002A0CD021782B
:1071700000290AD00121FDF727F806E0052A01D0F1
:10718000022012E0062010E02570A079062802D027
:10719000042802D008E0052007E001202070014605
:1071A0006079FDF77DF884E00320A07181E07878B4
:1071B000002803D0312832D0A6717AE04148062257
:1071C000391D3630FDF706F87889E081B8892082CC
:1071D000F88960820520A071A28A002A03D00221CA
:1071E0006079FCF7F1FFB889E083F8892084388A58
:1071F0006084E07801280AD11F20FDF721F87D2165
:10720000C9004843024604216079FCF7DDFF7A8912
:10721000F8780423391DFDF7B1FD257049E025708C
:10722000C2E72848062200213630FCF7D9FFE58363
:107230002584658404216079FDF726F808216079AA
:10724000FDF722F8B879082808D00320A07120782B
:10725000002805D06079FDF71DF807E00420F5E768
:107260000120207001466079FDF71AF80020C04324
:10727000E0811EE00821FDF707F87878002800D0AB
:107280006CE7F888E0833889208478896084042159
:107290006079FDF711F80028F2D1A06A0028EFD03C
:1072A0000368628C218CE08B9847F8BD0098002819
:1072B000FBD0606A0028F8D001680029F5D0A079D9
:1072C0008847F8BDFCADFF1FE0B0FF1F10B5017887
:1072D0001C4C912906D0A2291BD0D02901D1FFF73F
:1072E000FBFE10BD41780E29FBD1828816498A42E7
:1072F000F7D1816803200856A1790529F1D17F28AB
:10730000EFD0616A0029ECD049680029E9D08847AC
:1073100010BD41791329FBD10089012802D12079C0
:10732000022808D00520FCF78BFF0246082160796F
:10733000FCF74AFF10BD08216079FCF7A5FFFEF7B6
:1073400079F810BDFCADFF1F051400007CB5144C8E
:107350000546E08BE18A88420AD3218B884207D810
:10736000208C618B884203D1608CA18B884216D01F
:107370000520FCF765FF0646E08A69460880208BF9
:107380004880608B8880A08BC8806279E089FDF797
:1073900025F92571324608216079FCF715FF7CBD7F
:1073A000FCADFF1F10B500F025F8002800D0806864
:1073B00010BD00229300CB5A834202D190004018A6
:1073C0007047521CD2B2022AF4D30020704700004A
:1073D000074A0021CB00D35A834202D1C80080184B
:1073E0007047491C0906090EF4D0002070470000C0
:1073F00068AEFF1F0649496805E08A88824201D1CC
:107400008868704709680029F7D10020704700009C
:1074100060AEFF1FF8B50746012906D0022924D126
:107420000121FDF7BDF800281FD13846FFF7D0FF36
:10743000050015D000240D4E0CE01820696860434B
:1074400008180188002908D018220021FCF7C8FE7E
:10745000641CE4B270788442EFD30020C0432880DB
:10746000024938461031FEF74BF8F8BD60AEFF1FF9
:10747000F3B5074683B00830029000267888FFF7FE
:10748000A7FF019000282FD0002523E00198416834
:10749000182068430C18218800291FD00298007812
:1074A00001280ED16088009023797888621DFEF74C
:1074B0000BFA060005D00299002008700498218874
:1074C0000180182200212046FCF78AFE00206D1C56
:1074D0002080EDB2074840788542D7D30021C943C8
:1074E0000198002E018002D17888FDF77DF83046A2
:1074F00005B0F0BD60AEFF1FF3B50546334C07463F
:1075000085B00835162200212046FCF769FE03A845
:1075100000902B79698828886A1DFDF76BF806466C
:1075200040E02B48102200216B4607C3274B6946D9
:107530008A897888163B3146FEF742F8002812D136
:107540002348E979C01EC27891420CD11F492846D0
:1075500016390830FCF762FE002804D021787089C3
:1075600089000919488068468289698804AB3046D9
:10757000FCF7DEFE21780646880000194288002AC2
:1075800010D0002E05D06A46128A491C21708280D4
:107590000AE00A060020920DC0431219491C21700E
:1075A000908004E0002E02D020780528B9D32078FE
:1075B000002806D078882146FDF722F8002007B081
:1075C000F0BD0698298801800A20F8E716B3FF1F4E
:1075D00063AEFF1FF0B585B004460025684685817F
:1075E00020790E2875D00EDC082821D004DC022872
:1075F00012D0062867D116E0264608360A281DD084
:107600000C2860D134E0102868D012286BD01628DE
:107610006ED0182857D170E03A491720088060884A
:10762000FCF7F4FF4FE003A92046FFF765FF03E0F6
:1076300003A9204600F04EF9054635E0308804A93C
:10764000FCF770FE010011D02E4F16200097019517
:1076500002906A4660887B1C128AFDF7B1FF050024
:107660001AD160883946FCF7D7FF1DE0012513E0E9
:10767000308804A9FCF756FE0100F7D07288214F2C
:1076800016200192009702906A466088128A7B1C3D
:10769000FDF796FF050003D030886946888103E036
:1076A00060883946FCF7BEFF002D0CD060781428A6
:1076B00009D01449207908706846808948800D7186
:1076C0006088FCF7B5FF2046FCF7B8FF05B0F0BDB9
:1076D000FFE703A9204600F07DF9ADE703A92046A6
:1076E00000F064F8A8E703A9204600F0C7F9A3E773
:1076F00003A9204600F008F89EE703A92046FFF7FB
:10770000B7FE99E716B3FF1FF8B504460F460546C6
:10771000083400896946FCF705FE06003DD0307A42
:1077200080060ED568460088FFF73CFE030006D0B1
:107730006888122231469847061E02D02EE00E2697
:107740002CE06E883046FFF743FE010005D1154856
:10775000FFF73EFE01000ED00E80134A002056783F
:1077600007E018234A684343D25A002A07D0401C36
:10777000C0B2B042F5D30926002E09D00EE0496808
:107780001822504308182146FCF724FD0026F3E791
:1077900068882146FCF758FF02E0012620883880DF
:1077A0003046F8BDFFFF000060AEFF1FF3B587B0A5
:1077B000079A04A808320392009000261379518892
:1077C0001088424C3746521DFCF714FF054662E014
:1077D0000798297A4088FCF73DFF070003D00898F6
:1077E0006989018059E03A48112200216B4607C39C
:1077F0000798364B69460A8A4088163B2946FDF7AA
:10780000DFFE0700EBD1002E28D031486178C01E82
:10781000C078021D914242D1301811283FD8A119D9
:10782000A87A8870761CF0B269892218090A401C6F
:107830009170C6B2039805AB41886846028A284613
:10784000FCF776FD05000FD06946888AA11988707B
:107850006946761C898AF0B2090A0AE01C48C01EF3
:10786000C078001D6070DAE7FF21A0198170761CD6
:10787000F0B2221891701649401CC91ECA78C6B2CF
:107880001249A0191639801CFCF7A4FC1048C01E30
:10789000C0783018C6B2002D9AD1002E0CD0617875
:1078A0003046FCF7DBFD2070079821464088FCF746
:1078B000D7FE002009B0F0BD002F00D10A270398A1
:1078C0000188089801803846F4E7000016B3FF1FCE
:1078D00063AEFF1FF3B585B005983B4D08300390AC
:1078E00007880024019404A8009003980379418834
:1078F000421D3846FCF77EFE06004CD0059877897D
:10790000317A4088FCF7A6FE0190002843D12F4829
:10791000132200216B4607C305982B4B69460A8A40
:107920004088163B3146FDF74BFE0190002832D1CE
:10793000002C2AD025486978C01EC078801C81425E
:107940002BD12249C91EC8782018132823D82A19F8
:10795000B07A9070641CE0B272892B18120A9A7087
:10796000401C0C46CA78C6B21749A8191639801CA3
:10797000FCF730FCE0783018C4B2154887420AD0D2
:107980007F1CBFB2132CAED907E01048C01EC078D0
:10799000801C6870D5E7002C0CD069782046FCF775
:1079A0005DFD2870059829464088FCF75FFE0020A1
:1079B00007B0F0BD0198002801D10A200190069877
:1079C00007800198F4E7000016B3FF1F63AEFF1FA6
:1079D000FFFF0000F3B585B00027264C059E2770F9
:1079E0003D46083638E06800305A03A9FCF79AFC97
:1079F000010013D02048162300226F460DC70598BA
:107A00001C4B6A464088163B9289FDF7D9FD07005A
:107A100006D06800315A0698018028E00127F8E76F
:107A200015492078C91ECA788218162A02D916224A
:107A3000101AC87022781049601C1018C91ECA7824
:107A40000C491639FCF7C6FB0B482178C01EC078DC
:107A500008186D1C2070EDB2B07DA84202D92078C4
:107A60001628C0D3059821464088FCF705FE384605
:107A700007B0F0BD16B3FF1F63AEFF1FFEB504468F
:107A80000F4606460834008901A9FCF74BFC0500A7
:107A900022D0287A80060ED568468088FFF782FCBF
:107AA000030006D07088122229469847050002D0AC
:107AB00013E00E2511E000200090A3782188708843
:107AC000E21CFDF701FF050007D1207E002809D147
:107AD0007088FCF7D7FD02E0012520883880207EE1
:107AE000002801D00020FEBD2846FEBDF8B50446A2
:107AF00002461820424319480025064645700836BC
:107B00007068002807D00020C1008919401C0006B9
:107B10004D60000EF8D0124F00213846FCF760FB94
:107B2000002318466043C0B218214843C1190B48CE
:107B3000DA00083016187160002105E018224A4367
:107B40007068491C8552C9B2A142F7D35B1C1B0661
:107B50001B0EE6D0014844700020F8BD60AEFF1F48
:107B600020B1FF1F7CB50C78069D022C0ED14C680D
:107B70002678647824023419054EA4B2F44205D163
:107B8000022400950194FDF7D3FC7CBD01207CBD4F
:107B9000FED6FFFF0848816C491C8164C16CC26C31
:107BA0000902C90F5203D20F5140C26C5202120A8D
:107BB0005118C164C06C704788AFFF1FF8B50698B4
:107BC00000271D4614460E46002801D00B20F8BDA4
:107BD00030780021022801D019704DE070680278D9
:107BE000407800021018152280B25202801A030059
:107BF000FCF720FB0504121F1A254100F068FCF772
:107C0000A3FBC2B20798824200D902462A70F168EB
:107C10002046FCF7DFFA30E0F06802210088297086
:107C20002070000A607028E0062028700246F16883
:107C3000EEE701202870F068007820701DE0F06801
:107C4000002816D008212970017821700188090ABE
:107C500061708178A1704188090AE1700179217110
:107C60008188090A61718179A171C088000AE07177
:107C700003E0297001E0297001273846F8BD10B5EE
:107C80000B78840702D50224234301E0FD2423401E
:107C90000B7003070B7802D50824234301E0F72477
:107CA00023400B7083060B7802D52024234301E088
:107CB000DF2423400B700A21084201D1810603D53D
:107CC00010780C21084304E0002803D11078F32138
:107CD0000840107010BD0000FFB581B00878002486
:107CE0000A9E1F460D4602280FD168680178407829
:107CF00000020818152180B24902401A09D0012853
:107D000029D0022848D003283CD00124204605B0C1
:107D1000F0BDE868FCF718FBC0B2864205D8F01940
:107D20000090152803D90D24F0E70724EEE7E86852
:107D30003A4680190399FCF74DFA0098EA6880B238
:107D4000002111541C4840680028DFD00168002938
:107D5000DCD0002012E0002E12D1022BE3D10399D7
:107D6000E8680A7849780902511801801248406889
:107D70000028CBD001680029C8D001208847C5E77A
:107D80000B24C3E7002EFBD1062BCCD10622E868DA
:107D90000399FCF71FFAB9E7002EF1D1012BC2D1EC
:107DA00003980078002803D0012801D08024ADE793
:107DB000E9680870AAE7000078ADFF1F10B5122827
:107DC00001D3052010BD0B4B9C6B01228240104655
:107DD00020439863586B90435863D86B002906D0B2
:107DE0009043D863186B02431A63002010BD104300
:107DF000F7E7000000800040084B042807D201226A
:107E000007E0104300E090435861002070470122D2
:107E10001238824058690029F5D0F2E70038004056
:107E200070B50F4E002435196878022806D9E0B2E3
:107E300000F084F90146E0B200F09CF9232C0ADA44
:107E40006878022807D9E0B200F078F90C21614384
:107E5000891920314871641C232CE4DB70BD0000BB
:107E6000B0BBFF1F38B50D4C69460D48FDF780F8D3
:107E7000684600880B4988420BD02078002808D03B
:107E8000212000F071FA002802D1212000F094FA9C
:107E900038BD212000F0F6FA38BD000030B3FF1FD6
:107EA0000E030000FFFF000070B502211020FEF756
:107EB0006DFC1020FEF73CFC114E00240C206043AA
:107EC000801920300079002813D0E0B200F0BEF90C
:107ED000E5B2284600F032F900280ED000210C222D
:107EE0006A43921920325279824202D0284600F029
:107EF0003DF8641C232CE1DB70BD0121EFE700009D
:107F0000B0BBFF1FF3B5184E81B00F46002401200F
:107F10000199A040084222D0384201D1012500E059
:107F20000025E0B2294600F021F80C2060438019BA
:107F30004168806800290DD0002806D0002D02D0AD
:107F40000021E0B203E00121FBE7E0B20021FFF7EE
:107F500035FF04E0002802D0E0B20121F7E7641CFD
:107F6000122CD4DBFEBD0000D4BBFF1F074A0C233C
:107F700043439B185A68002A01D0002904D09A680C
:107F8000002A02D0012900D110477047D4BBFF1F3F
:107F900010B50448C16B034A40321068D060FFF747
:107FA000B1FF10BD0080004010B50E48806800078A
:107FB000000F062807D007DC02280BD0042802D1C6
:107FC000012000F00FFD10BD072806D00C28FAD1C3
:107FD0000220F6E700F02EFD10BD02484030C06BD5
:107FE00010BD00000040004003E00B780370401C0F
:107FF000491C521EF9D27047C306DB0E01229A407B
:10800000064B40098000C0180029C16801D0114307
:1080100000E09143C160002070470000003800403C
:1080200030B50D4604460121FFF7E6FFA1080748D9
:1080300089000A189169A007C00EFF238340994365
:10804000854029439161002030BD00000038004088
:1080500010B5114C2078002801D0072010BDFF2159
:10806000C9310D48FCF75DF8012020700B49002054
:10807000086348630A490862486202211020FEF73B
:1080800085FB1020FEF754FB064A07490D2000F03F
:10809000BDF9002010BD0000B0BBFF1F00800040F4
:1080A00080F00040A97EFF1F217EFF1F30B50D46E6
:1080B0000446042803D320461F38032803D801218F
:1080C0002046FFF799FE00212046FFF795FF01208B
:1080D0000B49122C08D2A0404A68002D01D002435F
:1080E00000E082434A6008E0123CA0400A69002D8B
:1080F00001D0024300E082430A61002030BD00004D
:108100000080004070B50C460A21FCF7A7F94A0030
:108110008A1801210B46521C9340551CA9400B4361
:10812000D94383000448181883680B4021469140C6
:1081300019438160002070BD00F000400C4A0C4BD8
:108140000121403A122807D281405068084201D0EC
:10815000106809E0186907E0123881401069084288
:1081600001D0D06800E05869084000D00120704775
:1081700040800040F8B50E4605460A21FCF76EF92E
:1081800048000918EA060124D20E204690406A09E8
:1081900093000B4A9A18136A034313628C40084FEA
:1081A0002846803F0A21FCF759F98000C0198168F0
:1081B000002E01D0214300E0A14381600020F8BDE2
:1081C00080F0004030B50D4604460121FFF76EFFF8
:1081D00001220B48122C08D2A2400168002D01D0C8
:1081E000114300E09143016008E0123CA240C168E5
:1081F000002D01D0114300E09143C160002030BD4B
:108200000080004030B504460E48112C01D90520ED
:1082100030BD0C210025614345540A4829462438C5
:10822000001945702046FFF741FF0749886B4A6BEC
:108230000120A0400346104348630A6B9A430A6337
:10824000284630BDD4BBFF1F0080004070B50546F6
:1082500018480C226A43141861680126002902D1CB
:10826000A168002906D0134924394919122D03D3D6
:10827000032302E0122070BD04234B7001218154BE
:1082800000212846FFF712FF6068002810D0A06880
:1082900000280CD02846FFF751FF002801D001210B
:1082A00000E000212846FFF789FD002070BD002670
:1082B0003146F7E7D4BBFF1FF8B516460D46044616
:1082C000084FFFF79FFF0C206043C3199E602046B4
:1082D0005D60FFF7BBFF050002D02046FFF792FF6D
:1082E0002846F8BDD4BBFF1F0449420903D0002033
:1082F0004860062070474860002070477CAFFF1F31
:1083000010B5002311221521024802F04DF900207A
:1083100010BD00001CF0004010B504481122436855
:108320001521034802F040F9002010BD7CAFFF1F6B
:108330001CF0004010B578210948FBF7F2FE09480F
:108340000078012805D0022806D0032806D004288A
:1083500004D1FCF79DF901E0FCF7A0F9002010BD65
:1083600038BBFF1F7CAFFF1F10B5114900240978EF
:10837000012919D0042917D072B600210D4B0C2207
:108380004A439A5C002A0CD0824207D10C20414318
:10839000C8184078012804D1012402E0491C0A29A8
:1083A000EDDB62B6002C01D0012010BD002010BD15
:1083B0007CAFFF1F38BBFF1F10B512490446097878
:1083C0001220012914D0042912D072B600210E4BBC
:1083D0000C224A439A5C002A11D0A2420CD10C22F2
:1083E00051430120C9184870FCF752F9002006E0FB
:1083F000FCF74EF9002010BD491C0A29E8DB62B6E3
:1084000010BD00007CAFFF1F38BBFF1F70B50024FC
:108410000E4E23460C255D43755D854201D1072034
:1084200070BD002D0BD05B1C0A2BF3DB002C0AD097
:10843000002363702070A2601846616070BD0C2438
:1084400063439C19F2E7032070BD000038BBFF1F97
:1084500070B5FFF761FF0A4D002420460C21484308
:10846000295C002909D040194068002800D08047C5
:10847000641C0A2CF1DB002070BD122070BD0000CE
:1084800038BBFF1F70B515490022097801290FD0AC
:1084900004290DD072B60021114D0E460C234B431A
:1084A000EC5C002C0FD0844205D15B195E7007E0B4
:1084B000FCF7EEF80CE05B195B78002B00D0521C47
:1084C000491C0A29EADB002A04D0FCF7E1F862B66D
:1084D000002070BDFCF7E2F8F9E700007CAFFF1F59
:1084E00038BBFF1F70B50A4D002420460C214843BD
:1084F000295C002909D040198068002800D08047F5
:10850000641C0A2CF1DB002070BD122070BD00003D
:1085100038BBFF1F10B516490A2008701549012005
:10852000087015490020087000F030F81348042145
:10853000C16113498160C16001611249416101213A
:108540000A20FFF7DFFD0D480D230F221221143002
:1085500002F02AF800210420FEF7F6F8012102209B
:10856000FEF7F2F8084A00212020FFF74FFF10BD68
:10857000E3AFFF1FE4AFFF1FE5AFFF1F00F00040B8
:10858000B66DDB36B6EDC3B059A5FF1F70B5154803
:108590000022C0680424866B102513481349330059
:1085A000FBF748FE070808050C0E130805000560D8
:1085B0000C600DE020220260052004E0302305E07D
:1085C000402202600620086002E0602303600A6027
:1085D000FCF76AF8FCF76EF801F07AFE01F056FD40
:1085E00070BD000088AFFF1F2010FF1F2410FF1F69
:1085F000F8B51F4E1E4F08361E4C1125012820D0FD
:1086000000281DD100211020FFF77CFD0021112042
:10861000FFF778FD032308220921304601F0C4FF4B
:10862000062200231146304601F0BEFF16231B220E
:108630001F21384601F0B8FF2068C16AA943C16212
:10864000F8BD05231B221F21384601F0ADFF0A4B60
:1086500007221021304601F0A7FF06220123114610
:10866000304601F0A1FF2068C16A2943E7E7000016
:1086700014F0004094AFFF1FFB030000F8B5FF218A
:108680002D312B4E2B4C00281AD001232A4A9B0453
:10869000022817D08025012819D016681E431660BD
:1086A000536806460B360127B7403B435360536877
:1086B0002B43536003281AD0042833D01F4A17E0F5
:1086C000266016E015681D4315601D4A10E0176806
:1086D0001F431760536801277F05BB4353605368EE
:1086E0003F123B43536053682B435360E8E7154AFE
:1086F0002260491E0904090CFBD103460E480022E2
:108700000321001F01F050FF01208007C1690E4DB9
:10871000890709D580690005010E491C2068FBF70F
:108720009DFE02E0094AE3E720682860F8BD0000EA
:108730000048E8011010FF1F40F0004000D8B805C5
:108740000024F400006CDC021410FF1F0090D00322
:108750001FB5124C2078002802D0112004B010BDA3
:1087600020210E48FBF7DDFC6846407A002803D143
:108770006846C07A002801D00520EFE768460FC898
:1087800010340FC40120203C207001F0CDFF044ABA
:1087900000210820FFF73AFE0020DFE778BDFF1F29
:1087A00029A7FF1F10B5054A927E002A02D001F0CA
:1087B00041FF10BD01F00AFF10BD000078BDFF1F92
:1087C00010B50D4B1C781A1D002C05D09B7E002B7C
:1087D00004D01378002B03D0072010BD052010BD56
:1087E00072B69060D180002050809080012010707F
:1087F00062B6002010BD000078BDFF1F0020401CA5
:108800001028FCDBFEE70000F8B55249504A534BF4
:108810005148CA60D861002003468400401C1351AF
:10882000FF28FADDC8684E4A04468034A26006225A
:10883000C2620A2202654B4A157885634A4DC561BA
:1088400015781426022D03D01578032D03D003E0EC
:108850001025056200E00662444D4561444D856186
:108860003C25E5603625C563342747640825056443
:108870003927676032272760AF24E400046014784A
:10888000022C03D01278032A02D003E0466001E0F4
:108890000B224260C824FF22C4602D328260A400F3
:1088A0000461344C84647D26F6004662324CC46414
:1088B000324E86620226466682660926C666304EBB
:1088C000066745678267B210C2674C618B70CB80C8
:1088D000CB700B812C482B491F4A81602B49803A71
:1088E000294B11612A49803399622A49C1622A4978
:1088F000016325482949C03841632949016022495B
:10890000284A8039CA62284A0A60284AC2601E4A38
:10891000274C403A9463274C1463274C5463274CEC
:108920004C61274C8C61274C0C62274CDC61274C36
:108930001C62274BD363274ACA61274981622749B2
:10894000C16227498163FEF7A5F9FEF7B3F9F8BDC7
:10895000000CFF1F88AFFF1F000CFF1F0010FF1F40
:10896000C0C1FF1FE6AFFF1F7E04000060E31600DA
:10897000DC05000050C30000540B00006A18000022
:10898000204E0000D599FF1F0009FF1F795CFF1FD3
:108990008DA0FF1F315BFF1FE159FF1F658EFF1F79
:1089A0006962FF1F5591FF1FD18AFF1FBD64FF1F22
:1089B000EDA7FF1F759DFF1F396FFF1FAD9AFF1FAA
:1089C0000165FF1FCD95FF1F95A9FF1F496CFF1F74
:1089D000A56DFF1FE990FF1F2197FF1FDD93FF1F6C
:1089E0003D8CFF1F70B5114C88B0217E104B03AD3C
:1089F00000290BD00E4980314968CAB2002102E03B
:108A00001E786E54491C9142FADB04E0197D012264
:108A100019786B461973E169002905D06B46187007
:108A200001951A726846884708B070BD78BDFF1F6F
:108A3000004000403EB51B4A1178101D00292FD080
:108A4000117E00292CD0917E002929D0017802299D
:108A500026D1818844888368091B89B2102900D9EE
:108A6000102100290BD0104C0A46491E89B2002A59
:108A700016D04288551C45809A5C2270F4E701218B
:108A80000170002141808180D169002905D007480B
:108A90006C460DC80DC4684688470820FFF7F2FCF5
:108AA0003EBD000078BDFF1F00400040ACABFF1F83
:108AB00010B519242402428E01E0491E4184418CE4
:108AC0004B1C5343A34201DD0029F6D110BD000029
:108AD000F0B585B054480290FBF7F2FD002856D05F
:108AE00000200190FBF7F2FD302148434F49451823
:108AF0004F482818FF35FF3502350090A88A060A2E
:108B00008707BF0F44D04848044680306034039044
:108B1000032F14D0002E02D0207C002838D04548E6
:108B2000816D491C81650398807B002800D004205A
:108B3000301A80B2FBF7D0FD0190002831D00398A5
:108B4000807B002809D0361FF6B232463946009B9A
:108B50000298FBF7C7FD002828D0032F2ED03548F8
:108B60003246816B491C816300990198FFF73CFAFA
:108B70001120205600902C483B46C078324601997F
:108B8000FBF7B6FD00202861A882FBF7B7FD3EE0A9
:108B90003D210298FBF7B8FD2648C16B491CC16313
:108BA0003FE02448016E491C01663AE00198FBF75A
:108BB000B1FD3D210298FBF7A7FD32E01D4E706B21
:108BC000401C7063FBF79AFD1B48007808280DD005
:108BD00000980078032813D0062811D002280FD05F
:108BE0000D280DD0207C002805D009E000990298BE
:108BF000FBF796FD0BE00298E030007B002809D0DF
:108C000000990298FBF792FD00202861A8820120BC
:108C100005B0F0BD3D210298FBF776FDF06B401CDE
:108C2000F0630020F4E700005C2AFF1FC42BFF1F45
:108C3000160200000C31FF1FE511FF1FF8B50446B6
:108C40000A78FF302646274625460130E036603751
:108C50008035491C1300FBF7EDFA0D084BF865F55C
:108C6000F5AE60BE60B1BBDBF50008782870204629
:108C700002228230491CFBF75FFD0146204602229A
:108C80008430FBF759FD0146204602228630FBF76F
:108C900053FD0146204602228830FBF74DFD29781E
:108CA000022249002970698849006980A988490021
:108CB000A980298909012981014620467E30FBF7D8
:108CC0003BFD7E20005BE188401A81B26148814211
:108CD00001D3282122E0E888A988401C49004843A4
:108CE0002989884201D33B2118E00120387712E01E
:108CF00005225948FBF720FD0146204602228C3010
:108D0000FBF71AFDA889E188401A81B251488142D7
:108D1000DFD20120A8720020E083F8BD2046FBF7D7
:108D2000F3FCF8BD307D002809D14C4A25181318F2
:108D3000E035401C5B78C0B26B750828F6D3707DB7
:108D4000C00734D00020B871387401203074204638
:108D50000822A830FBF7F0FC014620460222B03082
:108D6000FBF7EAFC01462046A03008220646FBF746
:108D7000E3FC054608213046FBF7E4FC2046294683
:108D8000943004220546FBF7D7FC04212846FBF764
:108D9000D9FC20469830FBF7DBFC20469030FBF7EF
:108DA000DDFC0C212E48FBF7DFFC04212CE01A200F
:108DB00070730D2128E00120B073F8BD0020B87158
:108DC0003874DF2108550121317330700B211BE00D
:108DD0000120F073F8BD214A002013182518E03552
:108DE000401C5B78C0B26B750828F6D300201518BC
:108DF0000B786D78491C2B402518E035401CC0B21B
:108E00006B750828F3D309212046FBF7B3FCF8BDA6
:108E1000737F012B16D00A780270E01D0222FB300E
:108E2000491CFBF789FC0146E01D0222FD30FBF7DF
:108E300083FC01207077F07F0028E8D10C21E3E764
:108E400000E002E042720721DEE7097801720122A8
:108E5000C27163E7FF7F0000F411FF1F802BFF1F2B
:108E60000032FF1FF0B504468BB0C0300A90204698
:108E7000F53002900B300790274625468038E037C2
:108E80006035264640360990A5E0E87C801E030048
:108E9000FBF7D0F90C07A11B3265F3BCDCA18BF406
:108EA000A7A1A87C012803D0204600F057FB12E0C0
:108EB0008C488078002801D01621D8E0708F401EA1
:108EC0000004000C70876FD009E1A87C012804D051
:108ED000204600F009FAA87401E18248C078002811
:108EE000ECD02046FBF74CFC22462146E078B0321D
:108EF000A831FBF74BFC6EE0A87C012812D00A9841
:108F0000C07F012822D03878002868D02246214628
:108F10002046BF329831CF30FBF73EFC0A99012042
:108F2000C87758E06F48C078002807D00999012019
:108F3000887309980021416609988166B87B0128E9
:108F4000BCD106212046FBF72DFC44E02046FBF770
:108F50002FFC0128B8D10020B8730120BBE7A87C02
:108F6000012803D02046FBF729FCB4E75D48C07810
:108F70000028A3D0608CE0832046FBF701FC012091
:108F8000A8712874387B0128E07809D001220021DB
:108F9000FBF71AFC002038733874F873B8731AE0C2
:108FA0000021FBF717FCF5E760E0A87C012805D05D
:108FB0002046FBF715FC012807D090E0F87B01283C
:108FC000BED12046FBF7DCFB05E00020F8730999D1
:108FD00088730120A874E87D002800D055E70BB005
:108FE000F0BDA87C012803D0204600F09BFA72E770
:108FF0003C48C178002905D0099A002191730121CC
:10900000A971297480780028DBD157E7A87C012852
:1090100006D02046FBF7EAFBA874002038755EE016
:10902000387D012806D0708F401E0004000C708728
:1090300006D054E0E1780020029AFBF7DDFBC0E7A0
:10904000E1782220029AFBF7D7FB0FE0A87C0128E9
:1090500003D0204600F08CF93DE72248C078002874
:10906000D3D001203875608CE083AAE72221204606
:10907000FBF74AFB0120B2E700E02BE0A87C0128C7
:1090800005D00120F8772046FBF7BCFB23E7787F6B
:10909000012806D0708F401E0004000C70870ED08F
:1090A0001DE0B87F01288CD1079880880090079830
:1090B000E178438802780020FBF7AAFB81E7079854
:1090C000808800900798E178438802782220FBF797
:1090D0009FFBCBE7204600F0F5FA0128AFD0002037
:1090E0007DE700008031FF1F10B5FBF793F9FBF718
:1090F00097F9164CA07B0300FBF79CF80507040DBD
:109100000A041800FBF78AFB07E0FBF78DFB04E07D
:10911000FBF790FB01E0FBF793FB0D4988780028F3
:1091200011D0627BD30703D0252206E0122010BDA8
:10913000920701D5262200E02722237D934202D107
:10914000C988FBF7ADF8002010BD0000442AFF1FBE
:1091500088AFFF1FF8B5574C574EA17BF068012927
:109160003BD0856A554F2A220021B81DFBF738F8FD
:10917000B888A179000900014022401C9043890170
:1091800001434F48802200789143C00108433F21AA
:1091900009028843032189024018B8800622E11D94
:1091A000B81DFBF717F8464938460622491C0C3013
:1091B000FBF710F8207D2538032803D30020FBF7A8
:1091C00045FB2075207D0746FBF740FB2075A17B02
:1091D000012904D0B84219D916E0456AC2E73949D5
:1091E000F0680A68C06D52198018086036498842D4
:1091F0000AD3364800210170FBF72EFB34480221C8
:109200000078FBF74DF8F8BD28460EE0607BC107FB
:109210008207C90FD20F89184007C00F081861884C
:109220002C4A401E51436843081AFBF70BF92748A4
:10923000022101702020FBF7BDF82748FBF750F909
:109240002648FBF753F93846FBF756F93846FBF743
:1092500059F9FF20FBF706FBF068416CCAB2016CBC
:10926000808FC9B2C0B2FBF7C9F8FBF7D3F8FBF7A0
:10927000D7F8FBF7FDFA0320FBF75CF90F4881886C
:10928000001D090A891CFBF7D1F8FBF7BDF814494A
:1092900001200860A17B1348012906D00169491CFF
:1092A00001611020FBF786F8F8BDC168491CC16058
:1092B000F7E70000442AFF1F88AFFF1FC42BFF1FE2
:1092C0000C12FF1FF011FF1F00881300E511FF1F94
:1092D000E411FF1F7102000055555500D6BE898E5E
:1092E0001812FF1F0C31FF1FF8B504461C481D4D16
:1092F000861C6865FBF7C2FA002801D00020F8BD83
:1093000004203070164821469831C01C08220F46B0
:10931000FBF7BAFA2146903104220E46FBF7B4FA65
:1093200008213846FBF70EFA04213046FBF70AFA0B
:10933000002008210A1A12198032D37B2218A03289
:10934000401CC0B2D3750828F4D307490120087027
:10935000696D064808804034208F60870120F8BD81
:109360008C31FF1F88AFFF1F1412FF1F030D000079
:10937000F8B50446164E1548164F706516493878EC
:109380000978084301D00020F8BD10480925801C49
:1093900005702146401C0822F531FBF775FA8E2036
:1093A000005D002807D0736D2A46032120469B1CD0
:1093B000FBF770FA0D250020E083012038702802A9
:1093C000716DC01C08800120F8BD00008C31FF1FAA
:1093D00088AFFF1F1412FF1F1312FF1FF8B54E4C6A
:1093E000FBF74CFA25462E4660368035002814D10E
:1093F000A06E002811D14948006900280DD14848C5
:109400000078002809D12078002806D1207F002884
:1094100003D0B17C002902D00BE0002008E0317FAE
:10942000002906D1A97A002903D1012801D1608C35
:10943000E083E088E18B4018401C20812046FBF748
:109440002FFA012804D10020E083E088401C20810D
:109450000096307F304E2036012845D127464037D0
:10946000FA8F2189E088FBF721FA00283CD0F88F99
:10947000208129462046FBF71FFAE88860840020F7
:109480002077E083012020712089E1894018A081A4
:10949000E188F88FFBF716FA618E6A8848438718CF
:1094A000A888884207D12989E28E914203D1E988B0
:1094B000A28E914206D02989EA880B094108E078FA
:1094C000FBF706FA2878B073A8886086E888A0863B
:1094D0002889E0862046FFF7EBFA2046FBF7FEF9E5
:1094E00000990020087700E0678EA069B84203D198
:1094F0003078E18B884206D02346327BE18B1433EF
:109500003846FBF7F1F9A761A07F30702046FBF7E2
:10951000F1F90020F8BD00005C2AFF1F442FFF1F57
:109520000431FF1F0A4A094951658A1C0D23137033
:10953000ED231B5C53704030028F4287054A0120A7
:109540001070054808800120704700008C31FF1F13
:1095500088AFFF1F1412FF1F03020000F8B5044676
:10956000174E1648174F7065174938780978084321
:1095700001D00020F8BD114B02229B1CFF211A7064
:109580000931581C095D254601708035A87B0028EB
:1095900004D003212046FBF77DF9062200207C2120
:1095A0000855A872E083E089403460870120387054
:1095B0001002716DC01C08800120F8BD8C31FF1FA6
:1095C00088AFFF1F1412FF1F1312FF1FF8B5344C92
:1095D000207D2538032803D30020FBF737F92075B9
:1095E000257D2846FBF732F92E4E2075A8421AD861
:1095F000FBF786F98305607B9B0DC1078207C90FC6
:10960000D20F40078918C00F0F187F1EFEF7C2FA4D
:10961000C10A6088244A5043F26812687A43801A6B
:109620000818C01801E0F0680068FAF70BFF1F483F
:10963000012404701F20FAF7BDFE1D48FAF750FF01
:109640001C48FAF753FF2846FAF756FF2846FAF760
:1096500059FFFF20FBF706F9F0683C22006CC1B20D
:109660005A20FAF7CBFEFAF7D5FEFAF7D9FEFBF748
:10967000FFF80320FAF75EFF0F488188001D090AF2
:10968000891CFAF7D3FEFAF7BFFE0C4804600C48B9
:109690000168491C01601020FAF78CFEF8BD00003B
:1096A000442AFF1F88AFFF1F71020000E511FF1F52
:1096B00055555500D6BE898EC42BFF1F1812FF1FAB
:1096C0000C31FF1F70B5134C1149134D6165134ADE
