:020000041FFFDC
:10080000000000005D84FF1F4896FF1F5096FF1FE9
:1008100004000120000000000000000000000000B3
:1008200000000000000000000000000000000000C8
:1008300000000000000000000000000000000000B8
:1008400000000000000000000000000000000000A8
:100850000000000000000000000000000000000098
:100860000000000000000000000000000000000088
:100870000000000000000000000000000000000078
:100880000000000000000000000000000000000068
:100890000000000000000000000000000000000058
:1008A0000000000000000000000000000000000048
:1008B0000000000000000000000000000000000038
:1008C0000000000000000000000000000000000028
:1008D0000000000000000000000000000000000018
:1008E0000000000000000000000000000000000008
:1008F00000000000000000000000000000000000F8
:1009000000000000000000000000000000000000E7
:1009100000000000000000000000000000000000D7
:1009200000000000000000000000000000000000C7
:1009300000000000000000000000000000000000B7
:1009400000000000000000000000000000000000A7
:100950000000000000000000000000000000000097
:100960000000000000000000000000000000000087
:100970000000000000000000000000000000000077
:100980000000000000000000000000000000000067
:100990005969FF1F7D6AFF1F358DFF1F0000000092
:1009A0000000000000000000000000000000000047
:1009B0000000000000000000000000000000000037
:1009C0000000000000000000000000000000000027
:1009D0000000000000000000000000000000000017
:1009E0000000000000000000000000000000000007
:1009F00000000000000000000000000000000000F7
:100A000000000000000000000000000000000000E6
:100A100000000000000000000000000000000000D6
:100A200000000000000000000000000000000000C6
:100A300000000000000000000000000000000000B6
:100A400000000000000000000000000000000000A6
:100A50000000000000000000000000000000000096
:100A60000000000000000000000000000000000086
:100A70000000000000000000000000000000000076
:100A80000000000000000000000000000000000066
:100A90000000000000000000000000000000000056
:100AA0000000000000000000000000000000000046
:100AB0000000000000000000000000000000000036
:100AC0000000000000000000000000000000000026
:100AD0000000000000000000000000000000000016
:100AE0000000000000000000000000000000000006
:100AF00000000000000000000000000000000000F6
:100B000000000000000000000000000000000000E5
:100B100000000000000000000000000000000000D5
:100B200000000000000000000000000000000000C5
:100B300000000000000000000000000000000000B5
:100B400000000000000000000000000000000000A5
:100B50000000000000000000000000000000000095
:100B60000000000000000000000000000000000085
:100B7000DD6EFF1F0000000000000000000000000C
:100B800000000000000000003158FF1F00000000BE
:100B90000000000000000000000000000000000055
:100BA000000000006148FF1F000000003963FF1FC4
:100BB00000000000000000002563FF1F2F63FF1FDF
:100BC0000963FF1F0000000000000000000000009B
:100BD0000000000000000000000000000000000015
:100BE0000000000000000000000000000000000005
:100BF000000000004962FF1F00000000000000002C
:0C0C000001FF01FF01FF01FF9100000057
:020000041FFFDC
:1040000038080120D540FF1FDD40FF1FDF40FF1FA4
:1040100000000000000000000000000000000000A0
:10402000000000000000000000000000E140FF1F51
:104030000000000000000000E340FF1FE540FF1FFC
:104040000000000000000000000000000000000070
:104050000000000000000000000000000000000060
:104060000000000000000000000000000000000050
:104070000000000000000000000000000000000040
:104080000000000000000000000000000000000030
:104090000000000000000000000000000000000020
:1040A0000000000000000000000000000000000010
:1040B0000000000000000000000000000000000000
:1040C0000348854600F042F800480047FD81FF1F85
:1040D000380801200448804704480047FEE7FEE70F
:1040E000FEE7FEE7FEE7FEE72158FF1FC140FF1F86
:1040F00003460B439B0703D009E008C9121F08C001
:10410000042AFAD203E00B780370401C491C521EAB
:10411000F9D27047D2B201E00270401C491EFBD2B6
:1041200070470022F6E710B513460A4604461946C2
:10413000FFF7F0FF204610BD0321001D401E03784D
:1041400012021A43491EF9D510467047064C012544
:10415000064E05E0E36807CC2B430C3C984710342F
:10416000B442F7D3FFF7B0FFD896FF1F1897FF1F91
:1041700030B58C180278401C13071B0F01D103784F
:10418000401C120906D10278401C03E005780D702E
:10419000401C491C5B1EF9D101E00B70491C521EEA
:1041A000FBD1A142E6D3002030BD000003B401489A
:1041B000019001BD95F9000003B40148019001BDD3
:1041C0007574000003B40148019001BDD5410000A1
:1041D00003B40148019001BD2141000003B401482E
:1041E000019001BDE9FB000003B40148019001BD4D
:1041F00055DD000003B40148019001BD89DF0000D6
:1042000003B40148019001BD75E0000003B401480A
:10421000019001BDE1DE000003B40148019001BD41
:1042200035E1000003B40148019001BD29E400001C
:1042300003B40148019001BD69E5000003B40148E1
:10424000019001BD91E0000003B40148019001BD5F
:10425000E1E2000003B40148019001BDF1E2000079
:1042600003B40148019001BDCDE6000003B401484C
:10427000019001BD0FF4000003B40148019001BD9D
:1042800009E9000003B40148019001BDE1E7000025
:1042900003B40148019001BDB5DF000003B401483B
:1042A000019001BD6102000003B40148019001BD0D
:1042B0006DDF000003B40148019001BD85E00000FE
:1042C00003B40148019001BDD1E5000003B40148E9
:1042D000019001BDCDDF000003B40148019001BD94
:1042E0001DE0000003B40148019001BDCDE00000D5
:1042F00003B40148019001BD31E2000003B401485C
:10430000019001BD49E7000003B40148019001BDDF
:104310001DDB000003B40148019001BD59F9000004
:1043200003B40148019001BD4D66000003B401488B
:10433000019001BD2DCF000003B40148019001BDE3
:10434000A90B010003B40148019001BD5D0B010000
:1043500003B40148019001BD690B010003B4014899
:10436000019001BD250E010003B40148019001BD7B
:10437000F5E3000003B40148019001BD21E3000012
:1043800003B40148019001BD15E3000003B40148E6
:10439000019001BDC1E0000003B40148019001BDDE
:1043A0006DDD000003B40148019001BDF1DE0000A5
:1043B00003B40148019001BD8574000003B40148B5
:1043C000019001BD0959000003B40148019001BDED
:1043D00015F2000003B40148019001BDFDF6000094
:1043E00003B40148019001BDC5F9000003B40148C0
:1043F000019001BDDD74000003B40148019001BDCE
:10440000890D010003B40148019001BDD57600007B
:1044100003B40148019001BD8D02000003B40148BE
:10442000019001BD3975000003B40148019001BD40
:104430008D75000003B40148019001BD8572000034
:1044400003B40148019001BDE52C010003B401480B
:10445000019001BD7D9E000003B40148019001BDA3
:10446000F59E000003B40148019001BDF94C000025
:1044700003B40148019001BDA53D000003B401480B
:10448000019001BD5D52000003B40148019001BDDF
:10449000552B010003B40148019001BDB1C20000D9
:1044A00003B40148019001BDF1F0000003B40148DC
:1044B000019001BDC5C5000003B40148019001BDD4
:1044C0000DC7000003B40148019001BD0BC50000F9
:1044D00003B40148019001BD3942000003B4014812
:1044E000019001BDF140000003B40148019001BDFD
:1044F000C140000003B40148019001BD5D410000CE
:1045000003B40148019001BD95C3000003B4014804
:10451000019001BD1DC3000003B40148019001BD1D
:104520006D45000003B40148019001BD753C0000D9
:1045300003B40148019001BD7DCE000003B40148E1
:10454000019001BD71D7000003B40148019001BD85
:1045500099D7000003B40148019001BDB9430000A0
:1045600003B40148019001BD3D44000003B401487B
:10457000019001BDE1D5000003B40148019001BDE7
:104580007DD2000003B40148019001BD7D4E0000C2
:1045900003B40148019001BD95DA000003B401485D
:1045A000019001BD4D4F000003B40148019001BDD1
:1045B000E9CF000003B40148019001BD3DD80000DF
:1045C00003B40148019001BD89D4000003B401483F
:1045D000019001BD5DD6000003B40148019001BD0A
:1045E00041F4000003B40148019001BD3DC4000046
:1045F00003B40148019001BDB551000003B4014866
:10460000019001BD3D0D010003B40148019001BDC1
:1046100055E5000003B40148019001BDBD9E0000B6
:1046200003B40148019001BDF5C4000003B4014882
:10463000019001BD3D3F000003B40148019001BD60
:1046400025C2000003B40148019001BD17C4000059
:1046500003B40148019001BDF7C2000003B4014852
:10466000019001BD01C4000003B40148019001BDE7
:10467000D938000003B40148019001BDDBC200003D
:1046800003B40148019001BDE1C1000003B4014839
:10469000019001BD41CF000003B40148019001BD6C
:1046A000199F000003B40148019001BDC9C5000075
:1046B00003B40148019001BD8DC9000003B4014855
:1046C000019001BD39CD000003B40148019001BD46
:1046D00035D3000003B40148019001BD69590000C1
:1046E00003B40148019001BD1500010003B4014865
:1046F000019001BD59C5000003B40148019001BDFE
:1047000099C4000003B40148019001BD89F2000082
:1047100003B40148019001BDD54A000003B401482B
:10472000019001BD65B7000003B40148019001BDCF
:10473000D5F6000003B40148019001BDDDFB000087
:1047400003B40148019001BD999E000003B40148E3
:10475000019001BDED75000003B40148019001BD59
:104760003903000003B40148019001BD01E40000D9
:1047700003B40148019001BD7DE5000003B4014888
:10478000019001BDD100010003B40148019001BDB9
:10479000D1EB000003B40148019001BDF50D01000B
:1047A00003B40148019001BD2D68000003B4014825
:1047B000019001BDB90D010003B40148019001BD94
:1047C000FDE2000003B40148019001BDE9E30000EF
:1047D00003B40148019001BD3DE4000010B504465A
:1047E00006480470064803F019FF7D22D20001211B
:1047F00002480078FFF7DAFC10BD0000000001203D
:104800008C96FF1F70B505460C46E007C00F0028C8
:1048100020D0114800780C2813D11048007801F0FE
:104820002FF900200C4908700C480078072805DA99
:104830000A480078401C0949087002E00020074936
:10484000087005480078401C034908702046012183
:10485000484070BD0020FCE702000120010001205B
:1048600010B572B624480069C007C00F00280AD0EE
:104870002148FFF7A1FC21480068002803D001204F
:104880001E49096888471C48406AC007C00F0028B5
:104890000BD019481430FFF78FFC18480068002827
:1048A00003D002201549096888471348806BC00768
:1048B000C00F00280BD010482830FFF77DFC0F48B0
:1048C0000068002803D003200C49096888470A487B
:1048D0004030C068C007C00F00280BD006483C30ED
:1048E000FFF76AFC05480068002803D0042003494C
:1048F0000968884762B610BD001000401C00012006
:10490000FFB504464E4F81B00020386020461D465A
:10491000BF30FFF757FC4B4826460078B23680344C
:104920000828A06E32462CD00121FFF751FC444FDD
:104930003078F863761C3046FFF7FEFB00BA000AB9
:10494000F17800020843B863361D3046FFF7F4FBE8
:1049500000BA000AF178000208437863361D304639
:10496000FFF7EAFB00BA000AF17800020843386357
:104970000398010202980143F960039F00263F1D3E
:104980000EE00021D1E7A819401CFFF7D5FB01027A
:10499000A85D01432C4830180160361DF6B23F1F58
:1049A000042FF0DA032F04D0022F08D0012F0FD0EC
:1049B00014E0A819FFF7C0FB0102090A09E0A919D0
:1049C00048780978000208431F497118086003E01D
:1049D000A95D1D4830180160361DF6B200211A4A43
:1049E00002E0B0180160361DFF2EFADD1448174BA7
:1049F00043600F230361012303604369002BFCD054
:104A0000436901600020039B11E081180968295463
:104A1000401CC0B20E0A2E54401C0E0CC0B22E54C4
:104A2000401CC0B2090E2954401CC0B21B1F002BF1
:104A3000EBDCA06E401CA066012005B0F0BD0000BC
:104A400000000440E511FF1F00010440080F0000B2
:104A5000FFB504464D4F81B00020386020461D460A
:104A6000BF30FFF7AFFB4A4826460078B2368034A5
:104A70000828606E32462BD00021FFF7A9FB434F78
:104A80003078F863761C3046FFF756FB00BA000A10
:104A9000F17800020843B863361D3046FFF74CFB3F
:104AA00000BA000AF178000208437863361D3046E8
:104AB000FFF742FB00BA000AF178000208433863AE
:104AC0000398029900020843F8600026039F0EE055
:104AD0000121D2E7A819401CFFF72EFBA95D0002B7
:104AE00008432C4971180860361DF6B23F1F042F89
:104AF000F0DA032F04D0022F08D0012F0FD014E0DA
:104B0000A819FFF719FB0102090A09E0A919487859
:104B10000978000208431F497118086003E0A95D85
:104B20001C4830180160361DF6B20021194A02E017
:104B3000B0180160361DFF2EFADD0F2313481B024B
:104B400043600F230361012303604369002BFCD002
:104B5000016003980023001D11E099180968E954C9
:104B60005B1CDBB20E0AEE545B1C0E0CDBB2EE5487
:104B70005B1CDBB2090EE9545B1CDBB2001F002892
:104B8000EBDC606E401C606605B0F0BD00000440C8
:104B9000E511FF1F00010440F0B589B0FFF71EFBCF
:104BA000FE4908600420FFF71FFBFFF723FB0446C4
:104BB000C00712D0FA490020086072B6FFF720FB48
:104BC000F849F94DF94E02280BD001287ED0F84F54
:104BD00005287CD004287BD0ADE2FFF717FB09B095
:104BE000F0BD08780F46012806D0032804D002281B
:104BF00002D005286DD09EE20720FFF7F5FA08AB3A
:104C000007AA06A9EB48FFF707FBEA493439898E62
:104C10000B074906CA0FE7491B0F34390C464034CD
:104C200020319446002801D0032B05D0052B6ED0EF
:104C3000387801286CD081E23878012801D0032827
:104C4000F9D1D94843695B1C4361DB4B087FDD79AF
:104C5000A842F0D1487F1D7AA842ECD1887F5D7AC6
:104C6000A842E8D1C87F9D7AA842E4D12078DD7AB5
:104C7000A842E0D160781D7BA842DCD1F568002015
:104C8000AD8D2D072DD5DB7B012B01D0032B28D13A
:104C9000C3001F1AC94BDD5D95421DD1FB188D7DE8
:104CA0005F78BD4218D1CD7D9F78BD4214D10D7E75
:104CB000DF78BD4210D14D7E1F79BD420CD18D7E73
:104CC0005F79BD4208D1CD7E9B7903E0E5E0E6E067
:104CD0002EE2E0E09D4202D0401C0828D8DB0828E4
:104CE00017D0B14D686D401C6865706C002802D00B
:104CF000804700289FD0FFF795FA01277770FFF7CC
:104D00006DFAA6490968884208D9401A09E02CE0E2
:104D1000AFE0A548016A491C01620FE2A84A511A96
:104D20000818F16876230A79181A801A4A6C096CF7
:104D3000D2B2C9B2C0B2FFF77BFAFFF77FFA984848
:104D4000076000207070FFF77FFAFFF783FAA08CEE
:104D5000010A9848891C3030FFF782FA0E20FFF7CD
:104D600043FAA869401CA861E8E13F78012F01D00F
:104D7000022FD2D1E869401CE8618F480B7FC079CF
:104D80008342CAD18C484B7F007A8342C5D18A487E
:104D90008B7F407A8342C0D18748CB7F807A834221
:104DA000BBD185482378C07A8342B6D16078824CE3
:104DB000237B9842B1D1F0680023808D000726D56F
:104DC000E07B022801D0032821D1D800C61A7B48F5
:104DD000845D944218D130188C7D4678B44213D14A
:104DE000CC7D8678B4420FD10C7EC678B4420BD10C
:104DF0004C7E0679B44207D18C7E4679B44203D109
:104E0000CC7E8079844202D05B1C082BDDDB6D48B0
:104E1000022F1AD10478644527D18A7D4478A242B2
:104E200023D1CA7D8478A2421FD10A7EC478A242CF
:104E30001BD14A7E0479A24217D18A7E4479A242CC
:104E400013D1C97E827991420FD1082B0DD0696DA3
:104E50000622491C6965614601705649401C891C3F
:104E6000FFF704FAFFF708FA68E1686A401C686215
:104E700064E15149487BC20701D0252004E0800746
:104E800001D5262000E02720097D8142ECD932207F
:104E9000FFF7F8F952E107204EE106204CE10878CF
:104EA000072879D10B20FFF79FF94149FF220978A4
:104EB00025325143444A00208B18587050544348BF
:104EC0000068002805D0FFF7E3F940490978C84099
:104ED00005E0FFF7DDF93E490968FFF7DFF907460E
:104EE000E00535D539480068002805D0FFF7DCF922
:104EF00036490978C84005E0FFF7D6F93449096812
:104F0000FFF7CCF92A4B00901878FF212531484350
:104F10002D4940180279002A01D000220271234A4B
:104F20007130121D911D03F0EDFEF1680098C96803
:104F3000381A411827480160600526D51C49FF2210
:104F4000097825325143204A0120891848701CE015
:104F50001748FF22007825321B4B0121504319547A
:104F6000296DFF3F491C2965F1680F3F0969C01889
:104F7000CA19184920300A60407E410016480818B6
:104F8000FF300130018D491C01852046009903F056
:104F9000A1F8FFF78FF921E0CDE000001C12FF1F00
:104FA0001812FF1FE511FF1F0C31FF1F2400012005
:104FB0001512FF1FF82BFF1F442AFF1F892BFF1F0D
:104FC00040420F000C12FF1F5C2AFF1F2410FF1F1E
:104FD0002010FF1F2012FF1F100401206149074607
:104FE00008700020087248728872C8725E480442D5
:104FF00002D0E86C401CE8645C48FF22007825324F
:1050000050435B4A57498318D81DF930827C069279
:105010008A1DFF33C07C491C1333FFF751F9024648
:105020005248FF2100782531484351494018C11D9D
:10503000F931CA740279002A0CD10223069A897CBC
:105040001A4019408A4205D046494A78002A01D1BF
:1050500001224A70474949688E220904090E0391CA
:10506000125C002A02D0AA6ED219AA662030407EB5
:10507000414D40004019C030C18BC919C183FFF7B1
:1050800025F901463948FF22007825325043384A35
:1050900080182030407E400040198030828A891874
:1050A000818207AA05A904A8FFF716F92F48FF2156
:1050B0000078253148432E4940182030407E69460B
:1050C00040002A5A097D511829524019403069463A
:1050D0004289097C51184181600705D503988742B0
:1050E00002D23846FFF7FEF8FFF702F91D4800210B
:1050F000224B81701A78012A0CD1002F0AD0204A45
:105100001469002C03D0127DD243920702D00122F1
:10511000827019708079002801D0FFF7EFF8FFF74F
:10512000F3F8F078002809D03189FFF7F3F805E0AB
:105130000878082809D00520FFF756F8FFF766F829
:1051400062B60320FFF750F849E53878FF21253192
:10515000484307490B4A4018911D713003F0D2FDB6
:105160000920E9E78031FF1F020800001512FF1F28
:105170005C2AFF1F00100340100401201312FF1FC0
:10518000442FFF1F28000120F8B58E4F079CBE1D3D
:105190009C460D46002A1FD0012A05D0032A0ED0B6
:1051A000022A0CD0042A59D1002C57D00699002984
:1051B00001D0012952D1032A01D0022A0AD1014685
:1051C000814BA039994249D2A02D47D301218903AF
:1051D0008D4243D8002A0BD17B4B014620398033C6
:1051E00099423BD2202D39D3012189038D4235D8F4
:1051F000854233D36146002901D001292ED1099976
:10520000002905D0012903D0022901D0032925D185
:105210000899490722D06D4B9988012920D09A73AB
:1052200008994907490F59731CD06849099BCB73EA
:105230006346002B1BD001238B713378CB717378BD
:105240000B72B3784B72F3788B723379CB727379BC
:105250000B73012A19D0042A28D036E01220F8BD99
:105260000C20F8BD5948072141733020F8BD0023B8
:105270008B713B78CB717B780B72BB784B72FB7870
:105280008B723B79CB727B79E2E75148069B0370C6
:105290002378437063788370A378C370E3780371D5
:1052A000237943716379837102200EE0484B069E97
:1052B0001E7026785E7066789E70A678DE70E6783E
:1052C0001E7126795E7164799C7148801300FFF726
:1052D00027F80504060A08060B00002504E001254E
:1052E00002E0022500E006253A4E8A79B0880C4695
:1052F0000009000128434023910198430143D00154
:10530000802291430843B0800622E11DB01DFEF7C4
:10531000ADFF37464037B88CA17900090001402223
:10532000001D904389010143B98430460622E11DE6
:105330006630FEF79BFFA07C032100024902411862
:10534000B2883F2000028243114389B2B180012D0F
:1053500012D18143032080020818B0801C49BB8C05
:10536000087880229343C0011843B884304606224F
:105370000C30491CFEF77AFF1748017808291AD02B
:10538000072918D0A17B0B00FEF7CAFF05040810FF
:105390000C081700012101701F200AE00221017092
:1053A000202006E004210170222002E00321017088
:1053B0002120FEF719FF0020F8BD002101701E20FA
:1053C000F7E70000F911FF1F613F0000442AFF1FAB
:1053D0000C12FF1FC42BFF1FE511FF1F10B50E4855
:1053E0000E4B0278FF20253042430021D018FF24C5
:1053F000C170133421549954012302460371603261
:10540000937113742023816119548E23195451749C
:105410000521818110BD00001512FF1F5C2AFF1FAE
:10542000FEB572B65548C068476D866D082F01D825
:10543000002F00D10427082E01D8002E00D1042609
:105440004F48504D816C504C491C81642878FF2195
:105450002531484300192030407E41004B48081850
:10546000FF304130418E491C4186FEF75FFFFEF759
:10547000EBFEFEF7EFFE2878FF21253148430019A7
:10548000806AFEF759FF2878FF212531484300192B
:10549000406AFEF757FF2878FF212531484300195D
:1054A0002030407EFEF754FF2878FF212531484305
:1054B00000192030407EFEF751FF2978FF2025306B
:1054C000414308190279002A0BD02E21095C304A89
:1054D00040695143400009182848C068C06F081847
:1054E00015E0615C0029254909D0CA684069096C4A
:1054F000136940185B0040001818D16C06E0C968B9
:105500004069CA6840005200C96C10184018FEF784
:105510002BFF1A4DE868806CFEF72CFFE868416CA1
:10552000CAB2016C808FC9B2C0B2FEF781FE0420FE
:10553000FEF726FF0720FEF729FF02A93846FEF7EF
:105540002BFF69460989C2B201250E4801910095D9
:105550000078FF21253148430019FF300130817C5C
:10556000F3B23020FEF71EFFFEF768FE0948056023
:1055700062B61420FEF738FEFEBD000024000120B4
:105580000C31FF1F1512FF1F5C2AFF1F10040120A2
:10559000710200001812FF1F002805DBC206D20EA0
:1055A00001219140014A11607047000000E100E0D4
:1055B000002805DBC206D20E01219140014A11608C
:1055C0007047000000E100E010B5002819DB1A4A1E
:1055D00003231B02D21883089B00D2588307DC0EDA
:1055E000FF23A3409A438B071B0E8407E40EA340BE
:1055F0001A43114B032424021B198408A4001A51D6
:1056000018E00E4A03071B0F083B9B089B00D2586B
:105610008307DC0EFF23A3409A438B071B0E8407EE
:10562000E40EA3401A43054B0407240F083CA408CA
:10563000A4001A5110BD000000E100E01CED00E0E4
:1056400010B5002819DB1A4A03231B02D21883085D
:105650009B00D2588307DC0EFF23A3409A438B079D
:105660001B0E8407E40EA3401A43114B03242402AB
:105670001B198408A4001A5118E00E4A03071B0FD7
:10568000083B9B089B00D2588307DC0EFF23A340F6
:105690009A438B071B0E8407E40EA3401A43054B65
:1056A0000407240F083CA408A4001A5110BD0000F0
:1056B00000E100E01CED00E010B5002819DB1A4AFB
:1056C00003231B02D21883089B00D2588307DC0EE9
:1056D000FF23A3409A438B071B0E8407E40EA340CD
:1056E0001A43114B032424021B198408A4001A51E5
:1056F00018E00E4A03071B0F083B9B089B00D2587B
:105700008307DC0EFF23A3409A438B071B0E8407FD
:10571000E40EA3401A43054B0407240F083CA408D9
:10572000A4001A5110BD000000E100E01CED00E0F3
:1057300010B5002819DB1A4A03231B02D21883086C
:105740009B00D2588307DC0EFF23A3409A438B07AC
:105750001B0E8407E40EA3401A43114B03242402BA
:105760001B198408A4001A5118E00E4A03071B0FE6
:10577000083B9B089B00D2588307DC0EFF23A34005
:105780009A438B071B0E8407E40EA3401A43054B74
:105790000407240F083CA408A4001A5110BD0000FF
:1057A00000E100E01CED00E010B5002819DB1A4A0A
:1057B00003231B02D21883089B00D2588307DC0EF8
:1057C000FF23A3409A438B071B0E8407E40EA340DC
:1057D0001A43114B032424021B198408A4001A51F4
:1057E00018E00E4A03071B0F083B9B089B00D2588A
:1057F0008307DC0EFF23A3409A438B071B0E84070D
:10580000E40EA3401A43054B0407240F083CA408E8
:10581000A4001A5110BD000000E100E01CED00E002
:10582000014802490860704740787D01200001204E
:1058300010B572B61948C068C00703D01748001FDA
:10584000FEF7BAFC154C403CA06BC00707D01348CC
:105850001838FEF7B1FC12480168491C0160606A03
:10586000C0070CD0E16A0F48C162A16941630B48CF
:105870002C38FEF7A1FC0C480168491C0160206926
:10588000C00707D02046FEF797FC2046FEF790FDA4
:10589000FEF794FD62B6002010BD000040100240EB
:1058A0002C10FF1F240001203010FF1FF8B5064602
:1058B000002700F0A9FA05460AE000F0A5FA044620
:1058C000AC4201D3601B02E00348401B00190746AD
:1058D000B742F2D3F8BD0000FFFFFF0002E008C8A6
:1058E000121F08C1002AFAD170477047002001E05A
:1058F00001C1121F002AFBD1704710B502211D20E3
:10590000FFF716FF10BD000010B50446002C06D0AE
:10591000012C08D0022C0BD0032C13D10DE00C4825
:10592000FEF746FD10E00A481430FEF741FD0BE09B
:1059300007482830FEF73CFD06E005483C30FEF7FE
:1059400037FD01E0062010BD00BF0020FBE700008E
:105950000010004010B500200A49086072B6092006
:10596000002805DBC206D20E01219140064A1160D3
:1059700000BF62B6052000F013FA052001F04EF8D2
:1059800010BD00001C00012080E100E010B50446BD
:105990000F480460052000F011FA0020FFF7B4FF63
:1059A0000120FFF7B1FF0220FFF7AEFF0320FFF752
:1059B000ABFF72B60920FFF7FBFD02210920FFF7BC
:1059C000F3FE62B6034A0449052000F09BFF10BDB8
:1059D0001C000120215CFF1F695AFF1F10B5024601
:1059E0000B46042A01DB062010BD501E8000074C28
:1059F0002158002B04D0886804242043886003E0E9
:105A000088680424A04388600020EDE77C96FF1F8F
:105A100070B504460D462E46002C06D0012C09D048
:105A2000022C0DD0032C17D110E031460D4803F0A5
:105A3000CFFA13E031460B48143003F0C9FA0DE0F9
:105A400031460848283003F0C3FA07E031460548DC
:105A50003C3003F0BDFA01E0062070BD00BF00201D
:105A6000FBE700000010004010B504480068002863
:105A700003D0112001490968884710BD1C0001208E
:105A800010B5044621463DA002F0C8FD2300FEF7F4
:105A900047FC08051C30717144546B713BA002F047
:105AA000BDFD40490020FFF7B3FF3F490120FFF74C
:105AB000AFFF3E490220FFF7ABFF3D490320FFF750
:105AC000A7FF0020FFF762FF55E03AA002F0A6FD15
:105AD00001210020FFF782FF01210846FFF77EFF2A
:105AE00001210220FFF77AFF01210320FFF776FF53
:105AF00041E037A002F092FD00210846FFF76EFF5B
:105B000000210120FFF76AFF00210220FFF766FF56
:105B100000210320FFF762FF2DE034A002F07EFD9C
:105B20000020FFF7F1FE0120FFF7EEFE0220FFF755
:105B3000EBFE0320FFF7E8FE1DE014A002F06EFD6F
:105B400018490020FFF764FF17490120FFF760FFA5
:105B500016490220FFF75CFF15490320FFF758FFA5
:105B60000020FFF713FF06E027A002F057FDFFF724
:105B7000F1FE00E000BF00BF10BD00000A746573B5
:105B8000745F636173653A25640000000A696E6999
:105B9000742074696D6572307E74696D6572340A43
:105BA0000000000040420F0080841E00C0C62D008F
:105BB00000093D000A6D61736B2074696D65723078
:105BC0007E74696D65723420696E69740A00000024
:105BD0000A756E6D61736B2074696D6572307E74C9
:105BE000696D65723420696E69740A000A636C65B8
:105BF00061722074696D6572307E74696D6572348E
:105C000020696E740A0000000A6465696E69742078
:105C100074696D6572307E74696D6572340A000056
:105C200010B5052000F0CAF80920FFF7C1FC0221D9
:105C30000920FFF7B9FD04480068002803D01020B0
:105C400001490968884710BD1C00012010B5FEF706
:105C5000BBFB0120FEF7BEFBFEF7C2FB002010BD20
:105C6000F0B500248E464A1E12E0714600230D1B3B
:105C70006D1E0AE09E0031188C46875949688F4294
:105C800002D9815161464F605B1C9D42F2D8641C71
:105C90009442EAD3F0BD000010B505231B221F215A
:105CA0000D4803F081FA0C4C0C4B083407221021EC
:105CB000204603F079FA062201231146204603F01C
:105CC00073FA05481438416A012211434162C169DF
:105CD000034A1143C16110BD14F00040FB030000F2
:105CE00004003E0010B50020054CFF212218401C86
:105CF00051704028FADB02F0BDFE207010BD00009C
:105D0000F405012010B50020054CFF212218401C8D
:105D100051700628FADB02F0CBFE207010BD0000A7
:105D2000B7000120F0B58646080CFF268446002304
:105D300088B237461C46194601228A40054615405E
:105D4000CD402C19A4B2FF2F02D1012C00D18FB26B
:105D500065462A40CA40D21893B2FF2E02D1012BC9
:105D600000D18EB2491C1029E6DB012C02D0102C88
:105D700008D009E0012B07D13001C0197146087025
:105D80000220F0BD102B01D00320F0BD0120F0BD9A
:105D900010B528210148FEF7C4F910BD9803012071
:105DA000032800DA704701218907896801228240AF
:105DB000914301229207916000BFF3E7032800DAC4
:105DC000704701218907896801228240114301221D
:105DD0009207916000BFF3E7014800687047000038
:105DE0001410FF1F01218907096801228240914395
:105DF0000122920711601146096801228240114375
:105E000001229207116070470449886A0202886A79
:105E1000120A0002000A9042F7D1704700F00040D9
:105E200010B504460120FFF741FD1149CB6A114826
:105E3000C26A934202D2C96A511A00E0002101638A
:105E4000FFF7E2FF0C490123C86201190A46083234
:105E50001B069A4203D309310902090A641A01197F
:105E60000648C162416A2922D2031143416210BD32
:105E700000100240240001200012FF1F00F000402B
:105E800070B5044626460948855DFF2D00D170BDDA
:105E90000021284600F0D8FA0021284600F068FBCF
:105EA0000021284600F09CFB00BFF0E77096FF1F22
:105EB000F8B5414A0446D068808DC00764D03F4899
:105EC000406A3F4D8104890CA94202D968420818F2
:105ED00000E0681AC82819D32B2601233601DB02FB
:105EE000B04207D2C80041028601891BC600891949
:105EF000081A09E0C80041028601891B4601891B76
:105F0000C600891B40000818C018010B2C482D4BF7
:105F1000C430814200D9196819607D26906AF60064
:105F2000B0420AD2284EFF278E198A37BE4200D3CC
:105F3000116A401C1960906209E0106A060A37185D
:105F40008F4203D3861B8E4200D808461860106A21
:105F5000C100091A18680918C9081162C108A842C5
:105F60000AD9194AC43A80186043C00801E0401AAF
:105F7000641E8842FBD807E0281A6043C00801E08D
:105F8000401A641C8842FBD80C48062200231146A4
:105F9000243803F009F92046FEF728FA00F0DCFC6B
:105FA00000F04EFC0020FEF71FF90120FEF724FA56
:105FB0000120FEF727FAF8BD2400012040F0004040
:105FC000420F00003412FF1F82F1FFFF0848816C6E
:105FD000491C8164C16CC26C0902C90F5203D20F03
:105FE0005140C26C5202120A5118C164C06C704711
:105FF0002400012010B502460B46122A01DB0520C1
:1060000010BD1248816B0120904001430F4881630D
:10601000416B012090400C46844321460B4841636C
:10602000C16B002B03D101209040014304E001200B
:1060300090400C46844321460448C163016B012013
:1060400090400143014801630020D9E700800040EF
:1060500010B50246042A11DA002907D01348406916
:10606000012393401843114B58611CE00F484069CD
:106070000123934098430D4B586114E0002909D047
:106080000A4840691346123B01249C402043074BB9
:10609000586108E0054840691346123B01249C40C2
:1060A000A043024B5861002010BD000000380040A2
:1060B00070B500241BE00F48005D022807DDE0B248
:1060C00000F0BAFA0546E0B2294600F0E3FA232CC4
:1060D0000CDA0848005D022808DDE0B200F0ACFAF6
:1060E0000C216143034A233289184870641C232C15
:1060F000E1DB70BDC100012010B502211020FFF7C7
:106100009FFA1020FFF748FA00240CE00C206043AF
:106110000649085C002805D0E0B200F0F5FAE0B2CC
:1061200000F078F8641C232CF0DB10BDE4000120A3
:10613000F3B581B00646234D002440E00120A04085
:10614000304000283AD00120A040029908400028A1
:1061500001D1012000E000200746E0B2394600F0FE
:1061600033F80C20604340194068002810D00C2000
:1061700060434019806800280AD0002F01D1012017
:1061800000E000200746E0B23946FFF733FF14E095
:106190000C20604340194068002804D0E0B2002180
:1061A000FFF728FF09E00C206043401980680028B1
:1061B00003D0E0B20121FFF71DFF00BF641C122CC9
:1061C000BCDBFEBDE400012070B504460E46104D58
:1061D0000C20604340194068002808D0002E06D1EA
:1061E0000C20604340194268204690470EE00C2086
:1061F000604340198068002808D0012E06D10C2089
:1062000060434019012182682046904770BD00001C
:10621000E400012070B50446204600F00DFA054662
:10622000002D01D1012000E0002006460C20604333
:10623000044940184078A84203D031462046FFF771
:10624000C3FF70BDE400012030B595B02A48406B13
:10625000400A40022849486300243DE02648C06BBC
:106260008005800D0121A1400840002832D0002582
:106270000BE0E00121494118E81C800008580005A6
:10628000000D690005AA50526D1C1D2DF1DB1A4846
:10629000806B0121A14008431749886318480078A2
:1062A000002800D117E0A1001548001D4058002823
:1062B0000FD0012001906846047205A803901D21AB
:1062C00068460174A2000E48001D815801A8884745
:1062D00000BF00BF00BF641C082CBFDB084840782B
:1062E000002801D100F05EF80348406B05490843DF
:1062F0000149486315B030BD000005400004054069
:1063000098030120FF01000070B50548C56B0448E3
:1063100040300468C46029462046FFF709FF70BD7D
:106320000080004010B5002002F078FE10BD10B5CE
:10633000012002F073FE10BD10B5114880680407FB
:10634000240F062C14D004DC022C0ED0042C14D103
:1063500007E0072C0DD00C2C0FD1022000F0F0FE2E
:106360000BE0012000F0ECFE07E000F01DFF04E070
:1063700003E003484030C06B00BF00BF10BD000009
:106380000040004010B5012004490870044A002173
:10639000112000F0B7FAFFF7FBFC10BD140001203C
:1063A000FB58FF1F10B51B480078002801D11220B0
:1063B00010BD1948194948631D20002805DBC20695
:1063C000D20E01219140164A116000BF1548806825
:1063D0000821884313498860084640684914884367
:1063E00010494860002408E0A1000F4840580028E8
:1063F00002D0E0B2FFF744FD641C092CF4DB11204D
:10640000FFF7CEFCFFF7C4FC112000F0C7FA002014
:10641000CEE7000014000120FF010000000005404D
:1064200080E100E040F000409C03012070B503468D
:106430000C4603E025781D70641C5B1C1546521E3B
:10644000002DF7D170BD000070B506460C463046F1
:106450000B38012181400D46002C0DD00021304623
:1064600002F0BAF80021304600F0BAF80648006899
:1064700028430549086004E003480068A84302492E
:106480000860002070BD00000038004030B50246B2
:10649000D406E40E0120A040034600290BD0501181
:1064A00080000B4C0019C06818435411A400084D1B
:1064B0006419E0600AE050118000054C0019C068C2
:1064C00098435411A400024D6419E060002030BDCF
:1064D0000038004030B504460D4601212046FFF744
:1064E000D5FFA01080000A4940188069A107CA0E94
:1064F000FF2191408843A107CA0E294691400843D5
:10650000A1108900024A89188861002030BD00006E
:106510000038004010B511480078002801D007204D
:1065200010BDFF21C9310D48FDF7FBFD01200B49CE
:10653000087000200A49086348630A4908624862F3
:1065400002211020FFF77CF81020FFF725F8064AFB
:1065500006490D2000F0D6F90020E1E7C000012037
:106560000080004080F00040F960FF1FB160FF1F15
:1065700070B504460E46042C03DB222C05DC1F2CD0
:1065800003DB01212046FFF763FD00212046FFF7D2
:106590007DFF122C0FDA0125A540002E05D00F48F3
:1065A000406828430D49486016E00C484068A843FD
:1065B0000A49486010E02046123801258540002E27
:1065C00005D00648006928430449086104E00348EF
:1065D0000069A84301490861002070BD00800040A7
:1065E000F3B581B00C4626460A210198FDF710FF4D
:1065F00048000818451C0120A840691C01228A4057
:106600001043C7430A210198FDF702FF80000949A2
:106610004018806807403046A840384306460A21A3
:106620000198FDF7F5FE80000249401886600020C1
:10663000FEBD000000F0004030B50346122B0FDA1B
:1066400001229A40124844681440002C01D001688D
:1066500002E00F484030016908461040014610E052
:106660001846123801228240094804691440002C5F
:1066700001D0C16802E00648403041690846104038
:106680000146002901D0012030BD0020FCE70000B8
:1066900000800040F3B581B00C460A210198FDF757
:1066A000B7FE48000818C6B20121019800F026FD87
:1066B0000120B0400546002C11D00A210198FDF7B9
:1066C000A7FE80000F49401887682F430A210198D0
:1066D000FDF79EFE80000B494018876010E00A21FC
:1066E0000198FDF795FE8000064940188768AF4382
:1066F0000A210198FDF78CFE80000249401887604E
:106700000020FEBD00F00040F8B504462A4D0126E9
:1067100000270C20604340194068002807D10C2056
:10672000604340198068002801D11220F8BD122C66
:1067300004DB032120482338015503E004211E48CF
:106740002338015501210C206043295400212046A3
:10675000FFF70EFF0C20604340194068002815D059
:106760000C2060434019806800280FD02046FFF7B6
:1067700063FF0746002F01D0012000E000200646FD
:1067800031462046FFF736FC0020CFE70C2060435F
:1067900040194068002801D0002606E00C20604324
:1067A00040198068002800D0012631462046FFF7B6
:1067B00021FC0020BAE70000E400012010B50B48DE
:1067C000007800F0BDFA1F2000F01EF8002000F055
:1067D000E3F901F043FFFFF79DFEFFF7D3FD00F063
:1067E00063FA03A001F01AFF10BD0000820001202F
:1067F000616C6C2064726976657220696E697420C0
:106800004F4B210A000000000146480940010028C2
:1068100004D00020034A1060062070470148016040
:106820000020FAE71000012010B5002311221521E5
:10683000024802F0B9FC002010BD00001CF000402E
:1068400010B50448112215210368034802F0ACFC7E
:10685000002010BD100001201CF0004010B5782170
:106860000C48FDF75EFC0C480078012806D0022891
:1068700008D0032809D0042808D100E000BFFDF7A4
:10688000CDFD03E0FDF7D0FD00E000BF00BF00201C
:1068900010BD0000200301200C00012070B505464A
:1068A000122616480078012803D0144800780428DE
:1068B00003D1FDF7B3FD002070BD72B6002417E0D0
:1068C0000C2060430E49085C002800D112E00C2027
:1068D00060430B49085CA84209D101210C206043A8
:1068E000074A80184170FDF799FD002602E0641CFC
:1068F0000A2CE5DB00BF62B63046DDE70C00012064
:106900002003012070B503460C46154600210022E5
:1069100012E00C2050430F4E305C984201D107200A
:1069200070BD0C2050430B4E305C002803D10C206E
:106930005043811902E0521C0A2AEADB00BF0029F9
:1069400001D10320ECE7002048700B704C608D6093
:1069500000BFE5E72003012010B5FFF771FF002419
:1069600015E00C2060430C49085C002801D112207E
:1069700010BD0C206043084940184068002805D02D
:106980000C216143044A891848688047641C0A2C1A
:10699000E7DB0020ECE700002003012070B505468E
:1069A00000261C480078012803D01A4800780428E3
:1069B00003D1FDF733FD002070BD72B600241BE04B
:1069C0000C2060431449085C002800D116E00C201C
:1069D00060431149085CA84205D100210C206043A6
:1069E0000D4A801841700C2060430B4940184078D4
:1069F000002800D0761C641C0A2CE1DB00BF002EAE
:106A000002D1FDF711FD01E0FDF708FD62B600209F
:106A1000D2E700000C0001202003012070B50646DB
:106A20000025002412E00C2060431349085CB042AA
:106A300003D10C20604345180AE00C2060430E4946
:106A4000085C002801D1122070BD641C0A2CEADB0E
:106A500000BF002D01D11220F6E772B60A20001BFC
:106A6000401E0C214843024669182846FDF740FBAA
:106A700062B60020E8E700002003012010B50024E2
:106A800015E00C2060430C49085C002801D112205D
:106A900010BD0C206043084940188068002805D0CC
:106AA0000C216143044A891888688047641C0A2CB9
:106AB000E7DB0020ECE700002003012010B50A20EE
:106AC0001549087001201549087000201449087004
:106AD00000F030F804201349C86113488860C8608A
:106AE00008611248486101210A20FFF779FD0D2352
:106AF0000F2212210B48143002F056FB0021042013
:106B0000FEF762FD01210220FEF75EFD084A00212A
:106B10002020FFF7F7FE10BD7F000120800001203C
:106B20008100012000F00040B66DDB36B6EDC3B049
:106B3000BD8FFF1F70B515480022C0680424866B06
:106B40001025134813493300FDF7EAFB0708080531
:106B50000C0E1308050005600C600DE02022026099
:106B6000052004E0302305E0402202600620086092
:106B700002E0602303600A60FDF75CFCFDF760FC47
:106B800002F0D8F801F0B4FF70BD0000240001202D
:106B90002010FF1F2410FF1F10B50446012C1CD12C
:106BA00005231B221F21204802F0FEFA1F4B07225B
:106BB00010211D48083002F0F7FA01230622114681
:106BC0001948083002F0F0FA19480068C06A11212B
:106BD000084317490968C86225E0002C23D1002129
:106BE0001020FFF7FDFC00211120FFF7F9FC032323
:106BF000082209210C48083002F0D6FA00230622A8
:106C000011460948083002F0CFFA16231B221F2133
:106C1000054802F0C9FA06480068C06A1121884395
:106C200003490968C86210BD14F00040FB0300006E
:106C30003000012070B50446002C02D020780128D5
:106C400001DD062070BD17480069A04205D0154837
:106C5000806BA04201D01220F4E721780B31C8B23A
:106C6000FFF79EF82578282675430E4EAD19EB7870
:106C70002578282675430B4EAD19AA782578282645
:106C80007543084EAD196978257828267543054E59
:106C9000705D00F01FF850213046FDF742FA0020E9
:106CA000D0E70000C003012010B5002206490B20E8
:106CB000FFF728FE002205490C20FFF723FE502194
:106CC0000348FDF72EFA10BDED8FFF1F0590FF1F43
:106CD000C0030120F8B507460C4615461E460021A4
:106CE0003846FFF7D3FB00212046FFF7CFFB0021FA
:106CF0002846FFF7CBFB00213046FFF7C7FB1F2FCD
:106D000001DA032F03DC00213846FFF7A1F91F2C1D
:106D100001DA032C03DC00212046FFF799F91F2D2F
:106D200001DA032D03DC00212846FFF791F91F2E1D
:106D300001DA032E03DC00213046FFF789F9F8BDA4
:106D400070B50446FF252D35002C03D13B483C4946
:106D500008604EE0022C09D13A48006861040843FB
:106D60003849086038483649086042E0012C1BD198
:106D700034480068A1040843324908600846406866
:106D8000610588432F494860084640684914084314
:106D90002C494860084640688021084329494860DA
:106DA00026482749086024E0264800680121890414
:106DB0000843244908600846406821460B310122F7
:106DC0008A4010431F4948600846406880210843B4
:106DD0001C494860032C03D11C481949086008E08D
:106DE000042C03D11A481649086002E019481449D6
:106DF000086001E0681E85B2002DFBDC23460022FE
:106E000003211048001F02F0CFF901208007C0695C
:106E10000221084000280BD0480780690005060EB3
:106E2000711C07480068FDF739FA0B49086003E058
:106E3000034800680849086070BD00000048E80188
:106E40001010FF1F40F000400024F400006CDC0232
:106E50000090D00300D8B8051410FF1F1FB51348C9
:106E60000078002802D0112004B010BD20210F4866
:106E7000FDF757F96846407A002803D16846C07A82
:106E8000002801D00520EFE7084869461EC91030E8
:106E90001EC001200549087002F03CFA044A002196
:106EA0000820FFF72FFD0020DEE70000000301208F
:106EB0001593FF1F70B504460D460748807E0028D5
:106EC00004D02946204602F0D5F970BD2946204657
:106ED00002F086F9F9E70000000301206D4629461B
:106EE00007A001F09BFB002405E0A00029580AA0A0
:106EF00001F094FB641C102CF7DB00BFFEE70000E0
:106F000048617264204661756C7420535020697327
:106F10002025780A00000000307825782C00000039
:106F2000F8B55249504A534B5148CA60D8610020C5
:106F300003468400401C1351FF28FADDC8684E4AFE
:106F400004468034A2600622C2620A2202654B4ACD
:106F5000157885634A4DC56115781426022D03D036
:106F60001578032D03D003E01025056200E00662CA
:106F7000444D4561444D85613C25E5603625C5633A
:106F8000342747640825056439276760322727605E
:106F9000AF24E40004601478022C03D01278032A92
:106FA00002D003E0466001E00B224260C824FF22C9
:106FB000C4602D328260A4000461344C84647D2658
:106FC000F6004662324CC464324E86620226466641
:106FD00082660926C666304E066745678267B2102C
:106FE000C2674C618B70CB80CB700B812C482B49D6
:106FF0001F4A81602B49803A294B11612A4980330D
:1070000099622A49C1622A49016325482949C03841
:107010004163294901602249284A8039CA62284AC5
:107020000A60284AC2601E4A274C403A9463274CA3
:107030001463274C5463274C4C61274C8C61274CBC
:107040000C62274CDC61274C1C62274BD363274A18
:10705000CA61274981622749C16227498163FEF7D6
:1070600041FEFEF74FFEF8BD000CFF1F240001207B
:10707000000CFF1F0010FF1F3808012082000120B4
:107080007E04000060E31600DC05000050C3000031
:10709000540B00006A180000204E00006D81FF1F95
:1070A0000009FF1F994BFF1FF18AFF1F514AFF1F65
:1070B0000149FF1FFD75FF1F8951FF1FED78FF1F5D
:1070C0006972FF1FDD53FF1FC993FF1F8D84FF1FD0
:1070D000B15EFF1F3182FF1F2154FF1F657DFF1F1F
:1070E0007195FF1F995CFF1F215EFF1F8178FF1FB5
:1070F000B97EFF1F757BFF1FD573FF1F30B5C40618
:10710000E40E0123A3401A4600290BD043119B0033
:107110000A4C1B191B6A13434411A400074D641940
:1071200023620AE043119B00044C1B191B6A934322
:107130004411A400014D6419236230BD80F0004069
:1071400070B588B006461648007E00280DD0154858
:107150004068C5B2002405E012488038007804A9D0
:107160000855641CAC42F7DB08E001250D48803867
:10717000007D0C4880380078694608740848C0696A
:1071800000280AD06846067104A802906846057374
:107190000348C16901A8884700BF08B070BD00005E
:1071A0000003012080400040FEB5244C201F0078E1
:1071B000002800D1FEBD2148001F007E002800D11C
:1071C000F8E71E48001F807E002800D1F2E72078F3
:1071D000022800D0EEE7A668A0886188401A85B230
:1071E000102D01DD102000E028460546002D17D1A6
:1071F0000120207000206080A0801048001FC0691E
:10720000002809D00E4A07CA6B4607C30B48001F67
:10721000C1696846884700BF0820FFF7BFFBC9E780
:1072200005E06188481C6080705C0649087028464B
:10723000691E8DB20028F4D100BFBBE70403012012
:107240006496FF1F0040004010B519242402428EAE
:1072500001E0491E4184418C4B1C5343A34201DD94
:107260000029F6D110BD0000F0B585B05448029059
:10727000FDF7ECF8002856D000200190FDF7ECF85F
:10728000302148434F4945184F482818FF35FF35EE
:1072900002350090A88A060A8707BF0F44D04848E5
:1072A0000446803060340390032F14D0002E02D0A7
:1072B000207C002838D04548816D491C81650398A1
:1072C000807B002800D00420301A80B2FDF7CAF875
:1072D0000190002831D00398807B002809D0361F08
:1072E000F6B232463946009B0298FDF7C1F80028F5
:1072F00028D0032F2ED035483246816B491C81633C
:1073000000990198FFF792F81120205600902C4820
:107310003B46C07832460199FDF7B0F8002028615D
:10732000A882FDF7B1F83EE03D210298FDF7B2F8E2
:107330002648C16B491CC1633FE02448016E491CCB
:1073400001663AE00198FDF7ABF83D210298FDF7A0
:10735000A1F832E01D4E706B401C7063FDF794F88D
:107360001B48007808280DD000980078032813D017
:10737000062811D002280FD00D280DD0207C00281F
:1073800005D009E000990298FDF790F80BE002980B
:10739000E030007B002809D000990298FDF78CF8B6
:1073A00000202861A882012005B0F0BD3D2102988F
:1073B000FDF770F8F06B401CF0630020F4E700006C
:1073C0005C2AFF1FC42BFF1F160200000C31FF1F99
:1073D000E511FF1FF8B504460A78FF302646274618
:1073E00025460130E03660378035491C1300FCF734
:1073F00097FF0D084BF865F5F5AE60BE60B1BBDBDD
:10740000F50008782870204602228230491CFDF7DA
:1074100059F80146204602228430FDF753F8014610
:10742000204602228630FDF74DF801462046022212
:107430008830FDF747F829780222490029706988C9
:1074400049006980A9884900A98029890901298101
:10745000014620467E30FDF735F87E20005BE1884E
:10746000401A81B26148814201D3282122E0E88894
:10747000A988401C490048432989884201D33B21FF
:1074800018E00120387712E005225948FDF71AF874
:107490000146204602228C30FDF714F8A889E188C5
:1074A000401A81B251488142DFD20120A8720020E7
:1074B000E083F8BD2046FCF7EDFFF8BD307D0028E5
:1074C00009D14C4A25181318E035401C5B78C0B22E
:1074D0006B750828F6D3707DC00734D00020B871D2
:1074E00038740120307420460822A830FCF7EAFFE7
:1074F000014620460222B030FCF7E4FF0146204658
:10750000A03008220646FCF7DDFF0546082130467C
:10751000FCF7DEFF20462946943004220546FCF79E
:10752000D1FF04212846FCF7D3FF20469830FCF712
:10753000D5FF20469030FCF7D7FF0C212E48FCF7F2
:10754000D9FF04212CE01A2070730D2128E00120BE
:10755000B073F8BD0020B8713874DF2108550121DF
:10756000317330700B211BE00120F073F8BD214A0C
:10757000002013182518E035401C5B78C0B26B75ED
:107580000828F6D3002015180B786D78491C2B407D
:107590002518E035401CC0B26B750828F3D30921CB
:1075A0002046FCF7ADFFF8BD737F012B16D00A789B
:1075B0000270E01D0222FB30491CFCF783FF0146EC
:1075C000E01D0222FD30FCF77DFF01207077F07F87
:1075D0000028E8D10C21E3E700E002E04272072135
:1075E000DEE7097801720122C27163E7FF7F0000C4
:1075F000F411FF1F802BFF1F0032FF1FF0B5044660
:107600008BB0C0300A902046F53002900B300790C6
:10761000274625468038E0376035264640360990B3
:10762000A5E0E87C801E0300FCF77AFE0C07A11B96
:107630003265F3BCDCA18BF4A7A1A87C012803D0A0
:10764000204600F057FB12E08C488078002801D0DB
:107650001621D8E0708F401E0004000C70876FD098
:1076600009E1A87C012804D0204600F009FAA8749A
:1076700001E18248C0780028ECD02046FCF746FFA4
:1076800022462146E078B032A831FCF745FF6EE093
:10769000A87C012812D00A98C07F012822D038780F
:1076A000002868D0224621462046BF329831CF308C
:1076B000FCF738FF0A990120C87758E06F48C07876
:1076C000002807D009990120887309980021416694
:1076D00009988166B87B0128BCD106212046FCF7B9
:1076E00027FF44E02046FCF729FF0128B8D10020FD
:1076F000B8730120BBE7A87C012803D02046FCF723
:1077000023FFB4E75D48C0780028A3D0608CE083F5
:107710002046FCF7FBFE0120A8712874387B012865
:10772000E07809D001220021FCF714FF0020387313
:107730003874F873B8731AE00021FCF711FFF5E70D
:1077400060E0A87C012805D02046FCF70FFF012847
:1077500007D090E0F87B0128BED12046FCF7D6FE8A
:1077600005E00020F873099988730120A874E87D6A
:10777000002800D055E70BB0F0BDA87C012803D04D
:10778000204600F09BFA72E73C48C178002905D0FA
:10779000099A002191730121A97129748078002828
:1077A000DBD157E7A87C012806D02046FCF7E4FE91
:1077B000A874002038755EE0387D012806D0708FEF
:1077C000401E0004000C708706D054E0E1780020D1
:1077D000029AFCF7D7FEC0E7E1782220029AFCF774
:1077E000D1FE0FE0A87C012803D0204600F08CF9E0
:1077F0003DE72248C0780028D3D001203875608C3E
:10780000E083AAE722212046FCF744FE0120B2E7EC
:1078100000E02BE0A87C012805D00120F877204665
:10782000FCF7B6FE23E7787F012806D0708F401E54
:107830000004000C70870ED01DE0B87F01288CD1A9
:107840000798808800900798E178438802780020A4
:10785000FCF7A4FE81E70798808800900798E178FC
:10786000438802782220FCF799FECBE7204600F0FF
:10787000F5FA0128AFD000207DE700008031FF1F1E
:1078800010B5FCF7E1FCFCF7E5FC164CA07B03000F
:10789000FCF746FD0507040D0A041800FCF784FEFA
:1078A00007E0FCF787FE04E0FCF78AFE01E0FCF746
:1078B0008DFE0D498878002811D0627BD30703D054
:1078C000252206E0122010BD920701D5262200E0F5
:1078D0002722237D934202D1C988FCF71BFD00209B
:1078E00010BD0000442AFF1F24000120F8B5574CAA
:1078F000574EA17BF06801293BD0856A554F2A225B
:107900000021B81DFCF768FEB888A17900090001C4
:107910004022401C9043890101434F488022007857
:107920009143C00108433F21090288430321890292
:107930004018B8800622E11DB81DFCF797FC4649A7
:1079400038460622491C0C30FCF790FC207D253877
:10795000032803D30020FCF745FE2075207D074651
:10796000FCF740FE2075A17B012904D0B84219D94B
:1079700016E0456AC2E73949F0680A68C06D5219D5
:1079800080180860364988420AD3364800210170C1
:10799000FCF72EFE344802210078FCF7BBFCF8BD52
:1079A00028460EE0607BC1078207C90FD20F8918F5
:1079B0004007C00F081861882C4A401E5143684395
:1079C000081AFCF75FFC2748022101702020FCF711
:1079D0000BFC2748FCF7B0FC2648FCF7B3FC384604
:1079E000FCF7B6FC3846FCF7B9FCFF20FCF706FEB6
:1079F000F068416CCAB2016C808FC9B2C0B2FCF7AA
:107A000017FCFCF721FCFCF725FCFCF7FDFD03202F
:107A1000FCF7BCFC0F488188001D090A891CFCF793
:107A20001FFCFCF70BFC144901200860A17B1348E4
:107A3000012906D00169491C01611020FCF7D4FB23
:107A4000F8BDC168491CC160F7E70000442AFF1F68
:107A500024000120C42BFF1F0C12FF1FF011FF1F79
:107A600000881300E511FF1FE411FF1F71020000E1
:107A700055555500D6BE898E1812FF1F0C31FF1FB9
:107A8000F8B504461C481D4D861C6865FCF7C2FD10
:107A9000002801D00020F8BD04203070164821468F
:107AA0009831C01C08220F46FCF7BAFD21469031E0
:107AB00004220E46FCF7B4FD08213846FCF708FD09
:107AC00004213046FCF704FD002008210A1A12198F
:107AD0008032D37B2218A032401CC0B2D375082854
:107AE000F4D3074901200870696D064808804034C6
:107AF000208F60870120F8BD8C31FF1F24000120FA
:107B00001412FF1F030D0000F8B50446164E154869
:107B1000164F7065164938780978084301D000205F
:107B2000F8BD10480925801C05702146401C08221C
:107B3000F531FCF775FD8E20005D002807D0736DD0
:107B40002A46032120469B1CFCF770FD0D250020D2
:107B5000E083012038702802716DC01C088001206C
:107B6000F8BD00008C31FF1F240001201412FF1FFC
:107B70001312FF1FF8B54E4CFCF74CFD25462E4660
:107B800060368035002814D1A06E002811D14948F4
:107B9000006900280DD148480078002809D12078D4
:107BA000002806D1207F002803D0B17C002902D014
:107BB0000BE0002008E0317F002906D1A97A0029D6
:107BC00003D1012801D1608CE083E088E18B40186B
:107BD000401C20812046FCF72FFD012804D1002005
:107BE000E083E088401C20810096307F304E2036B4
:107BF000012845D127464037FA8F2189E088FCF7D4
:107C000021FD00283CD0F88F208129462046FCF732
:107C10001FFDE888608400202077E0830120207128
:107C20002089E1894018A081E188F88FFCF716FDD2
:107C3000618E6A8848438718A888884207D12989B5
:107C4000E28E914203D1E988A28E914206D0298921
:107C5000EA880B094108E078FCF706FD2878B07344
:107C6000A8886086E888A0862889E0862046FFF7F5
:107C7000EBFA2046FCF7FEFC00990020087700E0B4
:107C8000678EA069B84203D13078E18B884206D074
:107C90002346327BE18B14333846FCF7F1FCA761B5
:107CA000A07F30702046FCF7F1FC0020F8BD0000FA
:107CB0005C2AFF1F442FFF1F0431FF1F0A4A094996
:107CC00051658A1C0D231370ED231B5C53704030EB
:107CD000028F4287054A0120107005480880012064
:107CE000704700008C31FF1F240001201412FF1F79
:107CF00003020000F8B50446174E1648174F70658A
:107D0000174938780978084301D00020F8BD114B95
:107D100002229B1CFF211A700931581C095D25465F
:107D200001708035A87B002804D003212046FCF791
:107D30007DFC062200207C210855A872E083E089A2
:107D400040346087012038701002716DC01C0880BB
:107D50000120F8BD8C31FF1F240001201412FF1FE9
:107D60001312FF1FF8B5344C207D2538032803D3A8
:107D70000020FCF737FC2075257D2846FCF732FCF7
:107D80002E4E2075A8421AD8FCF786FC8305607B2E
:107D90009B0DC1078207C90FD20F40078918C00F7A
:107DA0000F187F1EFEF712F9C10A6088244A50435B
:107DB000F26812687A43801A0818C01801E0F06867
:107DC0000068FCF75FFA1F48012404701F20FCF7CD
:107DD0000BFA1D48FCF7B0FA1C48FCF7B3FA28462A
:107DE000FCF7B6FA2846FCF7B9FAFF20FCF706FCC8
:107DF000F0683C22006CC1B25A20FCF719FAFCF77B
:107E000023FAFCF727FAFCF7FFFB0320FCF7BEFA86
:107E10000F488188001D090A891CFCF721FAFCF72C
:107E20000DFA0C4804600C480168491C01601020E0
:107E3000FCF7DAF9F8BD0000442AFF1F24000120F6
:107E400071020000E511FF1F55555500D6BE898E01
:107E5000C42BFF1F1812FF1F0C31FF1F70B5134CEE
:107E60001149134D6165134A29781278114301D0E5
:107E7000002070BD0C4B07219B1C1970FF260A3691
:107E8000591C365C0E708E21095C0222002903D039
:107E90000321FCF7CBFB0622012028701002616D44
:107EA000C01C0880012070BD8C31FF1F2400012000
:107EB0001412FF1F1312FF1FF8B56448FF21027848
:107EC00025314A4362495418A278002A3DD02189BD
:107ED0006048E18082790025002A0BD1427A002A8D
:107EE00008D1827A002A05D1C27A002A02D16278AA
:107EF000002A09D0E2898918A1812571217F0129F1
:107F00002CD1618CE18329E02178002906D0E21D83
:107F1000F932118A491C1182E58305E02571217F20
:107F2000012901D1618CE183A289E1888A4215D1BE
:107F30002079494D002801D0052907D00821204685
:107F4000FCF7A8FAE86A401CE862F8BD3E2120462A
:107F5000FCF7A0FA286B401C2863F8BD4078002885
:107F600014D03E48C068808D800701D5012020775D
:107F700020466030817C002908D1007F002805D18F
:107F80008A20005D002801D1608CE08320790028E0
:107F900000D0E583FCF75AFA060009D025770027C0
:107FA00004E0FCF77FFB002802D07F1CB742F8DB1F
:107FB000A0780028D1D02046FCF77AFB0128CCD04D
:107FC00002212046FCF77AFB2078002805D02348C0
:107FD0006169026C8918016401E020480564FCF7BE
:107FE00073FB0128B9D0FCF7F9F81D4909688842EC
:107FF00001D9451A02E01B4A511A0D18134EFF21F0
:1080000030782531124F4843C019846920300078F8
:108010001549401C48434443204600F029F8307875
:10802000FF21253148431149C01940690968FF35CE
:108030004018053540196E30844201D8002801DA15
:10804000201A00E0C820FCF71DF9F8BD1512FF1F2B
:108050005C2AFF1F8031FF1F0C31FF1F240001200D
:108060001C12FF1F40420F00710200002012FF1F70
:1080700070B5144A13781146C968002B12D0CA6E25
:108080000446CD6CD4402C190F4DCC642D78FF26BE
:10809000253675430D4EAD19AD692D02AC4204D89D
:1080A000254603E05069C86470BDCD640C6FA542DD
:1080B00000D9CC64521C0649D0400A685843801845
:1080C000086070BD240001201512FF1F5C2AFF1FED
:1080D0002012FF1FF0B5214AC605D4680023656F42
:1080E000002E31DA460509D51D4EFF273678253793
:1080F0007E431C4FF6193679002E04D0136193612C
:1081000046050ED40EE0D6698E4201D9761A00E0FB
:108110008E1BA76FB74204D99669B54200D3761C6F
:108120009661D1619669B5420AD2A56E646E491B0B
:108130002141146909190C4C11612568691A2160E3
:10814000C00504D51370F0BD13619361EAE71078A0
:10815000052800D8401C1070F0BD0000240001204C
:108160001512FF1F5C2AFF1F2012FF1F10B51C48AD
:108170001A4941610121C16001601A4A506B1A49D4
:10818000C0B24978002917D118490023CB56002BDB
:10819000174BCB5606DB1B0400240C572102591841
:1081A000091808E0FF331B0400240C57210259185A
:1081B000104B0918C9185163022801D2022002E0AD
:1081C000502800D95020801E0B4940100B5C0548F8
:1081D00000220721143000F0E7FF10BDFF3F000030
:1081E0000010034080000340240001208100012092
:1081F00000000000FFFE0000CC05012010B5019C2E
:10820000032009490870FEF78BFEFEF727FBFEF7F7
:1082100055FCFEF7D3FA214604A000F0FFF9FDF764
:1082200015FD002010BD00008200012025640A0019
:10823000F8B57E4CFCF74EFAFCF752FA7C48002663
:1082400006617C4821467C4C86802078FF222532BE
:1082500050437A4D4231401904222430FCF732F960
:1082600001462078FF22253250434019032228304E
:10827000FCF728F901462078FF22253250434019A7
:1082800001222E30FCF71EF901462078FF2225320C
:108290005043401902223030FCF714F9014620788F
:1082A000FF2225325043401902223230FCF70AF9EE
:1082B00001462078FF2225325043401902223430F3
:1082C000FCF700F901462078FF222532504340197F
:1082D00002223630FCF7F6F807462078FF212531D8
:1082E0004843401902462032917B49009173018E28
:1082F00049000186418E49004186C18E0901C1862F
:1083000001462E31FCF7A4F92078FF21253148439E
:108310004019FCF7AFF92078FF2125314843401977
:10832000828E418EC38E4A4352009A4259DA002906
:1083300057D0052239466030FCF7C4F801460122C7
:108340006846FCF7BFF8684602782078FF2125319F
:108350004843D30640190146DB0E60314B71520988
:108360002C273A54FCF7C2F92078FF2125314843E5
:108370004019C683818E4184FEF766FF304907208D
:1083800008702520FBF730FF2078FF22253250436C
:10839000421901219170D01DF93086743121C174C8
:1083A0003920865410460121FCF7A6F92178FF22D6
:1083B000253251434F193946203148763046214EF7
:1083C0003B463064388E0A7B1433F98B801CFCF7F3
:1083D00057F9FBF703FF1C490968884207D9401A7F
:1083E00008E01A4840210078FBF794FFF8BD184ACE
:1083F000511A0818F168FF22896825320818217877
:10840000144B514349190A8E49695A43101A401AAC
:1084100059004018FBF736FF0C4804210078FBF7A1
:1084200079FF0D48816A491C8162F8BDC42BFF1F8A
:10843000442FFF1F442AFF1F1512FF1F5C2AFF1F36
:10844000E511FF1F240001201C12FF1FE411FF1F74
:1084500040420F00710200000C31FF1F10B50024D4
:108460000420FCF74FF9084908600422002106485F
:108470000068FCF7B1F82046641CFCF749F9204677
:10848000FCF7ACF910BD000004000120F8B5494D1F
:108490004748E86072B6FCF741F9002873D0464EB1
:1084A000B07900286FD0454F3868002812D1E868AD
:1084B000434B808DC00710D0FDF7A6FC696A884247
:1084C00001D3401A01E0591A0818E9688031C968D7
:1084D000814202D962B630BFF8BDFDF795FCE9686C
:1084E000181A898DC90711D0364A374B1168FF24F5
:1084F000CB188A34A34200D3296A1160020C80B2DF
:108500004A4348435202C009141809E0C1018200DD
:10851000891A4200891AC20010188908400A0C18EA
:10852000FCF702F97D21C900484302D0A04200D8DF
:108530000446FCF7FFF82549086025480269D20780
:1085400034D18068234AC007C00F127840421042DD
:1085500001D0086802E0E86840690860844200D9F8
:108560000446FCF7EDF800280BD03868002808D145
:10857000E9688A69C8691218A24202D83288002ABA
:1085800002D062B630BF11E04969201A814200D2A0
:108590000846420AC10A40098018401ACA088018D1
:1085A0008A09801A090A401AFCF7D0F862B6F8BDA9
:1085B000000CFF1F24000120B410FF1F1812FF1F22
:1085C000FFFFFF003412FF1F82F1FFFFB010FF1FFB
:1085D00000100240E511FF1F30B5C406E40E012370
:1085E000A3401A4600290BD043119B000A4C1B19CB
:1085F000DB6B13434411A400074D6419E3630AE0E5
:1086000043119B00044C1B19DB6B93434411A400E2
:10861000014D6419E36330BD003800400FB438B534
:1086200078210C48FBF77DFD05A800900020009AFA
:10863000049900F01FF80748FCF78EF884B2214631
:108640000448FEF737FC00200349088038BC08BC0A
:1086500004B0184788020120080001201FB5044B10
:108660000FCB6C460FC468460FC8FEF7F7FB1FBD63
:108670005496FF1FF7B584B00C4600259EE0207885
:1086800025286ED1641C0020074606462078002865
:1086900000D197E02078252800D188E020782D2887
:1086A00001D1641C012702E0641C022007432078EA
:1086B0003028F9D005E00A20464320783038861962
:1086C000641C2078302802DB20783928F3DD2078FC
:1086D000732813D10698006802900698001D069032
:1086E0000298002801D0029800E03DA001463B46D8
:1086F0003246049800F0F5F845195EE020786428C9
:108700000DD16120019700960290069802C80123BE
:108710000A220690049800F081F845194DE020786F
:1087200078280DD16120019700960290069802C822
:10873000002310220690049800F070F845193CE0E0
:10874000207858280ED14120019700960290069873
:1087500002C8002310220690049800F05FF8451923
:108760002BE023E0207875280DD161200197009639
:108770000290069802C800230A220690049800F08E
:108780004DF8451919E02078632815D1069801782D
:10879000001D069068460173002141733B46324636
:1087A00003A9049800F09DF8451906E000BF217860
:1087B000049800F019F86D1C00BF641C2078002894
:1087C00000D05CE700BF0498002803D00021049883
:1087D0000068017000200690284607B0F0BD000038
:1087E000286E756C6C29000030B5002805D0036830
:1087F00019700268521C02600BE0064A1288782A3F
:1088000007DA044A14881288521C024D2A80024A50
:10881000115530BD0800012088020120FFB587B046
:108820000C461646109F0020029001900094002CE8
:108830000CD1302168460174002141743A4604A9E4
:10884000119B079800F04DF80BB0F0BD0A98002876
:1088500007D00A2E05D1002C03DA012002906042D5
:10886000009006AD03350020287017E031460098CF
:10887000FBF714FD039103980A2804DB12983A3899
:1088800003994018039003983030C1B2681E054622
:10889000017031460098FBF701FD00900098002818
:1088A000E4D10298002813D0002F0DD00221119896
:1088B0000840002808D02D210798FFF795FF019860
:1088C000401C01907F1E03E02D21681E05460170AB
:1088D0003A462946119B079800F003F80199401881
:1088E000B2E7FFB581B00D4614461F460026202092
:1088F0000090002C13DD0020294601E0401C491C9B
:108900000A78002AFAD1A04201DB002400E0241AF0
:1089100002223A40002A01D03022009200BFF8071C
:10892000C00F002808D105E000990198FFF75CFF0F
:10893000761C641E002CF7DC05E029780198FFF70F
:1089400053FF761C6D1C28780028F6D105E00099AD
:108950000198FFF749FF761C641E002CF7DC3046B7
:1089600005B0F0BD70B5164C144DE06940084000EC
:10897000E0610620FCF79AFF1148403882698021A7
:108980000A438261E26901231A43E261A26A920505
:1089900003D42A466D1E002AF8DC002D07DB226A6C
:1089A0007E23D60B82691E409A43324382618269DC
:1089B0008A4382613006400E70BD0000983A000084
:1089C00040F00040FFB581B00D46064610240C4F24
:1089D0000CE0FFF7C7FFB04208D2A84206D90499BD
:1089E000039800F00FF8C019C72804D32046641E6E
:1089F000E4B20028EDD11020001BC0B205B0F0BDDC
:108A000021F1FFFFF0B5002591B00E4607462C4638
:108A10000BE01020FCF74AFF1448406AA2008104D2
:108A2000890C6846641C8150E4B2BC42F1D33946DB
:108A30006846FDF715F90E4A002057426C460EE0D5
:108A400081006358934201D9D91900E0D11A6429F1
:108A500002D9002011B0F0BD5D19401CC0B2B04277
:108A6000EED331462846FBF719FCF3E740F000400F
:108A7000420F0000F8B50C4D0C4E0024A000401928
:108A800001686846FDF74EF9022805D0002C02DD8A
:108A9000012800D10320F8BD321969460978641C09
:108AA0005170402CEADBF8BD00080011F4050120EC
:108AB000F8B500240C4D0D4F0526A00040190168A3
:108AC0006846FDF72FF9022805D0002C02DD0128A9
:108AD00000D10320F8BD321B6946D2190978641C05
:108AE0005170062CE9DBF8BD00090011B700012028
:108AF00010B500F011F800F0C9F9064A012158201C
:108B000000F040F90423082219463820FFF75AFFE5
:108B100010BD0000A4000120F8B52D4C23782D4D88
:108B200016221B21284600F03FFB032311221221AD
:108B3000284600F039FB2D1D062316221A2128464F
:108B400000F032FB032312221321284600F02CFBF5
:108B5000A079032827D0002319221A21284600F0E3
:108B600023FB0B2304220721284600F01DFBE37999
:108B700016221721284600F017FB184D1648E8600A
:108B800042152A61164868611649A961134E40369C
:108B90007260B060F160114F1348403F3860E07977
:108BA000012802D00BE00323D6E70022012311465F
:108BB000384600F0F9FAFF20413028617060E07813
:108BC0000A49C006C00B4018B8630948E861F8BDFF
:108BD0007C00012040F0004020010020C000034044
:108BE000A403B00000008A04242D00002508000022
:108BF0002FFF260070B52C492B4A4039002825D07C
:108C0000022823D08B1513625A020A61274A0A638D
:108C1000274A527801231B03D2184A61224A22496B
:108C2000C03A8039002815D06523224DDB02224C42
:108C3000012819D002281CD0204E8019106020482D
:108C400050600B608D60CC601E4819E08023136279
:108C5000DA02DAE71C481060002088601B480860D0
:108C60001B48C8601B480BE01B4810608D600B6000
:108C7000E9E71948401C10608D600B60CC60174814
:108C8000086117484861174888611748C861174844
:108C9000086217484862174888621748C862174830
:108CA00008631748486370BDC0000340030000011B
:108CB0007C00012055555537D6BE898E0080069818
:108CC000545A9850805508220080067800280B00DE
:108CD00007EE75368066082201800642804508222C
:108CE000A49C5C544C0C0403025A544E483C36334A
:108CF0002D007F5D57514B453C363056504A443E1F
:108D0000322C262070B50A4B5C6A9D6AA3050126A9
:108D10009B0D7602B34201D99B1B02E0FF33FF3368
:108D200002330B80290E0170200E107070BD000000
:108D3000C000034010B5FFF7EFFE044CE07800F0F0
:108D400007F82079FFF756FF10BD00007C000120D6
:108D500010B5044609483F2C0DD00D230F221221D7
:108D600000F022FA0648816BE2060905090DD20BD4
:108D70001143816310BD0823F0E7000014F00040A8
:108D800080000340F0B5354C666AA56A0023636233
:108D9000A362334C60630E20206263624020A062B5
:108DA0005020E0622A2060622D484030012926D000
:108DB000802101622B49FF232948A533403083607D
:108DC000294B4360264B2948403B18617D20C00059
:108DD000401EFDD2264889050F1821484038876378
:108DE000234B5B1CC91881632349224889790B00F6
:108DF000FBF796FA070B0B0E0D0E0E0B0E00FF2164
:108E00000131016217498331D5E71C4800E01C4855
:108E10001C4911601249403103E0CB6ADB439B0FD0
:108E200011D0401EF9D20E48403887630020A0625E
:108E3000E062886060622062FF2041306062074823
:108E400046628562F0BDC86A0F4B1840106010681A
:108E50000122000C120480184860E4E7001003406F
:108E600080000340CA0200002020000080560C2031
:108E700064652100102700007C000120204E0000C6
:108E80003075000000002020FFFF3F3F30B5244C2C
:108E90002079012828D02079032825D0207904289A
:108EA00022D02079022827D00121022000F03CF8AE
:108EB000C01C60700121422000F036F8C01CA07078
:108EC000A07862781749904222D20020627853013C
:108ED0006278A578521B42439A1A103252110A54F2
:108EE000401C2828F2DB30BD0021022000F01CF8D5
:108EF000801C6070002106E00121022000F014F8BF
:108F0000801C60700121422000F00EF8801CD6E722
:108F1000002062780A54401C2828FADB30BD00008B
:108F20007C000120CC05012030B51C4C1A4A22607F
:108F30001A4A4032012914D01949D16050630E20D9
:108F4000106200215162FF2015305062154885796A
:108F500015482B00FBF7E4F9070A0A070C0D0D0A68
:108F60000D001249E9E71048401E02E0104800E0F9
:108F70001048401EFDD209488030406B516200020B
:108F8000000E11620C49D160FF214131516265210F
:108F9000C902216030BD0000100003004000034002
:108FA0007F4072007C0001200F2700007F405200AC
:108FB000204E0000307500004040100010B5002128
:108FC0000420FCF701FB01210220FCF7FDFA10BD93
:108FD000002908DD00228260022282608A0002608D
:108FE0000322826001E000228260704710B50448CD
:108FF0000069002803D002490869FDF71BFE10BD77
:10900000C003012010B50448806B002803D002493A
:10901000886BFDF70FFE10BDC0030120F0B589B0CD
:1090200005465E4E00200590002D01D0012D06D191
:10903000282068435A4940180069002801D109B026
:10904000F0BD012D00D1574E2820684354494018E7
:1090500004461434306BC1B2089108A80078C007E8
:10906000C00F00280CD0282068434D494018C07A12
:10907000012805D1A0886188884201DB1020F062B8
:1090800008A8007810210840002868D0F0690790EF
:10909000E188206940180390002706E06020805B8B
:1090A000C1B20398C155781CC7B20798401C8742CB
:1090B000F4D3E1880798401C0818E080E0886188B4
:1090C00088423BDA6088E188401A80B20490282008
:1090D000684333494018C07A012808D1049804280D
:1090E00001DB042000E00498C0B2019007E004987E
:1090F000082801DB082000E00498C0B20190019824
:10910000401E0799884205D00198401EF0610198E1
:10911000401EB0610027A188E0684018029005E079
:109120000298C15D60208153781CC7B201988742C4
:10913000F6DBA18801980818A08010E02820684379
:1091400017494018C07A012807D128216943144AD9
:10915000891848780121FDF799F9012005900598B3
:10916000012819D10020F062012020700020E06069
:109170002061A080E080608029460B31C8B2FDF7F5
:109180000DFC684605760021417628206843044A94
:109190008018C1680698884700BF50E7006000400B
:1091A000C003012000700040FFB581B00C4601688B
:1091B0000025ED43049B93400093134606E00126EF
:1091C0009E402F46B7433D465E1CF3B2A342F6DDF8
:1091D0000B462B401946009B1943016005B0F0BDBA
:1091E0000CB5024600200190009007E00098431C57
:1091F00000931E4B984201DD0D200CBD1C48C06B36
:10920000C007C00F0028F1D118E00020009007E04F
:109210000098431C0093154B984201DD0D20ECE7AC
:1092200013484038007D202318400028F0D01078E3
:109230000F4B403B1870521C0020019008464B1EFB
:1092400099B20028E1D1009007E00098431C0093F8
:10925000064B984201DD0D20CFE705484038007DE0
:10926000402318400028F0D00020C6E7A086010067
:1092700040400040F8B506460D46244C002D01D074
:10928000002E01D10620F8BD2078002801D103204E
:10929000F9E72078012801D01120F4E7E088A842FE
:1092A00001DA0320EFE72A463146A068FAF720FFEB
:1092B000A5800020608002202070A768A0886188B7
:1092C000401A85B2102D01DD102000E02846054629
:1092D0000F484068022188430D49486005E06188D5
:1092E000481C6080785C0A4908702846691E8DB267
:1092F0000028F4D106484068022108430449486028
:109300000820FDF7CBFA0020BDE700000403012090
:109310000040004070B5294CFCF75EFD0546082072
:10932000FCF74CFD0820FCF75DFD20780821FDF7D7
:10933000D1F860780921FDF7CDF8002020490873A5
:109340002A1163685B08D0186168FAF7A7FF064620
:1093500000201B490861802008730E7003200873E9
:10936000207A002802D08720087202E000201449E9
:109370000872012012494860207A002805D008466A
:109380004068802108430E494860A07A002805D033
:109390000B48406802210843094948600B20002817
:1093A00005DBC206D20E01219140064A116000BFC2
:1093B00002210B20FCF780F970BD00001003012092
:1093C0000040004000E100E0F8B55D4C5B48E06023
:1093D0008030806880F30888FDF726FA59485B4999
:1093E000C76A456B58480068884208D00020FBF7E0
:1093F00003F801208007026902218A430261FBF71A
:109400001FF8E06880304068FBF7ACF9E068803016
:109410000068FBF7ADF9E0684D4E808DC00607D5BA
:109420004C4B072210213046FFF7BEFE012306E019
:109430000323082209213046FFF7B6FE0023062247
:1094400011463046FFF7B0FE434E0020F061022087
:10945000F061424870610120FCF728FA0320F061B6
:10946000FCF7D2FC0646FAF7B9FE0090FCF7CCFCFC
:109470006062FBF783F9BE4201D9F01B02E0384974
:10948000F01B4018E168898DC90706D0010C6943BB
:1094900080B249026843C0090AE0C1018200891A0A
:1094A0004200891A891CC200101889088030400ABD
:1094B0000D18616B206B411A28481030081881087C
:1094C000A1638007E26B800F8018E063042804D951
:1094D000491C8007800FA163E063224E6818314663
:1094E000FAF7DCFE204A1368C3181360206D0818D1
:1094F0002065B04205D95B1C31461360FAF7CEFEF9
:109500002165FBF741F9FAF769FE0099401A1749FE
:109510002A1809688A4202D2491B081A01E07D20F4
:10952000C000FBF737F9FBF73BF90220FAF75CFEC6
:109530000020FAF761FFFAF753FFF8BD000CFF1F98
:10954000240001200012FF1F2812FF1FB641210333
:109550001CF00040FB03000000100240C4090000A2
:10956000FFFFFF00710200003010FF1FB010FF1F4F
:1095700070B52748012581068860264CA068C9116E
:109580000843A0602449142008602448206024482F
:1095900060602448037816221721201DFFF704FE7F
:1095A0002148C068006AFCF781F921491F4808601A
:1095B0001F4820498030C163FF21413141621E486C
:1095C0000078FDF7BDFB1D490220FBF7EFF81C49B1
:1095D0000320FBF7EBF8FF20FBF710F80120FBF767
:1095E000EBF8FF20F530FAF7BFFE5820FBF7EAF85A
:1095F0001448FAF7BFFE2846FBF7EAF80720FAF707
:10960000C5FEE069000A00028830E06170BD00001C
:109610009021E90140F0004000E100E020B81F5037
:109620003008BE0083000120240001200180063D97
:109630000000034034080000820001207102000095
:1096400040420F0030750000F14B00000548FF1F3D
:1096500002000000090AFFFF00C201000100000033
:1096600000000000030000000000000000000000F7
:10967000FFFF0C0B0E0D140FFF0000000010004048
:1096800014100040281000403C1000407768656EC0
:109690002074657374207468697320636173652C2A
:1096A000796F752063616E20756E636F6D6D656E89
:1096B0007420636F6D6D656E7420776869636820D0
:1096C000696E2074696D657220696E742066756EAE
