:020000041FFFDC
:1008000000000000A9E6FF1FE00000201801002002
:10081000B008002000000000000000000000000000
:1008200000000000000000000000000000000000C8
:1008300000000000000000000000000000000000B8
:1008400000000000000000000000000000000000A8
:100850000000000000000000000000000000000098
:100860000000000000000000000000000000000088
:100870000000000000000000000000000000000078
:100880000000000000000000000000000000000068
:100890000000000000000000000000000000000058
:1008A0000000000000000000000000000000000048
:1008B0000000000000000000000000000000000038
:1008C0000000000000000000000000000000000028
:1008D0000000000000000000000000000000000018
:1008E0000000000000000000000000000000000008
:1008F00000000000000000000000000000000000F8
:1009000000000000000000000000000000000000E7
:1009100000000000000000000000000000000000D7
:1009200000000000000000000000000000000000C7
:1009300000000000000000000000000000000000B7
:1009400000000000000000000000000000000000A7
:100950000000000000000000000000000000000097
:100960000000000000000000000000000000000087
:100970000000000000000000000000000000000077
:100980000000000000000000000000000000000067
:10099000E5BAFF1FA9BBFF1FD9F1FF1F0000000030
:1009A0000000000000000000000000000000000047
:1009B0000000000000000000000000000000000037
:1009C0000000000000000000000000000000000027
:1009D0000000000000000000000000000000000017
:1009E0000000000000000000000000000000000007
:1009F00000000000000000000000000000000000F7
:100A000000000000000000000000000000000000E6
:100A100000000000000000000000000000000000D6
:100A200000000000000000000000000000000000C6
:100A300000000000000000000000000000000000B6
:100A400000000000000000000000000000000000A6
:100A50000000000000000000000000000000000096
:100A60000000000000000000000000000000000086
:100A70000000000000000000000000000000000076
:100A80000000000000000000000000000000000066
:100A90000000000000000000000000000000000056
:100AA0000000000000000000000000000000000046
:100AB0000000000000000000000000000000000036
:100AC0000000000000000000000000000000000026
:100AD0000000000000000000000000000000000016
:100AE0000000000000000000000000000000000006
:100AF00000000000000000000000000000000000F6
:100B000000000000000000000000000000000000E5
:100B100000000000000000000000000000000000D5
:100B200000000000000000000000000000000000C5
:100B300000000000000000000000000000000000B5
:100B400000000000000000000000000000000000A5
:100B50000000000000000000000000000000000095
:100B60000000000000000000000000000000000085
:100B700069C2FF1F0000000000000000000000002C
:100B800000000000000000009588FF1F000000002A
:100B900000000000E5B1FF1F0000000000000000A1
:100BA0000000000000000000000000008DB2FF1FE8
:100BB0000000000000000000000000000000000035
:100BC000C9B1FF1F0000000000000000000000008D
:100BD0000000000000000000000000000000000015
:100BE0000000000000000000000000000000000005
:100BF00000000000CDB0FF1F00000000000000005A
:0C0C000001FF01FF01FF01FF41000000A7
:020000041FFFDC
:10400000A86D0020D540FF1FDD40FF1FDF40FF1FD0
:1040100000000000000000000000000000000000A0
:10402000000000000000000000000000E140FF1F51
:104030000000000000000000E340FF1FE540FF1FFC
:10404000E740FF1FE740FF1FE740FF1FE740FF1F5C
:10405000E740FF1FE740FF1FE740FF1FE740FF1F4C
:10406000E740FF1FE740FF1FE740FF1FE740FF1F3C
:10407000E740FF1FE740FF1FE740FF1FE740FF1F2C
:10408000E740FF1FE740FF1FE740FF1FE740FF1F1C
:104090000000000000000000000000000000000020
:1040A0000000000000000000000000000000000010
:1040B000E740FF1F00000000E740FF1FE740FF1F31
:1040C0000348854600F042F800480047EDE3FF1F33
:1040D000A86D00200448804704480047FEE7FEE73B
:1040E000FEE7FEE7FEE7FEE78588FF1FC140FF1FF2
:1040F00003460B439B0703D009E008C9121F08C001
:10410000042AFAD203E00B780370401C491C521EAB
:10411000F9D27047D2B201E00270401C491EFBD2B6
:1041200070470022F6E710B513460A4604461946C2
:10413000FFF7F0FF204610BD0321001D401E03784D
:1041400012021A43491EF9D510467047064C012544
:10415000064E05E0E36807CC2B430C3C984710342F
:10416000B442F7D3FFF7B0FFE80100203802002087
:1041700070B58C180578401C6B075B0F01D1037874
:10418000401C2A1106D10278401C03E006780E700C
:10419000401C491C5B1EF9D12B0705D40023521E7D
:1041A0000DD40B70491CFAE70378401CCB1A921C03
:1041B00003E01D780D70491C5B1C521EF9D5A1420D
:1041C000D8D3002070BD000003B40148019001BDA8
:1041D000E9BF000003B40148019001BD45C00000E3
:1041E00003B40148019001BD0FF4000003B401487D
:1041F000019001BD4D66000003B40148019001BD6E
:104200005113000003B40148019001BD41F40000C6
:1042100003B40148019001BD61F2000003B40148FC
:10422000019001BD8117000003B40148019001BD58
:104230006102000003B40148019001BD891400002F
:1042400003B40148019001BDD117000003B4014837
:10425000019001BD5DF6000003B40148019001BD6D
:1042600075F4000003B40148019001BD59F9000044
:1042700003B40148019001BDF9BE000003B4014838
:10428000019001BD4914000003B40148019001BD33
:104290006117000003B40148019001BDB9BF0000DF
:1042A00003B40148019001BD85F8000003B4014842
:1042B000019001BD3916000003B40148019001BD11
:1042C0008913000003B40148019001BD5D2F000077
:1042D00003B40148019001BDCDF9000003B40148C9
:1042E000019001BDF1F9000003B40148019001BD46
:1042F000D111000003B40148019001BD9D180000D8
:1043000003B40148019001BDF1F1000003B401487C
:10431000019001BDF117000003B40148019001BDF7
:104320005114000003B40148019001BD691600005A
:1043300003B40148019001BD0915000003B4014810
:10434000019001BDC960000003B40148019001BDA6
:10435000B51F000003B40148019001BD9D1E00007F
:1043600003B40148019001BD991D000003B4014848
:10437000019001BD1D1B000003B40148019001BD67
:10438000ED1B000003B40148019001BD650600006B
:1043900003B40148019001BD21FA000003B40148B3
:1043A000019001BDC11F000003B40148019001BD8F
:1043B00049F4000003B40148019001BDC9F60000B2
:1043C00003B40148019001BDC520000003B40148B9
:1043D000019001BD55F0000003B40148019001BDFA
:1043E000D541000003B40148019001BD2141000006
:1043F00003B40148019001BDE9FB000003B401488A
:10440000019001BD55DD000003B40148019001BDDC
:1044100089DF000003B40148019001BD75E0000090
:1044200003B40148019001BDE1DE000003B401487E
:10443000019001BD35E1000003B40148019001BDC8
:1044400029E4000003B40148019001BD69E50000C2
:1044500003B40148019001BD91E0000003B401489C
:10446000019001BDE1E2000003B40148019001BDEB
:10447000F1E2000003B40148019001BDCDE6000067
:1044800003B40148019001BD09E9000003B40148EB
:10449000019001BDE1E7000003B40148019001BDB6
:1044A000B5DF000003B40148019001BD6DDF0000DD
:1044B00003B40148019001BD85E0000003B4014848
:1044C000019001BDD1E5000003B40148019001BD98
:1044D000CDDF000003B40148019001BD1DE00000E4
:1044E00003B40148019001BDCDE0000003B40148D0
:1044F000019001BD31E2000003B40148019001BD0B
:1045000049E7000003B40148019001BD1DDB000034
:1045100003B40148019001BD2DCF000003B4014850
:10452000019001BDA90B010003B40148019001BD38
:104530005D0B010003B40148019001BD690B01004E
:1045400003B40148019001BD250E010003B40148E8
:10455000019001BDF5E3000003B40148019001BDE5
:1045600021E3000003B40148019001BD15E3000000
:1045700003B40148019001BDC1E0000003B401484B
:10458000019001BD6DDD000003B40148019001BD43
:10459000F1DE000003B40148019001BD7574000014
:1045A00003B40148019001BD8574000003B40148C3
:1045B000019001BD0959000003B40148019001BDFB
:1045C00015F2000003B40148019001BDFDF60000A2
:1045D00003B40148019001BDC5F9000003B40148CE
:1045E000019001BDDD74000003B40148019001BDDC
:1045F000890D010003B40148019001BDD57600008A
:1046000003B40148019001BD510E000003B40148FC
:10461000019001BDFD0E000003B40148019001BDF1
:10462000A9F1000003B40148019001BDF1F30000BD
:1046300003B40148019001BD6116000003B40148B4
:10464000019001BDA916000003B40148019001BD0D
:10465000691B000003B40148019001BDA5290000B9
:1046600003B40148019001BD8529000003B401484D
:10467000019001BD0D34000003B40148019001BD5B
:104680006107000003B40148019001BD91070000DB
:1046900003B40148019001BDBD07000003B4014807
:1046A000019001BD3107000003B40148019001BD34
:1046B0007919000003B40148019001BD010D00000B
:1046C00003B40148019001BD290D000003B4014865
:1046D000019001BD6F21000003B40148019001BDAC
:1046E0008D02000003B40148019001BD5D0D000082
:1046F00003B40148019001BD990D000003B40148C5
:10470000019001BDD10D000003B40148019001BD2D
:10471000F90D000003B40148019001BD410E0000F5
:1047200003B40148019001BD89F2000003B40148BF
:10473000019001BD3975000003B40148019001BD2D
:104740008D75000003B40148019001BD8572000021
:1047500003B40148019001BDE52C010003B40148F8
:10476000019001BD7D9E000003B40148019001BD90
:10477000F59E000003B40148019001BDF94C000012
:1047800003B40148019001BDA53D000003B40148F8
:10479000019001BD5D52000003B40148019001BDCC
:1047A000552B010003B40148019001BDB1C20000C6
:1047B00003B40148019001BDF1F0000003B40148C9
:1047C000019001BDC5C5000003B40148019001BDC1
:1047D0000DC7000003B40148019001BD0BC50000E6
:1047E00003B40148019001BD3942000003B40148FF
:1047F000019001BDF140000003B40148019001BDEA
:10480000C140000003B40148019001BD5D410000BA
:1048100003B40148019001BD95C3000003B40148F1
:10482000019001BD1DC3000003B40148019001BD0A
:104830006D45000003B40148019001BD753C0000C6
:1048400003B40148019001BD7DCE000003B40148CE
:10485000019001BD71D7000003B40148019001BD72
:1048600099D7000003B40148019001BDB94300008D
:1048700003B40148019001BD3D44000003B4014868
:10488000019001BDE1D5000003B40148019001BDD4
:104890007DD2000003B40148019001BD7D4E0000AF
:1048A00003B40148019001BD95DA000003B401484A
:1048B000019001BD4D4F000003B40148019001BDBE
:1048C000E9CF000003B40148019001BD3DD80000CC
:1048D00003B40148019001BD89D4000003B401482C
:1048E000019001BD5DD6000003B40148019001BDF7
:1048F0003DC4000003B40148019001BDB551000062
:1049000003B40148019001BD3D0D010003B401480D
:10491000019001BD55E5000003B40148019001BDBF
:10492000BD9E000003B40148019001BDF5C4000024
:1049300003B40148019001BD3D3F000003B40148AC
:10494000019001BD25C2000003B40148019001BDE2
:1049500017C4000003B40148019001BDF7C2000074
:1049600003B40148019001BD01C4000003B4014833
:10497000019001BDD938000003B40148019001BD88
:10498000DBC2000003B40148019001BDE1C1000099
:1049900003B40148019001BD41CF000003B40148B8
:1049A000019001BD199F000003B40148019001BDB1
:1049B000C9C5000003B40148019001BD8DC90000C4
:1049C00003B40148019001BD39CD000003B4014892
:1049D000019001BD35D3000003B40148019001BD31
:1049E0006959000003B40148019001BD15000100A0
:1049F00003B40148019001BD59C5000003B401484A
:104A0000019001BD99C4000003B40148019001BDAB
:104A1000D54A000003B40148019001BD3D290000C2
:104A200003B40148019001BD9534000003B401486E
:104A3000019001BD6913000003B40148019001BD5C
:104A4000E11D000003B40148019001BDB55E000006
:104A500003B40148019001BD65B7000003B40148EB
:104A6000019001BDD5F6000003B40148019001BDDD
:104A7000DDFB000003B40148019001BD999E0000D8
:104A800003B40148019001BDED75000003B4014875
:104A9000019001BD3903000003B40148019001BD3C
:104AA00001E4000003B40148019001BD7DE5000070
:104AB00003B40148019001BDD100010003B40148D5
:104AC000019001BDD1EB000003B40148019001BD8C
:104AD000F50D010003B40148019001BD2D680000EF
:104AE00003B40148019001BDB90D010003B40148B0
:104AF000019001BDFDE2000003B40148019001BD39
:104B0000E9E3000003B40148019001BD3DE4000069
:104B100000BF00BF00BF704770B5044600250B49B9
:104B20000B4801F05FFB0B49094801F05BFB0A48A9
:104B3000FFF74AFBE007C00F002805D0074A07210E
:104B4000074801F087FD0546284670BD4A0500204C
:104B5000FFFF000054050020654BFF1F6CFFFF1F87
:104B60005C05002070B505460C460B48854211D007
:104B7000012C07D0022C0DD101212846FFF72AFB7A
:104B8000002807D10549284601F02CFB0449284696
:104B900001F028FB70BD0000FEFF00004A05002068
:104BA00054050020F8B50D4616461C46002000901E
:104BB000287802282DD16868007869684978090248
:104BC000401887B2394629A009F05EFF2B483818F3
:104BD000002802D0012812D108E02948007820706E
:104BE00022783046E968FFF7FBFA10E025480078A4
:104BF000207022783046E968FFF7F2FA07E00020DB
:104C000020700A20009020A009F03EFF00BF00BFE6
:104C100029E06868007B6968497B0902401887B20F
:104C200016483818002802D0012812D108E014488C
:104C30000078207022783046E968FFF7D1FA10E05A
:104C400010480078207022783046E968FFF7C8FAEB
:104C500007E0002020700A2000900BA009F014FF4C
:104C600000BF00BF00BF0098F8BD000031362075BE
:104C70007569643A25580A0D00000000FF4FFFFFD8
:104C8000400500204105002075756964206E6F7431
:104C90002066696E640A0D00FFB583B006460C46B7
:104CA00017460C9D00200290207A10210840002811
:104CB00002D0082007B0F0BD002D01DD0B20F9E780
:104CC0002078022802D02078102808D10D9800956D
:104CD00001903A4621463046069BFFF763FF029853
:104CE000E8E700000146002903D0034801600020E6
:104CF00070471120FCE7000044050020FEB5054682
:104D00000C4616460027002D02D0012D2ED116E0AC
:104D1000002C12DD224631461748FFF761FA17488A
:104D20000470FF200721164B0022009101901249C8
:104D3000144801F0B3FA074600E0182718E0002CE9
:104D400012DD224631461048FFF74AFA0F48047038
:104D5000FF2007210A4B0022009101900A490C48CC
:104D600001F09CFA074600E0182701E0022700BF87
:104D700000BF3846FEBD000073350020400500200E
:104D80005C0500204A0500208735002041050020F1
:104D900054050020FFB583B007460C460025FF26CA
:104DA000207A20210840002802D0082007B0F0BD5A
:104DB0002078022830D1606800786168497809025B
:104DC000401880B202901E490298401800281FD156
:104DD00001210C980191009021463846069B059AC6
:104DE00001F026FA0546002D11D161891548408F42
:104DF000814203D114A009F047FE08E061891148FF
:104E000060304089814202D116A009F03DFE01E0E8
:104E10000A2500BF00BF00E00125FF2E0DD0184875
:104E20000068002809D0164800680068002804D0EF
:104E3000134800680168304688472846B6E70000F6
:104E4000FED6FFFF5C050020617564696F207374F6
:104E500061727420636D6420656E61626C650A0D19
:104E600000000000617564696F20646174612074E2
:104E700072616E736620656E61626C650A0D00007A
:104E80004405002010B500240549064801F0AAF9A0
:104E9000054A0621054801F0DDFB0446204610BD09
:104EA000D4040020FFFF000028FFFF1FE0040020C3
:104EB00010B502460023002A06D0012A08D0022A93
:104EC0000AD0032A1CD10BE010480078087019E0C2
:104ED0000F480078087015E00E484089088011E0FE
:104EE00008460D4C247804710B4C64784471094CCD
:104EF000648D0480074C648F44800124847101E038
:104F0000022300BF00BF184610BD0000CA040020E5
:104F1000C8040020E0040020DC04002070B5054631
:104F20000C46094885420DD0012C07D0022C09D12E
:104F300001212846FFF74EF9002803D103492846EE
:104F400001F050F970BD0000FEFF0000D404002005
:104F500010B503F0FEFD044604480078844203DAED
:104F60000248047003F022FE002010BDCA04002095
:104F70000149086070470000C404002010B5034ACE
:104F80001321034801F066FB10BD0000E8FEFF1F7F
:104F900050020020F8B504460F461546A068401997
:104FA0006169461A2046216902F019FC002818D0D0
:104FB000002E05DC2A463946A068FFF799F80AE07A
:104FC000AA1B3946A068FFF793F87A19911B32465D
:104FD000E068FFF78DF82946204603F0AFFC28462D
:104FE000F8BD0020C043FBE770B505460C4600261F
:104FF00001208002281A0300FFF7F8F80F090D11AD
:1050000015191D23272B432F33373B3F43002348DC
:10501000007820703EE02248008820803AE0214855
:105020000078207036E020480078207032E01F4879
:10503000007820702EE010221D492046FFF7D0F89E
:1050400028E01C480078207024E01B48007820707D
:1050500020E01A48006820601CE0194800782070A1
:1050600018E018480078207014E017480078207085
:1050700010E01648007820700CE004F0A3FA2070CD
:1050800008E0272D04DA2846FFF7B6F8208000E074
:10509000022600BF00BF304670BD0000B1030020F3
:1050A000B2030020B4030020B5030020B6030020A3
:1050B00078340020B7030020BA030020BC0300208E
:1050C000B8030020B9030020C0030020C80300205B
:1050D00010B504460248047004F0F8FB10BD00004F
:1050E000B0030020FFB58DB000200B900C900BAAF0
:1050F0000E990D9800F038FA04460A2C5EDA204624
:1051000004F0BBFB054634480078022801D1012099
:1051100000E0002000902A462146109B0F9804F0E2
:1051200021FA1422002106A8FFF76CF82146062276
:1051300051432431C8B206AA102109F0EFFB002820
:1051400015D11022FF2106A8FFF762F800280ED122
:105150002146062251432531C8B20AAA042109F08A
:10516000DDFBE907C90F06AA0F98FFF757F821469C
:105170007031C8B202AA102109F0D0FB002813D167
:1051800002A804F08EFB00260CE0B00002A947182C
:105190003888002804D0BA7839880F9801F0AAFA24
:1051A000701CC6B2042EF0DB02202840002804D078
:1051B0000A4801780F9801F087FA00BF1098042878
:1051C00006D105480078022802D10F9804F0E8FBC8
:1051D000002011B0F0BD0000B1030020B00300209A
:1051E000F8B504460D4616460027002D10D10B4990
:1051F0003046FFF719F80E4621463046FFF71AF8F9
:105200000746002F08D001212046FFF719F803E0D8
:1052100029462046FFF714F83846F8BD40420F00F3
:1052200070B506460C460120C0032040002812D06D
:1052300027480078FFF70AF8051E07D0284604F033
:105240004BFC002802D02846FFF706F82046012133
:10525000C903484070BD02202040002810D0002122
:10526000084604F01BF8002808D0012118480078EF
:10527000FEF7F8FF204602214840EBE70220E9E76D
:10528000E007C00F002820D012490968888804F080
:105290003FFC002817D01048006800280DD00E48A9
:1052A00000684068002808D00A49096888880A49C7
:1052B000096800224B680121984703F0DBFF204674
:1052C00001214840C6E70120C4E70020C2E70000F2
:1052D000B0030020CC030020C40300207FB50446A7
:1052E000A078801F0300FEF781FF0AECFDFD8B25EF
:1052F00006FDFD799FFD25468948006800280DD0F0
:10530000874800680068002808D06B7B2A7B698981
:10531000834800680668E81CB0470AE0698981484C
:105320000068FEF787FF002803D068890121FEF797
:1053300087FFF2E02546687800283ED1A879C007AB
:10534000C00F002839D078480068002835D10E22D7
:1053500000216846FEF756FF6869002807D0686993
:105360000146103106226846FEF73AFF0DE0A88894
:10537000FEF77EFF0646002E05D00622B11D6846C8
:10538000FEF72EFF00E0C8E000BF69468889A979D2
:1053900004221140890808436946888129466846E5
:1053A00003F07CFF002807D1022160480078FEF757
:1053B00059FF002004B070BD00BF594800680028A4
:1053C0000BD0574800684068002806D06A78A88843
:1053D000534909684B68012198479EE0254650488B
:1053E000006800280BD04E4800684068002806D0AE
:1053F0006278A8884A4909684B68022198478CE07E
:105400002546E8780022291D00F0AEF806460A2E4F
:1054100009DA3146062251432531C8B22A460C32F8
:10542000042109F0A7FA78E02546414800780028D1
:1054300005D0A8883F490978FEF702FF40E03E48C2
:105440000078002804D1A8880521FEF7F9FE37E08E
:10545000A888FEF70DFF0646A87AC007C00F0028EF
:1054600017D0002E14D07079002812D0287BC006E7
:10547000C00F00280DD1707902AAB11D00F074F898
:10548000002804D1A8880321FEF7DAFE45E000E0F9
:1054900043E07179A8882A46083203F0C5FF204806
:1054A000006800280BD01E4800684068002806D01D
:1054B000A8881B49096800224B681146984700BF1D
:1054C0002BE0FEF7DBFE002825D11C4800780128E0
:1054D0000CD104F0C6F80020184908700A220021F7
:1054E000174800E018E0FEF78DFE0FE000250BE006
:1054F0001348405D012805D1284604F0C3F8002078
:105500000F494855681CC5B20A2DF1DB502009F03F
:1055100001FA04F0DBF900E000BF00BF012049E719
:10552000C4030020BC030020CC030020B0030020F3
:10553000B8030020B9030020B1030020C9030020F4
:105540001435002010B5044605480460054801786C
:105550002620FEF799FE0348007801F075F810BD8B
:10556000C4030020B0030020F8B506460F461446D9
:105570000A25002E06D0012E05D0022E11D0032EB2
:1055800029D11BE000BF384604F0FEF805460A2D7D
:1055900006DA002C04D0062239462046FEF720FE0B
:1055A0001AE0384604F032F905460A2D05DA002CD7
:1055B00003D02146284604F043F90DE0384604F0B4
:1055C000BFF905460A2D05DA002C03D021462846EE
:1055D00004F036F900E000BF00BF2846F8BD000027
:1055E000F8B506460C46152000901C48864214D19A
:1055F00000250AE022460221284603F0FBFF00288E
:1056000001D000200090681CC5B20A2DF2DB002CEE
:1056100002D01348FEF73EFE1DE03046FEF728FE9E
:105620000546002D14D068790022A91DFFF79CFFC4
:1056300007460A2F06DA22460221384603F0DAFF2F
:1056400000200090002C02D0284604F09FF901E0D1
:105650001420009000BF0098F8BD0000FFFF00007C
:105660008D99FF1FFEB506460D4614460020029098
:1056700001208002301A0300FEF7B8FD110A161F40
:105680002B37434E5A6370ABB7C3D2E5E585E500CF
:10569000012D06D12078022803DC20787249087099
:1056A00001E018200290DBE0022D03D120886F4931
:1056B000088001E018200290D2E0012D06D1207868
:1056C000012803DC20786A49087001E01820029064
:1056D000C6E0012D06D12078042803DC2078654936
:1056E000087001E018200290BAE0012D06D1207860
:1056F000012803DC20786049087001E0182002903E
:10570000AEE0102D05D1102221465C48FEF768FD61
:1057100001E018200290A3E0012D06D12078012895
:1057200003DC20785649087001E01820029097E0C9
:10573000012D03D120785349087001E01820029010
:105740008EE0042D07D150492068884203D84F4984
:105750002068086001E01820029081E0002D0FD140
:10576000FEF78CFD002807D103F07BFF502009F0E5
:10577000D1F804F0ABF805E001204549087001E0DC
:10578000182002906CE0072D20D10622611C68468B
:10579000FEF786FD207800226946FFF7E5FE074602
:1057A0000A2F10DAFEF76AFD002808D1384603F008
:1057B00069FF502009F0AEF804F088F805E00120F8
:1057C0003449C85501E00220029001E018200290FF
:1057D00046E0012D06D12078012803DC20782E49EF
:1057E000087001E0182002903AE0012D06D12078DF
:1057F000092803DC20782949087001E0182002906C
:105800002EE0012D09D12078072806DB207810280A
:1058100003DC20782249087001E0182002901FE084
:10582000012D0DD11F48077820781E490870002FE0
:1058300005D108460078012801D104F047F801E0BD
:10584000182002900CE0272E07DA022D05D12188BE
:105850003046FEF719FD029001E00220029000BFE1
:1058600000BF0298FEBD0000B1030020B20300207B
:10587000B4030020B5030020B603002078340020D4
:10588000B7030020BA0300203F420F00BC030020F2
:10589000C903002014350020B8030020B9030020FC
:1058A000C0030020C8030020F7B582B005460E46AD
:1058B00015200190174885420FD100240AE0314697
:1058C0002046049A04F088F8002801D000200190B6
:1058D000601CC4B20A2CF2DB18E02846FEF7C8FCB4
:1058E0000446002C0FD060790022A11DFFF73CFE7A
:1058F00007460A2F06DA31463846049A04F06CF857
:105900000020019001E01420019000BF019805B033
:10591000F0BD0000FFFF000070B505460C460026F4
:1059200003200002281A0300FEF760FC1D10141A61
:1059300020242A2E32394044484E52565A5E62661E
:105940006A6E72787C809084888C900045480078DC
:10595000207084E0102244492046FEF741FC7EE09E
:10596000102242492046FEF73BFC78E040480068A0
:10597000206074E006223F492046FEF731FC6EE0CD
:105980003D48007820706AE03C480088208066E04E
:105990003B4802783B492046FEF722FC5FE03A484C
:1059A00002783A492046FEF71BFC58E03848007858
:1059B000207054E037480078207050E006223649C5
:1059C0002046FEF70DFC4AE034480078207046E09F
:1059D00033480078207042E03248008820803EE062
:1059E0003148008820803AE030480078208036E056
:1059F0002F480088208032E02E48008820802EE04A
:105A00002D48008820802AE02C480088208026E04D
:105A100006222B492046FEF7E3FB20E029480088B8
:105A200020801CE028480088208018E02748008853
:105A3000208014E026480078207010E02548008877
:105A400020800CE024480088208008E0272D04DA1C
:105A50002846FEF7D1FB208000E0022600BF00BFF1
:105A6000304670BD5E0400203435002044350020EF
:105A700060040020640400206A0400206C040020FC
:105A80006E0400206F0400208E0400205435002096
:105A90008F0400209004002091040020970400202F
:105AA000980400209A040020A0040020A8040020EC
:105AB000AA040020AC040020AE040020B0040020A2
:105AC000A2040020B2040020B4040020B604002088
:105AD0005D0400209C0400209E04002010B50446B4
:105AE00013480470002013490870401E12490880B2
:105AF0000F480078FEF7DAFB0420104908701022E6
:105B000000210F48FEF77EFB102200210D48FEF712
:105B100079FB00200C4908600C4908700C4908709A
:105B200001200C49087000200B49087010BD0000CE
:105B30005C0400205D0400209A0400205E04002024
:105B40003435002044350020600400208F040020FC
:105B5000900400209704002098040020FEB506461B
:105B60000C460120C0032040002810D04748007890
:105B7000FEF76CFB051E05D0284604F0FBF928460D
:105B8000FEF76AFB20460121C9034840FEBD012003
:105B900080032040002804D020460121890348408A
:105BA000F4E7E007C00F00283ED03948007800280D
:105BB00036D038480078052803D10320694608709C
:105BC0000CE0354801786846017034480178684631
:105BD000417006223249801CFEF702FB31480178F1
:105BE0006846017230480178684641726946274824
:105BF0000078FEF761FB002811D0072025490870C6
:105C00002A48006800280AD0284800680068002850
:105C100005D02648006801681E480078884700BF04
:105C2000204601214840B1E702202040002816D03C
:105C30001848007805280ED11D480088FEF742FB61
:105C40001C480088002806D01A48028802210F4804
:105C50000078FEF73DFB20460221484096E70420ED
:105C60002040002806D0002004F0FCF92046042142
:105C700048408BE708202040002805D003F0C8FFEB
:105C800020460821484081E700207FE75C0400208F
:105C90006A0400205D0400208F040020900400208E
:105CA000910400209704002098040020BC040020E8
:105CB0009A040020A0040020F8B504460D461746BB
:105CC0001E4617480078052801D01420F8BD062C80
:105CD00023DB1920C00184421FDA062D1DDB85421B
:105CE0001BDAFF20F530874217DA0A2E15DB192060
:105CF000C001864211DA0B4804800B4805800B482E
:105D000007800B480680069804F0ACF90421094886
:105D10000078FEF7E3FA0020D8E71820D6E7000065
:105D20005D040020AA040020AC040020AE04002082
:105D3000B00400205C040020F8B506460C46154669
:105D400000200090BA4830180300FEF74FFA190EF1
:105D50001924FD2D6A738DA7B3BFCAD6FDE2FCFBE3
:105D6000FAF9F8FDFDFDFDF7FD00102C05D110221C
:105D70002946B048FEF734FA01E01820009054E1BB
:105D8000102C05D110222946AB48FEF729FA01E074
:105D90001820009049E1042C03D1A8492868086024
:105DA00001E01820009040E1012C37D1A448077889
:105DB0002878A3490870002F14D0084600780028DE
:105DC00010D1A0480078022807D09E480078062805
:105DD00003D09C48007804281FD19B480078FEF728
:105DE00083FA1AE0002F18D195480078002814D0C3
:105DF0009448007801280BD092480078032807D0F7
:105E000090480078052803D08E480078042804D1F3
:105E100001218D480078FEF725FA01E01820009056
:105E200003E1022C03D128888849088001E018206A
:105E30000090FAE01F2C14DC1F2200218448FEF79A
:105E4000E1F9224629468248FEF7CAF981480470E2
:105E50007F4B224601217C480078FEF74BFA0090E8
:105E600001E018200090E0E01F2C14DC1F2200212C
:105E70007948FEF7C7F9224629467748FEF7B0F978
:105E800076480470744B027800216F480078FEF762
:105E900031FA009001E018200090C6E0012C06D1F4
:105EA0002878042803DC28786D49087001E0182060
:105EB0000090BAE0012C06D12878032803DC28786A
:105EC0006849087001E018200090AEE0062C05D16A
:105ED000062229466448FEF783F901E01820009065
:105EE000A3E0012C06D12878072803DC28785F4935
:105EF000087001E01820009097E0012C06D1287866
:105F0000032803DC28785A49087001E01820009023
:105F10008BE0022C19D12888564908800846008851
:105F2000002814D047480078052810D10846028878
:105F3000022145480078FEF7CBF908E04EE03EE04C
:105F400030E020E010E003E062E0182000906CE018
:105F5000012C06D12878012803DC287846490870EE
:105F600001E01820009060E02888022C08D1062863
:105F700006DB1921C901884202DC4049088001E0A2
:105F80001821009151E02888022C08D1062806DB50
:105F90001921C901884202DC3949088001E0182131
:105FA000009142E02888022C06D1FF21F531884279
:105FB00002DA3449088001E01821009135E0288890
:105FC000022C08D10A2806DB1921C901884202DC0B
:105FD0002D49088001E01821009126E02F78012C3E
:105FE00013D1012F11D1082117480078FEF788F945
:105FF000002807D104F036F8042113480078FEF792
:106000006DF904E01620009001E0182000900CE0EB
:10601000272E07DA022C05D129883046FEF734F9FD
:10602000009001E00220009000BF00BF0098F8BD82
:10603000FFFCFFFF343500204435002060040020C1
:106040006A0400205D0400205C0400206C04002031
:106050006F0400206E040020543500208E040020C0
:106060008F04002090040020910400209704002059
:1060700098040020A0040020A8040020AA04002006
:10608000AC040020AE040020B004002010B504468B
:1060900006480078002807D1002C01D0044804608D
:1060A00003F0C8FF002010BD1120FCE75D040020B4
:1060B000BC04002010B507480078052807D113223A
:1060C0000548018805480078FEF720F910BD122028
:1060D000FCE700005D0400209A0400205C0400201E
:1060E000F8B507460C461E4602252300FEF77EF84B
:1060F0000A0F06080C090F0D0F0B0E0F002508E004
:1061000007E0002505E004E003E002E001E00225ED
:1061100000BF00BF002D0FD121463846FEF7FCF826
:106120000546002D08D13046079A0699FEF7FAF881
:10613000FEF7FEF8FEF702F92846F8BD70B50446F2
:106140000025E007C00F002805D0044A01210448BB
:1061500000F080FA0546284670BD0000FCFEFF1FD7
:10616000A003002010B503460C46002109E00801F9
:10617000C018C068904202D10801C01810BD481C68
:1061800081B2A142F3DB0020F8E7000010B504461D
:106190000F4804700F49104800F024F800200AE06E
:1061A0000021C943C2000D4B99520021C200D218F0
:1061B0005160411CC8B20128F2DB142004F05AFCE3
:1061C00003480078FEF7C0F80548FDF7FDFF10BD55
:1061D0008003002096030020FFFF000084030020BE
:1061E0001DA2FF1F70B506460C46104886420ED110
:1061F000002009E00021C9438200A1520021820051
:1062000012199170411CC8B20228F3DB0CE0214640
:10621000304603F0B6FF0546002D04D00020C043F1
:1062200028800020A87000BF70BD0000FFFF0000A4
:10623000FFB581B00C4615461F46002000900A9815
:10624000002826D1022F21D1287869780902401828
:1062500086B231460B988143002914D1E168019838
:1062600000F0E4F9B04210D03246E168019800F045
:1062700077FA00900098002807D16189324601988A
:1062800000F002FA01E08020009004E00D20009070
:1062900001E00B200090009805B0F0BDFFB58BB079
:1062A0001D460026002743E0B9000B980C182088F3
:1062B000224988423AD0A078002837D028460C9A44
:1062C0001499FFF74FFF0A900A9800282DD0142147
:1062D000002204A802300192029100906A8920886D
:1062E00004AB033303900A9900F04EF800281BD149
:1062F0000A98408969460882A078C007C00F002824
:1063000005D0208804A90D9AFEF724F80643A0784A
:1063100002210840002807D02088039004A9159B7B
:106320000D9AFEF71DF8064300BF00BF781CC7B2E8
:10633000022FB9DB30460FB0F0BD0000FFFF0000B8
:1063400070B506460C460120C0032040002816D038
:106350000C480078FDF77AFF051E0BD02878B0288E
:1063600003D1284604F062F800E000BF00BF2846D1
:10637000FDF772FF20460121C903484070BD00208F
:10638000FCE7000080030020FFB587B00D461C46E7
:10639000109E002006900590287A102108400028C1
:1063A00014D0099803F0E2FE0746002F05D00A2218
:1063B00029460798B847059001E00E2005900598FA
:1063C000002802D005980BB0F0BD00BF2878022845
:1063D0007ED168680078696849780902401880B2FF
:1063E0000490292212020498811A904271D009DC8B
:1063F0008B49401A0FD001280ED0022848D003281C
:1064000068D118E0012966D002297DD003297CD00B
:106410000429F5D1C9E000BF1198002808D1EF6820
:10642000387830703A7820467968FDF7D9FE01E077
:106430000B200590D6E01198002826D1012030705D
:10644000E868007820706989491C88B20021FDF74E
:106450008DFF0746002F0FD031783878801C081840
:106460003070B87A607078890012A0703A78E01CB9
:106470007968FDF7B5FE07E03078001D3070042222
:106480000021601CFDF7BEFE01E00B200590A9E095
:106490001198002844D1E8680088019004203070E9
:1064A0000198207001980012607003A90198FDF70F
:1064B0005DFF0746002F29D0F868009002AB6846C0
:1064C000828958493846FDF757FF00280ED103E06E
:1064D0008AE039E083E046E03B78022152487A685E
:1064E000FDF750FF002801D1401E0290009800786F
:1064F000022808D1009802224168201DFDF770FE95
:106500003078801C307003E00DE01EE001980290AE
:1065100068460089A070684600890012E07001E0BA
:106520000B2005905EE0119800280AD1E9680798D1
:1065300000F07CF807460220307027703812607037
:1065400001E00B2005904DE000BF1198002807D115
:10655000E96808880221317020700112617001E041
:106560000B2005903EE0E868FDF712FFC7B21198D6
:10657000B84217DC1198B84201D1002709E01299FE
:1065800011984018B84201DA129F02E01198381AA7
:10659000C7B23770EA68119811183A462046FDF7DD
:1065A0001FFE01E0072005901CE01198002813D180
:1065B000E868072131700178217041786170817835
:1065C000A17041880912E1700179217181796171AD
:1065D000C1880912A17101E00B20059002E00120A1
:1065E000069000BF00BF01E0012006900698012838
:1065F00013D1099803F0EAFD0746002F0AD012993B
:106600001198334622460191009029460798B847D1
:10661000059001E00E20059000BF0598D3E600002C
:1066200000280000FFFF0000DA2F010070B50546CA
:106630000E463146284603F0A4FD0446002C01D046
:10664000A07870BD0020FCE7014908707047000089
:1066500081030020FEB504460F461646002C0FD0DD
:10666000019468460780FDF799FE0546002D06D186
:10667000002E04D06089314604F0D4F9054600E0CC
:1066800002252846FEBD0000F8B505460E46174611
:106690000C480078FF2813D00A20FDF785FE044639
:1066A000002C0CD0B120207000206070207165801B
:1066B000E6802781214603480078FDF77BFE00BF76
:1066C000F8BD00008103002070B504460D4608495E
:1066D0002046FFF7ABFF064602203040002804D0DA
:1066E00029462046FDF76CFE70BD0120FCE7000046
:1066F000960300207CB505460E4614466846047194
:106700002004010E684641710020022301AA31468F
:106710000090284600F001F87CBDFFB583B00D461F
:106720001E4602A92846FDF721FE01900198002887
:1067300011D06846008903F065FD0746002F08D098
:106740000C98F3B20090059A01990398B847044653
:1067500000E00E2400E00124204607B0F0BD000058
:10676000F8B505460F4616463946284603F009FD9A
:106770000446002C09D13946054803F002FD0446C1
:10678000002C01D11120F8BD2580A6700020FAE769
:10679000FFFF000070B504460025E007C00F002889
:1067A00005D0044A07210448FFF754FF0546284650
:1067B00070BD000010FFFF1FEC030020F8B5064677
:1067C0000C46154600273300FDF710FD0805143C64
:1067D0003C1C3C26313C152C0ADC162200211C48AE
:1067E000FDF710FD224629461948FDF7F9FC00E0A7
:1067F000182729E0022C03D128881649088000E0D8
:10680000182721E0082C05D1082229461248FDF757
:106810006FFC00E0182717E0012C06D10F492878FB
:10682000CA69283104F03EFA00E018270CE0012C78
:1068300006D10A492878CA6B483104F033FA00E0DF
:10684000182701E0022700BF00BF3846F8BD00004E
:106850001E350020DE030020E2030020EC030020B0
:1068600010B501468B684A689A4203D84B688A681B
:10687000D01A06E0CB688A68D21A4C684B691B1B99
:10688000D01810BD074A9278002A04D04A1E11423F
:1068900003D01220704702207047034AD070118144
:1068A000002070475C2AFF1FC4310020F8B507465E
:1068B0000C4621465CA008F0E7F80120C003204008
:1068C00000280FD05C480078FDF7C0FC054602E0C8
:1068D0002846FDF7C1FC002DFAD120460121C9034D
:1068E0004840F8BDE007C00F002803D02046012132
:1068F0004840F6E70220204000280ED04FA008F0C4
:10690000C3F8262005F090F801214F480078FDF7E4
:10691000A9FC204602214840E3E70420204000284B
:1069200024D04AA008F0B0F8262005F0FDF8002099
:106930004A49487000214A480078FFF7A3FF022126
:1069400041480078FDF78EFC042145480078FDF7AA
:10695000C5FC002006F040F81E22082140480078BF
:10696000FDF7B6FC204604214840BAE70820204045
:10697000002857D000263B480078062809D139481E
:106980004078012805D102212B480078FDF76AFCE8
:1069900044E034480078062809D13248407800287D
:1069A00005D1042124480078FDF75CFC36E02D4831
:1069B00000780F2809D12B484078012805D10926F5
:1069C0000121304605F072FC28E0264800780F28A7
:1069D00009D124484078002805D1002600213046FE
:1069E00005F064FC1AE01F480078102809D11D4802
:1069F0004078012805D10A260121304605F056FCD1
:106A00000CE018480078102808D116484078002873
:106A100004D100260021304605F048FC204608211C
:106A200048405EE700205CE748616C5F50726F632E
:106A30006573733A25780A00793100204B65792017
:106A400070726573730A0D00B80800204B657920D9
:106A500072656C656173650A0D000000905100203D
:106A6000480800207C310020014908707047000070
:106A70007931002038B50446114804700020009098
:106A80006A4601210F48FEF7EDFD0020C043FFF7E5
:106A900081FE0020C043FFF751FBFEF76FFAFEF7BF
:106AA000F1F901F0D3FE0020FEF762FA064801F08A
:106AB000E3FE012102480078FDF7D4FB38BD000059
:106AC000400600200D040000A56FFF1F70B50646AC
:106AD0000C463D493DA007F0D7FF0120C0032040F0
:106AE000002810D03A480078FDF7B0FB051E05D00D
:106AF000284605F015FF2846FDF7AEFB204601218C
:106B0000C903484070BDE007C00F002811D03148CC
:106B1000FFF7BCFA3048FEF715FD002211462F485A
:106B2000FEF7A0FD2EA007F0AFFF20460121484050
:106B3000E8E704202040002813D02E4800780528DC
:106B40000BD12D480078002805D005F0CBFE2BA0F6
:106B500007F09AFF01E0FFF7ADFA20460421484014
:106B6000D0E702202040002805D005F0B1FB2046E8
:106B700002214840C6E708202040002821D02548AF
:106B80000078002819D024A007F07EFF05F0C0FB94
:106B90000546002D05D0AA7869782878EB1C05F009
:106BA00049FE2248007822490978884203D12046CC
:106BB00008214840A6E72046A4E72046082148408F
:106BC000A0E700209EE700009CFFFF1F25730A003E
:106BD000400600205C06002094FFFF1F090400000F
:106BE00073746172742044657669636520455654F8
:106BF0000A0D000041060020460600206869644432
:106C00006576537461727449646C6554696D65721C
:106C1000200A0D004206002053656E642048696416
:106C2000205265706F72740A0D0000005906002032
:106C30005A060020FFB585B00D461E460020049080
:106C400068680078696849780902401884B20E982B
:106C5000002805DD4148844202D00B2009B0F0BD78
:106C60003E48801C84420AD03C482938844206D0E1
:106C70003A481938844202D0401C844218D16889AD
:106C800005F098FD039000280FD00798009601901A
:106C90000398417900790290314800680123224627
:106CA00007680298B847049050E0002030704DE02B
:106CB0002A4884421DD12B4909880E98884202DB5C
:106CC0000720049042E0274801880E98091A0F987F
:106CD000814201DD0F9803E0224801880E98081ACE
:106CE00030703278EB680E9819180798FDF778FA2B
:106CF0002CE01A48401E844207D104203070042240
:106D0000E9680798FDF76CFA20E01748844207D13C
:106D1000022030700222E9680798FDF761FA15E059
:106D20000E48C01C844206D101203070E86801780A
:106D3000079801700AE00C48401E844206D10220E8
:106D400030700222E9680798FDF74AFA0498002893
:106D500001D105F0C7FD049880E700004B2A000030
:106D6000500600206406002008290000024A116035
:106D7000024A1060704700005006002054060020B0
:106D8000024A1160024A1070704700004806002055
:106D90004C060020F8B504460D4616461F46164818
:106DA0000078052813D11548007800281CD0144815
:106DB000007814490978884216D13B463246294664
:106DC000204605F037FD10A007F05EFEF8BD0A482A
:106DD0000078022808D005F08FFA002802DD05F0BF
:106DE000E3FB01E005F0FEFB3B4632462946204628
:106DF00005F0E4FA00BFE9E7410600204206002062
:106E0000590600205A06002073656E64206B657970
:106E100020616374696F6E0A0D000000FFB585B0D4
:106E20001446002004900E98002802DD0B2009B0C3
:106E3000F0BD0698406800780699496849780902CB
:106E4000401886B24F48864203D04E481B388642CF
:106E500014D10699488905F0ADFC051E0DD008A88F
:106E600001940090697928790390474800680023CD
:106E7000324607680398B84704907BE04148401EBB
:106E800086421BD108A80078012814D12078002858
:106E900002D0207801280BD12278002A01D00122CB
:106EA00000E000221046384A12685168884761E0C5
:106EB000802004905EE00D2004905BE03348864221
:106EC00035D101210E980191009008A8037822463F
:106ED00006990598FFF7ACF904900498002849D169
:106EE000207861780902401880B203900699488999
:106EF00005F036FC051E19D02548408D698888426A
:106F000003D124A0039907F0BFFD08A801940090C5
:106F1000039A012A01D1022200E003221346697973
:106F20002879194A126817683246B84722E015488E
:106F3000401C86421ED108A80078012818D120786C
:106F4000002802D0207801280FD121780698C06847
:106F500001702278002A01D1022200E003221046AB
:106F6000094A12685168884704E08020049001E0D3
:106F70000D2004900498002801D105F0B3FC04987A
:106F800055E700004D2A00005006002002290000AD
:106F90002E360020417564696F206366672534587A
:106FA0000A0D00007047000010B500243F4940481A
:106FB000FFF718F93F493E48FFF714F93E493C48AE
:106FC000FFF710F93D4A1B213D48FFF743FB0446FC
:106FD0003B48C1690220FDF76BFF3A4800783A4907
:106FE00008713848407848713548C0304089088079
:106FF0003348D03040894880012088713348017877
:1070000031480173314841782F48417330484089F5
:107010002D49088100212C48418101218173294893
:107020000178294801752748417827484175284843
:10703000303040892449088225484030418922481F
:10704000418200218175214801781F4801771F483E
:1070500041781D4841771E48603040891A490883AD
:1070600000211948418381771A4801781648203059
:10707000017118484178144820304171144880301B
:107080004089114908841248903041890E48418452
:10709000012120308171014610390320FDF708FFDE
:1070A00009490520FFF76CFE204610BD720600203E
:1070B000FFFF0000820600208E06002084000020D2
:1070C000980600207A0600202E3600207E0600203A
:1070D000980700209606002030B50546039C0F480F
:1070E000101800280ED01B2812D1022905D10C48F7
:1070F000007820700120187003E0032901D00020DF
:10710000187008E00748007820700120187002E02D
:107110000020187000BF00BF002030BDCED5FFFF9B
:107120007D0600208B06002030B587B004465A4803
:1071300004705A495AA007F0A7FC0F211F20FDF741
:10714000A3F80620574908700D204880FF20023020
:10715000888005205449096848655349096888654D
:107160000121069100210591012104910A21039139
:10717000029132210191FF21F531009106AA0121EE
:107180004A48FEF7D9FD05AA02214848401CFEF7EF
:10719000D3FD474A0D214548801CFEF7CDFD454AE9
:1071A0000B216120C000FEF7C7FD04AA0121312098
:1071B0000001FEF7C1FD03AA02213C480C30FEF796
:1071C000BBFD02AA022139480D30FEF7B5FD01AA28
:1071D000022136480E30FEF7AFFD6A460221C52077
:1071E0008000FEF7A9FD344A15210020FFF7E6FADA
:1071F00000200690022105910021049103210391B2
:107200000121029106AA04218120C000FEF72AFA7A
:1072100005AA01218802FEF725FA04AA01212348C4
:10722000FD30FEF71FFA03AA01212048FE30FEF7C9
:1072300019FA02AA01212148FEF714FAA0252946CD
:107240000620FDF721F829460720FDF71DF82946FD
:107250000820FDF719F829460920FDF715F8002048
:10726000C043FDF759FCFFF79FFE15491548FFF78E
:107270007DFD1548FDF736FD144807F063FA054615
:10728000294613A007F000FC012103480078FCF711
:10729000E9FF07B030BD0000480800209000002042
:1072A00025730A000612FF1FD031002005030000DD
:1072B000540800204908002061080020060400004E
:1072C000A008002078080020AC0800204819FF1F03
:1072D000696E743A484541502053495A453D2564EA
:1072E0000A0D0000F8B50C460120C003204000281C
:1072F00010D0C1480078FCF7A9FF051E05D028462C
:1073000005F076FB2846FCF7A7FF20460121C903BC
:107310004840F8BDE007C00F002803D020460121F7
:107320004840F6E71020204000281FD0B3A007F007
:10733000ABFB00F033FA0020B549887008800120CB
:10734000B44948700020B4490880B4490880B44961
:107350000870B4490870B44908700221A648007842
:10736000FCF780FF204610214840D2E70220204051
:10737000002863D0A748407801285BD1AB4800784B
:10738000052857D1182202219B480078FCF7A0FF5E
:1073900000254CE0FF218131A54808F06FFB002853
:1073A00042D0FF228132A249A248FCF719FF984B34
:1073B000FF228132A0499F4801F0FEFA97480088D9
:1073C000401C964908800888C117C90E0918491140
:1073D0004901411AC900491CCEB29748067000F015
:1073E00095F98C4840680C281FD10221824800780A
:1073F000FCF774FF042005F0EFFA002808D13222D0
:1074000004217D480078FCF763FF8CA007F03CFB6B
:107410008DA007F039FB914807F094F907463946EB
:107420008FA007F031FB00E003E0681CC5B2032D1C
:10743000B0DB00BF2046022148406AE7042020401C
:1074400000287DD076480078062804DD00207449A5
:1074500008707449087072480078401C70490870C0
:107460006C484078012833D17048007805282FD126
:1074700000262AE0FF2181316D4808F0FFFA00283C
:1074800020D0FF2281326A496A48FCF7A9FE604B8E
:10749000FF2281326849674801F08EFA5F48008810
:1074A000401C5E4908800888C117C90E0918491197
:1074B0004901411AC900491CCDB25F48057000F06E
:1074C00025F900E003E0701CC6B2022ED2DB00BF3B
:1074D00050484078012850D16548007801284CD1A7
:1074E00052480078052848D14F48007805280BD12C
:1074F000604801F005F9002803D05FA007F0C4FA46
:1075000002E000204849087032E0464800781D2813
:1075100000DB31E0444800781421484355494218C3
:1075200014210120FDF7EAFB002820D139484078DA
:1075300001281CD13C480078401C3B49087000E001
:1075400038E038480078401C3649087036480078E2
:1075500005280DD1474801F0D3F8002803D046A0F4
:1075600007F092FA04E000202F49087000E003E0E1
:107570002D4800780528C8DB00BF3D48007800286A
:1075800014D124484078012810D139490870FCF7FB
:107590001DFF064631463EA007F076FA0520224937
:1075A0000870042114480078FFF76CF92046042184
:1075B0004840AEE60820204000281BD0002005F0FF
:1075C0000BFA002807D12A4908701249487034A0E4
:1075D00007F05AFA0AE01E22082107480078FCF753
:1075E00077FE0020224908700A4948702046082189
:1075F00048408EE600208CE64808002073746172D3
:107600007420616470636D206576656E740A0D0088
:10761000BC08002090510020640A0020660A002067
:107620009C0800209D0800207831002041060020A1
:107630001E3700209E380020563600206175646990
:107640006F2030340A0D0000737461727420766FFD
:107650006963652073656E640A0D00004819FF1F99
:10766000484541502053495A453D25640A0D0000C4
:1076700081080020BA360020566F69636520547275
:10768000616E736620656D7074790A0D00000000EC
:1076900073746172745F7469636B3A25640A0D00D8
:1076A000566F6963652053746F70200A0D000000E7
:1076B000F0B50546059C0020114E9619002E13D0FA
:1076C0001B2E19D1022907D1012B03D126780D4F8A
:1076D0003E7008E00D2006E0032903D1012B02D003
:1076E0000D2000E00A2008E0012B03D12678064F88
:1076F0003E7000E00D2000E000BF00BFF0BD0000C4
:10770000CED5FFFF7D0600208B06002070B5044615
:107710000F4A91681269501CFCF786FD0D460C4813
:10772000C068A84203D10BA007F0AEF90FE00849EA
:107730004A6909696423594350181A462146FCF7DF
:107740004FFD034805614068401C0149486070BD19
:1077500090510020566F69636520517565756520ED
:1077600069732066756C6C0A0D000000F8B504465C
:107770000E4615461F46002020706780E660E068D0
:107780006060E068A0602561E0684019606129469A
:107790003046FCF7C6FC2046F8BD000064200749CF
:1077A00088600020C86008614860012008700020DF
:1077B00048708870C8700248486170479051002036
:1077C000680A002070B505460C462846FFF748F8C1
:1077D0000646A64201D3012070BD0020FCE770B52B
:1077E00005460C462846FFF73BF80646A64201D858
:1077F000012070BD0020FCE7FFB504464E4F81B06C
:107800000020386020461D46BF30FCF7E5FD4B48A0
:1078100026460078B23680340828A06E32462CD036
:107820000121FCF7DFFD444F3078F863761C3046C9
:10783000FCF782FC00BA000AF17800020843B86342
:10784000361D3046FCF778FC00BA000AF1780002D9
:1078500008437863361D3046FCF76EFC00BA000A18
:10786000F17800020843386303980102029801434B
:10787000F960039F00263F1D0EE00021D1E7A81903
:10788000401CFCF759FC0102A85D01432C4830184C
:107890000160361DF6B23F1F042FF0DA032F04D02B
:1078A000022F08D0012F0FD014E0A819FCF744FCD8
:1078B0000102090A09E0A919487809780002084379
:1078C0001F497118086003E0A95D1D483018016068
:1078D000361DF6B200211A4A02E0B0180160361DCA
:1078E000FF2EFADD1448174B43600F230361012379
:1078F00003604369002BFCD0436901600020039BB7
:1079000011E0811809682954401CC0B20E0A2E5497
:10791000401C0E0CC0B22E54401CC0B2090E29549B
:10792000401CC0B21B1F002BEBDCA06E401CA066ED
:10793000012005B0F0BD000000000440E511FF1F6C
:1079400000010440080F0000FFB504464D4F81B010
:107950000020386020461D46BF30FCF73DFD4A48F8
:1079600026460078B23680340828606E32462BD026
:107970000021FCF737FD434F3078F863761C304622
:10798000FCF7DAFB00BA000AF17800020843B8639A
:10799000361D3046FCF7D0FB00BA000AF178000231
:1079A00008437863361D3046FCF7C6FB00BA000A70
:1079B000F1780002084338630398029900020843F3
:1079C000F8600026039F0EE00121D2E7A819401CB1
:1079D000FCF7B2FBA95D000208432C49711808604E
:1079E000361DF6B23F1F042FF0DA032F04D0022F0A
:1079F00008D0012F0FD014E0A819FCF79DFB01025D
:107A0000090A09E0A91948780978000208431F49C2
:107A10007118086003E0A95D1C4830180160361D2C
:107A2000F6B20021194A02E0B0180160361DFF2E9F
:107A3000FADD0F2313481B0243600F230361012368
:107A400003604369002BFCD0016003980023001DF4
:107A500011E099180968E9545B1CDBB20E0AEE5478
:107A60005B1C0E0CDBB2EE545B1CDBB2090EE9545E
:107A70005B1CDBB2001F0028EBDC606E401C606604
:107A800005B0F0BD00000440E511FF1F00010440F7
:107A9000F0B589B0FCF7ACFCFE4908600420FCF7A7
:107AA000ADFCFCF7B1FC0446C00712D0FA49002037
:107AB000086072B6FCF7AEFCF849F94DF94E0228A1
:107AC0000BD001287ED0F84F05287CD004287BD02D
:107AD000ADE2FCF7A5FC09B0F0BD08780F4601281F
:107AE00006D0032804D0022802D005286DD09EE2DB
:107AF0000720FCF783FC08AB07AA06A9EB48FCF7B4
:107B000095FCEA493439898E0B074906CA0FE749C3
:107B10001B0F34390C46403420319446002801D0E4
:107B2000032B05D0052B6ED0387801286CD081E26C
:107B30003878012801D00328F9D1D94843695B1C62
:107B40004361DB4B087FDD79A842F0D1487F1D7A85
:107B5000A842ECD1887F5D7AA842E8D1C87F9D7A9F
:107B6000A842E4D12078DD7AA842E0D160781D7B7C
:107B7000A842DCD1F5680020AD8D2D072DD5DB7B2B
:107B8000012B01D0032B28D1C3001F1AC94BDD5D87
:107B900095421DD1FB188D7D5F78BD4218D1CD7DFA
:107BA0009F78BD4214D10D7EDF78BD4210D14D7E4D
:107BB0001F79BD420CD18D7E5F79BD4208D1CD7E4B
:107BC0009B7903E0E5E0E6E02EE2E0E09D4202D0B2
:107BD000401C0828D8DB082817D0B14D686D401C20
:107BE0006865706C002802D0804700289FD0FCF7A1
:107BF00023FC01277770FCF7FBFBA6490968884244
:107C000008D9401A09E02CE0AFE0A548016A491CF8
:107C100001620FE2A84A511A0818F16876230A791E
:107C2000181A801A4A6C096CD2B2C9B2C0B2FCF7F9
:107C300009FCFCF70DFC9848076000207070FCF709
:107C40000DFCFCF711FCA08C010A9848891C30300F
:107C5000FCF710FC0E20FCF7D1FBA869401CA861C2
:107C6000E8E13F78012F01D0022FD2D1E869401C12
:107C7000E8618F480B7FC0798342CAD18C484B7F23
:107C8000007A8342C5D18A488B7F407A8342C0D133
:107C90008748CB7F807A8342BBD185482378C07ADE
:107CA0008342B6D16078824C237B9842B1D1F06890
:107CB0000023808D000726D5E07B022801D0032811
:107CC00021D1D800C61A7B48845D944218D130185F
:107CD0008C7D4678B44213D1CC7D8678B4420FD1E6
:107CE0000C7EC678B4420BD14C7E0679B44207D1E3
:107CF0008C7E4679B44203D1CC7E8079844202D016
:107D00005B1C082BDDDB6D48022F1AD1047864451B
:107D100027D18A7D4478A24223D1CA7D8478A242A9
:107D20001FD10A7EC478A2421BD14A7E0479A242A6
:107D300017D18A7E4479A24213D1C97E82799142B9
:107D40000FD1082B0DD0696D0622491C696561466B
:107D500001705649401C891CFCF742FAFCF790FB65
:107D600068E1686A401C686264E15149487BC20767
:107D700001D0252004E0800701D5262000E027203F
:107D8000097D8142ECD93220FCF780FB52E10720CB
:107D90004EE106204CE10878072879D10B20FCF74A
:107DA0002DFB4149FF22097825325143444A0020E6
:107DB0008B185870505443480068002805D0FCF7D1
:107DC0006BFB40490978C84005E0FCF765FB3E497C
:107DD0000968FCF729FA0746E00535D539480068F7
:107DE000002805D0FCF75EFB36490978C84005E05D
:107DF000FCF758FB34490968FCF716FA2A4B009047
:107E00001878FF21253148432D4940180279002A6E
:107E100001D000220271234A7130121D911D07F01A
:107E2000C3F9F1680098C968381A411827480160F9
:107E3000600526D51C49FF22097825325143204A86
:107E40000120891848701CE01748FF22007825326D
:107E50001B4B012150431954296DFF3F491C2965D3
:107E6000F1680F3F0969C018CA19184920300A6023
:107E7000407E410016480818FF300130018D491C32
:107E800001852046009906F01DFAFCF711FB21E060
:107E9000CDE000001C12FF1F1812FF1FE511FF1F8D
:107EA0000C31FF1FC43100201512FF1FF82BFF1FDC
:107EB000442AFF1F892BFF1F40420F000C12FF1F97
:107EC0005C2AFF1F2410FF1F2010FF1F2012FF1F1E
:107ED00082570020614907460870002008724872E6
:107EE0008872C8725E48044202D0E86C401CE864A4
:107EF0005C48FF220078253250435B4A574983187B
:107F0000D81DF930827C06928A1DFF33C07C491C43
:107F10001333FCF7D3FA02465248FF21007825318B
:107F2000484351494018C11DF931CA740279002AE9
:107F30000CD10223069A897C1A4019408A4205D046
:107F400046494A78002A01D101224A7047494968C6
:107F50008E220904090E0391125C002A02D0AA6E37
:107F6000D219AA662030407E414D40004019C030F1
:107F7000C18BC919C183FCF7A7FA01463948FF2212
:107F8000007825325043384A80182030407E400027
:107F900040198030828A8918818207AA05A904A81D
:107FA000FCF798FA2F48FF210078253148432E49E5
:107FB00040182030407E694640002A5A097D5118F9
:107FC00029524019403069464289097C5118418143
:107FD000600705D50398874202D23846FCF780FA3D
:107FE000FCF784FA1D480021224B81701A78012A7F
:107FF0000CD1002F0AD0204A1469002C03D0127D26
:10800000D243920702D00122827019708079002831
:1080100001D0FCF771FAFCF775FAF078002809D066
:108020003189FCF71FF905E00878082809D00520F8
:10803000FCF7E4F9FCF7F4F962B60320FCF7DEF98B
:1080400049E53878FF212531484307490B4A401854
:10805000911D713007F0A8F80920E9E78031FF1F72
:10806000020800001512FF1F5C2AFF1F00100340CA
:10807000825700201312FF1F442FFF1FC83100201A
:10808000F8B58E4F079CBE1D9C460D46002A1FD09A
:10809000012A05D0032A0ED0022A0CD0042A59D175
:1080A000002C57D00699002901D0012952D1032A6A
:1080B00001D0022A0AD10146814BA039994249D206
:1080C000A02D47D3012189038D4243D8002A0BD12B
:1080D0007B4B01462039803399423BD2202D39D346
:1080E000012189038D4235D8854233D36146002969
:1080F00001D001292ED10999002905D0012903D0E9
:10810000022901D0032925D10899490722D06D4BB6
:108110009988012920D09A7308994907490F597302
:108120001CD06849099BCB736346002B1BD00123ED
:108130008B713378CB7173780B72B3784B72F378A1
:108140008B723379CB7273790B73012A19D0042A9D
:1081500028D036E01220F8BD0C20F8BD5948072180
:1081600041733020F8BD00238B713B78CB717B7855
:108170000B72BB784B72FB788B723B79CB727B793D
:10818000E2E75148069B037023784370637883705D
:10819000A378C370E37803712379437163798371A2
:1081A00002200EE0484B069E1E7026785E706678B0
:1081B0009E70A678DE70E6781E7126795E7164790D
:1081C0009C7148801300FCF711F80504060A0806A4
:1081D0000B00002504E0012502E0022500E0062551
:1081E0003A4E8A79B0880C460009000128434023A2
:1081F000910198430143D001802291430843B0800C
:108200000622E11DB01DFBF7EBFF37464037B88C67
:10821000A179000900014022001D9043890101431A
:10822000B98430460622E11D6630FBF7D9FFA07CF9
:108230000321000249024118B2883F200002824314
:10824000114389B2B180012D12D1814303208002F4
:108250000818B0801C49BB8C087880229343C00169
:108260001843B884304606220C30491CFBF7B8FF8F
:108270001748017808291AD0072918D0A17B0B00CC
:10828000FBF7B4FF050408100C081700012101706A
:108290001F200AE002210170202006E00421017065
:1082A000222002E0032101702120FCF7A7F8002022
:1082B000F8BD002101701E20F7E70000F911FF1F33
:1082C000613F0000442AFF1F0C12FF1FC42BFF1F39
:1082D000E511FF1F10B50E480E4B0278FF20253028
:1082E00042430021D018FF24C17013342154995403
:1082F000012302460371603293711374202381615C
:1083000019548E23195451740521818110BD000028
:108310001512FF1F5C2AFF1FFEB572B65548C068D4
:10832000476D866D082F01D8002F00D10427082E35
:1083300001D8002E00D104264F48504D816C504C7E
:10834000491C81642878FF212531484300192030D9
:10835000407E41004B480818FF304130418E491C97
:108360004186FCF7D5F8FCF779F8FCF77DF828781A
:10837000FF21253148430019806AFCF7CFF828789F
:10838000FF21253148430019406AFCF7CDF82878D1
:10839000FF212531484300192030407EFCF7CAF800
:1083A0002878FF212531484300192030407EFCF712
:1083B000C7F82978FF202530414308190279002A9F
:1083C0000BD02E21095C304A406951434000091806
:1083D0002848C068C06F081815E0615C002925496D
:1083E00009D0CA684069096C136940185B004000F5
:1083F0001818D16C06E0C9684069CA68400052008C
:10840000C96C10184018FCF7A1F81A4DE868806C88
:10841000FCF7A2F8E868416CCAB2016C808FC9B25F
:10842000C0B2FCF70FF80420FCF79CF80720FCF71B
:108430009FF802A93846FCF7A1F869460989C2B23B
:1084400001250E48019100950078FF212531484310
:108450000019FF300130817CF3B23020FCF794F832
:10846000FBF7F6FF0948056062B61420FBF7C6FF6C
:10847000FEBD0000C43100200C31FF1F1512FF1F8C
:108480005C2AFF1F82570020710200001812FF1F94
:10849000002805DBC206D20E01219140014A11607D
:1084A0007047000000E100E010B5002819DB1A4A0F
:1084B00003231B02D21883089B00D2588307DC0ECB
:1084C000FF23A3409A438B071B0E8407E40EA340AF
:1084D0001A43114B032424021B198408A4001A51C7
:1084E00018E00E4A03071B0F083B9B089B00D2585D
:1084F0008307DC0EFF23A3409A438B071B0E8407E0
:10850000E40EA3401A43054B0407240F083CA408BB
:10851000A4001A5110BD000000E100E01CED00E0D5
:1085200010B5002819DB1A4A03231B02D21883084E
:108530009B00D2588307DC0EFF23A3409A438B078E
:108540001B0E8407E40EA3401A43114B032424029C
:108550001B198408A4001A5118E00E4A03071B0FC8
:10856000083B9B089B00D2588307DC0EFF23A340E7
:108570009A438B071B0E8407E40EA3401A43054B56
:108580000407240F083CA408A4001A5110BD0000E1
:1085900000E100E01CED00E010B5002819DB1A4AEC
:1085A00003231B02D21883089B00D2588307DC0EDA
:1085B000FF23A3409A438B071B0E8407E40EA340BE
:1085C0001A43114B032424021B198408A4001A51D6
:1085D00018E00E4A03071B0F083B9B089B00D2586C
:1085E0008307DC0EFF23A3409A438B071B0E8407EF
:1085F000E40EA3401A43054B0407240F083CA408CB
:10860000A4001A5110BD000000E100E01CED00E0E4
:1086100010B5002819DB1A4A03231B02D21883085D
:108620009B00D2588307DC0EFF23A3409A438B079D
:108630001B0E8407E40EA3401A43114B03242402AB
:108640001B198408A4001A5118E00E4A03071B0FD7
:10865000083B9B089B00D2588307DC0EFF23A340F6
:108660009A438B071B0E8407E40EA3401A43054B65
:108670000407240F083CA408A4001A5110BD0000F0
:1086800000E100E01CED00E010B5002819DB1A4AFB
:1086900003231B02D21883089B00D2588307DC0EE9
:1086A000FF23A3409A438B071B0E8407E40EA340CD
:1086B0001A43114B032424021B198408A4001A51E5
:1086C00018E00E4A03071B0F083B9B089B00D2587B
:1086D0008307DC0EFF23A3409A438B071B0E8407FE
:1086E000E40EA3401A43054B0407240F083CA408DA
:1086F000A4001A5110BD000000E100E01CED00E0F4
:1087000010B504460F4800690E49C968884204D173
:108710000DA006F0B9F9012010BD0A484269C068F1
:108720006423584311181A462046FBF759FD054AA1
:108730009168D268501CFBF777FD0248C1600020A9
:10874000EAE7000090510020566F6963652051757B
:1087500065756520697320656D7074790A0D000078
:10876000F8B50446002003460A5C8507ED0EAA40D2
:108770001343401C0428F7DB00F0E2FA0028FBD189
:1087800000F0B2FC21022004090E0843FF273F023B
:1087900021463940084372B600211A4DA960194E8E
:1087A0000002803E801C3060336062B600F0C8FA80
:1087B0000028FBD100F088FC112000062018694633
:1087C0002A695207FCD572B60422AA600402020488
:1087D000240E2243384002431002C01C306062B6AF
:1087E00028694007FCD530780870307848703078B8
:1087F00088703078C8700098984201D00020F8BD89
:108800000120F8BD80000811F8B504460F46154652
:10881000606840196169461A002E05DC2A46384610
:108820006168FBF765FC0AE0AA1B38466168FBF744
:108830005FFC7A19901B3246E168FBF759FC294628
:10884000204600F065F82846F8BD000010B5002469
:1088500005490648FDF7C6FC054A06210548FDF70F
:10886000F9FE0446204610BDD8050020FFFF000099
:1088700088FFFF1FE00500200149086070470000E5
:10888000CC050020014802490860704740787D010E
:10889000C031002010B572B61948C068C00703D0B7
:1088A0001748001FFBF776FE154C403CA06BC00735
:1088B00007D013481838FBF76DFE12480168491CB1
:1088C0000160606AC0070CD0E16A0F48C162A1690B
:1088D00041630B482C38FBF75DFE0C480168491CCE
:1088E00001602069C00707D02046FBF753FE2046F1
:1088F000FBF756FEFBF75AFE62B6002010BD0000E3
:10890000401002402C10FF1FC43100203010FF1F08
:1089100010B5002243685B1844691A1B002A09DC61
:1089200043685B18436044694368A34205D1C36848
:10893000436002E0C3689B18436010BD10B500227D
:1089400083685B1844691A1B002A09DC83685B187A
:10895000836044698368A34205D1C368836002E0F1
:10896000C3689B18836010BDF8B50646002700F069
:1089700065FA05460AE000F061FA0446AC4201D30C
:10898000601B02E00348401B00190746B742F2D3C0
:10899000F8BD0000FFFFFF0002E008C8121F08C179
:1089A000002AFAD170477047002001E001C1121F70
:1089B000002AFBD170470000FFB588B00998089ED7
:1089C000079600255D5F9E780396039EB6004B4F89
:1089D000B959012601960A9EF70F0096BE19761026
:1089E0000A9655260670401C9E7876B20670401C8A
:1089F0001E7876B20670401C00269E5F3612067006
:108A0000401C6AE00026079FBE5F0696BE1C0796C4
:108A1000069E721BD60FF6000596059E002E00D00E
:108A200052420024CE1004968A4204DB0424521AD7
:108A3000049E7618049649108A4205DB02263443C8
:108A4000521A049E7618049649108A4204DB0126C5
:108A50003443049E76180496059E002E02D0049E90
:108A6000AD1B01E0049EAD19254EB54201DD354632
:108A700004E0234EF643B54200DA3546059E344302
:108A8000A600204FBF59039EBE190396039E002ED9
:108A900001DA00260396039E582E01DD5826039620
:108AA000039EB600154FB959019E002E04D0260131
:108AB000F0273E40029606E02607360F029F3E430F
:108AC00076B20670401C019E002E01D1012600E006
:108AD000002601960A9E761E0A960A9E002E91DCBA
:108AE000019E002E03D1029E76B20670401C2EB26B
:108AF0001E80039E9E700CB0F0BD00000009002097
:108B0000FF7F0000C008002010B5FBF755FD0120D5
:108B1000FBF758FDFBF75CFD002010BDF0B500240D
:108B20008E464A1E12E0714600230D1B6D1E0AE0A0
:108B30009E0031188C46875949688F4202D981516D
:108B400061464F605B1C9D42F2D8641C9442EAD39C
:108B5000F0BD5F207047000030B587B00446207933
:108B6000C007C00F002819D060880D49FDF75EFDD1
:108B70000546E807C00F00280FD00A48418D684617
:108B8000818001218171084801786846C17160883F
:108B9000002201A9FBF7DEFB00BF00BF07B030BD1C
:108BA000D4040020E0040020CA04002010B50248CC
:108BB000FBF770FB10BD0000598BFF1FFEB50C4684
:108BC00015461E46002001900898002801DD0B2064
:108BD000FEBD60680078616849780902401887B274
:108BE0001148874210D1FFF7B4FF00900F49097870
:108BF0000098884202DA0D49009808700120307010
:108C00000A48007828700CE00948874207D1022002
:108C1000307002222846E168FBF7E2FA01E00A2000
:108C200001900198D4E70000192A0000CA0400202E
:108C300008290000FFB583B00C4615460C9F00269E
:108C400060680078616849780902401880B2029033
:108C5000164902984018002821D101200097019060
:108C60002A462146069B0398FDF7E2FA0646002EA7
:108C700014D1287869780902401880B201900C4814
:108C80000068002809D00199002901D1022100E0E3
:108C90000121084606490968884700BF01E00A2605
:108CA00000BF00BF304607B0F0BD0000FED6FFFF9A
:108CB000C404002010B505231B221F210D4806F017
:108CC000FDFC0C4C0C4B083407221021204606F00A
:108CD000F5FC062201231146204606F0EFFC05486C
:108CE0001438416A012211434162C169034A1143A8
:108CF000C16110BD14F00040FB03000004003E0001
:108D000010B50020054CFF212218401C517040284E
:108D1000FADB06F001F9207010BD00006659002052
:108D200010B50020054CFF212218401C5170062868
:108D3000FADB06F00FF9207010BD0000573200205A
:108D4000084801694907FCD50121816005490522D0
:108D500080390A7002695207FCD50878C007C00F35
:108D60007047000080000811F0B58646080CFF2609
:108D70008446002388B237461C46194601228A40A1
:108D800005461540CD402C19A4B2FF2F02D1012C6D
:108D900000D18FB265462A40CA40D21893B2FF2E46
:108DA00002D1012B00D18EB2491C1029E6DB012C27
:108DB00002D0102C08D009E0012B07D13001C019D6
:108DC000714608700220F0BD102B01D00320F0BDC9
:108DD0000120F0BD032800DA704701218907896866
:108DE00001228240914301229207916000BFF3E784
:108DF000032800DA7047012189078968012282402F
:108E0000114301229207916000BFF3E70148006817
:108E1000704700001410FF1F012189070968012213
:108E20008240914301229207116011460968012294
:108E30008240114301229207116070470449886AF9
:108E40000202886A120A0002000A9042F7D17047B3
:108E500000F0004010B504460120FFF785FD1149E0
:108E6000CB6A1148C26A934202D2C96A511A00E021
:108E700000210163FFF7E2FF0C490123C8620119D9
:108E80000A4608321B069A4203D309310902090A2D
:108E9000641A01190648C162416A2922D2031143AA
:108EA000416210BD00100240C43100200012FF1FBB
:108EB00000F00040FFB583B00F461D460D9E0C9C90
:108EC0000020029078680078796849780902401893
:108ED00080B20190714A0198811A904268D00ADCF0
:108EE0006F49401800280FD0012822D0022835D021
:108EF000032872D147E0012973D002296FD00329DA
:108F00006ED02929F5D1ABE0082C02D307200290BE
:108F10000EE00820001BB04201D9304601E00820D5
:108F2000001B28702A785F4801190598FBF758F94B
:108F3000B0E00C2C02D3072002900EE00C20001BA6
:108F4000B04201D9304601E00C20001B28702A787D
:108F5000554801190598FBF743F99BE00D2C02D306
:108F6000072002900EE00D20001BB04201D93046D0
:108F700001E00D20001B28702A784C480119059843
:108F8000FBF72EF986E0112C02D3072002900EE0A9
:108F90001120001BB04201D9304601E01120001B16
:108FA00028702A78424801190598FBF719F971E0F1
:108FB000112C02D3072002900EE01120001BB042BA
:108FC00001D9304601E01120001B28702A78394869
:108FD00001190598FBF704F95CE056E001E015E0A3
:108FE00029E0112C02D3072002900EE01120001B73
:108FF000B04201D9304601E01120001B28702A78C8
:109000002D4801190598FBF7EBF843E0112C02D32A
:10901000072002900EE01120001BB04201D930461B
:1090200001E01120001B28702A78244801190598B6
:10903000FBF7D6F82EE00E2C02D3072002900EE0AC
:109040000E20001BB04201D9304601E00E20001B6B
:1090500028702A781A4801190598FBF7C1F819E019
:10906000072C02D3072002900EE00720001BB0421D
:1090700001D9304601E00720001B28702A781148EA
:1090800001190598FBF7ACF804E0002028700A20CD
:10909000029000BF00BF029807B0F0BD272A000071
:1090A000DDD5FFFF3902002074FEFF1F81FEFF1F88
:1090B0008FFEFF1FA1FEFF1FB3FEFF1FC5FEFF1F98
:1090C000D7FEFF1F49020020064801694907FCD569
:1090D00000218160034A0421803A11700169490727
:1090E000FCD5704780000811064801694907FCD586
:1090F00000218160034A0621803A11700169490705
:10910000FCD5704780000811F8B5414A0446D06884
:10911000808DC00764D03F48406A3F4D8104890C70
:10912000A94202D96842081800E0681AC82819D371
:109130002B2601233601DB02B04207D2C8004102D0
:109140008601891BC6008919081A09E0C800410276
:109150008601891B4601891BC600891B400008182F
:10916000C018010B2C482D4BC430814200D919681E
:1091700019607D26906AF600B0420AD2284EFF2779
:109180008E198A37BE4200D3116A401C1960906262
:1091900009E0106A060A37188F4203D3861B8E42F5
:1091A00000D808461860106AC100091A1868091822
:1091B000C9081162C108A8420AD9194AC43A8018DC
:1091C0006043C00801E0401A641E8842FBD807E0F3
:1091D000281A6043C00801E0401A641C8842FBD88A
:1091E0000C48062200231146243806F067FA204670
:1091F000FBF7F4F902F076FC02F0E8FB0020FBF745
:10920000FDF80120FBF7F0F90120FBF7F3F9F8BDB9
:10921000C431002040F00040420F00003412FF1F14
:1092200082F1FFFF03460002012100B5000A490355
:1092300088421BD3FFF784FD0028FBD1FFF754FFC2
:109240000B490020886019021804090E0843FF2109
:1092500009020B401843064900028039203008609B
:10926000FFF76EFD0028FBD1FFF72EFF00BD0000C9
:109270008000081110B507480068002806D005488E
:109280000068FAF7E9FF0020024908600A20024955
:10929000087010BDCC030020CA0300207FB504462F
:1092A0000D465D480068002813D1002C01D0002D28
:1092B00002D1012004B070BD204600F065FA574984
:1092C0000870084600780A2803DB00F087FA534943
:1092D0000870524800780A287EDA4F480068002853
:1092E00023D14E490978062251432031C8B2224683
:1092F0000E2105F03FFB1022FF216846FAF782FF9E
:10930000464909787031C8B26A46102105F032FB2F
:10931000424909780E225143414A88180E222146BB
:10932000FAF75EFF3C48056071E03B4800688068E2
:10933000002810D0384909688A6838490978062316
:1093400059432131C8B21C2105F014FB00203249D9
:10935000096888605BE0304800680069002810D028
:109360002D4909680A692D49097806235943223194
:10937000C8B21C2105F0FEFA0020274909680861DF
:1093800045E0254800684069002810D02249096856
:109390004A6922490978062359432331C8B210216A
:1093A00005F0E8FA00201C49096848612FE01A48D6
:1093B0000068C068002820D017490968CA681749A2
:1093C0000978062359432431C8B2102105F0D2FA96
:1093D00011490968C96800E01BE00A4610320F49CC
:1093E0000978062359432531C8B2042105F0C2FA91
:1093F000002009490968C86009E00A480078002887
:1094000001D000F0D7FB00F0F3FB012052E7002071
:1094100050E701204EE70000CC030020CA030020E3
:1094200088340020C803002070B588B004460D467B
:109430001646202200216846FAF7E4FE68460480BA
:109440004148017868460171404801786846417199
:109450003F480178684601770698400840003D493A
:109460000978C907C90F0843069002210698884366
:10947000384909780222114049084900114008433F
:10948000069008210698884332490978082211403D
:10949000C908C90011400843069010210698884366
:1094A0002C4909781022114009090901114008438B
:1094B00006902021069888432649097820221140E9
:1094C0004909490111400843069004210698884340
:1094D0002049097804221140890889001140084375
:1094E00006901A480078002805D010221A4901A8D1
:1094F0000230FAF775FE19480078002806D0002DD2
:1095000004D0022106988843801C06906846807D1E
:1095100012490978002901D0012100E00021084307
:10952000694688756846807D0D490978002901D013
:10953000042100E0002108436946887531466846E9
:10954000FBF75EF808B070BDB5030020B60300203D
:10955000C0030020BA03002078340020B7030020A5
:10956000B4030020FFB587B00C4616461F46082FEF
:1095700005D12046062148432230C5B204E02046EA
:10958000062148432130C5B21C2200216846FAF763
:1095900039FE6A461C21284605F0C0F900280ED184
:1095A0006846807E07280ADB6846807E102806DC35
:1095B000F107C90F6A46109B0798FBF727F80BB015
:1095C000F0BD000070B5002500240DE00E216143C0
:1095D000074A88180622FF21FAF71AFE002801D14F
:1095E000681CC5B2601CC4B20A2CEFDB284670BDF3
:1095F00088340020F0B585B005460E46174629464A
:10960000062251432031C8B26A460E2105F086F980
:10961000002824D10622FF216846FAF7F9FD002828
:109620001DD168468089C4B2002F03D02046304344
:10963000C4B202E02046B043044668468089A04296
:109640000AD0684684812946062251432031C8B297
:109650006A460E2105F08EF9012005B0F0BD00200C
:10966000FBE770B50025002405E0204600F00AF86D
:109670000546601CC4B20A2C01DA002DF5D028463C
:1096800070BD000030B58FB004463D48007884427C
:109690000BD101213B480078FAF7BEFF022139487F
:1096A0000078FAF7B9FFFFF7E5FD2146062251439E
:1096B0002031C8B20BAA0E2105F030F900285AD18A
:1096C0000622FF210BA8FAF7A3FD002853D10E2292
