:020000041FFFDC
:1008000000000000A184FF1FDC96FF1FE496FF1F7D
:1008100004000120000000000000000000000000B3
:1008200000000000000000000000000000000000C8
:1008300000000000000000000000000000000000B8
:1008400000000000000000000000000000000000A8
:100850000000000000000000000000000000000098
:100860000000000000000000000000000000000088
:100870000000000000000000000000000000000078
:100880000000000000000000000000000000000068
:100890000000000000000000000000000000000058
:1008A0000000000000000000000000000000000048
:1008B0000000000000000000000000000000000038
:1008C0000000000000000000000000000000000028
:1008D0000000000000000000000000000000000018
:1008E0000000000000000000000000000000000008
:1008F00000000000000000000000000000000000F8
:1009000000000000000000000000000000000000E7
:1009100000000000000000000000000000000000D7
:1009200000000000000000000000000000000000C7
:1009300000000000000000000000000000000000B7
:1009400000000000000000000000000000000000A7
:100950000000000000000000000000000000000097
:100960000000000000000000000000000000000087
:100970000000000000000000000000000000000077
:100980000000000000000000000000000000000067
:10099000096BFF1FCD6BFF1F798DFF1F000000004B
:1009A0000000000000000000000000000000000047
:1009B0000000000000000000000000000000000037
:1009C0000000000000000000000000000000000027
:1009D0000000000000000000000000000000000017
:1009E0000000000000000000000000000000000007
:1009F00000000000000000000000000000000000F7
:100A000000000000000000000000000000000000E6
:100A100000000000000000000000000000000000D6
:100A200000000000000000000000000000000000C6
:100A300000000000000000000000000000000000B6
:100A400000000000000000000000000000000000A6
:100A50000000000000000000000000000000000096
:100A60000000000000000000000000000000000086
:100A70000000000000000000000000000000000076
:100A80000000000000000000000000000000000066
:100A90000000000000000000000000000000000056
:100AA0000000000000000000000000000000000046
:100AB0000000000000000000000000000000000036
:100AC0000000000000000000000000000000000026
:100AD0000000000000000000000000000000000016
:100AE0000000000000000000000000000000000006
:100AF00000000000000000000000000000000000F6
:100B000000000000000000000000000000000000E5
:100B100000000000000000000000000000000000D5
:100B200000000000000000000000000000000000C5
:100B300000000000000000000000000000000000B5
:100B400000000000000000000000000000000000A5
:100B50000000000000000000000000000000000095
:100B60000000000000000000000000000000000085
:100B7000216FFF1F000000000000000000000000C7
:100B800000000000000000002159FF1F00000000CD
:100B90000000000000000000000000000000000055
:100BA0000000000000000000000000008562FF1F40
:100BB0000000000000000000000000000000000035
:100BC0006962FF1F0000000000000000000000003C
:100BD0000000000000000000000000000000000015
:100BE0000000000000000000000000000000000005
:100BF00000000000A961FF1F0000000000000000CD
:0C0C000001FF01FF01FF01FF9100000057
:020000041FFFDC
:10400000E8070120D540FF1FDD40FF1FDF40FF1FF5
:1040100000000000000000000000000000000000A0
:10402000000000000000000000000000E140FF1F51
:104030000000000000000000E340FF1FE540FF1FFC
:104040000000000000000000000000000000000070
:104050000000000000000000000000000000000060
:104060000000000000000000000000000000000050
:104070000000000000000000000000000000000040
:104080000000000000000000000000000000000030
:104090000000000000000000000000000000000020
:1040A0000000000000000000000000000000000010
:1040B0000000000000000000000000000000000000
:1040C0000348854600F082F9004800474182FF1FFF
:1040D000E80701200448804704480047FEE7FEE760
:1040E000FEE7FEE7FEE7FEE71159FF1FC140FF1F95
:1040F00003460B439B0703D009E008C9121F08C001
:10410000042AFAD203E00B780370401C491C521EAB
:10411000F9D27047D2B201E00270401C491EFBD2B6
:1041200070470022F6E710B513460A4604461946C2
:10413000FFF7F0FF204610BD0321001D401E03784D
:1041400012021A43491EF9D510467047F8B50246C7
:104150004A40D40F42004B0052085B089A4202D2F8
:104160000246084611464A0023D0C30D4A00DDB27C
:10417000120EAD1A202D35DA49020126490AF6053C
:104180008A19002C00D0524220214F1B1146B94001
:104190002A411018C20D9A4221D0002C17D0012DAF
:1041A00008DCDA05801AD20F8019D207DBB200F0E2
:1041B000D4F8F8BDDA05801A012340001B06C018A8
:1041C00080185A428018CA0F1043490007E0490876
:1041D000C2071143DA05801A80194008801800F0E0
:1041E000B4F8F8BD61000122511A001BF7E7012263
:1041F000D2075140AAE70122D2075040A6E7024663
:1042000070B54A40D30FDB0740002DD04A002AD0BA
:10421000010E140E000212020919400A520A8418F3
:10422000E50104465443000A120A2E045043A4191F
:104230004219200CC543AA18120C0125AD03521CCB
:10424000521912047F39240400D0521C104301D4A7
:104250004000491EC2B20C06C0092018401C40088C
:10426000802A02D003E0002070BD400840000029F1
:1042700000DA0020184370BD70B502464A40D50FE1
:1042800040004A00ED0740085208002814D0002AD8
:1042900012D0C40DD30D41020120C0055202490ABB
:1042A000520AE41A091812187D34914201D3641C91
:1042B00000E04900002C01DA002070BD002391428B
:1042C00001D3891A0343400849000028F7D1002987
:1042D0000AD0914202D10121C90705E0914201D2E1
:1042E000012101E00121C943E005C018401900F097
:1042F0002CF870BDC217C10F504010B54018CA0746
:104300009623002100F029F810BD10B50022962355
:10431000114600F022F810BDC20F410040020123F7
:10432000400ADB05D207090EC0187F2901DA0020F8
:104330007047962903DC9623591AC84001E0963944
:104340008840002AF4D040427047002904DA401C1B
:10435000490001D140084000704770B40024050CAA
:1043600005D11024000402D1002921D01124050E0A
:1043700001D100020834050F01D10001241D850F71
:1043800001D18000A41C002801DB4000641C00292E
:1043900008D020252E1B0D46F540A14000D001215C
:1043A0002943084301061B1B000ADB1D02D5002020
:1043B00070BC7047DB05181880180029F8DA401C1B
:1043C0004900F5D170BC400840007047064C0125FB
:1043D000064E05E0E36807CC2B430C3C98471034AD
:1043E000B442F7D3FFF770FE1097FF1F5097FF1FDF
:1043F00030B58C180278401C13071B0F01D10378CD
:10440000401C120906D10278401C03E005780D70AB
:10441000401C491C5B1EF9D101E00B70491C521E67
:10442000FBD1A142E6D3002030BD000003B4014817
:10443000019001BDD541000003B40148019001BDC8
:104440002141000003B40148019001BDE9FB0000D7
:1044500003B40148019001BD55DD000003B40148DB
:10446000019001BD89DF000003B40148019001BD46
:1044700075E0000003B40148019001BDE1DE0000D9
:1044800003B40148019001BD35E1000003B40148C7
:10449000019001BD29E4000003B40148019001BD71
:1044A00069E5000003B40148019001BD91E00000FE
:1044B00003B40148019001BDE1E2000003B40148EA
:1044C000019001BDF1E2000003B40148019001BD7B
:1044D000CDE6000003B40148019001BD0FF40000D7
:1044E00003B40148019001BD09E9000003B401488B
:1044F000019001BDE1E7000003B40148019001BD56
:10450000B5DF000003B40148019001BD6102000065
:1045100003B40148019001BD6DDF000003B4014800
:10452000019001BD85E0000003B40148019001BD88
:10453000D1E5000003B40148019001BDCDDF0000CA
:1045400003B40148019001BD1DE0000003B401481F
:10455000019001BDCDE0000003B40148019001BD10
:1045600031E2000003B40148019001BD49E70000B9
:1045700003B40148019001BD1DDB000003B40148F4
:10458000019001BD59F9000003B40148019001BD3B
:104590004D66000003B40148019001BD2DCF00001D
:1045A00003B40148019001BDA90B010003B4014807
:1045B000019001BD5D0B010003B40148019001BDF4
:1045C000690B010003B40148019001BD250E0100F3
:1045D00003B40148019001BDF5E3000003B40148B4
:1045E000019001BD21E3000003B40148019001BD29
:1045F00015E3000003B40148019001BDC1E00000D3
:1046000003B40148019001BD6DDD000003B4014811
:10461000019001BDF1DE000003B40148019001BD2D
:104620007574000003B40148019001BD8574000059
:1046300003B40148019001BD0959000003B40148C9
:10464000019001BD55FA000003B40148019001BD7D
:10465000CDF9000003B40148019001BD5DF60000F2
:1046600003B40148019001BD75F4000003B4014892
:10467000019001BD15F2000003B40148019001BD95
:10468000FDF6000003B40148019001BDC5F900002A
:1046900003B40148019001BDDD74000003B401487A
:1046A000019001BD890D010003B40148019001BDD5
:1046B000D576000003B40148019001BD8D020000D1
:1046C00003B40148019001BD3975000003B40148ED
:1046D000019001BD8D75000003B40148019001BD3A
:1046E0008572000003B40148019001BDE52C010072
:1046F00003B40148019001BD7D9E000003B4014850
:10470000019001BDF59E000003B40148019001BD78
:10471000F94C000003B40148019001BDA53D000023
:1047200003B40148019001BD5D52000003B401488B
:10473000019001BD552B010003B40148019001BD5A
:10474000B1C2000003B40148019001BDF1F00000C6
:1047500003B40148019001BDC5C5000003B4014880
:10476000019001BD0DC7000003B40148019001BDD7
:104770000BC5000003B40148019001BD394200009F
:1047800003B40148019001BDF140000003B40148A9
:10479000019001BDC140000003B40148019001BD7A
:1047A0005D41000003B40148019001BD95C30000C4
:1047B00003B40148019001BD1DC3000003B40148CA
:1047C000019001BD6D45000003B40148019001BD99
:1047D000753C000003B40148019001BD7DCE00008E
:1047E00003B40148019001BD71D7000003B4014832
:1047F000019001BD99D7000003B40148019001BDAB
:10480000B943000003B40148019001BD3D440000DC
:1048100003B40148019001BDE1D5000003B4014893
:10482000019001BD7DD2000003B40148019001BD9B
:104830007D4E000003B40148019001BD95DA0000EF
:1048400003B40148019001BD4D4F000003B401487D
:10485000019001BDE9CF000003B40148019001BD02
:104860003DD8000003B40148019001BD89D4000087
:1048700003B40148019001BD5DD6000003B40148B6
:10488000019001BD41F4000003B40148019001BD55
:104890003DC4000003B40148019001BDB5510000C2
:1048A00003B40148019001BD3D0D010003B401486E
:1048B000019001BD55E5000003B40148019001BD20
:1048C000BD9E000003B40148019001BDF5C4000085
:1048D00003B40148019001BD3D3F000003B401480D
:1048E000019001BD25C2000003B40148019001BD43
:1048F00017C4000003B40148019001BDF7C20000D5
:1049000003B40148019001BD01C4000003B4014893
:10491000019001BDD938000003B40148019001BDE8
:10492000DBC2000003B40148019001BDE1C10000F9
:1049300003B40148019001BD41CF000003B4014818
:10494000019001BD199F000003B40148019001BD11
:10495000C9C5000003B40148019001BD8DC9000024
:1049600003B40148019001BD39CD000003B40148F2
:10497000019001BD35D3000003B40148019001BD91
:104980006959000003B40148019001BD1500010000
:1049900003B40148019001BD59C5000003B40148AA
:1049A000019001BD99C4000003B40148019001BD0C
:1049B00089F2000003B40148019001BDD54A00000E
:1049C00003B40148019001BD65B7000003B401487C
:1049D000019001BDD5F6000003B40148019001BD6E
:1049E000DDFB000003B40148019001BD999E000069
:1049F00003B40148019001BDED75000003B4014806
:104A0000019001BD3903000003B40148019001BDCC
:104A100001E4000003B40148019001BD7DE5000000
:104A200003B40148019001BDD100010003B4014865
:104A3000019001BDD1EB000003B40148019001BD1C
:104A4000F50D010003B40148019001BD2D6800007F
:104A500003B40148019001BDB90D010003B4014840
:104A6000019001BDFDE2000003B40148019001BDC9
:104A7000E9E3000003B40148019001BD3DE40000FA
:104A8000FFB504464E4F81B00020386020461D46D9
:104A9000BF30FFF7CBFC4B4826460078B236803457
:104AA0000828A06E32462CD00121FFF7C5FC444FE8
:104AB0003078F863761C3046FFF73EFB00BA000AF8
:104AC000F17800020843B863361D3046FFF734FB27
:104AD00000BA000AF178000208437863361D3046B8
:104AE000FFF72AFB00BA000AF17800020843386396
:104AF0000398010202980143F960039F00263F1DBD
:104B00000EE00021D1E7A819401CFFF715FB0102B8
:104B1000A85D01432C4830180160361DF6B23F1FD6
:104B2000042FF0DA032F04D0022F08D0012F0FD06A
:104B300014E0A819FFF700FB0102090A09E0A9190E
:104B400048780978000208431F497118086003E09B
:104B5000A95D1D4830180160361DF6B200211A4AC1
:104B600002E0B0180160361DFF2EFADD1448174B25
:104B700043600F230361012303604369002BFCD0D2
:104B8000436901600020039B11E0811809682954E2
:104B9000401CC0B20E0A2E54401C0E0CC0B22E5443
:104BA000401CC0B2090E2954401CC0B21B1F002B70
:104BB000EBDCA06E401CA066012005B0F0BD00003B
:104BC00000000440E511FF1F00010440080F000031
:104BD000FFB504464D4F81B00020386020461D4689
:104BE000BF30FFF723FC4A4826460078B2368034AF
:104BF0000828606E32462BD00021FFF71DFC434F82
:104C00003078F863761C3046FFF796FA00BA000A4F
:104C1000F17800020843B863361D3046FFF78CFA7E
:104C200000BA000AF178000208437863361D304666
:104C3000FFF782FA00BA000AF178000208433863ED
:104C40000398029900020843F8600026039F0EE0D3
:104C50000121D2E7A819401CFFF76EFAA95D0002F6
:104C600008432C4971180860361DF6B23F1F042F07
:104C7000F0DA032F04D0022F08D0012F0FD014E058
:104C8000A819FFF759FA0102090A09E0A919487899
:104C90000978000208431F497118086003E0A95D04
:104CA0001C4830180160361DF6B20021194A02E096
:104CB000B0180160361DFF2EFADD0F2313481B02CA
:104CC00043600F230361012303604369002BFCD081
:104CD000016003980023001D11E099180968E95448
:104CE0005B1CDBB20E0AEE545B1C0E0CDBB2EE5406
:104CF0005B1CDBB2090EE9545B1CDBB2001F002811
:104D0000EBDC606E401C606605B0F0BD0000044046
:104D1000E511FF1F00010440F0B589B0FFF792FBD9
:104D2000FE4908600420FFF793FBFFF797FB04465A
:104D3000C00712D0FA490020086072B6FFF794FB52
:104D4000F849F94DF94E02280BD001287ED0F84FD2
:104D500005287CD004287BD0ADE2FFF78BFB09B09F
:104D6000F0BD08780F46012806D0032804D0022899
:104D700002D005286DD09EE20720FFF769FB08AB43
:104D800007AA06A9EB48FFF77BFBEA493439898E6D
:104D90000B074906CA0FE7491B0F34390C4640344C
:104DA00020319446002801D0032B05D0052B6ED06E
:104DB000387801286CD081E23878012801D00328A6
:104DC000F9D1D94843695B1C4361DB4B087FDD792E
:104DD000A842F0D1487F1D7AA842ECD1887F5D7A45
:104DE000A842E8D1C87F9D7AA842E4D12078DD7A34
:104DF000A842E0D160781D7BA842DCD1F568002094
:104E0000AD8D2D072DD5DB7B012B01D0032B28D1B8
:104E1000C3001F1AC94BDD5D95421DD1FB188D7D66
:104E20005F78BD4218D1CD7D9F78BD4214D10D7EF3
:104E3000DF78BD4210D14D7E1F79BD420CD18D7EF1
:104E40005F79BD4208D1CD7E9B7903E0E5E0E6E0E5
:104E50002EE2E0E09D4202D0401C0828D8DB082862
:104E600017D0B14D686D401C6865706C002802D089
:104E7000804700289FD0FFF709FB01277770FFF7D5
:104E8000E1FAA6490968884208D9401A09E02CE0ED
:104E9000AFE0A548016A491C01620FE2A84A511A15
:104EA0000818F16876230A79181A801A4A6C096C76
:104EB000D2B2C9B2C0B2FFF7EFFAFFF7F3FA9848DF
:104EC000076000207070FFF7F3FAFFF7F7FAA08C85
:104ED000010A9848891C3030FFF7F6FA0E20FFF7D8
:104EE000B7FAA869401CA861E8E13F78012F01D01A
:104EF000022FD2D1E869401CE8618F480B7FC0794E
:104F00008342CAD18C484B7F007A8342C5D18A48FC
:104F10008B7F407A8342C0D18748CB7F807A83429F
:104F2000BBD185482378C07A8342B6D16078824C61
:104F3000237B9842B1D1F0680023808D000726D5ED
:104F4000E07B022801D0032821D1D800C61A7B4873
:104F5000845D944218D130188C7D4678B44213D1C8
:104F6000CC7D8678B4420FD10C7EC678B4420BD18A
:104F70004C7E0679B44207D18C7E4679B44203D187
:104F8000CC7E8079844202D05B1C082BDDDB6D482F
:104F9000022F1AD10478644527D18A7D4478A24231
:104FA00023D1CA7D8478A2421FD10A7EC478A2424E
:104FB0001BD14A7E0479A24217D18A7E4479A2424B
:104FC00013D1C97E827991420FD1082B0DD0696D22
:104FD0000622491C6965614601705649401C891CBE
:104FE000FFF778FAFFF77CFA68E1686A401C6862AC
:104FF00064E15149487BC20701D0252004E08007C5
:1050000001D5262000E02720097D8142ECD93220FD
:10501000FFF76CFA52E107204EE106204CE10878D8
:10502000072879D10B20FFF713FA4149FF220978AD
:1050300025325143444A00208B185870505443483D
:105040000068002805D0FFF757FA40490978C840A2
:1050500005E0FFF751FA3E490968FFF753FA0746A2
:10506000E00535D539480068002805D0FFF750FA2B
:1050700036490978C84005E0FFF74AFA344909681B
:10508000FFF740FA2A4B00901878FF21253148435A
:105090002D4940180279002A01D000220271234ACA
:1050A0007130121D911D03F04FFEF1680098C96820
:1050B000381A411827480160600526D51C49FF228F
:1050C000097825325143204A0120891848701CE094
:1050D0001748FF22007825321B4B012150431954F9
:1050E000296DFF3F491C2965F1680F3F0969C01808
:1050F000CA19184920300A60407E41001648081835
:10510000FF300130018D491C01852046009903F0D4
:1051100003F8FFF703FA21E0CDE000001C12FF1FA7
:105120001812FF1FE511FF1F0C31FF1F2000012087
:105130001512FF1FF82BFF1F442AFF1F892BFF1F8B
:1051400040420F000C12FF1F5C2AFF1F2410FF1F9C
:105150002010FF1F2012FF1FBC03012061490746DA
:1051600008700020087248728872C8725E48044253
:1051700002D0E86C401CE8645C48FF2200782532CD
:1051800050435B4A57498318D81DF930827C0692F8
:105190008A1DFF33C07C491C1333FFF7C5F9024653
:1051A0005248FF2100782531484351494018C11D1C
:1051B000F931CA740279002A0CD10223069A897C3B
:1051C0001A4019408A4205D046494A78002A01D13E
:1051D00001224A70474949688E220904090E039149
:1051E000125C002A02D0AA6ED219AA662030407E34
:1051F000414D40004019C030C18BC919C183FFF730
:1052000099F901463948FF22007825325043384A3F
:1052100080182030407E400040198030828A8918F2
:10522000818207AA05A904A8FFF78AF92F48FF2160
:105230000078253148432E4940182030407E694689
:1052400040002A5A097D51182952401940306946B8
:105250004289097C51184181600705D5039887422E
:1052600002D23846FFF772F9FFF776F91D480021A0
:10527000224B81701A78012A0CD1002F0AD0204AC3
:105280001469002C03D0127DD243920702D0012270
:10529000827019708079002801D0FFF763F9FFF759
:1052A00067F9F078002809D03189FFF767F905E040
:1052B0000878082809D00520FFF7CAF8FFF7DAF8C0
:1052C00062B60320FFF7C4F849E53878FF2125319D
:1052D000484307490B4A4018911D713003F034FDD3
:1052E0000920E9E78031FF1F020800001512FF1FA7
:1052F0005C2AFF1F00100340BC0301201312FF1F94
:10530000442FFF1F24000120F8B58E4F079CBE1DBF
:105310009C460D46002A1FD0012A05D0032A0ED034
:10532000022A0CD0042A59D1002C57D00699002902
:1053300001D0012952D1032A01D0022A0AD1014603
:10534000814BA039994249D2A02D47D3012189032D
:105350008D4243D8002A0BD17B4B01462039803344
:1053600099423BD2202D39D3012189038D4235D872
:10537000854233D36146002901D001292ED10999F4
:10538000002905D0012903D0022901D0032925D104
:105390000899490722D06D4B9988012920D09A732A
:1053A00008994907490F59731CD06849099BCB7369
:1053B0006346002B1BD001238B713378CB7173783C
:1053C0000B72B3784B72F3788B723379CB7273793B
:1053D0000B73012A19D0042A28D036E01220F8BD18
:1053E0000C20F8BD5948072141733020F8BD002337
:1053F0008B713B78CB717B780B72BB784B72FB78EF
:105400008B723B79CB727B79E2E75148069B037044
:105410002378437063788370A378C370E378037153
:10542000237943716379837102200EE0484B069E15
:105430001E7026785E7066789E70A678DE70E678BC
:105440001E7126795E7164799C7148801300FFF7A4
:105450009BF80504060A08060B00002504E0012558
:1054600002E0022500E006253A4E8A79B0880C4613
:105470000009000128434023910198430143D001D2
:10548000802291430843B0800622E11DB01DFFF742
:1054900021F837464037B88CA17900090001402235
:1054A000001D904389010143B98430460622E11D65
:1054B0006630FFF70FF8A07C032100024902411873
:1054C000B2883F2000028243114389B2B180012D8E
:1054D00012D18143032080020818B0801C49BB8C84
:1054E000087880229343C0011843B88430460622CE
:1054F0000C30491CFEF7EEFF1748017808291AD036
:10550000072918D0A17B0B00FFF73EF8050408100F
:105510000C081700012101701F200AE00221017010
:10552000202006E004210170222002E00321017006
:105530002120FEF78DFF0020F8BD002101701E2004
:10554000F7E70000F911FF1F613F0000442AFF1F29
:105550000C12FF1FC42BFF1FE511FF1F10B50E48D3
:105560000E4B0278FF20253042430021D018FF2443
:10557000C1701334215499540123024603716032DF
:10558000937113742023816119548E23195451741B
:105590000521818110BD00001512FF1F5C2AFF1F2D
:1055A000FEB572B65548C068476D866D082F01D8A4
:1055B000002F00D10427082E01D8002E00D1042688
:1055C0004F48504D816C504C491C81642878FF2114
:1055D0002531484300192030407E41004B480818CF
:1055E000FF304130418E491C4186FEF7D3FFFEF764
:1055F0005FFFFEF763FF2878FF212531484300193C
:10560000806AFEF7CDFF2878FF2125314843001935
:10561000406AFEF7CBFF2878FF2125314843001967
:105620002030407EFEF7C8FF2878FF21253148430F
:1056300000192030407EFEF7C5FF2978FF20253075
:10564000414308190279002A0BD02E21095C304A07
:1056500040695143400009182848C068C06F0818C5
:1056600015E0615C0029254909D0CA684069096CC8
:10567000136940185B0040001818D16C06E0C96837
:105680004069CA6840005200C96C10184018FEF703
:105690009FFF1A4DE868806CFEF7A0FFE868416C38
:1056A000CAB2016C808FC9B2C0B2FEF7F5FE042009
:1056B000FEF79AFF0720FEF79DFF02A93846FEF786
:1056C0009FFF69460989C2B201250E4801910095E4
:1056D0000078FF21253148430019FF300130817CDB
:1056E000F3B23020FEF792FFFEF7DCFE09480560BA
:1056F00062B61420FEF7ACFEFEBD000020000120C3
:105700000C31FF1F1512FF1F5C2AFF1FBC03012075
:10571000710200001812FF1F002805DBC206D20E1E
:1057200001219140014A11607047000000E100E052
:1057300010B5002819DB1A4A03231B02D21883086C
:105740009B00D2588307DC0EFF23A3409A438B07AC
:105750001B0E8407E40EA3401A43114B03242402BA
:105760001B198408A4001A5118E00E4A03071B0FE6
:10577000083B9B089B00D2588307DC0EFF23A34005
:105780009A438B071B0E8407E40EA3401A43054B74
:105790000407240F083CA408A4001A5110BD0000FF
:1057A00000E100E01CED00E010B5002819DB1A4A0A
:1057B00003231B02D21883089B00D2588307DC0EF8
:1057C000FF23A3409A438B071B0E8407E40EA340DC
:1057D0001A43114B032424021B198408A4001A51F4
:1057E00018E00E4A03071B0F083B9B089B00D2588A
:1057F0008307DC0EFF23A3409A438B071B0E84070D
:10580000E40EA3401A43054B0407240F083CA408E8
:10581000A4001A5110BD000000E100E01CED00E002
:1058200010B5002819DB1A4A03231B02D21883087B
:105830009B00D2588307DC0EFF23A3409A438B07BB
:105840001B0E8407E40EA3401A43114B03242402C9
:105850001B198408A4001A5118E00E4A03071B0FF5
:10586000083B9B089B00D2588307DC0EFF23A34014
:105870009A438B071B0E8407E40EA3401A43054B83
:105880000407240F083CA408A4001A5110BD00000E
:1058900000E100E01CED00E010B5002819DB1A4A19
:1058A00003231B02D21883089B00D2588307DC0E07
:1058B000FF23A3409A438B071B0E8407E40EA340EB
:1058C0001A43114B032424021B198408A4001A5103
:1058D00018E00E4A03071B0F083B9B089B00D25899
:1058E0008307DC0EFF23A3409A438B071B0E84071C
:1058F000E40EA3401A43054B0407240F083CA408F8
:10590000A4001A5110BD000000E100E01CED00E011
:10591000014802490860704740787D011C00012061
:1059200010B572B61948C068C00703D01748001FE9
:10593000FEF772FE154C403CA06BC00707D0134821
:105940001838FEF769FE12480168491C0160606A58
:10595000C0070CD0E16A0F48C162A16941630B48DE
:105960002C38FEF759FE0C480168491C016020697B
:10597000C00707D02046FEF74FFE2046FEF752FE36
:10598000FEF756FE62B6002010BD00004010024037
:105990002C10FF1F200001203010FF1FF8B5064615
:1059A000002700F0E1F905460AE000F0DDF90446C1
:1059B000AC4201D3601B02E00348401B00190746BC
:1059C000B742F2D3F8BD0000FFFFFF0002E008C8B5
:1059D000121F08C1002AFAD170477047002001E069
:1059E00001C1121F002AFBD170470000F8B5002644
:1059F00006251A48475D00200090002E0AD101219B
:105A00003846FEF71BFE164A2846009900F060FC57
:105A1000044615E00021384600F0C2FD0121384659
:105A200000F01EFF01213846FEF708FE0C4A28460A
:105A3000009900F04DFC04460021384600F0B0FD0E
:105A4000002C00D0F8BD00F0D7FC7D22120180218F
:105A500004480078FEF7F8FD00BFF3E7D096FF1F7B
:105A6000315BFF1F0000012010B50446024804709E
:105A7000FFF7BCFF10BD00000000012070B5064616
:105A80000C4621461CA002F0EBFD0120C003204083
:105A9000002810D01E480078FEF7DCFD051E05D05A
:105AA000284600F043F82846FEF7DAFD204601219B
:105AB000C903484070BD2020204000280DD015A00B
:105AC00002F0CEFD7D221201202111480078FEF760
:105AD000BBFD204620214840ECE7802020400028E4
:105AE00008D00DA002F0BCFDFFF780FF204680210A
:105AF0004840DFE70020DDE76164635F50726F6359
:105B00006573734576656E743A20307825780A009F
:105B10000000012032300A006164634D65617375D5
:105B200072655461736B5F4556540A0070470000FC
:105B3000F8B504462068012820D1217B00231A46AD
:105B4000A06800F0CBFC0646002507E06A00A068CC
:105B5000815A0BA002F084FD681CC5B2207BA842CC
:105B6000F4DC08493046FEF74AFB0746FEF7D4FB53
:105B70000546294604A002F073FD00BFF8BD0000F1
:105B800025780A0000007A44626174745F6D656173
:105B9000737572655F6576742025640A00000000E5
:105BA00010B502211D20FFF777FE10BD10B5FEF7DE
:105BB0005DFD0120FEF760FDFEF764FD002010BDD5
:105BC000F0B500248E464A1E12E0714600230D1BDC
:105BD0006D1E0AE09E0031188C46875949688F4235
:105BE00002D9815161464F605B1C9D42F2D8641C12
:105BF0009442EAD3F0BD000010B505231B221F21FB
:105C00000D4803F015FB0C4C0C4B083407221021F7
:105C1000204603F00DFB062201231146204603F027
:105C200007FB05481438416A012211434162C169EA
:105C3000034A1143C16110BD14F00040FB03000092
:105C400004003E0010B50020054CFF212218401C26
:105C500051704028FADB02F02FFF207010BD0000C9
:105C6000A005012010B50020054CFF212218401C82
:105C700051700628FADB02F03DFF207010BD0000D5
:105C8000B3000120F0B58646080CFF2684460023A9
:105C900088B237461C46194601228A4005461540FF
:105CA000CD402C19A4B2FF2F02D1012C00D18FB20C
:105CB00065462A40CA40D21893B2FF2E02D1012B6A
:105CC00000D18EB2491C1029E6DB012C02D0102C29
:105CD00008D009E0012B07D13001C01971460870C6
:105CE0000220F0BD102B01D00320F0BD0120F0BD3B
:105CF00010B528210148FEF714FA10BD94030120C5
:105D0000032800DA7047012189078968012282404F
:105D1000914301229207916000BFF3E7032800DA64
:105D200070470121890789680122824011430122BD
:105D30009207916000BFF3E70148006870470000D8
:105D40001410FF1F01218907096801228240914335
:105D50000122920711601146096801228240114315
:105D600001229207116070470449886A0202886A1A
:105D7000120A0002000A9042F7D1704700F000407A
:105D800010B504460120FFF709FE1149CB6A1148FE
:105D9000C26A934202D2C96A511A00E0002101632B
:105DA000FFF7E2FF0C490123C86201190A460832D5
:105DB0001B069A4203D309310902090A641A011920
:105DC0000648C162416A2922D2031143416210BDD3
:105DD00000100240200001200012FF1F00F00040D0
:105DE00070B5044626460948855DFF2D00D170BD7B
:105DF0000021284600F0D4FB0021284600F064FC76
:105E00000021284600F098FC00BFF0E70497FF1F30
:105E1000F8B5414A0446D068808DC00764D03F4839
:105E2000406A3F4D8104890CA94202D96842081892
:105E300000E0681AC82819D32B2601233601DB029B
:105E4000B04207D2C80041028601891BC6008919E9
:105E5000081A09E0C80041028601891B4601891B16
:105E6000C600891B40000818C018010B2C482D4B98
:105E7000C430814200D9196819607D26906AF60005
:105E8000B0420AD2284EFF278E198A37BE4200D36D
:105E9000116A401C1960906209E0106A060A3718FE
:105EA0008F4203D3861B8E4200D808461860106AC2
:105EB000C100091A18680918C9081162C108A84266
:105EC0000AD9194AC43A80186043C00801E0401A50
:105ED000641E8842FBD807E0281A6043C00801E02E
:105EE000401A641C8842FBD80C4806220023114645
:105EF000243803F09DF92046FEF7CAFB00F004FEAB
:105F000000F076FD0020FEF7A3FA0120FEF7C6FBA5
:105F10000120FEF7C9FBF8BD2000012040F0004041
:105F2000420F00003412FF1F82F1FFFF0848816C0E
:105F3000491C8164C16CC26C0902C90F5203D20FA3
:105F40005140C26C5202120A5118C164C06C7047B1
:105F50002000012010B502460B46122A01DB052065
:105F600010BD1248816B0120904001430F488163AE
:105F7000416B012090400C46844321460B4841630D
:105F8000C16B002B03D101209040014304E00120AC
:105F900090400C46844321460448C163016B0120B4
:105FA00090400143014801630020D9E70080004090
:105FB00010B50246042A11DA002907D013484069B7
:105FC000012393401843114B58611CE00F4840696E
:105FD0000123934098430D4B586114E0002909D0E8
:105FE0000A4840691346123B01249C402043074B5A
:105FF000586108E0054840691346123B01249C4063
:10600000A043024B5861002010BD00000038004042
:1060100070B500241BE00F48005D022807DDE0B2E8
:1060200000F0B6FB0546E0B2294600F0DFFB232C6A
:106030000CDA0848005D022808DDE0B200F0A8FB99
:106040000C216143034A233289184870641C232CB5
:10605000E1DB70BDBD00012010B502211020FFF76B
:10606000A3FB1020FFF758FB00240CE00C2060433A
:106070000649085C002805D0E0B200F01FFCE0B241
:1060800000F078F8641C232CF0DB10BDE000012048
:10609000F3B581B00646234D002440E00120A04026
:1060A000304000283AD00120A04002990840002842
:1060B00001D1012000E000200746E0B2394600F09F
:1060C00033F80C20604340194068002810D00C20A1
:1060D00060434019806800280AD0002F01D10120B8
:1060E00000E000200746E0B23946FFF733FF14E036
:1060F0000C20604340194068002804D0E0B2002121
:10610000FFF728FF09E00C20604340198068002851
:1061100003D0E0B20121FFF71DFF00BF641C122C69
:10612000BCDBFEBDE000012070B504460E46104DFC
:106130000C20604340194068002808D0002E06D18A
:106140000C20604340194268204690470EE00C2026
:10615000604340198068002808D0012E06D10C2029
:1061600060434019012182682046904770BD0000BD
:10617000E000012070B50446204600F009FB05460A
:10618000002D01D1012000E0002006460C206043D4
:10619000044940184078A84203D031462046FFF712
:1061A000C3FF70BDE000012030B595B02A48406BB8
:1061B000400A40022849486300243DE02648C06B5D
:1061C0008005800D0121A1400840002832D0002523
:1061D0000BE0E00121494118E81C80000858000547
:1061E000000D690005AA50526D1C1D2DF1DB1A48E7
:1061F000806B0121A1400843174988631848007843
:10620000002800D117E0A1001548001D40580028C3
:106210000FD0012001906846047205A803901D214B
:1062200068460174A2000E48001D815801A88847E5
:1062300000BF00BF00BF641C082CBFDB08484078CB
:10624000002801D100F006F90348406B05490843D6
:106250000149486315B030BD000005400004054009
:1062600094030120FF01000070B50548C56B044888
:1062700040300468C46029462046FFF709FF70BD1E
:106280000080004010B5114880680407240F062CD8
:1062900014D004DC022C0ED0042C14D107E0072CFF
:1062A0000DD00C2C0FD1022000F06CFF0BE0012070
:1062B00000F068FF07E000F099FF04E003E0034806
:1062C0004030C06B00BF00BF10BD00000040004068
:1062D00037B5044615463D480078002801D1122004
:1062E0003EBD3B480078002801D01120F8E7002D82
:1062F00001D10620F4E7082C01D0002C01D10520A3
:10630000EEE7012C09D068464079002805D0E00767
:10631000C00F002801D00620E2E7684640792C49EA
:106320008870A1002A48001D45501120FFF7F6FC97
:106330002848C06B402108432649C863254840309F
:106340000068012189040843224940310860084659
:106350004068802108431F49403148600846406832
:106360000121490588431B4940314860084640687F
:10637000491408431749403148600846C06B102152
:10638000084314494031C863684642798179204600
:1063900002F086FE6846407900280CD0204602F0C4
:1063A00049FE02F06DFE204602F034FE611CC8B2C8
:1063B00002F030FE08E0204602F03CFE204602F0EB
:1063C00021FF204602F026FE002089E7140001206C
:1063D0009403012000F0004010B50120044908702A
:1063E000044A0021112000F065FBFFF781FC10BD7D
:1063F00014000120A15BFF1F10B510480078002891
:1064000001D1122010BD01200D490870112000F0AB
:106410001DFB0C488068082108430A4988601D203C
:10642000002805DBC206D20E01219140064A116008
:1064300000BF0648064948630020E3E71400012036
:106440009403012040F0004000E100E0FF01000063
:106450000000054010B51B480078002801D112202B
:1064600010BD1948194948631D20002805DBC206E4
:10647000D20E01219140164A116000BF1548806874
:1064800008218843134988600846406849148843B6
:1064900010494860002408E0A1000F484058002837
:1064A00002D0E0B2FFF79CFC641C092CF4DB112045
:1064B000FFF726FCFFF71CFC112000F047FB002033
:1064C000CEE7000014000120FF010000000005409D
:1064D00080E100E040F0004098030120FFB585B066
:1064E00005460E461F4600200490039000241CE041
:1064F000012F11D16100695AFA021140002905D01B
:106500006100695A4905490D494203E06100695A31
:106510004905490D084603E06100695A0805000D68
:10652000049909180491601CC4B2B442E0DB3046FF
:10653000FDF7EBFE02900498FDF7DCFE0190029956
:10654000FDF79AFE0390002F0AD045210906039813
:10655000FDF792FE7F21C9050290FDF748FE04E099
:106560008B21C9050398FDF787FE03900798002843
:1065700005D18121C9050398FDF741FE03900398D9
:1065800009B0F0BD70B503460C4603E025781D70D8
:10659000641C5B1C1546521E002DF7D170BD000017
:1065A00070B506460C4630460B38012181400D4639
:1065B000002C0DD00021304602F030F8002130468A
:1065C00000F0BAF80648006828430549086004E06E
:1065D00003480068A84302490860002070BD00001D
:1065E0000038004030B50246D406E40E0120A04039
:1065F000034600290BD0501180000B4C0019C068D5
:1066000018435411A400084D6419E0600AE05011C9
:106610008000054C0019C06898435411A400024D35
:106620006419E060002030BD0038004030B50446F9
:106630000D4601212046FFF7D5FFA01080000A4932
:1066400040188069A107CA0EFF2191408843A10725
:10665000CA0E294691400843A1108900024A8918B0
:106660008861002030BD00000038004010B511489E
:106670000078002801D0072010BDFF21C9310D4846
:10668000FDF74FFD01200B49087000200A490863FF
:1066900048630A490862486202211020FFF784F823
:1066A0001020FFF739F8064A06490D2000F002FADB
:1066B0000020E1E7BC0001200080004080F00040A5
:1066C0005960FF1F1160FF1F70B504460E46042C71
:1066D00003DB222C05DC1F2C03DB01212046FFF706
:1066E00067FC00212046FFF77DFF122C0FDA012501
:1066F000A540002E05D00F48406828430D4948604A
:1067000016E00C484068A8430A49486010E020465B
:10671000123801258540002E05D00648006928431F
:106720000449086104E003480069A843014908617D
:10673000002070BD00800040F3B581B00C462646B5
:106740000A210198FDF7B6FF48000818451C0120F2
:10675000A840691C01228A401043C7430A210198BE
:10676000FDF7A8FF800009494018806807403046BF
:10677000A840384306460A210198FDF79BFF800098
:106780000249401886600020FEBD000000F0004075
:1067900030B50346122B0FDA01229A4012484468A2
:1067A0001440002C01D0016802E00F48403001691C
:1067B00008461040014610E0184612380122824077
:1067C000094804691440002C01D0C16802E0064861
:1067D00040304169084610400146002901D001209F
:1067E00030BD0020FCE7000000800040F3B581B020
:1067F0000C460A210198FDF75DFF48000818C6B253
:106800000121019800F09CFC0120B0400546002CBD
:1068100011D00A210198FDF74DFF80000F49401863
:1068200087682F430A210198FDF744FF80000B4938
:106830004018876010E00A210198FDF73BFF8000B7
:10684000064940188768AF430A210198FDF732FFD7
:1068500080000249401887600020FEBD00F0004023
:1068600070B505460E4601212846FFF72DFF122D73
:106870000FDA0124AC40002E05D00F4800682043F9
:106880000D49086016E00C480068A0430A490860FA
:1068900010E02846123801248440002E05D0064816
:1068A000C06820430449C86004E00348C068A043AE
:1068B0000149C860002070BD00800040F8B5044662
:1068C0002A4D012600270C2060434019406800280B
:1068D00007D10C20604340198068002801D11220A4
:1068E000F8BD122C04DB032120482338015503E0B6
:1068F00004211E482338015501210C2060432954EE
:1069000000212046FFF7E0FE0C206043401940685C
:10691000002815D00C2060434019806800280FD053
:106920002046FFF735FF0746002F01D0012000E089
:106930000020064631462046FFF70CFB0020CFE73B
:106940000C20604340194068002801D0002606E072
:106950000C20604340198068002800D00126314691
:106960002046FFF7F7FA0020BAE70000E000012018
:1069700010B50A48007800F005FA1F2000F01CF856
:10698000002000F0B1F901F08BFEFFF76FFEFFF77A
:1069900023FD03A001F064FE10BD00007E00012075
:1069A000616C6C2064726976657220696E6974200E
:1069B0004F4B210A00000000014648094001002811
:1069C00004D00020034A106006207047014801608F
:1069D0000020FAE71000012010B500231122152134
:1069E000024802F025FC002010BD00001CF0004011
:1069F00010B50448112215210368034802F018FC61
:106A0000002010BD100001201CF0004010B57821BE
:106A10000C48FDF786FB0C480078012806D00228B8
:106A200008D0032809D0042808D100E000BFFDF7F2
:106A300047FE03E0FDF74AFE00E000BF00BF002074
:106A400010BD00001C0301200C00012070B505469C
:106A5000122616480078012803D01448007804282C
:106A600003D1FDF72DFE002070BD72B6002417E0A3
:106A70000C2060430E49085C002800D112E00C2075
:106A800060430B49085CA84209D101210C206043F6
:106A9000074A80184170FDF713FE002602E0641CCF
:106AA0000A2CE5DB00BF62B63046DDE70C000120B2
:106AB0001C03012070B503460C4615460021002238
:106AC00012E00C2050430F4E305C984201D1072059
:106AD00070BD0C2050430B4E305C002803D10C20BD
:106AE0005043811902E0521C0A2AEADB00BF002948
:106AF00001D10320ECE7002048700B704C608D60E2
:106B000000BFE5E71C03012010B5FFF771FF00246B
:106B100015E00C2060430C49085C002801D11220CC
:106B200010BD0C206043084940184068002805D07B
:106B30000C216143044A891848688047641C0A2C68
:106B4000E7DB0020ECE700001C03012070B50546E0
:106B500000261C480078012803D01A480078042831
:106B600003D1FDF7ADFD002070BD72B600241BE01F
:106B70000C2060431449085C002800D116E00C206A
:106B800060431149085CA84205D100210C206043F4
:106B90000D4A801841700C2060430B494018407822
:106BA000002800D0761C641C0A2CE1DB00BF002EFC
:106BB00002D1FDF78BFD01E0FDF782FD62B60020FA
:106BC000D2E700000C0001201C03012010B50024B6
:106BD00015E00C2060430C49085C002801D112200C
:106BE00010BD0C206043084940188068002805D07B
:106BF0000C216143044A891888688047641C0A2C68
:106C0000E7DB0020ECE700001C03012010B50A20A0
:106C100015490870012015490870002014490870B2
:106C200000F030F804201349C86113488860C86038
:106C300008611248486101210A20FFF77DFD0D23FC
:106C40000F2212210B48143002F0F2FA0021042026
:106C5000FEF76EFD01210220FEF76AFD084A0021C1
:106C60002020FFF727FF10BD7B0001207C000120C2
:106C70007D00012000F00040B66DDB36B6EDC3B0FC
:106C80000190FF1F70B515480022C0680424866B70
:106C90001025134813493300FDF776FC0708080553
:106CA0000C0E1308050005600C600DE02022026048
:106CB000052004E0302305E0402202600620086041
:106CC00002E0602303600A60FDF706FDFDF70AFDA0
:106CD00002F052F801F02EFF70BD000020000120EC
:106CE0002010FF1F2410FF1F10B50446012C1CD1DB
:106CF00005231B221F21204802F09AFA1F4B07226E
:106D000010211D48083002F093FA01230622114693
:106D10001948083002F08CFA19480068C06A11213D
:106D2000084317490968C86225E0002C23D10021D7
:106D30001020FFF701FD00211120FFF7FDFC0323C8
:106D4000082209210C48083002F072FA00230622BA
:106D500011460948083002F06BFA16231B221F2146
:106D6000054802F065FA06480068C06A11218843A8
:106D700003490968C86210BD14F00040FB0300001D
:106D80002C00012070B50446FF252D35002C03D1C1
:106D90003B483C4908604EE0022C09D13A48006863
:106DA000610408433849086038483649086042E0C1
:106DB000012C1BD134480068A10408433249086003
:106DC00008464068610588432F4948600846406886
:106DD000491408432C49486008464068802108430C
:106DE0002949486026482749086024E02648006869
:106DF0000121890408432449086008464068214667
:106E00000B3101228A4010431F4948600846406800
:106E1000802108431C494860032C03D11C481949B0
:106E2000086008E0042C03D11A481649086002E003
:106E300019481449086001E0681E85B2002DFBDC8A
:106E40002346002203211048001F02F0F1F901201F
:106E50008007C0690221084000280BD048078069DC
:106E60000005060E711C07480068FDF74BFB0B4937
:106E7000086003E0034800680849086070BD00002E
:106E80000048E8011010FF1F40F000400024F4000B
:106E9000006CDC020090D00300D8B8051410FF1F6E
:106EA0001FB513480078002802D0112004B010BD8F
:106EB00020210F48FDF735F96846407A002803D1B4
:106EC0006846C07A002801D00520EFE708486946E7
:106ED0001EC910301EC001200549087002F05EFA7C
:106EE000044A00210820FFF7E5FD0020DEE700004E
:106EF000FC0201209D93FF1F70B504460D46074814
:106F0000807E002804D02946204602F0F7F970BDA3
:106F10002946204602F0A8F9F9E70000FC0201200A
:106F20006D46294607A001F09BFB002405E0A00068
:106F300029580AA001F094FB641C102CF7DB00BF59
:106F4000FEE7000048617264204661756C7420534E
:106F5000502069732025780A0000000030782578D9
:106F60002C000000F8B55249504A534B5148CA60B2
:106F7000D861002003468400401C1351FF28FADD2D
:106F8000C8684E4A04468034A2600622C2620A22C1
:106F900002654B4A157885634A4DC56115781426FC
:106FA000022D03D01578032D03D003E010250562D0
:106FB00000E00662444D4561444D85613C25E56035
:106FC0003625C5633427476408250564392767607B
:106FD00032272760AF24E40004601478022C03D029
:106FE0001278032A02D003E0466001E00B224260DF
:106FF000C824FF22C4602D328260A4000461344C96
:1070000084647D26F6004662324CC464324E866249
:107010000226466682660926C666304E06674567C2
:107020008267B210C2674C618B70CB80CB700B81D2
:107030002C482B491F4A81602B49803A294B11610A
:107040002A49803399622A49C1622A490163254845
:107050002949C0384163294901602249284A8039B9
:10706000CA62284A0A60284AC2601E4A274C403A2F
:107070009463274C1463274C5463274C4C61274C72
:107080008C61274C0C62274CDC61274C1C62274B1F
:10709000D363274ACA61274981622749C1622749C8
:1070A0008163FEF7CFFDFEF7DDFDF8BD000CFF1F8D
:1070B00020000120000CFF1F0010FF1FE807012027
:1070C0007E0001207E04000060E31600DC05000065
:1070D00050C30000540B00006A180000204E00004E
:1070E000B181FF1F0009FF1F194DFF1F358BFF1FC7
:1070F000D14BFF1F814AFF1F4176FF1F0953FF1F1E
:107100003179FF1FAD72FF1F5D55FF1F5194FF1FA7
:10711000D184FF1F115EFF1F7582FF1FA155FF1F46
:10712000A97DFF1FF995FF1FF95BFF1F815DFF1F01
:10713000C578FF1FFD7EFF1FB97BFF1F1974FF1F5E
:1071400030B5C406E40E0123A3401A4600290BD033
:1071500043119B000A4C1B191B6A13434411A400E2
:10716000074D641923620AE043119B00044C1B196C
:107170001B6A93434411A400014D6419236230BD7E
:1071800080F0004070B588B006461648007E0028A2
:107190000DD015484068C5B2002405E0124880387B
:1071A000007804A90855641CAC42F7DB08E001250F
:1071B0000D488038007D0C48803800786946087496
:1071C0000848C06900280AD06846067104A80290E1
:1071D000684605730348C16901A8884700BF08B025
:1071E00070BD0000FC02012080400040FEB5244C30
:1071F000201F0078002800D1FEBD2148001F007E1E
:10720000002800D1F8E71E48001F807E002800D12A
:10721000F2E72078022800D0EEE7A668A08861880F
:10722000401A85B2102D01DD102000E028460546E9
:10723000002D17D10120207000206080A080104810
:10724000001FC069002809D00E4A07CA6B4607C351
:107250000B48001FC1696846884700BF0820FFF738
:1072600075FCC9E705E06188481C6080705C0649D0
:1072700008702846691E8DB20028F4D100BFBBE714
:1072800000030120F896FF1F0040004010B51924AC
:107290002402428E01E0491E4184418C4B1C534321
:1072A000A34201DD0029F6D110BD0000F0B585B084
:1072B00054480290FDF71CFA002856D00020019097
:1072C000FDF71CFA302148434F4945184F4828180C
:1072D000FF35FF3502350090A88A060A8707BF0FE1
:1072E00044D048480446803060340390032F14D0C3
:1072F000002E02D0207C002838D04548816D491CE2
:1073000081650398807B002800D00420301A80B269
:10731000FDF7FAF90190002831D00398807B00280E
:1073200009D0361FF6B232463946009B0298FDF767
:10733000F1F9002828D0032F2ED035483246816B32
:10734000491C816300990198FFF71CF91120205610
:1073500000902C483B46C07832460199FDF7E0F991
:1073600000202861A882FDF7E1F93EE03D21029866
:10737000FDF7E2F92648C16B491CC1633FE0244890
:10738000016E491C01663AE00198FDF7DBF93D21E9
:107390000298FDF7D1F932E01D4E706B401C70630E
:1073A000FDF7C4F91B48007808280DD00098007834
:1073B000032813D0062811D002280FD00D280DD095
:1073C000207C002805D009E000990298FDF7C0F95B
:1073D0000BE00298E030007B002809D00099029869
:1073E000FDF7BCF900202861A882012005B0F0BD9E
:1073F0003D210298FDF7A0F9F06B401CF0630020DE
:10740000F4E700005C2AFF1FC42BFF1F16020000D8
:107410000C31FF1FE511FF1FF8B504460A78FF3055
:107420002646274625460130E03660378035491C20
:107430001300FDF7A9F80D084BF865F5F5AE60BE31
:1074400060B1BBDBF500087828702046022282304C
:10745000491CFDF789F90146204602228430FDF7D8
:1074600083F90146204602228630FDF77DF9014668
:10747000204602228830FDF777F929780222490058
:107480002970698849006980A9884900A9802989EB
:1074900009012981014620467E30FDF765F97E20ED
:1074A000005BE188401A81B26148814201D3282102
:1074B00022E0E888A988401C49004843298988427D
:1074C00001D33B2118E00120387712E0052259480A
:1074D000FDF74AF90146204602228C30FDF744F9B7
:1074E000A889E188401A81B251488142DFD2012047
:1074F000A8720020E083F8BD2046FDF71DF9F8BD15
:10750000307D002809D14C4A25181318E035401C5D
:107510005B78C0B26B750828F6D3707DC00734D095
:107520000020B87138740120307420460822A83039
:10753000FDF71AF9014620460222B030FDF714F992
:1075400001462046A03008220646FDF70DF9054603
:1075500008213046FDF70EF92046294694300422D2
:107560000546FDF701F904212846FDF703F92046F9
:107570009830FDF705F920469030FDF707F90C210A
:107580002E48FDF709F904212CE01A2070730D2113
:1075900028E00120B073F8BD0020B8713874DF21F5
:1075A00008550121317330700B211BE00120F0736D
:1075B000F8BD214A002013182518E035401C5B78DF
:1075C000C0B26B750828F6D3002015180B786D78BB
:1075D000491C2B402518E035401CC0B26B750828AB
:1075E000F3D309212046FDF7DDF8F8BD737F012BA9
:1075F00016D00A780270E01D0222FB30491CFDF70C
:10760000B3F80146E01D0222FD30FDF7ADF8012080
:107610007077F07F0028E8D10C21E3E700E002E07A
:1076200042720721DEE7097801720122C27163E725
:10763000FF7F0000F411FF1F802BFF1F0032FF1F90
:10764000F0B504468BB0C0300A902046F530029069
:107650000B300790274625468038E03760352646B0
:1076600040360990A5E0E87C801E0300FCF78CFF03
:107670000C07A11B3265F3BCDCA18BF4A7A1A87C8D
:10768000012803D0204600F057FB12E08C48807898
:10769000002801D01621D8E0708F401E0004000C95
:1076A00070876FD009E1A87C012804D0204600F043
:1076B00009FAA87401E18248C0780028ECD020467D
:1076C000FDF776F822462146E078B032A831FDF782
:1076D00075F86EE0A87C012812D00A98C07F0128B6
:1076E00022D03878002868D0224621462046BF3272
:1076F0009831CF30FDF768F80A990120C87758E033
:107700006F48C078002807D009990120887309982C
:107710000021416609988166B87B0128BCD1062109
:107720002046FDF757F844E02046FDF759F80128B8
:10773000B8D10020B8730120BBE7A87C012803D092
:107740002046FDF753F8B4E75D48C0780028A3D081
:10775000608CE0832046FDF72BF80120A871287487
:10776000387B0128E07809D001220021FDF744F898
:10777000002038733874F873B8731AE00021FDF7ED
:1077800041F8F5E760E0A87C012805D02046FDF728
:107790003FF8012807D090E0F87B0128BED12046B1
:1077A000FDF706F805E00020F873099988730120B9
:1077B000A874E87D002800D055E70BB0F0BDA87C88
:1077C000012803D0204600F09BFA72E73C48C178BC
:1077D000002905D0099A002191730121A97129740A
:1077E00080780028DBD157E7A87C012806D0204606
:1077F000FDF714F8A874002038755EE0387D012884
:1078000006D0708F401E0004000C708706D054E034
:10781000E1780020029AFDF707F8C0E7E17822201E
:10782000029AFDF701F80FE0A87C012803D020465A
:1078300000F08CF93DE72248C0780028D3D0012021
:107840003875608CE083AAE722212046FCF774FF9C
:107850000120B2E700E02BE0A87C012805D0012040
:10786000F8772046FCF7E6FF23E7787F012806D06B
:10787000708F401E0004000C70870ED01DE0B87F92
:1078800001288CD10798808800900798E178438878
:1078900002780020FCF7D4FF81E7079880880090E9
:1078A0000798E178438802782220FCF7C9FFCBE7EC
:1078B000204600F0F5FA0128AFD000207DE7000057
:1078C0008031FF1F10B5FCF7F3FDFCF7F7FD164CF8
:1078D000A07B0300FCF758FE0507040D0A041800FE
:1078E000FCF7B4FF07E0FCF7B7FF04E0FCF7BAFFD2
:1078F00001E0FCF7BDFF0D498878002811D0627BBC
:10790000D30703D0252206E0122010BD920701D52F
:10791000262200E02722237D934202D1C988FCF76A
:107920002DFE002010BD0000442AFF1F2000012072
:10793000F8B5574C574EA17BF06801293BD0856ABA
:10794000554F2A220021B81DFCF798FFB888A1796D
:10795000000900014022401C9043890101434F4827
:10796000802200789143C00108433F2109028843E7
:10797000032189024018B8800622E11DB81DFCF7DA
:10798000A9FD464938460622491C0C30FCF7A2FDE9
:10799000207D2538032803D30020FCF775FF2075D0
:1079A000207D0746FCF770FF2075A17B012904D0DC
:1079B000B84219D916E0456AC2E73949F0680A6841
:1079C000C06D521980180860364988420AD336487B
:1079D00000210170FCF75EFF344802210078FCF7BB
:1079E000CDFDF8BD28460EE0607BC1078207C90FB8
:1079F000D20F89184007C00F081861882C4A401E12
:107A000051436843081AFCF771FD274802210170B1
:107A10002020FCF71DFD2748FCF7C2FD2648FCF797
:107A2000C5FD3846FCF7C8FD3846FCF7CBFDFF2006
:107A3000FCF736FFF068416CCAB2016C808FC9B2A6
:107A4000C0B2FCF729FDFCF733FDFCF737FDFCF76E
:107A50002DFF0320FCF7CEFD0F488188001D090A89
:107A6000891CFCF731FDFCF71DFD1449012008605D
:107A7000A17B1348012906D00169491C016110202E
:107A8000FCF7E6FCF8BDC168491CC160F7E70000DF
:107A9000442AFF1F20000120C42BFF1F0C12FF1FD0
:107AA000F011FF1F00881300E511FF1FE411FF1FF5
:107AB0007102000055555500D6BE898E1812FF1F61
:107AC0000C31FF1FF8B504461C481D4D861C686527
:107AD000FCF7F2FE002801D00020F8BD0420307031
:107AE000164821469831C01C08220F46FCF7EAFED2
:107AF0002146903104220E46FCF7E4FE0821384668
:107B0000FCF738FE04213046FCF734FE0020082143
:107B10000A1A12198032D37B2218A032401CC0B23C
:107B2000D3750828F4D3074901200870696D064809
:107B300008804034208F60870120F8BD8C31FF1F02
:107B4000200001201412FF1F030D0000F8B50446A9
:107B5000164E1548164F706516493878097808434F
:107B600001D00020F8BD10480925801C0570214671
:107B7000401C0822F531FCF7A5FE8E20005D002890
:107B800007D0736D2A46032120469B1CFCF7A0FEFC
:107B90000D250020E083012038702802716DC01C83
:107BA00008800120F8BD00008C31FF1F200001205B
:107BB0001412FF1F1312FF1FF8B54E4CFCF77CFE8A
:107BC00025462E4660368035002814D1A06E002848
:107BD00011D14948006900280DD148480078002893
:107BE00009D12078002806D1207F002803D0B17C5D
:107BF000002902D00BE0002008E0317F002906D1E7
:107C0000A97A002903D1012801D1608CE083E088A2
:107C1000E18B4018401C20812046FCF75FFE0128C4
:107C200004D10020E083E088401C20810096307F52
:107C3000304E2036012845D127464037FA8F21891A
:107C4000E088FCF751FE00283CD0F88F20812946BF
:107C50002046FCF74FFEE888608400202077E08310
:107C6000012020712089E1894018A081E188F88FE6
:107C7000FCF746FE618E6A8848438718A8888842C8
:107C800007D12989E28E914203D1E988A28E9142DF
:107C900006D02989EA880B094108E078FCF736FE0E
:107CA0002878B073A8886086E888A0862889E0864E
:107CB0002046FFF7EBFA2046FCF72EFE0099002045
:107CC000087700E0678EA069B84203D13078E18B75
:107CD000884206D02346327BE18B14333846FCF7CA
:107CE00021FEA761A07F30702046FCF721FE002016
:107CF000F8BD00005C2AFF1F442FFF1F0431FF1F47
:107D00000A4A094951658A1C0D231370ED231B5C37
:107D100053704030028F4287054A01201070054899
:107D200008800120704700008C31FF1F20000120D7
:107D30001412FF1F03020000F8B50446174E164840
:107D4000174F7065174938780978084301D000202B
:107D5000F8BD114B02229B1CFF211A700931581CDF
:107D6000095D254601708035A87B002804D00321D9
:107D70002046FCF7ADFD062200207C210855A872A4
:107D8000E083E08940346087012038701002716D13
:107D9000C01C08800120F8BD8C31FF1F200001208D
:107DA0001412FF1F1312FF1FF8B5344C207D253825
:107DB000032803D30020FCF767FD2075257D2846A6
:107DC000FCF762FD2E4E2075A8421AD8FCF7B6FDCE
:107DD0008305607B9B0DC1078207C90FD20F400747
:107DE0008918C00F0F187F1EFEF7A0F8C10A60881F
:107DF000244A5043F26812687A43801A0818C0185F
:107E000001E0F0680068FCF771FB1F480124047072
:107E10001F20FCF71DFB1D48FCF7C2FB1C48FCF7AC
:107E2000C5FB2846FCF7C8FB2846FCF7CBFBFF2028
:107E3000FCF736FDF0683C22006CC1B25A20FCF71A
:107E40002BFBFCF735FBFCF739FBFCF72FFD032080
:107E5000FCF7D0FB0F488188001D090A891CFCF73C
:107E600033FBFCF71FFB0C4804600C480168491CFD
:107E700001601020FCF7ECFAF8BD0000442AFF1F57
:107E80002000012071020000E511FF1F555555002B
:107E9000D6BE898EC42BFF1F1812FF1F0C31FF1F87
:107EA00070B5134C1149134D6165134A2978127846
:107EB000114301D0002070BD0C4B07219B1C197091
:107EC000FF260A36591C365C0E708E21095C022290
:107ED000002903D00321FCF7FBFC062201202870B7
:107EE0001002616DC01C0880012070BD8C31FF1F25
:107EF000200001201412FF1F1312FF1FF8B5644861
:107F0000FF21027825314A4362495418A278002A99
:107F10003DD021896048E18082790025002A0BD17B
:107F2000427A002A08D1827A002A05D1C27A002A30
:107F300002D16278002A09D0E2898918A1812571CD
:107F4000217F01292CD1618CE18329E0217800294E
:107F500006D0E21DF932118A491C1182E58305E041
:107F60002571217F012901D1618CE183A289E188FA
:107F70008A4215D12079494D002801D0052907D022
:107F800008212046FCF7D8FBE86A401CE862F8BDEF
:107F90003E212046FCF7D0FB286B401C2863F8BD2F
:107FA0004078002814D03E48C068808D800701D5F5
:107FB0000120207720466030817C002908D1007F95
:107FC000002805D18A20005D002801D1608CE08363
:107FD0002079002800D0E583FCF78AFB060009D051
:107FE0002577002704E0FCF7AFFC002802D07F1CB7
:107FF000B742F8DBA0780028D1D02046FCF7AAFCD5
:108000000128CCD002212046FCF7AAFC20780028C9
:1080100005D023486169026C8918016401E0204899
:108020000564FCF7A3FC0128B9D0FCF70BFA1D4945
:108030000968884201D9451A02E01B4A511A0D18F5
:10804000134EFF2130782531124F4843C0198469FF
:10805000203000781549401C48434443204600F036
:1080600029F83078FF21253148431149C01940696A
:108070000968FF354018053540196E30844201D833
:10808000002801DA201A00E0C820FCF72FFAF8BD1A
:108090001512FF1F5C2AFF1F8031FF1F0C31FF1FCD
:1080A000200001201C12FF1F40420F00710200003F
:1080B0002012FF1F70B5144A13781146C968002BAF
:1080C00012D0CA6E0446CD6CD4402C190F4DCC642E
:1080D0002D78FF26253675430D4EAD19AD692D025D
:1080E000AC4204D8254603E05069C86470BDCD6435
:1080F0000C6FA54200D9CC64521C0649D0400A68D6
:1081000058438018086070BD200001201512FF1F21
:108110005C2AFF1F2012FF1FF0B5214AC605D46854
:108120000023656F002E31DA460509D51D4EFF2765
:10813000367825377E431C4FF6193679002E04D049
:108140001361936146050ED40EE0D6698E4201D9C3
:10815000761A00E08E1BA76FB74204D99669B54224
:1081600000D3761C9661D1619669B5420AD2A56E9C
:10817000646E491B2141146909190C4C1161256871
:10818000691A2160C00504D51370F0BD13619361B5
:10819000EAE71078052800D8401C1070F0BD0000F8
:1081A000200001201512FF1F5C2AFF1F2012FF1F55
:1081B00010B51C481A4941610121C16001601A4A89
:1081C000506B1A49C0B24978002917D118490023C9
:1081D000CB56002B174BCB5606DB1B0400240C5749
:1081E00021025918091808E0FF331B0400240C571A
:1081F00021025918104B0918C9185163022801D2DD
:10820000022002E0502800D95020801E0B49401067
:108210000B5C054800220721143001F009F810BD5D
:10822000FF3F0000001003408000034020000120B9
:108230007D00012000000000FFFE00007805012005
:1082400010B5019C022009490870FEF78BFEFEF76D
:10825000DDFBFEF7DBFCFEF78BFB214604A000F004
:10826000FFF9FDF7A3FC002010BD00007E000120F7
:1082700025780A00F8B57E4CFCF77EFBFCF782FB04
:108280007C48002606617C4821467C4C868020780C
:10829000FF22253250437A4D4231401904222430C6
:1082A000FCF762FA01462078FF222532504340193C
:1082B00003222830FCF758FA01462078FF222532A5
:1082C0005043401901222E30FCF74EFA0146207827
:1082D000FF2225325043401902223030FCF744FA85
:1082E00001462078FF2225325043401902223230C5
:1082F000FCF73AFA01462078FF2225325043401914
:1083000002223430FCF730FA01462078FF22253271
:108310005043401902223630FCF726FA07462078EF
:10832000FF2125314843401902462032917B490004
:108330009173018E49000186418E49004186C18EAC
:108340000901C18601462E31FCF7D4FA2078FF21BD
:10835000253148434019FCF7DFFA2078FF21253109
:1083600048434019828E418EC38E4A4352009A423E
:1083700059DA002957D0052239466030FCF7F4F964
:10838000014601226846FCF7EFF96846027820783A
:10839000FF2125314843D30640190146DB0E6031E9
:1083A0004B7152092C273A54FCF7F2FA2078FF213E
:1083B000253148434019C683818E4184FEF766FF0C
:1083C0003049072008702520FCF742F82078FF226A
:1083D00025325043421901219170D01DF930867425
:1083E0003121C1743920865410460121FCF7D6FA98
:1083F0002178FF22253251434F19394620314876E2
:108400003046214E3B463064388E0A7B1433F98B5C
:10841000801CFCF787FAFCF715F81C4909688842AC
:1084200007D9401A08E01A4840210078FCF7A6F85E
:10843000F8BD184A511A0818F168FF2289682532D8
:1084400008182178144B514349190A8E49695A4337
:10845000101A401A59004018FCF748F80C4804213B
:108460000078FCF78BF80D48816A491C8162F8BDE1
:10847000C42BFF1F442FFF1F442AFF1F1512FF1F8D
:108480005C2AFF1FE511FF1F200001201C12FF1FA7
:10849000E411FF1F40420F00710200000C31FF1F6A
:1084A00010B500240420FCF77FFA08490860042274
:1084B000002106480068FCF7E1F92046641CFCF73F
:1084C00079FA2046FDF7D0FA10BD00000400012023
:1084D000F8B5494D4748E86072B6FCF771FA0028D4
:1084E00073D0464EB07900286FD0454F38680028C9
:1084F00012D1E868434B808DC00710D0FDF734FCE3
:10850000696A884201D3401A01E0591A0818E968DB
:108510008031C968814202D962B630BFF8BDFDF72B
:1085200023FCE968181A898DC90711D0364A374BE0
:108530001168FF24CB188A34A34200D3296A116042
:10854000020C80B24A4348435202C009141809E0A1
:10855000C1018200891A4200891AC20010188908D4
:10856000400A0C18FCF732FA7D21C900484302D0BA
:10857000A04200D80446FCF72FFA25490860254898
:108580000269D20734D18068234AC007C00F12782D
:108590004042104201D0086802E0E8684069086083
:1085A000844200D90446FCF71DFA00280BD0386835
:1085B000002808D1E9688A69C8691218A24202D85D
:1085C0003288002A02D062B630BF11E04969201A11
:1085D000814200D20846420AC10A40098018401A66
:1085E000CA0880188A09801A090A401AFCF700FA9A
:1085F00062B6F8BD000CFF1F20000120B410FF1F61
:108600001812FF1FFFFFFF003412FF1F82F1FFFF50
:10861000B010FF1F00100240E511FF1F30B5C40667
:10862000E40E0123A3401A4600290BD043119B00FE
:108630000A4C1B19DB6B13434411A400074D64194A
:10864000E3630AE043119B00044C1B19DB6B93436B
:108650004411A400014D6419E36330BD00380040AB
:108660000FB438B578210C48FBF75BFD05A80090E6
:108670000020009A049900F01FF80748FCF7BEF9A3
:1086800084B221460448FEF737FC002003490880E5
:1086900038BC08BC04B0184784020120080001203F
:1086A0001FB5044B0FCB6C460FC468460FC8FEF7CE
:1086B000F7FB1FBDE896FF1FF7B584B00C460025F9
:1086C0009EE0207825286ED1641C002007460646CF
:1086D0002078002800D197E02078252800D188E074
:1086E00020782D2801D1641C012702E0641C02209F
:1086F000074320783028F9D005E00A204643207847
:1087000030388619641C2078302802DB207839281C
:10871000F3DD2078732813D106980068029006983C
:10872000001D06900298002801D0029800E03DA0AC
:1087300001463B463246049800F0F5F845195EE0E4
:10874000207864280DD16120019700960290069848
:1087500002C801230A220690049800F081F8451906
:108760004DE0207878280DD1612001970096029085
:10877000069802C8002310220690049800F070F8B2
:1087800045193CE0207858280ED1412001970096E9
:108790000290069802C8002310220690049800F068
:1087A0005FF845192BE023E0207875280DD1612072
:1087B000019700960290069802C800230A220690AC
:1087C000049800F04DF8451919E02078632815D178
:1087D00006980178001D06906846017300214173D8
:1087E0003B46324603A9049800F09DF8451906E07F
:1087F00000BF2178049800F019F86D1C00BF641CBC
:108800002078002800D05CE700BF0498002803D03F
:10881000002104980068017000200690284607B0E7
:10882000F0BD0000286E756C6C29000030B5002882
:1088300005D0036819700268521C02600BE0064AFA
:108840001288782A07DA044A14881288521C024DCA
:108850002A80024A115530BD0800012084020120FF
:10886000FFB587B00C461646109F0020029001907D
:108870000094002C0CD13021684601740021417411
:108880003A4604A9119B079800F04DF80BB0F0BDD3
:108890000A98002807D00A2E05D1002C03DA0120FF
:1088A00002906042009006AD03350020287017E06A
:1088B00031460098FBF726FE039103980A2804DB53
:1088C00012983A3803994018039003983030C1B297
:1088D000681E0546017031460098FBF713FE0090B4
:1088E00000980028E4D10298002813D0002F0DD062
:1088F000022111980840002808D02D210798FFF781
:1089000095FF0198401C01907F1E03E02D21681EF9
:10891000054601703A462946119B079800F003F876
:1089200001994018B2E7FFB581B00D4614461F46C5
:10893000002620200090002C13DD0020294601E0B5
:10894000401C491C0A78002AFAD1A04201DB00240D
:1089500000E0241A02223A40002A01D0302200927C
:1089600000BFF807C00F002808D105E00099019862
:10897000FFF75CFF761C641E002CF7DC05E029780D
:108980000198FFF753FF761C6D1C28780028F6D15C
:1089900005E000990198FFF749FF761C641E002C42
:1089A000F7DC304605B0F0BD70B5164C144DE069EB
:1089B00040084000E0610620FCF7F0FF1148403815
:1089C000826980210A438261E26901231A43E261DC
:1089D000A26A920503D42A466D1E002AF8DC002DF7
:1089E00007DB226A7E23D60B82691E409A433243FC
:1089F000826182698A4382613006400E70BD000048
:108A0000983A000040F00040FFB581B00D460646A0
:108A100010240C4F0CE0FFF7C7FFB04208D2A84269
:108A200006D90499039800F00FF8C019C72804D399
:108A30002046641EE4B20028EDD11020001BC0B215
:108A400005B0F0BD21F1FFFFF0B5002591B00E4655
:108A500007462C460BE01020FCF7A0FF1448406AA4
:108A6000A2008104890C6846641C8150E4B2BC42B7
:108A7000F1D339466846FDF7A3F80E4A0020574265
:108A80006C460EE081006358934201D9D91900E089
:108A9000D11A642902D9002011B0F0BD5D19401C23
:108AA000C0B2B042EED331462846FBF72BFDF3E7C8
:108AB00040F00040420F0000F8B50C4D0C4E002471
:108AC000A000401901686846FDF7DCF8022805D0CF
:108AD000002C02DD012800D10320F8BD32196946BF
:108AE0000978641C5170402CEADBF8BD00080011C5
:108AF000A0050120F8B500240C4D0D4F0526A0005F
:108B0000401901686846FDF7BDF8022805D0002C21
:108B100002DD012800D10320F8BD321B6946D219BD
:108B20000978641C5170062CE9DBF8BD00090011BE
:108B3000B300012010B500F011F800F0C9F9064AA1
:108B40000121582000F040F904230822194638205A
:108B5000FFF75AFF10BD0000A0000120F8B52D4C12
:108B600023782D4D16221B21284600F061FB03239C
:108B700011221221284600F05BFB2D1D0623162230
:108B80001A21284600F054FB032312221321284601
:108B900000F04EFBA079032827D0002319221A21C8
:108BA000284600F045FB0B2304220721284600F04D
:108BB0003FFBE37916221721284600F039FB184DB8
:108BC0001648E86042152A61164868611649A9618D
:108BD000134E40367260B060F160114F1348403F51
:108BE0003860E079012802D00BE00323D6E70022A9
:108BF00001231146384600F01BFBFF20413028615D
:108C00007060E0780A49C006C00B4018B863094894
:108C1000E861F8BD7800012040F00040200100200C
:108C2000C0000340A403B00000008A04242D00000B
:108C3000250800002FFF260070B52C492B4A40392B
:108C4000002825D0022823D08B1513625A020A610E
:108C5000274A0A63274A527801231B03D2184A6124
:108C6000224A2249C03A8039002815D06523224D76
:108C7000DB02224C012819D002281CD0204E80197A
:108C80001060204850600B608D60CC601E4819E079
:108C900080231362DA02DAE71C4810600020886043
:108CA0001B4808601B48C8601B480BE01B4810604D
:108CB0008D600B60E9E71948401C10608D600B6007
:108CC000CC60174808611748486117488861174801
:108CD000C8611748086217484862174888621748F1
:108CE000C862174808631748486370BDC000034056
:108CF000030000017800012055555537D6BE898EF6
:108D000000800698545A98508055082200800678B2
:108D100000280B0007EE75368066082201800642A7
:108D200080450822A49C5C544C0C0403025A544E07
:108D3000483C36332D007F5D57514B453C3630560D
:108D4000504A443E322C262070B50A4B5C6A9D6A1C
:108D5000A30501269B0D7602B34201D99B1B02E0BD
:108D6000FF33FF3302330B80290E0170200E107089
:108D700070BD0000C000034010B5FFF7EFFE044CCB
:108D8000E07800F007F82079FFF756FF10BD0000EB
:108D90007800012010B5044609483F2C0DD00D2362
:108DA0000F22122100F044FA0648816BE206090501
:108DB000090DD20B1143816310BD0823F0E70000B9
:108DC00014F0004080000340F0B5354C666AA56A97
:108DD00000236362A362334C60630E2020626362EF
:108DE0004020A0625020E0622A2060622D4840307E
:108DF000012926D0802101622B49FF232948A53370
:108E000040308360294B4360264B2948403B186122
:108E10007D20C000401EFDD2264889050F1821483C
:108E200040388763234B5B1CC91881632349224860
:108E300089790B00FBF7A8FB070B0B0E0D0E0E0B31
:108E40000E00FF210131016217498331D5E71C482B
:108E500000E01C481C4911601249403103E0CB6A14
:108E6000DB439B0F11D0401EF9D20E484038876378
:108E70000020A062E062886060622062FF204130D2
:108E80006062074846628562F0BDC86A0F4B1840B1
:108E9000106010680122000C120480184860E4E79A
:108EA0000010034080000340CA02000020200000A0
:108EB00080560C20646521001027000078000120F6
:108EC000204E00003075000000002020FFFF3F3FD3
:108ED00030B5244C2079012828D02079032825D0CA
:108EE0002079042822D02079022827D001210220CD
:108EF00000F03CF8C01C60700121422000F036F800
:108F0000C01CA070A07862781749904222D200203D
:108F1000627853016278A578521B42439A1A103244
:108F200052110A54401C2828F2DB30BD00210220D7
:108F300000F01CF8801C6070002106E00121022076
:108F400000F014F8801C60700121422000F00EF83F
:108F5000801CD6E7002062780A54401C2828FADBDF
:108F600030BD0000780001207805012030B51C4C90
:108F70001A4A22601A4A4032012914D01949D16094
:108F800050630E20106200215162FF2015305062A4
:108F90001548857915482B00FBF7F6FA070A0A07EA
:108FA0000C0D0D0A0D001249E9E71048401E02E0C1
:108FB000104800E01048401EFDD209488030406B48
:108FC00051620002000E11620C49D160FF21413153
:108FD00051626521C902216030BD0000100003000C
:108FE000400003407F407200780001200F270000FE
:108FF0007F405200204E00003075000040401000BD
:1090000010B500210420FCF793FB01210220FCF79E
:109010008FFB10BD70B5044626460548855DFF2DC3
:1090200000D170BD01212846FDF7BAFA00BFF8E76C
:109030000497FF1F70B504462546012D0ED101236C
:10904000052207210C4800F0F3F80B480838806827
:109050006107084308490839886070BD0748465DC4
:10906000FF2E00D1F9E76010431C052207210248BA
:1090700000F0DEF800BFF0E748F000400497FF1F63
:1090800010B5002308221146044800F0D1F800234F
:109090000B221146014800F0CBF810BD48F000400B
:1090A00010B5002955D0002A38D043105B00DB1DD5
:1090B000C407E40F1C1B0123A340514C246A9C43AA
:1090C0004F4B1C6243105B00C407E40F1C1B641E63
:1090D0000123A3404A4C246A2343494C2362431C86
:1090E0005B105B00DB1D441CE407E40F1C1B012329
:1090F000A340434C246A9C43414B1C62431C5B10BD
:109100005C00431CDB07DB0FE41A641E0123A34051
:109110003B4C246A23433A4C23626FE043105B00CC
:10912000DB1DC407E40F1C1B0123A340344C246A3D
:109130009C43334B1C6243105B00C407E40F1C1BB1
:10914000641E0123A3402E4C246A23432C4C23622B
:1091500054E0002A38D043105B00C407E40F1B1B07
:109160005B1E01249C40264B1B6AA343244C2362B4
:1091700043105B00DB1DC407E40F1C1B0123A3404D
:109180001F4C246A23431E4C2362431C5B105C006B
:10919000431CDB07DB0FE31A5B1E01249C40184BCA
:1091A0001B6AA343164C2362431C5B105B00DB1D50
:1091B000441CE407E40F1C1B0123A340104C246A49
:1091C00023430F4C236219E043105B00C407E40FF4
:1091D0001B1B5B1E01249C40094B1B6AA343084CCC
:1091E000236243105B00DB1DC407E40F1C1B01233B
:1091F000A340034C246A2343014C236210BD0000AA
:1092000000F0004010B50446E007C00F002806D06B
:1092100001230B221146054800F00AF805E001235E
:1092200008221146014800F003F810BD48F0004044
:10923000FFB581B00C4601680025ED43049B9340C7
:109240000093134606E001269E402F46B7433D4655
:109250005E1CF3B2A342F6DD0B462B401946009B81
:109260001943016005B0F0BD0CB502460020019025
:10927000009007E00098431C00931E4B984201DDCC
:109280000D200CBD1C48C06BC007C00F0028F1D1D9
:1092900018E00020009007E00098431C0093154B55
:1092A000984201DD0D20ECE713484038007D202373
:1092B00018400028F0D010780F4B403B1870521C1B
:1092C0000020019008464B1E99B20028E1D1009081
:1092D00007E00098431C0093064B984201DD0D20E7
:1092E000CFE705484038007D402318400028F0D0E3
:1092F0000020C6E7A086010040400040F8B50646C1
:109300000D46244C002D01D0002E01D10620F8BDC1
:109310002078002801D10320F9E72078012801D026
:109320001120F4E7E088A84201DA0320EFE72A469B
:109330003146A068FAF7DCFEA5800020608002209C
:109340002070A768A0886188401A85B2102D01DDC1
:10935000102000E0284605460F4840680221884357
:109360000D49486005E06188481C6080785C0A49C6
:1093700008702846691E8DB20028F4D1064840685E
:1093800002210843044948600820FDF75FFB0020E4
:10939000BDE70000000301200040004070B5294CEB
:1093A000FCF7CAFC05460820FCF7B8FC0820FCF7CF
:1093B000C9FC20780821FDF739F960780921FDF70B
:1093C00035F90020204908732A1163685B08D0181A
:1093D0006168FBF797F8064600201B49086180206A
:1093E00008730E7003200873207A002802D08720AB
:1093F000087202E0002014490872012012494860F6
:10940000207A002805D008464068802108430E498C
:109410004860A07A002805D00B4840680221084324
:10942000094948600B20002805DBC206D20E012145
:109430009140064A116000BF02210B20FCF7F0F9B1
:1094400070BD00000C0301200040004000E100E07E
:10945000F8B55D4C5B48E0608030806880F3088838
:10946000FDF7BAFA59485B49C76A456B5848006826
:10947000884208D00020FBF711F90120800702691B
:1094800002218A430261FBF72DF9E06880304068D1
:10949000FBF7BAFAE06880300068FBF7BBFAE068D7
:1094A0004D4E808DC00607D54C4B0722102130460B
:1094B000FFF7BEFE012306E0032308220921304600
:1094C000FFF7B6FE0023062211463046FFF7B0FE36
:1094D000434E0020F0610220F0614248706101209B
:1094E000FCF75CFA0320F061FCF73EFC0646FAF755
:1094F000A9FF0090FCF738FC6062FBF791FABE42CE
:1095000001D9F01B02E03849F01B4018E168898D51
:10951000C90706D0010C694380B249026843C009FB
:109520000AE0C1018200891A4200891A891CC2001E
:10953000101889088030400A0D18616B206B411AA1
:109540002848103008188108A1638007E26B800F5B
:109550008018E063042804D9491C8007800FA163A8
:10956000E063224E68183146FAF7CCFF204A1368B0
:10957000C3181360206D08182065B04205D95B1C24
:1095800031461360FAF7BEFF2165FBF74FFAFAF791
:1095900059FF0099401A17492A1809688A4202D2CD
:1095A000491B081A01E07D20C000FBF745FAFBF7D4
:1095B00049FA0220FAF74CFF0020FBF76FF8FBF79F
:1095C00061F8F8BD000CFF1F200001200012FF1FF2
:1095D0002812FF1FB64121031CF00040FB030000CE
:1095E00000100240C4090000FFFFFF0071020000EC
:1095F0003010FF1FB010FF1F70B5274801258106EE
:109600008860264CA068C9110843A0602449142032
:1096100008602448206024486060244803781622AB
:109620001721201DFFF704FE2148C068006AFCF7DF
:10963000B5F921491F4808601F4820498030C1639F
:10964000FF21413141621E480078FDF79BFB1D4917
:109650000220FBF7FDF91C490320FBF7F9F9FF2075
:10966000FBF71EF90120FBF7F9F9FF20F530FAF7B7
:10967000AFFF5820FBF7F8F91448FAF7AFFF284678
:10968000FBF7F8F90720FAF7B5FFE069000A0002D6
:109690008830E06170BD00009021E90140F0004099
:1096A00000E100E020B81F503008BE007F0001201C
:1096B000200001200180063D000003403408000026
:1096C0007E0001207102000040420F003075000052
