:020000041FFFDC
:100800000000000069A2FF1F20BAFF1F44BAFF1FAB
:1008100064BFFF1F00000000000000000000000097
:1008200000000000000000000000000000000000C8
:1008300000000000000000000000000000000000B8
:1008400000000000000000000000000000000000A8
:100850000000000000000000000000000000000098
:100860000000000000000000000000000000000088
:100870000000000000000000000000000000000078
:100880000000000000000000000000000000000068
:100890000000000000000000000000000000000058
:1008A0000000000000000000000000000000000048
:1008B0000000000000000000000000000000000038
:1008C0000000000000000000000000000000000028
:1008D0000000000000000000000000000000000018
:1008E0000000000000000000000000000000000008
:1008F00000000000000000000000000000000000F8
:1009000000000000000000000000000000000000E7
:1009100000000000000000000000000000000000D7
:1009200000000000000000000000000000000000C7
:1009300000000000000000000000000000000000B7
:1009400000000000000000000000000000000000A7
:100950000000000000000000000000000000000097
:100960000000000000000000000000000000000087
:100970000000000000000000000000000000000077
:100980000000000000000000000000000000000067
:10099000958AFF1F298BFF1FE1B2FF1F0000000097
:1009A0000000000000000000000000000000000047
:1009B0000000000000000000000000000000000037
:1009C0000000000000000000000000000000000027
:1009D0000000000000000000000000000000000017
:1009E0000000000000000000000000000000000007
:1009F00000000000000000000000000000000000F7
:100A000000000000000000000000000000000000E6
:100A100000000000000000000000000000000000D6
:100A200000000000000000000000000000000000C6
:100A300000000000000000000000000000000000B6
:100A400000000000000000000000000000000000A6
:100A50000000000000000000000000000000000096
:100A60000000000000000000000000000000000086
:100A70000000000000000000000000000000000076
:100A80000000000000000000000000000000000066
:100A90000000000000000000000000000000000056
:100AA0000000000000000000000000000000000046
:100AB0000000000000000000000000000000000036
:100AC0000000000000000000000000000000000026
:100AD0000000000000000000000000000000000016
:100AE0000000000000000000000000000000000006
:100AF00000000000000000000000000000000000F6
:100B000000000000000000000000000000000000E5
:100B100000000000000000000000000000000000D5
:100B200000000000000000000000000000000000C5
:100B300000000000000000000000000000000000B5
:100B400000000000000000000000000000000000A5
:100B50000000000000000000000000000000000095
:100B60000000000000000000000000000000000085
:100B7000918DFF1F00000000000000000000000039
:100B80000000000000000000AD6DFF1F000000002D
:100B90000000000000000000000000000000000055
:100BA0000000000000000000000000008587FF1F1B
:100BB0000000000000000000000000000000000035
:100BC0006D87FF1F00000000000000000000000013
:100BD0000000000000000000000000000000000015
:100BE0000000000000000000000000000000000005
:100BF00000000000000000000000000000000000F5
:0C0C000001FF01FF01FF01FF41000000A7
:020000041FFFDC
:10400000E0CDFF1FD540FF1FDD40FF1FDF40FF1F3A
:1040100000000000000000000000000000000000A0
:10402000000000000000000000000000E140FF1F51
:104030000000000000000000E340FF1FE540FF1FFC
:10404000E740FF1FE740FF1FE740FF1FE740FF1F5C
:10405000E740FF1FE740FF1FE740FF1FE740FF1F4C
:10406000E740FF1FE740FF1FE740FF1FE740FF1F3C
:10407000E740FF1FE740FF1FE740FF1FE740FF1F2C
:10408000E740FF1FE740FF1FE740FF1FE740FF1F1C
:104090000000000000000000000000000000000020
:1040A0000000000000000000000000000000000010
:1040B000E740FF1F00000000E740FF1FE740FF1F31
:1040C0000348854600F05EF800480047F99FFF1F4F
:1040D000E0CDFF1F0448804704480047FEE7FEE7A5
:1040E000FEE7FEE7FEE7FEE79D6DFF1FC140FF1FF5
:1040F00003460B439B0703D009E008C9121F08C001
:10410000042AFAD203E00B780370401C491C521EAB
:10411000F9D27047D2B201E00270401C491EFBD2B6
:1041200070470022F6E710B513460A4604461946C2
:10413000FFF7F0FF204610BD30B5044600200346CF
:1041400000E05B1C934203D2E05CCD5C401BF8D0E6
:1041500030BD30B505460020034600E05B1C9342AD
:1041600005D2EC5CC85C201A01D1002CF6D130BD20
:104170000321001D401E037812021A43491EF9D57F
:1041800010467047064C0125064E05E0E36807CC53
:104190002B430C3C98471034B442F7D3FFF794FFFD
:1041A00088BBFF1FD8BBFF1F70B58C180578401C5B
:1041B0006B075B0F01D10378401C2A1106D10278EE
:1041C000401C03E006780E70401C491C5B1EF9D1B0
:1041D0002B0705D40023521E0DD40B70491CFAE79F
:1041E0000378401CCB1A921C03E01D780D70491C0B
:1041F0005B1C521EF9D5A142D8D3002070BD00002F
:1042000003B40148019001BD0FF4000003B401485C
:10421000019001BD41F4000003B40148019001BDCB
:10422000FD0E000003B40148019001BD61F20000E1
:1042300003B40148019001BD8117000003B4014897
:10424000019001BDA916000003B40148019001BD11
:104250006117000003B40148019001BDF1F30000B3
:1042600003B40148019001BD6116000003B4014888
:10427000019001BD4D66000003B40148019001BDED
:104280004914000003B40148019001BD85F8000005
:1042900003B40148019001BD5113000003B401486B
:1042A000019001BD3916000003B40148019001BD21
:1042B0005DF6000003B40148019001BD75F40000F3
:1042C00003B40148019001BD8913000003B4014803
:1042D000019001BD5D2F000003B40148019001BDB4
:1042E000CDF9000003B40148019001BDF1F90000CF
:1042F00003B40148019001BDD111000003B401488D
:10430000019001BD59F9000003B40148019001BDBD
:104310009D18000003B40148019001BDF1F10000B7
:1043200003B40148019001BDF117000003B4014836
:10433000019001BD5114000003B40148019001BD7A
:104340006916000003B40148019001BD0915000081
:1043500003B40148019001BDC960000003B40148E5
:10436000019001BDB51F000003B40148019001BDDB
:10437000E9BF000003B40148019001BD1D1B00000E
:1043800003B40148019001BDED1B000003B40148D6
:10439000019001BD6506000003B40148019001BD14
:1043A00021FA000003B40148019001BDC11F0000C3
:1043B00003B40148019001BD89F2000003B4014833
:1043C000019001BD49F4000003B40148019001BD12
:1043D000C9F6000003B40148019001BDC5200000EA
:1043E00003B40148019001BDD541000003B4014868
:1043F000019001BD2141000003B40148019001BDBD
:10440000E9FB000003B40148019001BD55DD000047
:1044100003B40148019001BD89DF000003B40148E5
:10442000019001BD75E0000003B40148019001BD99
:10443000E1DE000003B40148019001BD35E1000058
:1044400003B40148019001BD29E4000003B4014810
:10445000019001BD69E5000003B40148019001BD70
:1044600091E0000003B40148019001BDE1E20000C9
:1044700003B40148019001BDF1E2000003B401481A
:10448000019001BDCDE6000003B40148019001BDDB
:1044900009E9000003B40148019001BDE1E7000013
:1044A00003B40148019001BDB5DF000003B4014829
:1044B000019001BD6102000003B40148019001BDFB
:1044C0006DDF000003B40148019001BD85E00000EC
:1044D00003B40148019001BDD1E5000003B40148D7
:1044E000019001BDCDDF000003B40148019001BD82
:1044F0001DE0000003B40148019001BDCDE00000C3
:1045000003B40148019001BD31E2000003B4014849
:10451000019001BD49E7000003B40148019001BDCD
:104520001DDB000003B40148019001BD2DCF000048
:1045300003B40148019001BDA90B010003B4014877
:10454000019001BD5D0B010003B40148019001BD64
:10455000690B010003B40148019001BD250E010063
:1045600003B40148019001BDF5E3000003B4014824
:10457000019001BD21E3000003B40148019001BD99
:1045800015E3000003B40148019001BDC1E0000043
:1045900003B40148019001BD6DDD000003B4014882
:1045A000019001BDF1DE000003B40148019001BD9E
:1045B0003903000003B40148019001BD55F000002B
:1045C00003B40148019001BD7574000003B40148B3
:1045D000019001BD8574000003B40148019001BD44
:1045E0000959000003B40148019001BD15F2000013
:1045F00003B40148019001BDFDF6000003B4014879
:10460000019001BDC5F9000003B40148019001BD4E
:10461000DD74000003B40148019001BD890D010063
:1046200003B40148019001BDD576000003B40148F0
:10463000019001BDA9F1000003B40148019001BD42
:10464000A529000003B40148019001BD852900009F
:1046500003B40148019001BD0D34000003B40148CA
:10466000019001BD45C0000003B40148019001BDA7
:104670009107000003B40148019001BD691B0000CF
:1046800003B40148019001BDBD07000003B4014817
:10469000019001BD6107000003B40148019001BD14
:1046A000F90D000003B40148019001BD290D00007F
:1046B00003B40148019001BD3107000003B4014873
:1046C000019001BD7919000003B40148019001BDBA
:1046D000010D000003B40148019001BD6F210000ED
:1046E00003B40148019001BD5D0D000003B4014811
:1046F000019001BD990D000003B40148019001BD76
:10470000D10D000003B40148019001BD410E00002D
:1047100003B40148019001BD3975000003B401489C
:10472000019001BD8D75000003B40148019001BDE9
:104730008572000003B40148019001BDE52C010021
:1047400003B40148019001BD7D9E000003B40148FF
:10475000019001BDF59E000003B40148019001BD28
:10476000F94C000003B40148019001BDA53D0000D3
:1047700003B40148019001BD5D52000003B401483B
:10478000019001BD552B010003B40148019001BD0A
:10479000B1C2000003B40148019001BDF1F0000076
:1047A00003B40148019001BDC5C5000003B4014830
:1047B000019001BD0DC7000003B40148019001BD87
:1047C0000BC5000003B40148019001BD394200004F
:1047D00003B40148019001BDF140000003B4014859
:1047E000019001BDC140000003B40148019001BD2A
:1047F0005D41000003B40148019001BD95C3000074
:1048000003B40148019001BD1DC3000003B4014879
:10481000019001BD6D45000003B40148019001BD48
:10482000753C000003B40148019001BD7DCE00003D
:1048300003B40148019001BD71D7000003B40148E1
:10484000019001BD99D7000003B40148019001BD5A
:10485000B943000003B40148019001BD3D4400008C
:1048600003B40148019001BDE1D5000003B4014843
:10487000019001BD7DD2000003B40148019001BD4B
:104880007D4E000003B40148019001BD95DA00009F
:1048900003B40148019001BD4D4F000003B401482D
:1048A000019001BDE9CF000003B40148019001BDB2
:1048B0003DD8000003B40148019001BD89D4000037
:1048C00003B40148019001BD5DD6000003B4014866
:1048D000019001BD3DC4000003B40148019001BD39
:1048E000B551000003B40148019001BD3D0D010028
:1048F00003B40148019001BD55E5000003B401482F
:10490000019001BDBD9E000003B40148019001BDAE
:10491000F5C4000003B40148019001BD3D3F000013
:1049200003B40148019001BD25C2000003B4014851
:10493000019001BD17C4000003B40148019001BDFE
:10494000F7C2000003B40148019001BD01C400009A
:1049500003B40148019001BDD938000003B40148F7
:10496000019001BDDBC2000003B40148019001BD0C
:10497000E1C1000003B40148019001BD41CF000036
:1049800003B40148019001BD199F000003B4014820
:10499000019001BDC9C5000003B40148019001BDEB
:1049A0008DC9000003B40148019001BD39CD00005C
:1049B00003B40148019001BD35D3000003B40148A0
:1049C000019001BD6959000003B40148019001BD87
:1049D0001500010003B40148019001BD59C5000054
:1049E00003B40148019001BD99C4000003B401481B
:1049F000019001BDD54A000003B40148019001BDFA
:104A00003D29000003B40148019001BD9534000028
:104A100003B40148019001BD6913000003B40148CB
:104A2000019001BDE11D000003B40148019001BDEA
:104A3000B55E000003B40148019001BD65B70000F8
:104A400003B40148019001BDD5F6000003B401484C
:104A5000019001BDDDFB000003B40148019001BDE0
:104A6000999E000003B40148019001BDED7500005E
:104A700003B40148019001BD01AF000003B4014837
:104A8000019001BD71B0000003B40148019001BD67
:104A9000ADE5000003B40148019001BD05B0000080
:104AA00003B40148019001BD8D02000003B4014828
:104AB000019001BD3DE4000003B40148019001BD37
:104AC00009E3000003B40148019001BD15E40000B2
:104AD00003B40148019001BDBF2E010003B4014899
:104AE000019001BD01E4000003B40148019001BD43
:104AF0007DE5000003B40148019001BDD100010033
:104B000003B40148019001BDD1EB000003B401489A
:104B1000019001BDF50D010003B40148019001BDF4
:104B20002D68000003B40148019001BDB90D0100DA
:104B300003B40148019001BDFDE2000003B4014847
:104B4000019001BDE9E3000010B5002413460028E0
:104B500002D00224204610BD0A4619460148FFF73C
:104B60004FFBF7E7E3BBFF1FFFB599B000260796A1
:104B700007AA089600F0A6F805460A287CD2044643
:104B80000620444320462030C0B26A460E2105F07C
:104B900045FC002802D168468089C6B21B9841496D
:104BA000099009781C98022913D000211791082830
:104BB00011D020462130C7B21C2200216846FFF7E1
:104BC00025FB6A461C21384605F028FC002805D044
:104BD00010E00121EAE720462230ECE76846807EBB
:104BE000C01F092806D8F107C90F6A46179B099804
:104BF000FFF712FB142200210BA8FFF707FB20464A
:104C00002430C0B20BAA102105F008FC002812D1F4
:104C10001022FF210BA8FFF705FB00280BD125343C
:104C2000E0B20FAA042105F0F9FBF107C90F0BAAA6
:104C30001B98FFF7FDFA7035E8B210AA102105F0B5
:104C4000EDFB002811D110A802F0E1FD002410AD09
:104C5000A00040190188002903D082781B9800F039
:104C6000DFFD641CE4B2042CF2D3B00704D50D4878
:104C7000017B1B9800F0C2FD1C9804280FD1094944
:104C8000087802280BD10A791B98002A00D001224B
:104C90004978002900D004211143FFF7CFFA002002
:104CA0001DB0F0BD24BDFF1F10B5054CA061217BD8
:104CB0002620FFF7C9FA207B00F050FD10BD000050
:104CC00024BDFF1FF0B50A2485B016460F46002804
:104CD00007D0012805D00A25022810D0032847D183
:104CE0001FE0084602F060FD04460A2840D2002E6C
:104CF0003ED0062239463046FFF782FA38E01E4F92
:104D0000002400910E206043C0190622801D0099E6
:104D1000FFF7A0FA002823D1641CE4B20A2CF1D3D7
:104D20001CE000242046062148432330C0B26A46D6
:104D3000102105F073FB00280CD11022FF216846DA
:104D4000FFF770FA002805D139466846FFF788FA60
:104D5000002805D0641CE4B20A2CE3D32C4607E0FB
:104D60000A2C05D2002E03D03146204602F034FD35
:104D7000204605B0F0BD000000C2FF1FFEB515467D
:104D800001229202821A00240127524E1300FFF7DB
:104D90006DFA110A11161D242B333A3F477279819F
:104DA00089979752970001297ED1287802287BD8CD
:104DB00030708DE0022977D12888F08188E00129C0
:104DC00072D1287801286FD8707081E001296BD1E9
:104DD0002878042868D8B0707AE0012964D128784E
:104DE000012861D8F07073E010295DD110222946A6
:104DF0003948FFF705FA6BE0012955D128780128D9
:104E000052D8307164E001294ED12878F0715FE00A
:104E1000042949D131492868884245D8706157E052
:104E2000002941D1FFF728FA002801D0B7724FE0DE
:104E300002F03CFC19E0072936D10622691C6846BD
:104E4000FFF720FA287800226946FFF73BFF054666
:104E50000A280ED2FFF710FA002803D01E489C3013
:104E6000475535E0284602F02DFC502005F0D4FAD5
:104E700023E002242CE0012916D12878012813D838
:104E8000707125E001290FD1287809280CD8B0715C
:104E90001EE009E0012907D12878C11F092903D89C
:104EA000307215E0012901D0182411E0717A2878B8
:104EB000707200290CD101280AD102F0B7FC07E07A
:104EC0002728D6D20229D4D12988FFF7BDF9044674
:104ED0002046FEBD24BDFF1FF0C1FF1F3F420F0053
:104EE00070B50C460146032000020A1A002534481A
:104EF0001300FFF7BBF91D1012151C1F2326282CC9
:104F0000303234383A3C3E40424446484A4E505291
:104F10005A5456585A00C07911E01022294902E02B
:104F20002849102210312046FFF76AF945E0C06A8F
:104F3000206042E0224906223C31F4E700782070EC
:104F40003BE0808936E01E4942784231EBE71D495B
:104F500082781F39E7E7007AF1E7407AEFE71849EE
:104F600006223031DFE7807AE9E7C07AE7E7C089D7
:104F700020E0808A1EE0C0781CE0C08A1AE0008B26
:104F800018E0408B16E0808B14E00D490622363184
:104F9000C9E7C08B0EE0008C0CE0408C0AE0807901
:104FA000CDE7008A06E0408A04E0272904D20846BB
:104FB000FFF76EF9208000E00225284670BD000052
:104FC000CCBDFF1FCBC2FF1F70B50E4C002560711A
:104FD000A571691EE181FFF761F90420E0711022DB
:104FE00000210948FFF712F907481022002110306C
:104FF000FFF70CF9E562257265720120A072E57277
:1050000070BD0000CCBDFF1FCBC2FF1FFEB53B4DE6
:105010000C4608040CD56879FFF746F9050004D062
:1050200002F056FD2846FFF745F90120C00360E075
:10503000600403D5012080034840FEBD2F48E107EE
:105040000126807900292AD02978002920D0052836
:1050500021D0297A68460170697A41702749062271
:105060003031801CFFF7CCF8A97A68460172E97AE2
:10507000417269466879FFF723F9002808D00720B4
:10508000A871696A002903D00968002900D08847FF
:1050900020467040FEBD032069460870E4E7A10782
:1050A0000DD5052809D1E889FFF710F9AA8A002A49
:1050B00003D002216879FFF70FF9022019E0600799
:1050C00004D5002002F044FD042012E0200712D590
:1050D0002879012802D002280AD107E00096AB8B7C
:1050E0006A8B298BE88A00F00BF801E000F05AF98E
:1050F00008206040FEBD0020FEBD0000CCBDFF1FAB
:10510000F8B5134C069EA579052D01D01420F8BDE5
:10511000104F851FBD4219D2062917D3BD1DA942C4
:1051200014D2FF27F537BA4210D20A2B0ED3AB4266
:105130000CD2E08221836283A383304602F008FD13
:1051400004216079FFF7CEF80020F8BD1820F8BDE3
:10515000CCBDFF1F7A0C0000F7B50D4680490098C2
:10516000164642187F4F00247879B9791300FFF76B
:105170007DF8190E141BE92040455970777E888F01
:10518000E996A2A9B4BFC8E9E9E9E9D3E900102D7D
:1051900076D11022314674486FE0102D70D17248DC
:1051A00010223146103068E0042D69D13068F86271
:1051B000CEE0012D64D13B7832783A70002B0AD0D2
:1051C000002A07D1022903D0062901D0042901D1E0
:1051D000FFF78EF8BCE0002A0AD0012905D0032988
:1051E00003D0052901D0042902D10121FFF786F857
:1051F000AEE0022D44D13088B881A9E01F2D3FD800
:1052000058481F2200214230FFF700F855482A462F
:1052100031464230FEF7F4FF524B7D7042332A464E
:10522000012112E01F2D7CD84F481F2200211F387A
:10523000FEF7ECFF4C482A4631461F38FEF7E0FFE8
:10524000494B2A461F3BBD7000217879FFF75CF877
:1052500083E0012D65D13078042862D8387277E078
:10526000012D5ED1307803285BD8787270E0062D6E
:1052700057D13C48062231463030FEF7C1FF67E087
:105280004FE0012D4DD1307807284AD8B8725FE041
:10529000012D46D13078032843D8F87258E0022D0A
:1052A0003FD13288BA82002A52D0052950D102213A
:1052B000FFF712F84CE0012D33D13078012830D8B7
:1052C000F87045E03088022D2BD1062829D319210A
:1052D000C901884225D8F8823AE03088022D20D1D1
:1052E00006281ED31921C90188421AD838832FE015
:1052F0003088022D15D1FF21F531884211D27883F3
:1053000026E03088022D0CD10A280AD31921C901C0
:10531000884206D8B8831BE03178012D01D10129DC
:1053200001D0182414E00821FEF7F4FF002801D072
:1053300016240DE0002002F00BFC04217879FEF722
:10534000D1FF05E00098272801D2022D02D00224C7
:105350002046FEBD3188FEF777FF0446F8E70000DF
:10536000FFFCFFFFCCBDFF1FCBC2FF1F1CB50B4CCA
:10537000A179002901D011201CBD002800D0606255
:10538000064907482C31034601910090103B00224A
:10539000E179607900F016F800201CBDCCBDFF1F3C
:1053A000DBC2FF1F10B506488179052901D0122004
:1053B00010BDC18913224079FEF7B2FF10BD000075
:1053C000CCBDFF1FF8B51D460224069F079E0B00AB
:1053D000FEF74CFF0511041111041100FEF7A6FFA2
:1053E000040008D1324639462846FEF7A5FFFEF7ED
:1053F000A9FFFEF7ADFF2046F8BD0000014610B53D
:105400000020C90704D0034A0421034800F0ACF986
:1054100010BD000014BAFF1F48BEFF1F70B50F4D2E
:105420000F4CA87029461031204600F01DF80021CD
:1054300028460B460830CA0084521218491C090637
:105440005360090EF7D0142002F05CFFA878FEF735
:1054500085FF0448FEF788FF70BD000030BEFF1FC7
:10546000FFFF00001D7CFF1F70B50A4C0025A04205
:1054700009D1002082008C525218401CC0B2957095
:105480000228F7D370BD02F098FB0028FAD0048000
:10549000857070BDFFFF0000F8B50E4607460699FF
:1054A00000240798002902D00B242046F8BD022BC7
:1054B00001D00D24F9E711785278120289188DB2C3
:1054C0002946814301D08024EFE73846F16800F097
:1054D0003DF9A842E9D02A463846F16800F0CCF9F7
:1054E0000400E2D171892A46384600F06BF9DCE706
:1054F00070B50C46080412D50A488078FEF7D4FE31
:10550000050008D02878B02802D1284602F066FCB1
:105510002846FEF7CFFE0120C003604070BD00208A
:1055200070BD000030BEFF1FFFB587B0087A0025B0
:10553000109E1C460F46C0060DD5099802F036FB9A
:10554000030006D00A22394607989847050035D14E
:1055500001E00E2532E0387802281DD17868292232
:105560000178407812020002081880B2811A904235
:105570007ED009DC7249401A23D0012821D00228AC
:1055800051D0032808D125E0012972D0022971D019
:1055900003296DD004296ED0099802F02FFB002852
:1055A000D7D00568002DD4D01299119801910090A0
:1055B0003346224639460798A847054628460BB089
:1055C000F0BD1198002873D1F86801783170027825
:1055D000416897E0119800286AD101203070F8687E
:1055E0000021007820707889401C80B2FEF7C2FE4E
:1055F00000280FD0317802788918891C3170817A9F
:1056000061704189090AA17002784168E01CFEF7C7
:10561000F7FDD3E730780422001D30700021601CB4
:10562000FEF7F4FDCAE71198002872D1F86804A9C2
:105630000088009004203070009820700098000AC4
:1056400060700098FEF796FE070028D0F868059075
:105650006846028A03AB3B493846FEF791FE0028B4
:105660000FD13B78022138487A68FEF78FFE03E0BD
:1056700027E031E01DE049E0002802D131486946C9
:1056800088810598007802280CD10598022241688B
:10569000201DFEF7B5FD3078801C307002E06946B1
:1056A0000098888168468089A070000AE07085E7CC
:1056B0002FE0119800282CD1F968079800F046F8DF
:1056C00004E01198002824D1F86800880221317084
:1056D0002070000A607071E7F868FEF75DFE1199AE
:1056E000C0B2814210D8814201D1002206E0129A54
:1056F0008918814202D31199401AC2B23270F968F6
:1057000011980918204682E7072557E711980028C5
:1057100001D00B2552E70721F8683170017821701C
:10572000417861708178A1704188090AE17001793E
:10573000217181796171C088000AA0713EE7000083
:1057400000280000FFFF0000DA2F010010B502F072
:1057500034FA002800D0807810BD0000014908709C
:105760007047000030BEFF1F7CB51446050019D0FD
:10577000684601950180FEF715FE03001DD1002C3F
:105780001BD06D89002D0DD00C20FEF711FE0028D6
:105790000AD0002303608580094A8460516800298B
:1057A00004D006E0022308E0132306E0506004E082
:1057B00011460A68002AFBD1086018467CBD00002B
:1057C00030BEFF1FF8B50C4C0746207815460E4634
:1057D000FF280FD00A20FEF7F1FD01000AD0B1200A
:1057E00008700020487008714F80CE800D812078AD
:1057F000FEF7EAFDF8BD000030BEFF1F70B50C4695
:1058000005460649FFF7A2FF800704D52146284632
:10581000FEF7E0FD70BD012070BD000040BEFF1F1F
:105820001CB56B461A71120A5A71002200920223AB
:1058300001AA00F001F81CBDFFB583B008461E4662
:1058400001A90C9FFEF796FD050012D068468088DE
:1058500002F0D4F900280AD04468002C07D0009741
:10586000F3B22946059A0398A04707B0F0BD0E2071
:10587000FBE70120F9E7000070B514460E46054627
:1058800002F09BF9002806D13146054802F095F94F
:10589000002803D005808470002070BD112070BDE9
:1058A000FFFF0000014610B50020C90704D0034ADD
:1058B00007210348FFF758FF10BD000000BAFF1F83
:1058C00058BDFF1F70B50D46164600241D49030044
:1058D000FEF7CCFC08051234341934222934152D76
:1058E00023D8162200211848FEF790FC2A4631469C
:1058F0001548FEF785FC22E0022D16D111491088CB
:10590000103908801BE0082D0FD10E4808223146BF
:105910000838FEF7EDFB12E0012D06D1CA690949EE
:105920003078283107E0012D01D0182407E0CA6B38
:1059300004493078483102F0AEFD00E002242046F0
:1059400070BD000058BDFF1F96C2FF1FFFB5044683
:105950004E4F81B00020386020461D46BF30FEF714
:105960003FFD4B4826460078B23680340828A06EAA
:1059700032462CD00121FEF739FD444F3078F863D0
:10598000761C3046FEF7F4FB00BA000AF1780002FC
:105990000843B863361D3046FEF7EAFB00BA000A3A
:1059A000F178000208437863361D3046FEF7E0FBCD
:1059B00000BA000AF1780002084338630398010234
:1059C00002980143F960039F00263F1D0EE000216D
:1059D000D1E7A819401CFEF7CBFB0102A85D0143EB
:1059E0002C4830180160361DF6B23F1F042FF0DA44
:1059F000032F04D0022F08D0012F0FD014E0A819D4
:105A0000FEF7B6FB0102090A09E0A91948780978EE
:105A1000000208431F497118086003E0A95D1D4892
:105A200030180160361DF6B200211A4A02E0B018A3
:105A30000160361DFF2EFADD1448174B43600F231B
:105A40000361012303604369002BFCD043690160BB
:105A50000020039B11E0811809682954401CC0B242
:105A60000E0A2E54401C0E0CC0B22E54401CC0B264
:105A7000090E2954401CC0B21B1F002BEBDCA06E8A
:105A8000401CA066012005B0F0BD000000000440ED
:105A9000E511FF1F00010440080F0000FFB5044698
:105AA0004D4F81B00020386020461D46BF30FEF7C4
:105AB00097FC4A4826460078B23680340828606E43
:105AC00032462BD00021FEF791FC434F3078F8632B
:105AD000761C3046FEF74CFB00BA000AF178000253
:105AE0000843B863361D3046FEF742FB00BA000A91
:105AF000F178000208437863361D3046FEF738FB24
:105B000000BA000AF178000208433863039802994A
:105B100000020843F8600026039F0EE00121D2E74F
:105B2000A819401CFEF724FBA95D000208432C497C
:105B300071180860361DF6B23F1F042FF0DA032FEC
:105B400004D0022F08D0012F0FD014E0A819FEF7BF
:105B50000FFB0102090A09E0A91948780978000237
:105B600008431F497118086003E0A95D1C483018FC
:105B70000160361DF6B20021194A02E0B01801603A
:105B8000361DFF2EFADD0F2313481B0243600F233F
:105B90000361012303604369002BFCD0016003987B
:105BA0000023001D11E099180968E9545B1CDBB261
:105BB0000E0AEE545B1C0E0CDBB2EE545B1CDBB227
:105BC000090EE9545B1CDBB2001F0028EBDC606EA1
:105BD000401C606605B0F0BD00000440E511FF1FE9
:105BE00000010440F0B589B0FEF706FCFE490860EC
:105BF0000420FEF707FCFEF70BFC0446C00712D09A
:105C0000FA490020086072B6FEF708FCF849F94D21
:105C1000F94E02280BD001287ED0F84F05287CD001
:105C200004287BD0ADE2FEF7FFFB09B0F0BD087899
:105C30000F46012806D0032804D0022802D00528E8
:105C40006DD09EE20720FEF7DDFB08AB07AA06A990
:105C5000EB48FEF7EFFBEA493439898E0B0749061A
:105C6000CA0FE7491B0F34390C46403420319446A3
:105C7000002801D0032B05D0052B6ED038780128E1
:105C80006CD081E23878012801D00328F9D1D948B5
:105C900043695B1C4361DB4B087FDD79A842F0D18F
:105CA000487F1D7AA842ECD1887F5D7AA842E8D16E
:105CB000C87F9D7AA842E4D12078DD7AA842E0D15D
:105CC00060781D7BA842DCD1F5680020AD8D2D07E2
:105CD0002DD5DB7B012B01D0032B28D1C3001F1A4C
:105CE000C94BDD5D95421DD1FB188D7D5F78BD42AE
:105CF00018D1CD7D9F78BD4214D10D7EDF78BD4295
:105D000010D14D7E1F79BD420CD18D7E5F79BD4291
:105D100008D1CD7E9B7903E0E5E0E6E02EE2E0E00D
:105D20009D4202D0401C0828D8DB082817D0B14D6E
:105D3000686D401C6865706C002802D080470028A0
:105D40009FD0FEF77DFB01277770FEF755FBA64934
:105D50000968884208D9401A09E02CE0AFE0A5485C
:105D6000016A491C01620FE2A84A511A0818F16839
:105D700076230A79181A801A4A6C096CD2B2C9B211
:105D8000C0B2FEF763FBFEF767FB98480760002090
:105D90007070FEF767FBFEF76BFBA08C010A98485A
:105DA000891C3030FEF76AFB0E20FEF72BFBA8693A
:105DB000401CA861E8E13F78012F01D0022FD2D129
:105DC000E869401CE8618F480B7FC0798342CAD1E3
:105DD0008C484B7F007A8342C5D18A488B7F407ABA
:105DE0008342C0D18748CB7F807A8342BBD185482C
:105DF0002378C07A8342B6D16078824C237B984264
:105E0000B1D1F0680023808D000726D5E07B022801
:105E100001D0032821D1D800C61A7B48845D944262
:105E200018D130188C7D4678B44213D1CC7D867859
:105E3000B4420FD10C7EC678B4420BD14C7E0679A9
:105E4000B44207D18C7E4679B44203D1CC7E8079AE
:105E5000844202D05B1C082BDDDB6D48022F1AD177
:105E60000478644527D18A7D4478A24223D1CA7D33
:105E70008478A2421FD10A7EC478A2421BD14A7EF6
:105E80000479A24217D18A7E4479A24213D1C97EF5
:105E9000827991420FD1082B0DD0696D0622491CE1
:105EA0006965614601705649401C891CFEF7A8F9D6
:105EB000FEF7EAFA68E1686A401C686264E15149E9
:105EC000487BC20701D0252004E0800701D52620A9
:105ED00000E02720097D8142ECD93220FEF7DAFA72
:105EE00052E107204EE106204CE10878072879D1DD
:105EF0000B20FEF787FA4149FF22097825325143EA
:105F0000444A00208B1858705054434800680028B9
:105F100005D0FEF7C5FA40490978C84005E0FEF70C
:105F2000BFFA3E490968FEF7C1FA0746E00535D5D4
:105F300039480068002805D0FEF7BEFA36490978CE
:105F4000C84005E0FEF7B8FA34490968FEF7AEFA32
:105F50002A4B00901878FF21253148432D494018DD
:105F60000279002A01D000220271234A7130121DE9
:105F7000911D05F09DF9F1680098C968381A41181B
:105F800027480160600526D51C49FF220978253283
:105F90005143204A0120891848701CE01748FF220D
:105FA000007825321B4B012150431954296DFF3FC6
:105FB000491C2965F1680F3F0969C018CA191849B9
:105FC00020300A60407E410016480818FF3001303A
:105FD000018D491C01852046009903F079FFFEF7E9
:105FE00071FA21E0CDE000001C12FF1F1812FF1F04
:105FF000E511FF1F0C31FF1F54C1FF1F1512FF1FBA
:10600000F82BFF1F442AFF1F892BFF1F40420F0060
:106010000C12FF1F5C2AFF1F2410FF1F2010FF1F00
:106020002012FF1FB8C7FF1F6149074608700020F4
:10603000087248728872C8725E48044202D0E86CE6
:10604000401CE8645C48FF220078253250435B4ADC
:1060500057498318D81DF930827C06928A1DFF3378
:10606000C07C491C1333FEF733FA02465248FF2125
:1060700000782531484351494018C11DF931CA748F
:106080000279002A0CD10223069A897C1A40194011
:106090008A4205D046494A78002A01D101224A7035
:1060A000474949688E220904090E0391125C002AAF
:1060B00002D0AA6ED219AA662030407E414D40001F
:1060C0004019C030C18BC919C183FEF707FA0146D8
:1060D0003948FF22007825325043384A8018203052
:1060E000407E400040198030828A8918818207AA48
:1060F00005A904A8FEF7F8F92F48FF2100782531FB
:1061000048432E4940182030407E694640002A5AB4
:10611000097D511829524019403069464289097C4D
:1061200051184181600705D50398874202D238464D
:10613000FEF7E0F9FEF7E4F91D480021224B8170DB
:106140001A78012A0CD1002F0AD0204A1469002C99
:1061500003D0127DD243920702D0012282701970BF
:106160008079002801D0FEF7D1F9FEF7D5F9F07853
:10617000002809D03189FEF7C1F805E00878082821
:1061800009D00520FEF73EF9FEF74EF962B603206E
:10619000FEF738F949E53878FF21253148430749AA
:1061A0000B4A4018911D713005F082F80920E9E78B
:1061B0008031FF1F020800001512FF1F5C2AFF1F1D
:1061C00000100340B8C7FF1F1312FF1F442FFF1F0B
:1061D00058C1FF1FF8B58E4F079CBE1D9C460D464B
:1061E000002A1FD0012A05D0032A0ED0022A0CD083
:1061F000042A59D1002C57D00699002901D0012931
:1062000052D1032A01D0022A0AD10146814BA0397A
:10621000994249D2A02D47D3012189038D4243D809
:10622000002A0BD17B4B01462039803399423BD267
:10623000202D39D3012189038D4235D8854233D3AE
:106240006146002901D001292ED10999002905D0E4
:10625000012903D0022901D0032925D10899490732
:1062600022D06D4B9988012920D09A73089949074B
:10627000490F59731CD06849099BCB736346002BA7
:106280001BD001238B713378CB7173780B72B37889
:106290004B72F3788B723379CB7273790B73012A5B
:1062A00019D0042A28D036E01220F8BD0C20F8BD01
:1062B0005948072141733020F8BD00238B713B788A
:1062C000CB717B780B72BB784B72FB788B723B790E
:1062D000CB727B79E2E75148069B037023784370C9
:1062E00063788370A378C370E37803712379437173
:1062F0006379837102200EE0484B069E1E7026785B
:106300005E7066789E70A678DE70E6781E712679DB
:106310005E7164799C7148801300FDF7A7FF050446
:10632000060A08060B00002504E0012502E002250C
:1063300000E006253A4E8A79B0880C460009000133
:1063400028434023910198430143D0018022914387
:106350000843B0800622E11DB01DFDF751FF37460E
:106360004037B88CA179000900014022001D9043FC
:1063700089010143B98430460622E11D6630FDF7EC
:106380003FFFA07C0321000249024118B2883F2050
:1063900000028243114389B2B180012D12D18143A1
:1063A000032080020818B0801C49BB8C087880222A
:1063B0009343C0011843B884304606220C30491C70
:1063C000FDF71EFF1748017808291AD0072918D0B1
:1063D000A17B0B00FDF74AFF050408100C0817000D
:1063E000012101701F200AE002210170202006E037
:1063F00004210170222002E0032101702120FEF718
:1064000001F80020F8BD002101701E20F7E7000010
:10641000F911FF1F613F0000442AFF1F0C12FF1FEC
:10642000C42BFF1FE511FF1F10B50E480E4B02785D
:10643000FF20253042430021D018FF24C1701334BF
:1064400021549954012302460371603293711374ED
:106450002023816119548E2319545174052181819F
:1064600010BD00001512FF1F5C2AFF1FFEB572B69B
:106470005548C068476D866D082F01D8002F00D1A0
:106480000427082E01D8002E00D104264F48504D75
:10649000816C504C491C81642878FF212531484388
:1064A00000192030407E41004B480818FF30413031
:1064B000418E491C4186FEF735F8FDF7D3FFFDF705
:1064C000D7FF2878FF21253148430019806AFEF75D
:1064D0002FF82878FF21253148430019406AFEF73C
:1064E0002DF82878FF212531484300192030407EBF
:1064F000FEF72AF82878FF2125314843001920307B
:10650000407EFEF727F82978FF20253041430819FF
:106510000279002A0BD02E21095C304A4069514390
:10652000400009182848C068C06F081815E0615C71
:106530000029254909D0CA684069096C13694018C7
:106540005B0040001818D16C06E0C9684069CA6851
:1065500040005200C96C10184018FEF701F81A4D9F
:10656000E868806CFEF702F8E868416CCAB2016C1A
:10657000808FC9B2C0B2FDF769FF0420FDF7FCFFB0
:106580000720FDF7FFFF02A93846FEF701F869462C
:106590000989C2B201250E48019100950078FF21BA
:1065A000253148430019FF300130817CF3B230209F
:1065B000FDF7F4FFFDF750FF0948056062B61420AF
:1065C000FDF720FFFEBD000054C1FF1F0C31FF1F6F
:1065D0001512FF1F5C2AFF1FB8C7FF1F71020000C2
:1065E0001812FF1F002805DBC106C90E01208840D4
:1065F000014908607047000000E100E08307FF22C6
:10660000DB0E9A408907090E9940002808DB8308B1
:1066100009489B001B18186890430843186070478E
:106620000007000F0838830804489B001B18D8692E
:1066300090430843D861704700E400E000ED00E0BB
:106640008307FF22DB0E9A408907090E9940002834
:1066500008DB830809489B001B181868904308430F
:10666000186070470007000F0838830804489B0033
:106670001B18D86990430843D861704700E400E0D4
:1066800000ED00E0F8B50446002003460A5C8507EB
:10669000ED0EAA401343401C0428F7DB00F054FC25
:1066A0000028FBD100F016FF21022004090E084348
:1066B000FF273F0221463940084372B600211A4D98
:1066C000A960194E0002803E801C3060336062B6C3
:1066D00000F03AFC0028FBD100F056FD1120000626
:1066E000201869462A695207FCD572B60422AA60AE
:1066F00004020204240E2243384002431002C01C4C
:10670000306062B628694007FCD530780870307870
:106710004870307888703078C8700098984201D0FE
:106720000020F8BD0120F8BD800008113EB5214CC5
:106730000320A11C00F044FD01A9052000F040FD4C
:1067400002A9062000F03CFD6846007A01A9085C19
:1067500021461439487060700A20891C00F030FD11
:1067600015490B2000F02CFD6946072000F028FD9C
:106770006846008800281CD00F498860C0000521A9
:10678000FDF794FE4100401881B268460180062062
:10679000FDF75AFD684601880720FDF755FD68465C
:1067A00001880820FDF750FD684601880920FDF7A3
:1067B0004BFD3EBD10C5FF1F8CBEFF1F10B5082846
:1067C00003D100F051F900F00DF910BDF3B583B01D
:1067D0000398FDF7E9FEC0B2324D00240090A700F7
:1067E000E859FDF7E1FEC6B2E85932460399FDF7D4
:1067F000B0FC002803D0641CE4B2042CEFD3042CBA
:1068000009D0049804700398801903900098801BA5
:10681000C7B200242BE0002005B0F0BD039800258E
:10682000001901901F49A800103100900858FDF789
:10683000BBFEC6B21B4A009810321058324601996E
:10684000FDF787FC002804D06D1CEDB20E2DE9D3B6
:106850000BE00E2D09D204982246401C0399FDF747
:1068600047FC04980019457003E0641CE4B2BC4284
:10687000D4D3BC420DD2381B821B03980019811956
:1068800004980019801CFDF733FCB81B801CC0B2B3
:10689000C2E704983A46401C0399FDF729FC7F1C87
:1068A000F8B2B9E704BFFF1F70B54B4E88B0307126
:1068B00006211F20FDF7C8FC00246846047007214C
:1068C00001710481012505735021018219214901BB
:1068D00081827D210483C900818300F0C5F86A4666
:1068E00001213E48FEF738FCC32001AA01218000A7
:1068F000FEF732FC394802AA0221401CFEF72CFCAC
:10690000324661205B321D21C000FEF725FC31209C
:1069100003AA01210001FEF71FFC304804AA02214E
:106920000C30FEF719FC2D4805AA02210D30FEF7A8
:1069300013FC2A4806AA02210E30FEF70DFCC520E2
:1069400007AA02218000FEF707FC3246C03215215B
:106950000020FEF7B7FF68460094057105720473C6
:10696000057481206A460421C000FEF707FA012160
:1069700001AA8802FEF702FA184802AA0121FD3096
:10698000FEF7FCF9154803AA0121FE30FEF7F6F9DF
:1069900004AA01211248FEF7F1F9641E2046FEF711
:1069A00081FF2046FEF72AFD00F0FEFB00F01AF8FA
:1069B0003046103000F0A2FC30461430FEF7D6FC12
:1069C00030461C30FEF770F9052201213079FDF7C1
:1069D00083FC08B070BD00008CBEFF1F05030000E3
:1069E0000604000000B58DB001A917A0FFF7EEFE68
:1069F00069460870014601AA032000F089FC1222B2
:106A0000184906A8FDF774FB06AA12210A2000F017
:106A10007FFC0020694608706A460121042000F0CE
:106A200077FC01206946087001466A46062000F09E
:106A30006FFC7D20C000694688850BAA02210720D3
:106A400000F066FC0DB000BD687474703A2F2F77AB
:106A500077772E706879706C7573696E632E636FCB
:106A60006D2F0000FEC4FF1F10480021817001221D
:106A7000C270022202710322427104228271052334
:106A8000C371062303720723437208238372092309
:106A9000C37202735122427340228273C173B022C7
:106AA000027441748174C17470470000FCC4FF1FFC
:106AB00010B5104CE068401CE060A178012915D0A9
:106AC0000A21FDF7F3FC002907D0227800201021CD
:106AD000022A04D0002A0AD004E0202004E06278D0
:106AE000102A04D06170607800F0EAF810BD607080
:106AF000F9E700008CBEFF1FFEB5514D0C462B7907
:106B0000080409D51846FDF7CFFB002801D0FDF792
:106B1000D1FB0120C0038EE0E107002001260029FF
:106B200032D069460871A02701AA01214548FEF725
:106B300013FB39460620FDF787FB39460720FDF792
:106B400083FB39460820FDF77FFB39460920FDF716
:106B50007BFB02A9052000F033FB394A3948433258
:106B60001821801EFEF7F8FA694636480E706A460C
:106B70000121001FFEF7F0FA334A08212879FDF7BA
:106B8000ABFB20467040FEBD210732D5E9780129D4
:106B90002BD02E4A192112684901116069460870EC
:106BA00003200871FFF7C2FD26486A460121001F35
:106BB000FEF7D2FA02A9072000F002FB6946087A24
:106BC00000280BD001AA01211E48FEF7C5FA6878FB
:106BD00000F076F802212879FDF790FB042128794E
:106BE000AA68FDF779FB082025E0194A0821184614
:106BF000F7E7610714D569460870FFF759FF114898
:106C00006A460121001FFEF7A7FA02212879FDF745
:106C100075FB04212879AA68FDF75EFB04200AE0D1
:106C2000A0070AD56846067006486A460121001F7B
:106C3000FEF792FA02206040FEBD0020FEBD00007B
:106C40008CBEFF1F090300001027000060C1FF1F5A
:106C5000C0D401007FB50024174D0300FDF706FBEB
:106C6000061D041D25251E1DC12002A98000FEF75A
:106C700037F96846017A0170417A4170817A8170F2
:106C80000471C470417BC171017B8171C17A417112
:106C90006A4608210020FDF757FF7FBD6946074877
:106CA000FEF71EF90120E8707FBDE8780128FBD1CE
:106CB000EC70AC707FBD00008CBEFF1F15030000A0
:106CC000F8B5050003D0102D01D0202D3BD11E4E6C
:106CD0000320F07130460B3014210746FDF721FAEE
:106CE000280004D0102808D0202D1ED114E0174908
:106CF0000020087014240D4617E0144910201431A8
:106D000008706946092000F05BFA684600780F4D6C
:106D1000801CC4B2143508E00C49202028310870CA
:106D20000E2400F017F8094D28352246294638462A
:106D3000FDF7DEF9F079044A0019F0710830C1B2AC
:106D40000348FEF709FAF8BDB0BEFF1FFCC4FF1FE1
:106D50000703000010B50F4C0320A070E820E0707E
:106D600013202071802060710B48C068010EA17152
:106D7000010CE171010A21726072FDF71BFC6421B4
:106D8000FDF794FB010EA172010CE172010A21735F
:106D9000607310BD24C5FF1F8CBEFF1F0249014850
:106DA0000860704740787D0150C1FF1F10B572B672
:106DB0001948C068C00703D01748001FFDF700FC42
:106DC000154C403CA06BC00707D013481838FDF79E
:106DD000F7FB12480168491C0160606AC0070CD0CB
:106DE000E16A0F48C162A16941630B482C38FDF785
:106DF000E7FB0C480168491C01602069C00707D007
:106E00002046FDF7DDFB2046FDF7E0FBFDF7E4FB48
:106E100062B6002010BD0000401002402C10FF1F81
:106E200054C1FF1F3010FF1FF8B50646002400F0C4
:106E3000D5F805460648471B06E000F0CFF8A84203
:106E400001D3441B00E03C18B442F6D3F8BD000067
:106E5000FFFFFF0002E008C8121F08C1002AFAD194
:106E600070477047002001E001C1121F002AFBD1CA
:106E7000704710B5FDF7B6FB0120FDF7B9FBFDF734
:106E8000BDFB002010BDF0B500248E464A1E12E066
:106E9000714600230D1B6D1E0AE09E0031188C46C2
:106EA000875949688F4202D9815161464F605B1C06
:106EB0009D42F2D8641C9442EAD3F0BD10B505237C
:106EC0001B221F210D4804F0E3FB0C4C0C4B083433
:106ED00007221021204604F0DBFB06220123114685
:106EE000204604F0D5FB05481438416A01221143BD
:106EF0004162C169034A1143C16110BD14F00040F1
:106F0000FB03000004003E0010B50020054CFF21EB
:106F10002218401C51704028FADB03F06BFB2070F4
:106F200010BD00009CC9FF1F10B50020054CFF21BB
:106F30002218401C51700628FADB03F079FB207000
:106F400010BD0000E7C1FF1F084801694907FCD5D3
:106F5000012181600549052280390A7002695207C2
:106F6000FCD50878C007C00F7047000080000811EA
:106F7000F0B58646080CFF268446002388B23746C3
:106F80001C46194601228A4005461540CD402C1961
:106F9000A4B2FF2F02D1012C00D18FB265462A4046
:106FA000CA40D21893B2FF2E02D1012B00D18EB26B
:106FB000491C1029E6DB012C02D0102C08D009E076
:106FC000012B07D13001C019714608700220F0BDB5
:106FD000102B01D00320F0BD0120F0BD0449886AC8
:106FE0000202886A120A0002000A9042F7D1704732
:106FF00000F0004010B504460120FFF715FF1149CD
:10700000CB6A1148C26A934202D2C96A511A00E09F
:1070100000210163FFF7E2FF0C490123C862011957
:107020000A4608321B069A4203D309310902090AAB
:10703000641A01190648C162416A2922D203114328
:10704000416210BD0010024054C1FF1F0012FF1F1B
:1070500000F00040F8B5496894460A784978069CE3
:10706000090251188EB2444A112100250798B71A17
:10707000091B964243D009DC404AB21813D0012ABA
:107080001CD0022A25D0032A08D12EE0012F40D09F
:10709000022F48D0032F50D0292F5AD0002018702B
:1070A0000A252846F8BD082C55D20821091B814223
:1070B00000D80846C2B21A70314857E00C2C4AD2A8
:1070C0000C21091B814200D80846C2B21A702D4813
:1070D0004CE00D2C3FD20D21091B814200D80846FF
:1070E000C2B228481A700D3040E0112C33D28142D0
:1070F00000D80846C2B223481A701B3036E0112C63
:1071000029D2814200D80846C2B21E481A702D30DA
:107110002CE0112C1FD2814200D80846C2B2194877
:107120001A703F3022E0112C15D2814200D8084657
:10713000C2B214481A70513018E00E2C0BD20E2136
:10714000091B814200D80846C2B20E481A7063304B
:107150000CE0072C01D30725A3E70721091B814277
:1071600000D80846C2B206481A70C01F011960460E
:10717000FDF746F895E70000272A0000DDD5FFFF60
:10718000E3BBFF1F78B9FF1F064801694907FCD51B
:1071900000218160034A0421803A11700169490786
:1071A000FCD570478000081110B5034A162103482A
:1071B000FEF7DAFA10BD0000C8BAFF1F78BFFF1F44
:1071C00070B50C46C11E13480025C2780B00FDF7B0
:1071D0004DF809061D0A11131D08161A1D000E4947
:1071E00004E0227013E00B4904220C312046FCF726
:1071F0007FFF0CE0007807E08088208007E00649E8
:1072000012221331F2E78078207000E00225284630
:1072100070BD000068BFFF1F32C5FF1FF8B50C46E8
:10722000097A002706981D461646C90601D508208A
:10723000F8BD002801D00B20F8BD2078102804D01C
:107240000020187001273846F8BD102229496068CF
:10725000FCF772FF00282BD02649102240316068CD
:10726000FCF76AFF002823D02249102220396068E9
:10727000FCF762FF002821D01E49102210396068F7
:10728000FCF75AFF00281FD01A49102210316068FD
:10729000FCF752FF00281CD01649102230316068DC
:1072A000FCF74AFF00281DD0002028700A27CAE7F3
:1072B00001202870E06800783070C4E70E48C1787B
:1072C0002970C278E16810E0042028700246E16865
:1072D0000BE0022028700848017931708088000A8C
:1072E0007070B0E712222A70E1683046FCF700FFA8
:1072F000A9E7000078BAFF1F68BFFF1F002803D06E
:1073000002498860002070471120704768BFFF1F46
:10731000F8B5C01E17460D4600241C4E0300FCF7AE
:10732000A5FF0906320F161D3232222B3200122D14
:1073300024D80A4639461648FCF7DAFEF57023E0F1
:1073400004291BD11148042239460C3011E00129CF
:1073500014D11078042811D2307015E002290DD113
:107360001088B08010E0122D08D109480A4639462D
:107370001330FCF7BDFE07E0012901D0182403E01B
:107380001078B07000E002242046F8BD68BFFF1FEF
:1073900032C5FF1FF8B5087A00241E4617460D4671
:1073A000800601D50820F8BD2878022836D01022A2
:1073B00045496868FCF7C0FE002831D042491022D8
:1073C00010316868FCF7B8FE002831D03E49102221
:1073D00020316868FCF7B0FE002830D03A4910220E
:1073E00030316868FCF7A8FE002832D036491022F8
:1073F00040316868FCF7A0FE00283ED032491022D8
:1074000050316868FCF798FE002848D02E491022B9
:1074100060316868FCF790FE00284BD00A243CE0FD
:10742000122E3ED829483246C670394628483EE0DA
:10743000042E36D12548042239460C3037E0012E7F
:107440002FD13878032801D9032426E01F4908707A
:1074500023E0022E25D179783878090240181B4D97
:1074600080B2A880C0000521FDF720F880B2401E40
:107470009F2812D26420A8800FE0012E11D1397804
:1074800012480029417008D080680822002804D0E2
:107490000168002901D0104688472046F8BD122E09
:1074A00001D00D24F9E70A48324639461330FCF77B
:1074B0001FFEF2E7012EF4D13878022801D980248A
:1074C000EBE702498870E8E758BAFF1F68BFFF1F63
:1074D00032C5FF1F064801694907FCD500218160BC
:1074E000034A0621803A117001694907FCD57047AB
:1074F00080000811F8B5414A0446D068808DC00765
:1075000064D03F48406A3F4D8104890CA94202D9AA
:107510006842081800E0681AC82819D32B260123EE
:107520003601DB02B04207D2C80041028601891B46
:10753000C6008919081A09E0C80041028601891BA2
:107540004601891BC600891B40000818C018010BA2
:107550002C482D4BC430814200D9196819607D2612
:10756000906AF600B0420AD2284EFF278E198A3759
:10757000BE4200D3116A401C1960906209E0106A93
:10758000060A37188F4203D3861B8E4200D808465E
:107590001860106AC100091A18680918C908116230
:1075A000C108A8420AD9194AC43A80186043C008E1
:1075B00001E0401A641E8842FBD807E0281A6043A5
:1075C000C00801E0401A641C8842FBD80C4806221F
:1075D00000231146243804F05BF82046FDF714F828
:1075E00001F058FA01F010FA0020FCF70BFF01201F
:1075F000FDF710F80120FDF713F8F8BD54C1FF1F87
:1076000040F00040420F00003412FF1F82F1FFFFE4
:1076100003460002012100B5000A490388421BD33A
:10762000FFF792FC0028FBD1FFF754FF0B49002025
:10763000886019021804090E0843FF2109020B4053
:10764000184306490002803920300860FFF77CFCAF
:107650000028FBD1FFF798FD00BD00008000081155
:1076600010B5054CE069002803D0FCF723FE00208C
:10767000E0610A20E07210BD24BDFF1F70B5002537
:10768000094E2C460E20604380190622FF21FCF78C
:10769000C9FD002801D16D1CEDB2641CE4B20A2CB6
:1076A000F0D3284670BD000000C2FF1F10B50024B3
:1076B000204600F007F8641CE4B20A2C01D200282E
:1076C000F6D010BDF0B5374C0546E07A8FB0854254
:1076D00009D10121207BFCF7A9FF0221207BFCF7C7
:1076E000A5FFFFF7BDFF2C46062044432646203663
:1076F000F0B207AA0E2102F091FE002806D1062260
:10770000FF2107A8FCF78EFD002803D000210846C2
:107710000FB0F0BD0E22FF2107A8FCF777FD1C2259
:10772000FF216846FCF772FD1022FF210BA8FCF731
:107730006DFDF0B207AA0E2102F087FE0646204634
:107740002130C0B26A461C2102F07FFE304307465A
:1077500020462230C0B26A461C2102F076FE064660
:10776000204623303E43C0B26A46102102F06DFE2F
:10777000064320462430C0B26A46102102F065FE5E
:1077800006432534E0B26A46042102F05EFE30432F
:1077900004467035E8B20BAA102102F056FE0146ED
:1077A0002143B4E724BDFF1F70B50A4D06460024EF
:1077B0000E206043401906223146FCF74BFD00289D
:1077C00001D0204670BD641CE4B20A2CF0D30A201C
:1077D00070BD000000C2FF1F7FB50C460A280CD206
:1077E000002C0AD0062148432030C0B26A460E2140
:1077F00002F014FE050003D007E0022004B070BDC3
:10780000062269462046FCF7FBFC2846F6E70021E5
:107810008A00835A491CDB43835212189378C9B2F9
:10782000DB4393700429F3D37047000070B5144E06
:1078300000240E2060438219204606214843203050
:107840001546C0B20E2102F0E9FD00280BD02846F3
:107850000622FF21FCF7DAFCA81D0622FF21FCF717
:10786000D5FC0020A881641CE4B20A2CE1D30548B1
:10787000407A002801D000F007F800F01FF870BD32
:1078800000C2FF1F24BDFF1F70B5FCF7D5FE0A4ED6
:1078900000240E206043801905460622FF21FCF7D4
:1078A000C1FC002802D12946FCF7CCFE641CE4B2DE
:1078B0000A2CEED370BD000000C2FF1F08B5FFF711
:1078C000DDFE012801D9022000E00A206946087087
:1078D0006A4601210520FDF7F5FF08BDF8B57A4C91
:1078E00087780146002507266079A2793B00FCF7DE
:1078F000BDFC0805361A37375F9ACD364878002820
:107900005CD1714806223C30C91CFCF779FC01208F
:10791000A0716D4B0146423362786079FCF7F4FC4C
:1079200000284BD1A8E00F464978002946D1F978C4
:10793000002906D0654BA2780021FCF7E5FC7870A1
:107940000AE0022A0BD00121FCF7E4FC002803D155
:1079500001216079FCF7D2FC787800282ED1F8BD9F
:10796000497800292AD1032F09D0A289002A0CD0F6
:10797000217800290AD00121FCF7AEFC06E0052A97
:1079800001D0022012E0062010E02570A079062820
:1079900002D0042802D008E0052007E00120207072
:1079A00001466079FCF7AAFC66E00320A07163E061
:1079B00048780F46002803D0312832D0A6715BE00A
:1079C00041480622391D3630FCF71AFC7889E081DF
:1079D000B8892082F88960820520A071A28A002AD5
:1079E00003D002216079FCF777FCB889E083F8893D
:1079F0002084388A6084E07801280AD11F20FCF7AF
:107A000047FC7D21C9004843024604216079FCF708
:107A100063FC7A89F8780423391DFDF7A5F82570F1
:107A20002AE02570C1E728480E460622002136309C
:107A3000FCF7ECFBE5832584658404216079FCF781
:107A400051FC08216079FCF74DFCB079082808D07A
:107A50000320A0712078002805D06079FCF748FC4D
:107A600007E00420F5E70120207001466079FCF76B
:107A700045FC0020C043E081606A002800D16EE729
:107A800001680029FBD0A0798847F8BD0D46082180
:107A9000FCF728FC687829460028F6D1E888E083BE
:107AA000288920844889608404216079FCF732FCAD
:107AB0000028EAD1A06A0028E7D00368628C218CF4
:107AC000E08B9847F8BD0000CCBDFF1FACC2FF1F84
:107AD00010B501781C4C912906D0A2291BD0D029C1
:107AE00001D1FFF7FBFE10BD41780E29FBD1818843
:107AF000164A9142F7D1816803200856A1790529D9
:107B0000F1D17F28EFD0616A0029ECD049680029C3
:107B1000E9D0884710BD41791329FBD1008901289C
:107B200002D12079022808D00520FCF7B1FB0246DB
:107B300008216079FCF7D0FB10BD08216079FCF7C3
:107B4000D1FBFDF72FFC10BDCCBDFF1F05140000BD
:107B50007CB5154C0546E08BE18A88420AD3218B1F
:107B6000884207D8208C618B884203D1608CA18B1E
:107B7000884217D00520FCF78BFB0646E18A684651
:107B80000180218B4180618B8180A18BC1806279D2
:107B90006946E089FCF75CFD257132460821607971
:107BA000FCF79AFB7CBD0000CCBDFF1F10B500F0B8
:107BB00025F8002800D0806810BD00229300CB5A21
:107BC000834202D1900040187047521CD2B2022A60
:107BD000F4D3002070470000074A0021CB00D35A9D
:107BE000834202D1C80080187047491C0906090E5B
:107BF000F4D000207047000038BEFF1F06494968D6
:107C000005E08A88824201D18868704709680029A6
:107C1000F7D100207047000030BEFF1FF8B50746BF
:107C2000012906D0022924D10121FCF717FD0028E3
:107C30001FD13846FFF7D0FF050015D000240D4EA8
:107C40000CE018206968604308180188002908D0F2
:107C500018220021FCF7DAFA641CE4B2707884423E
:107C6000EFD30020C0432880024938461031FDF789
:107C7000FBFBF8BD30BEFF1FF3B5064683B00830EE
:107C80000190002000907088FFF7A6FF07002FD01A
:107C9000002523E01820796868430C182188002902
:107CA00020D00198007801280FD1608800902379B6
:107CB0007088621DFDF7C0FD0090002805D0019975
:107CC0000020087004982188018018220021204695
:107CD000FCF79CFA00206D1C2080EDB2074840782C
:107CE0008542D7D30020C04338800098002802D1B5
:107CF0007088FCF7B9FC009805B0F0BD30BEFF1FDE
:107D0000F3B50546334C064685B0083516220021EA
:107D10002046FCF77BFA03A800902B796988288815
:107D20006A1DFCF7A7FC074640E02B481022002103
:107D30006B4607C3274B69468A897088163B3946CC
:107D4000FDF7F2FB002812D12348E979C01EC27862
:107D500091420CD11F49284616390830FCF77AFAAF
:107D6000002804D02178788989000919488068465C
:107D70008289698804AB3846FCF702FB0746207805
:107D8000810009194A88002A10D0002F05D06A46C0
:107D9000128A401C20708A800AE002060021920D9F
:107DA000C9431219401C2070918004E0002F02D0BA
:107DB00020780528B9D32078002806D0708821467D
:107DC000FCF75EFC002007B0F0BD06982988018012
:107DD0000A20F8E7E2C4FF1F33BEFF1FF0B585B0ED
:107DE000044600276846878120790E2860D00EDC83
:107DF000082821D004DC022812D006287FD116E002
:107E0000254608350A281CD00C2878D133E01028E4
:107E100053D0122856D0162859D018286FD15BE0BD
:107E20003949172008806088FCF730FC67E003A917
:107E30002046FFF765FF53E003A9204600F056F9FE
:107E40004EE0288804A9FCF795FA010011D02E4EC7
:107E500016200197009602906A466088731C128A69
:107E6000FDF762FB00281AD160883146FCF714FC4C
:107E700045E0012013E0288804A9FCF77BFA010003
:107E8000F7D06A88204E16200192009602906A462A
:107E90006088128A731CFDF747FB002803D02988ED
:107EA0006A4691811CE060883146FCF7FBFB26E0C6
:107EB00003A9204600F09AF912E003A9204600F039
:107EC00075F80DE003A9204600F0E4F908E003A9E5
:107ED000204600F01BF803E003A92046FFF7CCFE84
:107EE00000280CD06178142909D0074922790A703A
:107EF0006A4692894A8008716088FCF7D9FB20465F
:107F0000FCF7DCFB05B0F0BDE2C4FF1FF8B504468A
:107F10000F460546083400896946FCF72BFA06002F
:107F20003AD0307A80060ED568460088FFF73EFECC
:107F3000030006D06888122231469847060002D016
:107F40002BE00E2629E06E883046FFF745FE010043
:107F500005D11448FFF740FE01000ED00E80124AF2
:107F60000020527807E018264B6846439B5B002BA5
:107F700005D0401CC0B29042F5D309260DE04968F7
:107F80001822504308182146FCF73AF90026688861
:107F90002146FCF799FB02E0012620883880304614
:107FA000F8BD0000FFFF000030BEFF1FF3B58BB02F
:107FB00000200B9E0746039004A800903246337BB6
:107FC00071893089474C0D320836FCF753FB054662
:107FD0006DE00B98297A4088FCF77CFB070003D002
:107FE0000C986989018064E03F48112200216B46AA
:107FF00007C30B983B4B69460A8A4088163B2946C3
:10800000FDF792FA0700EBD1039800282DD03648EF
:108010006178C01EC078021D91424DD103990818A5
:10802000112849D80398A97A201881700398698982
:10803000401CC0B22218090A401C9170C0B20390C3
:108040006846028A718807AB2846FCF799F9050053
:1080500011D06946888B0399611888700398694626
:10806000401C898BC0B2090A0CE01F48C01EC078B2
:10807000001D6070D6E70398FF21201881700398D7
:10808000401CC0B222189170401CC0B21649039027
:10809000C91ECA78134920181639801CFCF7B0F89D
:1080A00011490398C91EC9784018C0B20390002D29
:1080B0008FD1039800280CD061780398FCF7F6F96B
:1080C00020700B9821464088FCF70AFB00200DB079
:1080D000F0BD002F00D10A270C9831880180384666
:1080E000F5E70000E2C4FF1F33BEFF1FF3B585B004
:1080F000059E3B4D308900240836039004A800906B
:1081000033797188721D0398FCF7B4FA070050D0D8
:10811000788903900598397A4088FCF7DBFA0028C3
:108120000FD13048132200216B4607C305982C4B12
:1081300069460A8A4088163B3946FDF7F5F900285A
:108140000ED0002C44D069782046FCF7AFF9287097
:10815000059829464088FCF7C9FA002007B0F0BD11
:10816000002C29D01F486978C01EC078801C81422D
:10817000E9D11C49C91EC8782018132819D82A1912
:10818000B87A9070641CE0B27A892B18120A9A703F
:10819000401C0C46CA78C7B21149E8191639801C30
:1081A000FCF72EF8E07810493818C4B203988842DA
:1081B00008D1002CC7D10DE00A48C01EC078801C31
:1081C0006870D6E7401C80B20390132C96D9BAE7AA
:1081D000002800D10A20069A03991180BEE700000A
:1081E000E2C4FF1F33BEFF1FFFFF0000F3B585B0E1
:1081F0000027264C059E27703D46083638E068006B
:10820000305A03A9FCF7B6F8010013D02048162312
:1082100000226F460DC705981C4B6A464088163BE6
:108220009289FDF781F9070006D06800315A069857
:10823000018028E00127F8E7154A2078D21ED1787E
:108240004118162902D91621081AD0702178601C0D
:1082500008180F49C91ECA780C491639FBF7D0FF18
:108260000B482178C01EC07808186D1C2070EDB234
:10827000B07DA84202D920781628C0D3059821469F
:108280004088FCF739FA384607B0F0BDE2C4FF1F5A
:1082900033BEFF1FFEB504460F460646083400896C
:1082A00001A9FCF767F8050022D0287A80060ED5D0
:1082B00068468088FFF77AFC030006D07088122297
:1082C00029469847050002D013E00E2511E0002052
:1082D0000090A37821887088E21CFDF7ADFA0500B4
:1082E00007D1207E002806D17088FCF70BFA02E047
:1082F000012520883880207E002801D00020FEBD86
:108300002846FEBDF8B504460246182042431948E7
:1083100000250746457008377868002807D00020F8
:10832000C100C919401C00064D60000EF8D0124E65
:1083300000213046FBF76AFF002001466143C9B2C5
:10834000182251438B190B49C200083152180021E1
:10835000536005E018274F435368491CDD53C9B2E9
:10836000A142F7D3401C0006000EE6D0014844703D
:108370000020F8BD30BEFF1FECC2FF1F7CB50C789B
:10838000069D022C0ED14C6826786478240234199C
:10839000054EA4B2F44205D1022400950194FDF7E4
:1083A0007BF87CBD01207CBDFED6FFFF0848816CB8
:1083B000491C8164C16CC26C0902C90F5203D20FFF
:1083C0005140C26C5202120A5118C164C06C70470D
:1083D00054C1FF1FF8B5069800271D4614460E46E7
:1083E000002801D00B20F8BD30780021022801D0F0
:1083F00019704DE07068027840780002101815225C
:1084000080B25202801A0300FBF730FF0504121FEE
:108410001A254100F068FBF7BFFFC2B207988242FD
:1084200000D902462A70F1682046FBF7E9FE30E0E9
:10843000F0680221008829702070000A607028E02E
:10844000062028700246F168EEE701202870F068E7
:10845000007820701DE0F068002816D008212970EF
:10846000017821700188090A61708178A1704188C2
:10847000090AE170017921718188090A61718179A4
:10848000A171C088000AE07103E0297001E0297041
:1084900001273846F8BD10B50B78840702D50224B1
:1084A000234301E0FD2423400B7003070B7802D522
:1084B0000824234301E0F72423400B7083060B7844
:1084C00002D52024234301E0DF2423400B700A213E
:1084D000084201D1810603D510780C21084304E03D
:1084E000002803D11078F3210840107010BD00005F
:1084F000FFB581B0087800240A9E1F460D46022869
:108500000FD168680178407800020818152180B200
:108510004902401A09D0012829D0022848D003284E
:108520003CD00124204605B0F0BDE868FBF734FFDD
:10853000C0B2864205D8F0190090152803D90D2441
:10854000F0E70724EEE7E8683A4680190399FBF75D
:1085500057FE0098EA6880B2002111541C48406818
:108560000028DFD001680029DCD0002012E0002EB6
:1085700012D1022BE3D10399E8680A7849780902FD
:1085800051180180124840680028CBD001680029AA
:10859000C8D001208847C5E70B24C3E7002EFBD1D4
:1085A000062BCCD10622E8680399FBF729FEB9E730
:1085B000002EF1D1012BC2D103980078002803D0FE
:1085C000012801D08024ADE7E9680870AAE700001F
:1085D00048BDFF1F10B5122801D3052010BD0C4B5C
:1085E0009C6B01228240104620439863586B904355
:1085F0005863DC6B002907D020469043D863186B82
:1086000002431A63002010BD10462043F6E7000025
:1086100000800040084A042807D2012307E01843DD
:1086200000E09843506100207047012312388340D6
:1086300050690029F5D0F2E70038004070B50F4DC1
:1086400000242E197078022807D9E0B200F04AF908
:10865000E2B20146104600F061F9232C0ADA707884
:10866000022807D9E0B200F03DF90C216143491915
:1086700020314871641C232CE3DB70BD58C5FF1FFB
:1086800070B502211020FDF7DBFF1020FDF7AAFFD7
:10869000114E00240C2060438019203000790028FE
:1086A00013D0E0B200F062F9E5B2284600F01AF902
:1086B00000280ED000210C226A43921920325279F0
:1086C000824202D0284600F03FF8641C232CE1DBF4
:1086D00070BD0121EFE7000058C5FF1FF3B5194E2B
:1086E000002481B0074601252846A040384225D005
:1086F0000299084201D1012000E000200090E0B280
:10870000009900F021F80C206043801941688068CE
:1087100000290ED0002807D00098002802D00021A0
:10872000E0B203E00121FBE7E0B20021FFF752FFD6
:1087300004E0002802D0E0B20121F7E7641C122C0B
:10874000D2DBFEBD7CC5FF1F074A0C2343439B18A9
:108750005A68002A01D0002904D09A68002A02D061
:10876000012900D1104770477CC5FF1F10B5044890
:10877000C16B034A40321068D060FFF7AFFF10BDF5
:108780000080004010B50E4880680007000F0628E2
:1087900007D007DC02280BD0042802D1012000F00A
:1087A000EBFB10BD072806D00C28FAD10220F6E713
:1087B00000F008FC10BD02484030C06B10BD000046
:1087C0000040004003E00B780370401C491C521E1F
:1087D000F9D27047C306DB0E01229A40064B4009CE
:1087E0008000C0180029C16801D0114300E0914306
:1087F000C1600020704700000038004010B5114CE7
:108800002078002801D0072010BDFF21C9310D4874
:10881000FBF787FC012020700B49002008634863A8
:108820000A490862486202211020FDF709FF102062
:10883000FDF7D8FE064A07490D2000F00DF900208B
:1088400010BD000058C5FF1F0080004080F00040B0
:108850008186FF1F3D86FF1F30B50D460446042864
:1088600003D320461F38032803D801212046FFF7F1
:10887000D1FE00212046FFF7ADFF01230B4A122C49
:1088800008D2A3405068002D01D0184300E098435F
:10889000506008E0123CA3401069002D01D018433D
:1088A00000E098431061002030BD000000800040CF
:1088B00070B50C460A21FBF7F9FD4A008918012220
:1088C0001346491C8B404D1CAA40134382000448A8
:1088D000121890688C40984304439460002070BD47
:1088E00000F000400C4A0C4B0121403A122807D2FC
:1088F00081405068084201D0106809E0186907E01B
:10890000123881401069084201D0D06800E05869EF
:10891000084000D00120704740800040F8B50E4666
:1089200005460A21FBF7C2FD48000918EA060124A2
:10893000D20E204690406A0993000B4A9A18136A97
:10894000034313628C40084F2846803F0A21FBF7FF
:10895000ADFD8000C0198168002E01D0214300E0E8
:10896000A14381600020F8BD80F0004070B504464E
:1089700018480C226243151869680126002902D1A3
:10898000A968002906D0134924390919122C03D3E8
:10899000032302E0122070BD04234B700121815497
:1089A00000212046FFF758FF6868002810D0A8680B
:1089B00000280CD02046FFF795FF002801D00121A8
:1089C00000E000212046FFF705FE002070BD0026D4
:1089D0003146F7E77CC5FF1F0449420903D0002058
:1089E00048600620704748600020704748C1FF1F5C
:1089F00010B5002311221521024802F049FE002083
:108A000010BD00001CF0004010B50448112243685E
:108A10001521034802F03CFE002010BD48C1FF1F95
:108A20001CF0004010B578210948FBF77AFB094893
:108A30000078012805D0022806D0032806D0042893
:108A400004D1FBF765FE01E0FBF768FE002010BDD6
:108A500020C7FF1F48C1FF1F30B50D4C00230C2558
:108A60005D43655D854201D1072030BD002D04D0F6
:108A70005B1C0A2BF3DB032030BD0C256B431B1959
:108A8000F9D000245C7018709A602046596030BD9F
:108A900020C7FF1F70B5FFF7B7FF0A4D002420461F
:108AA0000C214843295C002909D04019406800285E
:108AB00000D08047641C0A2CF1DB002070BD12201E
:108AC00070BD000020C7FF1F70B51549002309784D
:108AD00001290FD004290DD072B60021114A0D468C
:108AE0000C244C43165D002E0FD0864205D1A418ED
:108AF000657007E0FBF70CFE0CE0A4186478002C0E
:108B000000D05B1C491C0A29EADB002B04D0FBF7D0
:108B1000FFFD62B6002070BDFBF700FEF9E7000024
:108B200048C1FF1F20C7FF1F70B50A4D0024204613
:108B30000C214843295C002909D04019806800288D
:108B400000D08047641C0A2CF1DB002070BD12208D
:108B500070BD000020C7FF1F10B516490A2008701D
:108B600015490120087015490020087000F030F800
:108B700013480421C16113498160C1600161124938
:108B8000416101210A20FFF793FE0D480D230F22BA
:108B90001221143002F07CFD00210420FDF72EFD8F
:108BA00001210220FDF72AFD084A00212020FFF7BD
:108BB00053FF10BDAFC1FF1FB0C1FF1FB1C1FF1FE9
:108BC00000F00040B66DDB36B6EDC3B019B6FF1F3E
:108BD00070B515480022C0680424866B1025134820
:108BE00013493300FBF742FB070808050C0E130876
:108BF000050005600C600DE020220260052004E005
:108C0000302305E0402202600620086002E0602375
:108C100003600A60FBF788FDFBF78CFD02F060FB48
:108C200001F030FD70BD000054C1FF1F2010FF1F78
:108C30002410FF1FF8B51F4D1E4F08351E4C11267E
:108C4000012820D000281DD100211020FFF730FE80
:108C500000211120FFF72CFE0323082209212846BA
:108C600002F016FD062200231146284602F010FDF0
:108C700016231B221F21384602F00AFD2068C16A14
:108C8000B143C162F8BD05231B221F21384602F003
:108C9000FFFC0A4B07221021284602F0F9FC0622AD
:108CA00001231146284602F0F3FC2068C16A3143D3
:108CB000E7E7000014F0004060C1FF1FFB03000065
:108CC000F8B5FF222D322A4E2A4C002832D001233B
:108CD00029499B0402282FD08025012831D00E6815
:108CE0001E430E604B6806460B360127B7403B43D8
:108CF0004B604B682B434B60032832D0042832D0A2
:108D00001E492160521E1204120CFBD103461A4860
:108D10000321001F02F0BCFC01208007C169184D2F
:108D2000890722D580690005010E491C2068FBF7E0
:108D3000BDFB1BE02660E5E70D681D430D60114992
:108D4000DFE70F681F430F604B6801277F05BB43B8
:108D50004B604B683F123B434B604B682B434B606F
:108D6000E8E70949CDE70949CBE720682860F8BD65
:108D70000048E8011010FF1F40F0004000D8B8057F
:108D80001410FF1F0024F400006CDC020090D003DC
:108D90000020401C1028FCDBFEE70000F8B552491B
:108DA000504A534B5148CA60D861002003468400A2
:108DB000401C1351FF28FADDC8684E4A044680342F
:108DC000A2600622C2620A2202654B4A15788563B8
:108DD0004A4DC56115781426022D03D01578032D50
:108DE00003D003E01025056200E00662444D4561B2
:108DF000444D85613C25E5603625C56334274764CD
:108E0000082505643927676032272760AF24E4000E
:108E100004601478022C03D01278032A02D003E0F5
:108E2000466001E00B224260C824FF22C4602D325C
:108E30008260A4000461344C84647D26F60046629E
:108E4000324CC464324E8662022646668266092629
:108E5000C666304E066745678267B210C2674C61CE
:108E60008B70CB80CB700B812C482B491F4A8160C3
:108E70002B49803A294B11612A49803399622A494A
:108E8000C1622A49016325482949C03841632949FB
:108E900001602249284A8039CA62284A0A60284A61
:108EA000C2601E4A274C403A9463274C1463274CF7
:108EB0005463274C4C61274C8C61274C0C62274C27
:108EC000DC61274C1C62274BD363274ACA612749C0
:108ED00081622749C16227498163FEF715F8FEF7D1
:108EE00023F8F8BD000CFF1F54C1FF1F000CFF1F2B
:108EF0000010FF1FE0CDFF1FB2C1FF1F7E04000066
:108F000060E31600DC05000050C30000540B0000B5
:108F10006A180000204E0000699FFF1F0009FF1F14
:108F2000E55BFF1F85A6FF1F9D5AFF1F4D59FF1FC1
:108F3000F993FF1FD561FF1FE996FF1F6590FF1F83
:108F40002964FF1FDDB6FF1FCDA2FF1FF574FF1FB1
:108F50003DA0FF1F6D64FF1F619BFF1F85B8FF1FB2
:108F6000BD6EFF1FF56FFF1F7D96FF1FB59CFF1F96
:108F70007199FF1FD191FF1F70B5104C8AB0227EEE
:108F80000F496D46002A0BD00D4A80325268D3B289
:108F9000002202E00E78AE54521C9A42FADB03E043
:108FA0000A7D012309782970E169002904D0287518
:108FB00006952B7705A888470AB070BD98C7FF1F94
:108FC000004000403EB51C490A78081D002A31D0F7
:108FD0000A46097E00292DD0917E00292AD00178E9
:108FE000022927D1818844888368091B89B2102906
:108FF00001D9102101E000290BD0104D0A46491E6D
:1090000089B2002A16D04288541C44809A5C2A7087
:10901000F4E701210170002141808180D16900299C
:1090200005D0074A6C460DCA0DC46846884708201B
:10903000FFF74AFD3EBD000098C7FF1F00400040FB
:10904000DCBAFF1F10B519242402428E01E0491E2C
:109050004184418C4B1C5343A34201DD0029F6D1CE
:1090600010BD0000F0B585B054480290FBF768FBD6
:10907000002856D000200190FBF768FB30214843C0
:109080004F4945184F482818FF35FF3502350090E5
:10909000A88A060A8707BF0F44D048480446803094
:1090A00060340390032F14D0002E02D0207C0028BF
:1090B00038D04548816D491C81650398807B002824
:1090C00000D00420301A80B2FBF746FB0190002844
:1090D00031D00398807B002809D0361FF6B2324683
:1090E0003946009B0298FBF73DFB002828D0032F50
:1090F0002ED035483246816B491C81630099019816
:10910000FFF760FB1120205600902C483B46C078AA
:1091100032460199FBF72CFB00202861A882FBF75F
:109120002DFB3EE03D210298FBF72EFB2648C16B4C
:10913000491CC1633FE02448016E491C01663AE0C6
:109140000198FBF727FB3D210298FBF71DFB32E05E
:109150001D4E706B401C7063FBF710FB1B480078C2
:1091600008280DD000980078032813D0062811D0C5
:1091700002280FD00D280DD0207C002805D009E052
:1091800000990298FBF70CFB0BE00298E030007BA3
:10919000002809D000990298FBF708FB00202861FD
:1091A000A882012005B0F0BD3D210298FBF7ECFA42
:1091B000F06B401CF0630020F4E700005C2AFF1F06
:1091C000C42BFF1F160200000C31FF1FE511FF1F0B
:1091D000F8B504460A78FF30264627462546013072
:1091E000E03660378035491C1300FBF73FF80D0867
:1091F0004BF865F5F5AE60BE60B1BBDBF5000878F5
:109200002870204602228230491CFBF7D5FA01461D
:10921000204602228430FBF7CFFA01462046022284
:109220008630FBF7C9FA0146204602228830FBF758
:10923000C3FA2978022249002970698849006980A7
:10924000A9884900A9802989090129810146204668
:109250007E30FBF7B1FA7E20005BE188401A81B2D4
:109260006148814201D3282122E0E888A988401C76
:10927000490048432989884201D33B2118E0012055
:10928000387712E005225948FBF796FA0146204646
:1092900002228C30FBF790FAA889E188401A81B24B
:1092A00051488142DFD20120A8720020E083F8BD3E
:1092B0002046FBF769FAF8BD307D002809D14C4AF9
:1092C00025181318E035401C5B78C0B26B75082870
:1092D000F6D3707DC00734D00020B87138740120F7
:1092E000307420460822A830FBF766FA0146204673
:1092F0000222B030FBF760FA01462046A030082277
:109300000646FBF759FA054608213046FBF75AFA9C
:1093100020462946943004220546FBF74DFA0421E5
:109320002846FBF74FFA20469830FBF751FA2046C3
:109330009030FBF753FA0C212E48FBF755FA042125
:109340002CE01A2070730D2128E00120B073F8BDC5
:109350000020B8713874DF21085501213173307055
:109360000B211BE00120F073F8BD214A00201318E7
:109370002518E035401C5B78C0B26B750828F6D321
:10938000002015180B786D78491C2B402518E03506
:10939000401CC0B26B750828F3D309212046FBF7A7
:1093A00029FAF8BD737F012B16D00A780270E01DF0
:1093B0000222FB30491CFBF7FFF90146E01D0222A7
:1093C000FD30FBF7F9F901207077F07F0028E8D134
:1093D0000C21E3E700E002E042720721DEE70978B2
:1093E00001720122C27163E7FF7F0000F411FF1FC9
:1093F000802BFF1F0032FF1FF0B504468BB0C0303A
:109400000A902046F53002900B30079027462546FB
:109410008038E0376035264640360990A5E0E87C84
:10942000801E0300FAF722FF0C07A11B3265F3BC74
:10943000DCA18BF4A7A1A87C012803D0204600F072
:1094400057FB12E08C488078002801D01621D8E024
:10945000708F401E0004000C70876FD009E1A87C5B
:10946000012804D0204600F009FAA87401E18248DE
:10947000C0780028ECD02046FBF7C2F922462146EE
:10948000E078B032A831FBF7C1F96EE0A87C012882
:1094900012D00A98C07F012822D03878002868D0DE
:1094A000224621462046BF329831CF30FBF7B4F92F
:1094B0000A990120C87758E06F48C078002807D083
:1094C00009990120887309980021416609988166ED
:1094D000B87B0128BCD106212046FBF7A3F944E064
:1094E0002046FBF7A5F90128B8D10020B873012068
:1094F000BBE7A87C012803D02046FBF79FF9B4E71F
:109500005D48C0780028A3D0608CE0832046FBF73C
:1095100077F90120A8712874387B0128E07809D0F8
:1095200001220021FBF790F9002038733874F8739A
:10953000B8731AE00021FBF78DF9F5E760E0A87C2D
:10954000012805D02046FBF78BF9012807D090E0D1
:10955000F87B0128BED12046FBF752F905E0002038
:10956000F873099988730120A874E87D002800D059
:1095700055E70BB0F0BDA87C012803D0204600F0D1
:109580009BFA72E73C48C178002905D0099A00216E
:1095900091730121A971297480780028DBD157E7E4
:1095A000A87C012806D02046FBF760F9A8740020AB
:1095B00038755EE0387D012806D0708F401E0004AB
:1095C000000C708706D054E0E1780020029AFBF787
:1095D00053F9C0E7E1782220029AFBF74DF90FE03A
:1095E000A87C012803D0204600F08CF93DE72248F2
:1095F000C0780028D3D001203875608CE083AAE7BA
:1096000022212046FBF7C0F80120B2E700E02BE062
:10961000A87C012805D00120F8772046FBF732F915
:1096200023E7787F012806D0708F401E0004000CCD
:1096300070870ED01DE0B87F01288CD107988088F4
:1096400000900798E178438802780020FBF720F922
:1096500081E70798808800900798E178438802782E
:109660002220FBF715F9CBE7204600F0F5FA012898
:10967000AFD000207DE700008031FF1F10B5FAF762
:10968000F1FEFAF7F5FE164CA07B0300FAF7EEFDAB
:109690000507040D0A041800FBF700F907E0FBF7C3
:1096A00003F904E0FBF706F901E0FBF709F90D49BE
:1096B0008878002811D0627BD30703D0252206E0EA
:1096C000122010BD920701D5262200E02722237D1B
