:020000041FFFDC
:10080000000000004DAAFF1FC8C0FF1FECC0FF1F63
:10081000D0C5FF1F00000000000000000000000025
:1008200000000000000000000000000000000000C8
:1008300000000000000000000000000000000000B8
:1008400000000000000000000000000000000000A8
:100850000000000000000000000000000000000098
:100860000000000000000000000000000000000088
:100870000000000000000000000000000000000078
:100880000000000000000000000000000000000068
:100890000000000000000000000000000000000058
:1008A0000000000000000000000000000000000048
:1008B0000000000000000000000000000000000038
:1008C0000000000000000000000000000000000028
:1008D0000000000000000000000000000000000018
:1008E0000000000000000000000000000000000008
:1008F00000000000000000000000000000000000F8
:1009000000000000000000000000000000000000E7
:1009100000000000000000000000000000000000D7
:1009200000000000000000000000000000000000C7
:1009300000000000000000000000000000000000B7
:1009400000000000000000000000000000000000A7
:100950000000000000000000000000000000000097
:100960000000000000000000000000000000000087
:100970000000000000000000000000000000000077
:100980000000000000000000000000000000000067
:100990000D91FF1FA191FF1F49B5FF1F000000002F
:1009A0000000000000000000000000000000000047
:1009B0000000000000000000000000000000000037
:1009C0000000000000000000000000000000000027
:1009D0000000000000000000000000000000000017
:1009E0000000000000000000000000000000000007
:1009F00000000000000000000000000000000000F7
:100A000000000000000000000000000000000000E6
:100A100000000000000000000000000000000000D6
:100A200000000000000000000000000000000000C6
:100A300000000000000000000000000000000000B6
:100A400000000000000000000000000000000000A6
:100A50000000000000000000000000000000000096
:100A60000000000000000000000000000000000086
:100A70000000000000000000000000000000000076
:100A80000000000000000000000000000000000066
:100A90000000000000000000000000000000000056
:100AA0000000000000000000000000000000000046
:100AB0000000000000000000000000000000000036
:100AC0000000000000000000000000000000000026
:100AD0000000000000000000000000000000000016
:100AE0000000000000000000000000000000000006
:100AF00000000000000000000000000000000000F6
:100B000000000000000000000000000000000000E5
:100B100000000000000000000000000000000000D5
:100B200000000000000000000000000000000000C5
:100B300000000000000000000000000000000000B5
:100B400000000000000000000000000000000000A5
:100B50000000000000000000000000000000000095
:100B60000000000000000000000000000000000085
:100B70007D94FF1F00000000000000000000000046
:100B80000000000000000000456CFF1F0000000096
:100B90000000000000000000000000000000000055
:100BA000000000000000000000000000DD87FF1FC3
:100BB0000000000000000000000000000000000035
:100BC000C587FF1F000000000000000000000000BB
:100BD0000000000000000000000000000000000015
:100BE0000000000000000000000000000000000005
:100BF000000000003187FF1F00000000000000001F
:0C0C000001FF01FF01FF01FF41000000A7
:020000041FFFDC
:10400000D8D0FF1FD540FF1FDD40FF1FDF40FF1F3F
:1040100000000000000000000000000000000000A0
:10402000000000000000000000000000E140FF1F51
:104030000000000000000000E340FF1FE540FF1FFC
:104040000000000000000000000000000000000070
:104050000000000000000000000000000000000060
:104060000000000000000000000000000000000050
:104070000000000000000000000000000000000040
:104080000000000000000000000000000000000030
:104090000000000000000000000000000000000020
:1040A0000000000000000000000000000000000010
:1040B0000000000000000000000000000000000000
:1040C0000348854600F02EFA00480047C5A7FF1FA9
:1040D000D8D0FF1F0448804704480047FEE7FEE7AA
:1040E000FEE7FEE7FEE7FEE7356CFF1FC140FF1F5E
:1040F00003460B439B0703D009E008C9121F08C001
:10410000042AFAD203E00B780370401C491C521EAB
:10411000F9D27047D2B201E00270401C491EFBD2B6
:1041200070470022F6E710B513460A4604461946C2
:10413000FFF7F0FF204610BD0321001D401E03784D
:1041400012021A43491EF9D510467047F8B50246C7
:104150004A40D40F42004B0052085B089A4202D2F8
:104160000246084611464A0023D0C30D4A00DDB27C
:10417000120EAD1A202D35DA49020126490AF6053C
:104180008A19002C00D0524220214F1B1146B94001
:104190002A411018C20D9A4221D0002C17D0012DAF
:1041A00008DCDA05801AD20F8019D207DBB200F0E2
:1041B00021F9F8BDDA05801A012340001B06C0185A
:1041C00080185A428018CA0F1043490007E0490876
:1041D000C2071143DA05801A80194008801800F0E0
:1041E00001F9F8BD61000122511A001BF7E7012215
:1041F000D2075140AAE70122D2075040A6E7024663
:1042000070B54A40D30FDB0740002DD04A002AD0BA
:10421000010E140E000212020919400A520A8418F3
:10422000E50104465443000A120A2E045043A4191F
:104230004219200CC543AA18120C0125AD03521CCB
:10424000521912047F39240400D0521C104301D4A7
:104250004000491EC2B20C06C0092018401C40088C
:10426000802A02D003E0002070BD400840000029F1
:1042700000DA0020184370BD70B502464A40D50FE1
:1042800040004A00ED0740085208002814D0002AD8
:1042900012D0C40DD30D41020120C0055202490ABB
:1042A000520AE41A091812187D34914201D3641C91
:1042B00000E04900002C01DA002070BD002391428B
:1042C00001D3891A0343400849000028F7D1002987
:1042D0000AD0914202D10121C90705E0914201D2E1
:1042E000012101E00121C943E005C018401900F097
:1042F00079F870BD420005D04200120E52428A4247
:1043000001DB00207047C9050818704770B54B00E5
:104310005B0803430BD04B005C0D0026334665421F
:10432000B341D417AD1AA34102DB0020014670BD92
:1043300012053018514170BDC217C10F504010B561
:104340004018CA079623002100F054F810BD10B59C
:1043500000229623114600F04DF810BD0EB5C2178D
:10436000C10F5040CA0740180021054B029301922B
:1043700000910A460B4600F083F803B000BD000030
:1043800033040000410040020122400AD205090E18
:1043900080187F2901DA00207047962903DC9622D5
:1043A000511AC8407047963988407047CB0FDB07D9
:1043B000490010B5490802460A4307D00A0D0724F0
:1043C0000903E401090B121B002A01DC002010BDC7
:1043D000C900440F0C43C100E018D205801800F05A
:1043E00001F810BD002904DA401C490001D1400841
:1043F0004000704770B40024050C05D1102400045F
:1044000002D1002921D01124050E01D10002083467
:10441000050F01D10001241D850F01D18000A41CCE
:10442000002801DB4000641C002908D020252E1B39
:104430000D46F540A14000D0012129430843010663
:104440001B1B000ADB1D02D5002070BC7047DB057A
:10445000181880180029F8DA401C4900F5D170BC02
:1044600040084000704710B5002B08DA0024401CBB
:10447000614192185B411A4301D14008400010BDD0
:10448000F0B51FB482B005460C0003D0084602F018
:104490002DFC02E002F02AFC20300246009021466A
:1044A000284600F051F8049B059A04460F4618432D
:1044B0001143084314D0184610431BD000984021E4
:1044C0000A1A1846059900F04FF805460E46009A5C
:1044D0000599049800F038F8084305D0012004E05D
:1044E0002046394607B0F0BD0020C11705430E43F2
:1044F0002C43374300990E986305401A7905E40A66
:1045000000220C43FD0A0A3002D500200146E9E7EB
:104510000105101969410C9C0D9D00196941FFF7B7
:10452000A2FFDFE7064C0125064E05E0E36807CC55
:104530002B430C3C98471034B442F7D3FFF7C4FD2B
:1045400018C1FF1F68C1FF1F10B5202A04DB0146F8
:10455000203A9140002010BD914020239C1A034630
:10456000E3401943904010BD10B5202A04DB0846F3
:10457000203AD040002110BD0B46D340D04020242B
:10458000A21A91400843194610BD70B58C180578E1
:10459000401C6B075B0F01D10378401C2A1106D128
:1045A0000278401C03E006780E70401C491C5B1E1C
:1045B000F9D12B0705D40023521E0DD40B70491CD2
:1045C000FAE70378401CCB1A921C03E01D780D70AB
:1045D000491C5B1C521EF9D5A142D8D3002070BDE6
:1045E00003B40148019001BD0FF4000003B4014879
:1045F000019001BD41F4000003B40148019001BDE8
:10460000FD0E000003B40148019001BD61F20000FD
:1046100003B40148019001BD8117000003B40148B3
:10462000019001BDA916000003B40148019001BD2D
:104630006117000003B40148019001BDF1F30000CF
:1046400003B40148019001BD6116000003B40148A4
:10465000019001BD4D66000003B40148019001BD09
:104660004914000003B40148019001BD85F8000021
:1046700003B40148019001BD5113000003B4014887
:10468000019001BD3916000003B40148019001BD3D
:104690005DF6000003B40148019001BD75F400000F
:1046A00003B40148019001BD8913000003B401481F
:1046B000019001BD5D2F000003B40148019001BDD0
:1046C000CDF9000003B40148019001BDF1F90000EB
:1046D00003B40148019001BDD111000003B40148A9
:1046E000019001BD59F9000003B40148019001BDDA
:1046F0009D18000003B40148019001BDF1F10000D4
:1047000003B40148019001BDF117000003B4014852
:10471000019001BD5114000003B40148019001BD96
:104720006916000003B40148019001BD091500009D
:1047300003B40148019001BDC960000003B4014801
:10474000019001BDB51F000003B40148019001BDF7
:10475000E9BF000003B40148019001BD9D1E0000A7
:1047600003B40148019001BD991D000003B4014844
:10477000019001BD1D1B000003B40148019001BD63
:10478000ED1B000003B40148019001BD6506000067
:1047900003B40148019001BD21FA000003B40148AF
:1047A000019001BDC11F000003B40148019001BD8B
:1047B00089F2000003B40148019001BD49F40000F2
:1047C00003B40148019001BDC9F6000003B40148DB
:1047D000019001BDC520000003B40148019001BD56
:1047E000D541000003B40148019001BD2141000002
:1047F00003B40148019001BDE9FB000003B4014886
:10480000019001BD55DD000003B40148019001BDD8
:1048100089DF000003B40148019001BD75E000008C
:1048200003B40148019001BDE1DE000003B401487A
:10483000019001BD35E1000003B40148019001BDC4
:1048400029E4000003B40148019001BD69E50000BE
:1048500003B40148019001BD91E0000003B4014898
:10486000019001BDE1E2000003B40148019001BDE7
:10487000F1E2000003B40148019001BDCDE6000063
:1048800003B40148019001BD09E9000003B40148E7
:10489000019001BDE1E7000003B40148019001BDB2
:1048A000B5DF000003B40148019001BD61020000C2
:1048B00003B40148019001BD6DDF000003B401485D
:1048C000019001BD85E0000003B40148019001BDE5
:1048D000D1E5000003B40148019001BDCDDF000027
:1048E00003B40148019001BD1DE0000003B401487C
:1048F000019001BDCDE0000003B40148019001BD6D
:1049000031E2000003B40148019001BD49E7000015
:1049100003B40148019001BD1DDB000003B4014850
:10492000019001BD2DCF000003B40148019001BDED
:10493000A90B010003B40148019001BD5D0B01000A
:1049400003B40148019001BD690B010003B40148A3
:10495000019001BD250E010003B40148019001BD85
:10496000F5E3000003B40148019001BD21E300001C
:1049700003B40148019001BD15E3000003B40148F0
:10498000019001BDC1E0000003B40148019001BDE8
:104990006DDD000003B40148019001BDF1DE0000AF
:1049A00003B40148019001BD7574000003B40148CF
:1049B000019001BD8574000003B40148019001BD60
:1049C0000959000003B40148019001BD15F200002F
:1049D00003B40148019001BDFDF6000003B4014895
:1049E000019001BDC5F9000003B40148019001BD6B
:1049F000DD74000003B40148019001BD890D010080
:104A000003B40148019001BDD576000003B401480C
:104A1000019001BDA9F1000003B40148019001BD5E
:104A2000A529000003B40148019001BD85290000BB
:104A300003B40148019001BD0D34000003B40148E6
:104A4000019001BD45C0000003B40148019001BDC3
:104A50009107000003B40148019001BD691B0000EB
:104A600003B40148019001BDBD07000003B4014833
:104A7000019001BD6107000003B40148019001BD30
:104A8000F90D000003B40148019001BD290D00009B
:104A900003B40148019001BD3107000003B401488F
:104AA000019001BD7919000003B40148019001BDD6
:104AB000010D000003B40148019001BD6F21000009
:104AC00003B40148019001BD5D0D000003B401482D
:104AD000019001BD990D000003B40148019001BD92
:104AE000D10D000003B40148019001BD410E00004A
:104AF00003B40148019001BD619E000003B4014868
:104B0000019001BD3975000003B40148019001BD59
:104B10008D75000003B40148019001BD857200004D
:104B200003B40148019001BDE52C010003B4014824
:104B3000019001BD7D9E000003B40148019001BDBC
:104B4000F59E000003B40148019001BDF94C00003E
:104B500003B40148019001BDA53D000003B4014824
:104B6000019001BD5D52000003B40148019001BDF8
:104B7000552B010003B40148019001BDB1C20000F2
:104B800003B40148019001BDF1F0000003B40148F5
:104B9000019001BDC5C5000003B40148019001BDED
:104BA0000DC7000003B40148019001BD0BC5000012
:104BB00003B40148019001BD3942000003B401482B
:104BC000019001BDF140000003B40148019001BD16
:104BD000C140000003B40148019001BD5D410000E7
:104BE00003B40148019001BD95C3000003B401481E
:104BF000019001BD1DC3000003B40148019001BD37
:104C00006D45000003B40148019001BD753C0000F2
:104C100003B40148019001BD7DCE000003B40148FA
:104C2000019001BD71D7000003B40148019001BD9E
:104C300099D7000003B40148019001BDB9430000B9
:104C400003B40148019001BD3D44000003B4014894
:104C5000019001BDE1D5000003B40148019001BD00
:104C60007DD2000003B40148019001BD7D4E0000DB
:104C700003B40148019001BD95DA000003B4014876
:104C8000019001BD4D4F000003B40148019001BDEA
:104C9000E9CF000003B40148019001BD3DD80000F8
:104CA00003B40148019001BD89D4000003B4014858
:104CB000019001BD5DD6000003B40148019001BD23
:104CC0003DC4000003B40148019001BDB55100008E
:104CD00003B40148019001BD3D0D010003B401483A
:104CE000019001BD55E5000003B40148019001BDEC
:104CF000BD9E000003B40148019001BDF5C4000051
:104D000003B40148019001BD3D3F000003B40148D8
:104D1000019001BD25C2000003B40148019001BD0E
:104D200017C4000003B40148019001BDF7C20000A0
:104D300003B40148019001BD01C4000003B401485F
:104D4000019001BDD938000003B40148019001BDB4
:104D5000DBC2000003B40148019001BDE1C10000C5
:104D600003B40148019001BD41CF000003B40148E4
:104D7000019001BD199F000003B40148019001BDDD
:104D8000C9C5000003B40148019001BD8DC90000F0
:104D900003B40148019001BD39CD000003B40148BE
:104DA000019001BD35D3000003B40148019001BD5D
:104DB0006959000003B40148019001BD15000100CC
:104DC00003B40148019001BD59C5000003B4014876
:104DD000019001BD99C4000003B40148019001BDD8
:104DE000D54A000003B40148019001BD3D290000EF
:104DF00003B40148019001BD9534000003B401489B
:104E0000019001BD6913000003B40148019001BD88
:104E1000E11D000003B40148019001BDB55E000032
:104E200003B40148019001BD65B7000003B4014817
:104E3000019001BDD5F6000003B40148019001BD09
:104E4000DDFB000003B40148019001BD999E000004
:104E500003B40148019001BDED75000003B40148A1
:104E6000019001BD3903000003B40148019001BD68
:104E700001E4000003B40148019001BD7DE500009C
:104E800003B40148019001BDD100010003B4014801
:104E9000019001BDD1EB000003B40148019001BDB8
:104EA000F50D010003B40148019001BD2D6800001B
:104EB00003B40148019001BDB90D010003B40148DC
:104EC000019001BDFDE2000003B40148019001BD65
:104ED000E9E3000003B40148019001BD3DE4000096
:104EE00010B5034A1321034800F072FE10BD000004
:104EF00074C0FF1F7CC1FF1F10B50024134600289B
:104F000002D00224204610BD0A4619460148FFF788
:104F100067FBF7E773C1FF1FFFB595B0002510953C
:104F200010AA119500F0A6F806460A287CD204467D
:104F30000620444320462030C0B26A460E2105F0C8
:104F40005FFE002802D168468089C5B21798139089
:104F5000404818990078022813D0002012900829A0
:104F600011D020462130C7B21C2200216846FFF72D
:104F70003DFB6A461C21384605F042FE002805D05C
:104F800010E00120EAE720462230ECE76846807E08
:104F9000C01F092806D8E907C90F6A46129B139853
:104FA000FFF72AFB1422002107A8FFF71FFB20466A
:104FB0002430C0B207AA102105F022FE002812D129
:104FC0001022FF2107A8FFF71DFB00280BD1253475
:104FD000E0B20BAA042105F013FEE907C90F07AAE6
:104FE0001798FFF715FB7036F0B20CAA102105F0E8
:104FF00007FE002811D10CA802F0CBFB00240CAE58
:10500000A00080190188002903D08278179800F049
:105010003BFE641CE4B2042CF2D3A80704D50D486F
:10502000017B179800F01EFE189804280FD109493B
:10503000087802280BD10A791798002A00D001229B
:105040004978002900D004211143FFF7E7FA002036
:1050500019B0F0BDB4C2FF1F10B5054CA061217B93
:105060002620FFF7E1FA207B00F0ACFD10BD000028
:10507000B4C2FF1FF0B50A2485B015460F460028BC
:1050800006D0012804D0022810D0032846D11FE002
:10509000084602F04BFB04460A283FD2002D3DD0C3
:1050A000062239462846FFF79BFA37E01D4E0024BA
:1050B0000E206043801906223946801DFFF7BAFA98
:1050C000002823D1641CE4B20A2CF1D30A241DE089
:1050D00000242046062148432330C0B26A461021EE
:1050E00005F08EFD00280CD11022FF216846FFF745
:1050F00089FA002805D139466846FFF7A1FA002849
:1051000004D0641CE4B20A2CE3D3DFE70A2C05D2F6
:10511000002D03D02946204602F020FB204605B092
:10512000F0BD0000A4C6FF1FFEB515460122920285
:10513000821A00240127524E1300FFF787FA110A42
:1051400011161D242B333A3F477279818997975264
:10515000970001297ED1287802287BD830708DE015
:10516000022977D12888F08188E0012972D1287836
:1051700001286FD8707081E001296BD1287804284C
:1051800068D8B0707AE0012964D12878012861D804
:10519000F07073E010295DD1102229463948FFF7DD
:1051A0001FFA6BE0012955D12878012852D83071B7
:1051B00064E001294ED12878F0715FE0042949D1DB
:1051C00031492868884245D8706157E0002941D1AB
:1051D000FFF742FA002801D0B7724FE002F028FA38
:1051E00019E0072936D10622691C6846FFF73AFA0A
:1051F000287800226946FFF73DFF05460A280ED2AF
:10520000FFF72AFA002803D01E489C30475535E0A6
:10521000284602F019FA502005F0F0FC23E00224A1
:105220002CE0012916D12878012813D8707125E0C7
:1052300001290FD1287809280CD8B0711EE009E0A7
:10524000012907D12878C11F092903D8307215E038
:10525000012901D0182411E0717A28787072002990
:105260000CD101280AD102F0A3FA07E02728D6D2F0
:105270000229D4D12988FFF7D7F904462046FEBD7C
:10528000B4C2FF1F94C6FF1F3F420F0070B50C460B
:105290000146032000020A1A002534481300FFF7D4
:1052A000D5F91D1012151C1F2326282C3032343836
:1052B0003A3C3E40424446484A4E50525A54565850
:1052C0005A00C07911E01022294902E02849102231
:1052D00010312046FFF784F945E0C06A206042E0C3
:1052E000224906223C31F4E7007820703BE08089B7
:1052F00036E01E4942784231EBE71D4982781F397A
:10530000E7E7007AF1E7407AEFE718490622303103
:10531000DFE7807AE9E7C07AE7E7C08920E0808AA2
:105320001EE0C0781CE0C08A1AE0008B18E0408BB9
:1053300016E0808B14E00D4906223631C9E7C08B98
:105340000EE0008C0CE0408C0AE08079CDE7008A0A
:1053500006E0408A04E0272904D20846FFF788F9CE
:10536000208000E00225284670BD00005CC3FF1FBE
:105370006FC7FF1F70B50E4C00256071A571691EC7
:10538000E181FFF77BF90420E07110220021094838
:10539000FFF72CF90748102200211030FFF726F9FB
:1053A000E562257265720120A072E57270BD000091
:1053B0005CC3FF1F6FC7FF1FFEB53B4D0C460804C3
:1053C0000CD56879FFF760F9050004D002F042FBC4
:1053D0002846FFF75FF90120C00360E0600403D5B1
:1053E000012080034840FEBD2F48E1070126807957
:1053F00000292AD02978002920D0052821D0287A10
:1054000069460870687A4870274900A8062230313A
:105410000230FFF7E5F8A87A69460872E87A487220
:105420006879FFF73DF9002808D00720A871696A5C
:10543000002903D00968002900D088472046704021
:10544000FEBD032069460870E5E7A1070DD50528D4
:1054500009D1E889FFF72AF9AA8A002A03D0022194
:105460006879FFF729F9022019E0600704D50020C8
:1054700002F030FB042012E0200712D52879012821
:1054800002D002280AD107E00096AB8B6A8B298BE9
:10549000E88A00F00BF801E000F05AF908206040BB
:1054A000FEBD0020FEBD00005CC3FF1FF8B5134C1D
:1054B000069DA679052E01D01420F8BD104F861F39
:1054C000BE4219D2062917D3BE1DB14214D2FF27FE
:1054D000F537BA4210D20A2B0ED3B3420CD2E08277
:1054E00021836283A383284602F0F4FA04216079C1
:1054F000FFF7E8F80020F8BD1820F8BD5CC3FF1FD7
:105500007A0C0000F7B50C46804900981646421800
:105510007F4F00257879B9791300FFF797F8190EB6
:10552000141BE92040455970777E888FE996A2A91F
:10553000B4BFC8E9E9E9E9D3E900102C76D110221B
:10554000314674486FE0102C70D1724810223146F9
:10555000103068E0042C69D13068F862CEE0012C8C
:1055600064D13B7832783A70002B0AD0002A07D1F8
:10557000022903D0062901D0042901D1FFF7A8F898
:10558000BCE0002A0AD0012905D0032903D005294F
:1055900001D0042902D10121FFF7A0F8AEE0022CCE
:1055A00044D13088B881A9E01F2C3FD858481F2229
:1055B00000214230FFF71AF8554822463146423062
:1055C000FFF70EF8524B7C7042332246012112E065
:1055D0001F2C7CD84F481F2200211F38FFF706F8E8
:1055E0004C48224631461F38FEF7FAFF494BBC7043
:1055F0001F3B224600217879FFF776F883E0012CE3
:1056000065D13078042862D8387277E0012C5ED1F9
:10561000307803285BD8787270E0062C57D13C486C
:10562000062231463030FEF7DBFF67E04FE0012C09
:105630004DD1307807284AD8B8725FE0012C46D1A6
:105640003078032843D8F87258E0022C3FD13288D2
:10565000BA82002A52D0052950D10221FFF72CF836
:105660004CE0012C33D13078012830D8F87045E077
:105670003088022C2BD1062829D31921C901884250
:1056800025D8F8823AE03088022C20D106281ED393
:105690001921C90188421AD838832FE03088022C9A
:1056A00015D1FF21F531884211D2788326E0308868
:1056B000022C0CD10A280AD31921C901884206D824
:1056C000B8831BE03178012C01D1012901D01825C4
:1056D00014E00821FFF70EF8002801D016250DE090
:1056E000002002F0F7F904217879FEF7EBFF05E0DE
:1056F0000098272801D2022C02D002252846FEBDA0
:105700003188FEF791FF0546F8E70000FFFCFFFF38
:105710005CC3FF1F6FC7FF1F1CB50B4CA17900298D
:1057200001D011201CBD002800D060620649074846
:105730002C31034601910090103B0022E179607901
:1057400000F016F800201CBD5CC3FF1F7FC7FF1FC1
:1057500010B506488179052901D0122010BDC189F4
:1057600013224079FEF7CCFF10BD00005CC3FF1F81
:10577000F8B51D460224069F079E0B00FEF766FF44
:105780000A1508060608150615060615002C0CD184
:10579000FEF7BCFF040008D1324639462846FEF722
:1057A000BBFFFEF7BFFFFEF7C3FF2046F8BD0000BA
:1057B000014610B50020C90704D0034A042103485C
:1057C00000F006FA10BD00009CC0FF1FD8C3FF1FE9
:1057D00010B5002309E01C012418E468944202D1AA
:1057E0001901081810BD5B1C9BB28B42F3D300203B
:1057F00010BD000070B50F4D0F4CA8702946103138
:10580000204600F01DF8002128460B460830CA004B
:1058100084521218491C09065360090EF7D014204F
:1058200002F028FDA878FEF789FF0448FEF78CFFF8
:1058300070BD0000C0C3FF1FFFFF00009D7BFF1F66
:1058400070B50A4C0025A04209D1002082008C527C
:105850005218401CC0B295700228F7D370BD02F0F8
:105860006CF90028FAD00480857070BDFFFF00003D
:10587000F8B50E460746069900240798002902D07D
:105880000B242046F8BD022B01D00D24F9E7117836
:105890005278120289188DB22946814301D08024A2
:1058A000EFE73846F16800F085F9A842E9D02A46CA
:1058B0003846F16800F016FA0400E2D171892A46F0
:1058C000384600F0B3F9DCE7FFB5002589B02E4675
:1058D0000998B1000C1821881D48814230D0A07869
:1058E00000282DD00A9A12990C98FFF771FF070033
:1058F00026D003A8142102300291009000220C98B7
:105900000192428903AB20880333394600F03EF808
:10591000002815D1788969468881A078C00705D00C
:10592000208803A90B9AFEF715FF0543A07880078E
:1059300006D5208803A9139B0B9AFEF711FF054398
:10594000761CF6B2022EC3D328460DB0F0BD00007F
:10595000FFFF000070B50C46080412D50A48807895
:10596000FEF792FE050008D02878B02802D128461C
:1059700002F0F4F92846FEF78DFE0120C0036040D6
:1059800070BD002070BD0000C0C3FF1FFFB583B015
:10599000087A00250C9E1C460F46C0060DD50598BA
:1059A00002F0C4F8030006D00A223946039898474B
:1059B000050035D101E00E2532E0387802281DD1EE
:1059C000786829220178407812020002081881B212
:1059D000881A91427ED009DC7348081A23D0012826
:1059E00021D002284FD0032808D125E0012872D009
:1059F000022871D003286DD004286ED0059802F0DB
:105A0000BDF800286AD00568002DD4D00E990D98F5
:105A1000019100903346224639460398A84705462F
:105A2000284607B0F0BD0D98002872D1F8680178BB
:105A300031700278416896E00D98002869D1012004
:105A40003070F8680021007820707889401C80B29E
:105A5000FEF78CFE00280DD0317802788918891C59
:105A60003170817A61704189090AA17002784168B8
:105A7000E01C79E030780422001D30700021601CA9
:105A8000FEF7B4FDCCE70D98002875D1F86802A99F
:105A90000088009004203070009820700098000A60
:105AA00060700098FEF762FE070029D0F868009049
:105AB0006846028901AB3D493846FEF75DFE002885
:105AC00010D13B7802213A487A68FEF75BFE002845
:105AD00008D104E026E030E01CE04AE062E0334810
:105AE000694688800098007802280CD1009802222C
:105AF0004168201DFEF774FD3078801C307002E094
:105B000069460098888068468088A070000AE07026
:105B100086E731E00D9800282ED1F968039800F04F
:105B200049F804E00D98002826D1F8680088022181
:105B300031702070000A607072E7F868FEF728FE86
:105B40000D99C0B2814212D8814201D1002206E0F3
:105B50000E9A8918814202D30D99401AC2B232704E
:105B6000F9680D9809182046FEF73AFD58E7072511
:105B700056E70D98002801D00B2551E70721F8685A
:105B8000317001782170417861708178A17041880D
:105B9000090AE1700179217181796171C088000A77
:105BA000A0713DE700252FE700280000FFFF00005F
:105BB000DA2F010010B501F0C0FF002800D0807876
:105BC00010BD00000149087070470000C0C3FF1FEE
:105BD0007CB51546040019D0684601940180FEF793
:105BE000DDFD03001DD1002D1BD06489002C0DD0DC
:105BF0000C20FEF7D9FD00280AD000230360848022
:105C0000094A85605168002904D006E0022308E0B3
:105C1000132306E0506004E011460A68002AFBD115
:105C2000086018467CBD0000C0C3FF1FF8B50C4CCF
:105C30000746207815460E46FF280FD00A20FEF7AB
:105C4000B9FD01000AD0B120087000204870087129
:105C50004F80CE800D812078FEF7B2FDF8BD0000A8
:105C6000C0C3FF1F70B50C4605460649FFF7A2FFEB
:105C7000800704D521462846FEF7A8FD70BD012007
:105C800070BD0000D0C3FF1F1CB56B461A71120A0D
:105C90005A7100220092022301AA00F001F81CBDF3
:105CA000FFB583B008461E4601A90C9FFEF75EFDB6
:105CB000050014D06846808801F060FF00280AD0F3
:105CC0004468002C09D00097F3B22946059A03983E
:105CD000A04707B0F0BD0024F3E70E20F9E701204C
:105CE000F7E7000070B514460E46054601F025FFA3
:105CF000002806D13146054801F01FFF002803D0D7
:105D000005808470002070BD112070BDFFFF000071
:105D1000014610B50020C90704D0034A07210348F3
:105D2000FFF756FF10BD000088C0FF1FE8C2FF1F2D
:105D300070B50D46164600241D490300FEF786FC8B
:105D400008051234341934222934152D23D816228B
:105D500000211848FEF74AFC2A4631461548FEF74E
:105D60003FFC22E0022D16D111491088103908801D
:105D70001BE0082D0FD10E48082231460838FEF7E7
:105D8000B7F912E0012D06D1CA69094930782831E6
:105D900007E0012D01D0182407E0CA6B04493078D0
:105DA000483102F030FB00E00224204670BD0000C4
:105DB000E8C2FF1F3AC7FF1FFFB504464E4F81B030
:105DC0000020386020461D46BF30FEF705FD4B48D9
:105DD00026460078B23680340828A06E32462CD091
:105DE0000121FEF7FFFC444F3078F863761C304603
:105DF000FEF7A2F900BA000AF17800020843B8637E
:105E0000361D3046FEF798F900BA000AF178000214
:105E100008437863361D3046FEF78EF900BA000A53
:105E2000F1780002084338630398010202980143A5
:105E3000F960039F00263F1D0EE00021D1E7A8195D
:105E4000401CFEF779F90102A85D01432C48301887
:105E50000160361DF6B23F1F042FF0DA032F04D085
:105E6000022F08D0012F0FD014E0A819FEF764F913
:105E70000102090A09E0A9194878097800020843D3
:105E80001F497118086003E0A95D1D4830180160C2
:105E9000361DF6B200211A4A02E0B0180160361D24
:105EA000FF2EFADD1448174B43600F2303610123D3
:105EB00003604369002BFCD0436901600020039B11
:105EC00011E0811809682954401CC0B20E0A2E54F2
:105ED000401C0E0CC0B22E54401CC0B2090E2954F6
:105EE000401CC0B21B1F002BEBDCA06E401CA06648
:105EF000012005B0F0BD000000000440E511FF1FC7
:105F000000010440080F0000FFB504464D4F81B06A
:105F10000020386020461D46BF30FEF75DFC4A4831
:105F200026460078B23680340828606E32462BD080
:105F30000021FEF757FC434F3078F863761C30465B
:105F4000FEF7FAF800BA000AF17800020843B863D5
:105F5000361D3046FEF7F0F800BA000AF17800026C
:105F600008437863361D3046FEF7E6F800BA000AAB
:105F7000F17800020843386303980299000208434D
:105F8000F8600026039F0EE00121D2E7A819401C0B
:105F9000FEF7D2F8A95D000208432C497118086089
:105FA000361DF6B23F1F042FF0DA032F04D0022F64
:105FB00008D0012F0FD014E0A819FEF7BDF8010298
:105FC000090A09E0A91948780978000208431F491D
:105FD0007118086003E0A95D1C4830180160361D87
:105FE000F6B20021194A02E0B0180160361DFF2EFA
:105FF000FADD0F2313481B0243600F2303610123C3
:1060000003604369002BFCD0016003980023001D4E
:1060100011E099180968E9545B1CDBB20E0AEE54D2
:106020005B1C0E0CDBB2EE545B1CDBB2090EE954B8
:106030005B1CDBB2001F0028EBDC606E401C60665E
:1060400005B0F0BD00000440E511FF1F0001044051
:10605000F0B589B0FEF7CCFBFE4908600420FEF7DE
:10606000CDFBFEF7D1FB0446C00712D0FA49002051
:10607000086072B6FEF7CEFBF849F94DF94E0228DA
:106080000BD001287ED0F84F05287CD004287BD087
:10609000ADE2FEF7C5FB09B0F0BD08780F46012858
:1060A00006D0032804D0022802D005286DD09EE235
:1060B0000720FEF7A3FB08AB07AA06A9EB48FEF7EB
:1060C000B5FBEA493439898E0B074906CA0FE749FF
:1060D0001B0F34390C46403420319446002801D03F
:1060E000032B05D0052B6ED0387801286CD081E2C7
:1060F0003878012801D00328F9D1D94843695B1CBD
:106100004361DB4B087FDD79A842F0D1487F1D7ADF
:10611000A842ECD1887F5D7AA842E8D1C87F9D7AF9
:10612000A842E4D12078DD7AA842E0D160781D7BD6
:10613000A842DCD1F5680020AD8D2D072DD5DB7B85
:10614000012B01D0032B28D1C3001F1AC94BDD5DE1
:1061500095421DD1FB188D7D5F78BD4218D1CD7D54
:106160009F78BD4214D10D7EDF78BD4210D14D7EA7
:106170001F79BD420CD18D7E5F79BD4208D1CD7EA5
:106180009B7903E0E5E0E6E02EE2E0E09D4202D00C
:10619000401C0828D8DB082817D0B14D686D401C7A
:1061A0006865706C002802D0804700289FD0FEF7F9
:1061B00043FB01277770FEF71BFBA649096888425D
:1061C00008D9401A09E02CE0AFE0A548016A491C53
:1061D00001620FE2A84A511A0818F16876230A7979
:1061E000181A801A4A6C096CD2B2C9B2C0B2FEF752
:1061F00029FBFEF72DFB9848076000207070FEF722
:106200002DFBFEF731FBA08C010A9848891C303029
:10621000FEF730FB0E20FEF7F1FAA869401CA861DA
:10622000E8E13F78012F01D0022FD2D1E869401C6C
:10623000E8618F480B7FC0798342CAD18C484B7F7D
:10624000007A8342C5D18A488B7F407A8342C0D18D
:106250008748CB7F807A8342BBD185482378C07A38
:106260008342B6D16078824C237B9842B1D1F068EA
:106270000023808D000726D5E07B022801D003286B
:1062800021D1D800C61A7B48845D944218D13018B9
:106290008C7D4678B44213D1CC7D8678B4420FD140
:1062A0000C7EC678B4420BD14C7E0679B44207D13D
:1062B0008C7E4679B44203D1CC7E8079844202D070
:1062C0005B1C082BDDDB6D48022F1AD10478644576
:1062D00027D18A7D4478A24223D1CA7D8478A24204
:1062E0001FD10A7EC478A2421BD14A7E0479A24201
:1062F00017D18A7E4479A24213D1C97E8279914214
:106300000FD1082B0DD0696D0622491C69656146C5
:1063100001705649401C891CFEF762F9FEF7B0FA7D
:1063200068E1686A401C686264E15149487BC207C1
:1063300001D0252004E0800701D5262000E0272099
:10634000097D8142ECD93220FEF7A0FA52E1072004
:106350004EE106204CE10878072879D10B20FEF7A2
:106360004DFA4149FF22097825325143444A002021
:106370008B185870505443480068002805D0FEF729
:106380008BFA40490978C84005E0FEF785FA3E4996
:106390000968FEF787FA0746E00535D539480068F1
:1063A000002805D0FEF784FA36490978C84005E090
:1063B000FEF77EFA34490968FEF774FA2A4B00901A
:1063C0001878FF21253148432D4940180279002AC9
:1063D00001D000220271234A7130121D911D05F077
:1063E0009BF8F1680098C968381A4118274801607D
:1063F000600526D51C49FF22097825325143204AE1
:106400000120891848701CE01748FF2200782532C7
:106410001B4B012150431954296DFF3F491C29652D
:10642000F1680F3F0969C018CA19184920300A607D
:10643000407E410016480818FF300130018D491C8C
:1064400001852046009904F029F9FEF737FA21E08A
:10645000CDE000001C12FF1F1812FF1FE511FF1FE7
:106460000C31FF1FF8C5FF1F1512FF1FF82BFF1F70
:10647000442AFF1F892BFF1F40420F000C12FF1FF1
:106480005C2AFF1F2410FF1F2010FF1F2012FF1F78
:10649000ACCCFF1F614907460870002008724872A3
:1064A0008872C8725E48044202D0E86C401CE864FE
:1064B0005C48FF220078253250435B4A57498318D5
:1064C000D81DF930827C06928A1DFF33C07C491C9E
:1064D0001333FEF7F9F902465248FF2100782531BF
:1064E000484351494018C11DF931CA740279002A44
:1064F0000CD10223069A897C1A4019408A4205D0A1
:1065000046494A78002A01D101224A704749496820
:106510008E220904090E0391125C002A02D0AA6E91
:10652000D219AA662030407E414D40004019C0304B
:10653000C18BC919C183FEF7CDF901463948FF2245
:10654000007825325043384A80182030407E400081
:1065500040198030828A8918818207AA05A904A877
:10656000FEF7BEF92F48FF210078253148432E4918
:1065700040182030407E694640002A5A097D511853
:1065800029524019403069464289097C511841819D
:10659000600705D50398874202D23846FEF7A6F970
:1065A000FEF7AAF91D480021224B81701A78012AB2
:1065B0000CD1002F0AD0204A1469002C03D0127D80
:1065C000D243920702D0012282701970807900288C
:1065D00001D0FEF797F9FEF79BF9F078002809D073
:1065E0003189FEF77BF805E00878082809D00520F6
:1065F000FEF704F9FEF714F962B60320FEF7FEF881
:1066000049E53878FF212531484307490B4A4018AE
:10661000911D713004F080FF0920E9E78031FF1FF0
:10662000020800001512FF1F5C2AFF1F0010034024
:10663000ACCCFF1F1312FF1F442FFF1FFCC5FF1F11
:10664000F8B58E4F079CBE1D9C460D46002A1FD0F4
:10665000012A05D0032A0ED0022A0CD0042A59D1CF
:10666000002C57D00699002901D0012952D1032AC4
:1066700001D0022A0AD10146814BA039994249D260
:10668000A02D47D3012189038D4243D8002A0BD185
:106690007B4B01462039803399423BD2202D39D3A0
:1066A000012189038D4235D8854233D361460029C3
:1066B00001D001292ED10999002905D0012903D043
:1066C000022901D0032925D10899490722D06D4B11
:1066D0009988012920D09A7308994907490F59735D
:1066E0001CD06849099BCB736346002B1BD0012348
:1066F0008B713378CB7173780B72B3784B72F378FC
:106700008B723379CB7273790B73012A19D0042AF7
:1067100028D036E01220F8BD0C20F8BD59480721DA
:1067200041733020F8BD00238B713B78CB717B78AF
:106730000B72BB784B72FB788B723B79CB727B7997
:10674000E2E75148069B03702378437063788370B7
:10675000A378C370E37803712379437163798371FC
:1067600002200EE0484B069E1E7026785E7066780A
:106770009E70A678DE70E6781E7126795E71647967
:106780009C7148801300FDF761FF0504060A0806A6
:106790000B00002504E0012502E0022500E00625AB
:1067A0003A4E8A79B0880C460009000128434023FC
:1067B000910198430143D001802291430843B08066
:1067C0000622E11DB01DFDF70BFF37464037B88CA0
:1067D000A179000900014022001D90438901014375
:1067E000B98430460622E11D6630FDF7F9FEA07C33
:1067F0000321000249024118B2883F20000282436F
:10680000114389B2B180012D12D18143032080024E
:106810000818B0801C49BB8C087880229343C001C3
:106820001843B884304606220C30491CFDF7D8FEC8
:106830001748017808291AD0072918D0A17B0B0026
:10684000FDF704FF050408100C0817000121017072
:106850001F200AE002210170202006E004210170BF
:10686000222002E0032101702120FDF7C7FF002054
:10687000F8BD002101701E20F7E70000F911FF1F8D
:10688000613F0000442AFF1F0C12FF1FC42BFF1F93
:10689000E511FF1F10B50E480E4B0278FF20253082
:1068A00042430021D018FF24C1701334215499545D
:1068B00001230246037160329371137420238161B6
:1068C00019548E23195451740521818110BD000083
:1068D0001512FF1F5C2AFF1FFEB572B65548C0682F
:1068E000476D866D082F01D8002F00D10427082E90
:1068F00001D8002E00D104264F48504D816C504CD9
:10690000491C81642878FF21253148430019203033
:10691000407E41004B480818FF304130418E491CF1
:106920004186FDF7FBFFFDF799FFFDF79DFF2878F6
:10693000FF21253148430019806AFDF7F5FF2878CB
:10694000FF21253148430019406AFDF7F3FF2878FD
:10695000FF212531484300192030407EFDF7F0FF2C
:106960002878FF212531484300192030407EFDF76B
:10697000EDFF2978FF202530414308190279002ACC
:106980000BD02E21095C304A406951434000091860
:106990002848C068C06F081815E0615C00292549C7
:1069A00009D0CA684069096C136940185B0040004F
:1069B0001818D16C06E0C9684069CA6840005200E6
:1069C000C96C10184018FDF7C7FF1A4DE868806CB5
:1069D000FDF7C8FFE868416CCAB2016C808FC9B28C
:1069E000C0B2FDF72FFF0420FDF7C2FF0720FDF71F
:1069F000C5FF02A93846FDF7C7FF69460989C2B23B
:106A000001250E48019100950078FF21253148436A
:106A10000019FF300130817CF3B23020FDF7BAFF5E
:106A2000FDF716FF0948056062B61420FDF7E6FE83
:106A3000FEBD0000F8C5FF1F0C31FF1F1512FF1F20
:106A40005C2AFF1FACCCFF1F710200001812FF1F51
:106A5000002805DBC106C90E0120884001490860F5
:106A60007047000000E100E08307FF22DB0E9A4040
:106A70008907090E9940002808DB830809489B0014
:106A80001818036893430B43036070470007000F17
:106A90000838830804489B001818C36993430B43C4
:106AA000C361704700E400E000ED00E08307FF22CF
:106AB000DB0E9A408907090E9940002808DB8308FD
:106AC00009489B001818036893430B430360704701
:106AD0000007000F0838830804489B001818C36992
:106AE00093430B43C361704700E400E000ED00E016
:106AF000F8B50446002003460A5C8507ED0EAA405F
:106B00001343401C0428F7DB00F048FB0028FBD1AE
:106B100000F0A2FC21022004090E0843FF273F02D7
:106B200021463940084372B600211A4DA960194E1A
:106B30000002803E801C3060336062B600F02EFBA5
:106B40000028FBD100F078FC1120000620186946CF
:106B50002A695207FCD572B60422AA600402020414
:106B6000240E2243384002431002C01C306062B63B
:106B700028694007FCD53078087030784870307844
:106B800088703078C8700098984201D00020F8BD15
:106B90000120F8BD8000081170B5054600240949A0
:106BA0000948FEF74DFE0948FDF7CEFDE80706D07F
:106BB0000448074A11210A30FFF70AF80446204624
:106BC00070BD00002AC4FF1FFFFF0000CDB8FF1FEB
:106BD000BCC0FF1F1CB513460024154A002806D070
:106BE000012809D002280CD0022420461CBD02290D
:106BF00009D118889080F8E7012904D1187810701D
:106C0000F3E7062901D01824EFE709480A46194698
:106C10000830FDF7E5FC064BFF21183301911120E8
:106C20001946009010390022881DFEF74DFEDCE762
:106C30001CC4FF1F024901480860704740787D016D
:106C4000F4C5FF1F10B572B61948C068C00703D05D
:106C50001748001FFDF7A4FE154C403CA06BC00771
:106C600007D013481838FDF79BFE12480168491CED
:106C70000160606AC0070CD0E16A0F48C162A16977
:106C800041630B482C38FDF78BFE0C480168491C0A
:106C900001602069C00707D02046FDF781FE20462D
:106CA000FDF784FEFDF788FE62B6002010BD0000EF
:106CB000401002402C10FF1FF8C5FF1F3010FF1FAF
:106CC000F8B50646002700F0E1FA04460648051B21
:106CD00006E000F0DBFAA04201D3071B00E02F180A
:106CE000B742F6D3F8BD0000FFFFFF002021020CE1
:106CF00001D010211046020A01D0104608390209BD
:106D000001D01046091F820801D01046891E420892
:106D100001D0881E7047081A704702E008C8121F89
:106D200008C1002AFAD170477047002001E001C174
:106D3000121F002AFBD1704704490868FF22120283
:106D400090430122D2031043086070471CE400E026
:106D500010B5FDF737FE0120FDF73AFEFDF73EFEC8
:106D6000002010BDF0B500248E464A1E12E0714688
:106D700000230D1B6D1E0AE09E0031188C468759BA
:106D800049688F4202D9815161464F605B1C9D4228
:106D9000F2D8641C9442EAD3F0BD000038B5016813
:106DA000064C012908D100210091027B81680079FD
:106DB000002301F02DFE606038BD0000D4C5FF1F28
:106DC00010B50C460AA003F0BFFF10480E4A017828
:106DD000002C08D0002905D0002101704021107836
:106DE000FDF77CFC10BD0029FCD10121F5E7000076
:106DF000626174745F6368617267655F6576745F12
:106E000068646C2025640A0085C5FF1FD4C5FF1F78
:106E100010B50AA003F098FF0B4800210160416003
:106E200000F016F800210B2001F032FF074A0C2079
:106E3000114602F007F8002010BD00006261747472
:106E40005F696E69740A0000D4C5FF1FC16DFF1F22
:106E500010B50021044A062001F0E0FC002801D111
:106E600001F066FD10BD00009D6DFF1F01484068E8
:106E700070470000D4C5FF1FF0B5714E8BB0707025
:106E800006211F20FDF7D0FB01246846047304741B
:106E900007210176002505845021818419214901AB
:106EA00081827D218583C900018566A003C8019187
:106EB00000906846057202AA01216448FEF722FB91
:106EC00062486A460621801CFEF71CFBC32006AA06
:106ED00001218000FEF716FB5C4803AA0121001F78
:106EE000FEF710FB594808AA0221C01EFEF70AFB54
:106EF0003246612020321721C000FEF703FB5348C1
:106F0000324608320621801EFEF7FCFA312004AA20
:106F100001210001FEF7F6FA4C4809AA02210830C7
:106F2000FEF7F0FA494805AA02210930FEF7EAFA0D
:106F3000464807AA02210A30FEF7E4FAC5200AAA49
:106F400002218000FEF7DEFA32463732152100209A
:106F5000FEF7EEFE1927BF0139460620FDF764FB58
:106F600039460720FDF760FB39460820FDF75CFB3A
:106F700039460920FDF758FB6846009505710472F3
:106F800003210173047481206A460421C000FEF7C6
:106F9000CBF8012101AA8802FEF7C6F82B4802AA05
:106FA0000121F930FEF7C0F8284803AA0121FA3080
:106FB000FEF7BAF8254804AA0121FD30FEF7B4F81F
:106FC000A51E2846FEF7A4FE2846FEF7F1FBFDF7B6
:106FD00087FF2846FFF7E0FD684604810221017320
:106FE0001BA003C80191009004216846017405218B
:106FF000017502AA02210020FFF7ECFD012103AA7E
:107000000846FFF7E7FD6A4606210220FFF7E2FD8A
:1070100004AA01210320FFF7DDFD05AA01210420B8
:10702000FFF7D8FDFFF7F4FE301D04F097FD04F0E4
:1070300027F801217078FDF751FB0BB0F0BD00007F
:1070400084C5FF1F010203040506000009030000B8
:1070500005060B1600FE0000FEB5294D0C4608047F
:1070600009D56878FDF710FB002801D0FDF712FB69
:107070000120C0033FE07D26E007F600012700283D
:107080000FD01F481030FEF747FB1D481830FDF7A2
:10709000E3FF324602216878FDF70EFB2046784078
:1070A000FEBDA00716D517A003C801910090FFF7F9
:1070B000CFFE68886946401C688008706A460621D1
:1070C000022004F01BFC324602216878FDF7F4FA36
:1070D000022010E0200504D501F052FA0120C00280
:1070E00009E0200709D5684607706A46012107486C
:1070F000FEF708FA08206040FEBD0020FEBD00003B
:1071000084C5FF1F0F106F7A0AFE00000503000000
:1071100010B505231B221F210D4804F00DFD0C4C5A
:107120000C4B083407221021204604F005FD0622EE
:1071300001231146204604F0FFFC05481438416A3B
:10714000012211434162C169034A1143C16110BD6B
:1071500014F00040FB03000004003E0010B50020C6
:10716000054CFF212218401C51704028FADB04F026
:107170008BF8207010BD000090CEFF1F10B50020CE
:10718000054CFF212218401C51700628FADB04F040
:1071900099F8207010BD00008BC6FF1F08480169D8
:1071A0004907FCD5012181600549052280390A7013
:1071B00002695207FCD50878C007C00F704700006D
:1071C00080000811F0B58646080CFF26844600238F
:1071D00088B237461C46194601228A4005461540AA
:1071E000CD402C19A4B2FF2F02D1012C00D18FB2B7
:1071F00065462A40CA40D21893B2FF2E02D1012B15
:1072000000D18EB2491C1029E6DB012C02D0102CD3
:1072100008D009E0012B07D13001C0197146087070
:107220000220F0BD102B01D00320F0BD0120F0BDE5
:1072300010B528210148FCF774FF10BD84CCFF1F56
:10724000032806D3012189078B68012282409343DA
:107250008B607047032806D3012189078B680122C0
:10726000824013438B6070470148006870470000FC
:107270001410FF1F012292071368012181408B43E4
:107280001360106808431060704700000449886A62
:107290000202886A120A0002000A9042F7D170477F
:1072A00000F0004010B504460120FFF709FD114928
:1072B000CB6A1148C26A934202D2C96A511A00E0ED
:1072C00000210163FFF7E2FF0C490123C8620119A5
:1072D0000A4608321B069A4203D309310902090AF9
:1072E000641A01190648C162416A2922D203114376
:1072F000416210BD00100240F8C5FF1F0012FF1FC1
:1073000000F00040F8B5496894460A784978069834
:10731000090251188FB2444A11210025079CBE1A58
:10732000091A974243D009DC404ABA1813D0012AFF
:107330001CD0022A25D0032A08D12EE0012E40D0ED
:10734000022E48D0032E50D0292E5AD0002018707B
:107350000A252846F8BD082855D20821091AA14255
:1073600000D80C46E2B21A70314957E00C284AD2D4
:107370000C21091AA14200D80C46E2B21A702D491C
:107380004CE00D283FD20D21091AA14200D80C462D
:107390002849E2B21A700D3140E0112833D2A142DF
:1073A00000D80C462349E2B21A701B3136E011288E
:1073B00029D2A14200D80C461E49E2B21A702D31E2
:1073C0002CE011281FD2A14200D80C461949E2B284
:1073D0001A703F3122E0112815D2A14200D80C4684
:1073E0001449E2B21A70513118E00E280BD20E2166
:1073F000091AA14200D80C460E49E2B21A70633154
:107400000CE0072801D30725A3E70721091AA142A9
:1074100000D80C460649E2B21A70C91F0918604626
:10742000FDF7DEF895E70000272A0000DDD5FFFF15
:1074300073C1FF1F00C0FF1F064801694907FCD543
:1074400000218160034A0421803A117001694907D3
:10745000FCD5704780000811064801694907FCD532
:1074600000218160034A0621803A117001694907B1
:10747000FCD5704780000811F8B5414A0446D06831
:10748000808DC00764D03F48406A3F4D8104890C1D
:10749000A94202D96842081800E0681AC82819D31E
:1074A0002B2601233601DB02B04207D2C80041027D
:1074B0008601891BC6008919081A09E0C800410223
:1074C0008601891B4601891BC600891B40000818DC
:1074D000C018010B2C482D4BC430814200D91968CB
:1074E00019607D26906AF600B0420AD2284EFF2726
:1074F0008E198A37BE4200D3116A401C196090620F
:1075000009E0106A060A37188F4203D3861B8E42A1
:1075100000D808461860106AC100091A18680918CE
:10752000C9081162C108A8420AD9194AC43A801888
:107530006043C00801E0401A641E8842FBD807E09F
:10754000281A6043C00801E0401A641C8842FBD836
:107550000C48062200231146243804F0EDFA204698
:10756000FDF742FA01F0D2FD01F05CFD0020FDF7CD
:1075700045F90120FDF73EFA0120FDF741FAF8BD7B
:10758000F8C5FF1F40F00040420F00003412FF1FFB
:1075900082F1FFFF03460002012100B5000A490302
:1075A00088421BD3FFF7FAFD0028FBD1FFF754FFF9
:1075B0000B490020886019021804090E0843FF21B6
:1075C00009020B4018430649000280392030086048
:1075D000FFF7E4FD0028FBD1FFF72EFF00BD000000
:1075E0008000081110B5054CE069002803D0FDF7B4
:1075F00051F80020E0610A20E07210BDB4C2FF1F04
:1076000070B50025094E2C460E20604380190622D5
:10761000FF21FCF7F7FF002801D16D1CEDB2641CBF
:10762000E4B20A2CF0D3284670BD0000A4C6FF1FA8
:1076300010B50024204600F007F8641CE4B20A2CC0
:1076400001D20028F6D010BDF0B5374C0546E07ADF
:107650008FB0854209D10121207BFDF7D7F90221A6
:10766000207BFDF7D3F9FFF7BDFF2C4606204443EE
:1076700026462036F0B207AA0E2103F0C1FA0028F0
:1076800006D10622FF2107A8FCF7BCFF002802D084
:1076900000200FB0F0BD0E22FF2107A8FCF7A6FFC7
:1076A0001C22FF216846FCF7A1FF1022FF210BA836
:1076B000FCF79CFFF0B207AA0E2103F0C9FA0746B7
:1076C00020462130C0B26A461C2103F0C1FA0646AA
:1076D000204622303E43C0B26A461C2103F0B8FA6D
:1076E0000746204623303743C0B26A46102103F0D4
:1076F000AFFA0646204624303E43C0B26A46102107
:1077000003F0A6FA074625343743E0B26A4604215F
:1077100003F09EFA044670353C43E8B20BAA1021F0
:1077200003F096FA2043B4E7B4C2FF1F70B50A4DC8
:10773000064600240E206043401906223146FCF71D
:1077400079FF002801D0204670BD641CE4B20A2CE9
:10775000F0D30A2070BD0000A4C6FF1F7FB50D4600
:107760000A280CD2002D0AD0062148432030C0B28E
:107770006A460E2103F044FA040003D007E0022019
:1077800004B070BD062269462846FCF729FF204652
:10779000F6E700218A00835A491CDB438352121802
:1077A0009378C9B2DB4393700429F3D37047000088
:1077B00070B5144E00240E20604385192046062122
:1077C00048432030C0B22A460E2103F019FA00289F
:1077D0000BD028460622FF21FCF708FFA81D062231
:1077E000FF21FCF703FF0020A881641CE4B20A2CEF
:1077F000E1D30548407A002801D000F007F800F0F6
:107800001FF870BDA4C6FF1FB4C2FF1F70B5FDF7FF
:1078100003F90A4E00240E20604380190546062213
:10782000FF21FCF7EFFE002802D12946FDF7FAF808
:10783000641CE4B20A2CEED370BD0000A4C6FF1F86
:1078400008B5FFF7DDFE012801D9022000E00A207B
:10785000694608706A4601210520FEF769FA08BDED
:10786000F8B5074600200090784CB9780546072601
:107870006079A2790B00FCF7E9FE0805DD1A3636BF
:107880005E98C1DD787800285AD170480622F91C2C
:107890003C30FCF7A5FE0120A0716C4B0146423341
:1078A00062786079FCF720FF002849D1C5E079783B
:1078B000002945D1F978002906D0654BA27800212E
:1078C000FCF712FF78700AE0022A0BD00121FCF7C6
:1078D00011FF002803D101216079FCF7FFFE7878C1
:1078E00000282DD1F8BD7B78002B29D1032909D0A0
:1078F000A289002A0CD0217800290AD00121FCF7A6
:10790000DBFE06E0052A01D0022012E0062010E08E
:107910002570A079062802D0042802D008E00520AE
:1079200007E00120207001466079FCF7D7FE84E073
:107930000320A07181E07878002803D0312832D06C
:10794000A6717AE041480622391D3630FCF748FE20
:107950007889E081B8892082F88960820520A07149
:10796000A28A002A03D002216079FCF7A5FEB8891B
:10797000E083F8892084388A6084E07801280AD17D
:107980001F20FCF775FE7D21C900484302460421F3
:107990006079FCF791FE7A89F8780423391DFDF7A8
:1079A000BBFA257049E02570C2E72848062200216D
:1079B0003630FCF71BFEE58325846584042160795D
:1079C000FCF780FE08216079FCF77CFEB879082876
:1079D00008D00320A0712078002805D06079FCF73A
:1079E00077FE07E00420F5E701202070014660796A
:1079F000FCF774FE0020C043E0811EE00821FCF784
:107A000061FE7878002800D06CE7F888E083388938
:107A100020847889608404216079FCF76BFE00285B
:107A2000F2D1A06A0028EFD00368628C218CE08B31
:107A30009847F8BD00980028FBD0606A0028F8D06D
:107A400001680029F5D0A0798847F8BD5CC3FF1F05
:107A500050C7FF1F10B501781C4C912906D0A229F0
:107A60001BD0D02901D1FFF7FBFE10BD41780E29B4
:107A7000FBD1828816498A42F7D1816803200856D3
:107A8000A1790529F1D17F28EFD0616A0029ECD0D6
:107A900049680029E9D0884710BD41791329FBD1F5
:107AA0000089012802D12079022808D00520FCF79E
:107AB000DFFD024608216079FCF7FEFD10BD0821BC
:107AC0006079FCF7FFFDFDF743FE10BD5CC3FF1FAF
:107AD000051400007CB5144C0546E08BE18A884211
:107AE0000AD3218B884207D8208C618B884203D12E
:107AF000608CA18B884216D00520FCF7B9FD0646A4
:107B0000E08A69460880208B4880608B8880A08B43
:107B1000C8806279E089FCF78BFF25713246082125
:107B20006079FCF7C9FD7CBD5CC3FF1F10B500F098
:107B300025F8002800D0806810BD00229300CB5AA1
:107B4000834202D1900040187047521CD2B2022AE0
:107B5000F4D3002070470000074A0021CB00D35A1D
:107B6000834202D1C80080187047491C0906090EDB
:107B7000F4D0002070470000C8C3FF1F06494968C1
:107B800005E08A88824201D1886870470968002927
:107B9000F7D1002070470000C0C3FF1FF8B50746AB
:107BA000012906D0022924D10121FCF747FF002832
:107BB0001FD13846FFF7D0FF050015D000240D4E29
:107BC0000CE018206968604308180188002908D073
:107BD00018220021FCF70AFD641CE4B2707884428C
:107BE000EFD30020C0432880024938461031FDF70A
:107BF00027FEF8BDC0C3FF1FF3B5074683B00830AA
:107C0000029000267888FFF7A7FF019000282FD068
:107C1000002523E001984168182068430C1821884A
:107C200000291FD00298007801280ED160880090AA
:107C300023797888621DFEF733F8060005D0029993
:107C40000020087004982188018018220021204615
:107C5000FCF7CCFC00206D1C2080EDB2074840787A
:107C60008542D7D30021C9430198002E018002D15B
:107C70007888FCF7E9FE304605B0F0BDC0C3FF1FB1
:107C8000F3B50546334C074685B00835162200216A
:107C90002046FCF7ABFC03A800902B796988288864
:107CA0006A1DFCF7D7FE064640E02B481022002153
:107CB0006B4607C3274B69468A897888163B31464D
:107CC000FDF764FE002812D12348E979C01EC2786E
:107CD00091420CD11F49284616390830FCF7AAFCFE
:107CE000002804D0217870898900091948806846E5
:107CF0008289698804AB3046FCF73EFD2178064650
:107D0000880000194288002A10D0002E05D06A464B
:107D1000128A491C217082800AE00A060020920D16
:107D2000C0431219491C2170908004E0002E02D03B
:107D300020780528B9D32078002806D078882146F5
:107D4000FCF78EFE002007B0F0BD06982988018060
:107D50000A20F8E786C9FF1FC3C3FF1FF0B585B02F
:107D6000044600256846858120790E2875D00EDCF2
:107D7000082821D004DC022812D0062867D116E09A
:107D8000264608360A281DD00C2860D134E0102879
:107D900068D012286BD016286ED0182857D170E002
:107DA0003A49172008806088FCF760FE4FE003A97D
:107DB0002046FFF765FF03E003A9204600F04EF9D7
:107DC000054635E0308804A9FCF7D0FC010011D04D
:107DD0002E4F16200097019502906A4660887B1C02
:107DE000128AFDF7D3FD05001AD160883946FCF7E9
:107DF00043FE1DE0012513E0308804A9FCF7B6FC22
:107E00000100F7D07288214F16200192009702904E
:107E10006A466088128A7B1CFDF7B8FD050003D016
:107E200030886946888103E060883946FCF72AFE7D
:107E3000002D0CD06078142809D0144920790870DE
:107E40006846808948800D716088FCF721FE2046D5
:107E5000FCF724FE05B0F0BDFFE703A9204600F0C3
:107E60007DF9ADE703A9204600F064F8A8E703A96F
:107E7000204600F0C7F9A3E703A9204600F008F860
:107E80009EE703A92046FFF7B7FE99E786C9FF1FC3
:107E9000F8B504460F460546083400896946FCF7E4
:107EA00065FC06003DD0307A80060ED56846008815
:107EB000FFF73CFE030006D068881222314698473F
:107EC000061E02D02EE00E262CE06E883046FFF70C
:107ED00043FE010005D11548FFF73EFE01000ED01C
:107EE0000E80134A0020567807E018234A6843435F
:107EF000D25A002A07D0401CC0B2B042F5D309269E
:107F0000002E09D00EE04968182250430818214677
:107F1000FCF766FB0026F3E768882146FCF7C4FD02
:107F200002E00126208838803046F8BDFFFF0000BF
:107F3000C0C3FF1FF3B587B0079A04A808320392A5
:107F400000900026137951881088424C3746521D04
:107F5000FCF780FD054662E00798297A4088FCF727
:107F6000A9FD070003D008986989018059E03A48C3
:107F7000112200216B4607C30798364B69460A8ACF
:107F80004088163B2946FDF701FD0700EBD1002E86
:107F900028D031486178C01EC078021D914242D17C
:107FA000301811283FD8A119A87A8870761CF0B231
:107FB00069892218090A401C9170C6B2039805AB62
:107FC00041886846028A2846FCF7D6FB05000FD098
:107FD0006946888AA11988706946761C898AF0B238
:107FE000090A0AE01C48C01EC078001D6070DAE76C
:107FF000FF21A0198170761CF0B2221891701649E9
:10800000401CC91ECA78C6B21249A0191639801C74
:10801000FCF7E6FA1048C01EC0783018C6B2002D32
:108020009AD1002E0CD061783046FCF73BFC2070D2
:10803000079821464088FCF743FD002009B0F0BDB9
:10804000002F00D10A27039801880898018038463C
:10805000F4E7000086C9FF1FC3C3FF1FF3B585B057
:1080600005983B4D0830039007880024019404A82C
:108070000090039803794188421D3846FCF7EAFCDA
:1080800006004CD005987789317A4088FCF712FDBC
:108090000190002843D12F48132200216B4607C3CB
:1080A00005982B4B69460A8A4088163B3146FDF7F6
:1080B0006DFC0190002832D1002C2AD02548697827
:1080C000C01EC078801C81422BD12249C91EC878AD
:1080D0002018132823D82A19B07A9070641CE0B2B3
:1080E00072892B18120A9A70401C0C46CA78C6B2C4
:1080F0001749A8191639801CFCF772FAE078301875
:10810000C4B2154887420AD07F1CBFB2132CAED927
:1081100007E01048C01EC078801C6870D5E7002CAE
:108120000CD069782046FCF7BDFB287005982946DD
:108130004088FCF7CBFC002007B0F0BD0198002878
:1081400001D10A200190069807800198F4E7000009
:1081500086C9FF1FC3C3FF1FFFFF0000F3B585B033
:108160000027264C059E27703D46083638E06800FB
:10817000305A03A9FCF7FAFA010013D0204816235D
:1081800000226F460DC705981C4B6A464088163B77
:108190009289FDF7FBFB070006D06800315A06986C
:1081A000018028E00127F8E715492078C91ECA7820
:1081B0008218162A02D91622101AC870227810497D
:1081C000601C1018C91ECA780C491639FCF708FA49
:1081D0000B482178C01EC07808186D1C2070EDB2C5
:1081E000B07DA84202D920781628C0D30598214630
:1081F0004088FCF771FC384607B0F0BD86C9FF1F08
:10820000C3C3FF1FFEB504460F4606460834008967
:1082100001A9FCF7ABFA050022D0287A80060ED51A
:1082200068468088FFF782FC030006D0708812221F
:1082300029469847050002D013E00E2511E00020E2
:108240000090A37821887088E21CFDF729FD0500C5
:1082500007D1207E002809D17088FCF743FC02E09A
:10826000012520883880207E002801D00020FEBD16
:108270002846FEBDF8B50446024618204243194878
:1082800000250646457008367068002807D0002093
:10829000C1008919401C00064D60000EF8D0124F35
:1082A00000213846FCF7A2F9002318466043C0B20B
:1082B00018214843C1190B48DA00083016187160BC
:1082C000002105E018224A437068491C8552C9B252
:1082D000A142F7D35B1C1B061B0EE6D0014844707D
:1082E0000020F8BDC0C3FF1F90C7FF1F7CB50C78EE
:1082F000069D022C0ED14C6826786478240234192D
:10830000054EA4B2F44205D1022400950194FDF774
:10831000AFFA7CBD01207CBDFED6FFFF0848816C12
:10832000491C8164C16CC26C0902C90F5203D20F8F
:108330005140C26C5202120A5118C164C06C70479D
:10834000F8C5FF1FF8B5069800271D4614460E46CF
:10835000002801D00B20F8BD30780021022801D080
:1083600019704DE0706802784078000210181522EC
:1083700080B25202801A0300FCF768F90504121F4C
:108380001A254100F068FCF703FAC2B2079882424E
:1083900000D902462A70F1682046FCF721F930E046
:1083A000F0680221008829702070000A607028E0BF
:1083B000062028700246F168EEE701202870F06878
:1083C000007820701DE0F068002816D00821297080
:1083D000017821700188090A61708178A170418853
:1083E000090AE170017921718188090A6171817935
:1083F000A171C088000AE07103E0297001E02970D2
:1084000001273846F8BD10B50B78840702D5022441
:10841000234301E0FD2423400B7003070B7802D5B2
:108420000824234301E0F72423400B7083060B78D4
:1084300002D52024234301E0DF2423400B700A21CE
:10844000084201D1810603D510780C21084304E0CD
:10845000002803D11078F3210840107010BD0000EF
:10846000FFB581B0087800240A9E1F460D460228F9
:108470000FD168680178407800020818152180B291
:108480004902401A09D0012829D0022848D00328DF
:108490003CD00124204605B0F0BDE868FCF778F92F
:1084A000C0B2864205D8F0190090152803D90D24D2
:1084B000F0E70724EEE7E8683A4680190399FCF7ED
:1084C0008FF80098EA6880B2002111541C48406877
:1084D0000028DFD001680029DCD0002012E0002E47
:1084E00012D1022BE3D10399E8680A78497809028E
:1084F00051180180124840680028CBD0016800293B
:10850000C8D001208847C5E70B24C3E7002EFBD164
:10851000062BCCD10622E8680399FCF761F8B9E78D
:10852000002EF1D1012BC2D103980078002803D08E
:10853000012801D08024ADE7E9680870AAE70000AF
:10854000D8C2FF1F10B5122801D3052010BD0B4B58
:108550009C6B01228240104620439863586B9043E5
:108560005863D86B002906D09043D863186B024338
:108570001A63002010BD1043F7E7000000800040A0
:1085800010B5134C2079012804D0032801D101F043
:10859000E9F810BD0E2000F097FB002810D0212034
:1085A00000F0CEFD02202071FCF7A2FA2060A16845
:1085B0000029EED00120884706A002F0C5FB10BDBF
:1085C0000E2000F081FB0028F9D1207110BD0000C1
:1085D000A0C9FF1F7072657373000000084B042868
:1085E00007D2012207E0104300E0904358610020C9
:1085F000704701221238824058690029F5D0F2E70D
:108600000038004070B50F4E0024351968780228F4
:1086100006D9E0B200F058FB0146E0B200F070FB72
:10862000232C0ADA6878022807D9E0B200F04CFB64
:108630000C216143891920314871641C232CE4DB2F
:1086400070BD000024CAFF1F70B502211020FEF784
:108650002DFA1020FEF7FCF9114E00240C20604387
:10866000801920300079002813D0E0B200F0B4FB6C
:10867000E5B2284600F028FB00280ED000210C228D
:108680006A43921920325279824202D0284600F081
:108690003DF8641C232CE1DB70BD0121EFE70000F5
:1086A00024CAFF1FF3B5184E81B00F4600240120E5
:1086B0000199A040084222D0384201D1012500E0B2
:1086C0000025E0B2294600F021F80C206043801913
:1086D0004168806800290DD0002806D0002D02D006
:1086E0000021E0B203E00121FBE7E0B20021FFF747
:1086F00029FF04E0002802D0E0B20121F7E7641C62
:10870000122CD4DBFEBD000048CAFF1F074A0C2311
:1087100043439B185A68002A01D0002904D09A6864
:10872000002A02D0012900D11047704748CAFF1F14
:10873000F0B5204E95B0706B400A40027063002483
:1087400004ADF06B0127A7403840800522D00020FF
:10875000E30181005A1818495118C96842000905F7
:10876000090D401CA9521D28F3DBB16B01203943D0
:10877000B16312490A78002A0CD0A2005118496846
:10878000002907D000906A4614711D2002951073CD
:1087900068468847641C082CD3DB084840780028CA
:1087A00001D100F0EBF8706B05490843706315B018
:1087B000F0BD0000000005400004054084CCFF1F10
:1087C000FF01000010B50448C16B034A4032106835
:1087D000D060FFF767FF10BD0080004010B50E4865
:1087E00080680007000F062807D007DC02280BD09E
:1087F000042802D1012000F04FFF10BD072806D049
:108800000C28FAD10220F6E700F06EFF10BD0248F6
:108810004030C06B10BD000000400040F7B504467A
:1088200038480078002805D037480178002903D05F
:108830001120FEBD1220FEBD002A0BD0082C0BD04B
:10884000002C09D069464D79012C07D0002D05D0A8
:10885000E10703D00620FEBD0520FEBD8570A10006
:10886000081842601120FEF7F5FC2848C16B402231
:108870001143C16325484030016812031143016070
:1088800041688022114341604168920391434160F5
:108890004168421411434160C16B10221143C1630E
:1088A000684681792A46204602F0CAFF174E2046C4
:1088B0004836002D13D002F0A1FF082200231146F4
:1088C000304603F039F90B2200231146304603F0FD
:1088D00033F9204602F086FF641CE0B20EE002F09D
:1088E0008DFFE00703D001230B22114602E0012394
:1088F00008221146304603F01FF9204602F072FFAD
:108900000020FEBDEEC5FF1F84CCFF1F00F000401D
:1089100010B5054901200870044A0021112000F01B
:10892000D3FBFEF785FC10BDEEC5FF1F396DFF1FA1
:1089300010B50C480078002812D00B4901200870AF
:10894000112000F097FB09488168082211438160DB
:108950000749C0050860084906484863002010BD63
:10896000122010BDEEC5FF1F84CCFF1F40F0004059
:1089700000E100E0FF01000000000540F8B51D48DF
:108980000078002834D01D491B48486301201C4949
:10899000400708601B488168082291438160416854
:1089A000421491434160184E184F0024A0008019D2
:1089B000406800280FD0E0B23D5CFF2D0BD00021B5
:1089C000284600F0BFF80021284600F035F90021C4
:1089D000284600F05DF9641C092CE7DB1120FEF746
:1089E0002FFCFEF725FC112000F0AAFB0020F8BDAB
:1089F0001220F8BDEEC5FF1FFF010000000005407A
:108A000080E100E040F0004084CCFF1F0CC1FF1F5C
:108A1000FFB581B00024164620460A9D06E04200BC
:108A20008A5A1205120D1419401CC0B2B042F6D376
:108A3000394F787800280DD10120787037480168C7
:108A40000905090DB98000680001020D7A8034A083
:108A500002F07AF93046FBF77AFC06462046FBF72F
:108A60006BFC3146FBF708FC00907C883048844260
:108A700038D0BE88864235D0A01BFBF76FFC0022A1
:108A8000D243FBF743FCFBF791FC07460198C00774
:108A90001AD0002D0FD0A019FBF759FC0446452130
:108AA00009060098FBF7A3FB3946FBF7A0FB012161
:108AB000FBF720FC12E0A019FBF749FC04463946FD
:108AC0000098FBF743FB09E0002DE4D1A019FBF768
:108AD0003EFC044639460098FBF789FB2146FBF72C
:108AE000CBFB10E0002D09D00A21C9430098FBF709
:108AF00001FC7F21C905FBF77AFB04E00B21C94388
:108B00000098FBF7F7FB0499002902D10221FBF73B
:108B1000F1FB05B0F0BD0000EEC5FF1F0010001115
:108B200041445F43414C5B25782025785D0A000075
:108B3000FF0F000003E00B780370401C491C521E1D
:108B4000F9D2704770B5034601220B3B14469C4096
:108B50000B4D00290ED0C106C90E8A40410989007B
:108B60004919CB6B9343CB63002100F091F828683F
:108B7000204301E02868A0432860002070BD000069
:108B800000380040C306DB0E01229A40064B400924
:108B90008000C0180029C16801D0114300E0914352
:108BA000C1600020704700000038004030B50D461D
:108BB00004460121FFF7E6FFA108074889000A18CB
:108BC0009169A007C00EFF23834099438540294344
:108BD0009161002030BD00000038004010B5114CFC
:108BE0002078002801D0072010BDFF21C9310D4891
:108BF000FBF797FA012020700B49002008634863B7
:108C00000A490862486202211020FDF74FFF102038
:108C1000FDF71EFF064A07490D2000F055FA002017
:108C200010BD000024CAFF1F0080004080F00040FB
:108C30004986FF1F0586FF1F30B50D4604460428F0
:108C400003D320461F38032803D801212046FFF70D
:108C5000C5FC00212046FFF795FF01200B49122C8F
:108C600008D2A0404A68002D01D0024300E08243B0
:108C70004A6008E0123CA0400A69002D01D002437E
:108C800000E082430A61002030BD00000080004007
:108C900070B50C460A21FBF705FE4A008A1801212F
:108CA0000B46521C9340551CA9400B43D9438300EB
:108CB0000448181883680B4021469140194381608D
:108CC000002070BD00F000400C4A0C4B0121403ADE
:108CD000122807D281405068084201D0106809E08C
:108CE000186907E0123881401069084201D0D06845
:108CF00000E05869084000D00120704740800040E3
:108D0000F8B50E4605460A21FBF7CCFD48000918C8
:108D1000EA060124D20E204690406A0993000B4ACD
:108D20009A18136A034313628C40084F2846803F09
:108D30000A21FBF7B7FD8000C0198168002E01D021
:108D4000214300E0A14381600020F8BD80F0004095
:108D500030B50D4604460121FFF76EFF01220B4896
:108D6000122C08D2A2400168002D01D0114300E06E
:108D70009143016008E0123CA240C168002D01D07F
:108D8000114300E09143C160002030BD00800040ED
:108D900030B504460E48112C01D9052030BD0C21F8
:108DA0000025614345540A48294624380019457076
:108DB0002046FFF741FF0749886B4A6B0120A0401E
:108DC0000346104348630A6B9A430A63284630BD42
:108DD00048CAFF1F0080004070B5054618480C22A5
:108DE0006A43141861680126002902D1A16800298C
:108DF00006D0134924394919122D03D3032302E065
:108E0000122070BD04234B7001218154002128469B
:108E1000FFF712FF6068002810D0A06800280CD06F
:108E20002846FFF751FF002801D0012100E0002172
:108E30002846FFF787FB002070BD00263146F7E784
:108E400048CAFF1FF8B516460D460446084FFFF7FF
:108E50009FFF0C206043C3199E6020465D60FFF7B2
:108E6000BBFF050002D02046FFF792FF2846F8BD61
:108E700048CAFF1F0C2148430449002310B540187D
:108E80001A46194602F058FE10BD000004E00040EA
:108E900070B50C21484318490023441805461A466A
:108EA0001946204602F048FE1022204600231146B3
:108EB00002F042FE204600230C220E2102F03CFE6E
:108EC000082220460023114602F036FE04222046E6
:108ED0000023114602F030FE07480023001D281829
:108EE00004461A460F2102F027FE204600231022D6
:108EF0001F2102F021FE70BD04E00040F8B50446D9
:108F00001F4615460E461220FEF7A4F90C204443D6
:108F10001248002324181A461946204602F00CFE77
:108F2000204633460C220E2102F006FE082220467F
:108F30002B46114602F000FE042220463B46114615
:108F400002F0FAFD1F2220460123114602F0F4FD33
:108F500000221146122000F0B7F8F8BD04E00040EE
:108F600010B504460A460A30C1B21046FFF71EFE8D
:108F70000C2044430348002220180123114602F02C
:108F8000DBFD10BD04E0004070B515460C225043D7
:108F9000074A0B468018044610221F2102F0CCFD20
:108FA00020462B4600220F2102F0C6FD70BD0000B6
:108FB00008E0004010B5122000F05CF80448016899
:108FC000012211430160016810221143016010BDAC
:108FD00000E0004010B5122000F0B2F8044801682B
:108FE000012211430160016810221143016010BD8C
:108FF00000E000400449420903D0002048600620F8
:109000007047486000207047E4C5FF1F10B500237B
:1090100011221521024802F08FFD002010BD000032
:109020001CF0004010B50448112243681521034884
:1090300002F082FD002010BDE4C5FF1F1CF00040BF
:1090400010B578210948FBF76CF809480078012829
:1090500005D0022806D0032806D0042804D1FBF747
:109060004DFD01E0FBF750FD002010BDACC9FF1F16
:10907000E4C5FF1F10B512490446097812200129E2
:1090800014D0042912D072B600210E4B0C224A4390
:109090009A5C002A11D0A2420CD10C22514301202B
:1090A000C9184870FBF72AFD002006E0FBF726FDF3
:1090B000002010BD491C0A29E8DB62B610BD000083
:1090C000E4C5FF1FACC9FF1F70B500240E4E234638
:1090D0000C255D43755D854201D1072070BD002DD3
:1090E0000BD05B1C0A2BF3DB002C0AD0002363702F
:1090F0002070A2601846616070BD0C2463439C1907
:10910000F2E7032070BD0000ACC9FF1F70B5FFF788
:1091100089FF0A4D002420460C214843295C002980
:1091200009D040194068002800D08047641C0A2CF0
:10913000F1DB002070BD122070BD0000ACC9FF1F24
:1091400070B515490022097801290FD004290DD0E6
:1091500072B60021114D0E460C234B43EC5C002CE3
:109160000FD0844205D15B195E7007E0FBF7C6FCA7
:109170000CE05B195B78002B00D0521C491C0A29BB
:10918000EADB002A04D0FBF7B9FC62B6002070BD10
:10919000FBF7BAFCF9E70000E4C5FF1FACC9FF1FED
:1091A00070B50A4D002420460C214843295C002953
:1091B00009D040198068002800D08047641C0A2C20
:1091C000F1DB002070BD122070BD0000ACC9FF1F94
:1091D00010B516490A200870154901200870154974
:1091E0000020087000F030F813480421C1611349D1
:1091F0008160C16001611249416101210A20FFF7CC
:1092000047FD0D480D230F221221143002F094FC6B
:1092100000210420FDF728FC01210220FDF724FC99
:10922000084A00212020FFF74FFF10BD53C6FF1F43
:1092300054C6FF1F55C6FF1F00F00040B66DDB3659
:10924000B6EDC3B0D1B7FF1F70B515480022C06896
:109250000424866B1025134813493300FBF7F6F9F5
:10926000070808050C0E1308050005600C600DE0EA
:1092700020220260052004E0302305E04022026045
:109280000620086002E0602303600A60FBF742FCEE
:10929000FBF746FC02F058F902F034F870BD00000C
:1092A000F8C5FF1F2010FF1F2410FF1FF8B51F4E29
:1092B0001E4F08361E4C1125012820D000281DD134
:1092C00000211020FFF7E4FC00211120FFF7E0FC53
:1092D000032308220921304602F02EFC0622002337
:1092E0001146304602F028FC16231B221F21384667
:1092F00002F022FC2068C16AA943C162F8BD0523BF
:109300001B221F21384602F017FC0A4B07221021AE
:10931000304602F011FC062201231146304602F0CD
:109320000BFC2068C16A2943E7E7000014F0004005
:1093300004C6FF1FFB030000F8B5FF212D312B4EA3
:109340002B4C00281AD001232A4A9B04022817D04C
:109350008025012819D016681E43166053680646FA
:109360000B360127B7403B43536053682B43536090
:1093700003281AD0042833D01F4A17E0266016E0CD
:1093800015681D4315601D4A10E017681F431760DC
:10939000536801277F05BB43536053683F123B432B
:1093A000536053682B435360E8E7154A2260491E17
:1093B0000904090CFBD103460E4800220321001FBB
:1093C00002F0BAFB01208007C1690E4D890709D55B
:1093D00080690005010E491C2068FBF763FA02E072
:1093E000094AE3E720682860F8BD00000048E8016A
:1093F0001010FF1F40F0004000D8B8050024F40012
:10940000006CDC021410FF1F0090D0031FB5124C3B
:109410002078002802D0112004B010BD20210E4871
:10942000FAF77FFE6846407A002803D16846C07A82
:10943000002801D00520EFE768460FC810340FC49C
:109440000120203C207002F041FC044A0021082049
:10945000FFF73AFE0020DFE7ECCBFF1FCDBCFF1F7C
:1094600010B5054A927E002A02D002F0EFFB10BD33
:1094700002F0B8FB10BD0000ECCBFF1F6D46294683
:1094800006A001F061FC0024A000295809A001F009
:109490005BFC641C102CF7DBFEE700004861726483
:1094A000204661756C742053502069732025780A1A
:1094B00000000000307825782C000000F8B55249F3
:1094C000504A534B5148CA60D8610020034684007B
:1094D000401C1351FF28FADDC8684E4A0446803408
:1094E000A2600622C2620A2202654B4A1578856391
:1094F0004A4DC56115781426022D03D01578032D29
:1095000003D003E01025056200E00662444D45618A
:10951000444D85613C25E5603625C56334274764A5
:10952000082505643927676032272760AF24E400E7
:1095300004601478022C03D01278032A02D003E0CE
:10954000466001E00B224260C824FF22C4602D3235
:109550008260A4000461344C84647D26F600466277
:10956000324CC464324E8662022646668266092602
:10957000C666304E066745678267B210C2674C61A7
:109580008B70CB80CB700B812C482B491F4A81609C
:109590002B49803A294B11612A49803399622A4923
:1095A000C1622A49016325482949C03841632949D4
:1095B00001602249284A8039CA62284A0A60284A3A
:1095C000C2601E4A274C403A9463274C1463274CD0
:1095D0005463274C4C61274C8C61274C0C62274C00
:1095E000DC61274C1C62274BD363274ACA61274999
:1095F00081622749C16227498163FDF7AFFDFDF70D
:10960000BDFDF8BD000CFF1FF8C5FF1F000CFF1FBC
:109610000010FF1FD8D0FF1F56C6FF1F7E0400009A
:1096200060E31600DC05000050C30000540B00008E
:109630006A180000204E000035A7FF1F0009FF1F19
:109640005160FF1F05B3FF1F095FFF1FB95DFF1FBB
:10965000C59BFF1F4166FF1FB59EFF1F3198FF1F6F
:109660009568FF1F65BDFF1FB1AAFF1F7974FF1F1B
:1096700021A8FF1FD968FF1F2DA3FF1F0DBFFF1FCC
:109680001171FF1FA572FF1F499EFF1F81A4FF1FBD
:109690003DA1FF1F9D99FF1F70B5114C88B0217E21
:1096A000104B03AD00290BD00E4980314968CAB276
:1096B000002102E01E786E54491C9142FADB04E05E
:1096C000197D012219786B461973E169002905D0CB
