:020000041FFFDC
:1008000000000000BD81FF1F7492FF1F7C92FF1F3C
:10081000180001200000000000000000000000009F
:1008200000000000000000000000000000000000C8
:1008300000000000000000000000000000000000B8
:1008400000000000000000000000000000000000A8
:100850000000000000000000000000000000000098
:100860000000000000000000000000000000000088
:100870000000000000000000000000000000000078
:100880000000000000000000000000000000000068
:100890000000000000000000000000000000000058
:1008A0000000000000000000000000000000000048
:1008B0000000000000000000000000000000000038
:1008C0000000000000000000000000000000000028
:1008D0000000000000000000000000000000000018
:1008E0000000000000000000000000000000000008
:1008F00000000000000000000000000000000000F8
:1009000000000000000000000000000000000000E7
:1009100000000000000000000000000000000000D7
:1009200000000000000000000000000000000000C7
:1009300000000000000000000000000000000000B7
:1009400000000000000000000000000000000000A7
:100950000000000000000000000000000000000097
:100960000000000000000000000000000000000087
:100970000000000000000000000000000000000077
:100980000000000000000000000000000000000067
:100990005565FF1F1966FF1F958AFF1F00000000A5
:1009A0000000000000000000000000000000000047
:1009B0000000000000000000000000000000000037
:1009C0000000000000000000000000000000000027
:1009D0000000000000000000000000000000000017
:1009E0000000000000000000000000000000000007
:1009F00000000000000000000000000000000000F7
:100A000000000000000000000000000000000000E6
:100A100000000000000000000000000000000000D6
:100A200000000000000000000000000000000000C6
:100A300000000000000000000000000000000000B6
:100A400000000000000000000000000000000000A6
:100A50000000000000000000000000000000000096
:100A60000000000000000000000000000000000086
:100A70000000000000000000000000000000000076
:100A80000000000000000000000000000000000066
:100A90000000000000000000000000000000000056
:100AA0000000000000000000000000000000000046
:100AB0000000000000000000000000000000000036
:100AC0000000000000000000000000000000000026
:100AD0000000000000000000000000000000000016
:100AE0000000000000000000000000000000000006
:100AF00000000000000000000000000000000000F6
:100B000000000000000000000000000000000000E5
:100B100000000000000000000000000000000000D5
:100B200000000000000000000000000000000000C5
:100B300000000000000000000000000000000000B5
:100B400000000000000000000000000000000000A5
:100B50000000000000000000000000000000000095
:100B60000000000000000000000000000000000085
:100B70009168FF1F0000000000000000000000005E
:100B80000000000000000000AD56FF1F0000000044
:100B900000000000655DFF1F000000000000000075
:100BA0000000000000000000000000000D5EFF1FBC
:100BB0000000000000000000000000000000000035
:100BC000495DFF1F00000000000000000000000061
:100BD0000000000000000000000000000000000015
:100BE0000000000000000000000000000000000005
:100BF00000000000000000000000000000000000F5
:0C0C000001FF01FF01FF01FF9100000057
:020000041FFFDC
:1040000020080120D540FF1FDD40FF1FDF40FF1FBC
:1040100000000000000000000000000000000000A0
:10402000000000000000000000000000E140FF1F51
:104030000000000000000000E340FF1FE540FF1FFC
:104040000000000000000000000000000000000070
:104050000000000000000000000000000000000060
:104060000000000000000000000000000000000050
:104070000000000000000000000000000000000040
:104080000000000000000000000000000000000030
:104090000000000000000000000000000000000020
:1040A0000000000000000000000000000000000010
:1040B0000000000000000000000000000000000000
:1040C0000348854600F042F800480047797FFF1F0B
:1040D000200801200448804704480047FEE7FEE727
:1040E000FEE7FEE7FEE7FEE79D56FF1FC140FF1F0C
:1040F00003460B439B0703D009E008C9121F08C001
:10410000042AFAD203E00B780370401C491C521EAB
:10411000F9D27047D2B201E00270401C491EFBD2B6
:1041200070470022F6E710B513460A4604461946C2
:10413000FFF7F0FF204610BD0321001D401E03784D
:1041400012021A43491EF9D510467047064C012544
:10415000064E05E0E36807CC2B430C3C984710342F
:10416000B442F7D3FFF7B0FF8092FF1FC092FF1F4A
:1041700030B58C180278401C13071B0F01D103784F
:10418000401C120906D10278401C03E005780D702E
:10419000401C491C5B1EF9D101E00B70491C521EEA
:1041A000FBD1A142E6D3002030BD000003B401489A
:1041B000019001BDD541000003B40148019001BD4B
:1041C0002141000003B40148019001BDE9FB00005A
:1041D00003B40148019001BD55DD000003B401485E
:1041E000019001BD89DF000003B40148019001BDC9
:1041F00075E0000003B40148019001BDE1DE00005C
:1042000003B40148019001BD35E1000003B4014849
:10421000019001BD29E4000003B40148019001BDF3
:1042200069E5000003B40148019001BD91E0000080
:1042300003B40148019001BDE1E2000003B401486C
:10424000019001BDF1E2000003B40148019001BDFD
:10425000CDE6000003B40148019001BD0FF4000059
:1042600003B40148019001BD09E9000003B401480D
:10427000019001BDE1E7000003B40148019001BDD8
:10428000B5DF000003B40148019001BD61020000E8
:1042900003B40148019001BD6DDF000003B4014883
:1042A000019001BD85E0000003B40148019001BD0B
:1042B000D1E5000003B40148019001BDCDDF00004D
:1042C00003B40148019001BD1DE0000003B40148A2
:1042D000019001BDCDE0000003B40148019001BD93
:1042E00031E2000003B40148019001BD49E700003C
:1042F00003B40148019001BD1DDB000003B4014877
:10430000019001BD59F9000003B40148019001BDBD
:104310004D66000003B40148019001BD2DCF00009F
:1043200003B40148019001BDA90B010003B4014889
:10433000019001BD5D0B010003B40148019001BD76
:10434000690B010003B40148019001BD250E010075
:1043500003B40148019001BDF5E3000003B4014836
:10436000019001BD21E3000003B40148019001BDAB
:1043700015E3000003B40148019001BDC1E0000055
:1043800003B40148019001BD6DDD000003B4014894
:10439000019001BDF1DE000003B40148019001BDB0
:1043A0007574000003B40148019001BD85740000DC
:1043B00003B40148019001BD0959000003B401484C
:1043C000019001BD15F2000003B40148019001BD48
:1043D000FDF6000003B40148019001BDC5F90000DD
:1043E00003B40148019001BDDD74000003B401482D
:1043F000019001BD890D010003B40148019001BD88
:10440000D576000003B40148019001BDF1F9000028
:1044100003B40148019001BDCDF9000003B4014887
:10442000019001BD8D02000003B40148019001BD5F
:104430003975000003B40148019001BD8D7500007D
:1044400003B40148019001BD7D9E000003B4014802
:10445000019001BDF59E000003B40148019001BD2B
:10446000F94C000003B40148019001BDA53D0000D6
:1044700003B40148019001BD5D52000003B401483E
:10448000019001BD552B010003B40148019001BD0D
:10449000B1C2000003B40148019001BDF1F0000079
:1044A00003B40148019001BDC5C5000003B4014833
:1044B000019001BD0DC7000003B40148019001BD8A
:1044C0000BC5000003B40148019001BD3942000052
:1044D00003B40148019001BDF140000003B401485C
:1044E000019001BDC140000003B40148019001BD2D
:1044F0005D41000003B40148019001BD95C3000077
:1045000003B40148019001BD1DC3000003B401487C
:10451000019001BD6D45000003B40148019001BD4B
:10452000753C000003B40148019001BD7DCE000040
:1045300003B40148019001BD71D7000003B40148E4
:10454000019001BD99D7000003B40148019001BD5D
:10455000B943000003B40148019001BD3D4400008F
:1045600003B40148019001BDE1D5000003B4014846
:10457000019001BD7DD2000003B40148019001BD4E
:104580007D4E000003B40148019001BD95DA0000A2
:1045900003B40148019001BD4D4F000003B4014830
:1045A000019001BDE9CF000003B40148019001BDB5
:1045B0003DD8000003B40148019001BD89D400003A
:1045C00003B40148019001BD5DD6000003B4014869
:1045D000019001BD41F4000003B40148019001BD08
:1045E0003DC4000003B40148019001BDB551000075
:1045F00003B40148019001BD3D0D010003B4014821
:10460000019001BD55E5000003B40148019001BDD2
:10461000BD9E000003B40148019001BDF5C4000037
:1046200003B40148019001BD3D3F000003B40148BF
:10463000019001BD25C2000003B40148019001BDF5
:1046400017C4000003B40148019001BDF7C2000087
:1046500003B40148019001BD01C4000003B4014846
:10466000019001BDD938000003B40148019001BD9B
:10467000DBC2000003B40148019001BDE1C10000AC
:1046800003B40148019001BD41CF000003B40148CB
:10469000019001BD199F000003B40148019001BDC4
:1046A000C9C5000003B40148019001BD8DC90000D7
:1046B00003B40148019001BD39CD000003B40148A5
:1046C000019001BD35D3000003B40148019001BD44
:1046D0007970000003B40148019001BD69590000E0
:1046E00003B40148019001BD1500010003B4014865
:1046F000019001BD59C5000003B40148019001BDFE
:1047000099C4000003B40148019001BD89F2000082
:1047100003B40148019001BDD54A000003B401482B
:10472000019001BD65B7000003B40148019001BDCF
:10473000D5F6000003B40148019001BDDDFB000087
:1047400003B40148019001BD999E000003B40148E3
:10475000019001BDED75000003B40148019001BD59
:104760003903000003B40148019001BDE52C0100AC
:1047700003B40148019001BD01E4000003B4014805
:10478000019001BD7DE5000003B40148019001BD29
:10479000D100010003B40148019001BDD1EB00003C
:1047A00003B40148019001BDF50D010003B40148B7
:1047B000019001BD2D68000003B40148019001BDC6
:1047C000B90D010003B40148019001BDFDE20000F4
:1047D00003B40148019001BDE9E3000003B40148BE
:1047E000019001BD3DE4000010B588B004460E48BC
:1047F00004700021684601730C4804900C48059031
:104800003221684601770B4806900B480B4909682E
:1048100048618020019402900798009003A80FC877
:1048200001F076FD08B010BD0D0001200E00012042
:1048300012000120996CFF1F00E1F5052C000120FA
:1048400070B505460C46214607A003F097FD802071
:104850002040002805D001F085FD204680214840F9
:1048600070BD0020FCE700004B5343414E5F507287
:104870006F636573734576656E743A20307825787A
:104880000A000000FFB504464E4F81B0002038609A
:1048900020461D46BF30FFF789FC4B48264600786E
:1048A000B23680340828A06E32462CD00121FFF7A2
:1048B00083FC444F3078F863761C3046FFF73CFCAD
:1048C00000BA000AF17800020843B863361D30468A
:1048D000FFF732FC00BA000AF1780002084378635F
:1048E000361D3046FFF728FC00BA000AF1780002B6
:1048F000084338630398010202980143F960039F5B
:1049000000263F1D0EE00021D1E7A819401CFFF74B
:1049100013FC0102A85D01432C4830180160361DCC
:10492000F6B23F1F042FF0DA032F04D0022F08D075
:10493000012F0FD014E0A819FFF7FEFB0102090AAE
:1049400009E0A91948780978000208431F4971183D
:10495000086003E0A95D1D4830180160361DF6B2FD
:1049600000211A4A02E0B0180160361DFF2EFADD60
:104970001448174B43600F2303610123036043690D
:10498000002BFCD0436901600020039B11E08118DB
:1049900009682954401CC0B20E0A2E54401C0E0C4B
:1049A000C0B22E54401CC0B2090E2954401CC0B2E3
:1049B0001B1F002BEBDCA06E401CA066012005B085
:1049C000F0BD000000000440E511FF1F000104409D
:1049D000080F0000FFB504464D4F81B0002038603D
:1049E00020461D46BF30FFF7E1FB4A4826460078C7
:1049F000B23680340828606E32462BD00021FFF793
:104A0000DBFB434F3078F863761C3046FFF794FBAE
:104A100000BA000AF17800020843B863361D304638
:104A2000FFF78AFB00BA000AF178000208437863B6
:104A3000361D3046FFF780FB00BA000AF17800020D
:104A4000084338630398029900020843F86000267F
:104A5000039F0EE00121D2E7A819401CFFF76CFB71
:104A6000A95D000208432C4971180860361DF6B292
:104A70003F1F042FF0DA032F04D0022F08D0012F9C
:104A80000FD014E0A819FFF757FB0102090A09E04B
:104A9000A91948780978000208431F49711808606D
:104AA00003E0A95D1C4830180160361DF6B20021F4
:104AB000194A02E0B0180160361DFF2EFADD0F23FF
:104AC00013481B0243600F23036101230360436902
:104AD000002BFCD0016003980023001D11E0991801
:104AE0000968E9545B1CDBB20E0AEE545B1C0E0C29
:104AF000DBB2EE545B1CDBB2090EE9545B1CDBB28B
:104B0000001F0028EBDC606E401C606605B0F0BD45
:104B100000000440E511FF1F00010440F0B589B01A
:104B2000FFF750FBFE4908600420FFF751FBFFF739
:104B300055FB0446C00712D0FA490020086072B63F
:104B4000FFF752FBF849F94DF94E02280BD0012826
:104B50007ED0F84F05287CD004287BD0ADE2FFF74B
:104B600049FB09B0F0BD08780F46012806D003289C
:104B700004D0022802D005286DD09EE20720FFF75E
:104B800027FB08AB07AA06A9EB48FFF739FBEA4960
:104B90003439898E0B074906CA0FE7491B0F343990
:104BA0000C46403420319446002801D0032B05D018
:104BB000052B6ED0387801286CD081E23878012836
:104BC00001D00328F9D1D94843695B1C4361DB4B11
:104BD000087FDD79A842F0D1487F1D7AA842ECD148
:104BE000887F5D7AA842E8D1C87F9D7AA842E4D147
:104BF0002078DD7AA842E0D160781D7BA842DCD124
:104C0000F5680020AD8D2D072DD5DB7B012B01D064
:104C1000032B28D1C3001F1AC94BDD5D95421DD15E
:104C2000FB188D7D5F78BD4218D1CD7D9F78BD4248
:104C300014D10D7EDF78BD4210D14D7E1F79BD426B
:104C40000CD18D7E5F79BD4208D1CD7E9B7903E08A
:104C5000E5E0E6E02EE2E0E09D4202D0401C0828BC
:104C6000D8DB082817D0B14D686D401C6865706CA2
:104C7000002802D0804700289FD0FFF7C7FA0127FD
:104C80007770FFF79FFAA6490968884208D9401A49
:104C900009E02CE0AFE0A548016A491C01620FE27F
:104CA000A84A511A0818F16876230A79181A801A46
:104CB0004A6C096CD2B2C9B2C0B2FFF7ADFAFFF7C5
:104CC000B1FA9848076000207070FFF7B1FAFFF75B
:104CD000B5FAA08C010A9848891C3030FFF7B4FA65
:104CE0000E20FFF775FAA869401CA861E8E13F783B
:104CF000012F01D0022FD2D1E869401CE8618F4812
:104D00000B7FC0798342CAD18C484B7F007A8342A3
:104D1000C5D18A488B7F407A8342C0D18748CB7FF8
:104D2000807A8342BBD185482378C07A8342B6D14A
:104D30006078824C237B9842B1D1F0680023808D4B
:104D4000000726D5E07B022801D0032821D1D80016
:104D5000C61A7B48845D944218D130188C7D467801
:104D6000B44213D1CC7D8678B4420FD10C7EC67884
:104D7000B4420BD14C7E0679B44207D18C7E467981
:104D8000B44203D1CC7E8079844202D05B1C082BD4
:104D9000DDDB6D48022F1AD10478644527D18A7D66
:104DA0004478A24223D1CA7D8478A2421FD10A7ED0
:104DB000C478A2421BD14A7E0479A24217D18A7ECE
:104DC0004479A24213D1C97E827991420FD1082B36
:104DD0000DD0696D0622491C69656146017056490E
:104DE000401C891CFFF736FAFFF73AFA68E1686A57
:104DF000401C686264E15149487BC20701D025200C
:104E000004E0800701D5262000E02720097D8142AB
:104E1000ECD93220FFF72AFA52E107204EE10620B2
:104E20004CE10878072879D10B20FFF7D1F94149E7
:104E3000FF22097825325143444A00208B185870CC
:104E4000505443480068002805D0FFF715FA404940
:104E50000978C84005E0FFF70FFA3E490968FFF7F7
:104E600011FA0746E00535D539480068002805D015
:104E7000FFF70EFA36490978C84005E0FFF708FA4F
:104E800034490968FFF7FEF92A4B00901878FF2192
:104E9000253148432D4940180279002A01D00022CB
:104EA0000271234A7130121D911D03F0DBFDF16880
:104EB0000098C968381A411827480160600526D54E
:104EC0001C49FF22097825325143204A01208918C4
:104ED00048701CE01748FF22007825321B4B012147
:104EE00050431954296DFF3F491C2965F1680F3F54
:104EF0000969C018CA19184920300A60407E41006B
:104F000016480818FF300130018D491C01852046E4
:104F1000009902F09DFFFFF7C1F921E0CDE000000C
:104F20001C12FF1F1812FF1FE511FF1F0C31FF1F7E
:104F3000200001201512FF1FF82BFF1F442AFF1F1E
:104F4000892BFF1F40420F000C12FF1F5C2AFF1F1E
:104F50002410FF1F2010FF1F2012FF1FF603012047
:104F60006149074608700020087248728872C8724A
:104F70005E48044202D0E86C401CE8645C48FF22B2
:104F80000078253250435B4A57498318D81DF930C1
:104F9000827C06928A1DFF33C07C491C1333FFF7C5
:104FA00083F902465248FF21007825314843514990
:104FB0004018C11DF931CA740279002A0CD10223AC
:104FC000069A897C1A4019408A4205D046494A7897
:104FD000002A01D101224A70474949688E220904FA
:104FE000090E0391125C002A02D0AA6ED219AA6699
:104FF0002030407E414D40004019C030C18BC9195E
:10500000C183FFF757F901463948FF22007825325E
:105010005043384A80182030407E4000401980308C
:10502000828A8918818207AA05A904A8FFF748F98E
:105030002F48FF210078253148432E494018203061
:10504000407E694640002A5A097D5118295240196C
:10505000403069464289097C51184181600705D575
:105060000398874202D23846FFF730F9FFF734F948
:105070001D480021224B81701A78012A0CD1002F83
:105080000AD0204A1469002C03D0127DD243920723
:1050900002D00122827019708079002801D0FFF7B8
:1050A00021F9FFF725F9F078002809D03189FFF7B9
:1050B00025F905E00878082809D00520FFF788F8C9
:1050C000FFF798F862B60320FFF782F849E53878D1
:1050D000FF212531484307490B4A4018911D713083
:1050E00003F0C0FC0920E9E78031FF1F020800003F
:1050F0001512FF1F5C2AFF1F00100340F60301205A
:105100001312FF1F442FFF1F24000120F8B58E4FFC
:10511000079CBE1D9C460D46002A1FD0012A05D0C3
:10512000032A0ED0022A0CD0042A59D1002C57D0C1
:105130000699002901D0012952D1032A01D0022A5F
:105140000AD10146814BA039994249D2A02D47D3BB
:10515000012189038D4243D8002A0BD17B4B0146A4
:105160002039803399423BD2202D39D30121890344
:105170008D4235D8854233D36146002901D00129BB
:105180002ED10999002905D0012903D0022901D087
:10519000032925D10899490722D06D4B9988012907
:1051A00020D09A7308994907490F59731CD0684950
:1051B000099BCB736346002B1BD001238B71337883
:1051C000CB7173780B72B3784B72F3788B7233793F
:1051D000CB7273790B73012A19D0042A28D036E0D8
:1051E0001220F8BD0C20F8BD59480721417330202A
:1051F000F8BD00238B713B78CB717B780B72BB7849
:105200004B72FB788B723B79CB727B79E2E751482A
:10521000069B03702378437063788370A378C37010
:10522000E3780371237943716379837102200EE07F
:10523000484B069E1E7026785E7066789E70A67833
:10524000DE70E6781E7126795E7164799C71488003
:105250001300FFF759F80504060A08060B0000259D
:1052600004E0012502E0022500E006253A4E8A7995
:10527000B0880C460009000128434023910198435F
:105280000143D001802291430843B0800622E11DF2
:10529000B01DFEF7DFFF37464037B88CA179000913
:1052A00000014022001D904389010143B98430462A
:1052B0000622E11D6630FEF7CDFFA07C032100022F
:1052C00049024118B2883F2000028243114389B24B
:1052D000B180012D12D18143032080020818B080D3
:1052E0001C49BB8C087880229343C0011843B884C2
:1052F000304606220C30491CFEF7ACFF17480178F7
:1053000008291AD0072918D0A17B0B00FEF7FCFF53
:10531000050408100C081700012101701F200AE085
:1053200002210170202006E004210170222002E009
:10533000032101702120FEF74BFF0020F8BD002162
:1053400001701E20F7E70000F911FF1F613F000008
:10535000442AFF1F0C12FF1FC42BFF1FE511FF1F64
:1053600010B50E480E4B0278FF2025304243002135
:10537000D018FF24C17013342154995401230246DC
:1053800003716032937113742023816119548E2349
:10539000195451740521818110BD00001512FF1FA1
:1053A0005C2AFF1FFEB572B65548C068476D866D12
:1053B000082F01D8002F00D10427082E01D8002E75
:1053C00000D104264F48504D816C504C491C8164DB
:1053D0002878FF212531484300192030407E4100C4
:1053E0004B480818FF304130418E491C4186FEF77A
:1053F00091FFFEF71DFFFEF721FF2878FF212531E1
:1054000048430019806AFEF78BFF2878FF21253179
:1054100048430019406AFEF789FF2878FF212531AB
:10542000484300192030407EFEF786FF2878FF2190
:105430002531484300192030407EFEF783FF29784C
:10544000FF202530414308190279002A0BD02E2174
:10545000095C304A40695143400009182848C06837
:10546000C06F081815E0615C0029254909D0CA6899
:105470004069096C136940185B0040001818D16C32
:1054800006E0C9684069CA6840005200C96C10183B
:105490004018FEF75DFF1A4DE868806CFEF75EFF6E
:1054A000E868416CCAB2016C808FC9B2C0B2FEF725
:1054B000B3FE0420FEF758FF0720FEF75BFF02A9AA
:1054C0003846FEF75DFF69460989C2B201250E48DC
:1054D000019100950078FF21253148430019FF30E4
:1054E0000130817CF3B23020FEF750FFFEF79AFEC8
:1054F0000948056062B61420FEF76AFEFEBD000092
:10550000200001200C31FF1F1512FF1F5C2AFF1F16
:10551000F6030120710200001812FF1F002805DBAE
:10552000C206D20E01219140014A1160704700006D
:1055300000E100E010B5002819DB1A4A03231B0222
:10554000D21883089B00D2588307DC0EFF23A340A8
:105550009A438B071B0E8407E40EA3401A43114B9A
:10556000032424021B198408A4001A5118E00E4ACF
:1055700003071B0F083B9B089B00D2588307DC0ED8
:10558000FF23A3409A438B071B0E8407E40EA3401E
:105590001A43054B0407240F083CA408A4001A5121
:1055A00010BD000000E100E01CED00E010B5002897
:1055B00019DB1A4A03231B02D21883089B00D25816
:1055C0008307DC0EFF23A3409A438B071B0E84073F
:1055D000E40EA3401A43114B032424021B19840830
:1055E000A4001A5118E00E4A03071B0F083B9B0842
:1055F0009B00D2588307DC0EFF23A3409A438B07FE
:105600001B0E8407E40EA3401A43054B0407240F26
:10561000083CA408A4001A5110BD000000E100E0FD
:105620001CED00E010B5002819DB1A4A03231B0209
:10563000D21883089B00D2588307DC0EFF23A340B7
:105640009A438B071B0E8407E40EA3401A43114BA9
:10565000032424021B198408A4001A5118E00E4ADE
:1056600003071B0F083B9B089B00D2588307DC0EE7
:10567000FF23A3409A438B071B0E8407E40EA3402D
:105680001A43054B0407240F083CA408A4001A5130
:1056900010BD000000E100E01CED00E001480249FF
:1056A0000860704740787D011C00012010B572B67B
:1056B0001948C068C00703D01748001FFEF76CFEEA
:1056C000154C403CA06BC00707D013481838FEF7B4
:1056D00063FE12480168491C0160606AC0070CD073
:1056E000E16A0F48C162A16941630B482C38FEF79B
:1056F00053FE0C480168491C01602069C00707D0AF
:105700002046FEF749FE2046FEF74CFEFEF750FE0F
:1057100062B6002010BD0000401002402C10FF1F98
:10572000200001203010FF1FF8B50646002700F0CA
:10573000E9F805460AE000F0E5F80446AC4201D37A
:10574000601B02E00348401B00190746B742F2D332
:10575000F8BD0000FFFFFF0002E008C8121F08C1EB
:10576000002AFAD170477047002001E001C1121FE2
:10577000002AFBD1704710B5FEF720FE0120FEF78E
:1057800023FEFEF727FE002010BDF0B500248E4654
:105790004A1E12E0714600230D1B6D1E0AE09E009A
:1057A00031188C46875949688F4202D98151614628
:1057B0004F605B1C9D42F2D8641C9442EAD3F0BD5A
:1057C00010B505231B221F210D4803F0D2FA0C4C03
:1057D0000C4B083407221021204603F0CAFA062297
:1057E00001231146204603F0C4FA05481438416AE3
:1057F000012211434162C169034A1143C16110BDD5
:1058000014F00040FB03000004003E0010B500202F
:10581000054CFF212218401C51704028FADB02F091
:10582000D9FF207010BD0000DA05012010B500205E
:10583000054CFF212218401C51700628FADB02F0AB
:10584000E7FF207010BD0000B3000120F0B58646D0
:10585000080CFF268446002388B237461C461946AA
:1058600001228A4005461540CD402C19A4B2FF2FD5
:1058700002D1012C00D18FB265462A40CA40D2180D
:1058800093B2FF2E02D1012B00D18EB2491C1029F8
:10589000E6DB012C02D0102C08D009E0012B07D147
:1058A0003001C019714608700220F0BD102B01D0E4
:1058B0000320F0BD0120F0BD032800DA704701216C
:1058C0008907896801228240114301229207916071
:1058D00000BFF3E701480068704700001410FF1F85
:1058E0000121890709680122824091430122920720
:1058F000116011460968012282401143012292077A
:10590000116070470449886A0202886A120A00021C
:10591000000A9042F7D1704700F0004010B50446ED
:105920000120FFF701FF1149CB6A1148C26A934277
:1059300002D2C96A511A00E000210163FFF7E2FFB9
:105940000C490123C86201190A4608321B069A4213
:1059500003D309310902090A641A01190648C16210
:10596000416A2922D2031143416210BD0010024056
:10597000200001200012FF1F00F00040F8B5414A4E
:105980000446D068808DC00764D03F48406A3F4DD0
:105990008104890CA94202D96842081800E0681AFB
:1059A000C82819D32B2601233601DB02B04207D2C7
:1059B000C80041028601891BC6008919081A09E03E
:1059C000C80041028601891B4601891BC600891B4C
:1059D00040000818C018010B2C482D4BC4308142E0
:1059E00000D9196819607D26906AF600B0420AD283
:1059F000284EFF278E198A37BE4200D3116A401CF9
:105A00001960906209E0106A060A37188F4203D3C2
:105A1000861B8E4200D808461860106AC100091A19
:105A200018680918C9081162C108A8420AD9194A98
:105A3000C43A80186043C00801E0401A641E8842DE
:105A4000FBD807E0281A6043C00801E0401A641C34
:105A50008842FBD80C48062200231146243803F064
:105A600088F92046FEF7BCFC00F074FD00F0E6FC6F
:105A70000020FEF7ADFB0120FEF7B8FC0120FEF789
:105A8000BBFCF8BD2000012040F00040420F0000A8
:105A90003412FF1F82F1FFFF0848816C491C8164AA
:105AA000C16CC26C0902C90F5203D20F5140C26CC3
:105AB0005202120A5118C164C06C704720000120C4
:105AC00030B50146002010E08400094D6419E46CF3
:105AD000A2B284006419E46C230C84000A534400CD
:105AE000641C64000B53421CD0B20928ECDB30BDAF
:105AF0008040024010B502460B46122A01DB052009
:105B000010BD1248816B0120904001430F48816312
:105B1000416B012090400C46844321460B48416371
:105B2000C16B002B03D101209040014304E0012010
:105B300090400C46844321460448C163016B012018
:105B400090400143014801630020D9E700800040F4
:105B500010B50246042A11DA002907D0134840691B
:105B6000012393401843114B58611CE00F484069D2
:105B70000123934098430D4B586114E0002909D04C
:105B80000A4840691346123B01249C402043074BBE
:105B9000586108E0054840691346123B01249C40C7
:105BA000A043024B5861002010BD000000380040A7
:105BB00070B500241BE00F48005D022807DDE0B24D
:105BC00000F050FA0546E0B2294600F079FA232C9D
:105BD0000CDA0848005D022808DDE0B200F042FA65
:105BE0000C216143034A233289184870641C232C1A
:105BF000E1DB70BDBD00012010B502211020FFF7D0
:105C000099FC1020FFF78AFC00240CE00C20604374
:105C10000649085C002805D0E0B200F08BFAE0B23B
:105C200000F078F8641C232CF0DB10BDE0000120AC
:105C3000F3B581B00646234D002440E00120A0408A
:105C4000304000283AD00120A040029908400028A6
:105C500001D1012000E000200746E0B2394600F003
:105C600033F80C20604340194068002810D00C2005
:105C700060434019806800280AD0002F01D101201C
:105C800000E000200746E0B23946FFF733FF14E09A
:105C90000C20604340194068002804D0E0B2002185
:105CA000FFF728FF09E00C206043401980680028B6
:105CB00003D0E0B20121FFF71DFF00BF641C122CCE
:105CC000BCDBFEBDE000012070B504460E46104D61
:105CD0000C20604340194068002808D0002E06D1EF
:105CE0000C20604340194268204690470EE00C208B
:105CF000604340198068002808D0012E06D10C208E
:105D000060434019012182682046904770BD000021
:105D1000E000012070B50446204600F0A3F90546D6
:105D2000002D01D1012000E0002006460C20604338
:105D3000044940184078A84203D031462046FFF776
:105D4000C3FF70BDE000012070B50548C56B044875
:105D500040300468C46029462046FFF769FF70BDE3
:105D60000080004000B58BB025480078012802D1A2
:105D7000002023490870234A51881078FEF742FB1F
:105D800002A8FFF79DFE1F4840380079012802D184
:105D900002A802F0C3FF1B484038006900280FD05A
:105DA00002AA18492839684600F028FF684600789A
:105DB000002804DD1348403801696846884700BF61
:105DC000242202A90F482838FEF792F90E484068AD
:105DD0000121490408430C494860084640680121F4
:105DE000084309494860074B403B1B7D1A460A326D
:105DF000044B59881878FEF70BFB0BB000BD000070
:105E00000C000120D4030120C040024010B511480D
:105E100080680407240F062C14D004DC022C0ED05A
:105E2000042C14D107E0072C0DD00C2C0FD102202C
:105E300000F060FE0BE0012000F05CFE07E000F0E7
:105E40008DFE04E003E003484030C06B00BF00BF9C
:105E500010BD00000040004070B503460C4603E052
:105E600025781D70641C5B1C1546521E002DF7D151
:105E700070BD000070B506460C4630460B38012157
:105E800081400D46002C0DD00021304602F054FA1E
:105E90000021304600F0BAF806480068284305495A
:105EA000086004E003480068A84302490860002035
:105EB00070BD00000038004030B50246D406E40E44
:105EC0000120A040034600290BD0501180000B4C4C
:105ED0000019C06818435411A400084D6419E0600B
:105EE0000AE050118000054C0019C0689843541115
:105EF000A400024D6419E060002030BD003800406D
:105F000030B504460D4601212046FFF7D5FFA0100D
:105F100080000A4940188069A107CA0EFF219140FC
:105F20008843A107CA0E294691400843A110890061
:105F3000024A89188861002030BD00000038004006
:105F400010B511480078002801D0072010BDFF21AE
:105F5000C9310D48FEF7E5F801200B490870002013
:105F60000A49086348630A4908624862022110200E
:105F7000FFF7E0FA1020FFF7D1FA064A06490D2094
:105F800000F0BEFA0020E1E7BC00012000800040E4
:105F900080F00040F95BFF1FB15BFF1F70B5044646
:105FA0000E46042C03DB222C05DC1F2C03DB012115
:105FB0002046FFF7CDFD00212046FFF77DFF122C84
:105FC0000FDA0125A540002E05D00F484068284370
:105FD0000D49486016E00C484068A8430A494860EB
:105FE00010E02046123801258540002E05D00648D5
:105FF000006928430449086104E003480069A84394
:1060000001490861002070BD00800040F3B581B0F7
:106010000C4626460A210198FEF700FA48000818A7
:10602000451C0120A840691C01228A401043C74337
:106030000A210198FEF7F2F98000094940188068AA
:1060400007403046A840384306460A210198FEF72B
:10605000E5F980000249401886600020FEBD00007E
:1060600000F0004030B50346122B0FDA01229A40AF
:10607000124844681440002C01D0016802E00F4827
:106080004030016908461040014610E018461238B9
:1060900001228240094804691440002C01D0C168E3
:1060A00002E0064840304169084610400146002998
:1060B00001D0012030BD0020FCE70000008000403E
:1060C000F3B581B00C460A210198FEF7A7F9480004
:1060D0000818C6B20121019800F0EAFC0120B04086
:1060E0000546002C11D00A210198FEF797F980008F
:1060F0000F49401887682F430A210198FEF78EF94F
:1061000080000B494018876010E00A210198FEF7D3
:1061100085F98000064940188768AF430A21019835
:10612000FEF77CF980000249401887600020FEBD20
:1061300000F00040F8B504462A4D012600270C2047
:10614000604340194068002807D10C206043401983
:106150008068002801D11220F8BD122C04DB032135
:1061600020482338015503E004211E4823380155F7
:1061700001210C206043295400212046FFF70EFF27
:106180000C20604340194068002815D00C20604363
:106190004019806800280FD02046FFF763FF0746AC
:1061A000002F01D0012000E00020064631462046A5
:1061B000FFF7A0FC0020CFE70C20604340194068A7
:1061C000002801D0002606E00C20604340198068BA
:1061D000002800D0012631462046FFF78BFC002026
:1061E000BAE70000E000012010B5022000F082FABA
:1061F000012000F031FA1F2000F004F900F02CF922
:1062000002F0DCF8FFF79CFE01A002F0B7F810BD29
:10621000616C6C2064726976657220696E697420A5
:106220004F4B210A0000000010B50B48C068002049
:106230000949C860084600690020086100231A4621
:106240000F21064802F095FD002302221321034886
:10625000303802F08EFD10BD40380040F040024062
:1062600070B504461248055D082C01D0092C03D1F5
:1062700000212846FFF7FEFD00212846FFF71CFEFF
:1062800003212846FFF7C2FE0A4800690A490A5D51
:106290000121914008430749086108480068064900
:1062A0000A5D01219140890008430449086070BDDE
:1062B0005092FF1F403800406292FF1FC0400240D2
:1062C00070B504460E48055D00212846FFF7F4FD31
:1062D00003212846FFF79AFE0A48C0680A490A5D6A
:1062E0000121914008430749C8600848006B0649EE
:1062F0000A5D0121914008430449086370BD000014
:106300003092FF1F403800404092FF1FC0400240C3
:106310000FB470B50A9D099C0F480078002804D07E
:10632000072070BC08BC04B01847142204A90A480E
:10633000001DFDF7DDFE0848403004704580012057
:106340000549087000F01EFD044A05491F2000F0B1
:10635000D7F80020E5E7000094030120D96EFF1F65
:10636000256EFF1F00B58BB024480078002811D19E
:10637000FFF75AFF01202149087000F003FD204B70
:106380001B7D1A460A321E4B403359881878FEF797
:106390003FF830E01948007801282CD1184A4032E3
:1063A00051881078FEF72EF8242102A8FDF7B9FED7
:1063B00013480079012802D102A802F0AFFC10486E
:1063C000006900280AD002AA0D491831684600F079
:1063D00015FC0B4801696846884700BF242202A9C2
:1063E00007481830FDF784FE0020044908701F207C
:1063F00000F0D2F800BF0BB000BD00000C0001207F
:1064000094030120014648094001002804D00020DF
:10641000034A106006207047014801600020FAE737
:106420000800012010B5002311221521024802F0B6
:10643000A0FC002010BD00001CF0004010B5044876
:10644000112215210368034802F093FC002010BDBF
:10645000080001201CF0004010B578210C48FDF721
:1064600060FE0C480078012806D0022808D00328D6
:1064700009D0042808D100E000BFFDF7D5FF03E0F4
:10648000FDF7D8FF00E000BF00BF002010BD0000F6
:106490001C0301200400012070B505461226164891
:1064A0000078012803D014480078042803D1FDF7B0
:1064B000BBFF002070BD72B6002417E00C206043C3
:1064C0000E49085C002800D112E00C2060430B4903
:1064D000085CA84209D101210C206043074A8018BA
:1064E0004170FDF7A1FF002602E0641C0A2CE5DBE9
:1064F00000BF62B63046DDE7040001201C03012026
:1065000070B503460C4615460021002212E00C200F
:1065100050430F4E305C984201D1072070BD0C20D3
:1065200050430B4E305C002803D10C20504381199E
:1065300002E0521C0A2AEADB00BF002901D1032035
:10654000ECE7002048700B704C608D6000BFE5E701
:106550001C03012010B5FFF771FF002415E00C208B
:1065600060430C49085C002801D1122010BD0C20AA
:106570006043084940184068002805D00C21614359
:10658000044A891848688047641C0A2CE7DB00200D
:10659000ECE700001C03012070B5054600261C48EE
:1065A0000078012803D01A480078042803D1FDF7A9
:1065B0003BFF002070BD72B600241BE00C2060433E
:1065C0001449085C002800D116E00C2060431149F2
:1065D000085CA84205D100210C2060430D4A8018B8
:1065E00041700C2060430B4940184078002800D0CF
:1065F000761C641C0A2CE1DB00BF002E02D1FDF7E3
:1066000019FF01E0FDF710FF62B60020D2E700009D
:10661000040001201C03012010B5002415E00C200B
:1066200060430C49085C002801D1122010BD0C20E9
:106630006043084940188068002805D00C21614358
:10664000044A891888688047641C0A2CE7DB00200C
:10665000ECE700001C03012010B50446012C1CD1FE
:1066600005231B221F21204802F083FB1F4B07221A
:1066700010211D48083002F07CFB01230622114640
:106680001948083002F075FB19480068C06A1121EA
:10669000084317490968C86225E0002C23D100216E
:1066A0001020FFF7B3FC00211120FFF7AFFC0323FC
:1066B000082209210C48083002F05BFB0023062267
:1066C00011460948083002F054FB16231B221F21F3
:1066D000054802F04EFB06480068C06A1121884355
:1066E00003490968C86210BD14F00040FB030000B4
:1066F0002C00012070B50446FF252D35002C03D158
:106700003B483C4908604EE0022C09D13A480068F9
:10671000610408433849086038483649086042E057
:10672000012C1BD134480068A10408433249086099
:1067300008464068610588432F494860084640681C
:10674000491408432C4948600846406880210843A2
:106750002949486026482749086024E026480068FF
:1067600001218904084324490860084640682146FD
:106770000B3101228A4010431F4948600846406897
:10678000802108431C494860032C03D11C48194947
:10679000086008E0042C03D11A481649086002E09A
:1067A00019481449086001E0681E85B2002DFBDC21
:1067B0002346002203211048001F02F0DAFA0120CC
:1067C0008007C0690221084000280BD04807806973
:1067D0000005060E711C07480068FDF753FD0B49C4
:1067E000086003E0034800680849086070BD0000C5
:1067F0000048E8011010FF1F40F000400024F400A2
:10680000006CDC020090D00300D8B8051410FF1F04
:106810001FB513480078002802D0112004B010BD25
:1068200020210F48FDF77DFC6846407A002803D1FF
:106830006846C07A002801D00520EFE7084869467D
:106840001EC910301EC001200549087002F048FB27
:10685000044A00210820FFF753FE0020DEE7000075
:10686000FC020120E18EFF1F70B504460D4607486B
:10687000807E002804D02946204602F0E1FA70BD4F
:106880002946204602F092FAF9E70000FC020120B6
:106890006D46294607A001F071FD002405E0A00027
:1068A00029580AA001F06AFD641C102CF7DB00BF18
:1068B000FEE7000048617264204661756C742053E5
:1068C000502069732025780A000000003078257870
:1068D0002C000000F8B55249504A534B5148CA6049
:1068E000D861002003468400401C1351FF28FADDC4
:1068F000C8684E4A04468034A2600622C2620A2258
:1069000002654B4A157885634A4DC5611578142692
:10691000022D03D01578032D03D003E01025056266
:1069200000E00662444D4561444D85613C25E560CB
:106930003625C56334274764082505643927676011
:1069400032272760AF24E40004601478022C03D0BF
:106950001278032A02D003E0466001E00B22426075
:10696000C824FF22C4602D328260A4000461344C2C
:1069700084647D26F6004662324CC464324E8662E0
:106980000226466682660926C666304E0667456759
:106990008267B210C2674C618B70CB80CB700B8169
:1069A0002C482B491F4A81602B49803A294B1161A1
:1069B0002A49803399622A49C1622A4901632548DC
:1069C0002949C0384163294901602249284A803950
:1069D000CA62284A0A60284AC2601E4A274C403AC6
:1069E0009463274C1463274C5463274C4C61274C09
:1069F0008C61274C0C62274CDC61274C1C62274BB6
:106A0000D363274ACA61274981622749C16227495E
:106A10008163FEF7FBFEFEF709FFF8BD000CFF1FC8
:106A200020000120000CFF1F0010FF1F2008012084
:106A30007E0001207E04000060E31600DC050000FB
:106A400050C30000540B00006A180000204E0000E4
:106A5000E97EFF1F0009FF1F1D4BFF1F5188FF1F0D
:106A6000D549FF1F8548FF1F7973FF1F0D51FF1F79
:106A70006976FF1FE56FFF1F6153FF1F958FFF1F93
:106A8000ED81FF1F7D59FF1F917FFF1FA553FF1F42
:106A9000E17AFF1F3D91FF1FC157FF1F1D59FF1FC7
:106AA000FD75FF1F357CFF1FF178FF1F5171FF1F20
:106AB00030B5C406E40E0123A3401A4600290BD0CA
:106AC00043119B000A4C1B191B6A13434411A40079
:106AD000074D641923620AE043119B00044C1B1903
:106AE0001B6A93434411A400014D6419236230BD15
:106AF00080F0004070B588B006461648007E002839
:106B00000DD015484068C5B2002405E01248803811
:106B1000007804A90855641CAC42F7DB08E00125A5
:106B20000D488038007D0C4880380078694608742C
:106B30000848C06900280AD06846067104A8029077
:106B4000684605730348C16901A8884700BF08B0BB
:106B500070BD0000FC02012080400040FEB5244CC6
:106B6000201F0078002800D1FEBD2148001F007EB4
:106B7000002800D1F8E71E48001F807E002800D1C1
:106B8000F2E72078022800D0EEE7A668A0886188A6
:106B9000401A85B2102D01DD102000E02846054680
:106BA000002D17D10120207000206080A0801048A7
:106BB000001FC069002809D00E4A07CA6B4607C3E8
:106BC0000B48001FC1696846884700BF0820FFF7CF
:106BD000E3FCC9E705E06188481C6080705C0649F9
:106BE00008702846691E8DB20028F4D100BFBBE7AB
:106BF000000301202492FF1F00400040F7B586B03B
:106C000017460026002439E061000798405A6100C9
:106C1000795A484003906000385A0399084002901E
:106C20000398002828D0002523E00120A8400399DC
:106C30000840002818D06846057144710120A8401A
:106C400002990840002801D0012000E00020694698
:106C50008871710071180F4A8818032201A9FDF785
:106C600047FA701C86B200BF0A2E00D103E0681CF0
:106C7000C5B2102DD9DB00BF601CC4B2122CC3DB1F
:106C80000448059069460E74059A0499069806C052
:106C900009B0F0BDD803012070B5044622A001F070
:106CA0006DFB26A001F06AFB217826A001F066FBAF
:106CB00025A001F063FB002531E024A001F05EFB7C
:106CC000294620A001F05AFB22A001F057FB6A00E0
:106CD000AA186068815C1BA001F050FB1FA001F0A6
:106CE0004DFB6A00AA1860688018417815A001F071
:106CF00045FB1CA001F042FB6A00AA1860688018DE
:106D00008078012801D119A000E01AA001461CA03A
:106D100001F034FB0CA001F031FB681CC5B22078F7
:106D2000A842CADC70BD00006B7363616E5F65765C
:106D3000745F68616E646C65720A00006E756D3A0E
:106D400020000000256400000A000000696E6465F0
:106D5000783A20002C726F773A2000002C636F6C19
:106D60003A2000002C747970653A200070726573C7
:106D70007365640072656C65617365640000000092
:106D80002573000070B5FFF74FFA234C002505E08E
:106D90006168485DFFF794FA681CC5B2042DF7DB03
:106DA000002505E0A168485DFFF75AFA681CC5B2E6
:106DB000042DF7DB002314221146184801F0D9FFF7
:106DC000002317221146154801F0D3FF237C182217
:106DD0001F21124801F0CDFF10480068012149052C
:106DE00008430E49086002210520FEF71BFC00BF86
:106DF0000A480068022108430849086008480068FA
:106E0000202108430649086000BF044800680121AA
:106E100008430249086070BD98030120C040024049
:106E200000E100E070B5FFF7FFF900241AE0244804
:106E3000C068005D23490E5C234800692049C96889
:106E4000095D224A525C0121914088431E49086134
:106E500000213046FFF7A2F802213046FFF7D6F8AE
:106E6000601CC4B2042CE2DB002425E014488068D6
:106E7000005D17490E5C1448C06811498968095DB6
:106E8000144A525C0121914088430F49C860032194
:106E90003046FFF7BBF800213046FFF77FF8304659
:106EA000FFF7E0F8054629463046FFF709F90448A0
:106EB0003C300555601CC4B2042CD7DB70BD00000B
:106EC000940301205092FF1F403800406292FF1F40
:106ED0003092FF1F4092FF1F70B500240EE035482E
:106EE000C068005D34490D5C00212846FFF756F864
:106EF00002212846FFF78AF8601CC4B2042CEEDB9E
:106F000000240EE02B488068005D2C490D5C0021B8
:106F10002846FFF743F803212846FFF777F8601C5F
:106F2000C4B2042CEEDB002419E022488068005D26
:106F300022490D5C00212846FFF730F82846FFF76C
:106F400091F80121484006461A483C30005DB042A5
:106F500000D106E0032C00D170BD601CC4B2042C2B
:106F6000E3DB00BF1F20FFF797FA00240EE0114873
:106F7000C068005D10490D5C00212846FFF70EF83F
:106F800003212846FFF742F8601CC4B2042CEEDB54
:106F9000FFF7F8FE00200A490870064B1B7D1A46D1
:106FA0000A32044B403359881878FDF731FA00BF94
:106FB000D2E70000940301205092FF1F3092FF1F80
:106FC0000C00012010B519242402428E01E0491E54
:106FD0004184418C4B1C5343A34201DD0029F6D16F
:106FE00010BD0000F0B585B054480290FDF728FAB6
:106FF000002856D000200190FDF728FA30214843A0
:107000004F4945184F482818FF35FF350235009085
:10701000A88A060A8707BF0F44D048480446803034
:1070200060340390032F14D0002E02D0207C00285F
:1070300038D04548816D491C81650398807B0028C4
:1070400000D00420301A80B2FDF706FA0190002823
:1070500031D00398807B002809D0361FF6B2324623
:107060003946009B0298FDF7FDF9002828D0032F30
:107070002ED035483246816B491C816300990198B6
:10708000FEF7EAFE1120205600902C483B46C078BF
:1070900032460199FDF7ECF900202861A882FDF73E
:1070A000EDF93EE03D210298FDF7EEF92648C16B6F
:1070B000491CC1633FE02448016E491C01663AE067
:1070C0000198FDF7E7F93D210298FDF7DDF932E07F
:1070D0001D4E706B401C7063FDF7D0F91B480078A3
:1070E00008280DD000980078032813D0062811D066
:1070F00002280FD00D280DD0207C002805D009E0F3
:1071000000990298FDF7CCF90BE00298E030007B83
:10711000002809D000990298FDF7C8F900202861DD
:10712000A882012005B0F0BD3D210298FDF7ACF921
:10713000F06B401CF0630020F4E700005C2AFF1FA6
:10714000C42BFF1F160200000C31FF1FE511FF1FAB
:10715000F8B504460A78FF30264627462546013012
:10716000E03660378035491C1300FDF7CDF80D0877
:107170004BF865F5F5AE60BE60B1BBDBF500087895
:107180002870204602228230491CFDF795F90146FD
:10719000204602228430FDF78FF901462046022264
:1071A0008630FDF789F90146204602228830FDF736
:1071B00083F9297802224900297069884900698089
:1071C000A9884900A9802989090129810146204609
:1071D0007E30FDF771F97E20005BE188401A81B2B4
:1071E0006148814201D3282122E0E888A988401C17
:1071F000490048432989884201D33B2118E00120F6
:10720000387712E005225948FDF756F90146204625
:1072100002228C30FDF750F9A889E188401A81B22A
:1072200051488142DFD20120A8720020E083F8BDDE
:107230002046FDF729F9F8BD307D002809D14C4AD8
:1072400025181318E035401C5B78C0B26B75082810
:10725000F6D3707DC00734D00020B8713874012097
:10726000307420460822A830FDF726F90146204652
:107270000222B030FDF720F901462046A030082256
:107280000646FDF719F9054608213046FDF71AF9BB
:1072900020462946943004220546FDF70DF90421C5
:1072A0002846FDF70FF920469830FDF711F92046E2
:1072B0009030FDF713F90C212E48FDF715F9042144
:1072C0002CE01A2070730D2128E00120B073F8BD66
:1072D0000020B8713874DF210855012131733070F6
:1072E0000B211BE00120F073F8BD214A0020131888
:1072F0002518E035401C5B78C0B26B750828F6D3C2
:10730000002015180B786D78491C2B402518E035A6
:10731000401CC0B26B750828F3D309212046FDF745
:10732000E9F8F8BD737F012B16D00A780270E01DD2
:107330000222FB30491CFDF7BFF80146E01D022286
:10734000FD30FDF7B9F801207077F07F0028E8D113
:107350000C21E3E700E002E042720721DEE7097852
:1073600001720122C27163E7FF7F0000F411FF1F69
:10737000802BFF1F0032FF1FF0B504468BB0C030DA
:107380000A902046F53002900B300790274625469C
:107390008038E0376035264640360990A5E0E87C25
:1073A000801E0300FCF7B0FF0C07A11B3265F3BC85
:1073B000DCA18BF4A7A1A87C012803D0204600F013
:1073C00057FB12E08C488078002801D01621D8E0C5
:1073D000708F401E0004000C70876FD009E1A87CFC
:1073E000012804D0204600F009FAA87401E182487F
:1073F000C0780028ECD02046FDF782F822462146CE
:10740000E078B032A831FDF781F86EE0A87C012861
:1074100012D00A98C07F012822D03878002868D07E
:10742000224621462046BF329831CF30FDF774F80E
:107430000A990120C87758E06F48C078002807D023
:10744000099901208873099800214166099881668D
:10745000B87B0128BCD106212046FDF763F844E043
:107460002046FDF765F80128B8D10020B873012047
:10747000BBE7A87C012803D02046FDF75FF8B4E7FE
:107480005D48C0780028A3D0608CE0832046FDF7DB
:1074900037F80120A8712874387B0128E07809D0DA
:1074A00001220021FDF750F8002038733874F8737A
:1074B000B8731AE00021FDF74DF8F5E760E0A87C0D
:1074C000012805D02046FDF74BF8012807D090E0B1
:1074D000F87B0128BED12046FDF712F805E0002018
:1074E000F873099988730120A874E87D002800D0FA
:1074F00055E70BB0F0BDA87C012803D0204600F072
:107500009BFA72E73C48C178002905D0099A00210E
:1075100091730121A971297480780028DBD157E784
:10752000A87C012806D02046FDF720F8A87400208A
:1075300038755EE0387D012806D0708F401E00044B
:10754000000C708706D054E0E1780020029AFDF725
:1075500013F8C0E7E1782220029AFDF70DF80FE05A
:10756000A87C012803D0204600F08CF93DE7224892
:10757000C0780028D3D001203875608CE083AAE75A
:1075800022212046FCF780FF0120B2E700E02BE03B
:10759000A87C012805D00120F8772046FCF7F2FFEF
:1075A00023E7787F012806D0708F401E0004000C6E
:1075B00070870ED01DE0B87F01288CD10798808895
:1075C00000900798E178438802780020FCF7E0FFFC
:1075D00081E70798808800900798E17843880278CF
:1075E0002220FCF7D5FFCBE7204600F0F5FA012872
:1075F000AFD000207DE700008031FF1F10B5FCF701
:1076000017FEFCF71BFE164CA07B0300FCF77CFE6C
:107610000507040D0A041800FCF7C0FF07E0FCF79B
:10762000C3FF04E0FCF7C6FF01E0FCF7C9FF0D490A
:107630008878002811D0627BD30703D0252206E08A
:10764000122010BD920701D5262200E02722237DBB
:10765000934202D1C988FCF751FE002010BD000002
:10766000442AFF1F20000120F8B5574C574EA17B3C
:10767000F06801293BD0856A554F2A220021B81DA8
:10768000FCF7A4FFB888A179000900014022401C42
:107690009043890101434F48802200789143C00103
:1076A00008433F2109028843032189024018B8801A
:1076B0000622E11DB81DFCF7CDFD464938460622DD
:1076C000491C0C30FCF7C6FD207D2538032803D368
:1076D0000020FCF781FF2075207D0746FCF77CFF2A
:1076E0002075A17B012904D0B84219D916E0456A5A
:1076F000C2E73949F0680A68C06D521980180860FD
:10770000364988420AD3364800210170FCF76AFFE7
:10771000344802210078FCF7F1FDF8BD28460EE060
:10772000607BC1078207C90FD20F89184007C00FBD
:10773000081861882C4A401E51436843081AFCF718
:1077400095FD2748022101702020FCF741FD2748C4
:10775000FCF7E6FD2648FCF7E9FD3846FCF7ECFDB2
:107760003846FCF7EFFDFF20FCF742FFF068416C64
:10777000CAB2016C808FC9B2C0B2FCF74DFDFCF7F4
:1077800057FDFCF75BFDFCF739FF0320FCF7F2FD2A
:107790000F488188001D090A891CFCF755FDFCF77C
:1077A00041FD144901200860A17B1348012906D03E
:1077B0000169491C01611020FCF70AFDF8BDC16890
:1077C000491CC160F7E70000442AFF1F2000012088
:1077D000C42BFF1F0C12FF1FF011FF1F00881300A6
:1077E000E511FF1FE411FF1F710200005555550000
:1077F000D6BE898E1812FF1F0C31FF1FF8B5044644
:107800001C481D4D861C6865FCF7FEFE002801D053
:107810000020F8BD04203070164821469831C01C65
:1078200008220F46FCF7F6FE2146903104220E4650
:10783000FCF7F0FE08213846FCF744FE04213046F0
:10784000FCF740FE002008210A1A12198032D37B6F
:107850002218A032401CC0B2D3750828F4D30749BF
:1078600001200870696D064808804034208F6087C9
:107870000120F8BD8C31FF1F200001201412FF1FD2
:10788000030D0000F8B50446164E1548164F7065F6
:10789000164938780978084301D00020F8BD10480F
:1078A0000925801C05702146401C0822F531FCF793
:1078B000B1FE8E20005D002807D0736D2A4603219B
:1078C00020469B1CFCF7ACFE0D250020E083012028
:1078D00038702802716DC01C08800120F8BD0000BE
:1078E0008C31FF1F200001201412FF1F1312FF1FF5
:1078F000F8B54E4CFCF788FE25462E46603680359E
:10790000002814D1A06E002811D149480069002830
:107910000DD148480078002809D12078002806D1E8
:10792000207F002803D0B17C002902D00BE000208A
:1079300008E0317F002906D1A97A002903D1012866
:1079400001D1608CE083E088E18B4018401C2081ED
:107950002046FCF76BFE012804D10020E083E0887C
:10796000401C20810096307F304E2036012845D1C2
:1079700027464037FA8F2189E088FCF75DFE002812
:107980003CD0F88F208129462046FCF75BFEE88832
:10799000608400202077E083012020712089E18924
:1079A0004018A081E188F88FFCF752FE618E6A884A
:1079B00048438718A888884207D12989E28E9142D6
:1079C00003D1E988A28E914206D02989EA880B0961
:1079D0004108E078FCF742FE2878B073A8886086FA
:1079E000E888A0862889E0862046FFF7EBFA204643
:1079F000FCF73AFE00990020087700E0678EA06946
:107A0000B84203D13078E18B884206D02346327BDE
:107A1000E18B14333846FCF72DFEA761A07F307050
:107A20002046FCF72DFE0020F8BD00005C2AFF1F59
:107A3000442FFF1F0431FF1F0A4A094951658A1C60
:107A40000D231370ED231B5C53704030028F42876F
:107A5000054A012010700548088001207047000089
:107A60008C31FF1F200001201412FF1F03020000B1
:107A7000F8B50446174E1648174F70651749387801
:107A80000978084301D00020F8BD114B02229B1C4D
:107A9000FF211A700931581C095D25460170803597
:107AA000A87B002804D003212046FCF7B9FD06225C
:107AB00000207C210855A872E083E089403460876B
:107AC000012038701002716DC01C08800120F8BDC3
:107AD0008C31FF1F200001201412FF1F1312FF1F03
:107AE000F8B5344C207D2538032803D30020FCF75B
:107AF00073FD2075257D2846FCF76EFD2E4E207502
:107B0000A8421AD8FCF7C2FD8305607B9B0DC10714
:107B10008207C90FD20F40078918C00F0F187F1EA8
:107B2000FDF7BAFFC10A6088244A5043F268126820
:107B30007A43801A0818C01801E0F0680068FCF762
:107B400095FB1F48012404701F20FCF741FB1D48D2
:107B5000FCF7E6FB1C48FCF7E9FB2846FCF7ECFBCE
:107B60002846FCF7EFFBFF20FCF742FDF0683C22C3
:107B7000006CC1B25A20FCF74FFBFCF759FBFCF735
:107B80005DFBFCF73BFD0320FCF7F4FB0F4881880D
:107B9000001D090A891CFCF757FBFCF743FB0C4846
:107BA00004600C480168491C01601020FCF710FBC0
:107BB000F8BD0000442AFF1F2000012071020000D0
:107BC000E511FF1F55555500D6BE898EC42BFF1FEA
:107BD0001812FF1F0C31FF1F70B5134C1149134DC4
:107BE0006165134A29781278114301D0002070BDD5
:107BF0000C4B07219B1C1970FF260A36591C365C5A
:107C00000E708E21095C0222002903D00321FCF7AB
:107C100007FD0622012028701002616DC01C08803B
:107C2000012070BD8C31FF1F200001201412FF1FA6
:107C30001312FF1FF8B56448FF21027825314A432B
:107C400062495418A278002A3DD021896048E18019
:107C500082790025002A0BD1427A002A08D1827A43
:107C6000002A05D1C27A002A02D16278002A09D0FE
:107C7000E2898918A1812571217F01292CD1618C8C
:107C8000E18329E02178002906D0E21DF932118A2A
:107C9000491C1182E58305E02571217F012901D16D
:107CA000618CE183A289E1888A4215D12079494D0E
:107CB000002801D0052907D008212046FCF7E4FB65
:107CC000E86A401CE862F8BD3E212046FCF7DCFB78
:107CD000286B401C2863F8BD4078002814D03E482B
:107CE000C068808D800701D5012020772046603054
:107CF000817C002908D1007F002805D18A20005D01
:107D0000002801D1608CE0832079002800D0E58331
:107D1000FCF796FB060009D02577002704E0FCF766
:107D2000BBFC002802D07F1CB742F8DBA0780028FB
:107D3000D1D02046FCF7B6FC0128CCD00221204649
:107D4000FCF7B6FC2078002805D023486169026C56
:107D50008918016401E020480564FCF7AFFC0128A4
:107D6000B9D0FCF72FFA1D490968884201D9451A94
:107D700002E01B4A511A0D18134EFF2130782531AD
:107D8000124F4843C0198469203000781549401CBF
:107D900048434443204600F029F83078FF2125313C
:107DA00048431149C01940690968FF354018053535
:107DB00040196E30844201D8002801DA201A00E010
:107DC000C820FCF753FAF8BD1512FF1F5C2AFF1FED
:107DD0008031FF1F0C31FF1F200001201C12FF1FEC
:107DE00040420F00710200002012FF1F70B5144ABC
:107DF00013781146C968002B12D0CA6E0446CD6CA8
:107E0000D4402C190F4DCC642D78FF2625367543B0
:107E10000D4EAD19AD692D02AC4204D8254603E0E4
:107E20005069C86470BDCD640C6FA54200D9CC64A4
:107E3000521C0649D0400A6858438018086070BD3B
:107E4000200001201512FF1F5C2AFF1F2012FF1FB8
:107E5000F0B5214AC605D4680023656F002E31DADB
:107E6000460509D51D4EFF27367825377E431C4F22
:107E7000F6193679002E04D01361936146050ED4AD
:107E80000EE0D6698E4201D9761A00E08E1BA76FEC
:107E9000B74204D99669B54200D3761C9661D16188
:107EA0009669B5420AD2A56E646E491B21411469D8
:107EB00009190C4C11612568691A2160C00504D5A7
:107EC0001370F0BD13619361EAE71078052800D8BC
:107ED000401C1070F0BD0000200001201512FF1F93
:107EE0005C2AFF1F2012FF1F10B51C481A49416170
:107EF0000121C16001601A4A506B1A49C0B2497829
:107F0000002917D118490023CB56002B174BCB560D
:107F100006DB1B0400240C5721025918091808E03D
:107F2000FF331B0400240C5721025918104B091869
:107F3000C9185163022801D2022002E0502800D95A
:107F40005020801E0B4940100B5C05480022072181
:107F5000143000F00EFF10BDFF3F00000010034082
:107F600080000340200001207D000120000000006F
:107F7000FFFE0000B205012010B5FEF7ABFCFCF7D8
:107F8000A3FBFEF731F9FDF7F6FB002010BD000062
:107F9000F8B57E4CFCF79EFBFCF7A2FB7C48002664
:107FA00006617C4821467C4C86802078FF22253261
:107FB00050437A4D4231401904222430FCF77CFAB8
:107FC00001462078FF2225325043401903222830F1
:107FD000FCF772FA01462078FF22253250434019FF
:107FE00001222E30FCF768FA01462078FF22253264
:107FF0005043401902223030FCF75EFA01462078E7
:10800000FF2225325043401902223230FCF754FA45
:1080100001462078FF222532504340190222343095
:10802000FCF74AFA01462078FF22253250434019D6
:1080300002223630FCF740FA07462078FF2125312E
:108040004843401902462032917B49009173018ECA
:1080500049000186418E49004186C18E0901C186D1
:1080600001462E31FCF7EEFA2078FF2125314843F6
:108070004019FCF7F9FA2078FF21253148434019CF
:10808000828E418EC38E4A4352009A4259DA0029A9
:1080900057D0052239466030FCF70EFA014601221E
:1080A0006846FCF709FA684602782078FF212531F6
:1080B0004843D30640190146DB0E60314B7152092B
:1080C0002C273A54FCF712FB2078FF212531484336
:1080D0004019C683818E4184FEF774FF3049072022
:1080E00008702520FCF774F82078FF2225325043D1
:1080F000421901219170D01DF93086743121C1746B
:108100003920865410460121FCF7F6FA2178FF2227
:10811000253251434F193946203148763046214E99
:108120003B463064388E0A7B1433F98B801CFCF795
:10813000A1FAFCF747F81C490968884207D9401A98
:1081400008E01A4840210078FCF7D8F8F8BD184A32
:10815000511A0818F168FF22896825320818217819
:10816000144B514349190A8E49695A43101A401A4F
:1081700059004018FCF77AF80C4804210078FCF705
:10818000BDF80D48816A491C8162F8BDC42BFF1FF0
:10819000442FFF1F442AFF1F1512FF1F5C2AFF1FD9
:1081A000E511FF1F200001201C12FF1FE411FF1F1B
:1081B00040420F00710200000C31FF1F10B5002477
:1081C0000420FCF79FFA08490860042200210648B1
:1081D0000068FCF7FBF92046641CFCF799FA20467E
:1081E000FCF702FB10BD000018000120F8B5494D56
:1081F0004748E86072B6FCF791FA002873D0464E03
:10820000B07900286FD0454F3868002812D1E8684F
:10821000434B808DC00710D0FDF774FB696A88421C
:1082200001D3401A01E0591A0818E9688031C96879
:10823000814202D962B630BFF8BDFDF763FBE96841
:10824000181A898DC90711D0364A374B1168FF2497
:10825000CB188A34A34200D3296A1160020C80B281
:108260004A4348435202C009141809E0C101820080
:10827000891A4200891AC20010188908400A0C188D
:10828000FCF752FA7D21C900484302D0A04200D831
:108290000446FCF74FFA2549086025480269D207D1
:1082A00034D18068234AC007C00F12784042104280
:1082B00001D0086802E0E86840690860844200D99B
:1082C0000446FCF73DFA00280BD03868002808D196
:1082D000E9688A69C8691218A24202D83288002A5D
:1082E00002D062B630BF11E04969201A814200D243
:1082F0000846420AC10A40098018401ACA08801874
:108300008A09801A090A401AFCF720FA62B6F8BDF9
:10831000000CFF1F20000120B410FF1F1812FF1FC8
:10832000FFFFFF003412FF1F82F1FFFFB010FF1F9D
:1083300000100240E511FF1F30B5C406E40E012312
:10834000A3401A4600290BD043119B000A4C1B196D
:10835000DB6B13434411A400074D6419E3630AE087
:1083600043119B00044C1B19DB6B93434411A40085
:10837000014D6419E36330BD003800400FB438B5D7
:1083800078210C48FBF7CDFE05A800900020009A4C
:10839000049900F01FF80748FCF7DEF984B2214683
:1083A0000448FEF761FA00200349088038BC08BC85
:1083B00004B0184784020120000001201FB5044BBF
:1083C0000FCB6C460FC468460FC8FEF721FA1FBDDD
:1083D0001492FF1FF7B584B00C4600259EE020786C
:1083E00025286ED1641C0020074606462078002808
:1083F00000D197E02078252800D188E020782D282A
:1084000001D1641C012702E0641C0220074320788C
:108410003028F9D005E00A20464320783038861904
:10842000641C2078302802DB20783928F3DD20789E
:10843000732813D10698006802900698001D0690D4
:108440000298002801D0029800E03DA001463B467A
:108450003246049800F0F5F845195EE0207864286B
:108460000DD16120019700960290069802C8012361
:108470000A220690049800F081F845194DE0207812
:1084800078280DD16120019700960290069802C8C5
:10849000002310220690049800F070F845193CE083
:1084A000207858280ED14120019700960290069816
:1084B00002C8002310220690049800F05FF84519C6
:1084C0002BE023E0207875280DD1612001970096DC
:1084D0000290069802C800230A220690049800F031
:1084E0004DF8451919E02078632815D106980178D0
:1084F000001D069068460173002141733B463246D9
:1085000003A9049800F09DF8451906E000BF217802
:10851000049800F019F86D1C00BF641C2078002836
:1085200000D05CE700BF0498002803D00021049825
:108530000068017000200690284607B0F0BD0000DA
:10854000286E756C6C29000030B5002805D00368D2
:1085500019700268521C02600BE0064A1288782AE1
:1085600007DA044A14881288521C024D2A80024AF3
:10857000115530BD0000012084020120FFB587B0F5
:108580000C461646109F0020029001900094002C8B
:108590000CD1302168460174002141743A4604A987
:1085A000119B079800F04DF80BB0F0BD0A98002819
:1085B00007D00A2E05D1002C03DA01200290604278
:1085C000009006AD03350020287017E03146009872
:1085D000FBF758FE039103980A2804DB12983A38F7
:1085E00003994018039003983030C1B2681E0546C5
:1085F000017031460098FBF745FE00900098002876
:10860000E4D10298002813D0002F0DD00221119838
:108610000840002808D02D210798FFF795FF019802
:10862000401C01907F1E03E02D21681E054601704D
:108630003A462946119B079800F003F80199401823
:10864000B2E7FFB581B00D4614461F460026202034
:108650000090002C13DD0020294601E0401C491C3D
:108660000A78002AFAD1A04201DB002400E0241A93
:1086700002223A40002A01D03022009200BFF807BF
:10868000C00F002808D105E000990198FFF75CFFB2
:10869000761C641E002CF7DC05E029780198FFF7B2
:1086A00053FF761C6D1C28780028F6D105E0009950
:1086B0000198FFF749FF761C641E002CF7DC30465A
:1086C00005B0F0BD70B5164C144DE069400840008F
:1086D000E0610620FDF728F81148403882698021C2
:1086E0000A438261E26901231A43E261A26A9205A8
:1086F00003D42A466D1E002AF8DC002D07DB226A0F
:108700007E23D60B82691E409A433243826182697E
:108710008A4382613006400E70BD0000983A000026
:1087200040F00040FFB581B00D46064610240C4FC6
:108730000CE0FFF7C7FFB04208D2A84206D904995F
:10874000039800F00FF8C019C72804D32046641E10
:10875000E4B20028EDD11020001BC0B205B0F0BD7E
:1087600021F1FFFFF0B5002591B00E4607462C46DB
:108770000BE01020FCF7D8FF1448406AA2008104E7
:10878000890C6846641C8150E4B2BC42F1D339467E
:108790006846FCF7FAFF0E4A002057426C460EE08E
:1087A00081006358934201D9D91900E0D11A642994
:1087B00002D9002011B0F0BD5D19401CC0B2B0421A
:1087C000EED331462846FBF75DFDF3E740F000406D
:1087D000420F0000F8B50C4D0C4E0024A0004019CB
:1087E00001686846FDF732F8022805D0002C02DD4A
:1087F000012800D10320F8BD321969460978641CAC
:108800005170402CEADBF8BD00080011DA050120A8
:10881000F8B500240C4D0D4F0526A0004019016845
:108820006846FDF713F8022805D0002C02DD012868
:1088300000D10320F8BD321B6946D2190978641CA7
:108840005170062CE9DBF8BD00090011B3000120CE
:1088500010B500F011F800F0C9F9064A01215820BE
:1088600000F040F90423082219463820FFF75AFF88
:1088700010BD0000A0000120F8B52D4C23782D4D2F
:1088800016221B21284600F074FA0323112212211C
:10889000284600F06EFA2D1D062316221A212846BE
:1088A00000F067FA032312221321284600F061FA30
:1088B000A079032827D0002319221A21284600F086
:1088C00058FA0B2304220721284600F052FAE379D4
:1088D00016221721284600F04CFA184D1648E86079
:1088E00042152A61164868611649A961134E40363F
:1088F0007260B060F160114F1348403F3860E0791A
:10890000012802D00BE00323D6E700220123114601
:10891000384600F02EFAFF20413028617060E07880
:108920000A49C006C00B4018B8630948E861F8BDA1
:108930007800012040F0004020010020C0000340EA
:10894000A403B00000008A04242D000025080000C4
:108950002FFF260070B52C492B4A4039002825D01E
:10896000022823D08B1513625A020A61274A0A6330
:10897000274A527801231B03D2184A61224A22490E
:10898000C03A8039002815D06523224DDB02224CE5
:10899000012819D002281CD0204E801910602048D0
:1089A00050600B608D60CC601E4819E0802313621C
:1089B000DA02DAE71C481060002088601B48086073
:1089C0001B48C8601B480BE01B4810608D600B60A3
:1089D000E9E71948401C10608D600B60CC601748B7
:1089E000086117484861174888611748C8611748E7
:1089F000086217484862174888621748C8621748D3
:108A000008631748486370BDC000034003000001BD
:108A10007800012055555537D6BE898E00800698BE
:108A2000545A9850805508220080067800280B0080
:108A300007EE7536806608220180064280450822CE
:108A4000A49C5C544C0C0403025A544E483C3633EC
:108A50002D007F5D57514B453C363056504A443EC1
:108A6000322C262070B50A4B5C6A9D6AA30501264C
:108A70009B0D7602B34201D99B1B02E0FF33FF330B
:108A800002330B80290E0170200E107070BD0000A3
:108A9000C000034010B5FFF7EFFE044CE07800F093
:108AA00007F82079FFF756FF10BD0000780001207D
:108AB00010B5044609483F2C0DD00D230F2212217A
:108AC00000F057F90648816BE2060905090DD20B43
:108AD0001143816310BD0823F0E7000014F000404B
:108AE00080000340F0B5354C666AA56A00236362D6
:108AF000A362334C60630E20206263624020A06258
:108B00005020E0622A2060622D484030012926D0A2
:108B1000802101622B49FF232948A533403083601F
:108B2000294B4360264B2948403B18617D20C000FB
:108B3000401EFDD2264889050F182148403887631A
:108B4000234B5B1CC91881632349224889790B0098
:108B5000FBF7DAFB070B0B0E0D0E0E0B0E00FF21C1
:108B60000131016217498331D5E71C4800E01C48F8
:108B70001C4911601249403103E0CB6ADB439B0F73
:108B800011D0401EF9D20E48403887630020A06201
:108B9000E062886060622062FF20413060620748C6
:108BA00046628562F0BDC86A0F4B184010601068BD
:108BB0000122000C120480184860E4E70010034012
:108BC00080000340CA0200002020000080560C20D4
:108BD000646521001027000078000120204E00006D
:108BE0003075000000002020FFFF3F3F30B5244CCF
:108BF0002079012828D02079032825D0207904283D
:108C000022D02079022827D00121022000F03CF850
:108C1000C01C60700121422000F036F8C01CA0701A
:108C2000A07862781749904222D2002062785301DE
:108C30006278A578521B42439A1A103252110A5494
:108C4000401C2828F2DB30BD0021022000F01CF877
:108C5000801C6070002106E00121022000F014F861
:108C6000801C60700121422000F00EF8801CD6E7C5
:108C7000002062780A54401C2828FADB30BD00002E
:108C800078000120B205012030B51C4C1A4A226040
:108C90001A4A4032012914D01949D16050630E207C
:108CA000106200215162FF2015305062154885790D
:108CB00015482B00FBF728FB070A0A070C0D0D0AC5
:108CC0000D001249E9E71048401E02E0104800E09C
:108CD0001048401EFDD209488030406B51620002AE
:108CE000000E11620C49D160FF21413151626521B2
:108CF000C902216030BD00001000030040000340A5
:108D00007F407200780001200F2700007F40520052
:108D1000204E00003075000040401000F0B50146C4
:108D20000024002022E0421CD3B216E046008E5BF5
:108D30005F00CF5B3E403246561E1640002E01D1EA
:108D4000012600E000263546002A04D0002D02D17D
:108D50002646164334465A1CD3B2122BE6DB420099
:108D60008A5AA2434300CA52421CD0B21228DADB0C
:108D7000F0BDFFB581B00C4601680025ED43049BB2
:108D800093400093134606E001269E402F46B743CA
:108D90003D465E1CF3B2A342F6DD0B462B4019465E
:108DA000009B1943016005B0F0BD00000CB5024600
:108DB00000200190009007E00098431C00931E4B98
:108DC000984201DD0D200CBD1C48C06BC007C00FD0
:108DD0000028F1D118E00020009007E00098431C23
:108DE0000093154B984201DD0D20ECE71348403805
:108DF000007D202318400028F0D010780F4B403B16
:108E00001870521C0020019008464B1E99B2002891
:108E1000E1D1009007E00098431C0093064B984274
:108E200001DD0D20CFE705484038007D4023184084
:108E30000028F0D00020C6E7A08601004040004096
:108E4000F8B506460D46244C002D01D0002E01D168
:108E50000620F8BD2078002801D10320F9E720780A
:108E6000012801D01120F4E7E088A84201DA0320AC
:108E7000EFE72A463146A068FBF73AF9A5800020C3
:108E8000608002202070A768A0886188401A85B29F
:108E9000102D01DD102000E0284605460F484068EF
:108EA000022188430D49486005E06188481C6080C4
:108EB000785C0A4908702846691E8DB20028F4D1F2
:108EC0000648406802210843044948600820FDF72D
:108ED000E3FA0020BDE7000000030120004000404D
:108EE00070B5294CFCF7F6FC05460820FCF7E4FCBD
:108EF0000820FCF7F5FC20780821FDF701F86078E0
:108F00000921FCF7FDFF0020204908732A1163683E
:108F10005B08D0186168FBF7B5F9064600201B49CD
:108F20000861802008730E7003200873207A0028DF
:108F300002D08720087202E0002014490872012044
:108F400012494860207A002805D0084640688021F0
:108F500008430E494860A07A002805D00B484068B5
:108F600002210843094948600B20002805DBC2069E
:108F7000D20E01219140064A116000BF02210B2050
:108F8000FCF714FB70BD00000C0301200040004002
:108F900000E100E0F8B55D4C5B48E060803080683F
:108FA00080F30888FDF73EFA59485B49C76A456B6C
:108FB00058480068884208D00020FBF717FA0120C3
:108FC0008007026902218A430261FBF7CBFBE0685C
:108FD00080304068FBF7CCFBE06880300068FBF72E
:108FE000CDFBE0684D4E808DC00607D54C4B072267
:108FF00010213046FFF7BDFE012306E003230822BF
:1090000009213046FFF7B5FE0023062211463046FF
:10901000FFF7AFFE434E0020F0610220F0614248AE
:1090200070610120FCF780FB0320F061FCF76AFC13
:109030000646FBF7C7F80090FCF764FC6062FBF79C
:10904000A3FBBE4201D9F01B02E03849F01B4018D7
:10905000E168898DC90706D0010C694380B24902D5
:109060006843C0090AE0C1018200891A4200891AD6
:10907000891CC200101889088030400A0D18616BE5
:10908000206B411A2848103008188108A163800716
:10909000E26B800F8018E063042804D9491C800724
:1090A000800FA163E063224E68183146FBF7EAF8AF
:1090B000204A1368C3181360206D08182065B04259
:1090C00005D95B1C31461360FBF7DCF82165FBF723
:1090D00061FBFBF777F80099401A17492A180968CD
:1090E0008A4202D2491B081A01E07D20C000FBF72A
:1090F00057FBFBF75BFB0220FBF76AF80020FBF74E
:1091000075F9FBF767F9F8BD000CFF1F200001207F
:109110000012FF1F2812FF1FB64121031CF0004060
:10912000FB03000000100240C4090000FFFFFF0025
:10913000710200003010FF1FB010FF1F70B52748EC
:10914000012581068860264CA068C9110843A060EB
:109150002449142008602448206024486060244882
:10916000037816221721201DFFF703FE2148C0684F
:10917000006AFCF7D9FA21491F4808601F482049B6
:109180008030C163FF21413141621E480078FDF704
:10919000B1FA1D490220FBF70FFB1C490320FBF726
:1091A0000BFBFF20FBF724FA0120FBF70BFBFF2052
:1091B000F530FBF7CDF85820FBF70AFB1448FBF716
:1091C000CDF82846FBF70AFB0720FBF7D3F8E06948
:1091D000000A00028830E06170BD00009021E901C2
:1091E00040F0004000E100E020B81F503008BE0011
:1091F0007F000120200001200180063D0000034087
:10920000340800007E0001207102000040420F007F
:1092100030750000090AFFFF00C2010001000000D4
:10922000000000000300000000000000000000003B
:10923000000205070A0C0F12131617191B1D202216
:1092400000010A0B040C02050D0E0603090F0708A6
:1092500001030406090B0D0E10111415181A1C1E1B
:109260001F210001090A040B0C021011050D030E49
:10927000080F0706F14B00004148FF1F02000000E5
:10928000C092FF1F00000120BC0000005857FF1FC4
:10929000000CFF1FBC0001200C0000005857FF1FEE
:1092A000BC000120000CFF1F000400007041FF1FE4
:1092B0007C93FF1FBC000120640700006857FF1F5C
:1092C000000000000200000000000000000000019B
:1092D000060700010C1000000000000040787D012E
:1092E000000000000000000000000000000000007E
:1092F000000000000000000000000000000000006E
:10930000420F00000000000000000000000000000C
:10931000000000000000000000000000000000004D
:109320000000000000000000000000007856341229
:109330000000000000000000002D230F01000202C9
:10934000000000000000000000000F00000100000D
:10935000000000000000000000000000000000000D
:10936000000020200000000000000000294176716C
:0C937000000000000000000000000000F1
:040000051FFF40C1D8
:00000001FF
