:020000041FFFDC
:1008000000000000A9D8FF1FBC0A0020E00A002059
:100810008026002000000000000000000000000012
:1008200000000000000000000000000000000000C8
:1008300000000000000000000000000000000000B8
:1008400000000000000000000000000000000000A8
:100850000000000000000000000000000000000098
:100860000000000000000000000000000000000088
:100870000000000000000000000000000000000078
:100880000000000000000000000000000000000068
:100890000000000000000000000000000000000058
:1008A0000000000000000000000000000000000048
:1008B0000000000000000000000000000000000038
:1008C0000000000000000000000000000000000028
:1008D0000000000000000000000000000000000018
:1008E0000000000000000000000000000000000008
:1008F00000000000000000000000000000000000F8
:1009000000000000000000000000000000000000E7
:1009100000000000000000000000000000000000D7
:1009200000000000000000000000000000000000C7
:1009300000000000000000000000000000000000B7
:1009400000000000000000000000000000000000A7
:100950000000000000000000000000000000000097
:100960000000000000000000000000000000000087
:100970000000000000000000000000000000000077
:100980000000000000000000000000000000000067
:1009900049B3FF1FDDB3FF1FF9E3FF1F0000000095
:1009A0000000000000000000000000000000000047
:1009B0000000000000000000000000000000000037
:1009C0000000000000000000000000000000000027
:1009D0000000000000000000000000000000000017
:1009E0000000000000000000000000000000000007
:1009F00000000000000000000000000000000000F7
:100A000000000000000000000000000000000000E6
:100A100000000000000000000000000000000000D6
:100A200000000000000000000000000000000000C6
:100A300000000000000000000000000000000000B6
:100A400000000000000000000000000000000000A6
:100A50000000000000000000000000000000000096
:100A60000000000000000000000000000000000086
:100A70000000000000000000000000000000000076
:100A80000000000000000000000000000000000066
:100A90000000000000000000000000000000000056
:100AA0000000000000000000000000000000000046
:100AB0000000000000000000000000000000000036
:100AC0000000000000000000000000000000000026
:100AD0000000000000000000000000000000000016
:100AE0000000000000000000000000000000000006
:100AF00000000000000000000000000000000000F6
:100B000000000000000000000000000000000000E5
:100B100000000000000000000000000000000000D5
:100B200000000000000000000000000000000000C5
:100B300000000000000000000000000000000000B5
:100B400000000000000000000000000000000000A5
:100B50000000000000000000000000000000000095
:100B60000000000000000000000000000000000085
:100B7000F5B6FF1F000000000000000000000000AC
:100B80000000000000000000FD70FF1F00000000DA
:100B900000000000C1A6FF1F0000000000000000D0
:100BA0000000000000000000000000007DA7FF1F03
:100BB000000000000000000069A7FF1F73A7FF1FCF
:100BC000A9A6FF1F000000000000000000000000B8
:100BD0000000000000000000000000000000000015
:100BE0000000000000000000000000000000000005
:100BF0000000000015A6FF1F00000000000000001C
:0C0C000001FF01FF01FF01FF41000000A7
:020000041FFFDC
:1040000098400020D540FF1FDD40FF1FDF40FF1F0D
:1040100000000000000000000000000000000000A0
:10402000000000000000000000000000E140FF1F51
:104030000000000000000000E340FF1FE540FF1FFC
:104040000000000000000000000000000000000070
:104050000000000000000000000000000000000060
:104060000000000000000000000000000000000050
:104070000000000000000000000000000000000040
:104080000000000000000000000000000000000030
:104090000000000000000000000000000000000020
:1040A0000000000000000000000000000000000010
:1040B0000000000000000000000000000000000000
:1040C0000348854600F04CFD00480047F5D2FF1F2D
:1040D000984000200448804704480047FEE7FEE778
:1040E000FEE7FEE7FEE7FEE7ED70FF1FC140FF1FA2
:1040F00038B50446C0681821401E4843A1684018DE
:104100003C214843616840183C21484321684518D8
:1041100060690C214843216940186921C900401A8F
:10412000302100F0E5FD114A504342190846009243
:104130001A2902DB0E49511800910C2100F0D8FD1C
:104140000C4A5043009A801800900B4806E0491E24
:10415000425C074B5A43009BD21800920029F6DCC0
:104160002146684600F004FB009838BD801F860792
:10417000805101008033E1013822002003460B43C7
:104180009B0703D009E008C9121F08C0042AFAD20D
:1041900003E00B780370401C491C521EF9D2704793
:1041A000D2B201E00270401C491EFBD270470022CF
:1041B000F6E710B513460A4604461946FFF7F0FF26
:1041C000204610BD10B5002200E0521C835C8C5CC0
:1041D000A34201D1002BF8D1D8B2E1B2401A10BDF0
:1041E00070B5104D002800D12868002414E00A465C
:1041F00002E09E4203D0521C1378002BF9D1DAB2B0
:10420000224307D0002B06D0002C04D000210170DF
:10421000401C04E00446401C0678002EE7D12860CC
:10422000204670BD5C2B00200321001D401E03783A
:1042300012021A43491EF9D51046704770B506465A
:1042400003F056F8046805460A220021304600F0C3
:10425000C9FA2C6070BDF8B502464A40D40F42003E
:104260004B0052085B089A4202D2024608461146A9
:104270004A0023D0C30D4A00DDB2120EAD1A202D24
:1042800035DA49020126490AF6058A19002C00D0C0
:10429000524220214F1B1146B9402A411018C20D2D
:1042A0009A4221D0002C17D0012D08DCDA05801AA3
:1042B000D20F8019D207DBB200F0D4FAF8BDDA05CC
:1042C000801A012340001B06C01880185A4280182B
:1042D000CA0F1043490007E04908C2071143DA0535
:1042E000801A80194008801800F0B4FAF8BD610007
:1042F0000122511A001BF7E70122D2075140AAE719
:104300000122D2075040A6E7024670B54A40D30FBB
:10431000DB0740002DD04A002AD0010E140E000207
:1043200012020919400A520A8418E501044654434E
:10433000000A120A2E045043A4194219200CC54346
:10434000AA18120C0125AD03521C521912047F3910
:10435000240400D0521C104301D44000491EC2B2B4
:104360000C06C0092018401C4008802A02D003E037
:10437000002070BD40084000002900DA00201843EA
:1043800070BD70B502464A40D50F40004A00ED07A7
:1043900040085208002814D0002A12D0C40DD30DB2
:1043A00041020120C0055202490A520AE41A0918C2
:1043B00012187D34914201D3641C00E04900002CA6
:1043C00001DA002070BD0023914201D3891A034312
:1043D000400849000028F7D100290AD0914202D1B3
:1043E0000121C90705E0914201D2012101E001212B
:1043F000C943E005C018401900F02CFA70BD420016
:1044000005D04200120E52428A4201DB0020704762
:10441000C905081870470000F0B51FB488B00B99A3
:104420000998002448400999C00F4900490809919A
:10443000C0070B990090490049080B910999089809
:10444000A64608431CD00B990A98084318D009982F
:1044500001244000420D4800410D09982405000345
:10446000000B204309900B980003000B20430B9096
:1044700050181C494018002201901446104605E0CF
:10448000002001460DB0F0BD032801DA034600E02C
:1044900003239C46C11A0AAE0AE05F0008ADED5B3B
:1044A0004F00F75B7D430027AA187C41491C5B1E27
:1044B0006145F2DD410004AB5A522104120C0A435B
:1044C000240C401C0828DFDB0198029000997046FC
:1044D00001910090059B049A0799069800F008FA4C
:1044E000D0E700000DFCFFFFF0B50C465C4085B046
:1044F000E40FE40703944C00002664085900944636
:10450000490802460296224321D062460A431ED041
:104510006200570D4A000E032303550D0124024685
:104520002C492405781B1B0B360B401823432643CC
:10453000614600901C46501AB44103D30098401CB9
:10454000009002E0921800985B41002803DA0020F6
:10455000014605B0F0BD0020012109050746864649
:1045600011E064461D46141BB54106D36546521B37
:10457000B341744607430C43A646CD07400849089B
:10458000284392185B4105460D43EAD11046184373
:1045900013D06046194650407140084306D060462B
:1045A000101AB34106D20122002306E000220123A3
:1045B000DB0702E00122D243531000987446010544
:1045C000381C6141029C039D0019694100F083F988
:1045D000BFE70000FD030000C217C10F504010B537
:1045E0004018CA079623002100F03CF910BD10B511
:1045F00000229623114600F035F910BD0EB5C21702
:10460000C10F5040CA0740180021054B0293019288
:1046100000910A460B4600F06BF903B000BD0000A4
:1046200033040000C20F410040020123400ADB05B1
:10463000D207090EC0187F2901DA00207047962999
:1046400003DC9623591AC84001E096398840002AB5
:10465000F4D040427047410040020122400AD20596
:10466000090E80187F2901DA00207047962903DCA3
:104670009622511AC8407047963988407047C20F39
:10468000D207400040080BD0C10D0723DB01C91839
:1046900040020905400A1143C20840071143704710
:1046A000002001467047CB0FDB07490010B54908D1
:1046B00002460A4307D00A0D07240903E401090B47
:1046C000121B002A01DC002010BDC900440F0C435E
:1046D000C100E018D205801800F0BCF810BDF0B59C
:1046E0001FB40646002082B0054640240191009088
:1046F0001BE0019922460F46304600F020F8049A4C
:10470000059B801A994110D310461946224600F0A5
:1047100039FA361A8F410197224601200021009F65
:1047200000F030FA38184D4100902046641E0028F1
:10473000DFDC019B00982946324607B0F0BD10B57A
:10474000202A04DB0846203AD040002110BD0B4649
:10475000D340D0402024A21A91400843194610BDEE
:1047600010B5024900F004F810BD00006C3B0020B9
:1047700070B50C4600683C2100F0C0FA21603C2175
:1047800000F0BCFA6160182100F0B8FA0546A1609B
:104790000721001D00F0B2FAA1610F48A900081816
:1047A0000E4900F0ABFA0246443288086261E061CB
:1047B0003B2802D3910700D0401C0021084B0A4639
:1047C0002161995C814203D8401A521C2261F8E7AA
:1047D000401CE060204670BD6C0B0000B505000079
:1047E00044220020F7B5009C0F4600262578641C63
:1047F000002D05D000F0EAF90068405DC007F5D152
:104800002B2D02D02D2D18D0641E39462046029A39
:1048100000F0E0F9002F04D03968A14201D10099DD
:1048200039607105022400290BDA4042002803DDBB
:1048300002F05EFD0460A007FEBD01208002064379
:10484000E3E70028F8DA02F053FD04600048FEBDFB
:10485000FFFFFF7F002904DA401C490001D1400816
:104860004000704770B40024050C05D110240004EA
:1048700002D1002921D01124050E01D100020834F3
:10488000050F01D10001241D850F01D18000A41C5A
:10489000002801DB4000641C002908D020252E1BC5
:1048A0000D46F540A14000D00121294308430106EF
:1048B0001B1B000ADB1D02D5002070BC7047DB0506
:1048C000181880180029F8DA401C4900F5D170BC8E
:1048D00040084000704710B5002B08DA0024401C47
:1048E000614192185B411A4301D14008400010BD5C
:1048F000F0B51FB482B005460C0003D0084602F0A4
:10490000DFFC02E002F0DCFC203002460090214691
:10491000284600F037F9049B059A04460F461843D1
:104920001143084314D0184610431BD0009840216F
:104930000A1A18460599FFF702FF05460E46009A27
:104940000599049800F01EF9084305D0012004E001
:104950002046394607B0F0BD0020C11705430E437D
:104960002C43374300990E986305401A7905E40AF1
:1049700000220C43FD0A0A3002D500200146E9E777
:104980000105101969410C9C0D9D00196941FFF743
:10499000A2FFDFE7F0B507460846584087B0C00FD2
:1049A000049048000E46590040084908BC1A884146
:1049B00005D2384631461E4617460B460246580079
:1049C000400810434CD0300D039040055900400D75
:1049D000490D0590401A0290402872DA180301210F
:1049E000000B09050843019004980092002805D0A7
:1049F0000199524200208841009201900298402182
:104A00000A1A0199009800F0BDF805460C466B465D
:104A100007CB00F0C7F8C0197141039A0E0D0023AF
:104A2000D71756401A467A40164344D0049A002AB3
:104A30002DD0029A012A039A15DC1205C01A914161
:104A400001263605001C7141D20F059ED207009346
:104A5000019202962A462346FFF74AFF07B0F0BDAF
:104A600038463146FAE71605224A0F46B218C01AF0
:104A7000B74101210905001C4F4100187F41114633
:104A800018187941E20F10436D19644113E0E207F1
:104A90006D0815436408C2071443039A01261205E2
:104AA000C01A91413605001C7141CE0740083043C1
:104AB0004908C01851412A462346FFF70CFFCDE7AD
:104AC000FFE7049801224000C117121A00238B410E
:104AD00004983146C417381AA141EEE730B40124D6
:104AE000E407634030BC55E730B40124E40761407B
:104AF00030BC4FE70000E0FF4A0009030123090B27
:104B00001B0519430A4B10B5520D9A4202DA0020D8
:104B1000014610BD064B34339A4203DC9A1AFFF764
:104B20000EFE10BD034BD21800F02CF810BD000093
:104B3000FF030000CDFBFFFF10B5002904DB0124BB
:104B4000E40740428C412146002B04DB1C46012334
:104B5000DB075242A341994200D1904210BD0000B0
:104B6000064C0125064E05E0E36807CC2B430C3CC0
:104B700098471034B442F7D3FFF7A6FA0823002071
:104B80005823002010B5202A04DB0146203A91402A
:104B9000002010BD914020239C1A0346E340194396
:104BA000904010BD10B5202A06DBCB170846203AEE
:104BB0001041C1170B4306E00B461341D04020249F
:104BC000A21A91400843194610BD000000487047E2
:104BD000D4220020F7B582B0029C00272078641C04
:104BE00015460197302802D0002D15D015E0207809
:104BF0000127641C782804D0582802D0002D09D041
:104C00000BE0002D01D0102D07D1002710252078B2
:104C1000641C02E0082500E00A250026009610E04A
:104C20000099012769430818020C294680B2714394
:104C300000908E183804864201D30120019020781C
:104C4000641C294600F019F80028E9DA03980028C6
:104C500005D0002F01D0641E00E0029C0460019882
:104C6000002806D002F044FB02210160C81E05B0F6
:104C7000F0BD009930040843F9E73A2800D23038F3
:104C8000202302469A43412A01D3104637388842EE
:104C900001D30020C043704770B58C180578401CC4
:104CA0006B075B0F01D10378401C2A1106D10278F3
:104CB000401C03E006780E70401C491C5B1EF9D1B5
:104CC0002B0705D40023521E0DD40B70491CFAE7A4
:104CD0000378401CCB1A921C03E01D780D70491C10
:104CE0005B1C521EF9D5A142D8D3002070BD000034
:104CF00003B40148019001BD8D02000003B40148D6
:104D0000019001BD6102000003B40148019001BDA2
:104D10000FF4000003B40148019001BD41F400000C
:104D200003B40148019001BDFD0E000003B4014829
:104D3000019001BD61F2000003B40148019001BD82
:104D40008117000003B40148019001BDA9160000BD
:104D500003B40148019001BD6117000003B401488C
:104D6000019001BDF1F3000003B40148019001BDC1
:104D70006116000003B40148019001BD4D660000BA
:104D800003B40148019001BD5113000003B4014870
:104D9000019001BD3916000003B40148019001BD26
:104DA0005DF6000003B40148019001BD75F40000F8
:104DB00003B40148019001BD8913000003B4014808
:104DC000019001BD5D2F000003B40148019001BDB9
:104DD000CDF9000003B40148019001BDF1F90000D4
:104DE00003B40148019001BDD111000003B4014892
:104DF000019001BD59F9000003B40148019001BDC3
:104E00009D18000003B40148019001BDF1F10000BC
:104E100003B40148019001BDF117000003B401483B
:104E2000019001BD5114000003B40148019001BD7F
:104E30006916000003B40148019001BD0915000086
:104E400003B40148019001BDC960000003B40148EA
:104E5000019001BDB51F000003B40148019001BDE0
:104E6000E9BF000003B40148019001BD1D1B000013
:104E700003B40148019001BDED1B000003B40148DB
:104E8000019001BD6506000003B40148019001BD19
:104E900021FA000003B40148019001BDC11F0000C8
:104EA00003B40148019001BD89F2000003B4014838
:104EB000019001BD49F4000003B40148019001BD17
:104EC000C9F6000003B40148019001BDC5200000EF
:104ED00003B40148019001BDD541000003B401486D
:104EE000019001BD2141000003B40148019001BDC2
:104EF000E9FB000003B40148019001BD55DD00004D
:104F000003B40148019001BD89DF000003B40148EA
:104F1000019001BD75E0000003B40148019001BD9E
:104F2000E1DE000003B40148019001BD35E100005D
:104F300003B40148019001BD29E4000003B4014815
:104F4000019001BD69E5000003B40148019001BD75
:104F500091E0000003B40148019001BDE1E20000CE
:104F600003B40148019001BDF1E2000003B401481F
:104F7000019001BDCDE6000003B40148019001BDE0
:104F800009E9000003B40148019001BDE1E7000018
:104F900003B40148019001BDB5DF000003B401482E
:104FA000019001BD6DDF000003B40148019001BD17
:104FB00085E0000003B40148019001BDD1E5000087
:104FC00003B40148019001BDCDDF000003B40148E6
:104FD000019001BD1DE0000003B40148019001BD36
:104FE000CDE0000003B40148019001BD31E20000B2
:104FF00003B40148019001BD49E7000003B4014832
:10500000019001BD1DDB000003B40148019001BD0A
:105010002DCF000003B40148019001BDA90B010090
:1050200003B40148019001BD5D0B010003B40148C8
:10503000019001BD690B010003B40148019001BD5D
:10504000250E010003B40148019001BDF5E3000005
:1050500003B40148019001BD21E3000003B40148FD
:10506000019001BD15E3000003B40148019001BDAA
:10507000C1E0000003B40148019001BD6DDD0000F6
:1050800003B40148019001BDF1DE000003B4014802
:10509000019001BD7574000003B40148019001BD89
:1050A0008574000003B40148019001BD0959000056
:1050B00003B40148019001BD15F2000003B401489A
:1050C000019001BDFDF6000003B40148019001BD4F
:1050D000C5F9000003B40148019001BD3903000087
:1050E00003B40148019001BDDD74000003B4014820
:1050F000019001BD890D010003B40148019001BD7B
:10510000D576000003B40148019001BD0D340000C4
:1051100003B40148019001BD45C0000003B401483B
:10512000019001BD9107000003B40148019001BD49
:10513000691B000003B40148019001BDBD070000D8
:1051400003B40148019001BD6107000003B40148A8
:10515000019001BDF90D000003B40148019001BDAB
:10516000290D000003B40148019001BD3107000082
:1051700003B40148019001BD7919000003B401484E
:10518000019001BD010D000003B40148019001BD73
:105190006F21000003B40148019001BD5D0D0000C6
:1051A00003B40148019001BD990D000003B401480A
:1051B000019001BDD10D000003B40148019001BD73
:1051C000410E000003B40148019001BD47030000F7
:1051D00003B40148019001BD3975000003B40148D2
:1051E000019001BD8D75000003B40148019001BD1F
:1051F0008572000003B40148019001BDE52C010057
:1052000003B40148019001BD7D9E000003B4014834
:10521000019001BDF59E000003B40148019001BD5D
:10522000F94C000003B40148019001BDA53D000008
:1052300003B40148019001BD5D52000003B4014870
:10524000019001BD552B010003B40148019001BD3F
:10525000B1C2000003B40148019001BDF1F00000AB
:1052600003B40148019001BDC5C5000003B4014865
:10527000019001BD0DC7000003B40148019001BDBC
:105280000BC5000003B40148019001BD3942000084
:1052900003B40148019001BDF140000003B401488E
:1052A000019001BDC140000003B40148019001BD5F
:1052B0005D41000003B40148019001BD95C30000A9
:1052C00003B40148019001BD1DC3000003B40148AF
:1052D000019001BD6D45000003B40148019001BD7E
:1052E000753C000003B40148019001BD7DCE000073
:1052F00003B40148019001BD71D7000003B4014817
:10530000019001BD99D7000003B40148019001BD8F
:10531000B943000003B40148019001BD3D440000C1
:1053200003B40148019001BDE1D5000003B4014878
:10533000019001BD7DD2000003B40148019001BD80
:105340007D4E000003B40148019001BD95DA0000D4
:1053500003B40148019001BD4D4F000003B4014862
:10536000019001BDE9CF000003B40148019001BDE7
:105370003DD8000003B40148019001BD89D400006C
:1053800003B40148019001BD5DD6000003B401489B
:10539000019001BD3DC4000003B40148019001BD6E
:1053A000B551000003B40148019001BD3D0D01005D
:1053B00003B40148019001BD55E5000003B4014864
:1053C000019001BDBD9E000003B40148019001BDE4
:1053D000F5C4000003B40148019001BD3D3F000049
:1053E00003B40148019001BD25C2000003B4014887
:1053F000019001BD17C4000003B40148019001BD34
:10540000F7C2000003B40148019001BD01C40000CF
:1054100003B40148019001BDD938000003B401482C
:10542000019001BDDBC2000003B40148019001BD41
:10543000E1C1000003B40148019001BD41CF00006B
:1054400003B40148019001BD199F000003B4014855
:10545000019001BDC9C5000003B40148019001BD20
:105460008DC9000003B40148019001BD39CD000091
:1054700003B40148019001BD35D3000003B40148D5
:10548000019001BD6959000003B40148019001BDBC
:105490001500010003B40148019001BD59C5000089
:1054A00003B40148019001BD99C4000003B4014850
:1054B000019001BDD54A000003B40148019001BD2F
:1054C0003D29000003B40148019001BD953400005E
:1054D00003B40148019001BD6913000003B4014801
:1054E000019001BDE11D000003B40148019001BD20
:1054F000B55E000003B40148019001BD65B700002E
:1055000003B40148019001BDD5F6000003B4014881
:10551000019001BDDDFB000003B40148019001BD15
:10552000999E000003B40148019001BDED75000093
:1055300003B40148019001BD9D1E000003B4014861
:10554000019001BD01E4000003B40148019001BDD8
:105550007DE5000003B40148019001BDD1000100C8
:1055600003B40148019001BDD1EB000003B4014830
:10557000019001BDF50D010003B40148019001BD8A
:105580002D68000003B40148019001BDB90D010070
:1055900003B40148019001BDFDE2000003B40148DD
:1055A000019001BDE9E3000003B40148019001BD91
:1055B0003DE4000010B5034A1321034800F068FDE4
:1055C00010BD0000440A00206C23002010B5002408
:1055D0001346002802D00224204610BD0A46194670
:1055E0000148FFF791FBF7E763230020FFB595B073
:1055F0000025109510AA119500F0A6F806460A2875
:105600007CD204460620444320462030C0B26A467D
:105610000E2108F021FA002802D168468089C5B21F
:1056200017981390404818990078022813D000204A
:105630001290082911D020462130C7B21C22002127
:105640006846FFF767FB6A461C21384608F004FAF3
:10565000002805D010E00120EAE720462230ECE7E0
:105660006846807EC01F092806D8E907C90F6A4628
:10567000129B1398FFF754FB1422002107A8FFF791
:1056800049FB20462430C0B207AA102108F0E4F9F3
:10569000002812D11022FF2107A8FFF747FB00289E
:1056A0000BD12534E0B20BAA042108F0D5F9E907A3
:1056B000C90F07AA1798FFF73FFB7036F0B20CAA84
:1056C000102108F0C9F9002811D10CA803F0AFFE91
:1056D00000240CAEA00080190188002903D0827834
:1056E000179800F031FD641CE4B2042CF2D3A80733
:1056F00004D50D48017B179800F014FD1898042874
:105700000FD10949087802280BD10A791798002A85
:1057100000D001224978002900D004211143FFF76D
:1057200011FB002019B0F0BD0025002010B5054C7C
:10573000A061217B2620FFF70BFB207B00F0A2FC61
:1057400010BD000000250020F0B50A2485B01546E4
:105750000F46002806D0012804D0022810D00328C4
:1057600046D11FE0084603F02FFE04460A283FD228
:10577000002D3DD0062239462846FFF7C5FA37E00E
:105780001D4E00240E206043801906223946801DDC
:10579000FFF7E4FA002823D1641CE4B20A2CF1D309
:1057A0000A241DE000242046062148432330C0B2CD
:1057B0006A46102108F050F900280CD11022FF2170
:1057C0006846FFF7B3FA002805D139466846FFF767
:1057D000CBFA002804D0641CE4B20A2CE3D3DFE740
:1057E0000A2C05D2002D03D02946204603F004FEE2
:1057F000204605B0F0BD0000842D002070B50C4699
:105800000146032000020A1A002534481300FFF75E
:10581000B1FA1D1012151C1F2326282C30323438E3
:105820003A3C3E40424446484A4E50525A545658DA
:105830005A00C07911E01022294902E028491022BB
:1058400010312046FFF760FA45E0C06A206042E070
:10585000224906223C31F4E7007820703BE0808941
:1058600036E01E4942784231EBE71D4982781F3904
:10587000E7E7007AF1E7407AEFE71849062230318E
:10588000DFE7807AE9E7C07AE7E7C08920E0808A2D
:105890001EE0C0781CE0C08A1AE0008B18E0408B44
:1058A00016E0808B14E00D4906223631C9E7C08B23
:1058B0000EE0008C0CE0408C0AE08079CDE7008A95
:1058C00006E0408A04E0272904D20846FFF758FA88
:1058D000208000E00225284670BD0000A825002099
:1058E0004F2E002070B50E4C00256071A571691E09
:1058F000E181FFF74BFA0420E071102200210948F2
:10590000FFF708FA0748102200211030FFF702FACB
:10591000E562257265720120A072E57270BD00001B
:10592000A82500204F2E0020FEB53B4D0C46080454
:105930000CD56879FFF730FA050004D003F080FE3B
:105940002846FFF72FFA0120C00360E0600403D56A
:10595000012080034840FEBD2F48E10701268079E1
:1059600000292AD02978002920D0052821D0287A9A
:1059700069460870687A4870274900A806223031C5
:105980000230FFF7C1F9A87A69460872E87A4872CE
:105990006879FFF70DFA002808D00720A871696A16
:1059A000002903D00968002900D0884720467040AC
:1059B000FEBD032069460870E5E7A1070DD505285F
:1059C00009D1E889FFF7FAF9AA8A002A03D002214F
:1059D0006879FFF7F9F9022019E0600704D5002083
:1059E00003F06EFE042012E0200712D5287901286A
:1059F00002D002280AD107E00096AB8B6A8B298B74
:105A0000E88A00F00BF801E000F05AF90820604045
:105A1000FEBD0020FEBD0000A8250020F8B5134CF7
:105A2000069DA679052E01D01420F8BD104F861FC3
:105A3000BE4219D2062917D3BE1DB14214D2FF2788
:105A4000F537BA4210D20A2B0ED3B3420CD2E08201
:105A500021836283A383284603F032FE0421607908
:105A6000FFF7B8F90020F8BD1820F8BDA8250020E0
:105A70007A0C0000F7B50C4680490098164642188B
:105A80007F4F00257879B9791300FFF773F9190E64
:105A9000141BE92040455970777E888FE996A2A9AA
:105AA000B4BFC8E9E9E9E9D3E900102C76D11022A6
:105AB000314674486FE0102C70D172481022314684
:105AC000103068E0042C69D13068F862CEE0012C17
:105AD00064D13B7832783A70002B0AD0002A07D183
:105AE000022903D0062901D0042901D1FFF778F952
:105AF000BCE0002A0AD0012905D0032903D00529DA
:105B000001D0042902D10121FFF770F9AEE0022C87
:105B100044D13088B881A9E01F2C3FD858481F22B3
:105B200000214230FFF7F6F8554822463146423010
:105B3000FFF7EAF8524B7C7042332246012112E013
:105B40001F2C7CD84F481F2200211F38FFF7E2F896
:105B50004C48224631461F38FFF7D6F8494BBC70F7
:105B60001F3B224600217879FFF746F983E0012C9C
:105B700065D13078042862D8387277E0012C5ED184
:105B8000307803285BD8787270E0062C57D13C48F7
:105B9000062231463030FFF7B7F867E04FE0012CBE
:105BA0004DD1307807284AD8B8725FE0012C46D131
:105BB0003078032843D8F87258E0022C3FD132885D
:105BC000BA82002A52D0052950D10221FFF7FCF8F1
:105BD0004CE0012C33D13078012830D8F87045E002
:105BE0003088022C2BD1062829D31921C9018842DB
:105BF00025D8F8823AE03088022C20D106281ED31E
:105C00001921C90188421AD838832FE03088022C24
:105C100015D1FF21F531884211D2788326E03088F2
:105C2000022C0CD10A280AD31921C901884206D8AE
:105C3000B8831BE03178012C01D1012901D018254E
:105C400014E00821FFF7DEF8002801D016250DE04A
:105C5000002003F035FD04217879FFF7BBF805E05B
:105C60000098272801D2022C02D002252846FEBD2A
:105C70003188FFF76DF80546F8E70000FFFCFFFFED
:105C8000A82500204F2E00201CB50B4CA17900291F
:105C900001D011201CBD002800D0606206490748D1
:105CA0002C31034601910090103B0022E17960798C
:105CB00000F016F800201CBDA82500205F2E002053
:105CC00010B506488179052901D0122010BDC1897F
:105CD00013224079FFF79CF810BD0000A825002092
:105CE000F8B51D460224069F079E0B00FFF742F8F9
:105CF0000A1508060608150615060615002C0CD10F
:105D0000FFF78CF8040008D1324639462846FFF7E1
:105D10008BF8FFF78FF8FFF793F82046F8BD0000E7
:105D2000014610B50020C90704D0034A04210348E6
:105D300000F0AEF910BD0000580A0020BC2400207D
:105D400070B50F4D0F4CA87029461031204600F059
:105D50001DF8002128460B460830CA00845212184C
:105D6000491C09065360090EF7D0142004F078F896
:105D7000A878FFF76BF80448FFF76EF870BD0000D5
:105D8000A4240020FFFF00008997FF1F70B50A4C74
:105D90000025A04209D1002082008C525218401CDC
:105DA000C0B295700228F7D370BD03F0BCFC002888
:105DB000FAD00480857070BDFFFF0000F8B50E4674
:105DC0000746069900240798002902D00B24204694
:105DD000F8BD022B01D00D24F9E711785278120298
:105DE00089188DB22946814301D08024EFE73846D7
:105DF000F16800F03FF9A842E9D02A463846F16838
:105E000000F0D0F90400E2D171892A46384600F04A
:105E10006DF9DCE770B50C46080412D50A488078A5
:105E2000FEF7BAFF050008D02878B02802D128462E
:105E300003F08AFD2846FEF7B5FF0120C00360404D
:105E400070BD002070BD0000A4240020FFB583B009
:105E5000087A00250C9E1C460F46C0060DD50598F5
:105E600003F05AFC030006D00A22394603989847EB
:105E7000050035D101E00E2532E0387802281DD129
:105E8000786829220178407812020002081881B24D
:105E9000881A91427ED009DC7348081A23D0012861
:105EA00021D002284FD0032808D125E0012872D044
:105EB000022871D003286DD004286ED0059803F015
:105EC00053FC00286AD00568002DD4D00E990D9897
:105ED000019100903346224639460398A84705466B
:105EE000284607B0F0BD0D98002872D1F8680178F7
:105EF00031700278416896E00D98002869D1012040
:105F00003070F8680021007820707889401C80B2D9
:105F1000FEF7A8FF00280DD0317802788918891C77
:105F20003170817A61704189090AA17002784168F3
:105F3000E01C79E030780422001D30700021601CE4
:105F4000FEF7E8FECCE70D98002875D1F86802A9A5
:105F50000088009004203070009820700098000A9B
:105F600060700098FEF77EFF070029D0F868009067
:105F70006846028901AB3D493846FEF779FF0028A3
:105F800010D13B7802213A487A68FEF777FF002863
:105F900008D104E026E030E01CE04AE062E033484B
:105FA000694688800098007802280CD10098022267
:105FB0004168201DFEF7A8FE3078801C307002E09A
:105FC00069460098888068468088A070000AE07062
:105FD00086E731E00D9800282ED1F968039800F08B
:105FE00049F804E00D98002826D1F86800880221BD
:105FF00031702070000A607072E7F868FEF744FFA5
:106000000D99C0B2814212D8814201D1002206E02E
:106010000E9A8918814202D30D99401AC2B2327089
:10602000F9680D9809182046FEF76EFE58E7072517
:1060300056E70D98002801D00B2551E70721F86895
:10604000317001782170417861708178A170418848
:10605000090AE1700179217181796171C088000AB2
:10606000A0713DE700252FE700280000FFFF00009A
:10607000DA2F010010B503F056FB002800D080781D
:1060800010BD00000149087070470000A4240020E2
:106090007CB51546040019D0684601940180FEF7CE
:1060A000F9FE03001DD1002D1BD06489002C0DD0FA
:1060B0000C20FEF7F5FE00280AD000230360848040
:1060C000094A85605168002904D006E0022308E0EF
:1060D000132306E0506004E011460A68002AFBD151
:1060E000086018467CBD0000A4240020F8B50C4CC4
:1060F0000746207815460E46FF280FD00A20FEF7E7
:10610000D5FE01000AD0B120087000204870087147
:106110004F80CE800D812078FEF7CEFEF8BD0000C6
:10612000A424002070B50C4605460649FFF7A2FFDF
:10613000800704D521462846FEF7C4FE70BD012025
:1061400070BD0000B42400201CB56B461A71120A01
:106150005A7100220092022301AA00F001F81CBD2E
:10616000FFB583B008461E4601A90C9FFEF77AFED4
:10617000050014D06846808803F0F6FA00280AD09B
:106180004468002C09D00097F3B22946059A039879
:10619000A04707B0F0BD0024F3E70E20F9E7012087
:1061A000F7E7000070B514460E46054603F0BBFA4B
:1061B000002806D13146054803F0B5FA002803D07F
:1061C00005808470002070BD112070BDFFFF0000AD
:1061D00030B5CC17640F6418E5105543181828180B
:1061E000E2080078D200891AC840C007C00F30BD4D
:1061F000D21DD2084A43C11710B5490F0918CC1057
:10620000C908E318C900D218401A12780721081AE1
:10621000C240D007C00F10BD014610B50020C9070D
:1062200004D0034A07210348FFF732FF10BD0000E6
:106230006C0A00203425002070B50D461646002457
:106240001D490300FEF796FD080512343419342267
:106250002934152D23D8162200211848FEF75AFD9F
:106260002A4631461548FEF74FFD22E0022D16D191
:1062700011491088103908801BE0082D0FD10E48F5
:10628000082231460838FDF779FF12E0012D06D1CA
:10629000CA6909493078283107E0012D01D0182456
:1062A00007E0CA6B04493078483104F04CF800E04C
:1062B0000224204670BD0000342500201A2E002044
:1062C00010B504F045FD044600211C2004F030FC0C
:1062D00000211D2004F02CFC204610BD10B51D220D
:1062E0001C21012004F0D0FD0121084604F04AFDE4
:1062F00010BD38B504466846017042703C21204606
:1063000004F014FD72B6204604F020FE0222694615
:10631000204604F003FE62B6204604F027FE38BD96
:10632000FFB504464E4F81B00020386020461D4620
:10633000BF30FEF7CDFD4B4826460078B23680349C
:106340000828A06E32462CD00121FEF7C7FD444F2D
:106350003078F863761C3046FDF766FF00BA000A15
:10636000F17800020843B863361D3046FDF75CFF44
:1063700000BA000AF178000208437863361D3046FF
:10638000FDF752FF00BA000AF178000208433863B3
:106390000398010202980143F960039F00263F1D04
:1063A0000EE00021D1E7A819401CFDF73DFF0102D6
:1063B000A85D01432C4830180160361DF6B23F1F1E
:1063C000042FF0DA032F04D0022F08D0012F0FD0B2
:1063D00014E0A819FDF728FF0102090A09E0A9192C
:1063E00048780978000208431F497118086003E0E3
:1063F000A95D1D4830180160361DF6B200211A4A09
:1064000002E0B0180160361DFF2EFADD1448174B6C
:1064100043600F230361012303604369002BFCD019
:10642000436901600020039B11E081180968295429
:10643000401CC0B20E0A2E54401C0E0CC0B22E548A
:10644000401CC0B2090E2954401CC0B21B1F002BB7
:10645000EBDCA06E401CA066012005B0F0BD000082
:1064600000000440E511FF1F00010440080F000078
:10647000FFB504464D4F81B00020386020461D46D0
:10648000BF30FEF725FD4A4826460078B2368034F4
:106490000828606E32462BD00021FEF71FFD434FC7
:1064A0003078F863761C3046FDF7BEFE00BA000A6D
:1064B000F17800020843B863361D3046FDF7B4FE9C
:1064C00000BA000AF178000208437863361D3046AE
:1064D000FDF7AAFE00BA000AF1780002084338630B
:1064E0000398029900020843F8600026039F0EE01B
:1064F0000121D2E7A819401CFDF796FEA95D000214
:1065000008432C4971180860361DF6B23F1F042F4E
:10651000F0DA032F04D0022F08D0012F0FD014E09F
:10652000A819FDF781FE0102090A09E0A9194878B6
:106530000978000208431F497118086003E0A95D4B
:106540001C4830180160361DF6B20021194A02E0DD
:10655000B0180160361DFF2EFADD0F2313481B0211
:1065600043600F230361012303604369002BFCD0C8
:10657000016003980023001D11E099180968E9548F
:106580005B1CDBB20E0AEE545B1C0E0CDBB2EE544D
:106590005B1CDBB2090EE9545B1CDBB2001F002858
:1065A000EBDC606E401C606605B0F0BD000004408E
:1065B000E511FF1F00010440F0B589B0FEF794FC1F
:1065C000FE4908600420FEF795FCFEF799FC04469E
:1065D000C00712D0FA490020086072B6FEF796FC98
:1065E000F849F94DF94E02280BD001287ED0F84F1A
:1065F00005287CD004287BD0ADE2FEF78DFC09B0E5
:10660000F0BD08780F46012806D0032804D00228E0
:1066100002D005286DD09EE20720FEF76BFC08AB88
:1066200007AA06A9EB48FEF77DFCEA493439898EB2
:106630000B074906CA0FE7491B0F34390C46403493
:1066400020319446002801D0032B05D0052B6ED0B5
:10665000387801286CD081E23878012801D00328ED
:10666000F9D1D94843695B1C4361DB4B087FDD7975
:10667000A842F0D1487F1D7AA842ECD1887F5D7A8C
:10668000A842E8D1C87F9D7AA842E4D12078DD7A7B
:10669000A842E0D160781D7BA842DCD1F5680020DB
:1066A000AD8D2D072DD5DB7B012B01D0032B28D100
:1066B000C3001F1AC94BDD5D95421DD1FB188D7DAE
:1066C0005F78BD4218D1CD7D9F78BD4214D10D7E3B
:1066D000DF78BD4210D14D7E1F79BD420CD18D7E39
:1066E0005F79BD4208D1CD7E9B7903E0E5E0E6E02D
:1066F0002EE2E0E09D4202D0401C0828D8DB0828AA
:1067000017D0B14D686D401C6865706C002802D0D0
:10671000804700289FD0FEF70BFC01277770FEF71B
:10672000E3FBA6490968884208D9401A09E02CE031
:10673000AFE0A548016A491C01620FE2A84A511A5C
:106740000818F16876230A79181A801A4A6C096CBD
:10675000D2B2C9B2C0B2FEF7F1FBFEF7F5FB984822
:10676000076000207070FEF7F5FBFEF7F9FBA08CC8
:10677000010A9848891C3030FEF7F8FB0E20FEF71E
:10678000B9FBA869401CA861E8E13F78012F01D05E
:10679000022FD2D1E869401CE8618F480B7FC07995
:1067A0008342CAD18C484B7F007A8342C5D18A4844
:1067B0008B7F407A8342C0D18748CB7F807A8342E7
:1067C000BBD185482378C07A8342B6D16078824CA9
:1067D000237B9842B1D1F0680023808D000726D535
:1067E000E07B022801D0032821D1D800C61A7B48BB
:1067F000845D944218D130188C7D4678B44213D110
:10680000CC7D8678B4420FD10C7EC678B4420BD1D1
:106810004C7E0679B44207D18C7E4679B44203D1CE
:10682000CC7E8079844202D05B1C082BDDDB6D4876
:10683000022F1AD10478644527D18A7D4478A24278
:1068400023D1CA7D8478A2421FD10A7EC478A24295
:106850001BD14A7E0479A24217D18A7E4479A24292
:1068600013D1C97E827991420FD1082B0DD0696D69
:106870000622491C6965614601705649401C891C05
:10688000FEF742FAFEF778FB68E1686A401C68622E
:1068900064E15149487BC20701D0252004E080070C
:1068A00001D5262000E02720097D8142ECD9322045
:1068B000FEF768FB52E107204EE106204CE1087824
:1068C000072879D10B20FEF715FB4149FF220978F3
:1068D00025325143444A00208B1858705054434885
:1068E0000068002805D0FEF753FB40490978C840EE
:1068F00005E0FEF74DFB3E490968FEF7FFF9074644
:10690000E00535D539480068002805D0FEF746FB7C
:1069100036490978C84005E0FEF740FB344909686C
:10692000FEF7ECF92A4B00901878FF2125314843F7
:106930002D4940180279002A01D000220271234A11
:106940007130121D911D07F03FFDF1680098C96874
:10695000381A411827480160600526D51C49FF22D6
:10696000097825325143204A0120891848701CE0DB
:106970001748FF22007825321B4B01215043195440
:10698000296DFF3F491C2965F1680F3F0969C0184F
:10699000CA19184920300A60407E4100164808187C
:1069A000FF300130018D491C01852046009906F019
:1069B000CFFBFEF7F9FA21E0CDE000001C12FF1F2B
:1069C0001812FF1FE511FF1F0C31FF1FC02A002006
:1069D0001512FF1FF82BFF1F442AFF1F892BFF1FD3
:1069E00040420F000C12FF1F5C2AFF1F2410FF1FE4
:1069F0002010FF1F2012FF1FB038002061490746FA
:106A000008700020087248728872C8725E4804429A
:106A100002D0E86C401CE8645C48FF220078253214
:106A200050435B4A57498318D81DF930827C06923F
:106A30008A1DFF33C07C491C1333FEF7BBFA0246A4
:106A40005248FF2100782531484351494018C11D63
:106A5000F931CA740279002A0CD10223069A897C82
:106A60001A4019408A4205D046494A78002A01D185
:106A700001224A70474949688E220904090E039190
:106A8000125C002A02D0AA6ED219AA662030407E7B
:106A9000414D40004019C030C18BC919C183FEF778
:106AA0008FFA01463948FF22007825325043384A90
:106AB00080182030407E400040198030828A89183A
:106AC000818207AA05A904A8FEF780FA2F48FF21B2
:106AD0000078253148432E4940182030407E6946D1
:106AE00040002A5A097D5118295240194030694600
:106AF0004289097C51184181600705D50398874276
:106B000002D23846FEF768FAFEF76CFA1D480021FB
:106B1000224B81701A78012A0CD1002F0AD0204A0A
:106B20001469002C03D0127DD243920702D00122B7
:106B3000827019708079002801D0FEF759FAFEF7AB
:106B40005DFAF078002809D03189FEF74FF905E0A9
:106B50000878082809D00520FEF7CCF9FEF7DCF903
:106B600062B60320FEF7C6F949E53878FF212531E2
:106B7000484307490B4A4018911D713007F024FC27
:106B80000920E9E78031FF1F020800001512FF1FEE
:106B90005C2AFF1F00100340B03800201312FF1FB3
:106BA000442FFF1FC42A0020F8B58E4F079CBE1D3E
:106BB0009C460D46002A1FD0012A05D0032A0ED07C
:106BC000022A0CD0042A59D1002C57D0069900294A
:106BD00001D0012952D1032A01D0022A0AD101464B
:106BE000814BA039994249D2A02D47D30121890375
:106BF0008D4243D8002A0BD17B4B0146203980338C
:106C000099423BD2202D39D3012189038D4235D8B9
:106C1000854233D36146002901D001292ED109993B
:106C2000002905D0012903D0022901D0032925D14B
:106C30000899490722D06D4B9988012920D09A7371
:106C400008994907490F59731CD06849099BCB73B0
:106C50006346002B1BD001238B713378CB71737883
:106C60000B72B3784B72F3788B723379CB72737982
:106C70000B73012A19D0042A28D036E01220F8BD5F
:106C80000C20F8BD5948072141733020F8BD00237E
:106C90008B713B78CB717B780B72BB784B72FB7836
:106CA0008B723B79CB727B79E2E75148069B03708C
:106CB0002378437063788370A378C370E37803719B
:106CC000237943716379837102200EE0484B069E5D
:106CD0001E7026785E7066789E70A678DE70E67804
:106CE0001E7126795E7164799C7148801300FEF7ED
:106CF00041F80504060A08060B00002504E00125FA
:106D000002E0022500E006253A4E8A79B0880C465A
:106D10000009000128434023910198430143D00119
:106D2000802291430843B0800622E11DB01DFDF78B
:106D3000EBFF37464037B88CA179000900014022AB
:106D4000001D904389010143B98430460622E11DAC
:106D50006630FDF7D9FFA07C0321000249024118EB
:106D6000B2883F2000028243114389B2B180012DD5
:106D700012D18143032080020818B0801C49BB8CCB
:106D8000087880229343C0011843B8843046062215
:106D90000C30491CFDF7B8FF1748017808291AD0B4
:106DA000072918D0A17B0B00FDF7E4FF05040810AC
:106DB0000C081700012101701F200AE00221017058
:106DC000202006E004210170222002E0032101704E
:106DD0002120FEF78FF80020F8BD002101701E2051
:106DE000F7E70000F911FF1F613F0000442AFF1F71
:106DF0000C12FF1FC42BFF1FE511FF1F10B50E481B
:106E00000E4B0278FF20253042430021D018FF248A
:106E1000C170133421549954012302460371603226
:106E2000937113742023816119548E231954517462
:106E30000521818110BD00001512FF1F5C2AFF1F74
:106E4000FEB572B65548C068476D866D082F01D8EB
:106E5000002F00D10427082E01D8002E00D10426CF
:106E60004F48504D816C504C491C81642878FF215B
:106E70002531484300192030407E41004B48081816
:106E8000FF304130418E491C4186FEF7BDF8FEF7C8
:106E900061F8FEF765F82878FF212531484300198D
:106EA000806AFEF7B7F82878FF212531484300199A
:106EB000406AFEF7B5F82878FF21253148430019CC
:106EC0002030407EFEF7B2F82878FF212531484374
:106ED00000192030407EFEF7AFF82978FF202530DA
:106EE000414308190279002A0BD02E21095C304A4F
:106EF00040695143400009182848C068C06F08180D
:106F000015E0615C0029254909D0CA684069096C0F
:106F1000136940185B0040001818D16C06E0C9687E
:106F20004069CA6840005200C96C10184018FEF74A
:106F300089F81A4DE868806CFEF78AF8E868416CB9
:106F4000CAB2016C808FC9B2C0B2FDF7F7FF04204E
:106F5000FEF784F80720FEF787F802A93846FEF707
:106F600089F869460989C2B201250E480191009548
:106F70000078FF21253148430019FF300130817C22
:106F8000F3B23020FEF77CF8FDF7DEFF094805601C
:106F900062B61420FDF7AEFFFEBD0000C02A00203F
:106FA0000C31FF1F1512FF1F5C2AFF1FB038002095
:106FB000710200001812FF1F002805DBC106C90E70
:106FC00001208840014908607047000000E100E0AE
:106FD0008307FF22DB0E9A408907090E994000289B
:106FE00008DB830809489B001818036893430B4388
:106FF000036070470007000F0838830804489B00AF
:107000001818C36993430B43C361704700E400E061
:1070100000ED00E08307FF22DB0E9A408907090E8E
:107020009940002808DB830809489B00181803686A
:1070300093430B43036070470007000F0838830831
:1070400004489B001818C36993430B43C3617047FE
:1070500000E400E000ED00E0CB1710B55B0F5B181B
:10706000DC10E401241824B2802813DA402911DA54
:1070700000280FDB00290DDB0848DB080019DB00C6
:10708000CB1A012199401230012A0278C9B202D0EC
:107090008A43027010BD0A43FBE700000834002059
:1070A0004023181A00B2C31710B55B0F1B18DC1071
:1070B000E401641824B2802913DA402811DA002987
:1070C0000FDB00280DDB0849DB080919DB00C31AB8
:1070D000012098401231012A0A78C0B202D08243BE
:1070E0000A7010BD0243FBE7083400200249014842
:1070F0000860704740787D018C2A002010B572B678
:107100001948C068C00703D01748001FFDF7BEFF2D
:10711000154C403CA06BC00707D013481838FDF74A
:10712000B5FF12480168491C0160606AC0070CD0B5
:10713000E16A0F48C162A16941630B482C38FDF731
:10714000A5FF0C480168491C01602069C00707D0F1
:107150002046FDF79BFF2046FDF79EFFFDF7A2FFAF
:1071600062B6002010BD0000401002402C10FF1F2E
:10717000C02A00203010FF1FF8B50646002701F096
:1071800099F904460648051B06E001F093F9A04270
:1071900001D3071B00E02F18B742F6D3F8BD00005B
:1071A000FFFFFF00FEB50446014630A006F010FDCB
:1071B000334D052C07D028780127052809D0002653
:1071C00002282BD02CE02E492E48091DFEF716FB75
:1071D00049E0684607700121A88809F021FB042CCA
:1071E00009D120210820FDF7B3FD20210920FDF75A
:1071F000AFFD254908E020210820FDF7A9FD202149
:107200000920FDF7A5FD00210020FDF7A1FD1D4887
:107210006A4601210938FEF72DFC24E0032C02D038
:10722000012C0DD01FE06878002801D06E701AE0A4
:107230000820FDF7A5FD202815D168460770DAE77C
:10724000C12069468000FEF7D9FA69464879C871BD
:1072500008798871C87848710E71CE706A46082125
:107260000020FEF7B3F92C70FEBD00005772697361
:1072700074476170537461746543423A2025640019
:10728000842600200E0300003075000010B50A4669
:107290000021FFF72EF810BD0FB410B504A9074B5D
:1072A00002AA039800F03AF9044602A9002000F06F
:1072B000D1FC204610BC08BC04B01847557CFF1F09
:1072C0002021020C01D010211046020A01D01046E4
:1072D0000839020901D01046091F820801D0104662
:1072E000891E420801D0881E7047081A70470000A6
:1072F00000487047602B002002E008C8121F08C138
:10730000002AFAD170477047002001E001C1121F26
:10731000002AFBD170470000F0B51FB486B0099871
:10732000089A030D0021024314D05148514A1818FD
:10733000504305141198012810981AD0281A401C9F
:1073400000264D4F4D49009601910490002812DA15
:10735000444211E01198012449A3012801D1109859
:10736000C1430698119A84600360C26041600BB00B
:10737000F0BD4042E4E70446210500203F4A001CDE
:1073800051410391029012E0E00707D032463B469C
:1073900001990098FDF740F80191009032463B4674
:1073A00010461946FDF738F806460F466410002CC3
:1073B000EAD10498039B0028029A0999089806DAF2
:1073C000FDF72AF8019B009AFDF726F805E0FDF786
:1073D0008BF8019B009AFDF787F804460E460022C1
:1073E000284BFDF7A9FB03D80020C043014607E066
:1073F0000022254B20463146FDF7CCFAFDF77CFBF9
:10740000102409E0002C0ADB0A220023FDF767F9AB
:10741000079B30321A55641E02460A43F2D11122EC
:10742000641C079B121B1C19119B012B03D0012309
:1074300008430ED10AE0084304D011201090002028
:10744000119077E71098151A6D1E0BE01098824284
:1074500002DD00236D1C03E0824201DA00236D1E71
:10746000002BEED0069811998260C16030C07EE793
:1074700001FCFFFF104D0000000014400000F03F31
:10748000300000000000F0430000E03FFFB581B095
:107490001E46174605460A9C04F0D6F800901A4886
:1074A000854205D019498D4202D0062005B0F0BDB5
:1074B0002846029903F03AFC72B6284603F046FDCE
:1074C0002F610020FF212F46013102E03961401C6D
:1074D000C0B2A042FAD362B6286F000706D5286969
:1074E000641E3070761C2406240E0BD0009803F026
:1074F000CBFD642161438842EED905A006F068FB0C
:107500000D20D3E70020D1E7005000400058004094
:1075100049324320524420544F0A0000FFB597B02F
:107520000646002518E2252877D100242746FD4984
:10753000049400E00443761C32780120203A904005
:107540000842F7D130782A280ED00222307801463E
:107550003039092916D804990A235943303940187B
:107560001443761C0490F1E7189802C8049118900F
:10757000002904DA01204003044348420490022019
:107580000443761C30782E2814D1042004437078EC
:10759000761C2A2809D11898761C80C8189009E012
:1075A0000A214F43303FC719761C307801463039E5
:1075B0000929F5D930786C2810D006DC4C281AD06F
:1075C00068280ED06A2817D104E0742813D07A28CE
:1075D00012D110E00120400504430CE0012109050F
:1075E00001E0032109050C437178814203D1012098
:1075F00000052418761C761C3078119066280BD074
:1076000013DC58287DD009DC00287BD04528F6D033
:107610004628F4D047281AD1A5E118E0632835D0D0
:10762000642870D0652812D19DE170286CD008DCE8
:107630006728F1D069287BD06E280DD06F2806D13D
:10764000BAE073282ED0752871D0782859D01A9AAC
:10765000199990476D1C7EE16002400F022809D005
:1076600003280DD00428189801680DD00D60001D66
:10767000189070E11898EA1701680D604A60F6E703
:10768000189801680D80F2E70D70F0E718986A46C7
:1076900001781172001D18900020507202A800900D
:1076A000012005E0189802C8189000200091C043FE
:1076B00061070DD5002101E00199491C0191B942F2
:1076C00012DA8142F8DB009A515C0029F4D10BE018
:1076D000002101E00199491C01918142FADB019AE4
:1076E0000099895C0029F5D1019904981A9B471AE1
:1076F00021463846199A00F097FA01994019451821
:107700000BE04FE02CE113E04EE000980099007888
:10771000491C00911A9A199990470198401E0190AE
:10772000401CF2D1214638461A9B199A10E137E0E5
:107730000A200021009001916002410F022907D028
:10774000189A01CA1892C2179446032908D00AE071
:107750001898C01DC108C90005C91891944607E0D2
:1077600000B2C2179446042902D140B2C1178C4618
:1077700000226146944506DA0A46002140429141C2
:107780008C462D2102E0210504D52B216A46117378
:10779000012103E0E10701D02021F7E7029155E044
:1077A0000A200AE0102008E01020009000210420A8
:1077B00004430191082703E0082000210191009073
:1077C0006002410F022907D0189A01CA18920022BC
:1077D0009446032908D008E01898C01DC108C900C4
:1077E00005C91891944603E080B2042900D1C0B2C3
:1077F00000210291210729D51199702906D0009AFC
:107800001021019B4A401A4305D00EE040216A46F0
:107810001173012108E06146014306D030216A4618
:1078200011731199517302210291009A0821019B51
:107830004A401A430AD16146014301D1610705D587
:1078400030216A46117301217F1E02911199582936
:1078500004D035A10E910DA90D910DE037A1F9E7E6
:107860006146019B009AFCF73AFF0E9B8C469B5C9D
:107870000D9A521E0D92137061460143F0D10D987E
:1078800005A9081A20300190600703D501200004E3
:10789000844300E001270198874201DD381A00E0A7
:1078A0000020019900904118029809180498401A84
:1078B0000490E00306D421461A9B199A049800F01C
:1078C000B3F94519002706E003A81A9AC05D199973
:1078D00090476D1C7F1C02988742F5DBE0030CD5B6
:1078E00021461A9B199A049800F09EF9451904E064
:1078F0001A9A3020199990476D1C0099481E0090E3
:107900000029F5DC08E00D980D990078491C0D91CF
:107910001A9A199990476D1C0199481E01900029E7
:10792000F1DC63E109280100303132333435363778
:1079300038396162636465660000000030313233BB
:10794000343536373839414243444546000000005B
:1079500000F05AF94519761C3078002800D0E2E58D
:1079600028461BB0F0BD600700D406271898C01D3C
:10797000C108C90048680A680831C30FDB071891BD
:10798000190001D09CA108E0210501D59BA104E0CC
:10799000E10701D09AA100E09AA1430011985B0889
:1079A000109165280CD006DC452809D046281DD04A
:1079B000472841D141E0662818D067283CD13CE0F7
:1079C0000021112F01DB112000E0781C01910090B3
:1079D00008A911A8FFF7A0FC139905910021119A9D
:1079E00015927F1C12980197009150E00120C0076A
:1079F00003900120019008A9009711A8FFF78CFCC3
:107A0000139A149905920022119B009212981593D3
:107A1000059A0192002901D0104602E0791C401815
:107A20000190381A01D5019804E04042401E0090B0
:107A3000781C0190C01B029043E0012F00DA01275F
:107A40000021112F01DD112000E038460191009046
:107A500008A911A8FFF760FC13990591119A00215C
:107A6000129815920091019721070CD40599B942FB
:107A700001DB019900E00191012904DD159A491EFD
:107A8000515C302906D0B84201DA011D05DA012126
:107A9000029115E00199491EEDE7002805DC0099E7
:107AA000411800910199091A03E0019A411C914281
:107AB00000DD01910099401A401C02900120C0078E
:107AC0000390200706D402990198814202DB00202E
:107AD000C043029000206946C87707AF0121039890
:107AE0000337C907884224D0022011902B2012901E
:107AF000039800280CDA404203902D20129007E0F2
:107B00000A210398FDF7FAF830317F1E039039708F
:107B10001199481E11900029F2DC03980028EFD13A
:107B2000791E129808703078202108404530BF1E19
:107B3000387006A8C01BC01D03901098007800285C
:107B400000D00120019941180298C0170918039824
:107B500009180498401A401E0490E00306D42146F8
:107B60001A9B199A049800F05FF84519109800784C
:107B7000002803D01A9A199990476D1CE00324D568
:107B800021461A9B199A049800F04EF845191CE0FA
:107B90000098002807DB00990598884203DD1598B6
:107BA000405C199901E0199930201A9A9047009881
:107BB0006D1C401C00900298401E0290002804D1C9
:107BC0001A9A2E20199990476D1C0199481E019010
:107BD0000029DDDC05E038781A9A7F1C1999904756
:107BE0006D1C0399481E03900029F4DC21461A9B62
:107BF000199A0498ACE600002D0000002B0000004C
:107C00002000000000000000F8B5044600251E46D4
:107C10001746880404D405E039462020B0476D1C7F
:107C2000641EF9D52846F8BDFFB50446002581B08D
:107C30001E46C80301D5302700E02027880404D55C
:107C400005E038460399B0476D1C641EF9D52846F7
:107C500005B0F0BD0A68531C0B601070704700003F
:107C600004490868FF22120290430122D203104304
:107C7000086070471CE400E030B58BB04A4C6A469F
:107C8000A070012010750721117600211181107359
:107C9000142010841E201082FF209183F5309084E0
:107CA00042A003C80191009006214248FDF7E2FE80
:107CB000C32006AA01218000FDF7DCFE3D4805AA8D
:107CC0000121801FFDF7D6FE3A4802AA0221401F7B
:107CD000FDF7D0FE2246612018320B21C000FDF7CF
:107CE000C9FE3448A21D0721001FFDF7C3FE312045
:107CF00003AA01210001FDF7BDFE2E4808AA0221BA
:107D0000801DFDF7B7FE2B4804AA0221C01DFDF718
:107D1000B1FE284807AA02210830FDF7ABFEC520B6
:107D200009AA02218000FDF7A5FE22462332152173
:107D30000020FEF781FAFF25913529460620FDF740
:107D400007F829460720FDF703F829460820FCF725
:107D5000FFFF29460920FCF7FBFF0025ED432846DD
:107D6000FEF75AFA2846FDF7DBFFFDF723FC124821
:107D700008F03AFD05F0FEFE00F030F90121A07890
:107D8000FDF734F804F090F90C4801F081F90C4843
:107D900006F004FF07F0BAF900F076FA094804F09B
:107DA0000BF80BB030BD0000842600200102030454
:107DB000050600000B03000031070020E1D5FF1F7E
:107DC00095D8FF1F19D6FF1F70B50C4608041BD5A8
:107DD0003B4EB078FCF7E0FF050012D02878B128C0
:107DE0000CD138A005F0F4FE2889022806D13BA06A
:107DF00005F0EEFEB178B088FEF794F92846FCF75E
:107E0000D1FF0120C00357E0E00708D02C48103014
:107E1000FDF73AFF3848FDF789FC01204CE0600788
:107E200003D500F065F9042046E0A00704D5002042
:107E300007F070FE02203FE0200704D5002007F085
:107E40006DF9082038E0E00603D501F099F910201B
:107E500032E0A00603D500F039FA20202CE02006FD
:107E60000FD500F0E3F9002801D0012500E002253C
:107E7000294622A005F0ACFE284606F071FF8020BE
:107E80001AE0600604D5032006F06AFF402013E0E4
:107E9000E00504D500F0DCFFFF2001300CE0A00578
:107EA00004D504F0D9F90120400205E0600505D5AC
:107EB00003F0A6F801208002604070BD002070BD74
:107EC00084260020474154545F534552565F4D531A
:107ED000475F4556454E540A00000000496E6469EC
:107EE0006361746520736572766963652063686198
:107EF0006E67650A00000000E40A00206261747485
:107F00005F6576745F742025640A000038B5154DEE
:107F10000446A98828684904C00B0843009000F073
:107F2000C9FAA968814204D90099FF31FF310231B1
:107F300000910099C00B401800906846FCF710FCB7
:107F4000017C094A491C2171818A8918E180017BE1
:107F5000E170017AA17001796170007820700020D1
:107F600038BD0000883800206C07000070B504465A
:107F700000F0A0FA05462046FCF7BAF804460026B1
:107F800021460BA005F024FE610CF2030A43E10335
:107F9000481B0849B24125C107A005F019FE102170
:107FA000044805F0D7FE0CA005F012FE70BD0000DD
:107FB00025780000883800206170705F6461746506
:107FC00074696D655F61646A7573745F626173651E
:107FD0006C696E653A0A00000A00000000B58FB0B7
:107FE00003A802F053F803AB07CB02900191009273
:107FF00008490898079A411807A0521C069B05F0EB
:10800000E7FD03A8FFF7B2FF104800F09BFF0FB099
:1080100000BD00006C070000636865636B5F64650A
:108020006661756C745F6461746574696D650A542A
:10803000696D652069732025642D25642D25642CC8
:108040002025643A25643A2564000000307500005C
:10805000F3B591B02C2103A8FCF7A9F810A8007A79
:108060000E90401E079010A8408912490F904018AA
:10807000089010A8C77906978479059445790495E6
:1080800006790DA0039605F0A3FD694670C13B4635
:108090000EA00E9A0F9905F09BFD03A8FFF766FF4F
:1080A0001021114805F056FE10A005F091FD0020AA
:1080B00013B0F0BD94F8FFFF0A6170705F646174E3
:1080C0006574696D655F7365743A0A0054696D651E
:1080D0002069732025642D25642D25642C202564BA
:1080E0003A25643A25640A00883800200A00000016
:1080F00030B585B000F0DEF910498A68824208D9AF
:1081000001250B682D064A685B19002462410B604B
:108110004A6088600A4800F015FF03A8FFF7F6FEE2
:108120006C46A07B227B617B6B4607C3E37B227C92
:10813000618A04A005F04CFD05B030BD88380020F0
:108140003075000054696D652069732025642D2504
:10815000642D25642C2025643A25643A25640A00A0
:1081600010B5FCF7A5FF0120FCF7A8FFFCF7ACFF5A
:10817000002010BDF0B500248E464A1E12E0714664
:1081800000230D1B6D1E0AE09E0031188C46875996
:1081900049688F4202D9815161464F605B1C9D4204
:1081A000F2D8641C9442EAD3F0BD000010B5016817
:1081B000134C012923D1017B80680023012202F0A6
:1081C000F7FBFCF75CFA0F4A0F4BFCF725F9FCF7BD
:1081D0006AFAA060FCF726FA7D21C9004843606076
:1081E0000A49A068FCF790F8FCF71CFA014608A0C1
:1081F00005F0EEFC0C4840210078FCF7F7FD10BDBF
:10820000442F0020CDCCCCCCCCCC124000007A4402
:10821000626174745F6D6561737572655F657674B4
:108220002025640A0000000086260020014800780E
:1082300070470000442F002010B50C460AA005F03E
:10824000C7FC10480E4A0178002C08D0002905D040
:108250000021017080211078FCF7C8FD10BD0029B5
:10826000FCD10121F5E70000626174745F6368610D
:108270007267655F6576745F68646C2025640A00C8
:1082800086260020442F002010B50BA005F0A0FC8E
:108290000C4800210160416081600B2002F074FCF9
:1082A000094A0C20114602F029FDFF20F53000F0AC
:1082B00033F8002010BD0000626174745F696E695C
:1082C000740A0000442F00203982FF1F10B500F00F
:1082D00007F8024800F020F810BD000030750000DB
:1082E00010B507A005F074FC09480A4A016803208C
:1082F00002F064FA002801D102F0EAFA10BD000091
:10830000626174745F6D6561737572650A00000067
:10831000100B0020AD81FF1F024610B5034820213D
:108320000078FCF751FD002010BD000086260020DB
:108330000148806870470000442F002001484068D1
:1083400070470000442F002010B505231B221F2179
:108350000D4806F011FC0C4C0C4B08340722102180
:10836000204606F009FC062201231146204606F0AD
:1083700003FC05481438416A012211434162C16976
:10838000034A1143C16110BD14F00040FB0300001B
:1083900004003E0010B50020054CFF212218401CAF
:1083A00051704028FADB05F06BFE207010BD000014
:1083B000943A002010B50020054CFF212218401CE3
:1083C00051700628FADB05F079FE207010BD000020
:1083D000532B002010B503460022104603E09C5C9E
:1083E0006040521CD2B28A42F9D310BDF0B5864625
:1083F000080CFF268446002388B237461C461946DF
:1084000001228A4005461540CD402C19A4B2FF2F09
:1084100002D1012C00D18FB265462A40CA40D21841
:1084200093B2FF2E02D1012B00D18EB2491C10292C
:10843000E6DB012C02D0102C08D009E0012B07D17B
:108440003001C019714608700220F0BD102B01D018
:108450000320F0BD0120F0BD10B528210148FBF735
:10846000A6FE10BD04330020032806D3012189078E
:108470008B680122824093438B607047032806D3A8
:10848000012189078B680122824013438B6070476A
:1084900001480068704700001410FF1F0122920776
:1084A0001368012181408B431360106808431060FA
:1084B000704700000449886A0202886A120A0002B2
:1084C000000A9042F7D1704700F00040F3B5244C09
:1084D000064683B0606900900498001FC7B2B07868
:1084E0008106890E85090191607E1034002D0BD024
:1084F000012D09D0002822D021780198814220D076
:10850000002020700A2216E080210098FBF74FFE21
:108510003A46F11C0098FBF731FE019820700020CC
:1085200067706072002D03D105F028F8002202E088
:108530000120607202463046049900F029F805B027
:10854000F0BD617800983A460818F11CFBF716FE5A
:108550006078C0196070022DEAD100206072E3E7F4
:10856000982E002030B587B00C4605461821684685
:10857000FBF71DFE68468470002203E0A95C8318A7
:10858000D970521CA242F9DB08F062F907B030BD85
:1085900010B588B003786C462370012901D9407862
:1085A00000E000206070A27003212046FFF712FF58
:1085B0006946C8700446182101A8FBF7F8FD04209D
:1085C000694688710878C871487808728878487256
:1085D0008C7201A808F03CF908B010BDF3B587B063
:1085E000044605A8FFF792FCA0787D2109014118F7
:1085F0006F467982E2783A742379FB736079B873B5
:10860000A5797D73E6793E7361C706A005F0E0FAAF
:1086100003CFFFF71DFDC2B220460899FFF7B8FF50
:1086200009B0F0BD636D645F7365745F74696D65F7
:108630003A2025642C25642C25642C25642C252CBB
:1086400025640A0010B504460120FEF795FD114986
:10865000CB6A1148C26A934202D2C96A511A00E039
:1086600000210163FFF726FF0C490123C8620119AD
:108670000A4608321B069A4203D309310902090A45
:10868000641A01190648C162416A2922D2031143C2
:10869000416210BD00100240C02A00200012FF1FDE
:1086A00000F00040F8B5496894460A784978069881
:1086B000090251188FB2444A11210025079CBE1AA5
:1086C000091A974243D009DC404ABA1813D0012A4C
:1086D0001CD0022A25D0032A08D12EE0012E40D03A
:1086E000022E48D0032E50D0292E5AD000201870C8
:1086F0000A252846F8BD082855D20821091AA142A2
:1087000000D80C46E2B21A70314957E00C284AD220
:108710000C21091AA14200D80C46E2B21A702D4968
:108720004CE00D283FD20D21091AA14200D80C4679
:108730002849E2B21A700D3140E0112833D2A1422B
:1087400000D80C462349E2B21A701B3136E01128DA
:1087500029D2A14200D80C461E49E2B21A702D312E
:108760002CE011281FD2A14200D80C461949E2B2D0
:108770001A703F3122E0112815D2A14200D80C46D0
:108780001449E2B21A70513118E00E280BD20E21B2
:10879000091AA14200D80C460E49E2B21A706331A0
:1087A0000CE0072801D30725A3E70721091AA142F6
:1087B00000D80C460649E2B21A70C91F0918604673
:1087C000FCF7A2FA95E70000272A0000DDD5FFFF9D
:1087D00063230020D0090020F7B584B06846858A5D
:1087E000C08A2C4C0090400703D16846408B40075C
:1087F00007D06846008B03906846408B00270290A4
:1088000034E0002200991046C9088C4611E0634606
:1088100000219B18DB0105E05E1876193619491C0A
:10882000B07489B26F461826BE5F8E42F4DC521CCB
:1088300092B26B461A21595ECB175B0F5918C910BB
:108840009142E4DC15E000980026381800B201904F
:1088500007E0701900B200220199FEF7FDFB761CBB
:10886000B6B203988642F4D37F1CBFB20298874207
:10887000E9D320890822401C2081204605A90A301E
:10888000FBF77CFC082205A90498FBF777FC07B0EE
:10889000F0BD000008340020FFB589B00A980890A8
:1088A0001F46154600241846FCF714FC86B2002D1E
:1088B00007D0012D03D0022D05D0032D05D07C2536
:1088C00004E09B2502E0872500E091250020694611
:1088D0008880C880088148818882C882088348834C
:1088E0001CE0385D014630390A2903D36946088CFB
:1088F000083010E02818303882B203A8089900F038
:1089000067F804990398069105906946088C098BCD
:1089100040186946401C641C0884A4B2B442E0D3E9
:108920000A46098D9180508DD080128C511A6A466A
:10893000491C1181518BD28A8918081A6A465081C4
:10894000082201A90998FBF719FC0DB0F0BDF7B595
:1089500084B06946088B0290488B0190142616203B
:108960008E5F085E0025009011E000980024281812
:1089700007B207E0A019394600B20122FEF76CFBEE
:10898000641C24B202988442F4DB6D1C2DB2019861
:108990008542EADB082205A90498FBF7EFFB07B044
:1089A000F0BD00001CB500236C4623806380A380CB
:1089B000E380B22A04D908222146FBF7DFFB1CBD65
:1089C000024B92009A5800F019F81CBD9C27002019
:1089D0001CB500236C4623806380A380E380B22A09
:1089E00004D908222146FBF7C9FB1CBD024B9200AB
:1089F0009A5800F085F81CBD9C270020F7B53F4829
:108A000088B084460A982425047841780191694603
:108A100026204D5F085E0090079000200881488165
:108A20008881C88101990098084342070098C017BF
:108A3000410F009808180590002A01D0002743E054
:108A40006A462620105E0021C217520F1018C71068
:108A50000198C00886461BE0002015E07A1811D462
:108A60002B180FD4802B0DDC102A0BDC0B460A9E32
:108A700063439E19031DF35C6646D201AE191218BA
:108A8000B2189374401C00B2A042E7DB491C09B243
:108A90008E45E1DC1BE007980026381800B20490F0
:108AA0000EE00A9B2246394630461B1DFDF790FB1F
:108AB0000246701900B20499FEF7CEFA761C36B25F
:108AC000A642EEDB7F1C3FB201988742E3DB69469A
:108AD0000D8105990098C908C900411A401A6946D4
:108AE00048818C8101980822C01DC008C000C8813F
:108AF00002A90898FBF742FB0BB0F0BD0834002038
:108B0000F7B58AB016785078089069462C20085E30
:108B1000049005902E20085E0290039000200880AB
:108B2000488088801746C880054618E003980024CE
:108B3000281800B206900EE03B1D3246294620461A
:108B4000FDF746FB024605980699201800B2FEF78D
:108B5000A7FA641C24B2B442EEDB6D1C2DB2089857
:108B60008542E3DB69460498088002980822C11711
:108B7000490F0918C908C900411A401A69464880B6
:108B80008E800898C01DC008C000C8800A98FBF7F6
:108B9000F5FA0DB0F0BDF7B58AB0107809905078AD
:108BA000089069462C20D678085E049005902E2007
:108BB000085E174602900390002E00D1099E002007
:108BC000088048808880C880054618E00398002403
:108BD000281800B206900EE03B1D29462046099A4F
:108BE000FDF706FB024605980699201800B2FEF72D
:108BF00057FA641C24B2B442EEDB6D1C2DB2089807
:108C00008542E3DB69460498088002980822C11770
:108C1000490F0918C908C900411A401A6946488015
:108C20008E800898C01DC008C000C8800A98FBF755
:108C3000A5FA0DB0F0BD00007FB50E4C03F067F94A
:108C40000D492046FBF7B3FA0025258025810B4806
:108C500006F0A6F8606069460D804D80802088800F
:108C60004020C88002A8019A0099FFF7B5FD00F0E6
:108C70003DF87FBD083400201404000000001011EE
:108C800010B5034C03F0BAF90020208010BD00009D
:108C90000834002010B5034C03F0C3F901202080F4
:108CA00010BD0000083400207CB5002569460D8009
:108CB0004D80802088800C4C4020C880208901286D
:108CC00005D1214608220A316846FBF757FA2246A9
:108CD00012320199009803F0B7F925816581A581C9
:108CE000E58125827CBD0000083400207CB500258C
:108CF00069460D804D8080208880074C4020C880C8
:108D0000224612320199009803F09EF9258165816F
:108D1000A581E58125827CBD0834002077B593B01C
:108D2000064614980390002069468880C880088110
:108D300048818882C8821F4D08831446488369464B
:108D4000204607F0FDFA0104090C19D064186946A1
:108D500007AA0988686806F029F90028EFD107AA50
:108D600010A80399FFF717FF109811990691059025
:108D700069468889098B40186946401C8881DEE76E
:108D800010AA118A6A46918010AA508A6A46D08039
:108D90009289511A6A46491C1181518BD28A8918CD
:108DA000081A6A465081082201A93046FBF7E6F905
:108DB00016B070BD08340020F7B590B00746119882
:108DC0000024694600908C80CC800C814C818C8280
:108DD000CC821E4D0C8316464C836000315A00290C
:108DE00019D007AA686806F0E1F800280FD107AA91
:108DF00003A80099FFF7CFFE049903980691059008
:108E000069460888098B40186946401C0880641C24
:108E1000A4B2142CE1D310AA90886A46908010AABC
:108E2000D1886A46D1801288101A6A46401C108187
:108E3000508BD28A8018401A6A465081082201A9B4
:108E40003846FBF79BF913B0F0BD00000834002052
:108E500030B5FF2087B0913002F0DEFF02F0F6FF60
:108E60000446012302AA132102F0FBFF012305AAF5
:108E70001721204602F0F5FF204602F0D9FF684690
:108E8000007A400604D502F06BFF29A004F0A0FE92
:108E90006846007A00250007294C002806DA0420DD
:108EA000694608700195A168684688476846007A57
:108EB000400706D50220694601950870A1686846FA
:108EC00088476846007AC00723D002F0BFFF0546F6
:108ED000012303AA102102F0C4FF012304AA1121D7
:108EE000284602F0BEFF284602F0A2FF6846017B3A
:108EF000007C022905D1202818D0102816D0082877
:108F000014D000206946487020200870A168684687
:108F100088476846007A800605D57D20C00002F0AB
:108F20007BFF02F01DFF002007B030BD0120E9E704
:108F30006669666F2069732066756C6C0D0A0000A7
:108F4000502F0020024610B5024804210078FBF79C
:108F50003BFF10BD86260020F0B587B005460F46C2
:108F60000024002106910591049103910291019141
:108F70003F480088002803D13E48006807B0F0BD94
:108F80002E46B0B2002100F0D3FF06463046002343
:108F900006AA05A901F018F80446002C02D13548AC
:108FA0000068EBE734480068344988420AD8324800
:108FB00000686946098B40182F4908600320304932
:108FC000087002E004202E490870002003AB04AAB8
:108FD00000906846018B808A05F0FEFC0446002C58
:108FE00002D124480068C9E7002001AB02AA009022
:108FF00068468189008A01F0B3F80446002C02D14A
:109000001C480068BAE7002001AB02AA009068463D
:109010000179007A02F09AFB04466846007A154905
:109020000860002C02D108460068A7E715480078C0
:109030006946097A884205D113480078694609795A
:10904000884212D06846007A0E4908706846007956
:109050000D4908700D480068002806D008460178C0
:1090600008480078094A126890470248006885E776
:10907000902A0020A02A00209C2A002070170000BF
:10908000982A0020922A0020932A0020942A002067
:1090900010B5044600F040F801484460002010BDBF
:1090A0006C2700200020014908607047A02A00209A
:1090B00010B500F0C9F8044612A004F089FD08229A
:1090C0000121204600F0D8F800220821204600F0B7
:1090D000D3F87F220A21204600F0CEF8C7220D21C6
:1090E000204600F0C9F8204600F0A0F8FFF7DAFFAC
:1090F00008480021C160012141701E2002F01AFBC6
:10910000002010BD656D373078785F7374617274BC
:109110000A0000006C27002010B514480021C1602F
:10912000417000F091F8044611A004F051FD0822AE
:109130000121204600F0A0F800220821204600F07E
:109140009BF87F220A21204600F096F8C7220D21C5
:10915000204600F091F800220121204600F08CF812
:10916000204600F063F8002010BD00006C270020AE
:10917000656D373078785F73746F700A0000000097
:109180007FB5254D6878002845D000F05DF804468D
:1091900002AA302100F064F803AA3121204600F031
:1091A0005FF8204600F042F86846007B297A040206
:1091B0006846007A04434807020F1848C94384529E
:1091C000490708D102216A461170082151700190A7
:1091D000696868468847A8680023401CA8601A464A
:1091E00019462046FFF7B8FEE968044688420FD0CA
:1091F00001460BA004F0ECFCEC606968002907D084
:1092000001206A461070547000200190684688471B
:109210001E2002F08FFA7FBD6C270020342F002023
:10922000656D373078782025640A000010B501F0AC
:109230008FFD044600211A2001F07AFC00211B203A
:1092400001F076FC204610BD10B51B221A2100202B
:1092500001F01AFE0121002001F094FD10BD000074
:1092600008B51346012200920A460249097801F026
:109270002DFE08BD6C27002038B5044668460170F5
:10928000427009492046097801F050FD72B6204627
:1092900001F05CFE02226946204601F03FFE62B604
:1092A000204601F063FE38BD6C270020F8B5414A26
:1092B0000446D068808DC00764D03F48406A3F4D67
:1092C0008104890CA94202D96842081800E0681A92
:1092D000C82819D32B2601233601DB02B04207D25E
:1092E000C80041028601891BC6008919081A09E0D5
:1092F000C80041028601891B4601891BC600891BE3
:1093000040000818C018010B2C482D4BC430814276
:1093100000D9196819607D26906AF600B0420AD219
:10932000284EFF278E198A37BE4200D3116A401C8F
:109330001960906209E0106A060A37188F4203D359
:10934000861B8E4200D808461860106AC100091AB0
:1093500018680918C9081162C108A8420AD9194A2F
:10936000C43A80186043C00801E0401A641E884275
:10937000FBD807E0281A6043C00801E0401A641CCB
:109380008842FBD80C48062200231146243805F0F9
:10939000F3FB2046FBF7A4FE01F0D6FF01F060FFCF
:1093A0000020FBF7A7FD0120FBF7A0FE0120FBF743
:1093B000A3FEF8BDC02A002040F00040420F00008C
:1093C0003412FF1F82F1FFFF70B50A4D06460024DC
:1093D0000E206043401906223146FBF7BFFC0028EF
:1093E00001D0204670BD641CE4B20A2CF0D30A20E0
:1093F00070BD0000842D00207FB50D460A280CD2D8
:10940000002D0AD0062148432030C0B26A460E2102
:1094100004F022FB040003D007E0022004B070BD7A
:10942000062269462846FBF76FFC2046F6E7002136
:109430008A00835A491CDB43835212189378C9B2BD
:10944000DB4393700429F3D370470000F8B5074657
:1094500000200090784CB978054607266079A279FB
:109460000B00FBF787FC0805DD1A36365E98C1DD78
:10947000787800285AD170480622F91C3C30FBF756
:1094800043FC0120A0716C4B014642336278607945
:10949000FBF7B2FC002849D1C5E07978002945D115
:1094A000F978002906D0654BA2780021FBF7A4FCCF
:1094B00078700AE0022A0BD00121FBF7A3FC0028F8
:1094C00003D101216079FBF791FC787800282DD138
:1094D000F8BD7B78002B29D1032909D0A289002A65
:1094E0000CD0217800290AD00121FBF76DFC06E0A1
:1094F000052A01D0022012E0062010E02570A07994
:10950000062802D0042802D008E0052007E0012048
:10951000207001466079FBF769FC84E00320A071AC
:1095200081E07878002803D0312832D0A6717AE023
:1095300041480622391D3630FBF7E6FB7889E08189
:10954000B8892082F88960820520A071A28A002A49
:1095500003D002216079FBF737FCB889E083F889F2
:109560002084388A6084E07801280AD11F20FBF724
:1095700007FC7D21C9004843024604216079FBF7BE
:1095800023FC7A89F8780423391DFCF72FF825701D
:1095900049E02570C2E72848062200213630FBF753
:1095A000B9FBE5832584658404216079FBF712FC0F
:1095B00008216079FBF70EFCB879082808D0032051
:1095C000A0712078002805D06079FBF709FC07E03E
:1095D0000420F5E70120207001466079FBF706FCC6
:1095E0000020C043E0811EE00821FBF7F3FB787800
:1095F000002800D06CE7F888E083388920847889D7
:10960000608404216079FBF7FDFB0028F2D1A06A99
:109610000028EFD00368628C218CE08B9847F8BD5E
:1096200000980028FBD0606A0028F8D00168002963
:10963000F5D0A0798847F8BDA8250020302E00205D
:1096400010B501781C4C912906D0A2291BD0D02935
:1096500001D1FFF7FBFE10BD41780E29FBD18288B6
:1096600016498A42F7D1816803200856A179052955
:10967000F1D17F28EFD0616A0029ECD04968002938
:10968000E9D0884710BD41791329FBD10089012811
:1096900002D12079022808D00520FBF771FB024691
:1096A00008216079FBF790FB10BD08216079FBF77A
:1096B00091FBFCF705FB10BDA82500200514000058
:1096C0007CB5144C0546E08BE18A88420AD3218B95
