:020000041FFFDC
:1008000000000000D9E2FF1F10F7FF1F3CF7FF1F99
:10081000FC050020000000000000000000000000B7
:1008200000000000000000000000000000000000C8
:1008300000000000000000000000000000000000B8
:1008400000000000000000000000000000000000A8
:100850000000000000000000000000000000000098
:100860000000000000000000000000000000000088
:100870000000000000000000000000000000000078
:100880000000000000000000000000000000000068
:100890000000000000000000000000000000000058
:1008A0000000000000000000000000000000000048
:1008B0000000000000000000000000000000000038
:1008C0000000000000000000000000000000000028
:1008D0000000000000000000000000000000000018
:1008E0000000000000000000000000000000000008
:1008F00000000000000000000000000000000000F8
:1009000000000000000000000000000000000000E7
:1009100000000000000000000000000000000000D7
:1009200000000000000000000000000000000000C7
:1009300000000000000000000000000000000000B7
:1009400000000000000000000000000000000000A7
:100950000000000000000000000000000000000097
:100960000000000000000000000000000000000087
:100970000000000000000000000000000000000077
:100980000000000000000000000000000000000067
:1009900075BEFF1F39BFFF1F71EDFF1F0000000074
:1009A0000000000000000000000000000000000047
:1009B0000000000000000000000000000000000037
:1009C0000000000000000000000000000000000027
:1009D0000000000000000000000000000000000017
:1009E0000000000000000000000000000000000007
:1009F00000000000000000000000000000000000F7
:100A000000000000000000000000000000000000E6
:100A100000000000000000000000000000000000D6
:100A200000000000000000000000000000000000C6
:100A300000000000000000000000000000000000B6
:100A400000000000000000000000000000000000A6
:100A50000000000000000000000000000000000096
:100A60000000000000000000000000000000000086
:100A70000000000000000000000000000000000076
:100A80000000000000000000000000000000000066
:100A90000000000000000000000000000000000056
:100AA0000000000000000000000000000000000046
:100AB0000000000000000000000000000000000036
:100AC0000000000000000000000000000000000026
:100AD0000000000000000000000000000000000016
:100AE0000000000000000000000000000000000006
:100AF00000000000000000000000000000000000F6
:100B000000000000000000000000000000000000E5
:100B100000000000000000000000000000000000D5
:100B200000000000000000000000000000000000C5
:100B300000000000000000000000000000000000B5
:100B400000000000000000000000000000000000A5
:100B50000000000000000000000000000000000095
:100B60000000000000000000000000000000000085
:100B700085C2FF1F00000000000000000000000010
:100B800000000000000000003D7EFF1F000000008C
:100B90000000000000000000000000000000000055
:100BA000000000000000000000000000DDB8FF1F92
:100BB0000000000000000000000000000000000035
:100BC000C1B8FF1F0000000000000000000000008E
:100BD0000000000000000000000000000000000015
:100BE0000000000000000000000000000000000005
:100BF00000000000000000000000000000000000F5
:0C0C000001FF01FF01FF01FF41000000A7
:020000041FFFDC
:10400000201A0020D540FF1FDD40FF1FDF40FF1FAB
:1040100000000000000000000000000000000000A0
:10402000000000000000000000000000E140FF1F51
:104030000000000000000000E340FF1FE540FF1FFC
:10404000E740FF1FE740FF1FE740FF1FE740FF1F5C
:10405000E740FF1FE740FF1FE740FF1FE740FF1F4C
:10406000E740FF1FE740FF1FE740FF1FE740FF1F3C
:10407000E740FF1FE740FF1FE740FF1FE740FF1F2C
:10408000E740FF1FE740FF1FE740FF1FE740FF1F1C
:104090000000000000000000000000000000000020
:1040A0000000000000000000000000000000000010
:1040B000E740FF1F00000000E740FF1FE740FF1F31
:1040C0000348854600F042F80048004725DCFF1F02
:1040D000201A00200448804704480047FEE7FEE716
:1040E000FEE7FEE7FEE7FEE72D7EFF1FC140FF1F54
:1040F00003460B439B0703D009E008C9121F08C001
:10410000042AFAD203E00B780370401C491C521EAB
:10411000F9D27047D2B201E00270401C491EFBD2B6
:1041200070470022F6E710B513460A4604461946C2
:10413000FFF7F0FF204610BD0321001D401E03784D
:1041400012021A43491EF9D510467047064C012544
:10415000064E05E0E36807CC2B430C3C984710342F
:10416000B442F7D3FFF7B0FF98F8FF1FD8F8FF1F4E
:1041700070B58C180578401C6B075B0F01D1037874
:10418000401C2A1106D10278401C03E006780E700C
:10419000401C491C5B1EF9D12B0705D40023521E7D
:1041A0000DD40B70491CFAE70378401CCB1A921C03
:1041B00003E01D780D70491C5B1C521EF9D5A1420D
:1041C000D8D3002070BD000003B40148019001BDA8
:1041D000EB21000003B40148019001BD45C000007F
:1041E00003B40148019001BD4D66000003B40148CD
:1041F000019001BD0FF4000003B40148019001BD1E
:104200005113000003B40148019001BD41F40000C6
:1042100003B40148019001BD61F2000003B40148FC
:10422000019001BD8117000003B40148019001BD58
:104230006102000003B40148019001BD891400002F
:1042400003B40148019001BDD117000003B4014837
:10425000019001BD5DF6000003B40148019001BD6D
:1042600075F4000003B40148019001BD59F9000044
:1042700003B40148019001BDF9BE000003B4014838
:10428000019001BD4914000003B40148019001BD33
:104290006117000003B40148019001BDB9BF0000DF
:1042A00003B40148019001BD85F8000003B4014842
:1042B000019001BD3916000003B40148019001BD11
:1042C0008913000003B40148019001BD5D2F000077
:1042D00003B40148019001BDCDF9000003B40148C9
:1042E000019001BDF1F9000003B40148019001BD46
:1042F000D111000003B40148019001BD9D180000D8
:1043000003B40148019001BDF1F1000003B401487C
:10431000019001BDF117000003B40148019001BDF7
:104320005114000003B40148019001BD691600005A
:1043300003B40148019001BD0915000003B4014810
:10434000019001BDC960000003B40148019001BDA6
:10435000B51F000003B40148019001BDE9BF000092
:1043600003B40148019001BD1D1B000003B40148C6
:10437000019001BDED1B000003B40148019001BD97
:104380006506000003B40148019001BD21FA000058
:1043900003B40148019001BDC11F000003B40148EE
:1043A000019001BD49F4000003B40148019001BD32
:1043B000C9F6000003B40148019001BDC52000000A
:1043C00003B40148019001BDF91D000003B4014888
:1043D000019001BDA91F000003B40148019001BD77
:1043E0008D02000003B40148019001BDD5410000D9
:1043F00003B40148019001BD2141000003B401480C
:10440000019001BDE9FB000003B40148019001BD2A
:1044100055DD000003B40148019001BD89DF0000B3
:1044200003B40148019001BD75E0000003B40148E8
:10443000019001BDE1DE000003B40148019001BD1F
:1044400035E1000003B40148019001BD29E40000FA
:1044500003B40148019001BD69E5000003B40148BF
:10446000019001BD91E0000003B40148019001BD3D
:10447000E1E2000003B40148019001BDF1E2000057
:1044800003B40148019001BDCDE6000003B401482A
:10449000019001BD09E9000003B40148019001BD8C
:1044A000E1E7000003B40148019001BDB5DF000061
:1044B00003B40148019001BD6DDF000003B4014861
:1044C000019001BD85E0000003B40148019001BDE9
:1044D000D1E5000003B40148019001BDCDDF00002B
:1044E00003B40148019001BD1DE0000003B4014880
:1044F000019001BDCDE0000003B40148019001BD71
:1045000031E2000003B40148019001BD49E7000019
:1045100003B40148019001BD1DDB000003B4014854
:10452000019001BD2DCF000003B40148019001BDF1
:10453000A90B010003B40148019001BD5D0B01000E
:1045400003B40148019001BD690B010003B40148A7
:10455000019001BD250E010003B40148019001BD89
:10456000F5E3000003B40148019001BD21E3000020
:1045700003B40148019001BD15E3000003B40148F4
:10458000019001BDC1E0000003B40148019001BDEC
:104590006DDD000003B40148019001BDF1DE0000B3
:1045A00003B40148019001BD7574000003B40148D3
:1045B000019001BD8574000003B40148019001BD64
:1045C0000959000003B40148019001BD89F20000BF
:1045D00003B40148019001BDFB21000003B4014870
:1045E000019001BD59F3000003B40148019001BDE1
:1045F00015F2000003B40148019001BDFDF6000072
:1046000003B40148019001BDC5F9000003B401489D
:10461000019001BD9D1E000003B40148019001BD41
:10462000571A000003B40148019001BD031A0000AD
:1046300003B40148019001BDF119000003B4014821
:10464000019001BDDD74000003B40148019001BD7B
:10465000890D010003B40148019001BDD576000029
:1046600003B40148019001BD510E000003B401489C
:10467000019001BDFD0E000003B40148019001BD91
:10468000A9F1000003B40148019001BDF1F300005D
:1046900003B40148019001BD6116000003B4014854
:1046A000019001BDA916000003B40148019001BDAD
:1046B000691B000003B40148019001BDA529000059
:1046C00003B40148019001BD8529000003B40148ED
:1046D000019001BD0D34000003B40148019001BDFB
:1046E0006107000003B40148019001BD910700007B
:1046F00003B40148019001BDBD07000003B40148A7
:10470000019001BD3107000003B40148019001BDD3
:104710007919000003B40148019001BD010D0000AA
:1047200003B40148019001BD290D000003B4014804
:10473000019001BD6F21000003B40148019001BD4B
:104740005D0D000003B40148019001BD990D00000A
:1047500003B40148019001BDD10D000003B401482C
:10476000019001BDF90D000003B40148019001BDA5
:10477000410E000003B40148019001BD39750000ED
:1047800003B40148019001BD8D75000003B40148D8
:10479000019001BD8572000003B40148019001BD84
:1047A000E52C010003B40148019001BD7D9E00008D
:1047B00003B40148019001BDF59E000003B4014817
:1047C000019001BDF94C000003B40148019001BD06
:1047D000A53D000003B40148019001BD5D520000F9
:1047E00003B40148019001BD552B010003B40148F9
:1047F000019001BDB1C2000003B40148019001BDA8
:10480000F1F0000003B40148019001BDC5C50000EE
:1048100003B40148019001BD0DC7000003B4014875
:10482000019001BD0BC5000003B40148019001BD1A
:104830003942000003B40148019001BDF14000007D
:1048400003B40148019001BDC140000003B4014818
:10485000019001BD5D41000003B40148019001BD1C
:1048600095C3000003B40148019001BD1DC30000C1
:1048700003B40148019001BD6D45000003B4014837
:10488000019001BD753C000003B40148019001BDD9
:104890007DCE000003B40148019001BD71D7000036
:1048A00003B40148019001BD99D7000003B4014849
:1048B000019001BDB943000003B40148019001BD5E
:1048C0003D44000003B40148019001BDE1D5000062
:1048D00003B40148019001BD7DD2000003B401483A
:1048E000019001BD7D4E000003B40148019001BD5F
:1048F00095DA000003B40148019001BD4D4F00005E
:1049000003B40148019001BDE9CF000003B40148A0
:10491000019001BD3DD8000003B40148019001BDE4
:1049200089D4000003B40148019001BD5DD60000A8
:1049300003B40148019001BD3DC4000003B4014827
:10494000019001BDB551000003B40148019001BDC3
:104950003D0D010003B40148019001BD55E5000083
:1049600003B40148019001BDBD9E000003B401489D
:10497000019001BDF5C4000003B40148019001BDE0
:104980003D3F000003B40148019001BD25C2000075
:1049900003B40148019001BD17C4000003B40148ED
:1049A000019001BDF7C2000003B40148019001BDB0
:1049B00001C4000003B40148019001BDD9380000D2
:1049C00003B40148019001BDDBC2000003B40148FB
:1049D000019001BDE1C1000003B40148019001BD97
:1049E00041CF000003B40148019001BD199F0000B0
:1049F00003B40148019001BDC9C5000003B40148DA
:104A0000019001BD8DC9000003B40148019001BDB2
:104A100039CD000003B40148019001BD35D3000039
:104A200003B40148019001BD6959000003B4014875
:104A3000019001BD1500010003B40148019001BDC2
:104A400059C5000003B40148019001BD99C400009C
:104A500003B40148019001BDD54A000003B40148E8
:104A6000019001BD3D29000003B40148019001BD42
:104A70009534000003B40148019001BD69130000A2
:104A800003B40148019001BDE11D000003B40148D9
:104A9000019001BDB55E000003B40148019001BD65
:104AA00065B7000003B40148019001BDD5F60000D0
:104AB00003B40148019001BDDDFB000003B40148CF
:104AC000019001BD999E000003B40148019001BD11
:104AD000ED75000003B40148019001BD39030000E9
:104AE00003B40148019001BD01E4000003B4014892
:104AF000019001BD7DE5000003B40148019001BDB6
:104B0000D100010003B40148019001BDD1EB0000C8
:104B100003B40148019001BDF50D010003B4014843
:104B2000019001BD2D68000003B40148019001BD52
:104B3000B90D010003B40148019001BDFDE2000080
:104B400003B40148019001BDE9E3000003B401484A
:104B5000019001BD3DE4000070B506460C461546C7
:104B60002A462146304607F04BFD2946204600F0F4
:104B700011F870BDF8B505460E4617461C4623468B
:104B80003A463146284607F075FD204600F070F899
:104B9000F8BD000038B504460D462A46214617A048
:104BA00009F016FD002C03D11CA009F011FD23E033
:104BB000012C12D1002D0BD169461D4800F0E2FDF9
:104BC0001CA009F005FD6846008803F0E3FE13E031
:104BD00029461DA009F0FCFC0EE0022C0CD1002D92
:104BE0000AD16946124800F0CDFD1CA009F0F0FC86
:104BF0006846008803F0CEFE38BD0000416E637346
:104C00004170705F70726F63657373506169725346
:104C1000746174652025642C25640A0050616972F2
:104C2000696E6720737461727465640A0000000025
:104C30000E03000050616972696E672053756363EB
:104C400065737366756C0A0050616972696E6720DE
:104C50006661696C3A2025640A000000426F6E6448
:104C6000696E67205375636365737366756C0A00BC
:104C700038B50546084C002D03D0214607A009F0A1
:104C8000A7FC6946094800F07DFD224600216846E0
:104C9000008800F0DBF938BDD20400005061737366
:104CA000636F64653A2025640A0000000E0300006B
:104CB000F0B587B005460E46154F294615A009F0F8
:104CC00087FC022069468870012E05D10120C8703A
:104CD00000216846017105E000206946C870002186
:104CE0006846017100216846C175017605803A78F1
:104CF000B021C85B6946FFF767FA0446002C03D071
:104D000021460BA009F064FC204607B0F0BD00006E
:104D1000880A0020416E63735F43434344436F6ED0
:104D20006669672068616E646C652025640A00000E
:104D3000416E63735F43434344436F6E666967200C
:104D400025640A0010B500240549064801F06CF9F5
:104D5000054A0521054801F04DFB0446204610BDDB
:104D6000E8040020FFFF0000CCF6FF1FF404002041
:104D700010B502460023002A06D0012A08D0022AD4
:104D80000AD0032A1CD10BE010480078087019E003
:104D90000F480078087015E00E484089088011E03F
:104DA00008460D4C247804710B4C64784471094C0E
:104DB000648D0480074C648F44800124847101E079
:104DC000022300BF00BF184610BD0000E60400200B
:104DD000E4040020F4040020F004002070B505462F
:104DE0000C46094885420DD0012C07D0022C09D170
:104DF00001212846FFF7EEF9002803D10349284690
:104E000001F012F970BD0000FEFF0000E804002070
:104E100010B503F05AFC044604480078844203DAD3
:104E20000248047003F07EFC002010BDE604002060
:104E30000149086070470000E004002010B5034AF3
:104E40001321034801F0D6FA10BD0000E8F5FF1F5A
:104E50001800002070B505460C460026012080028F
:104E6000281A0300FFF7BCF90F090D1115191D23AE
:104E7000272B432F33373B3F4300234800782070D4
:104E80003EE02248008820803AE0214800782070E7
:104E900036E020480078207032E01F48007820700B
:104EA0002EE010221D492046FFF7A0F928E01C48FB
:104EB0000078207024E01B480078207020E01A4819
:104EC000006820601CE019480078207018E018483D
:104ED0000078207014E017480078207010E0164821
:104EE000007820700CE004F067FF207008E0272DA8
:104EF00004DA2846FFF780F9208000E0022600BF90
:104F000000BF304670BD0000A9010020AA010020AA
:104F1000AC010020AD010020AE010020C00800203F
:104F2000AF010020B2010020B4010020B001002038
:104F3000B1010020B8010020C001002010B50446D6
:104F40000248047005F0BCF810BD0000A801002064
:104F5000FFB58DB000200B900C900BAA0E990D9808
:104F600000F038FA04460A2C5EDA204605F07FF895
:104F7000054634480078022801D1012000E00020D5
:104F800000902A462146109B0F9804F0E5FE14225B
:104F9000002106A8FFF736F92146062251432431A5
:104FA000C8B206AA102109F07FFA002815D11022F4
:104FB000FF2106A8FFF72CF900280ED12146062272
:104FC00051432531C8B20AAA042109F06DFAE90754
:104FD000C90F06AA0F98FFF721F921467031C8B210
:104FE00002AA102109F060FA002813D102A805F0E6
:104FF00052F800260CE0B00002A9471838880028B3
:1050000004D0BA7839880F9801F044FA701CC6B2FF
:10501000042EF0DB02202840002804D00A48017842
:105020000F9801F021FA00BF1098042806D1054816
:105030000078022802D10F9805F0ACF8002011B0DA
:10504000F0BD0000A9010020A8010020F8B5044629
:105050000D4616460027002D10D10B493046FFF7AC
:10506000E3F80E4621463046FFF7E4F80746002FE6
:1050700008D001212046FFF7E3F803E02946204647
:10508000FFF7DEF83846F8BD40420F0070B506461F
:105090000C460120C0032040002812D02748007889
:1050A000FFF7D4F8051E07D0284605F00FF90028B1
:1050B00002D02846FFF7D0F820460121C903484016
:1050C00070BD02202040002810D00021084604F0C6
:1050D000DFFC002808D0012118480078FFF7C2F84B
:1050E000204602214840EBE70220E9E7E007C00F35
:1050F000002820D012490968888805F003F90028A3
:1051000017D01048006800280DD00E48006840688D
:10511000002808D00A49096888880A4909680022D5
:105120004B680121984704F09FFC2046012148402C
:10513000C6E70120C4E70020C2E70000A801002064
:10514000C4010020BC0100207FB50446A078801F68
:105150000300FFF745F80AECFDFD8B2506FDFD7900
:105160009FFD25468948006800280DD087480068C3
:105170000068002808D06B7B2A7B69898348006817
:105180000668E81CB0470AE0698981480068FFF7B3
:1051900051F8002803D068890121FFF751F8F2E0A7
:1051A0002546687800283ED1A879C007C00F00289E
:1051B00039D078480068002835D10E220021684691
:1051C000FFF720F86869002807D0686901461031A8
:1051D00006226846FFF70AF80DE0A888FFF748F8AE
:1051E0000646002E05D00622B11D6846FEF7FEFFDA
:1051F00000E0C8E000BF69468889A979042211400F
:1052000089080843694688812946684604F040FCBD
:10521000002807D1022160480078FFF723F800201A
:1052200004B070BD00BF5948006800280BD0574833
:1052300000684068002806D06A78A8885349096841
:105240004B68012198479EE0254650480068002899
:105250000BD04E4800684068002806D06278A888C5
:105260004A4909684B68022198478CE02546E8784E
:105270000022291D00F0AEF806460A2E09DA314652
:10528000062251432531C8B22A460C32042109F0C6
:1052900037F978E0254641480078002805D0A888ED
:1052A0003F490978FEF7CCFF40E03E4800780028EF
:1052B00004D1A8880521FEF7C3FF37E0A888FEF7D0
:1052C000D7FF0646A87AC007C00F002817D0002EC7
:1052D00014D07079002812D0287BC006C00F002897
:1052E0000DD1707902AAB11D00F074F8002804D124
:1052F000A8880321FEF7A4FF45E000E043E07179B0
:10530000A8882A46083204F089FC20480068002852
:105310000BD01E4800684068002806D0A8881B49AA
:10532000096800224B681146984700BF2BE0FEF742
:10533000A5FF002825D11C48007801280CD104F0D5
:105340008AFD0020184908700A220021174800E051
:1053500018E0FEF757FF0FE000250BE01348405D13
:10536000012805D1284604F087FD00200F49485543
:10537000681CC5B20A2DF1DB502009F091F804F049
:105380009FFE00E000BF00BF012049E7BC010020F4
:10539000B4010020C4010020A8010020B0010020B9
:1053A000B1010020A9010020C10100205C090020FA
:1053B00010B5044605480460054801782620FEF72C
:1053C00063FF0348007801F00FF810BDBC01002016
:1053D000A8010020F8B506460F4614460A25002EFF
:1053E00006D0012E05D0022E11D0032E29D11BE0AC
:1053F00000BF384604F0C2FD05460A2D06DA002C2F
:1054000004D0062239462046FEF7F0FE1AE0384660
:1054100004F0F6FD05460A2D05DA002C03D02146DE
:10542000284604F007FE0DE0384604F083FE0546EA
:105430000A2D05DA002C03D02146284604F0FAFD97
:1054400000E000BF00BF2846F8BD0000F8B50646E2
:105450000C46152000901C48864214D100250AE015
:1054600022460221284604F0BFFC002801D000207B
:105470000090681CC5B20A2DF2DB002C02D0134844
:10548000FEF708FF1DE03046FEF7F2FE0546002D50
:1054900014D068790022A91DFFF79CFF07460A2F48
:1054A00006DA22460221384604F09EFC00200090D5
:1054B000002C02D0284604F063FE01E01420009086
:1054C00000BF0098F8BD0000FFFF000081A1FF1F92
:1054D000FEB506460D4614460020029001208002CB
:1054E000301A0300FEF77CFE110A161F2B37434EBD
:1054F0005A6370ABB7C3D2E5E585E500012D06D14F
:105500002078022803DC20787249087001E0182016
:105510000290DBE0022D03D120886F49088001E072
:1055200018200290D2E0012D06D12078012803DC5A
:1055300020786A49087001E018200290C6E0012D29
:1055400006D12078042803DC20786549087001E042
:1055500018200290BAE0012D06D12078012803DC42
:1055600020786049087001E018200290AEE0102D0C
:1055700005D1102221465C48FEF738FE01E01820D4
:105580000290A3E0012D06D12078012803DC2078C9
:105590005649087001E01820029097E0012D03D1D0
:1055A00020785349087001E0182002908EE0042D05
:1055B00007D150492068884203D84F4920680860C5
:1055C00001E01820029081E0002D0FD1FEF756FE79
:1055D000002807D104F03FFC502008F061FF04F0E0
:1055E0006FFD05E001204549087001E01820029098
:1055F0006CE0072D20D10622611C6846FEF750FEA4
:10560000207800226946FFF7E5FE07460A2F10DAE8
:10561000FEF734FE002808D1384604F02DFC502057
:1056200008F03EFF04F04CFD05E001203449C85568
:1056300001E00220029001E01820029046E0012DD6
:1056400006D12078012803DC20782E49087001E07B
:10565000182002903AE0012D06D12078092803DCB9
:1056600020782949087001E0182002902EE0012DD1
:1056700009D12078072806DB2078102803DC207861
:105680002249087001E0182002901FE0012D0DD181
:105690001F48077820781E490870002F05D108465A
:1056A0000078012801D104F00BFD01E018200290E0
:1056B0000CE0272E07DA022D05D121883046FEF7AF
:1056C000E3FD029001E00220029000BF00BF0298BB
:1056D000FEBD0000A9010020AA010020AC010020AD
:1056E000AD010020AE010020C0080020AF01002065
:1056F000B20100203F420F00B4010020C101002090
:105700005C090020B0010020B1010020B801002098
:10571000C0010020F7B582B005460E461520019065
:10572000174885420FD100240AE031462046049AEA
:1057300004F04CFD002801D000200190601CC4B290
:105740000A2CF2DB18E02846FEF792FD0446002CF6
:105750000FD060790022A11DFFF73CFE07460A2FFB
:1057600006DA31463846049A04F030FD00200190F4
:1057700001E01420019000BF019805B0F0BD0000C9
:10578000FFFF000070B505460C460026032000020E
:10579000281A0300FEF724FD1D10141A20242A2EB7
:1057A00032394044484E52565A5E62666A6E72788A
:1057B0007C809084888C900045480078207084E03C
:1057C000102244492046FEF711FD7EE01022424996
:1057D0002046FEF70BFD78E040480068206074E04A
:1057E00006223F492046FEF701FD6EE03D48007865
:1057F00020706AE03C480088208066E03B480278E0
:105800003B492046FEF7F2FC5FE03A4802783A490D
:105810002046FEF7EBFC58E038480078207054E052
:1058200037480078207050E0062236492046FEF7BF
:10583000DDFC4AE034480078207046E033480078C8
:10584000207042E03248008820803EE031480088E5
:1058500020803AE030480078208036E02F480088E9
:10586000208032E02E48008820802EE02D480088DD
:1058700020802AE02C480088208026E006222B4940
:105880002046FEF7B3FC20E02948008820801CE079
:1058900028480088208018E027480088208014E0ED
:1058A00026480078207010E02548008820800CE011
:1058B00024480088208008E0272D04DA2846FEF7D7
:1058C0009BFC208000E0022600BF00BF304670BD78
:1058D000560200207C0900208C090020580200207C
:1058E0005C020020620200206402002066020020A8
:1058F00067020020860200209C0900208702002009
:1059000088020020890200208F02002090020020DF
:105910009202002098020020A0020020A202002093
:10592000A4020020A6020020A80200209A02002063
:10593000AA020020AC020020AE0200205502002086
:10594000940200209602002010B50446134804700B
:10595000002013490870401E124908800F48007843
:10596000FEF7A4FC042010490870102200210F4803
:10597000FEF748FC102200210D48FEF743FC0020F2
:105980000C4908600C4908700C49087001200C494A
:10599000087000200B49087010BD00005402002060
:1059A0005502002092020020560200207C090020AF
:1059B0008C09002058020020870200208802002065
:1059C0008F02002090020020FEB506460C46012002
:1059D000C0032040002810D047480078FEF736FC6E
:1059E000051E05D0284604F0BFFE2846FEF734FC0D
:1059F00020460121C9034840FEBD0120800320400C
:105A0000002804D02046012189034840F4E7E0073C
:105A1000C00F00283ED039480078002836D03848DA
:105A20000078052803D10320694608700CE035484A
:105A30000178684601703448017868464170062252
:105A40003249801CFEF7D2FB31480178684601726A
:105A50003048017868464172694627480078FEF769
:105A60002BFC002811D00720254908702A4800681F
:105A700000280AD0284800680068002805D0264879
:105A8000006801681E480078884700BF2046012151
:105A90004840B1E702202040002816D0184800787E
:105AA00005280ED11D480088FEF70CFC1C48008814
:105AB000002806D01A48028802210F480078FEF715
:105AC00007FC20460221484096E704202040002899
:105AD00006D0002004F0C0FE2046042148408BE799
:105AE00008202040002805D004F08CFC2046082126
:105AF000484081E700207FE7540200206202002036
:105B00005502002087020020880200208902002020
:105B10008F02002090020020B40200209202002098
:105B200098020020F8B504460D4617461E46174851
:105B30000078052801D01420F8BD062C23DB19209D
:105B4000C00184421FDA062D1DDB85421BDAFF20CF
:105B5000F530874217DA0A2E15DB1920C00186427C
:105B600011DA0B4804800B4805800B4807800B486E
:105B70000680069804F070FE042109480078FEF7BC
:105B8000ADFB0020D8E71820D6E700005502002022
:105B9000A2020020A4020020A6020020A8020020E9
:105BA00054020020F8B506460C4615460020009029
:105BB000BA4830180300FEF713FB190E1924FD2D07
:105BC0006A738DA7B3BFCAD6FDE2FCFBFAF9F8FDF4
:105BD000FDFDFDF7FD00102C05D110222946B0482F
:105BE000FEF704FB01E01820009054E1102C05D1D1
:105BF00010222946AB48FEF7F9FA01E01820009080
:105C000049E1042C03D1A8492868086001E0182064
:105C1000009040E1012C37D1A44807782878A349A7
:105C20000870002F14D008460078002810D1A04832
:105C30000078022807D09E480078062803D09C48A8
:105C4000007804281FD19B480078FEF74DFB1AE02E
:105C5000002F18D195480078002814D09448007877
:105C600001280BD092480078032807D0904800788C
:105C7000052803D08E480078042804D101218D48DE
:105C80000078FEF7EFFA01E01820009003E1022C03
:105C900003D128888849088001E018200090FAE0A4
:105CA0001F2C14DC1F2200218448FEF7ABFA224689
:105CB00029468248FEF79AFA814804707F4B2246B3
:105CC00001217C480078FEF715FB009001E01820C8
:105CD0000090E0E01F2C14DC1F2200217948FEF721
:105CE00091FA224629467748FEF780FA76480470F2
:105CF000744B027800216F480078FEF7FBFA0090A1
:105D000001E018200090C6E0012C06D12878042874
:105D100003DC28786D49087001E018200090BAE093
:105D2000012C06D12878032803DC287868490870FC
:105D300001E018200090AEE0062C05D1062229468D
:105D40006448FEF753FA01E018200090A3E0012C0C
:105D500006D12878072803DC28785F49087001E01D
:105D60001820009097E0012C06D12878032803DC46
:105D700028785A49087001E0182000908BE0022C26
:105D800019D128885649088008460088002814D070
:105D900047480078052810D1084602880221454866
:105DA0000078FEF795FA08E04EE03EE030E020E0B3
:105DB00010E003E062E0182000906CE0012C06D1B6
:105DC0002878012803DC28784649087001E018206B
:105DD000009060E02888022C08D1062806DB1921F3
:105DE000C901884202DC4049088001E01821009185
:105DF00051E02888022C08D1062806DB1921C901A8
:105E0000884202DC3949088001E01821009142E013
:105E10002888022C06D1FF21F531884202DA344964
:105E2000088001E01821009135E02888022C08D173
:105E30000A2806DB1921C901884202DC2D490880A5
:105E400001E01821009126E02F78012C13D1012FB9
:105E500011D1082117480078FEF752FA002807D11F
:105E600004F0FAFC042113480078FEF737FA04E046
:105E70001620009001E0182000900CE0272E07DA91
:105E8000022C05D129883046FEF7FEF9009001E08A
:105E90000220009000BF00BF0098F8BDFFFCFFFF8C
:105EA0007C0900208C09002058020020620200209A
:105EB00055020020540200206402002067020020E6
:105EC000660200209C090020860200208702002034
:105ED00088020020890200208F020020900200200A
:105EE00098020020A0020020A2020020A4020020AC
:105EF000A6020020A802002010B50446064800783B
:105F0000002807D1002C01D00448046004F08CFC68
:105F1000002010BD1120FCE755020020B402002033
:105F200010B507480078052807D1132205480188D5
:105F300005480078FEF7EAF910BD1220FCE70000E2
:105F4000550200209202002054020020F8B50746B6
:105F50000C461E4602252300FEF742F90A0F0608EA
:105F60000C090F0D0F0B0E0F002508E007E00025B0
:105F700005E004E003E002E001E0022500BF00BF0D
:105F8000002D0FD121463846FEF7C6F90546002DF3
:105F900008D13046079A0699FEF7C4F9FEF7C8F90A
:105FA000FEF7CCF92846F8BD70B504460025E00799
:105FB000C00F002805D0044A0421044800F01AFA52
:105FC0000546284670BD0000FCF5FF1F6801002053
:105FD00010B504460F4804700F49104800F024F82B
:105FE00000200AE00021C943C2000D4B9952002154
:105FF000C200D2185160411CC8B20128F2DB142043
:1060000005F032F903480078FEF79EF90548FEF7DF
:10601000A1F910BD480100205E010020FFFF000033
:106020004C01002011AAFF1F70B506460C4610480F
:1060300086420ED1002009E00021C9438200A1520E
:106040000021820012199170411CC8B20228F3DBB2
:106050000CE02146304604F08EFC0546002D04D0AD
:106060000020C04328800020A87000BF70BD000041
:10607000FFFF0000FFB581B00C4615461F4600200B
:1060800000900A98002826D1022F21D1287869781B
:106090000902401886B231460B988143002914D179
:1060A000E168019800F092F9B04210D03246E16800
:1060B000019800F025FA00900098002807D1618926
:1060C0003246019800F0B0F901E08020009004E031
:1060D0000D20009001E00B200090009805B0F0BD6D
:1060E00070B506460C460120C0032040002816D09B
:1060F0000C480078FEF7AAF8051E0BD02878B028C7
:1061000003D1284604F08CFD00E000BF00BF284604
:10611000FEF7A2F820460121C903484070BD0020C7
:10612000FCE7000048010020FFB587B00D461C4683
:10613000109E002006900590287A10210840002823
:1061400014D0099804F00CFC0746002F05D00A2251
:1061500029460798B847059001E00E20059005985C
:10616000002802D005980BB0F0BD00BF28780228A7
:106170007ED168680078696849780902401880B261
:106180000490292212020498811A904271D009DCED
:106190008B49401A0FD001280ED0022848D003287E
:1061A00068D118E0012966D002297DD003297CD06E
:1061B0000429F5D1C9E000BF1198002808D1EF6883
:1061C000387830703A7820467968FEF70FF801E0A9
:1061D0000B200590D6E01198002826D101203070C0
:1061E000E868007820706989491C88B20021FEF7B0
:1061F000B7F80746002F0FD031783878801C081880
:106200003070B87A607078890012A0703A78E01C1B
:106210007968FDF7EBFF07E03078001D307004224D
:106220000021601CFDF7EEFF01E00B200590A9E0C6
:106230001198002844D1E86800880190042030704B
:106240000198207001980012607003A90198FEF770
:1062500087F80746002F29D0F868009002AB6846FF
:10626000828958493846FEF781F800280ED103E0AC
:106270008AE039E083E046E03B78022152487A68C0
:10628000FEF77AF8002801D1401E029000980078AD
:10629000022808D1009802224168201DFDF7A6FFC0
:1062A0003078801C307003E00DE01EE00198029011
:1062B00068460089A070684600890012E07001E01D
:1062C0000B2005905EE0119800280AD1E968079834
:1062D00000F07CF80746022030702770381260709A
:1062E00001E00B2005904DE000BF1198002807D178
:1062F000E96808880221317020700112617001E0A4
:106300000B2005903EE0E868FEF73CF8C7B2119814
:10631000B84217DC1198B84201D1002709E0129960
:1063200011984018B84201DA129F02E01198381A09
:10633000C7B23770EA68119811183A462046FDF73F
:1063400055FF01E0072005901CE01198002813D1AB
:10635000E868072131700178217041786170817897
:10636000A17041880912E17001792171817961710F
:10637000C1880912A17101E00B20059002E0012003
:10638000069000BF00BF01E001200690069801289A
:1063900013D1099804F014FB0746002F0AD0129974
:1063A0001198334622460191009029460798B84734
:1063B000059001E00E20059000BF0598D3E600008F
:1063C00000280000FFFF0000DA2F010070B505462D
:1063D0000E463146284604F0CEFA0446002C01D081
:1063E000A07870BD0020FCE70149087070470000EC
:1063F00049010020FEB504460F461646002C0FD07A
:10640000019468460780FDF7C3FF0546002D06D1BD
:10641000002E04D06089314604F0FEFE054600E0FF
:1064200002252846FEBD0000F8B505460E46174673
:106430000C480078FF2813D00A20FDF7AFFF044670
:10644000002C0CD0B120207000206070207165807D
:10645000E6802781214603480078FDF7A5FF00BFAD
:10646000F8BD00004901002070B504460D460849FA
:106470002046FFF7ABFF064602203040002804D03C
:1064800029462046FDF796FF70BD0120FCE700007D
:106490005E0100207CB505460E4614466846047130
:1064A0002004010E684641710020022301AA3146F2
:1064B0000090284600F001F87CBDFFB583B00D4682
:1064C0001E4602A92846FDF74BFF019001980028BF
:1064D00011D06846008904F08FFA0746002F08D0D3
:1064E0000C98F3B20090059A01990398B8470446B6
:1064F00000E00E2400E00124204607B0F0BD0000BB
:10650000F8B505460F4616463946284604F033FAD4
:106510000446002C09D13946054804F02CFA0446FB
:10652000002C01D11120F8BD2580A6700020FAE7CB
:10653000FFFF000070B504460025E007C00F0028EB
:1065400005D0044A07210448FFF754FF05462846B2
:1065500070BD000010F6FF1FE4010020F8B50646EC
:106560000C46154600273300FDF73AFE0805143C9B
:106570003C1C3C26313C152C0ADC162200211C4810
:10658000FDF740FE224629461948FDF72FFE00E0A0
:10659000182729E0022C03D128881649088000E03A
:1065A000182721E0082C05D1082229461248FDF7BA
:1065B0009FFD00E0182717E0012C06D10F4928782D
:1065C000CA69283104F04EFF00E018270CE0012CC6
:1065D00006D10A492878CA6B483104F043FF00E02D
:1065E000182701E0022700BF00BF3846F8BD0000B1
:1065F00066090020D6010020DA010020E401002015
:1066000038B504460E480470012000906A46012106
:106610000C48FEF75DFF0020C043FFF78BFF002012
:10662000C043FFF7C1FCFEF709FCFEF78BFB00201F
:10663000FEF7FEFB012102480078FDF713FE38BD8E
:10664000BC0200200D04000070B506460C4633491C
:1066500033A007F0BDFF0120C0032040002810D068
:1066600030480078FDF7F2FD051E05D0284606F0FB
:10667000E3F82846FDF7F0FD20460121C903484014
:1066800070BDE007C00F002803D02046012148401C
:10669000F6E704202040002810D023480078052881
:1066A00008D122480078002802D006F0A7F801E0BF
:1066B000FFF736FC204604214840E1E70220204055
:1066C000002805D005F000FE204602214840D7E70B
:1066D0000820204000281ED015480078002816D039
:1066E00005F012FE0546002D05D0AA7869782878B5
:1066F000EB1C06F037F80F4800780F4909788842FC
:1067000003D1204608214840BAE72046B8E7204692
:1067100008214840B4E70020B2E700001CF6FF1F44
:1067200025730A00BC020020BD020020C202002026
:10673000BE020020D5020020D6020020FFB585B0A1
:106740000D461E4600200490686800786968497804
:106750000902401884B20E98002805DD41488442A1
:1067600002D00B2009B0F0BD3E48801C84420AD004
:106770003C482938844206D03A481938844202D02D
:10678000401C844218D1688905F0ACFF03900028B2
:106790000FD00798009601900398417900790290F4
:1067A000314800680123224607680298B8470490E0
:1067B00050E0002030704DE02A4884421DD12B4922
:1067C00009780E98884202DB0720049042E02748AF
:1067D00001780E98091A0F98814201DD0F9803E0A5
:1067E000224801780E98081A30703278EB680E98BB
:1067F00019180798FDF7FAFC2CE01A48401E84424D
:1068000007D1042030700422E9680798FDF7EEFCF8
:1068100020E01748844207D1022030700222E96844
:106820000798FDF7E3FC15E00E48C01C844206D132
:1068300001203070E8680178079801700AE00C4880
:10684000401E844206D1022030700222E968079877
:10685000FDF7CCFC0498002801D105F0CFFF049887
:1068600080E700004B2A0000CC020020D802002064
:1068700008290000024A1160024A106070470000B7
:10688000CC020020D0020020024A1160024A10709F
:1068900070470000C4020020C8020020F8B504467A
:1068A0000D4616461F4615480078052810D1144895
:1068B0000078002819D013480078134909788842D5
:1068C00013D13B4632462946204605F04BFFF8BD22
:1068D0000A480078022808D005F00AFD002802DDE9
:1068E00005F032FE01E005F04DFE3B4632462946FA
:1068F000204605F05FFD00BFE9E70000BD02002073
:10690000BE020020D5020020D6020020FFB585B0CF
:106910001446002004900E98002802DD0B2009B0D8
:10692000F0BD0698406800780699496849780902E0
:10693000401886B24A48864203D049481B388642EE
:1069400014D10699488905F0CDFE051E0DD008A882
:1069500001940090697928790390424800680023E7
:10696000324607680398B847049072E03C48401EDE
:1069700086421BD108A80078012814D1207800286D
:1069800002D0207801280BD12278002A01D00122E0
:1069900000E000221046334A12685168884758E0E8
:1069A0008020049055E00D20049052E02E4886424D
:1069B0002CD101210E980191009008A8037822465D
:1069C00006990598FFF756FB04900498002840D1DB
:1069D000207861780902401880B2039006994889AE
:1069E00005F06AFE051E10D008A801940090039AD5
:1069F000012A01D1022200E0032213466979287995
:106A0000184A126817683246B84722E01448401CFA
:106A100086421ED108A80078012818D120780028C5
:106A200002D0207801280FD121780698C068017023
:106A30002278002A01D1022200E003221046094AEE
:106A400012685168884704E08020049001E00D201E
:106A500004900498002801D105F0D0FE04985EE768
:106A60004D2A0000CC0200200229000010B50024AD
:106A700047494848FFF7D8FA47494648FFF7D4FA4C
:106A800046494448FFF7D0FA454A1D214548FFF7DB
:106A9000B1FC04464348C1690220FEF769F9424847
:106AA0000078424908714048407848713D48C030FC
:106AB000408908803B48D030408948800120887157
:106AC0003B48017839480173394841783748417368
:106AD00038484089354908810021344841810121E5
:106AE000817331480178314801752F4841782F482A
:106AF00041753048303040892C4908822D4840305B
:106B000041892A4841820021817529480178274816
:106B100001772748417825484177264860304089E9
:106B200022490883002121484183817701212030B7
:106B3000017141711F48803040891C4908841D48FB
:106B400090304189194841840021203081711A48D0
:106B500001781648283001711748417813482830C9
:106B600041711448B03040891049088500210F4810
:106B70004185012128308171014608310320FEF74B
:106B8000F7F80A490720FFF77FFE204610BD0000F6
:106B9000E6020020FFFF0000F602002002030020B2
:106BA000B4F6FF1F10030020EE0200204E0A002062
:106BB000F2020020100400200C03002030B505462E
:106BC000039C12481018002814D01B2818D1022941
:106BD00005D10F48007820700120187009E00329C2
:106BE00005D10C48007820700120187001E00020C9
:106BF000187008E00848007820700120187002E042
:106C00000020187000BF00BF002030BDCED5FFFFB0
:106C1000F10200200B030020FF02002030B587B0F6
:106C200004466A4804706A496AA007F0D1FC06214C
:106C30001F20FDF729FB0E2004F05AFF002807D083
:106C400065A007F0C5FC002211466848FEF740FC2D
:106C50000121069100210591012104911421039144
:106C60001E21029132210191FF21F531009106AAE6
:106C700001215F48FEF796FF05AA02215C48401CEF
:106C8000FEF790FF5B4A0D215948801CFEF78AFFF2
:106C9000594A0E216120C000FEF784FF04AA012199
:106CA00031200001FEF77EFF03AA022150480C307C
:106CB000FEF778FF02AA02214D480D30FEF772FF61
:106CC00001AA02214A480E30FEF76CFF6A460221F3
:106CD000C5208000FEF766FF484A15210020FFF717
:106CE0003DFC002006900121059100210491032123
:106CF00003910121029106AA04218120C000FEF720
:106D0000E7FB05AA01218802FEF7E2FB04AA0121A4
:106D10003648C01FFEF7DCFB03AA01213348801F61
:106D2000FEF7D6FB02AA01213048C01EFEF7D0FBB9
:106D3000A02529460620FDF7A7FA29460720FDF7DA
:106D4000A3FA29460820FDF79FFA29460920FDF7F6
:106D50009BFAFFF78BFE2A492A48FFF78BFD2A484A
:106D600008F0AEF919480178284801F0B5FD202255
:106D70002749002001F05AFD20222649012001F078
:106D800055FD20222449032001F050FD20222349F3
:106D9000022001F04BFD20222149042001F046FD94
:106DA00020222049052001F041FD20221E49062015
:106DB00001F03CFD20221D49072001F037FD012193
:106DC00002480078FDF74EFA07B030BD44050020B8
:106DD000EDF6FF1F25730A00457261736520616C33
:106DE0006C20626F756E64696E670A0009040000AA
:106DF000050300005305002045050020D8F6FF1FBD
:106E0000DC05002060050020C1E2FF1FB9E1FF1F83
:106E1000200C0020400C0020800C0020600C002082
:106E2000A00C0020C00C0020E00C0020000D002071
:106E300070B506460C462D492DA007F0C9FB012070
:106E4000C0032040002810D02A480078FDF7FEF942
:106E5000051E05D0284605F064FD2846FDF7FCF91F
:106E600020460121C903484070BDE007C00F00283B
:106E70000FD02148FFF740F8FDF7A2FA1D4800782F
:106E8000FDF7A4FA1D48FEF793FA20460121484079
:106E9000EAE7FF2001302040002824D0184800787D
:106EA000401C17490870052115480078FDF794FA31
:106EB000002906D1282005F01BFD002005F018FD53
:106EC0000CE005210E480078FDF786FA091DCDB2C9
:106ED000284605F00DFD002005F00AFD2046FF21A3
:106EE00001314840C0E70020BEE70000F9F6FF1F6F
:106EF00025730A0044050020E8050020F005002065
:106F0000F8050020F0B50546059C0020134E9619A3
:106F1000002E17D01B2E1DD1022907D1012B03D122
:106F200026780F4F3E700CE00D200AE0032907D1B0
:106F3000012B03D126780B4F3E7002E00D2000E0BC
:106F40000A2008E0012B03D12678074F3E7000E0AD
:106F50000D2000E000BF00BFF0BD0000CED5FFFF58
:106F6000F10200200B030020FF020020FFB50446C1
:106F70004E4F81B00020386020461D46BF30FDF7DF
:106F800031FA4B4826460078B23680340828A06E85
:106F900032462CD00121FDF72BFA444F3078F863AC
:106FA000761C3046FDF7C8F800BA000AF1780002F6
:106FB0000843B863361D3046FDF7BEF800BA000A34
:106FC000F178000208437863361D3046FDF7B4F8C7
:106FD00000BA000AF17800020843386303980102FE
:106FE00002980143F960039F00263F1D0EE0002137
:106FF000D1E7A819401CFDF79FF80102A85D0143E5
:107000002C4830180160361DF6B23F1F042FF0DA0D
:10701000032F04D0022F08D0012F0FD014E0A8199D
:10702000FDF78AF80102090A09E0A91948780978E8
:10703000000208431F497118086003E0A95D1D485C
:1070400030180160361DF6B200211A4A02E0B0186D
:107050000160361DFF2EFADD1448174B43600F23E5
:107060000361012303604369002BFCD04369016085
:107070000020039B11E0811809682954401CC0B20C
:107080000E0A2E54401C0E0CC0B22E54401CC0B22E
:10709000090E2954401CC0B21B1F002BEBDCA06E54
:1070A000401CA066012005B0F0BD000000000440B7
:1070B000E511FF1F00010440080F0000FFB5044662
:1070C0004D4F81B00020386020461D46BF30FDF78F
:1070D00089F94A4826460078B23680340828606E1E
:1070E00032462BD00021FDF783F9434F3078F86307
:1070F000761C3046FDF720F800BA000AF17800024D
:107100000843B863361D3046FDF716F800BA000A8A
:10711000F178000208437863361D3046FDF70CF81D
:1071200000BA000AF1780002084338630398029914
:1071300000020843F8600026039F0EE00121D2E719
:10714000A819401CFCF7F8FFA95D000208432C4970
:1071500071180860361DF6B23F1F042FF0DA032FB6
:1071600004D0022F08D0012F0FD014E0A819FCF78B
:10717000E3FF0102090A09E0A91948780978000229
:1071800008431F497118086003E0A95D1C483018C6
:107190000160361DF6B20021194A02E0B018016004
:1071A000361DFF2EFADD0F2313481B0243600F2309
:1071B0000361012303604369002BFCD00160039845
:1071C0000023001D11E099180968E9545B1CDBB22B
:1071D0000E0AEE545B1C0E0CDBB2EE545B1CDBB2F1
:1071E000090EE9545B1CDBB2001F0028EBDC606E6B
:1071F000401C606605B0F0BD00000440E511FF1FB3
:1072000000010440F0B589B0FDF7F8F8FE490860C8
:107210000420FDF7F9F8FDF7FDF80446C00712D089
:10722000FA490020086072B6FDF7FAF8F849F94DFE
:10723000F94E02280BD001287ED0F84F05287CD0CB
:1072400004287BD0ADE2FDF7F1F809B0F0BD087875
:107250000F46012806D0032804D0022802D00528B2
:107260006DD09EE20720FDF7CFF808AB07AA06A96C
:10727000EB48FDF7E1F8EA493439898E0B074906F6
:10728000CA0FE7491B0F34390C464034203194466D
:10729000002801D0032B05D0052B6ED038780128AB
:1072A0006CD081E23878012801D00328F9D1D9487F
:1072B00043695B1C4361DB4B087FDD79A842F0D159
:1072C000487F1D7AA842ECD1887F5D7AA842E8D138
:1072D000C87F9D7AA842E4D12078DD7AA842E0D127
:1072E00060781D7BA842DCD1F5680020AD8D2D07AC
:1072F0002DD5DB7B012B01D0032B28D1C3001F1A16
:10730000C94BDD5D95421DD1FB188D7D5F78BD4277
:1073100018D1CD7D9F78BD4214D10D7EDF78BD425E
:1073200010D14D7E1F79BD420CD18D7E5F79BD425B
:1073300008D1CD7E9B7903E0E5E0E6E02EE2E0E0D7
:107340009D4202D0401C0828D8DB082817D0B14D38
:10735000686D401C6865706C002802D0804700286A
:107360009FD0FDF76FF801277770FDF747F8A64922
:107370000968884208D9401A09E02CE0AFE0A54826
:10738000016A491C01620FE2A84A511A0818F16803
:1073900076230A79181A801A4A6C096CD2B2C9B2DB
:1073A000C0B2FDF755F8FDF759F89848076000207E
:1073B0007070FDF759F8FDF75DF8A08C010A984848
:1073C000891C3030FDF75CF80E20FDF71DF8A86928
:1073D000401CA861E8E13F78012F01D0022FD2D1F3
:1073E000E869401CE8618F480B7FC0798342CAD1AD
:1073F0008C484B7F007A8342C5D18A488B7F407A84
:107400008342C0D18748CB7F807A8342BBD18548F5
:107410002378C07A8342B6D16078824C237B98422D
:10742000B1D1F0680023808D000726D5E07B0228CB
:1074300001D0032821D1D800C61A7B48845D94422C
:1074400018D130188C7D4678B44213D1CC7D867823
:10745000B4420FD10C7EC678B4420BD14C7E067973
:10746000B44207D18C7E4679B44203D1CC7E807978
:10747000844202D05B1C082BDDDB6D48022F1AD141
:107480000478644527D18A7D4478A24223D1CA7DFD
:107490008478A2421FD10A7EC478A2421BD14A7EC0
:1074A0000479A24217D18A7E4479A24213D1C97EBF
:1074B000827991420FD1082B0DD0696D0622491CAB
:1074C0006965614601705649401C891CFCF78EFEB7
:1074D000FCF7DCFF68E1686A401C686264E15149BE
:1074E000487BC20701D0252004E0800701D5262073
:1074F00000E02720097D8142ECD93220FCF7CCFF47
:1075000052E107204EE106204CE10878072879D1A6
:107510000B20FCF779FF4149FF22097825325143BE
:10752000444A00208B185870505443480068002883
:1075300005D0FCF7B7FF40490978C84005E0FCF7E3
:10754000B1FF3E490968FCF76FFE0746E00535D5F7
:1075500039480068002805D0FCF7AAFF36490978A9
:10756000C84005E0FCF7A4FF34490968FCF75CFE5D
:107570002A4B00901878FF21253148432D494018A7
:107580000279002A01D000220271234A7130121DB3
:10759000911D07F0D5FBF1680098C968381A4118A9
:1075A00027480160600526D51C49FF22097825324D
:1075B0005143204A0120891848701CE01748FF22D7
:1075C000007825321B4B012150431954296DFF3F90
:1075D000491C2965F1680F3F0969C018CA19184983
:1075E00020300A60407E410016480818FF30013004
:1075F000018D491C01852046009906F07FFAFCF7B1
:107600005DFF21E0CDE000001C12FF1F1812FF1FDC
:10761000E511FF1F0C31FF1F140600201512FF1F7C
:10762000F82BFF1F442AFF1F892BFF1F40420F002A
:107630000C12FF1F5C2AFF1F2410FF1F2010FF1FCA
:107640002012FF1FF80F0020614907460870002034
:10765000087248728872C8725E48044202D0E86CB0
:10766000401CE8645C48FF220078253250435B4AA6
:1076700057498318D81DF930827C06928A1DFF3342
:10768000C07C491C1333FCF71FFF02465248FF2100
:1076900000782531484351494018C11DF931CA7459
:1076A0000279002A0CD10223069A897C1A401940DB
:1076B0008A4205D046494A78002A01D101224A70FF
:1076C000474949688E220904090E0391125C002A79
:1076D00002D0AA6ED219AA662030407E414D4000E9
:1076E0004019C030C18BC919C183FCF7F3FE0146B4
:1076F0003948FF22007825325043384A801820301C
:10770000407E400040198030828A8918818207AA11
:1077100005A904A8FCF7E4FE2F48FF2100782531D5
:1077200048432E4940182030407E694640002A5A7E
:10773000097D511829524019403069464289097C17
:1077400051184181600705D50398874202D2384617
:10775000FCF7CCFEFCF7D0FE1D480021224B8170C7
:107760001A78012A0CD1002F0AD0204A1469002C63
:1077700003D0127DD243920702D001228270197089
:107780008079002801D0FCF7BDFEFCF7C1FEF0783F
:10779000002809D03189FCF765FD05E00878082844
:1077A00009D00520FCF730FEFCF740FE62B603204E
:1077B000FCF72AFE49E53878FF212531484307497F
:1077C0000B4A4018911D713007F0BAFA0920E9E719
:1077D0008031FF1F020800001512FF1F5C2AFF1FE7
:1077E00000100340F80F00201312FF1F442FFF1F4B
:1077F00018060020F8B58E4F079CBE1D9C460D460E
:10780000002A1FD0012A05D0032A0ED0022A0CD04C
:10781000042A59D1002C57D00699002901D00129FA
:1078200052D1032A01D0022A0AD10146814BA03944
:10783000994249D2A02D47D3012189038D4243D8D3
:10784000002A0BD17B4B01462039803399423BD231
:10785000202D39D3012189038D4235D8854233D378
:107860006146002901D001292ED10999002905D0AE
:10787000012903D0022901D0032925D108994907FC
:1078800022D06D4B9988012920D09A730899490715
:10789000490F59731CD06849099BCB736346002B71
:1078A0001BD001238B713378CB7173780B72B37853
:1078B0004B72F3788B723379CB7273790B73012A25
:1078C00019D0042A28D036E01220F8BD0C20F8BDCB
:1078D0005948072141733020F8BD00238B713B7854
:1078E000CB717B780B72BB784B72FB788B723B79D8
:1078F000CB727B79E2E75148069B03702378437093
:1079000063788370A378C370E3780371237943713C
:107910006379837102200EE0484B069E1E70267824
:107920005E7066789E70A678DE70E6781E712679A5
:107930005E7164799C7148801300FCF751FC05046A
:10794000060A08060B00002504E0012502E00225D6
:1079500000E006253A4E8A79B0880C4600090001FD
:1079600028434023910198430143D0018022914351
:107970000843B0800622E11DB01DFCF737FC3746F6
:107980004037B88CA179000900014022001D9043C6
:1079900089010143B98430460622E11D6630FCF7B7
:1079A00025FCA07C0321000249024118B2883F2037
:1079B00000028243114389B2B180012D12D181436B
:1079C000032080020818B0801C49BB8C08788022F4
:1079D0009343C0011843B884304606220C30491C3A
:1079E000FCF704FC1748017808291AD0072918D099
:1079F000A17B0B00FCF7F4FB050408100C08170032
:107A0000012101701F200AE002210170202006E000
:107A100004210170222002E0032101702120FCF7E3
:107A2000F3FC0020F8BD002101701E20F7E70000E4
:107A3000F911FF1F613F0000442AFF1F0C12FF1FB6
:107A4000C42BFF1FE511FF1F10B50E480E4B027827
:107A5000FF20253042430021D018FF24C170133489
:107A600021549954012302460371603293711374B7
:107A70002023816119548E23195451740521818169
:107A800010BD00001512FF1F5C2AFF1FFEB572B665
:107A90005548C068476D866D082F01D8002F00D16A
:107AA0000427082E01D8002E00D104264F48504D3F
:107AB000816C504C491C81642878FF212531484352
:107AC00000192030407E41004B480818FF304130FB
:107AD000418E491C4186FCF721FDFCF7C5FCFCF7F3
:107AE000C9FC2878FF21253148430019806AFCF73A
:107AF0001BFD2878FF21253148430019406AFCF717
:107B000019FD2878FF212531484300192030407E97
:107B1000FCF716FD2878FF21253148430019203055
:107B2000407EFCF713FD2978FF20253041430819DA
:107B30000279002A0BD02E21095C304A406951435A
:107B4000400009182848C068C06F081815E0615C3B
:107B50000029254909D0CA684069096C1369401891
:107B60005B0040001818D16C06E0C9684069CA681B
:107B700040005200C96C10184018FCF7EDFC1A4D7B
:107B8000E868806CFCF7EEFCE868416CCAB2016CF6
:107B9000808FC9B2C0B2FCF75BFC0420FCF7E8FCA4
:107BA0000720FCF7EBFC02A93846FCF7EDFC694620
:107BB0000989C2B201250E48019100950078FF2184
:107BC000253148430019FF300130817CF3B2302069
:107BD000FCF7E0FCFCF742FC0948056062B61420A3
:107BE000FCF712FCFEBD0000140600200C31FF1F44
:107BF0001512FF1F5C2AFF1FF80F00207102000002
:107C00001812FF1F002805DBC206D20E0121914089
:107C1000014A11607047000000E100E010B5002843
:107C200019DB1A4A03231B02D21883089B00D2587F
:107C30008307DC0EFF23A3409A438B071B0E8407A8
:107C4000E40EA3401A43114B032424021B19840899
:107C5000A4001A5118E00E4A03071B0F083B9B08AB
:107C60009B00D2588307DC0EFF23A3409A438B0767
:107C70001B0E8407E40EA3401A43054B0407240F90
:107C8000083CA408A4001A5110BD000000E100E067
:107C90001CED00E010B5002819DB1A4A03231B0273
:107CA000D21883089B00D2588307DC0EFF23A34021
:107CB0009A438B071B0E8407E40EA3401A43114B13
:107CC000032424021B198408A4001A5118E00E4A48
:107CD00003071B0F083B9B089B00D2588307DC0E51
:107CE000FF23A3409A438B071B0E8407E40EA34097
:107CF0001A43054B0407240F083CA408A4001A519A
:107D000010BD000000E100E01CED00E010B500280F
:107D100019DB1A4A03231B02D21883089B00D2588E
:107D20008307DC0EFF23A3409A438B071B0E8407B7
:107D3000E40EA3401A43114B032424021B198408A8
:107D4000A4001A5118E00E4A03071B0F083B9B08BA
:107D50009B00D2588307DC0EFF23A3409A438B0776
:107D60001B0E8407E40EA3401A43054B0407240F9F
:107D7000083CA408A4001A5110BD000000E100E076
:107D80001CED00E0F8B50446002003460A5C8507B8
:107D9000ED0EAA401343401C0428F7DB01F0E2FA81
:107DA0000028FBD101F0E4FC21022004090E084365
:107DB000FF273F0221463940084372B600211A4D81
:107DC000A960194E0002803E801C3060336062B6AC
:107DD00001F0C8FA0028FBD101F0BAFC112000061E
:107DE000201869462A695207FCD572B60422AA6097
:107DF00004020204240E2243384002431002C01C35
:107E0000306062B628694007FCD530780870307859
:107E10004870307888703078C8700098984201D0E7
:107E20000020F8BD0120F8BD80000811014802497A
:107E30000860704740787D011006002010B572B6CA
:107E40001948C068C00703D01748001FFCF7A8FBFB
:107E5000154C403CA06BC00707D013481838FCF7FE
:107E60009FFB12480168491C0160606AC0070CD082
:107E7000E16A0F48C162A16941630B482C38FCF7E5
:107E80008FFB0C480168491C01602069C00707D0BE
:107E90002046FCF785FB2046FCF788FBFCF78CFBB3
:107EA00062B6002010BD0000401002402C10FF1FE1
:107EB000140600203010FF1FF8B50646002701F019
:107EC000C1FA05460AE001F0BDFA0446AC4201D30E
:107ED000601B02E00348401B00190746B742F2D37B
:107EE000F8BD0000FFFFFF0002E008C8121F08C134
:107EF000002AFAD170477047002001E001C1121F2B
:107F0000002AFBD1704701469C204058002801D12F
:107F1000012070470020FCE7F8B504460E461546E0
:107F200032A006F055FB2946304606F043FC0020FF
:107F3000009056E0A020005D0300FCF751F909060F
:107F40000E161E262E363E464D006A463146204607
:107F500001F084FAA021085542E06A4631462046E5
:107F600006F010F9A02108553AE06A46314620464D
:107F700000F0FEF9A021085532E06A46314620465D
:107F800000F0A8FAA02108552AE06A4631462046AA
:107F900000F00FFBA021085522E06A46314620463A
:107FA00000F012FBA02108551AE06A46314620462F
:107FB00000F01EFAA021085512E06A46314620461C
:107FC00000F052FBA02108550AE0F82001590FA04B
:107FD00006F0FEFA009503E00821A020015500BF3D
:107FE00000BF0098A842A5D3F8BD0000616E63737E
:107FF0005F70617273655F6765745F6174747273DB
:108000005F726573706F6E73653A0A0050617273C8
:10801000652073746174653A20446F6E6520257322
:108020000D0A000010B504460EA006F0D1FA6078E3
:10803000C007C00F002804D1607804210840002840
:1080400000D010BD2078022800D1FAE7082221468E
:108050000948FCF74DF80848001D00F00DFC00BF72
:10806000EFE70000616E63735F70726F6365737337
:108070005F6E6F7469660A0069050020F8B50D46E9
:108080001E46079F089C13A006F0A2FA2068B8427B
:1080900007D100212A68501C2860B1542068401C78
:1080A000206022680698815C0FA006F091FA206893
:1080B000B84208D22168481C20600698415C2A68B2
:1080C000501C2860B1542068B84201D90220F8BD84
:1080D0000120FCE7456E636F64696E672041505074
:1080E0002049440D0A00000025630D0A000000002D
:1080F000FFB581B00D4616461F460A9C10A006F03B
:1081000067FA2068002812D12168019800F044F82D
:10811000002809D02078296878542868401C2860F5
:1081200031880DA006F054FA2068401C20602068B9
:10813000012802D1032005B0F0BD0120FBE70000BB
:10814000456E636F64696E6720417474726962750D
:1081500074652049440D0A006F66667365742025B6
:10816000690D0A0070B506460C46154604A006F0D7
:108170002FFA01212268501C2060A954012070BDF3
:10818000456E636F64696E6720436F6D6D616E64E9
:108190002049440D0A00000002460B0110468430BD
:1081A000C05C012800D170470020FCE770B506468E
:1081B0000025002407E021463046FFF7EDFF0028A8
:1081C00000D06D1C641C002CF5D0284670BD00004A
:1081D00010B50446A08C002808D0A06A8000094B86
:1081E000195809A0E26A06F0F3F909E0A08C00280A
:1081F00006D1A06A8000034A115806A006F0E8F9EB
:1082000010BD0000D805002025733A2025730D0A03
:108210000000000025733A20284E2F41290D0A0046
:10822000F7B58EB0044616462746B03700200D90AD
:108230000C900B900A9009900021A0200155204637
:10824000FFF7B4FF0890E01DFD300790002E02D12B
:10825000022011B0F0BD0F98805D002801D00220EF
:10826000F7E7042200210798FBF7CCFF2CE00998E0
:10827000002806D001280BD0022816D0032821D1CF
:108280001FE00DA92046079AFFF76CFF09901AE03E
:108290000AA90F980196029100900BAA0DA92046F9
:1082A000079BFFF7EBFE09900DE008A80CA90091D1
:1082B00001900BAA0DA92046079BFFF719FF099013
:1082C00001E000E000BF00BF09980328CFD10121E1
:1082D0009C2001510D98142820D90D9988B2FCF7E3
:1082E00071F906900D9A07990698FBF77FFF398A76
:1082F000684601820D98C1B26846017522783888B7
:1083000004A9FCF765F90546002D06D0294613A0FF
:1083100006F05EF90698FCF761F91CE000A803304E
:108320000D9A0799FBF762FF00216846C175017637
:10833000398A01800D98C1B26846817022783888E8
:108340006946FBF741FF0546002D03D0294603A0EF
:1083500006F03EF900BF00207BE7000043502057A5
:1083600052495445204552524F523A0925640A0059
:1083700030B503461468601C10600C5DAC20C55815
:108380001846D0304455AC20C4581846D030005D53
:10839000002806D0AC20C058401CAC24E05002207D
:1083A00030BD0320FCE710B5FCF71EF90120FCF7F7
:1083B00021F9FCF725F9002010BDF0B500248E4608
:1083C0004A1E12E0714600230D1B6D1E0AE09E003E
:1083D00031188C46875949688F4202D981516146CC
:1083E0004F605B1C9D42F2D8641C9442EAD3F0BDFE
:1083F00070B504460E46154694200159F4200059E4
:10840000000108180189A820005B814214DDA82022
:10841000015BF020005B81420EDA2968481C28606D
:10842000705CA821095BA822125B521C93B2A8229F
:108430001353F82212595054A820015BF020005B1E
:1084400081420BD094200159F420005900010818F2
:108450000089401EA821095B88422DD12146CC31DC
:10846000204600F09BF8002805D00021F820025992
:10847000A820005B1154A820015BF020005B814222
:1084800001DA072070BD0DA006F0A2F82146CC311C
:10849000204600F083F8002805D0FF203530015930
:1084A0002046FC3088472046FFF72DFD002801D0EC
:1084B0000820E7E70320E5E70620E3E7417474724C
:1084C00069627574652066696E6973686564210DFB
:1084D0000A00000070B504460E4615462968481C7F
:1084E0002860715CF42001510159982000598142A3
:1084F00004D315A006F06CF8082070BD9420015933
:10850000F420005900010818C168F82001512046E4
:10851000FFF7F9FC002804D011A006F059F8082054
:10852000EBE72146CC31204600F038F8002804D093
:108530009C200059401E9C210851F420015912A092
:1085400006F046F80420D8E74174747269627574C5
:108550006520494420496E76616C69642E0D0A00DD
:10856000416C6C207265717565737465642061740B
:108570007472696275746573207265636569766586
:10858000642E200D0A0000004174747269627574D3
:1085900065204944202569200D0A000002469420E8
:1085A00080588B6A1B01C05C012800D170470020F5
:1085B000FCE710B503461468601C10600C5DF020E9
:1085C000C452052010BD000070B504460E46154685
:1085D0002968481C2860705C0002F021095B084390
:1085E000F02108530021A8200153F020005B00284F
:1085F00015D094200159F420005900010818008971
:10860000002808D094200159F420005900010818CE
:10861000C068002801D1072070BD0620FCE7F020CB
:10862000015B0CA005F0D4FF2146CC312046FFF7BA
:10863000B5FF002805D0FF20353001592046FC3019
:1086400088472046FFF75FFC002801D00820E3E7B9
:108650000320E1E7417474726962757465204C45CA
:108660004E202569200D0A0070B504460E461546B9
:10867000A820015BF020005B814208DAA820005BA3
:10868000401C81B2A82001532868401C2860A82003
:10869000015BF020005B814215D12146CC312046A0
:1086A000FFF77CFF002805D0FF2035300159204618
:1086B000FC3088472046FFF726FC002801D0082020
:1086C00070BD0320FCE70720FAE75F207047000039
:1086D00030B587B004462079C007C00F002819D0F4
:1086E00060880D49FDF772FE0546E807C00F0028B7
:1086F0000FD00A48418D6846818001218171084868
:1087000001786846C1716088002201A9FBF77EFFED
:1087100000BF00BF07B030BDE8040020F404002013
:10872000E604002010B50248FBF7B4FD10BD0000C0
:10873000D186FF1FFEB50C4615461E46002001904F
:108740000898002801DD0B20FEBD60680078616894
:1087500049780902401887B21148874210D1FFF7C3
:10876000B4FF00900F4909780098884202DA0D4959
:1087700000980870012030700A48007828700CE0DA
:108780000948874207D10220307002222846E1685A
:10879000FBF72CFD01E00A2001900198D4E70000CE
:1087A000192A0000E604002008290000FFB583B064
:1087B0000C4615460C9F0026606800786168497871
:1087C0000902401880B20290164902984018002809
:1087D00021D10120009701902A462146069B03984B
:1087E000FDF748FC0646002E14D128786978090266
:1087F000401880B201900C480068002809D0019907
:10880000002901D1022100E001210846064909683A
:10881000884700BF01E00A2600BF00BF304607B00E
:10882000F0BD0000FED6FFFFE004002030B5034697
:108830000A4C002901D1022030BD002A01D0202A93
:1088400001DD0B20F8E701201D016055180100191A
:10885000028118010019C1600020EDE78C0A002098
:1088600070B504460D462A4621460248FFF7D8FC5B
:1088700070BD0000880A002010B504462146024859
:1088800005F020FB10BD0000880A0020F8B5044662
:10889000104D2E46B036A878012803D1204600F0AE
:1088A00089F815E020791B2802D020791D280ED1E7
:1088B000277A7089B84203D1204600F02BF805E0F2
:1088C000B08AB84202D1204600F018F800E000BF9C
:1088D0000120F8BD880A002070B504460D46064EFA
:1088E000FF22393200213046FBF78CFC3570FF2027
:1088F00035308451002070BD880A002070B50446D0
:10890000034DA27A21460B312846FFF705FB70BDC7
:10891000880A0020F0B585B00546184EAF7A082FBA
:1089200007D017A005F054FE16A005F051FE05B0C3
:10893000F0BD2C460B342178684601706178417097
:10894000A1788170E178C1702179017161794171FB
:10895000A1798171E179C1710390082141720221ED
:108960000172FF2035308059002804D0FF203530B7
:10897000815902A8884700BFD9E70000880A002073
:108980000A0000004572726F7220657674206C6573
:108990006E0A000070B50546054C2646B036358097
:1089A00001206070A070002000F004F8002070BD6D
:1089B000880A0020F0B585B00446D24E3546B03561
:1089C0000020049070780C287ED243007B449B8862
:1089D0005B009F440B001100390065009A001801EC
:1089E0003E016D019301B503CF03E803C6A005F076
:1089F000EFFD012005B0F0BDC9A005F0E9FDCEA056
:108A000005F0E6FD0020A8800021E980D3A0014602
:108A10000EC9C0686F460EC70390337828881022AD
:108A20006946FBF7F9FD0746002F04D1022070705C
:108A30000020A87007E03946CCA005F0C9FDFF2052
:108A4000707001200490C2E3D3A005F0C1FD21792C
:108A5000D7A005F0BDFD2079072815D1217ADFA028
:108A600005F0B6FD207A002806DD6089A880A1897E
:108A7000E9800320707012E0DBA005F0A9FDFF2063
:108A80007070022004900AE02179E0A005F0A0FDBA
:108A9000D5A005F09DFDFF2070700220049096E3A4
:108AA000E4A005F095FDE9A005F092FD20790728E6
:108AB00026D12179D5A005F08BFD60781A2823D125
:108AC000A888002820D000E07CE3E88800281BD09C
:108AD0003378EA88A98828880390FBF7A3FD074626
:108AE00000202872002F02D10420707007E0394660
:108AF000E3A005F06DFDFF2070700320049003E0FB
:108B00002179C2A005F064FD61E3E8A005F060FDF5
:108B1000ECA005F05DFD2079092863D1607A152865
:108B200058D120460A300390002000904DE02F4697
:108B30000A370398C078039909790902401880B26E
:108B4000029003984079039989790902401880B20C
:108B50000190EBA0019A029905F03AFDF3490198C2
:108B60004018002809D0F249401800280FD0F049D9
:108B70006031401800280FD104E0029838800020AE
:108B800078800AE00298F8800020388105E0029899
:108B900078810020B88100E000BF00BF287A401C27
:108BA0002872287A032809D100F080FE04900498E6
:108BB000002801D1052000E0FF20707003981530D7
:108BC00003900098401CC0B20090217A0098814226
:108BD000ADDC17E0D7A005F0FBFCFF20707006208D
:108BE00004900FE0217989A005F0F2FC207901289A
:108BF00008D1274608373B787A883979D6A005F01E
:108C0000E7FC00BFE3E2DCA005F0E2FCE0A005F039
:108C1000DFFC207909281BD160781A2818D1337815
:108C2000AF897F1EBAB269892888FBF701FD0390DE
:108C30000398002802D10620707008E0E3A005F038
:108C4000C7FC00206881FF2070700720049000BFDF
:108C5000BDE2E5A005F0BCFCE9A005F0B9FC207977
:108C6000052824D1207A002821DD607A01281ED130
:108C7000002018E0830022460A329A189378870071
:108C800022460A32BA18D27812029A1891B2EC4AE5
:108C9000914206D1830022460A32D35AEB81072241
:108CA0007270411CC8B2217A8142E3DC00BF8EE2BF
:108CB000E4A005F08DFCE9A005F08AFC20790528E8
:108CC0001BD160781A2818D13378EA8AAF8A7F1CC2
:108CD000B9B22888FBF7ACFC03900398002802D1B6
:108CE0000820707008E0EAA005F072FC00212983DA
:108CF000FF2070700820049000BF68E2EBA005F030
:108D000067FCDFE1880A0020446973636F7665724F
:108D1000792050726F67726573733A09310A0000E7
:108D2000446973636F766572792050726F677265FC
:108D300073733A09320A0000446973636F7665728F
:108D4000792053746174653A09446973636F766579
:108D5000722074686520414E43530A00D0002D12E2
:108D60001E4B0FA4994ECEB531F40579414E4353B5
:108D70005F444953435F534552564943452046415A
:108D8000494C5552452C204572726F7220636F64B6
:108D9000653A0925640A0000446973636F76657259
:108DA000792050726F67726573733A09330A000055
:108DB000446973636F766572792053746174653AA0
:108DC0000953746F72652074686520414E435320C7
:108DD00068616E646C65732025640A00666F756E49
:108DE00064203A25640A0000414E43535F53544FB8
:108DF00052455F534552564943455F48414E444CA6
:108E00004553204641494C5552450A00626C655F06
:108E1000646973635F736572766963652D3E704D37
:108E200073672D3E6D6574686F643A2030782578DD
:108E30000A000000446973636F766572792050728E
:108E40006F67726573733A09340A0000446973638B
:108E50006F766572792053746174653A0944697359
:108E6000636F7665722074686520414E43532063BA
:108E700068617261637465726973746963730A000F
:108E8000414E43535F444953435F4348415253204B
:108E90004641494C5552452C204572726F722063F1
:108EA0006F64653A0925640A000000004469736331
:108EB0006F766572792050726F67726573733A09C5
:108EC000350A0000446973636F76657279205374C4
:108ED0006174653A0953746F726520746865204146
:108EE0004E43532063686172616374657269737481
:108EF000696373272068616E646C65730A00000003
:108F0000436861727320666F756E642068616E6479
:108F10006C652069732069732025642C2075756940
:108F2000642069732025780A0000000043E2FFFFF7
:108F3000C2A1FFFF414E43535F53544F52455F431D
:108F4000484152535F48414E444C455320464149A5
:108F50004C5552450A0000004154545F4552524F4F
:108F6000525F52535020307825782C203078257865
:108F70002C20307825780A00446973636F76657217
:108F8000792050726F67726573733A09360A000070
:108F9000446973636F766572792053746174653ABE
:108FA00009446973636F76657220746865204E6F3B
:108FB00074696669636174696F6E20536F7572635B
:108FC00065277320434343440A000000414E435346
:108FD0005F444953435F4E535F44455343532046D8
:108FE00041494C5552450A00446973636F76657276
:108FF000792050726F67726573733A09370A0000FF
:10900000446973636F766572792053746174653A4D
:109010000953746F726520746865204E6F746966B9
:1090200069636174696F6E20536F7572636527732E
:1090300020434343442068616E646C650A0000006D
:1090400002290000446973636F766572792050725B
:109050006F67726573733A09380A00004469736375
:109060006F766572792053746174653A0944697347
:10907000636F766572207468652044617461205363
:109080006F75726365277320434343440A000000F1
:10909000414E43535F444953435F44535F444553F8
:1090A0004353204641494C5552450A004469736375
:1090B0006F766572792050726F67726573733A09C3
:1090C000390A000047A005F083FA2079052836D137
:1090D00000200390207A002830DD607A01282DD10D
:1090E000002718E0BA0021460A3151188A78BB00DF
:1090F00021460A315918C9780902511888B24749DE
:10910000884206D1BA0021460A318A5A2A830121AF
:109110000391781CC7B2207AB842E3DC0398002898
:1091200009D13FA005F054FA00212983FF20707077
:109130000920049001E00920707000BF00BF46E0E4
:109140002079052815D160781A2812D1E8890121E3
:10915000FBF7AEFD0746002F09D03BA005F038FA1B
:1091600000212983FF2070700A2004902FE00A203C
:10917000707000BF2079132814D1288B0121FBF7D0
:1091800097FD0746002F09D02FA005F021FA0021F6
:109190002983FF2070700A20049018E00C20707062
:1091A0000220B07013E0207913280AD10C207070CF
:1091B0000220B0702CA005F00BFA31A005F008FADF
:1091C00005E000BFFF2070700B20049000BF00BFBF
:1091D0000498002803D036A0049905F0F9F9049802
:1091E00008E40000446973636F76657279205374F4
:1091F0006174653A0953746F726520746865204420
:1092000061746120536F7572636527732043434314
:10921000442068616E646C650A0000000229000049
:10922000414E43535F53544F52455F44535F44454F
:109230005343535F48414E444C4553204641494CAB
:109240005552450A00000000414E43535F444154CB
:10925000415F5352435F48444C5F4343434420467D
:1092600041494C5552450A00446973636F766572F3
:10927000792050726F67726573733A0931320A0050
:10928000446973636F766572792053746174653ACB
:109290000950726F63657373696E67206E6F7469CE
:1092A0006669636174696F6E20646174610A0000AD
:1092B000446973636F766572792053746174653A9B
:1092C00009446973636F76657279204572726F72B3
:1092D0003A2025640A00000010B505231B221F2137
:1092E0000D4805F0D1FE0C4C0C4B08340722102120
:1092F000204605F0C9FE062201231146204605F04E
:10930000C3FE05481438416A012211434162C16914
:10931000034A1143C16110BD14F00040FB0300007B
:1093200004003E0010B50020054CFF212218401C0F
:1093300051704028FADB05F0BBFB207010BD000027
:10934000DC11002010B50020054CFF212218401C24
:1093500051700628FADB05F0C9FB207010BD000033
:10936000A7060020084801694907FCD50121816052
:109370000549052280390A7002695207FCD5087830
:10938000C007C00F7047000080000811F0B5864686
:10939000080CFF268446002388B237461C4619462F
:1093A00001228A4005461540CD402C19A4B2FF2F5A
:1093B00002D1012C00D18FB265462A40CA40D21892
:1093C00093B2FF2E02D1012B00D18EB2491C10297D
:1093D000E6DB012C02D0102C08D009E0012B07D1CC
:1093E0003001C019714608700220F0BD102B01D069
:1093F0000320F0BD0120F0BD032800DA70470121F1
:1094000089078968012282401143012292079160F5
:1094100000BFF3E701480068704700001410FF1F09
:1094200001218907096801228240914301229207A4
:1094300011601146096801228240114301229207FE
:10944000116070470449886A0202886A120A0002A1
:10945000000A9042F7D1704700F00040F8B504468A
:109460000F4615462968481C2860795CA1200155E3
:109470002046CC30FF2101310851A120005D002899
:1094800002D0012817D10AE00321FC200155201D3C
:1094900094210851082198200151012610E004214F
:1094A000FC20015520468430942108510121982048
:1094B0000151022604E004A005F08AF8082600BF46
:1094C00000BF3046F8BD0000496E76616C696420CB
:1094D000436F6D6D616E64204944000010B5044611
:1094E0000120FEF7E9FC1149CB6A1148C26A934298
:1094F00002D2C96A511A00E000210163FFF7A2FFFE
:109500000C490123C86201190A4608321B069A4217
:1095100003D309310902090A641A01190648C16214
:10952000416A2922D2031143416210BD001002405A
:10953000140600200012FF1F00F00040FFB583B0AA
:109540000F461D460D9E0C9C002002907868007806
:10955000796849780902401880B20190714A0198EF
:10956000811A904268D00ADC6F49401800280FD059
:10957000012822D0022835D0032872D147E00129E2
:1095800073D002296FD003296ED02929F5D1ABE021
:10959000082C02D3072002900EE00820001BB042E6
:1095A00001D9304601E00820001B28702A785F4866
:1095B00001190598FAF71AFEB0E00C2C02D3072027
:1095C00002900EE00C20001BB04201D9304601E0B1
:1095D0000C20001B28702A78554801190598FAF7C5
:1095E00005FE9BE00D2C02D3072002900EE00D201B
:1095F000001BB04201D9304601E00D20001B28704D
:109600002A784C4801190598FAF7F0FD86E0112CEC
:1096100002D3072002900EE01120001BB04201D9B6
:10962000304601E01120001B28702A7842480119B9
:109630000598FAF7DBFD71E0112C02D307200290A8
:109640000EE01120001BB04201D9304601E011208C
:10965000001B28702A78394801190598FAF7C6FDC9
:109660005CE056E001E015E029E0112C02D3072070
:1096700002900EE01120001BB04201D9304601E0FB
:109680001120001B28702A782D4801190598FAF737
:10969000ADFD43E0112C02D3072002900EE0112013
:1096A000001BB04201D9304601E01120001B287098
:1096B0002A78244801190598FAF798FD2EE00E2C17
:1096C00002D3072002900EE00E20001BB04201D909
