:020000041FFFDC
:1008000000000000D59EFF1F60B1FF1F84B1FF1FD5
:10081000ACB4FF1F0000000000000000000000005A
:1008200000000000000000000000000000000000C8
:1008300000000000000000000000000000000000B8
:1008400000000000000000000000000000000000A8
:100850000000000000000000000000000000000098
:100860000000000000000000000000000000000088
:100870000000000000000000000000000000000078
:100880000000000000000000000000000000000068
:100890000000000000000000000000000000000058
:1008A0000000000000000000000000000000000048
:1008B0000000000000000000000000000000000038
:1008C0000000000000000000000000000000000028
:1008D0000000000000000000000000000000000018
:1008E0000000000000000000000000000000000008
:1008F00000000000000000000000000000000000F8
:1009000000000000000000000000000000000000E7
:1009100000000000000000000000000000000000D7
:1009200000000000000000000000000000000000C7
:1009300000000000000000000000000000000000B7
:1009400000000000000000000000000000000000A7
:100950000000000000000000000000000000000097
:100960000000000000000000000000000000000087
:100970000000000000000000000000000000000077
:100980000000000000000000000000000000000067
:10099000F584FF1F8985FF1F75A7FF1F000000005A
:1009A0000000000000000000000000000000000047
:1009B0000000000000000000000000000000000037
:1009C0000000000000000000000000000000000027
:1009D0000000000000000000000000000000000017
:1009E0000000000000000000000000000000000007
:1009F00000000000000000000000000000000000F7
:100A000000000000000000000000000000000000E6
:100A100000000000000000000000000000000000D6
:100A200000000000000000000000000000000000C6
:100A300000000000000000000000000000000000B6
:100A400000000000000000000000000000000000A6
:100A50000000000000000000000000000000000096
:100A60000000000000000000000000000000000086
:100A70000000000000000000000000000000000076
:100A80000000000000000000000000000000000066
:100A90000000000000000000000000000000000056
:100AA0000000000000000000000000000000000046
:100AB0000000000000000000000000000000000036
:100AC0000000000000000000000000000000000026
:100AD0000000000000000000000000000000000016
:100AE0000000000000000000000000000000000006
:100AF00000000000000000000000000000000000F6
:100B000000000000000000000000000000000000E5
:100B100000000000000000000000000000000000D5
:100B200000000000000000000000000000000000C5
:100B300000000000000000000000000000000000B5
:100B400000000000000000000000000000000000A5
:100B50000000000000000000000000000000000095
:100B60000000000000000000000000000000000085
:100B70007988FF1F00000000000000000000000056
:100B800000000000000000008D68FF1F0000000052
:100B90000000000000000000000000000000000055
:100BA000000000000000000000000000497EFF1F60
:100BB0000000000000000000000000000000000035
:100BC000317EFF1F00000000000000000000000058
:100BD0000000000000000000000000000000000015
:100BE0000000000000000000000000000000000005
:100BF000000000009D7DFF1F0000000000000000BD
:0C0C000001FF01FF01FF01FF41000000A7
:020000041FFFDC
:10400000F0C1FF1FD540FF1FDD40FF1FDF40FF1F36
:1040100000000000000000000000000000000000A0
:10402000000000000000000000000000E140FF1F51
:104030000000000000000000E340FF1FE540FF1FFC
:10404000E740FF1FE740FF1FE740FF1FE740FF1F5C
:10405000E740FF1FE740FF1FE740FF1FE740FF1F4C
:10406000E740FF1FE740FF1FE740FF1FE740FF1F3C
:10407000E740FF1FE740FF1FE740FF1FE740FF1F2C
:10408000E740FF1FE740FF1FE740FF1FE740FF1F1C
:104090000000000000000000000000000000000020
:1040A0000000000000000000000000000000000010
:1040B000E740FF1F00000000E740FF1FE740FF1F31
:1040C0000348854600F042F800480047359CFF1F32
:1040D000F0C1FF1F0448804704480047FEE7FEE7A1
:1040E000FEE7FEE7FEE7FEE77D68FF1FC140FF1F1A
:1040F00003460B439B0703D009E008C9121F08C001
:10410000042AFAD203E00B780370401C491C521EAB
:10411000F9D27047D2B201E00270401C491EFBD2B6
:1041200070470022F6E710B513460A4604461946C2
:10413000FFF7F0FF204610BD0321001D401E03784D
:1041400012021A43491EF9D510467047064C012544
:10415000064E05E0E36807CC2B430C3C984710342F
:10416000B442F7D3FFF7B0FFA4B1FF1FF4B1FF1FB4
:1041700070B58C180578401C6B075B0F01D1037874
:10418000401C2A1106D10278401C03E006780E700C
:10419000401C491C5B1EF9D12B0705D40023521E7D
:1041A0000DD40B70491CFAE70378401CCB1A921C03
:1041B00003E01D780D70491C5B1C521EF9D5A1420D
:1041C000D8D3002070BD000003B40148019001BDA8
:1041D0000FF4000003B40148019001BD41F4000058
:1041E00003B40148019001BDFD0E000003B4014875
:1041F000019001BD61F2000003B40148019001BDCE
:104200008117000003B40148019001BDA916000008
:1042100003B40148019001BDF1F3000003B401486B
:10422000019001BD6116000003B40148019001BD79
:104230004D66000003B40148019001BD5113000018
:1042400003B40148019001BD3916000003B40148D0
:10425000019001BD5DF6000003B40148019001BD6D
:1042600075F4000003B40148019001BD89130000FA
:1042700003B40148019001BD5D2F000003B4014863
:10428000019001BDCDF9000003B40148019001BDCA
:10429000F1F9000003B40148019001BDD111000003
:1042A00003B40148019001BD59F9000003B401486D
:1042B000019001BD9D18000003B40148019001BDAB
:1042C000F1F1000003B40148019001BD6117000045
:1042D00003B40148019001BDF117000003B4014887
:1042E000019001BD5114000003B40148019001BDCB
:1042F0006916000003B40148019001BD09150000D2
:1043000003B40148019001BDC960000003B4014835
:10431000019001BDB51F000003B40148019001BD2B
:10432000E9BF000003B40148019001BD1D1B00005E
:1043300003B40148019001BDED1B000003B4014826
:10434000019001BD6506000003B40148019001BD64
:1043500021FA000003B40148019001BDC11F000013
:1043600003B40148019001BD89F2000003B4014883
:10437000019001BD49F4000003B40148019001BD62
:10438000C9F6000003B40148019001BDC52000003A
:1043900003B40148019001BDD541000003B40148B8
:1043A000019001BD2141000003B40148019001BD0D
:1043B000E9FB000003B40148019001BD55DD000098
:1043C00003B40148019001BD89DF000003B4014836
:1043D000019001BD75E0000003B40148019001BDEA
:1043E000E1DE000003B40148019001BD35E10000A9
:1043F00003B40148019001BD29E4000003B4014861
:10440000019001BD69E5000003B40148019001BDC0
:1044100091E0000003B40148019001BDE1E2000019
:1044200003B40148019001BDF1E2000003B401486A
:10443000019001BDCDE6000003B40148019001BD2B
:1044400009E9000003B40148019001BDE1E7000063
:1044500003B40148019001BDB5DF000003B4014879
:10446000019001BD6102000003B40148019001BD4B
:104470006DDF000003B40148019001BD85E000003C
:1044800003B40148019001BDD1E5000003B4014827
:10449000019001BDCDDF000003B40148019001BDD2
:1044A0001DE0000003B40148019001BDCDE0000013
:1044B00003B40148019001BD31E2000003B401489A
:1044C000019001BD49E7000003B40148019001BD1E
:1044D0001DDB000003B40148019001BD2DCF000099
:1044E00003B40148019001BDA90B010003B40148C8
:1044F000019001BD5D0B010003B40148019001BDB5
:10450000690B010003B40148019001BD250E0100B3
:1045100003B40148019001BDF5E3000003B4014874
:10452000019001BD21E3000003B40148019001BDE9
:1045300015E3000003B40148019001BDC1E0000093
:1045400003B40148019001BD6DDD000003B40148D2
:10455000019001BDF1DE000003B40148019001BDEE
:104560007574000003B40148019001BD857400001A
:1045700003B40148019001BD0959000003B401488A
:10458000019001BD15F2000003B40148019001BD86
:10459000FDF6000003B40148019001BDC5F900001B
:1045A00003B40148019001BDDD74000003B401486B
:1045B000019001BD890D010003B40148019001BDC6
:1045C000D576000003B40148019001BD0D34000010
:1045D00003B40148019001BD45C0000003B4014887
:1045E000019001BD9107000003B40148019001BD95
:1045F000691B000003B40148019001BDBD07000024
:1046000003B40148019001BD6107000003B40148F3
:10461000019001BDF90D000003B40148019001BDF6
:10462000290D000003B40148019001BD31070000CD
:1046300003B40148019001BD7919000003B4014899
:10464000019001BD010D000003B40148019001BDBE
:104650006F21000003B40148019001BD5D0D000011
:1046600003B40148019001BD990D000003B4014855
:10467000019001BDD10D000003B40148019001BDBE
:10468000410E000003B40148019001BD8D020000FD
:1046900003B40148019001BD3975000003B401481D
:1046A000019001BD8D75000003B40148019001BD6A
:1046B0008572000003B40148019001BDE52C0100A2
:1046C00003B40148019001BD619E000003B401489C
:1046D000019001BD7D9E000003B40148019001BD21
:1046E000F59E000003B40148019001BDF94C0000A3
:1046F00003B40148019001BDA53D000003B4014889
:10470000019001BD5D52000003B40148019001BD5C
:10471000552B010003B40148019001BDB1C2000056
:1047200003B40148019001BDF1F0000003B4014859
:10473000019001BDC5C5000003B40148019001BD51
:104740000DC7000003B40148019001BD0BC5000076
:1047500003B40148019001BD3942000003B401488F
:10476000019001BDF140000003B40148019001BD7A
:10477000C140000003B40148019001BD5D4100004B
:1047800003B40148019001BD95C3000003B4014882
:10479000019001BD1DC3000003B40148019001BD9B
:1047A0006D45000003B40148019001BD753C000057
:1047B00003B40148019001BD7DCE000003B401485F
:1047C000019001BD71D7000003B40148019001BD03
:1047D00099D7000003B40148019001BDB94300001E
:1047E00003B40148019001BD3D44000003B40148F9
:1047F000019001BDE1D5000003B40148019001BD65
:104800007DD2000003B40148019001BD7D4E00003F
:1048100003B40148019001BD95DA000003B40148DA
:10482000019001BD4D4F000003B40148019001BD4E
:10483000E9CF000003B40148019001BD3DD800005C
:1048400003B40148019001BD89D4000003B40148BC
:10485000019001BD5DD6000003B40148019001BD87
:104860003DC4000003B40148019001BDB5510000F2
:1048700003B40148019001BD3D0D010003B401489E
:10488000019001BD55E5000003B40148019001BD50
:10489000BD9E000003B40148019001BDF5C40000B5
:1048A00003B40148019001BD3D3F000003B401483D
:1048B000019001BD25C2000003B40148019001BD73
:1048C00017C4000003B40148019001BDF7C2000005
:1048D00003B40148019001BD01C4000003B40148C4
:1048E000019001BDD938000003B40148019001BD19
:1048F000DBC2000003B40148019001BDE1C100002A
:1049000003B40148019001BD41CF000003B4014848
:10491000019001BD199F000003B40148019001BD41
:10492000C9C5000003B40148019001BD8DC9000054
:1049300003B40148019001BD39CD000003B4014822
:10494000019001BD35D3000003B40148019001BDC1
:104950006959000003B40148019001BD1500010030
:1049600003B40148019001BD59C5000003B40148DA
:10497000019001BD99C4000003B40148019001BD3C
:10498000D54A000003B40148019001BD3D29000053
:1049900003B40148019001BD9534000003B40148FF
:1049A000019001BD6913000003B40148019001BDED
:1049B000E11D000003B40148019001BDB55E000097
:1049C00003B40148019001BD65B7000003B401487C
:1049D000019001BDD5F6000003B40148019001BD6E
:1049E000DDFB000003B40148019001BD999E000069
:1049F00003B40148019001BDED75000003B4014806
:104A0000019001BD3903000003B40148019001BDCC
:104A100001E4000003B40148019001BD7DE5000000
:104A200003B40148019001BDD100010003B4014865
:104A3000019001BDD1EB000003B40148019001BD1C
:104A4000F50D010003B40148019001BD2D6800007F
:104A500003B40148019001BDB90D010003B4014840
:104A6000019001BDFDE2000003B40148019001BDC9
:104A7000E9E3000003B40148019001BD3DE40000FA
:104A800010B50021122003F0F7FBFF20C33001F026
:104A90005BFF0121122003F0EFFB0021122003F045
:104AA0005FFB0024122003F0A3FB401C0DD0C820A4
:104AB00001F04AFF002010BD0A2001F045FF641CF0
:104AC000E4B2322C01D90D2010BD122003F090FB6E
:104AD0000028F1D110BD70B5002508240021122056
:104AE00003F0CAFB0121122003F0C6FB00211220B3
:104AF00003F036FB122003F07BFB6D08C001054379
:104B0000302001F021FF641EE8D1284670BD70B549
:104B1000222003F083FCFFF7B3FFC82001F014FF4D
:104B2000CC2000F030F8322001F00EFF442000F0DD
:104B30002AF82D2001F0E8FEFFF7A2FFC82001F0BF
:104B400003FFCC2000F01FF8C82001F0FDFEBE20BE
:104B500000F019F8C82001F0F7FEFFF7BCFF05468A
:104B6000C82001F0F1FEFFF7B6FF04022C4322201B
:104B700003F0DAFC204670BD10B500221146222059
:104B800003F096FC10BD70B50546002400211220EC
:104B900003F072FB072001F0D7FEE907C90F1220CE
:104BA00003F06AFB322001F0CFFE0121122003F056
:104BB00063FB6D08212001F0C7FE641CE4B2082CE1
:104BC000E4D370BD10B5034A1321034800F054FD2F
:104BD00010BD00002CB1FF1F08B2FF1F10B500244C
:104BE0001346002802D00224204610BD0A4619466A
:104BF0000148FFF7E9FAF7E7FFB1FF1FFFB595B0EE
:104C00000025109510AA119500F098F806460A287C
:104C10007CD204460620444320462030C0B26A4677
:104C20000E2105F02FFA002802D168468089C5B20E
:104C300017981390404818990078022813D0002044
:104C40001290082911D020462130C7B21C22002121
:104C50006846FFF7BFFA6A461C21384605F012FA8B
:104C6000002805D010E00120EAE720462230ECE7DA
:104C70006846807EC01F092806D8E907C90F6A4622
:104C8000129B1398FFF7ACFA1422002107A8FFF734
:104C9000A1FA20462430C0B207AA102105F0F2F98B
:104CA000002812D11022FF2107A8FFF79FFA002841
:104CB0000BD12534E0B20BAA042105F0E3F9E90792
:104CC000C90F07AA1798FFF797FA7036F0B20CAA27
:104CD000102105F0D7F9002811D10CA802F0F3F843
:104CE00000240CAEA00080190188002903D082782E
:104CF000179800F01DFD641CE4B2042CF2D3A80741
:104D000004D50D48017B179800F000FD1898042881
:104D10000FD10949087802280BD10A791798002A7F
:104D200000D001224978002900D004211143FFF767
:104D300069FA002019B0F0BD9CB3FF1FF0B50A243A
:104D400085B015460F46002806D0012804D0022859
:104D500010D0032846D11FE0084602F081F804462F
:104D60000A283FD2002D3DD0062239462846FFF7BB
:104D70002BFA37E01D4E00240E20604380190622D6
:104D80003946801DFFF744FA002823D1641CE4B2A1
:104D90000A2CF1D30A241DE00024204606214843B2
:104DA0002330C0B26A46102105F06CF900280CD1FE
:104DB0001022FF216846FFF719FA002805D139466D
:104DC0006846FFF72BFA002804D0641CE4B20A2CD2
:104DD000E3D3DFE70A2C05D2002D03D02946204675
:104DE00002F056F8204605B0F0BD0000CCB7FF1F1A
:104DF00070B50C460146032000020A1A002534480B
:104E00001300FFF711FA1D1012151C1F2326282C62
:104E1000303234383A3C3E40424446484A4E505282
:104E20005A5456585A00C07911E01022294902E01C
:104E30002849102210312046FFF7C6F945E0C06A24
:104E4000206042E0224906223C31F4E700782070DD
:104E50003BE0808936E01E4942784231EBE71D494C
:104E600082781F39E7E7007AF1E7407AEFE71849DF
:104E700006223031DFE7807AE9E7C07AE7E7C089C8
:104E800020E0808A1EE0C0781CE0C08A1AE0008B17
:104E900018E0408B16E0808B14E00D490622363175
:104EA000C9E7C08B0EE0008C0CE0408C0AE08079F2
:104EB000CDE7008A06E0408A04E0272904D20846AC
:104EC000FFF7B8F9208000E00225284670BD0000F9
:104ED00044B4FF1F97B8FF1F70B50E4C00256071DA
:104EE000A571691EE181FFF7ABF90420E071102282
:104EF00000210948FFF76EF9074810220021103001
:104F0000FFF768F9E562257265720120A072E5720B
:104F100070BD000044B4FF1F97B8FF1FFEB53B4DA6
:104F20000C4608040CD56879FFF790F9050004D009
:104F300002F0D2F82846FFF78FF90120C00360E0A5
:104F4000600403D5012080034840FEBD2F48E107DF
:104F50000126807900292AD02978002920D0052827
:104F600021D0287A69460870687A4870274900A8D5
:104F7000062230310230FFF727F9A87A6946087215
:104F8000E87A48726879FFF76DF9002808D00720A1
:104F9000A871696A002903D00968002900D08847F0
:104FA00020467040FEBD032069460870E5E7A10772
:104FB0000DD5052809D1E889FFF75AF9AA8A002AF0
:104FC00003D002216879FFF759F9022019E0600740
:104FD00004D5002002F0C0F8042012E0200712D50A
:104FE0002879012802D002280AD107E00096AB8B6D
:104FF0006A8B298BE88A00F00BF801E000F05AF97F
:1050000008206040FEBD0020FEBD000044B4FF1F2C
:10501000F8B5134C069DA679052E01D01420F8BDD5
:10502000104F861FBE4219D2062917D3BE1DB142AA
:1050300014D2FF27F537BA4210D20A2B0ED3B3424F
:105040000CD2E08221836283A383284602F084F895
:1050500004216079FFF718F90020F8BD1820F8BD89
:1050600044B4FF1F7A0C0000F7B50C468049009845
:10507000164642187F4F00257879B9791300FFF75B
:10508000D3F8190E141BE92040455970777E888F9C
:10509000E996A2A9B4BFC8E9E9E9E9D3E900102C6F
:1050A00076D11022314674486FE0102C70D17248CE
:1050B00010223146103068E0042C69D13068F86263
:1050C000CEE0012C64D13B7832783A70002B0AD0C4
:1050D000002A07D1022903D0062901D0042901D1D1
:1050E000FFF7D8F8BCE0002A0AD0012905D003292F
:1050F00003D0052901D0042902D10121FFF7D0F8FE
:10510000AEE0022C44D13088B881A9E01F2C3FD8F2
:1051100058481F2200214230FFF75CF855482246CC
:1051200031464230FFF750F8524B7C7042332246F2
:10513000012112E01F2C7CD84F481F2200211F386C
:10514000FFF748F84C48224631461F38FFF73CF835
:10515000494BBC701F3B224600217879FFF7A6F827
:1051600083E0012C65D13078042862D8387277E06A
:10517000012C5ED1307803285BD8787270E0062C61
:1051800057D13C48062231463030FFF71DF867E022
:105190004FE0012C4DD1307807284AD8B8725FE033
:1051A000012C46D13078032843D8F87258E0022CFD
:1051B0003FD13288BA82002A52D0052950D102212B
:1051C000FFF75CF84CE0012C33D13078012830D85F
:1051D000F87045E03088022C2BD1062829D31921FC
:1051E000C901884225D8F8823AE03088022C20D1C3
:1051F00006281ED31921C90188421AD838832FE006
:105200003088022C15D1FF21F531884211D27883E4
:1052100026E03088022C0CD10A280AD31921C901B2
:10522000884206D8B8831BE03178012C01D10129CE
:1052300001D0182514E00821FFF73EF8002801D01E
:1052400016250DE0002001F087FF04217879FFF793
:105250001BF805E00098272801D2022C02D0022575
:105260002846FEBD3188FFF72DF80546F8E7000017
:10527000FFFCFFFF44B4FF1F97B8FF1F1CB50B4C8A
:10528000A179002901D011201CBD002800D0606246
:10529000064907482C31034601910090103B00223B
:1052A000E179607900F016F800201CBD44B4FF1FBE
:1052B000A7B8FF1F10B506488179052901D0122033
:1052C00010BDC18913224079FFF702F810BD00001C
:1052D00044B4FF1FF8B51D460224069F079E0B002D
:1052E000FEF7A2FF0A15080606081506150606159C
:1052F000002C0CD1FEF7F2FF040008D132463946EB
:105300002846FEF7F1FFFEF7F5FFFEF7F9FF20460E
:10531000F8BD0000014610B50020C90704D0034ABB
:105320000421034800F0A8F910BD000040B1FF1FA0
:1053300058B3FF1F70B50F4D0F4CA87029461031A0
:10534000204600F01DF8002128460B460830CA0010
:1053500084521218491C09065360090EF7D0142014
:1053600002F0CAFAA878FEF7D1FF0448FEF7D4FF8E
:1053700070BD000040B3FF1FFFFF00002172FF1F40
:1053800070B50A4C0025A04209D1002082008C5241
:105390005218401CC0B295700228F7D370BD01F0BE
:1053A0000EFF0028FAD00480857070BDFFFF00005A
:1053B000F8B50E460746069900240798002902D042
:1053C0000B242046F8BD022B01D00D24F9E71178FB
:1053D0005278120289188DB22946814301D0802467
:1053E000EFE73846F16800F03FF9A842E9D02A46D5
:1053F0003846F16800F0CAF90400E2D171892A4602
:10540000384600F067F9DCE770B50C46080412D5A1
:105410000A488078FEF71AFF050008D02878B028DF
:1054200002D1284601F0DCFF2846FEF715FF0120D7
:10543000C003604070BD002070BD000040B3FF1F7E
:10544000FFB583B0087A00250C9E1C460F46C006A7
:105450000DD5059801F0ACFE030006D00A223946AE
:1054600003989847050035D101E00E2532E03878E1
:1054700002281DD1786829220178407812020002A2
:10548000081881B2881A91427ED009DC7348081A44
:1054900023D0012821D002284FD0032808D125E0AD
:1054A000012872D0022871D003286DD004286ED054
:1054B000059801F0A5FE00286AD00568002DD4D01B
:1054C0000E990D9801910090334622463946039873
:1054D000A8470546284607B0F0BD0D98002872D1B0
:1054E000F868017831700278416896E00D980028DC
:1054F00069D101203070F868002100782070788927
:10550000401C80B2FEF70EFF00280DD031780278E3
:105510008918891C3170817A61704189090AA170EA
:1055200002784168E01C79E030780422001D307078
:105530000021601CFEF74EFECCE70D98002875D1C7
:10554000F86802A90088009004203070009820704C
:105550000098000A60700098FEF7E4FE070029D06A
:10556000F86800906846028901AB3D493846FEF76D
:10557000DFFE002810D13B7802213A487A68FEF716
:10558000DDFE002808D104E026E030E01CE04AE01F
:1055900062E03348694688800098007802280CD180
:1055A000009802224168201DFEF70EFE3078801C14
:1055B000307002E069460098888068468088A07054
:1055C000000AE07086E731E00D9800282ED1F968D6
:1055D000039800F049F804E00D98002826D1F868F7
:1055E0000088022131702070000A607072E7F8684C
:1055F000FEF7AAFE0D99C0B2814212D8814201D1B4
:10560000002206E00E9A8918814202D30D99401AB1
:10561000C2B23270F9680D9809182046FEF7D4FD21
:1056200058E7072556E70D98002801D00B2551E7CC
:105630000721F868317001782170417861708178B4
:10564000A1704188090AE170017921718179617144
:10565000C088000AA0713DE700252FE70028000060
:10566000FFFF0000DA2F010010B501F0A8FD0028AF
:1056700000D0807810BD00007CB51546040019D01C
:10568000684601940180FEF765FE03001DD1002DE0
:105690001BD06489002C0DD00C20FEF761FE002881
:1056A0000AD0002303608480094A8560516800297C
:1056B00004D006E0022308E0132306E0506004E073
:1056C00011460A68002AFBD1086018467CBD00001C
:1056D00040B3FF1FF8B50C4C0746207815460E4620
:1056E000FF280FD00A20FEF741FE01000AD0B120AA
:1056F00008700020487008714F80CE800D8120789E
:10570000FEF73AFEF8BD000040B3FF1F70B50C462F
:1057100005460649FFF7A8FF800704D5214628461D
:10572000FEF730FE70BD012070BD000050B3FF1FBA
:105730001CB56B461A71120A5A710022009202239C
:1057400001AA00F001F81CBDFFB583B008461E4653
:1057500001A90C9FFEF7E6FD050014D0684680887D
:1057600001F04EFD00280AD04468002C09D00097B3
:10577000F3B22946059A0398A04707B0F0BD00246C
:10578000F3E70E20F9E70120F7E7000070B51446B3
:105790000E46054601F013FD002806D131460548A6
:1057A00001F00DFD002803D005808470002070BD3D
:1057B000112070BDFFFF0000014610B50020C90791
:1057C00004D0034A07210348FFF756FF10BD00002D
:1057D00054B1FF1FD0B3FF1F70B50D46164600240D
:1057E0001D490300FEF720FD080512343419342248
:1057F0002934152D23D8162200211848FEF7EAFC7B
:105800002A4631461548FEF7DFFC22E0022D16D16C
:1058100011491088103908801BE0082D0FD10E485F
:10582000082231460838FEF763FC12E0012D06D14C
:10583000CA6909493078283107E0012D01D01824C0
:1058400007E0CA6B04493078483102F02FF900E0D4
:105850000224204670BD0000D0B3FF1F62B8FF1FB6
:10586000FFB504464E4F81B00020386020461D46EB
:10587000BF30FEF78DFD4B4826460078B2368034A7
:105880000828A06E32462CD00121FEF787FD444F38
:105890003078F863761C3046FEF74EFC00BA000AFA
:1058A000F17800020843B863361D3046FEF744FC29
:1058B00000BA000AF178000208437863361D3046CA
:1058C000FEF73AFC00BA000AF17800020843386398
:1058D0000398010202980143F960039F00263F1DCF
:1058E0000EE00021D1E7A819401CFEF725FC0102BB
:1058F000A85D01432C4830180160361DF6B23F1FE9
:10590000042FF0DA032F04D0022F08D0012F0FD07C
:1059100014E0A819FEF710FC0102090A09E0A91910
:1059200048780978000208431F497118086003E0AD
:10593000A95D1D4830180160361DF6B200211A4AD3
:1059400002E0B0180160361DFF2EFADD1448174B37
:1059500043600F230361012303604369002BFCD0E4
:10596000436901600020039B11E0811809682954F4
:10597000401CC0B20E0A2E54401C0E0CC0B22E5455
:10598000401CC0B2090E2954401CC0B21B1F002B82
:10599000EBDCA06E401CA066012005B0F0BD00004D
:1059A00000000440E511FF1F00010440080F000043
:1059B000FFB504464D4F81B00020386020461D469B
:1059C000BF30FEF7E5FC4A4826460078B236803400
:1059D0000828606E32462BD00021FEF7DFFC434FD3
:1059E0003078F863761C3046FEF7A6FB00BA000A52
:1059F000F17800020843B863361D3046FEF79CFB81
:105A000000BA000AF178000208437863361D304678
:105A1000FEF792FB00BA000AF178000208433863EF
:105A20000398029900020843F8600026039F0EE0E5
:105A30000121D2E7A819401CFEF77EFBA95D0002F8
:105A400008432C4971180860361DF6B23F1F042F19
:105A5000F0DA032F04D0022F08D0012F0FD014E06A
:105A6000A819FEF769FB0102090A09E0A91948789B
:105A70000978000208431F497118086003E0A95D16
:105A80001C4830180160361DF6B20021194A02E0A8
:105A9000B0180160361DFF2EFADD0F2313481B02DC
:105AA00043600F230361012303604369002BFCD093
:105AB000016003980023001D11E099180968E9545A
:105AC0005B1CDBB20E0AEE545B1C0E0CDBB2EE5418
:105AD0005B1CDBB2090EE9545B1CDBB2001F002823
:105AE000EBDC606E401C606605B0F0BD0000044059
:105AF000E511FF1F00010440F0B589B0FEF754FC2A
:105B0000FE4908600420FEF755FCFEF759FC0446E8
:105B1000C00712D0FA490020086072B6FEF756FCA2
:105B2000F849F94DF94E02280BD001287ED0F84FE4
:105B300005287CD004287BD0ADE2FEF74DFC09B0EF
:105B4000F0BD08780F46012806D0032804D00228AB
:105B500002D005286DD09EE20720FEF72BFC08AB93
:105B600007AA06A9EB48FEF73DFCEA493439898EBD
:105B70000B074906CA0FE7491B0F34390C4640345E
:105B800020319446002801D0032B05D0052B6ED080
:105B9000387801286CD081E23878012801D00328B8
:105BA000F9D1D94843695B1C4361DB4B087FDD7940
:105BB000A842F0D1487F1D7AA842ECD1887F5D7A57
:105BC000A842E8D1C87F9D7AA842E4D12078DD7A46
:105BD000A842E0D160781D7BA842DCD1F5680020A6
:105BE000AD8D2D072DD5DB7B012B01D0032B28D1CB
:105BF000C3001F1AC94BDD5D95421DD1FB188D7D79
:105C00005F78BD4218D1CD7D9F78BD4214D10D7E05
:105C1000DF78BD4210D14D7E1F79BD420CD18D7E03
:105C20005F79BD4208D1CD7E9B7903E0E5E0E6E0F7
:105C30002EE2E0E09D4202D0401C0828D8DB082874
:105C400017D0B14D686D401C6865706C002802D09B
:105C5000804700289FD0FEF7CBFB01277770FEF727
:105C6000A3FBA6490968884208D9401A09E02CE03C
:105C7000AFE0A548016A491C01620FE2A84A511A27
:105C80000818F16876230A79181A801A4A6C096C88
:105C9000D2B2C9B2C0B2FEF7B1FBFEF7B5FB98486D
:105CA000076000207070FEF7B5FBFEF7B9FBA08C13
:105CB000010A9848891C3030FEF7B8FB0E20FEF729
:105CC00079FBA869401CA861E8E13F78012F01D069
:105CD000022FD2D1E869401CE8618F480B7FC07960
:105CE0008342CAD18C484B7F007A8342C5D18A480F
:105CF0008B7F407A8342C0D18748CB7F807A8342B2
:105D0000BBD185482378C07A8342B6D16078824C73
:105D1000237B9842B1D1F0680023808D000726D5FF
:105D2000E07B022801D0032821D1D800C61A7B4885
:105D3000845D944218D130188C7D4678B44213D1DA
:105D4000CC7D8678B4420FD10C7EC678B4420BD19C
:105D50004C7E0679B44207D18C7E4679B44203D199
:105D6000CC7E8079844202D05B1C082BDDDB6D4841
:105D7000022F1AD10478644527D18A7D4478A24243
:105D800023D1CA7D8478A2421FD10A7EC478A24260
:105D90001BD14A7E0479A24217D18A7E4479A2425D
:105DA00013D1C97E827991420FD1082B0DD0696D34
:105DB0000622491C6965614601705649401C891CD0
:105DC000FEF702FAFEF738FB68E1686A401C686279
:105DD00064E15149487BC20701D0252004E08007D7
:105DE00001D5262000E02720097D8142ECD9322010
:105DF000FEF728FB52E107204EE106204CE108782F
:105E0000072879D10B20FEF7D5FA4149FF220978FE
:105E100025325143444A00208B185870505443484F
:105E20000068002805D0FEF713FB40490978C840F8
:105E300005E0FEF70DFB3E490968FEF70FFB07463C
:105E4000E00535D539480068002805D0FEF70CFB81
:105E500036490978C84005E0FEF706FB3449096871
:105E6000FEF7FCFA2A4B00901878FF2125314843B1
:105E70002D4940180279002A01D000220271234ADC
:105E80007130121D911D04F05DFCF1680098C96825
:105E9000381A411827480160600526D51C49FF22A1
:105EA000097825325143204A0120891848701CE0A6
:105EB0001748FF22007825321B4B0121504319540B
:105EC000296DFF3F491C2965F1680F3F0969C0181A
:105ED000CA19184920300A60407E41001648081847
:105EE000FF300130018D491C01852046009903F0E7
:105EF0000DFEFEF7BFFA21E0CDE000001C12FF1FEF
:105F00001812FF1FE511FF1F0C31FF1F10B5FF1FF7
:105F10001512FF1FF82BFF1F442AFF1F892BFF1F9D
:105F200040420F000C12FF1F5C2AFF1F2410FF1FAE
:105F30002010FF1F2012FF1FC4BBFF1F614907462F
:105F400008700020087248728872C8725E48044265
:105F500002D0E86C401CE8645C48FF2200782532DF
:105F600050435B4A57498318D81DF930827C06920A
:105F70008A1DFF33C07C491C1333FEF781FA0246A9
:105F80005248FF2100782531484351494018C11D2E
:105F9000F931CA740279002A0CD10223069A897C4D
:105FA0001A4019408A4205D046494A78002A01D150
:105FB00001224A70474949688E220904090E03915B
:105FC000125C002A02D0AA6ED219AA662030407E46
:105FD000414D40004019C030C18BC919C183FEF743
:105FE00055FA01463948FF22007825325043384A95
:105FF00080182030407E400040198030828A891805
:10600000818207AA05A904A8FEF746FA2F48FF21B6
:106010000078253148432E4940182030407E69469B
:1060200040002A5A097D51182952401940306946CA
:106030004289097C51184181600705D50398874240
:1060400002D23846FEF72EFAFEF732FA1D4800213A
:10605000224B81701A78012A0CD1002F0AD0204AD5
:106060001469002C03D0127DD243920702D0012282
:10607000827019708079002801D0FEF71FFAFEF7B0
:1060800023FAF078002809D03189FEF709F905E0F4
:106090000878082809D00520FEF78CF9FEF79CF94E
:1060A00062B60320FEF786F949E53878FF212531ED
:1060B000484307490B4A4018911D713004F042FBD8
:1060C0000920E9E78031FF1F020800001512FF1FB9
:1060D0005C2AFF1F00100340C4BBFF1F1312FF1FE9
:1060E000442FFF1F14B5FF1FF8B58E4F079CBE1D30
:1060F0009C460D46002A1FD0012A05D0032A0ED047
:10610000022A0CD0042A59D1002C57D00699002914
:1061100001D0012952D1032A01D0022A0AD1014615
:10612000814BA039994249D2A02D47D3012189033F
:106130008D4243D8002A0BD17B4B01462039803356
:1061400099423BD2202D39D3012189038D4235D884
:10615000854233D36146002901D001292ED1099906
:10616000002905D0012903D0022901D0032925D116
:106170000899490722D06D4B9988012920D09A733C
:1061800008994907490F59731CD06849099BCB737B
:106190006346002B1BD001238B713378CB7173784E
:1061A0000B72B3784B72F3788B723379CB7273794D
:1061B0000B73012A19D0042A28D036E01220F8BD2A
:1061C0000C20F8BD5948072141733020F8BD002349
:1061D0008B713B78CB717B780B72BB784B72FB7801
:1061E0008B723B79CB727B79E2E75148069B037057
:1061F0002378437063788370A378C370E378037166
:10620000237943716379837102200EE0484B069E27
:106210001E7026785E7066789E70A678DE70E678CE
:106220001E7126795E7164799C7148801300FDF7B8
:10623000FBFF0504060A08060B00002504E0012503
:1062400002E0022500E006253A4E8A79B0880C4625
:106250000009000128434023910198430143D001E4
:10626000802291430843B0800622E11DB01DFDF756
:10627000ABFF37464037B88CA179000900014022B6
:10628000001D904389010143B98430460622E11D77
:106290006630FDF799FFA07C0321000249024118F6
:1062A000B2883F2000028243114389B2B180012DA0
:1062B00012D18143032080020818B0801C49BB8C96
:1062C000087880229343C0011843B88430460622E0
:1062D0000C30491CFDF778FF1748017808291AD0BF
:1062E000072918D0A17B0B00FDF79EFF05040810BD
:1062F0000C081700012101701F200AE00221017023
:10630000202006E004210170222002E00321017018
:106310002120FEF74FF80020F8BD002101701E205B
:10632000F7E70000F911FF1F613F0000442AFF1F3B
:106330000C12FF1FC42BFF1FE511FF1F10B50E48E5
:106340000E4B0278FF20253042430021D018FF2455
:10635000C1701334215499540123024603716032F1
:10636000937113742023816119548E23195451742D
:106370000521818110BD00001512FF1F5C2AFF1F3F
:10638000FEB572B65548C068476D866D082F01D8B6
:10639000002F00D10427082E01D8002E00D104269A
:1063A0004F48504D816C504C491C81642878FF2126
:1063B0002531484300192030407E41004B480818E1
:1063C000FF304130418E491C4186FEF783F8FEF7CD
:1063D00021F8FEF725F82878FF21253148430019D8
:1063E000806AFEF77DF82878FF212531484300199F
:1063F000406AFEF77BF82878FF21253148430019D1
:106400002030407EFEF778F82878FF212531484378
:1064100000192030407EFEF775F82978FF202530DE
:10642000414308190279002A0BD02E21095C304A19
:1064300040695143400009182848C068C06F0818D7
:1064400015E0615C0029254909D0CA684069096CDA
:10645000136940185B0040001818D16C06E0C96849
:106460004069CA6840005200C96C10184018FEF715
:106470004FF81A4DE868806CFEF750F8E868416CF8
:10648000CAB2016C808FC9B2C0B2FDF7B7FF042059
:10649000FEF74AF80720FEF74DF802A93846FEF746
:1064A0004FF869460989C2B201250E48019100954D
:1064B0000078FF21253148430019FF300130817CED
:1064C000F3B23020FEF742F8FDF79EFF0948056061
:1064D00062B61420FDF76EFFFEBD000010B5FF1F71
:1064E0000C31FF1F1512FF1F5C2AFF1FC4BBFF1FCB
:1064F000710200001812FF1F002805DBC106C90E3B
:1065000001208840014908607047000000E100E078
:106510008307FF22DB0E9A408907090E9940002865
:1065200008DB830809489B001818036893430B4352
:10653000036070470007000F0838830804489B0079
:106540001818C36993430B43C361704700E400E02C
:1065500000ED00E08307FF22DB0E9A408907090E59
:106560009940002808DB830809489B001818036835
:1065700093430B43036070470007000F08388308FC
:1065800004489B001818C36993430B43C3617047C9
:1065900000E400E000ED00E07FB50446194D030083
:1065A000FDF742FE062E042E2E2E2A2EC12002A911
:1065B0008000FEF71DFC6946087A0870487A48702A
:1065C000887A887000200871C870487BC871087B81
:1065D0008871C87A48710B4A002102A81B32435CBB
:1065E0005618491CC9B273730629F8D36A460821A4
:1065F0000020FEF7F3FA03E008216878FDF744FE77
:106600002C707FBDB0B4FF1F70B58AB0534C012110
:1066100060706A4611750720107600201081107393
:10662000C8201084C000108291837D25ED009584E0
:106630004BA105C900904C4901924B200968C0004C
:1066400008606A4606214948FEF70EFDC32006AAE7
:1066500001218000FEF708FD444805AA0121801FA2
:10666000FEF702FD414802AA0221401FFEF7FCFC92
:106670002246612010320B21C000FEF7F5FC3120CC
:1066800003AA01210001FEF7EFFC384808AA022105
:10669000801DFEF7E9FC354804AA0221C01DFEF763
:1066A000E3FC324807AA02210830FEF7DDFCC520D2
:1066B00009AA02218000FEF7D7FC224632321521BA
:1066C0000020FFF789F82E0131460620FDF7FAFD7C
:1066D00031460720FDF7F6FD31460820FDF7F2FDB3
:1066E00031460920FDF7EEFD0026F6433046FFF760
:1066F00063F83046FEF70EFEFEF764FA022117201B
:1067000001F05AFD284600F0FFF80321172001F0A0
:1067100053FD01216078FDF7C3FD154804F064FACC
:1067200000F068F9FEF728FAFEF7F1F9054600F0E7
:106730007BF921461B31C874000A08754D75280A7B
:1067400088750A480A461721001FFEF78DFC094A82
:1067500008216078FDF792FD0AB070BDB0B4FF1F4C
:1067600001020304050600001CB5FF1F0B03000017
:10677000BD8BFF1FDC050000F8B5C80701270C46DC
:10678000002805D03948FEF779FD20467840F8BD4D
:10679000374D200710D568687D22401C6860D20004
:1067A00008216878FDF76AFD284600211B30017337
:1067B00004F0F2FA082054E0A00603D501F032FA02
:1067C00020204EE060068026002813DA03211720DF
:1067D00001F0F2FC68687D22401C6860D20008214C
:1067E0006878FDF74BFD21481330067304F0D4FAA6
:1067F000402036E020060DD50321172001F0DCFCF7
:106800001C48012100680090684601F031FE2046D6
:106810007040F8BDE00506D50221172001F0CCFC40
:10682000FF2001301DE0A00511D50321172001F044
:10683000C3FC68687D22401C6860D200082168782B
:10684000FDF71CFD04F0A8FA0120400209E0A007B2
:1068500009D5684607706A4601210748FEF704FC1F
:1068600002206040F8BD0020F8BD0000B8B4FF1F52
:10687000B0B4FF1F88B1FF1F0503000002490148A3
:106880000860704740787D010CB5FF1F10B572B6E7
:106890001948C068C00703D01748001FFDF75CFE09
:1068A000154C403CA06BC00707D013481838FDF7C3
:1068B00053FE12480168491C0160606AC0070CD091
:1068C000E16A0F48C162A16941630B482C38FDF7AA
:1068D00043FE0C480168491C01602069C00707D0CD
:1068E0002046FDF739FE2046FDF73CFEFDF740FE51
:1068F00062B6002010BD0000401002402C10FF1FA7
:1069000010B5FF1F3010FF1F10B57D21C003C90057
:10691000FDF7A4FD00F002F810BD0000F8B5064632
:10692000002700F039F904460648051B06E000F090
:1069300033F9A04201D3071B00E02F18B742F6D36A
:10694000F8BD0000FFFFFF0010B5044601F034FE63
:1069500002460648831A01F02FFE904201D3801AA6
:1069600000E01818A042F6D910BD000040420F0008
:1069700002E008C8121F08C1002AFAD17047704708
:10698000002001E001C1121F002AFBD1704710B5A1
:10699000FDF7F4FD0120FDF7F7FDFDF7FBFD0020FD
:1069A00010BDF0B500248E464A1E12E07146002349
:1069B0000D1B6D1E0AE09E0031188C4687594968F0
:1069C0008F4202D9815161464F605B1C9D42F2D8D3
:1069D000641C9442EAD3F0BD10B50168044C01294F
:1069E00004D1017B806800F0EFFF608010BD0000E3
:1069F000A6B4FF1F10B5044800210180418000F0BB
:106A000005F8002010BD0000A6B4FF1F10B500213E
:106A1000044A062001F038FA002801D101F0AEFA4C
:106A200010BD0000D969FF1F10B5034C03A0618899
:106A300003F050FB608810BDA6B4FF1F6261747440
:106A40003A25640010B505231B221F210D4804F0D0
:106A500067F80C4C0C4B083407221021204604F038
:106A60005FF8062201231146204604F059F8054834
:106A70001438416A012211434162C169034A11433A
:106A8000C16110BD14F00040FB03000004003E0093
:106A900010B50020054CFF212218401C51704028E1
:106AA000FADB03F007FD207010BD0000A8BDFF1F3A
:106AB00010B50020054CFF212218401C51700628FB
:106AC000FADB03F015FD207010BD0000A3B5FF1F19
:106AD000F0B58646080CFF268446002388B2374668
:106AE0001C46194601228A4005461540CD402C1906
:106AF000A4B2FF2F02D1012C00D18FB265462A40EB
:106B0000CA40D21893B2FF2E02D1012B00D18EB20F
:106B1000491C1029E6DB012C02D0102C08D009E01A
:106B2000012B07D13001C019714608700220F0BD59
:106B3000102B01D00320F0BD0120F0BD10B528219D
:106B40000148FDF7EEFA10BD9CBBFF1F032806D3DA
:106B5000012189078B680122824093438B60704733
:106B6000032806D3012189078B6801228240134341
:106B70008B60704701480068704700001410FF1FC9
:106B8000012292071368012181408B431360106832
:106B900008431060704700000449886A0202886A4E
:106BA000120A0002000A9042F7D1704700F000403C
:106BB00010B504460120FFF7B1FE1149CB6A114818
:106BC000C26A934202D2C96A511A00E000210163ED
:106BD000FFF7E2FF0C490123C86201190A46083297
:106BE0001B069A4203D309310902090A641A0119E2
:106BF0000648C162416A2922D2031143416210BD95
:106C00000010024010B5FF1F0012FF1F00F00040EF
:106C1000F8B5496894460A784978069809025118E7
:106C20008FB2444A11210025079CBE1A091A9742C7
:106C300043D009DC404ABA1813D0012A1CD0022ADA
:106C400025D0032A08D12EE0012E40D0022E48D0B4
:106C5000032E50D0292E5AD0002018700A2528461D
:106C6000F8BD082855D20821091AA14200D80C46BF
:106C7000E2B21A70314957E00C284AD20C21091AA5
:106C8000A14200D80C46E2B21A702D494CE00D2802
:106C90003FD20D21091AA14200D80C462849E2B280
:106CA0001A700D3140E0112833D2A14200D80C46B1
:106CB0002349E2B21A701B3136E0112829D2A142D1
:106CC00000D80C461E49E2B21A702D312CE0112872
:106CD0001FD2A14200D80C461949E2B21A703F31C6
:106CE00022E0112815D2A14200D80C461449E2B284
:106CF0001A70513118E00E280BD20E21091AA14248
:106D000000D80C460E49E2B21A7063310CE0072835
:106D100001D30725A3E70721091AA14200D80C4691
:106D20000649E2B21A70C91F09186046FDF74CFA0D
:106D300095E70000272A0000DDD5FFFFFFB1FF1F08
:106D4000B8B0FF1FF8B5414A0446D068808DC0072F
:106D500064D03F48406A3F4D8104890CA94202D962
:106D60006842081800E0681AC82819D32B260123A6
:106D70003601DB02B04207D2C80041028601891BFE
:106D8000C6008919081A09E0C80041028601891B5A
:106D90004601891BC600891B40000818C018010B5A
:106DA0002C482D4BC430814200D9196819607D26CA
:106DB000906AF600B0420AD2284EFF278E198A3711
:106DC000BE4200D3116A401C1960906209E0106A4B
:106DD000060A37188F4203D3861B8E4200D8084616
:106DE0001860106AC100091A18680918C9081162E8
:106DF000C108A8420AD9194AC43A80186043C00899
:106E000001E0401A641E8842FBD807E0281A60435C
:106E1000C00801E0401A641C8842FBD80C480622D6
:106E200000231146243803F07BFE2046FDF7B8FB13
:106E300001F060FB01F0CAFA0020FDF7BBFA012067
:106E4000FDF7B4FB0120FDF7B7FBF8BD10B5FF1F40
:106E500040F00040420F00003412FF1F82F1FFFF9C
:106E600070B50A4D064600240E20604340190622E4
:106E70003146FDF7CDF9002801D0204670BD641CD5
:106E8000E4B20A2CF0D30A2070BD0000CCB7FF1F7B
:106E90007FB50D460A280CD2002D0AD006214843A2
:106EA0002030C0B26A460E2103F0ECF8040003D093
:106EB00007E0022004B070BD062269462846FDF7AF
:106EC00083F92046F6E700218A00835A491CDB43F8
:106ED000835212189378C9B2DB4393700429F3D319
:106EE00070470000F8B5074600200090784CB9784C
:106EF000054607266079A2790B00FDF795F908058C
:106F0000DD1A36365E98C1DD787800285AD170488F
:106F10000622F91C3C30FDF757F90120A0716C4B9B
:106F20000146423362786079FDF7C0F9002849D103
:106F3000C5E07978002945D1F978002906D0654B5C
:106F4000A2780021FDF7B2F978700AE0022A0BD08E
:106F50000121FDF7B1F9002803D101216079FDF786
:106F60009FF9787800282DD1F8BD7B78002B29D1A6
:106F7000032909D0A289002A0CD0217800290AD03F
:106F80000121FDF77BF906E0052A01D0022012E07D
:106F9000062010E02570A079062802D0042802D02F
:106FA00008E0052007E00120207001466079FDF728
:106FB00077F984E00320A07181E07878002803D07D
:106FC000312832D0A6717AE041480622391D363088
:106FD000FDF7FAF87889E081B8892082F889608223
:106FE0000520A071A28A002A03D002216079FDF752
:106FF00045F9B889E083F8892084388A6084E0788C
:1070000001280AD11F20FDF715F97D21C900484349
:10701000024604216079FDF731F97A89F878042372
:10702000391DFDF7EBFD257049E02570C2E72848C2
:10703000062200213630FDF7CDF8E58325846584EE
:1070400004216079FDF720F908216079FDF71CF92A
:10705000B879082808D00320A0712078002805D02E
:107060006079FDF717F907E00420F5E701202070AB
:1070700001466079FDF714F90020C043E0811EE06D
:107080000821FDF701F97878002800D06CE7F8882E
:10709000E083388920847889608404216079FDF751
:1070A0000BF90028F2D1A06A0028EFD00368628CA7
:1070B000218CE08B9847F8BD00980028FBD0606ACF
:1070C0000028F8D001680029F5D0A0798847F8BDDC
:1070D00044B4FF1F78B8FF1F10B501781C4C9129EC
:1070E00006D0A2291BD0D02901D1FFF7FBFE10BD8D
:1070F00041780E29FBD1828816498A42F7D18168EE
:1071000003200856A1790529F1D17F28EFD0616AC3
:107110000029ECD049680029E9D0884710BD4179A1
:107120001329FBD10089012802D12079022808D037
:107130000520FDF77FF8024608216079FDF79EF8EB
:1071400010BD08216079FDF79FF8FEF7B3F810BD78
:1071500044B4FF1F051400007CB5144C0546E08BB9
:10716000E18A88420AD3218B884207D8208C618B20
:10717000884203D1608CA18B884216D00520FDF790
:1071800059F80646E08A69460880208B4880608B63
:107190008880A08BC8806279E089FDF713FA257199
:1071A000324608216079FDF769F87CBD44B4FF1FC1
:1071B00010B500F025F8002800D0806810BD00222E
:1071C0009300CB5A834202D1900040187047521C62
:1071D000D2B2022AF4D3002070470000074A0021EF
:1071E000CB00D35A834202D1C80080187047491C93
:1071F0000906090EF4D000207047000048B3FF1FB5
:107200000649496805E08A88824201D1886870474A
:1072100009680029F7D100207047000040B3FF1F24
:10722000F8B50746012906D0022924D10121FDF72E
:10723000CFF900281FD13846FFF7D0FF050015D041
:1072400000240D4E0CE0182069686043081801887E
:10725000002908D018220021FCF7BCFF641CE4B20E
:1072600070788442EFD30020C0432880024938461A
:107270001031FEF785F8F8BD40B3FF1FF3B50746A0
:1072800083B00830029000267888FFF7A7FF0190AE
:1072900000282FD0002523E001984168182068437A
:1072A0000C18218800291FD00298007801280ED1DF
:1072B0006088009023797888621DFEF745FA060001
:1072C00005D00299002008700498218801801822B6
:1072D00000212046FCF77EFF00206D1C2080EDB2CF
:1072E000074840788542D7D30021C9430198002E32
:1072F000018002D17888FDF771F9304605B0F0BD04
:1073000040B3FF1FF3B50546334C074685B008353B
:10731000162200212046FCF75DFF03A800902B7980
:10732000698828886A1DFDF75FF9064640E02B480A
:10733000102200216B4607C3274B69468A8978884B
:10734000163B3146FEF77CF8002812D12348E97934
:10735000C01EC27891420CD11F4928461639083008
:10736000FCF756FF002804D021787089890009199C
:10737000488068468289698804AB3046FCF7D8FFAC
:1073800021780646880000194288002A10D0002E75
:1073900005D06A46128A491C217082800AE00A06DA
:1073A0000020920DC0431219491C2170908004E006
:1073B000002E02D020780528B9D32078002806D0E6
:1073C00078882146FDF716F9002007B0F0BD069831
:1073D000298801800A20F8E7A2B7FF1F43B3FF1FE7
:1073E000F0B585B0044600256846858120790E28D1
:1073F00075D00EDC082821D004DC022812D0062823
:1074000067D116E0264608360A281DD00C2860D120
:1074100034E0102868D012286BD016286ED01828B7
:1074200057D170E03A49172008806088FDF7E8F8E6
:107430004FE003A92046FFF765FF03E003A92046BC
:1074400000F04EF9054635E0308804A9FCF76AFFE4
:10745000010011D02E4F16200097019502906A4628
:1074600060887B1C128AFDF7EBFF05001AD160884B
:107470003946FDF7CBF81DE0012513E0308804A95B
:10748000FCF750FF0100F7D07288214F16200192BF
:10749000009702906A466088128A7B1CFDF7D0FF35
:1074A000050003D030886946888103E0608839464A
:1074B000FDF7B2F8002D0CD06078142809D01449DB
:1074C000207908706846808948800D716088FDF7D2
:1074D000A9F82046FDF7ACF805B0F0BDFFE703A919
:1074E000204600F07DF9ADE703A9204600F064F8DE
:1074F000A8E703A9204600F0C7F9A3E703A920469F
:1075000000F008F89EE703A92046FFF7B7FE99E7C9
:10751000A2B7FF1FF8B504460F4605460834008998
:107520006946FCF7FFFE06003DD0307A80060ED596
:1075300068460088FFF73CFE030006D068881222E8
:1075400031469847061E02D02EE00E262CE06E88AB
:107550003046FFF743FE010005D11548FFF73EFE18
:1075600001000ED00E80134A0020567807E0182341
:107570004A684343D25A002A07D0401CC0B2B042E6
:10758000F5D30926002E09D00EE049681822504391
:1075900008182146FCF718FE0026F3E76888214604
:1075A000FDF74CF802E00126208838803046F8BD0F
:1075B000FFFF000040B3FF1FF3B587B0079A04A890
:1075C0000832039200900026137951881088424CAB
:1075D0003746521DFDF708F8054662E00798297AFC
:1075E0004088FDF731F8070003D0089869890180C9
:1075F00059E03A48112200216B4607C30798364BE1
:1076000069460A8A4088163B2946FDF719FF07009C
:10761000EBD1002E28D031486178C01EC078021D01
:10762000914242D1301811283FD8A119A87A887008
:10763000761CF0B269892218090A401C9170C6B202
:10764000039805AB41886846028A2846FCF770FE1D
:1076500005000FD06946888AA11988706946761C92
:10766000898AF0B2090A0AE01C48C01EC078001DD1
:107670006070DAE7FF21A0198170761CF0B2221841
:1076800091701649401CC91ECA78C6B21249A01989
:107690001639801CFCF798FD1048C01EC0783018C1
:1076A000C6B2002D9AD1002E0CD061783046FCF77E
:1076B000D5FE2070079821464088FCF7CBFF0020BC
:1076C00009B0F0BD002F00D10A270398018808985F
:1076D00001803846F4E70000A2B7FF1F43B3FF1F45
:1076E000F3B585B005983B4D08300390078800241A
:1076F000019404A80090039803794188421D3846FC
:10770000FCF772FF06004CD005987789317A4088E3
:10771000FCF79AFF0190002843D12F481322002143
:107720006B4607C305982B4B69460A8A4088163B6F
:107730003146FDF785FE0190002832D1002C2AD079
:1077400025486978C01EC078801C81422BD122490F
:10775000C91EC8782018132823D82A19B07A907027
:10776000641CE0B272892B18120A9A70401C0C46F5
:10777000CA78C6B21749A8191639801CFCF724FD2F
:10778000E0783018C4B2154887420AD07F1CBFB2D7
:10779000132CAED907E01048C01EC078801C68705A
:1077A000D5E7002C0CD069782046FCF757FE2870EE
:1077B000059829464088FCF753FF002007B0F0BD2C
:1077C0000198002801D10A200190069807800198AD
:1077D000F4E70000A2B7FF1F43B3FF1FFFFF000045
:1077E000F3B585B00027264C059E27703D46083628
:1077F00038E06800305A03A9FCF794FD010013D06B
:107800002048162300226F460DC705981C4B6A4678
:107810004088163B9289FDF713FE070006D06800EA
:10782000315A0698018028E00127F8E715492078A9
:10783000C91ECA788218162A02D91622101AC870D0
:1078400022781049601C1018C91ECA780C491639D4
:10785000FCF7BAFC0B482178C01EC07808186D1CD4
:107860002070EDB2B07DA84202D920781628C0D38E
:10787000059821464088FCF7F9FE384607B0F0BD70
:10788000A2B7FF1F43B3FF1FFEB504460F460646CF
:107890000834008901A9FCF745FD050022D0287AAB
:1078A00080060ED568468088FFF782FC030006D06C
:1078B0007088122229469847050002D013E00E2551
:1078C00011E000200090A37821887088E21CFDF769
:1078D0003BFF050007D1207E002809D17088FCF706
:1078E000CBFE02E0012520883880207E002801D0D0
:1078F0000020FEBD2846FEBDF8B50446024618200D
:10790000424319480025064645700836706800282D
:1079100007D00020C1008919401C00064D60000EF0
:10792000F8D0124F00213846FCF754FC00231846CB
:107930006043C0B218214843C1190B48DA0008302F
:1079400016187160002105E018224A437068491C2E
:107950008552C9B2A142F7D35B1C1B061B0EE6D0B1
:10796000014844700020F8BD40B3FF1FACB5FF1FB5
:107970007CB50C78069D022C0ED14C682678647874
:1079800024023419054EA4B2F44205D10224009514
:107990000194FDF70DFD7CBD01207CBDFED6FFFFEF
:1079A0000848816C491C8164C16CC26C0902C90F12
:1079B0005203D20F5140C26C5202120A5118C164D4
:1079C000C06C704710B5FF1F034610B5002002467B
:1079D00004E054001C5B2018521CD2B28A42F8D337
:1079E000FCF750FE0005000D10BDF8B50698002705
:1079F0001D4614460E46002801D00B20F8BD3078F5
:107A00000021022801D019704DE07068027840789A
:107A100000021018152280B25202801A0300FCF7EF
:107A200003FC0504121F1A254100F068FCF78CFCCA
:107A3000C2B20798824200D902462A70F1682046F5
:107A4000FCF7C2FB30E0F06802210088297020704A
:107A5000000A607028E0062028700246F168EEE710
:107A600001202870F068007820701DE0F068002880
:107A700016D008212970017821700188090A6170E7
:107A80008178A1704188090AE170017921718188AA
:107A9000090A61718179A171C088000AE07103E06F
:107AA000297001E0297001273846F8BD10B50B7820
:107AB000840702D50224234301E0FD2423400B70F8
:107AC00003070B7802D50824234301E0F724234061
:107AD0000B7083060B7802D52024234301E0DF24BA
:107AE00023400B700A21084201D1810603D510788A
:107AF0000C21084304E0002803D11078F32108404A
:107B0000107010BDFFB581B0087800240A9E1F4692
:107B10000D4602280FD168680178407800020818E5
:107B2000152180B24902401A09D0012829D0022823
:107B300048D003283CD00124204605B0F0BDE868B9
:107B4000FCF702FCC0B2864205D8F0190090152857
:107B500003D90D24F0E70724EEE7E8683A468019D8
:107B60000399FCF731FB0098EA6880B200211154B8
:107B70001C4840680028DFD001680029DCD00020C4
:107B800012E0002E12D1022BE3D10399E8680A78A3
:107B90004978090251180180124840680028CBD06A
:107BA00001680029C8D001208847C5E70B24C3E736
:107BB000002EFBD1062BCCD10622E8680399FCF7F6
:107BC00003FBB9E7002EF1D1012BC2D10398007855
:107BD000002803D0012801D08024ADE7E9680870AF
:107BE000AAE70000C0B3FF1F10B5122801D305207B
:107BF00010BD0B4B9C6B01228240104620439863C2
:107C0000586B90435863D86B002906D09043D863D3
:107C1000186B02431A63002010BD1043F7E7000001
:107C20000080004010B506480079012804D00328E0
:107C300001D100F0DDFF10BD00F092FF10BD00008B
:107C4000B8B8FF1F084B042807D2012207E01043F1
:107C500000E09043586100207047012212388240B2
:107C600058690029F5D0F2E700380040704700005D
:107C700070B50F4E002435196878022806D9E0B295
:107C800000F0B6FA0146E0B200F0CEFA232C0ADA90
:107C90006878022807D9E0B200F0AAFA0C21614303
:107CA000891920314871641C232CE4DB70BD00006D
:107CB000D4B9FF1F70B502211020FEF74BFC102035
:107CC000FEF71AFC114E00240C206043801920306E
:107CD0000079002813D0E0B200F012FBE5B228468C
:107CE00000F086FA00280ED000210C226A43921977
:107CF00020325279824202D0284600F03DF8641CBE
:107D0000232CE1DB70BD0121EFE70000D4B9FF1F98
:107D1000F3B5184E81B00F46002401200199A04010
:107D2000084222D0384201D1012500E00025E0B20E
:107D3000294600F021F80C206043801941688068D2
:107D400000290DD0002806D0002D02D00021E0B27D
:107D500003E00121FBE7E0B20021FFF745FF04E06B
:107D6000002802D0E0B20121F7E7641C122CD4DB1A
:107D7000FEBD0000F8B9FF1F074A0C2343439B18C0
:107D80005A68002A01D0002904D09A68002A02D03B
:107D9000012900D110477047F8B9FF1FF0B5204EF8
:107DA00095B0706B400A40027063002404ADF06B24
:107DB0000127A7403840800522D00020E301810040
:107DC0005A1818495118C96842000905090D401C84
:107DD000A9521D28F3DBB16B01203943B16312496D
:107DE0000A78002A0CD0A20051184968002907D04F
:107DF00000906A4614711D200295107368468847EA
:107E0000641C082CD3DB08484078002801D100F01E
:107E1000DBF8706B05490843706315B0F0BD0000D6
:107E200000000540000405409CBBFF1FFF0100004F
:107E300010B50448C16B034A40321068D060FFF7A8
:107E400067FF10BD0080004010B50E488068000735
:107E5000000F062807D007DC02280BD0042802D127
:107E6000012000F017FE10BD072806D00C28FAD11B
:107E70000220F6E700F036FE10BD02484030C06B2D
:107E800010BD000000400040F7B5044638480078B7
:107E9000002805D037480178002903D01120FEBD05
:107EA0001220FEBD002A0BD0082C0BD0002C09D0CC
:107EB00069464D79012C07D0002D05D0E10703D08C
:107EC0000620FEBD0520FEBD8570A1000818426099
:107ED0001120FEF745FE2848C16B40221143C163C3
:107EE0002548403001681203114301604168802237
:107EF00011434160416892039143416041684214DB
:107F000011434160C16B10221143C16368468179FE
:107F10002A46204602F0AAFD174E20464836002D7C
:107F200013D002F081FD082200231146304602F0F2
:107F3000F7FD0B2200231146304602F0F1FD2046EA
:107F400002F066FD641CE0B20EE002F06DFDE00799
:107F500003D001230B22114602E00123082211461F
:107F6000304602F0DDFD204602F052FD0020FEBD4D
:107F700004B5FF1F9CBBFF1F00F0004010B50C486C
:107F80000078002812D00B4901200870112000F061
:107F900045FA094881680822114381600749C005F4
:107FA0000860084906484863002010BD122010BD33
:107FB00004B5FF1F9CBBFF1F40F0004000E100E044
:107FC000FF01000000000540F8B51D4800780028BA
:107FD00034D01D491B48486301201C4940070860F4
:107FE0001B48816808229143816041684214914393
:107FF0004160184E184F0024A000801940680028E6
:108000000FD0E0B23D5CFF2D0BD00021284600F0E0
:108010002DF80021284600F0A3F80021284600F0A2
:10802000CBF8641C092CE7DB1120FEF78FFDFEF76F
:1080300085FD112000F078FA0020F8BD1220F8BD6F
:1080400004B5FF1FFF0100000000054080E100E0D3
:1080500040F000409CBBFF1F98B1FF1F03E00B786E
:108060000370401C491C521EF9D2704770B503467C
:1080700001220B3B14469C400B4D00290ED0C1063B
:10808000C90E8A40410989004919CB6B9343CB63E0
:10809000002100F091F82868204301E02868A043FF
:1080A0002860002070BD000000380040C306DB0ED1
:1080B00001229A40064B40098000C0180029C1687F
:1080C00001D0114300E09143C160002070470000DF
:1080D0000038004030B50D4604460121FFF7E6FFA9
:1080E000A108074889000A189169A007C00EFF235C
:1080F00083409943854029439161002030BD0000B1
:108100000038004010B5114C2078002801D007201D
:1081100010BDFF21C9310D48FCF703F80120207084
:108120000B490020086348630A490862486202213B
:108130001020FEF70FFA1020FEF7DEF9064A074975
:108140000D2000F0B5F9002010BD0000D4B9FF1FCC
:108150000080004080F00040B57CFF1F717CFF1F55
:1081600030B50D460446042803D320461F380328A3
:1081700003D801212046FFF765FD00212046FFF7C7
:1081800095FF01200B49122C08D2A0404A68002D0F
:1081900001D0024300E082434A6008E0123CA04064
:1081A0000A69002D01D0024300E082430A610020E9
:1081B00030BD00000080004070B50C460A21FCF77D
:1081C0004DF94A008A1801210B46521C9340551C58
:1081D000A9400B43D94383000448181883680B4017
:1081E0002146914019438160002070BD00F000409D
:1081F0000C4A0C4B0121403A122807D281405068AA
:10820000084201D0106809E0186907E0123881407F
:108210001069084201D0D06800E05869084000D0D9
:108220000120704740800040F8B50E4605460A21FF
:10823000FCF714F948000918EA060124D20E20467A
:1082400090406A0993000B4A9A18136A0343136219
:108250008C40084F2846803F0A21FCF7FFF8800039
:10826000C0198168002E01D0214300E0A143816044
:108270000020F8BD80F0004030B50D4604460121D5
:10828000FFF76EFF01220B48122C08D2A2400168B2
:10829000002D01D0114300E09143016008E0123C41
:1082A000A240C168002D01D0114300E09143C1609C
:1082B000002030BD0080004030B504460E48112C2F
:1082C00001D9052030BD0C210025614345540A48E1
:1082D00029462438001945702046FFF741FF074919
:1082E000886B4A6B0120A0400346104348630A6B29
:1082F0009A430A63284630BDF8B9FF1F008000404A
:1083000070B5054618480C226A43141861680126A6
:10831000002902D1A168002906D01349243949193E
:10832000122D03D3032302E0122070BD04234B70EF
:108330000121815400212846FFF712FF60680028C0
:1083400010D0A06800280CD02846FFF751FF002865
:1083500001D0012100E000212846FFF745FC002064
:1083600070BD00263146F7E7F8B9FF1FF8B516468D
:108370000D460446084FFFF79FFF0C206043C319CA
:108380009E6020465D60FFF7BBFF050002D02046DF
:10839000FFF792FF2846F8BDF8B9FF1F04494209CC
:1083A00003D00020486006207047486000207047D6
:1083B000FCB4FF1F10B5002311221521024802F062
:1083C000AFFB002010BD00001CF0004010B50448B9
:1083D000112243681521034802F0A2FB002010BDC2
:1083E000FCB4FF1F1CF0004010B578210948FBF7D2
:1083F00098FE09480078012805D0022806D00328F5
:1084000006D0042804D1FCF743F901E0FCF746F953
:10841000002010BD5CB9FF1FFCB4FF1F10B512494E
:10842000044609781220012914D0042912D072B60A
:1084300000210E4B0C224A439A5C002A11D0A24222
:108440000CD10C2251430120C9184870FCF720F9C7
:10845000002006E0FCF71CF9002010BD491C0A2989
:10846000E8DB62B610BD0000FCB4FF1F5CB9FF1F63
:1084700070B50E4605460622002311460A4802F052
:108480004FFB002407E0620050194178A85CFFF719
:10849000CBFE641CE4B2B442F5D3034903481C3953
:1084A0000860002070BD00001CF00040A5A55A5ACD
:1084B00070B500240E4E23460C255D43755D854244
:1084C00001D1072070BD002D0BD05B1C0A2BF3DB04
:1084D000002C0AD0002363702070A26018466160EF
:1084E00070BD0C2463439C19F2E7032070BD0000AB
:1084F0005CB9FF1F70B5FFF769FF0A4D00242046E5
:108500000C214843295C002909D040194068002803
:1085100000D08047641C0A2CF1DB002070BD1220C3
:1085200070BD00005CB9FF1F70B5154900220978C5
:1085300001290FD004290DD072B60021114D0E462D
:108540000C234B43EC5C002C0FD0844205D15B190B
:108550005E7007E0FCF79CF80CE05B195B78002B81
:1085600000D0521C491C0A29EADB002A04D0FCF77F
:108570008FF862B6002070BDFCF790F8F9E70000B4
:10858000FCB4FF1F5CB9FF1F70B50A4D00242046E4
:108590000C214843295C002909D040198068002833
:1085A00000D08047641C0A2CF1DB002070BD122033
:1085B00070BD00005CB9FF1F0248C06A0249800814
:1085C000081A70470010024040420F0010B51649CB
:1085D0003F200870154901200870154900200870D7
:1085E00000F030F813480421C16113498160C16073
:1085F00001611249416101210A20FFF7DDFD0D48AB
:108600000D230F221221143002F08AFA00210420D7
:10861000FDF77EFF01210220FDF77AFF084A0021C5
:108620002020FFF745FF10BD6BB5FF1F6CB5FF1F86
:108630006DB5FF1F00F00040B66DDB36B6EDC3B080
:10864000FDA9FF1F70B515480022C0680424866B81
:108650001025134813493300FBF7E6FD070808050A
:108660000C0E1308050005600C600DE0202202606E
:10867000052004E0302305E0402202600620086067
:1086800002E0602303600A60FCF70EF8FCF712F8C2
:1086900002F070F801F04CFF70BD000010B5FF1F34
:1086A0002010FF1F2410FF1FF8B51F4E1E4F083665
:1086B0001E4C1125012820D000281DD1002110209A
:1086C000FFF77AFD00211120FFF776FD0323082232
:1086D0000921304602F024FA0622002311463046D2
:1086E00002F01EFA16231B221F21384602F018FA48
:1086F0002068C16AA943C162F8BD05231B221F215E
:10870000384602F00DFA0A4B07221021304602F0DB
:1087100007FA062201231146304602F001FA2068CA
:10872000C16A2943E7E7000014F000401CB5FF1FB1
:10873000FB030000F8B5FF212D312B4E2B4C0028F8
:108740001AD001232A4A9B04022817D08025012829
:1087500019D016681E431660536806460B3601276B
:10876000B7403B43536053682B43536003281AD0F0
:10877000042833D01F4A17E0266016E015681D4311
:1087800015601D4A10E017681F43176053680127E2
:108790007F05BB43536053683F123B4353605368AC
:1087A0002B435360E8E7154A2260491E0904090C6F
:1087B000FBD103460E4800220321001F02F0B0F94E
:1087C00001208007C1690E4D890709D58069000520
:1087D000010E491C2068FBF741FE02E0094AE3E76D
:1087E00020682860F8BD00000048E8011010FF1F55
:1087F00040F0004000D8B8050024F400006CDC0212
:108800001410FF1F0090D0031FB5124C20780028D1
:1088100002D0112004B010BD20210E48FBF781FCCE
:108820006846407A002803D16846C07A002801D003
:108830000520EFE768460FC810340FC40120203C24
:10884000207002F05DFA044A00210820FFF730FE94
:108850000020DFE73CB9FF1F01ADFF1F10B5054A3F
:10886000927E002A02D002F00BFA10BD02F0D4F979
:1088700010BD00003CB9FF1F6D46294606A001F05F
:1088800029FC0024A000295809A001F023FC641C45
:10889000102CF7DBFEE7000048617264204661752A
:1088A0006C742053502069732025780A0000000062
:1088B000307825782C000000F8B55249504A534BC7
:1088C0005148CA60D861002003468400401C1351FF
:1088D000FF28FADDC8684E4A04468034A2600622AA
:1088E000C2620A2202654B4A157885634A4DC5610A
:1088F00015781426022D03D01578032D03D003E03C
:108900001025056200E00662444D4561444D8561D5
:108910003C25E5603625C563342747640825056492
:108920003927676032272760AF24E4000460147899
:10893000022C03D01278032A02D003E0466001E043
:108940000B224260C824FF22C4602D328260A40042
:108950000461344C84647D26F6004662324CC46463
:10896000324E86620226466682660926C666304E0A
:10897000066745678267B210C2674C618B70CB8017
:10898000CB700B812C482B491F4A81602B49803AC0
:10899000294B11612A49803399622A49C1622A49C7
:1089A000016325482949C0384163294901602249AA
:1089B000284A8039CA62284A0A60284AC2601E4A88
:1089C000274C403A9463274C1463274C5463274C3C
:1089D0004C61274C8C61274C0C62274CDC61274C86
:1089E0001C62274BD363274ACA6127498162274902
:1089F000C16227498163FEF74BF8FEF759F8F8BDCD
:108A0000000CFF1F10B5FF1F000CFF1F0010FF1F01
:108A1000F0C1FF1F6EB5FF1F7E04000060E316006B
:108A2000DC05000050C30000540B00006A18000071
:108A3000204E0000A59BFF1F0009FF1FF95AFF1FD2
:108A400031A5FF1FB159FF1F6158FF1F3590FF1F50
:108A5000E960FF1F2593FF1FA18CFF1F3D63FF1FD0
:108A60000DAEFF1F399FFF1F456DFF1FA99CFF1F04
:108A70008163FF1F9D97FF1FB5AFFF1F456AFF1F53
:108A8000B16BFF1FB992FF1FF198FF1FAD95FF1F3C
:108A90000D8EFF1F70B5114C88B0217E104B03ADB9
:108AA00000290BD00E4980314968CAB2002102E08A
:108AB0001E786E54491C9142FADB04E0197D0122B4
:108AC00019786B461973E169002905D06B46187057
:108AD00001951A726846884708B070BD3CB9FF1FFF
:108AE000004000403EB51B4A1178101D00292FD0D0
:108AF000117E00292CD0917E002929D001780229ED
:108B000026D1818844888368091B89B2102900D93D
:108B1000102100290BD0104C0A46491E89B2002AA8
:108B200016D04288551C45809A5C2270F4E70121DA
:108B30000170002141808180D169002905D007485A
:108B40006C460DC80DC4684688470820FFF7ECFC4A
:108B50003EBD00003CB9FF1F004000408CB1FF1F2C
:108B600070B50E20FFF744FB114C002814D0114DB6
:108B700008212878FBF788FB0F4A80212878FBF72B
:108B80007DFB02202071FBF79BFD2060A16800297E
:108B900001D00120884770BD0E20FFF729FB002877
:108BA000F9D12120FFF7C0FC0020207170BD00002A
:108BB000B8B8FF1FB1B4FF1FB80B0000014610B5D5
:108BC0000A480329407807D0042907D0012909D091
:108BD000022906D1090202E0402100E08021FBF7D2
:108BE0005FFB10BDFF210131F9E70000B0B4FF1FAA
:108BF00070B50E20FFF7FCFA164D002807D00E20A6
:108C0000FFF7F6FA002801D00220287170BDFBF7AB
:108C100057FD2968441A104844432120FFF784FC7B
:108C200000202871A8680028F0D00C488021007826
:108C3000FBF72AFB0A48844202D30420A96806E015
:108C40000848A968844201D8032000E00220884730
:108C500070BD0000B8B8FF1F71020000B1B4FF1F63
:108C6000C0C62D0000350C00024610B50348202177
:108C70000078FBF703FB002010BD0000B1B4FF1F1C
:108C800010B519242402428E01E0491E4184418C12
:108C90004B1C5343A34201DD0029F6D110BD000057
:108CA000F0B585B054480290FBF710FD002856D06F
:108CB00000200190FBF710FD302148434F49451833
:108CC0004F482818FF35FF3502350090A88A060A5C
:108CD0008707BF0F44D04848044680306034039073
:108CE000032F14D0002E02D0207C002838D0454815
:108CF000816D491C81650398807B002800D0042089
:108D0000301A80B2FBF7EEFC0190002831D00398B6
:108D1000807B002809D0361FF6B232463946009BC8
:108D20000298FBF7E5FC002828D0032F2ED0354809
:108D30003246816B491C816300990198FFF78EF9D7
:108D40001120205600902C483B46C07832460199AD
:108D5000FBF7D4FC00202861A882FBF7D5FC3EE09D
:108D60003D210298FBF7D6FC2648C16B491CC16324
:108D70003FE02448016E491C01663AE00198FBF788
:108D8000CFFC3D210298FBF7C5FC32E01D4E706B15
:108D9000401C7063FBF7B8FC1B48007808280DD016
:108DA00000980078032813D0062811D002280FD08D
:108DB0000D280DD0207C002805D009E000990298EC
:108DC000FBF7B4FC0BE00298E030007B002809D0F0
:108DD00000990298FBF7B0FC00202861A8820120CE
:108DE00005B0F0BD3D210298FBF794FCF06B401CF0
:108DF000F0630020F4E700005C2AFF1FC42BFF1F74
:108E0000160200000C31FF1FE511FF1FF8B50446E4
:108E10000A78FF302646274625460130E03660377F
:108E20008035491C1300FBF7FFF90D084BF865F579
:108E3000F5AE60BE60B1BBDBF50008782870204657
:108E400002228230491CFBF77DFC014620460222AB
:108E50008430FBF777FC0146204602228630FBF780
:108E600071FC0146204602228830FBF76BFC297812
:108E7000022249002970698849006980A98849004F
:108E8000A980298909012981014620467E30FBF706
:108E900059FC7E20005BE188401A81B26148814222
:108EA00001D3282122E0E888A988401C49004843D2
:108EB0002989884201D33B2118E00120387712E04C
:108EC00005225948FBF73EFC0146204602228C3021
:108ED000FBF738FCA889E188401A81B251488142E9
:108EE000DFD20120A8720020E083F8BD2046FBF706
:108EF00011FCF8BD307D002809D14C4A2518131803
:108F0000E035401C5B78C0B26B750828F6D3707DE5
:108F1000C00734D00020B871387401203074204666
:108F20000822A830FBF70EFC014620460222B03092
:108F3000FBF708FC01462046A03008220646FBF756
:108F400001FC054608213046FBF702FC2046294675
:108F5000943004220546FBF7F5FB04212846FBF775
:108F6000F7FB20469830FBF7F9FB20469030FBF7E3
:108F7000FBFB0C212E48FBF7FDFB04212CE01A2003
:108F800070730D2128E00120B073F8BD0020B87186
:108F90003874DF2108550121317330700B211BE03B
:108FA0000120F073F8BD214A002013182518E03580
:108FB000401C5B78C0B26B750828F6D300201518EA
:108FC0000B786D78491C2B402518E035401CC0B249
:108FD0006B750828F3D309212046FBF7D1FBF8BDB8
:108FE000737F012B16D00A780270E01D0222FB303D
:108FF000491CFBF7A7FB0146E01D0222FD30FBF7F1
:10900000A1FB01207077F07F0028E8D10C21E3E775
:1090100000E002E042720721DEE7097801720122D6
:10902000C27163E7FF7F0000F411FF1F802BFF1F59
:109030000032FF1FF0B504468BB0C0300A902046C6
:10904000F53002900B300790274625468038E037F0
:109050006035264640360990A5E0E87C801E030076
:10906000FBF7E2F80C07A11B3265F3BCDCA18BF423
:10907000A7A1A87C012803D0204600F057FB12E0EE
:109080008C488078002801D01621D8E0708F401ECF
:109090000004000C70876FD009E1A87C012804D07F
:1090A000204600F009FAA87401E18248C07800283F
:1090B000ECD02046FBF76AFB22462146E078B0322E
:1090C000A831FBF769FB6EE0A87C012812D00A9852
:1090D000C07F012822D03878002868D02246214657
:1090E0002046BF329831CF30FBF75CFB0A99012054
:1090F000C87758E06F48C078002807D00999012048
:10910000887309980021416609988166B87B012817
:10911000BCD106212046FBF74BFB44E02046FBF781
:109120004DFB0128B8D10020B8730120BBE7A87C13
:10913000012803D02046FBF747FBB4E75D48C07821
:109140000028A3D0608CE0832046FBF71FFB0120A2
:10915000A8712874387B0128E07809D00122002109
:10916000FBF738FB002038733874F873B8731AE0D3
:109170000021FBF735FBF5E760E0A87C012805D06E
:109180002046FBF733FB012807D090E0F87B01284D
:10919000BED12046FBF7FAFA05E00020F8730999E2
:1091A00088730120A874E87D002800D055E70BB033
:1091B000F0BDA87C012803D0204600F09BFA72E79E
:1091C0003C48C178002905D0099A002191730121FA
:1091D000A971297480780028DBD157E7A87C012881
:1091E00006D02046FBF708FBA874002038755EE027
:1091F000387D012806D0708F401E0004000C708757
:1092000006D054E0E1780020029AFBF7FBFAC0E7B1
:10921000E1782220029AFBF7F5FA0FE0A87C0128FA
:1092200003D0204600F08CF93DE72248C0780028A2
:10923000D3D001203875608CE083AAE72221204634
:10924000FBF768FA0120B2E700E02BE0A87C0128D8
:1092500005D00120F8772046FBF7DAFA23E7787F7C
:10926000012806D0708F401E0004000C70870ED0BD
:109270001DE0B87F01288CD107988088009007985E
:10928000E178438802780020FBF7C8FA81E7079865
:10929000808800900798E178438802782220FBF7C5
:1092A000BDFACBE7204600F0F5FA0128AFD0002048
:1092B0007DE700008031FF1F10B5FBF7ABF8FBF72F
:1092C000AFF8164CA07B0300FAF7AEFF0507040DBC
:1092D0000A041800FBF7A8FA07E0FBF7ABFA04E072
:1092E000FBF7AEFA01E0FBF7B1FA0D4988780028E8
:1092F00011D0627BD30703D0252206E0122010BDD7
:10930000920701D5262200E02722237D934202D135
:10931000C988FAF7C5FF002010BD0000442AFF1FCE
:1093200010B5FF1FF8B5574C574EA17BF0680129C7
:109330003BD0856A554F2A220021B81DFAF74AFF13
:10934000B888A179000900014022401C904389019E
:1093500001434F48802200789143C00108433F21D8
:1093600009028843032189024018B8800622E11DC2
:10937000B81DFAF729FF464938460622491C0C3029
:10938000FAF722FF207D2538032803D30020FBF7BE
:1093900063FA2075207D0746FBF75EFA2075A17BF6
:1093A000012904D0B84219D916E0456AC2E7394903
:1093B000F0680A68C06D5219801808603649884202
:1093C0000AD3364800210170FBF74CFA34480221D9
:1093D0000078FAF765FFF8BD28460EE0607BC1070C
:1093E0008207C90FD20F89184007C00F081861887B
:1093F0002C4A401E51436843081AFBF723F82748BC
:10940000022101702020FAF7D5FF2748FBF768F802
:109410002648FBF76BF83846FBF76EF83846FBF743
:1094200071F8FF20FBF724FAF068416CCAB2016CB6
:10943000808FC9B2C0B2FAF7E1FFFAF7EBFFFAF793
:10944000EFFFFBF71BFA0320FBF774F80F48818846
:10945000001D090A891CFAF7E9FFFAF7D5FF14493C
:1094600001200860A17B1348012906D00169491C2D
:1094700001611020FAF79EFFF8BDC168491CC16068
:10948000F7E70000442AFF1F10B5FF1FC42BFF1F82
:109490000C12FF1FF011FF1F00881300E511FF1FC2
:1094A000E411FF1F7102000055555500D6BE898E8C
:1094B0001812FF1F0C31FF1FF8B504461C481D4D44
:1094C000861C6865FBF7E0F9002801D00020F8BD94
:1094D00004203070164821469831C01C08220F46DF
:1094E000FBF7D8F92146903104220E46FBF7D2F95A
:1094F00008213846FBF72CF904213046FBF728F900
:10950000002008210A1A12198032D37B2218A032B7
:10951000401CC0B2D3750828F4D307490120087055
:10952000696D064808804034208F60870120F8BDAF
:109530008C31FF1F10B5FF1F1412FF1F030D000019
:10954000F8B50446164E1548164F7065164938781A
:109550000978084301D00020F8BD10480925801C77
:1095600005702146401C0822F531FBF793F98E2047
:10957000005D002807D0736D2A46032120469B1CFE
:10958000FBF78EF90D250020E083012038702802BA
:10959000716DC01C08800120F8BD00008C31FF1FD8
:1095A00010B5FF1F1412FF1F1312FF1FF8B54E4C0A
:1095B000FBF76AF925462E4660368035002814D11F
:1095C000A06E002811D14948006900280DD14848F3
:1095D0000078002809D12078002806D1207F0028B3
:1095E00003D0B17C002902D00BE0002008E0317FDD
:1095F000002906D1A97A002903D1012801D1608C64
:10960000E083E088E18B4018401C20812046FBF776
:109610004DF9012804D10020E083E088401C20811E
:109620000096307F304E2036012845D127464037FE
:10963000FA8F2189E088FBF73FF900283CD0F88FAA
:10964000208129462046FBF73DF9E8886084002008
:109650002077E083012020712089E1894018A081D2
:10966000E188F88FFBF734F9618E6A8848438718E0
:10967000A888884207D12989E28E914203D1E988DE
:10968000A28E914206D02989EA880B094108E07828
:10969000FBF724F92878B073A8886086E888A0864C
:1096A0002889E0862046FFF7EBFA2046FBF71CF9F5
:1096B00000990020087700E0678EA069B84203D1C6
:1096C0003078E18B884206D02346327BE18B14331D
