:10000000000004207D1A0000B91A0000B91A00008F
:1000100000000000000000000000000000000000E0
:10002000000000000000000000000000B91A0000FD
:100030000000000000000000B91A0000B91A00001A
:10004000B91A0000B91A0000B91A0000B91A000064
:10005000B91A0000B91A0000B91A0000B91A000054
:10006000B91A0000B91A00000000000000000000EA
:100070000000000000000000000000000000000080
:100080000000000000000000000000000000000070
:100090000000000000000000000000000000000060
:1000A0000000000000000000000000000000000050
:1000B0000000000000000000000000000000000040
:1000C000054B0648033310B51B1A062B03D9044B06
:1000D000002B00D0984710BDE8040020E804002061
:1000E000000000000648074910B5091A8910CB0F17
:1000F0005918491003D0044B002B00D0984710BD6D
:10010000E8040020E80400200000000010B5074CBF
:100110002378002B09D1FFF7D3FF054B002B02D02A
:10012000044800E000BF0123237010BDE808002050
:1001300000000000AC1E0000094B10B5002B03D0DE
:100140000849094800E000BF08480368002B02D1B5
:10015000FFF7C8FF10BD064B002BF9D09847F7E713
:1001600000000000EC080020AC1E0000E4040020A9
:1001700000000000144B002B00D1124B9D46402282
:1001800092029A1A924600218B460F461148124A53
:10019000121A00F0BCF80D4B002B00D098470C4B06
:1001A000002B00D098470020002104000D000B48D0
:1001B00001F0D2FC01F002FD2000290001F022FC38
:1001C00001F0D2FC00000800000004200000000044
:1001D00000000000E8080020340E0020891B000009
:1001E00080B582B000AF0200FB1D1A70FB1D1B78AA
:1001F0007F2B09D8064BFA1D127811001F220A40E6
:10020000012191400A001A60C046BD4602B080BD7F
:1002100000E100E0B0B582B000AF02003960FB1D24
:100220001A70FB1D1B787F2B28D82F4CFB1D1B78C9
:100230005BB29B082C49FA1D127852B29208C03268
:1002400092005258F91D0978080003210140C900A5
:10025000FF2088400100C94311403A689201FF2005
:100260001040FA1D1278150003222A40D200904057
:1002700002000A43C0339B001A5131E01B4CFB1DA6
:100280001B781A000F231340083B9908174AFB1DDF
:100290001B7818000F230340083B9B0806339B0084
:1002A000D31804331B68FA1D127810000322024091
:1002B000D200FF2090400200D2431A403B689B01CD
:1002C000FF201840FB1D1B781D0003232B40DB0083
:1002D000984003001A438B1D9B00E31804331A60F7
:1002E000C046BD4602B0B0BD00E100E000ED00E058
:1002F00080B584B000AF0200FB1D1A70BB1D0A1C44
:100300001A70FB1D1B781F22134001229A40130014
:10031000FB60BB1D1B78002B14D0FB1D1B785B09F9
:10032000DBB29B00144A94466344FA1D12785209CA
:10033000D2B2920010498C4662441168FA680A43AE
:100340001A6014E0FB1D1B785B09DBB29B000A4AB4
:1003500094466344FA1D12785209D2B292000649BB
:100360008C4662441268F968C9430A401A60C04664
:10037000BD4604B080BDC046A0F0004080B584B04A
:1003800000AF0200FB1D1A70BB1D0A1C1A70FB1D7A
:100390001B78112B01D905234CE0284B1B68FB600F
:1003A000FB1D1B7801229A4013001A00FB681343BF
:1003B000FB60224BFA681A60214B1B68FB60FB1D37
:1003C0001B7801229A401300DB431A00FB6813409C
:1003D000FB601B4BFA681A601A4B1B68FB60BB1D65
:1003E0001B78002B09D1FB1D1B7801229A401300BA
:1003F0001A00FB681343FB6009E0FB1D1B78012218
:100400009A401300DB431A00FB681340FB600D4B5E
:10041000FA681A600C4B1B68FB60FB1D1B780122FD
:100420009A4013001A00FB681343FB60064BFA68FE
:100430001A6000231800BD4604B080BD388000401B
:10044000348000403C8000403080004080B584B063
:1004500000AF0200FB1D1A70BB1D0A1C1A70224B54
:10046000FB60FB1D1A7813005B009B189B001A00B1
:10047000FB689B185B68002B13D0BB1D1B78002BFF
:100480000FD1FB1D1A7813005B009B189B001A000C
:10049000FB689B185B68FA1D1278002110009847D2
:1004A0001EE0FB1D1A7813005B009B189B001A00CE
:1004B000FB689B189B68002B12D0BB1D1B78012B7F
:1004C0000ED1FB1D1A7813005B009B189B001A00CD
:1004D000FB689B189B68FA1D127801211000984751
:1004E000C046BD4604B080BD2809002080B584B058
:1004F00000AF0200FB1D1A70FB1D1B78180000F0F6
:10050000EFF803001A000F23FB181A700F23FB18D3
:100510001B785A425341DAB20E23FB181A70FB1DA6
:100520001A780D49252013005B009B189B00CB18FF
:100530001B181B780F22BA1812789A4208D00E2383
:10054000FB181A78FB1D1B7811001800FFF77EFFBF
:10055000C046BD4604B080BD0409002090B583B0FC
:1005600000AF00237B6036E01E4A7B68D31801335E
:100570001B78022B10D97B68DBB2180000F0B0F8B2
:1005800003001A00FB1C1A707B68DAB2FB1C1B7894
:100590001900100000F032FA7B68222B18DC114A97
:1005A0007B68D31801331B78022B11D97B68DBB22F
:1005B000180000F095F803001C000A497A6825200D
:1005C00013005B009B189B00CB181B18221C1A7091
:1005D0007B6801337B607B68222BC5DDC046BD464E
:1005E00003B090BD0409002080B582B000AF0221A5
:1005F0001020FFF70FFE1020FFF7F2FD00237B60B5
:1006000018E010497A68242013005B009B189B00B7
:10061000CB181B181B78002B09D07B68DBB21800A5
:1006200000F048FA7B68DBB21800FFF75FFF7B68D9
:1006300001337B607B68222BE3DDC046BD4602B000
:1006400080BDC0460409002080B582B000AF020022
:10065000FB1D1A70BB1D0A1C1A70FB1D1B78032B97
:100660001AD8BB1D1B78002B0AD01C4B1B4A1168E3
:10067000FA1D12780120904002000A431A6027E018
:10068000164B164A1268F91D0978012088400100AE
:10069000C9430A401A601BE0BB1D1B78002B0BD01E
:1006A0000E4B0E4A1168FA1D1278123A0120904042
:1006B00002000A431A600BE0084B084A1268F91D51
:1006C00009781239012088400100C9430A401A60A4
:1006D00000231800BD4602B080BDC046143800405B
:1006E00080B586B000AF0200FB1D1A70FB1D1B78A1
:1006F000112B19D8FB1D1B7801229A4013003B6176
:100700001A4B1B683A691340FB60FB68002B03D04F
:10071000174B1B687B6102E0164B1B687B617B6992
:100720003A6913407B6119E0FB1D1B78123B0122E3
:100730009A4013003B61104B1B683A691340FB6001
:10074000FB68002B03D00D4B1B687B6102E00C4B58
:100750001B687B617B693A6913407B617B695A1E28
:100760009341DBB21800BD4606B080BD0480004056
:100770000080004050800040108000400C8000400D
:100780005480004080B584B000AF0200FB1D1A7099
:10079000BB1D0A1C1A70FB1D1B78032B07D9FB1D00
:1007A0001B78222B09D8FB1D1B781E2B05D9FB1D9E
:1007B0001B7801211800FFF747FFFB1D1B78002164
:1007C000180000F03FF8FB1D1B78112B18D8FB1DFB
:1007D0001B7801229A401300FB60BB1D1B78002B85
:1007E00006D0164B154A1168FA680A431A6020E0D1
:1007F000124B124A1268F968C9430A401A6018E09D
:10080000FB1D1B78123B01229A401300FB60BB1DAD
:100810001B78002B06D00A4B094A1168FA680A4374
:100820001A6006E0064B064A1268F968C9430A4096
:100830001A6000231800BD4604B080BD048000404B
:100840001080004080B584B000AF0200FB1D1A701C
:10085000BB1D0A1C1A70FB1D1B781F2213400122AE
:100860009A401300FB60BB1D1B78002B14D0FB1DAE
:100870001B785B09DBB29B00144A94466344FA1D63
:1008800012785209D2B2920010498C466244116823
:10089000FA680A431A6014E0FB1D1B785B09DBB29F
:1008A0009B000A4A94466344FA1D12785209D2B258
:1008B000920006498C4662441268F968C9430A40AE
:1008C0001A6000231800BD4604B080BD0C380040FB
:1008D00090B583B000AF0200FB1D1A70BB1D0A1C4F
:1008E0001A70FB1D1B7801211800FFF7ABFFFB1DE1
:1008F0001B789B08DBB29B00124A94466344FA1DA6
:1009000012789208D2B292000E498C466244126864
:10091000F91D0978C90018200140FF208840010016
:10092000C9430A40B91D0878F91D0978C90018247F
:100930002140884001000A431A6000231800BD4688
:1009400003B090BD1838004080B586B000AF0200FB
:10095000FB1D1A70BB1D0A1C1A70BB1D1B787B6126
:10096000FB1D1B780A211800FFF77AFC0B00DBB295
:100970001A1C131CDB189B18DAB21323FB18013264
:100980001A701323FB181B7801229A401323FB18BB
:100990001B780133012199400B001343DB43FB60BB
:1009A000FB1D1B780A211800FFF75AFC0300DBB27D
:1009B0009B00114A944663441A68FB681340FB602D
:1009C0001323FB181B787A699A40FB6813437B61F9
:1009D000FB1D1B780A211800FFF742FC0300DBB265
:1009E0009B00054A944663447A691A600023180004
:1009F000BD4606B080BDC04608F0004080B584B05A
:100A000000AF0200FB1D1A70BB1D0A1C1A70FB1DF3
:100A10001B780A211800FFF723FC0B00DBB20F2222
:100A2000BA18191C0B1CDB185B181370FB1D1B7804
:100A300001211800FFF75CFC0F23FB181B78012233
:100A40009A401300BB60BB1D1B78002B15D0FB1D0B
:100A50001B780A211800FFF703FC0300DAB2130029
:100A60009B0013498C466344920011498C466244B2
:100A70001168BA680A431A6015E0FB1D1B780A2149
:100A80001800FFF7EDFB0300DAB213009B000849E2
:100A90008C466344920006498C4662441268B968E9
:100AA000C9430A401A6000231800BD4604B080BD47
:100AB00008F0004080B586B000AF0200FB1D1A7040
:100AC000514B3B611723FB1801221A700023FB6076
:100AD000FB1D1A7813005B009B189B001A003B69F2
:100AE0009B185B68002B0DD1FB1D1A7813005B006F
:100AF0009B189B001A003B699B189B68002B01D137
:100B000012237DE0FB1D1B78112B06D9FB1D1B78E2
:100B10003E4AD31803225A7005E0FB1D1B783B4A5E
:100B2000D31804225A70FB1D1A7813005B009B181F
:100B30009B001A003B699B1801221A70FB1D1B7851
:100B400000211800FFF71EFEFB1D1A7813005B0042
:100B50009B189B001A003B699B185B68002B24D0F4
:100B6000FB1D1A7813005B009B189B001A003B6961
:100B70009B189B68002B18D0FB1D1B781800FFF7F3
:100B8000AFFD0300FB60FB685A1E9341DAB21723E6
:100B9000FB181A701723FB181A78FB1D1B7811001D
:100BA0001800FFF7EBFB00232AE0FB1D1A78130067
:100BB0005B009B189B001A003B699B185B68002B2D
:100BC00004D01723FB1800221A700FE0FB1D1A78BF
:100BD00013005B009B189B001A003B699B189B68E5
:100BE000002B03D01723FB1801221A701723FB18C0
:100BF0001A78FB1D1B7811001800FFF7BFFB0023BC
:100C00001800BD4606B080BD280900200409002058
:100C100080B500AF164B1B78002B01D0072323E0D3
:100C2000E4235A00124B00211800FFF770FB104B11
:100C300001221A700F4B00221A630E4B00225A63D6
:100C40000D4B00221A600C4B00225A60022110202A
:100C5000FFF7E0FA1020FFF7C3FA084A084B190023
:100C60000D2000F09DFA00231800BD4680BDC0464F
:100C70000409002000800040A0F00040E9050000C9
:100C80005D05000080B582B000AF0200FB1D1A7048
:100C9000FB1D1B787F2B09D8064BFA1D127811001B
:100CA0001F220A40012191400A001A60C046BD4639
:100CB00002B080BD00E100E0B0B582B000AF02003C
:100CC0003960FB1D1A70FB1D1B787F2B28D82F4C19
:100CD000FB1D1B785BB29B082C49FA1D127852B29F
:100CE0009208C03292005258F91D09780800032179
:100CF0000140C900FF2088400100C94311403A6803
:100D00009201FF201040FA1D1278150003222A409C
:100D1000D200904002000A43C0339B001A5131E0D8
:100D20001B4CFB1D1B781A000F231340083B99082E
:100D3000174AFB1D1B7818000F230340083B9B0834
:100D400006339B00D31804331B68FA1D1278100079
:100D500003220240D200FF2090400200D2431A40FA
:100D60003B689B01FF201840FB1D1B781D000323DF
:100D70002B40DB00984003001A438B1D9B00E318B7
:100D800004331A60C046BD4602B0B0BD00E100E0C9
:100D900000ED00E080B584B000AF78600A00BB1CB5
:100DA0001A80354BFB60BB1C1B88002B02D07B6874
:100DB000002B01D106235BE0FB681B78002B01D1DF
:100DC000032355E0FB681B78012B01D011234FE072
:100DD000FB68DB88BA1C12889A4201D9032347E0DA
:100DE000FB689868BB1C1A887B68190000F00AFF32
:100DF000FB68BA1C12889A80FB6800225A80FB6844
:100E000002221A70FB689B68BB60FB689988FB68CC
:100E10005A88BB1C8A1A1A80BA1CBB1C1B8899B240
:100E2000102900D910231380144B144A5268022150
:100E30008A435A600BE01149FB685B885A1C90B2E8
:100E4000FA6850801A00BB689B181B780B70BB1C9B
:100E50001B88BA1C591E1180002BECD1074B074A86
:100E6000526802210A435A60082000F04BF900231F
:100E70001800BD4604B080BD180E002000400040A0
:100E800080B586B000AF78600A00BB1C1A800023D2
:100E90007B6100233B6107E03B695A1C3A61214AB0
:100EA000934201DD0D2339E01F4BDB6F012213401C
:100EB000F2D119E00023FB6007E0FB685A1CFA60DE
:100EC000184A934201DD0D2328E0174B1B7DDBB24E
:100ED0001A0020231340F0D013497B685A1C7A6013
:100EE0001B780B7000237B61BB1C1B88BA1C591E2E
:100EF0001180002BDED10023BB6007E0BB685A1CC9
:100F0000BA60084A934201DD0D2307E0064B1B7DC2
:100F1000DBB21A0040231340F0D000231800BD4676
:100F200006B080BDA08601000040004080B584B0BE
:100F300000AF324BFB6000F02DFA0300BB600820CD
:100F400000F0EAF9082000F002FAFB681B7808219B
:100F50001800FFF7BDFCFB685B7809211800FFF75C
:100F6000B7FC274B00221A73BB681B111A00FB68E1
:100F70005B685B08D218FB685B6819001000FFF71C
:100F80006FF903007B601E4B00221A611C4B80220C
:100F90001A731B4B7A68D2B21A70194B03221A7358
:100FA000FB681B7A002B03D0154B87221A7202E0D4
:100FB000134B00221A72124B01225A60FB681B7AF3
:100FC000002B05D00E4B0E4A526880210A435A600E
:100FD000FB689B7A002B05D0094B094A5268022115
:100FE0000A435A600B20FFF74DFE02210B20FFF74A
:100FF00063FEC046BD4604B080BDC046240E00203E
:101000000040004090B585B000AF3C0020606160BA
:10101000A260E360164B1B78002B01D0112322E065
:10102000134B202200211800FFF771F93B005B7A77
:10103000002B03D13B00DB7A002B01D0052312E00B
:101040000B4B3A00103313CA13C312681A60084BD3
:1010500001221A70FFF76AFF064B1A0000210820D0
:1010600000F09EF800231800BD4605B090BDC046B4
:10107000140E00202D0F000080B582B000AF786004
:101080000A00BB1C1A800C4B9B7E002B08D0BB1C9B
:101090001A887B6811001800FFF77CFE030007E048
:1010A000BB1C1A887B6811001800FFF7E9FE0300DB
:1010B0001800BD4602B080BD140E002080B500AF00
:1010C0000E4B782200211800FFF721F90C4B1B78FA
:1010D000022B0AD002DC012B04D00AE0032B07D03C
:1010E000042B06D106F028FA03E006F04FFA00E0E0
:1010F000C04600231800BD4680BDC046CC0A002073
:101100000000002080B584B000AF0200FB1D1A7003
:101110001223BB60204B1B78012B03D01E4B1B7886
:10112000042B03D106F008FA002330E072B6002346
:10113000FB6025E01949FA6813005B009B189B00CF
:101140005B5C002B20D01549FA6813005B009B18EC
:101150009B005B5CFA1D12789A420ED10F49FA6827
:1011600013005B009B189B00CB18013301221A70FF
:1011700006F0E2F90023BB6007E0FB680133FB6087
:10118000FB68092BD6DD00E0C04662B6BB681800DC
:10119000BD4604B080BDC04600000020CC0A00203F
:1011A00080B586B000AFB9607A600F23FB18021CCF
:1011B0001A7000233B6100237B6122E01E497A699B
:1011C00013005B009B189B005B5C0F22BA1812781F
:1011D0009A4201D107232BE017497A6913005B007B
:1011E0009B189B005B5C002B08D17A6913005B00A5
:1011F0009B189B00104A9B183B6105E07B690133FB
:101200007B617B69092BD9DD3B69002B01D103236D
:101210000EE03B6900225A703B690F22BA1812781F
:101220001A703B69BA685A603B697A689A60002311
:101230001800BD4606B080BDCC0A002080B582B043
:1012400000AF00F057F800237B6022E015497A6870
:1012500013005B009B189B005B5C002B01D11223E9
:101260001BE010497A6813005B009B189B00CB18A9
:1012700004331B68002B09D00A497A6813005B000D
:101280009B189B00CB1804331B6898477B6801337D
:101290007B607B68092BD9DD00231800BD4602B0B6
:1012A00080BDC046CC0A002080B582B000AF786017
:1012B0007B681F22934304D0064B00221A6006234A
:1012C00003E0044B7A681A6000231800BD4602B0A0
:1012D00080BDC046440B002080B500AF0448002309
:1012E0001122152100F072F900231800BD4680BDBF
:1012F0001CF0004080B500AF054B1B68054811226B
:10130000152100F063F900231800BD4680BDC046DA
:10131000440B00201CF0004080B582B000AF0200FA
:10132000FB1D1A70FB1D1B78022B0CD98023DB05DB
:101330008022D2059168FA1D1278012090400200A7
:101340000A439A6000E0C046BD4602B080BD80B549
:1013500082B000AF0200FB1D1A708023DB058022E3
:10136000D2051268F91D0978012088400100C9439F
:101370000A401A608023DB058022D2051168FA1D1D
:1013800012780120904002000A431A60C046BD4610
:1013900002B080BD80B500AF024B1B681800BD468F
:1013A00080BDC0461410FF1F80B582B000AF0200A0
:1013B000FB1D1A70FB1D1B78012B1CD12448052333
:1013C0001B221F2100F002F9224B23480722102183
:1013D00000F0FCF8204801230622062100F0F6F870
:1013E0001E4B1B682C331D4A12682C3212681121C7
:1013F0000A431A6027E0FB1D1B78002B23D1002134
:101400001020FFF7A1FA00211120FFF79DFA1248E2
:1014100003230822092100F0D9F80F4800230622EF
:10142000062100F0D3F80A4816231B221F2100F0E2
:10143000CDF80A4B1B682C33084A12682C3212680C
:1014400011218A431A60C046BD4602B080BDC04625
:1014500014F00040FB0300001CF0004014000020CA
:10146000B0B582B000AF02003960FB1D1A70FB1DE1
:101470001B787F2B28D82F4CFB1D1B785BB29B0859
:101480002C49FA1D127852B29208C032920052587A
:10149000F91D0978080003210140C900FF20884098
:1014A0000100C94311403A689201FF201040FA1D23
:1014B0001278150003222A40D200904002000A430D
:1014C000C0339B001A5131E01B4CFB1D1B781A00E6
:1014D0000F231340083B9908174AFB1D1B7818007F
:1014E0000F230340083B9B0806339B00D3180433AB
:1014F0001B68FA1D1278100003220240D200FF2060
:1015000090400200D2431A403B689B01FF201840E4
:10151000FB1D1B781D0003232B40DB0098400300BC
:101520001A438B1D9B00E31804331A60C046BD4666
:1015300002B0B0BD00E100E000ED00E080B500AF1A
:10154000044B282200211800FEF7E1FEC046BD46EC
:1015500080BDC0464C0B002080B500AF02211D208D
:10156000FFF77EFFC046BD4680BD000080B500AFDE
:10157000064B01221A70064B1A0000211120FFF7BA
:101580000FFEFFF7DBFFC046BD4680BD480B0020C5
:101590005915000080B586B000AFF860B9607A6078
:1015A000FB687B61BB683B6107E07B695A1C7A6121
:1015B0003A69511C396112781A707B685A1E7A6038
:1015C000002BF2D1C046BD4606B080BD80B588B0C4
:1015D00000AFF860080011007B600B23FB18021CB1
:1015E0001A700A23FB180A1C1A70FB681B687B61BF
:1015F00001235B42FB610A23FB181B787A689A403F
:1016000013003B611B23FB180A22BA1812781A70C8
:1016100010E01B23FB181B7801229A401300DA43C9
:10162000FB691340FB611B23FB181A781B23FB1873
:1016300001321A701B23FA180B23FB1812781B783F
:101640009A42E6D97B69FA6913407B617A693B6902
:1016500013437B61FB687A691A60C046BD4608B0D7
:1016600080BD000080B584B000AF0200FB1D1A7081
:101670000E23FB18962252001A80FB1D1B78002BAC
:1016800003D14A4B4A4A1A6063E0FB1D1B78022BC8
:101690000AD1484B474A12688021C9020A431A609E
:1016A000424B454A1A6054E0FB1D1B78012B1DD1AB
:1016B000404B404A12688021C9020A431A603F4BDE
:1016C0003E4A12683E490A401A603C4B3B4A126847
:1016D000802189010A431A60384B384A12688021F8
:1016E0000A431A60314B324A1A6032E0314B314AB8
:1016F00012688021C9020A431A60304B2F4A1168D0
:10170000FA1D12780B320120904002000A431A6041
:101710002A4B2A4A126880210A431A60FB1D1B7853
:10172000032B03D1214B274A1A6012E0FB1D1B78C3
:10173000042B03D11D4B244A1A600AE01B4B234A99
:101740001A6006E00E23FB181A880E23FB18013AD4
:101750001A800E23FB181B88002BF3D1FB1D1B786E
:101760001B4800220321FFF731FF1A4B1B6802229E
:10177000134012D0184B1B681B09FF221340BB609B
:101780000A4B1A68BB68013319001000FEF768FDA8
:1017900003001A00114B1A6003E0044B1A680F4B48
:1017A0001A60C046BD4604B080BDC0461010FF1F81
:1017B0000048E80140F000400024F40044F00040FC
:1017C000FFFFDFFF006CDC020090D00300D8B805FB
:1017D0003CF000401C000040180000401410FF1FA7
:1017E00080B586B000AF786000237B6101F0EEF930
:1017F00003003B6112E001F0E9F90300FB60FA68C5
:101800003B699A4203D3FA683B69D31A05E0FA6848
:101810003B69D31A054A944663447B617A697B68C5
:101820009A42E8D3C046BD4606B080BDFFFFFF0028
:10183000B0B582B000AF02003960FB1D1A70FB1D0D
:101840001B787F2B28D82F4CFB1D1B785BB29B0885
:101850002C49FA1D127852B29208C03292005258A6
:10186000F91D0978080003210140C900FF208840C4
:101870000100C94311403A689201FF201040FA1D4F
:101880001278150003222A40D200904002000A4339
:10189000C0339B001A5131E01B4CFB1D1B781A0012
:1018A0000F231340083B9908174AFB1D1B781800AB
:1018B0000F230340083B9B0806339B00D3180433D7
:1018C0001B68FA1D1278100003220240D200FF208C
:1018D00090400200D2431A403B689B01FF20184011
:1018E000FB1D1B781D0003232B40DB0098400300E9
:1018F0001A438B1D9B00E31804331A60C046BD4693
:1019000002B0B0BD00E100E000ED00E080B500AF46
:1019100000210420FFF78CFF01210220FFF788FF40
:10192000C046BD4680BD000080B500AF0C4B1B78A3
:10193000DBB21800FFF796FE1F20FFF7B5FC002072
:10194000FFF732FD03F022F9FFF762F9FFF70EFE11
:10195000044B180003F0FCF8C046BD4680BDC046ED
:1019600066000020841E000080B500AF1A4B0A22DA
:101970001A701A4B01221A70194B00221A7001F0CA
:1019800003FA184B04221A60174B184A1A60184BB6
:10199000164A1A60174B154A1A60174B174A1A60F5
:1019A00001210A20FEF7D0FF13480D230F22122138
:1019B000FFF70CFE00210420FFF73AFF012102206F
:1019C000FFF736FF0E4B1A0000212020FFF7E8FB3F
:1019D000C046BD4680BDC0466300002064000020B4
:1019E000650000201CF0004008F00040B66DDB36BA
:1019F0000CF0004010F0004014F00040B6EDC3B011
:101A00000D19000080B582B000AF73467B600C4BAF
:101A100003221A7001F0EAF9FFF750FBFFF7A4FF69
:101A2000FFF782FF7A68074B1100180003F090F867
:101A300000F00AF800231800BD4602B080BDC04681
:101A4000660000209C1E000080B500AF0DF0E2FB98
:101A500001200DF053FE0DF0B5FF00231800BD4628
:101A600080BD000080B500AF024B034A1A60C0463B
:101A7000BD4680BD0400002040787D0180B582B065
:101A800000AFFFF7EFFF094B7B60094B3B6007E0BE
:101A90003B681A1D3A607A68111D796012681A60F5
:101AA0003A68044B9A42F3D3FEF764FB104F0000F0
:101AB00000000020E804002080B500AFFEE780B5FC
:101AC00082B000AF7860FEE7437802781B021A43C9
:101AD0008378C0781B041343000618437047C04640
:101AE000030A4B70030C8B70030E0870CB707047A9
:101AF00003005A780078120202439878197900049A
:101B00000243D878000610435A7912020A439979A1
:101B100009040A43D979090611437047030A53702F
:101B2000030C9370030ED3700B0A53710B0C93715B
:101B30000B0E10701171D3717047C04610B50022A2
:101B400000F002F810BDC046130010B50A001900DD
:101B5000FEF7DDFB10BDC04610B5010000230022DA
:101B6000002000F091F810BD10B50021040000F035
:101B7000F5F8044B1868C36B002B00D09847200081
:101B8000FFF79DFFA41E000070B5094B094CE41A35
:101B9000A41009D0084AA518AD00ED182B68013C27
:101BA0009847043D002CF9D100F066F970BDC0469D
:101BB000E0040020E4040020FFFFFF3F70B50D4E5D
:101BC0000D4D0024AD1BAD1005D0A300F35801341A
:101BD0009847A542F9D100F049F9084E084D002474
:101BE000AD1BAD1005D0A300F35801349847A542B2
:101BF000F9D170BDD8040020D8040020D8040020FA
:101C0000E0040020F0B505000F2A2FD90B00034394
:101C10009B0734D116000C000300103E3509013536
:101C20002D01451927681F6067685F60A7689F607E
:101C3000E7681034DF6010339D42F3D10F239E43D9
:101C40001036851989191340032B1AD91E1F00233A
:101C5000B4080134A400CF58EF500433A342FAD1A2
:101C60000324A643331D2240C918ED18002A05D0CD
:101C70000023CC5CEC5401339342FAD1F0BD050053
:101C8000F6E71A00F2E7C046F8B5DE469B46314B50
:101C900045461C68A4234E4657465B00E0B5050048
:101CA000E0580E00904600284BD043681F2B0DDCF7
:101CB0005C1C002D21D102339B0044601E5000208B
:101CC0003CBC90469946A246AB46F8BD224B002B41
:101CD0003CD0C820400000E000BF002836D0A4223D
:101CE00000235200A15843600160A050403283504D
:101CF000043283500124002DDDD09A0091468144A6
:101D0000424688214F467A50C42252009046804471
:101D100042468739994012688A460A4394464246A9
:101D200061461160842249465F4652008F50022D61
:101D3000C1D1020055468D32FF3211680D43156046
:101D4000B9E720004D30FF30E050AEE701204042BF
:101D5000B6E7C046A41E000000000000F0B55746DC
:101D6000DE464E464546E0B50F00384B85B01B6851
:101D7000019002934933FF330393A422029B520044
:101D80009E58002E4ED0039B9946C4235B00984674
:101D900004339A467468B044A5007519B244013CF6
:101DA00008D52DE06B1DFF331B689F4204D0043D16
:101DB000013C25D3002FF5D173686A68013BA3422B
:101DC00039D000236B60002AF1D0736841469B46EE
:101DD0000123A340096819422BD0514609681942D2
:101DE0002BD12B00843319680198904773685B45A9
:101DF000C3D14B461B68B342BFD1043D013CD9D28D
:101E0000134B002B0ED07368002B1BD13368002BB3
:101E100008D04A463000136000E000BF4B461E6801
:101E2000002EB2D105B03CBC90469946A246AB46C6
:101E3000F0BD9047DAE77460C5E72B00843318687B
:101E40009047D3E7B1463668EAE7C046A41E0000D3
:101E500000000000034B10B5002B02D00248FFF732
:101E60007BFE10BD00000000891B0000F8B5C046D5
:101E7000F8BC08BC9E467047F8B5C046F8BC08BC24
:101E80009E467047616C6C20647269766572206949
:101E90006E6974204F4B210A0000000025780A006B
:101EA00000000420B00000204300000000000000FB
:101EB000FFB504464E4F81B00020386020461D46D5
:101EC000BF3002F087F94B4826460078B23680349E
:101ED0000828A06E32462CD0012102F021F9444F8F
:101EE0003078F863761C3046FFF7EEFD00BA000A42
:101EF000F17800020843B863361D3046FFF7E4FD71
:101F000000BA000AF178000208437863361D3046B3
:101F1000FFF7DAFD00BA000AF178000208433863DF
:101F20000398010202980143F960039F00263F1DB8
:101F30000EE00021D1E7A819401CFFF7C5FD010202
:101F4000A85D01432C4830180160361DF6B23F1FD2
:101F5000042FF0DA032F04D0022F08D0012F0FD066
:101F600014E0A819FFF7B0FD0102090A09E0A91958
:101F700048780978000208431F497118086003E097
:101F8000A95D1D4830180160361DF6B200211A4ABD
:101F900002E0B0180160361DFF2EFADD1448174B21
:101FA00043600F230361012303604369002BFCD0CE
:101FB000436901600020039B11E0811809682954DE
:101FC000401CC0B20E0A2E54401C0E0CC0B22E543F
:101FD000401CC0B2090E2954401CC0B21B1F002B6C
:101FE000EBDCA06E401CA066012005B0F0BD000037
:101FF00000000440E511FF1F00010440080F00002D
:10200000FFB504464D4F81B00020386020461D4684
:10201000BF3002F0DFF84A4826460078B2368034F6
:102020000828606E32462BD0002102F079F8434F29
:102030003078F863761C3046FFF746FD00BA000A98
:10204000F17800020843B863361D3046FFF73CFDC7
:1020500000BA000AF178000208437863361D304662
:10206000FFF732FD00BA000AF17800020843386336
:102070000398029900020843F8600026039F0EE0CF
:102080000121D2E7A819401CFFF71EFDA95D00023F
:1020900008432C4971180860361DF6B23F1F042F03
:1020A000F0DA032F04D0022F08D0012F0FD014E054
:1020B000A819FFF709FD0102090A09E0A9194878E2
:1020C0000978000208431F497118086003E0A95D00
:1020D0001C4830180160361DF6B20021194A02E092
:1020E000B0180160361DFF2EFADD0F2313481B02C6
:1020F00043600F230361012303604369002BFCD07D
:10210000016003980023001D11E099180968E95443
:102110005B1CDBB20E0AEE545B1C0E0CDBB2EE5401
:102120005B1CDBB2090EE9545B1CDBB2001F00280C
:10213000EBDC606E401C606605B0F0BD0000044042
:08214000E511FF1F000104403E
:10214800F0B589B00DF04CFDFE49086004200BF095
:10215800FDFD0BF015FF0446C00712D0FA49002018
:10216800086072B60BF082FFF849F94DF94E022863
:102178000BD001287ED0F84F05287CD004287BD0CE
:10218800ADE20BF0A9FE09B0F0BD08780F460128B2
:1021980006D0032804D0022802D005286DD09EE27C
:1021A80007200BF0D3FD08AB07AA06A9EB480BF0F4
:1021B800BDFFEA493439898E0B074906CA0FE7493A
:1021C8001B0F34390C46403420319446002801D086
:1021D800032B05D0052B6ED0387801286CD081E20E
:1021E8003878012801D00328F9D1D94843695B1C04
:1021F8004361DB4B087FDD79A842F0D1487F1D7A27
:10220800A842ECD1887F5D7AA842E8D1C87F9D7A40
:10221800A842E4D12078DD7AA842E0D160781D7B1D
:10222800A842DCD1F5680020AD8D2D072DD5DB7BCC
:10223800012B01D0032B28D1C3001F1AC94BDD5D28
:1022480095421DD1FB188D7D5F78BD4218D1CD7D9B
:102258009F78BD4214D10D7EDF78BD4210D14D7EEE
:102268001F79BD420CD18D7E5F79BD4208D1CD7EEC
:102278009B7903E0E5E0E6E02EE2E0E09D4202D053
:10228800401C0828D8DB082817D0B14D686D401CC1
:102298006865706C002802D0804700289FD00CF039
:1022A800BFF8012777700DF09BFCA64909688842A2
:1022B80008D9401A09E02CE0AFE0A548016A491C9A
:1022C80001620FE2A84A511A0818F16876230A79C0
:1022D800181A801A4A6C096CD2B2C9B2C0B20CF092
:1022E8003FF90BF0D1FE98480760002070700BF0A2
:1022F800F3FF0BF0F9FFA08C010A9848891C3030D5
:102308000CF0E0F90E200BF021FDA869401CA86133
:10231800E8E13F78012F01D0022FD2D1E869401CB3
:10232800E8618F480B7FC0798342CAD18C484B7FC4
:10233800007A8342C5D18A488B7F407A8342C0D1D4
:102348008748CB7F807A8342BBD185482378C07A7F
:102358008342B6D16078824C237B9842B1D1F06831
:102368000023808D000726D5E07B022801D00328B2
:1023780021D1D800C61A7B48845D944218D1301800
:102388008C7D4678B44213D1CC7D8678B4420FD187
:102398000C7EC678B4420BD14C7E0679B44207D184
:1023A8008C7E4679B44203D1CC7E8079844202D0B7
:1023B8005B1C082BDDDB6D48022F1AD104786445BD
:1023C80027D18A7D4478A24223D1CA7D8478A2424B
:1023D8001FD10A7EC478A2421BD14A7E0479A24248
:1023E80017D18A7E4479A24213D1C97E827991425B
:1023F8000FD1082B0DD0696D0622491C696561460D
:1024080001705649401C891C0CF0FDFF0CF078FA4D
:1024180068E1686A401C686264E15149487BC20708
:1024280001D0252004E0800701D5262000E02720E0
:10243800097D8142ECD932200CF0CEF952E1072017
:102448004EE106204CE10878072879D10B200BF0E3
:102458007DFC4149FF22097825325143444A002036
:102468008B185870505443480068002805D00BF06A
:102478009DFD40490978C84005E00BF097FD3E49AD
:102488000968FDF7E9FE0746E00535D539480068D3
:10249800002805D00BF066FD36490978C84005E0EC
:1024A8000BF060FD34490968FDF7D6FE2A4B009011
:1024B8001878FF21253148432D4940180279002A10
:1024C80001D000220271234A7130121D911D02F0C1
:1024D800DFF9F1680098C968381A4118274801607F
:1024E800600526D51C49FF22097825325143204A28
:1024F8000120891848701CE01748FF22007825320F
:102508001B4B012150431954296DFF3F491C296574
:10251800F1680F3F0969C018CA19184920300A60C4
:10252800407E410016480818FF300130018D491CD3
:1025380001852046009901F089FC0BF09FFD21E000
:10254800CDE000001C12FF1F1812FF1FE511FF1F2E
:102558000C31FF1F080000201512FF1FF82BFF1F6A
:10256800442AFF1F892BFF1F40420F000C12FF1F38
:102578005C2AFF1F2410FF1F2010FF1F2012FF1FBF
:10258800740B0020614907460870002008724872E1
:102598008872C8725E48044202D0E86C401CE86445
:1025A8005C48FF220078253250435B4A574983181C
:1025B800D81DF930827C06928A1DFF33C07C491CE5
:1025C80013330CF001F802465248FF2100782531F8
:1025D800484351494018C11DF931CA740279002A8B
:1025E8000CD10223069A897C1A4019408A4205D0E8
:1025F80046494A78002A01D101224A704749496868
:102608008E220904090E0391125C002A02D0AA6ED8
:10261800D219AA662030407E414D40004019C03092
:10262800C18BC919C1830BF0CDFC01463948FF2283
:10263800007825325043384A80182030407E4000C8
:1026480040198030828A8918818207AA05A904A8BE
:102658000BF0E0FC2F48FF210078253148432E4934
:1026680040182030407E694640002A5A097D51189A
:1026780029524019403069464289097C51184181E4
:10268800600705D50398874202D238460BF01AFD39
:102698000BF0CAFD1D480021224B81701A78012ACF
:1026A8000CD1002F0AD0204A1469002C03D0127DC7
:1026B800D243920702D001228270197080790028D3
:1026C80001D00CF03DF80BF025FAF078002809D07D
:1026D80031890DF03DF905E00878082809D0052072
:1026E8000BF034FB0BF0F8FB62B603200BF02EFB6B
:1026F80049E53878FF212531484307490B4A4018F6
:10270800911D713002F0C4F80920E9E78031FF1FFC
:10271800020800001512FF1F5C2AFF1F001003406B
:10272800740B00201312FF1F442FFF1F0C00002002
:10273800F8B58E4F079CBE1D9C460D46002A1FD03B
:10274800012A05D0032A0ED0022A0CD0042A59D116
:10275800002C57D00699002901D0012952D1032A0B
:1027680001D0022A0AD10146814BA039994249D2A7
:10277800A02D47D3012189038D4243D8002A0BD1CC
:102788007B4B01462039803399423BD2202D39D3E7
:10279800012189038D4235D8854233D3614600290A
:1027A80001D001292ED10999002905D0012903D08A
:1027B800022901D0032925D10899490722D06D4B58
:1027C8009988012920D09A7308994907490F5973A4
:1027D8001CD06849099BCB736346002B1BD001238F
:1027E8008B713378CB7173780B72B3784B72F37843
:1027F8008B723379CB7273790B73012A19D0042A3F
:1028080028D036E01220F8BD0C20F8BD5948072121
:1028180041733020F8BD00238B713B78CB717B78F6
:102828000B72BB784B72FB788B723B79CB727B79DE
:10283800E2E75148069B03702378437063788370FE
:10284800A378C370E3780371237943716379837143
:1028580002200EE0484B069E1E7026785E70667851
:102868009E70A678DE70E6781E7126795E716479AE
:102878009C714880130003F0E5FE0504060A08066B
:102888000B00002504E0012502E0022500E00625F2
:102898003A4E8A79B0880C46000900012843402343
:1028A800910198430143D001802291430843B080AD
:1028B8000622E11DB01D0CF0A6FD37464037B88C46
:1028C800A179000900014022001D904389010143BC
:1028D800B98430460622E11D66300CF094FDA07CD8
:1028E8000321000249024118B2883F2000028243B6
:1028F800114389B2B180012D12D181430320800296
:102908000818B0801C49BB8C087880229343C0010A
:102918001843B884304606220C30491C0CF073FD6D
:102928001748017808291AD0072918D0A17B0B006D
:1029380003F088FE050408100C0817000121017037
:102948001F200AE002210170202006E00421017006
:10295800222002E00321017021200BF0F7F900206A
:10296800F8BD002101701E20F7E70000F911FF1FD4
:10297800613F0000442AFF1F0C12FF1FC42BFF1FDA
:04298800E511FF1F37
:10298C0010B50E480E4B0278FF2025304243002133
:10299C00D018FF24C17013342154995401230246DA
:1029AC0003716032937113742023816119548E2347
:1029BC00195451740521818110BD00001512FF1F9F
:0429CC005C2AFF1F63
:1029D000FEB572B65548C068476D866D082F01D8A0
:1029E000002F00D10427082E01D8002E00D1042684
:1029F0004F48504D816C504C491C81642878FF2110
:102A00002531484300192030407E41004B480818CA
:102A1000FF304130418E491C41860AF087FA0BF0A5
:102A20005FFC0BF065FC2878FF2125314843001935
:102A3000806A0EF0B9F82878FF2125314843001943
:102A4000406A0EF08BF82878FF21253148430019A1
:102A50002030407E0EF088F82878FF212531484349
:102A600000192030407E0EF0DDF92978FF20253056
:102A7000414308190279002A0BD02E21095C304A03
:102A800040695143400009182848C068C06F0818C1
:102A900015E0615C0029254909D0CA684069096CC4
:102AA000136940185B0040001818D16C06E0C96833
:102AB0004069CA6840005200C96C101840180BF0F9
:102AC00099FC1A4DE868806C0BF02AFCE868416CB0
:102AD000CAB2016C808FC9B2C0B20BF045FD0420B0
:102AE0000BF018FC07200BF0EBFA02A938460BF0AC
:102AF0003DF969460989C2B201250E480191009548
:102B00000078FF21253148430019FF300130817CD6
:102B1000F3B230200BF0ECF90BF0BAFA094805607B
:102B200062B614200BF016F9FEBD0000080000206C
:102B30000C31FF1F1512FF1F5C2AFF1F740B0020B2
:082B4000710200001812FF1FD2
:102B4800F0B500248E464A1E12E0714600230D1B84
:102B58006D1E0AE09E0031188C46875949688F42DD
:102B680002D9815161464F605B1C9D42F2D8641CBA
:062B78009442EAD3F0BD17
:102B800010B505231B221F210D48FEF71FFD0C4C1D
:102B90000C4B0834072210212046FEF717FD0622B1
:102BA000012311462046FEF711FD05481438416AFD
:102BB000012211434162C169034A1143C16110BD41
:0C2BC00014F00040FB03000004003E0085
:102BCC000449886A0202886A120A0002000A9042CA
:082BDC00F7D1704700F0004042
:102BE40010B504460120FEF7F9FD1149CB6A1148DE
:102BF400C26A934202D2C96A511A00E000210163F9
:102C0400FFF7E2FF0C490123C86201190A460832A2
:102C14001B069A4203D309310902090A641A0119ED
:102C24000648C162416A2922D2031143416210BDA0
:102C340000100240080000200012FF1F00F00040B6
:102C4400F8B5414A0446D068808DC00764D03F4837
:102C5400406A3F4D8104890CA94202D96842081890
:102C640000E0681AC82819D32B2601233601DB0299
:102C7400B04207D2C80041028601891BC6008919E7
:102C8400081A09E0C80041028601891B4601891B14
:102C9400C600891B40000818C018010B2C482D4B96
:102CA400C430814200D9196819607D26906AF60003
:102CB400B0420AD2284EFF278E198A37BE4200D36B
:102CC400116A401C1960906209E0106A060A3718FC
:102CD4008F4203D3861B8E4200D808461860106AC0
:102CE400C100091A18680918C9081162C108A84264
:102CF4000AD9194AC43A80186043C00801E0401A4E
:102D0400641E8842FBD807E0281A6043C00801E02B
:102D1400401A641C8842FBD80C4806220023114642
:102D24002438FEF751FC204604F0D6FBFEF784FA63
:102D3400FEF7DEFA00200BF00BF801200EF022F86B
:102D4400012004F0C5FCF8BD0800002040F000405C
:0C2D5400420F00003412FF1F82F1FFFF4D
:102D60000848816C491C8164C16CC26C0902C90F9E
:102D70005203D20F5140C26C5202120A5118C16460
:082D8000C06C70470800002040
:102D880070B515480022C0680424866B10251348C6
:102D98001349330003F056FC070808050C0E130806
:102DA800050005600C600DE020220260052004E0AB
:102DB800302305E0402202600620086002E060231C
:102DC80003600A6004F05AFA0FF088FF01F078FDFA
:102DD80001F014FB70BD0000080000202010FF1F48
:042DE8002410FF1F95
:102DEC00F8B55249504A534B5148CA60D86100203B
:102DFC0003468400401C1351FF28FADDC8684E4A74
:102E0C0004468034A2600622C2620A2202654B4A42
:102E1C00157885634A4DC56115781426022D03D0AB
:102E2C001578032D03D003E01025056200E006623F
:102E3C00444D4561444D85613C25E5603625C563AF
:102E4C0034274764082505643927676032272760D3
:102E5C00AF24E40004601478022C03D01278032A07
:102E6C0002D003E0466001E00B224260C824FF223E
:102E7C00C4602D328260A4000461344C84647D26CD
:102E8C00F6004662324CC464324E866202264666B6
:102E9C0082660926C666304E066745678267B210A1
:102EAC00C2674C618B70CB80CB700B812C482B494B
:102EBC001F4A81602B49803A294B11612A49803382
:102ECC0099622A49C1622A49016325482949C038B7
:102EDC004163294901602249284A8039CA62284A3B
:102EEC000A60284AC2601E4A274C403A9463274C19
:102EFC001463274C5463274C4C61274C8C61274C32
:102F0C000C62274CDC61274C1C62274BD363274A8D
:102F1C00CA61274981622749C1622749816301F04F
:102F2C0051FF01F05FFFF8BDE8040020080000200D
:102F3C00000CFF1F0010FF1FA01E000066000020E9
:102F4C007E04000060E31600DC05000050C30000A6
:102F5C00540B00006A180000204E0000ED3E0000EB
:102F6C000009FF1F4921000005440000012000005A
:102F7C00B11E00007D330000392700006D360000C3
:102F8C00E92F00008D2900002D440000A94100000C
:102F9C00452C00007D3F0000D1290000E53A0000DF
:102FAC00D5450000812B0000E52B00000136000008
:0C2FBC00393C0000F538000055310000E1
:102FC80010B519242402428E01E0491E4184418C27
:0E2FD8004B1C5343A34201DD0029F6D110BD6E
:102FE800F0B585B05448029006F044FF002856D04A
:102FF8000020019006F07AFF302148434F494518D8
:103008004F482818FF35FF3502350090A88A060A70
:103018008707BF0F44D04848044680306034039087
:10302800032F14D0002E02D0207C002838D0454829
:10303800816D491C81650398807B002800D004209D
:10304800301A80B201F054FE0190002831D0039864
:10305800807B002809D0361FF6B232463946009BDD
:10306800029800F09BFE002828D0032F2ED0354868
:103078003246816B491C816300990198FEF786FAF4
:103088001120205600902C483B46C07832460199C2
:1030980002F0E0F800202861A8820FF057FD3EE01A
:1030A8003D21029809F000F92648C16B491CC1630B
:1030B8003FE02448016E491C01663AE001980CF093
:1030C80013F83D21029809F0EFF832E01D4E706BBD
:1030D800401C70630FF03AFD1B48007808280DD09B
:1030E80000980078032813D0062811D002280FD0A2
:1030F8000D280DD0207C002805D009E00099029801
:1031080009F05CFA0BE00298E030007B002809D057
:103118000099029809F0F6FA00202861A882012097
:1031280005B0F0BD3D21029809F0BEF8F06B401CD7
:10313800F0630020F4E700005C2AFF1FC42BFF1F88
:0C314800160200000C31FF1FE511FF1FF4
:10315400F8B504460A78FF3026462746254601304E
:10316400E03660378035491C130003F06DFA0D0812
:103174004BF865F5F5AE60BE60B1BBDBF5000878D1
:103184002870204602228230491C09F0BCF901460D
:1031940020460222843009F0B6F901462046022274
:1031A400863009F0B0F9014620460222883009F041
:1031B400AAF929780222490029706988490069809E
:1031C400A9884900A9802989090129810146204645
:1031D4007E3009F098F97E20005BE188401A81B2C4
:1031E4006148814201D3282122E0E888A988401C53
:1031F400490048432989884201D33B2118E0012032
:10320400387712E00522594809F07DF90146204635
:1032140002228C3009F077F9A889E188401A81B23A
:1032240051488142DFD20120A8720020E083F8BD1A
:10323400204609F03BF8F8BD307D002809D14C4AFE
:1032440025181318E035401C5B78C0B26B7508284C
:10325400F6D3707DC00734D00020B87138740120D3
:10326400307420460822A83009F04DF90146204662
:103274000222B03009F047F901462046A030082266
:10328400064609F040F905460821304600F0D2FF11
:103294002046294694300422054609F034F90421D5
:1032A400284600F0C7FF2046983000F01FFF204654
:1032B400903000F003FF0C212E4800F04DFF042154
:1032C4002CE01A2070730D2128E00120B073F8BDA2
:1032D4000020B8713874DF21085501213173307032
:1032E4000B211BE00120F073F8BD214A00201318C4
:1032F4002518E035401C5B78C0B26B750828F6D3FE
:10330400002015180B786D78491C2B402518E035E2
:10331400401CC0B26B750828F3D30921204609F07C
:1033240037F8F8BD737F012B16D00A780270E01DC0
:103334000222FB30491C09F0E6F80146E01D022296
:10334400FD3009F0E0F801207077F07F0028E8D123
:103354000C21E3E700E002E042720721DEE709788E
:1033640001720122C27163E7FF7F0000F411FF1FA5
:08337400802BFF1F0032FF1F38
:10337C00F0B504468BB0C0300A902046F530029070
:10338C000B300790274625468038E03760352646B7
:10339C0040360990A5E0E87C801E030003F050F94C
:1033AC000C07A11B3265F3BCDCA18BF4A7A1A87C94
:1033BC00012803D0204600F057FB12E08C4880789F
:1033CC00002801D01621D8E0708F401E0004000C9C
:1033DC0070876FD009E1A87C012804D0204600F04A
:1033EC0009FAA87401E18248C0780028ECD0204684
:1033FC0008F08EFF22462146E078B032A83101F069
:10340C00AFF86EE0A87C012812D00A98C07F012882
:10341C0022D03878002868D0224621462046BF3278
:10342C009831CF3000F020FC0A990120C87758E081
:10343C006F48C078002807D0099901208873099833
:10344C000021416609988166B87B0128BCD1062110
:10345C00204609F00DFD44E020460AF083F90128CE
:10346C00B8D10020B8730120BBE7A87C012803D099
:10347C0020460AF08BF9B4E75D48C0780028A3D049
:10348C00608CE083204608F043FF0120A87128746B
:10349C00387B0128E07809D00122002100F086FF5A
:1034AC00002038733874F873B8731AE0002100F0F8
:1034BC00BFFFF5E760E0A87C012805D020460AF0A4
:1034CC0089F8012807D090E0F87B0128BED120466E
:1034DC0008F01EFF05E00020F8730999887301209D
:1034EC00A874E87D002800D055E70BB0F0BDA87C8F
:1034FC00012803D0204600F09BFA72E73C48C178C3
:10350C00002905D0099A002191730121A971297410
:10351C0080780028DBD157E7A87C012806D020460C
:10352C0009F0A6FEA874002038755EE0387D0128ED
:10353C0006D0708F401E0004000C708706D054E03B
:10354C00E1780020029A01F093FCC0E7E178222098
:10355C00029A01F08DFC0FE0A87C012803D02046D4
:10356C0000F08CF93DE72248C0780028D3D0012028
:10357C003875608CE083AAE72221204608F092FE81
:10358C000120B2E700E02BE0A87C012805D0012047
:10359C00F87720460AF078FA23E7787F012806D0DE
:1035AC00708F401E0004000C70870ED01DE0B87F99
:1035BC0001288CD10798808800900798E17843887F
:1035CC000278002001F0BCFC81E70798808800900D
:1035DC000798E17843880278222001F0B1FCCBE710
:1035EC00204600F0F5FA0128AFD000207DE700005E
:0435FC008031FF1FFC
:1036000010B50AF06DFE0AF073FE164CA07B0300A5
:1036100003F01CF80507040D0A04180009F0E4FC87
:1036200007E00AF00BF904E009F02EFF01E00AF0D0
:1036300015F80D498878002811D0627BD30703D094
:10364000252206E0122010BD920701D5262200E0B7
:103650002722237D934202D1C9880CF07DF90020F6
:0C36600010BD0000442AFF1F08000020DD
:10366C00F8B5574C574EA17BF06801293BD0856AC1
:10367C00554F2A220021B81D0BF0DCFEB888A17929
:10368C00000900014022401C9043890101434F482E
:10369C00802200789143C00108433F2109028843EE
:1036AC00032189024018B8800622E11DB81D0BF0D9
:1036BC00A8FE464938460622491C0C300BF0A1FEE8
:1036CC00207D2538032803D3002008F0B1FE207597
:1036DC00207D074608F0ACFE2075A17B012904D0A3
:1036EC00B84219D916E0456AC2E73949F0680A6848
:1036FC00C06D521980180860364988420AD3364882
:10370C000021017001F050FD3448022100780CF0CA
:10371C001DF9F8BD28460EE0607BC1078207C90F72
:10372C00D20F89184007C00F081861882C4A401E18
:10373C0051436843081A0BF04DF8274802210170D9
:10374C0020200AF001FB27480DF028FA26480DF03E
:10375C00FFF938460DF002FA38460DF05DFBFF20FC
:10376C000DF0E6FAF068416CCAB2016C808FC9B2F8
:10377C00C0B20AF0F3FE0AF0ADFD0AF0B3FD0AF098
:10378C00E3FE03200AF096FC0F488188001D090A0D
:10379C00891C0AF095FF0AF075FC14490120086099
:1037AC00A17B1348012906D00169491C0161102035
:1037BC000AF0CAFAF8BDC168491CC160F7E70000FD
:1037CC00442AFF1F08000020C42BFF1F0C12FF1FF0
:1037DC00F011FF1F00881300E511FF1FE411FF1FFC
:1037EC007102000055555500D6BE898E1812FF1F68
:0437FC000C31FF1F6E
:10380000F8B504461C481D4D861C686506F056FB3D
:10381000002801D00020F8BD042030701648214651
:103820009831C01C08220F4608F064FE21469031F2
:1038300004220E4608F05EFE0821384600F0FCFC2B
:103840000421304600F0F8FC002008210A1A121961
:103850008032D37B2218A032401CC0B2D375082816
:10386000F4D3074901200870696D06480880403488
:10387000208F60870120F8BD8C31FF1F08000020D9
:083880001412FF1F030D0000EC
:10388800F8B50446164E1548164F7065164938782F
:103898000978084301D00020F8BD10480925801C8C
:1038A80005702146401C0822F53108F01FFE8E20C5
:1038B800005D002807D0736D2A46032120469B1C13
:1038C80000F038FB0D250020E08301203870280225
:1038D800716DC01C08800120F8BD00008C31FF1FED
:0C38E800080000201412FF1F1312FF1F25
:1038F400F8B54E4C06F0E0FA25462E466036803583
:10390400002814D1A06E002811D14948006900286C
:103914000DD148480078002809D12078002806D124
:10392400207F002803D0B17C002902D00BE00020C6
:1039340008E0317F002906D1A97A002903D10128A2
:1039440001D1608CE083E088E18B4018401C208129
:10395400204608F065FC012804D10020E083E088BB
:10396400401C20810096307F304E2036012845D1FE
:1039740027464037FA8F2189E08808F04AFD00285D
:103984003CD0F88F20812946204608F0B2FCE88814
:10399400608400202077E083012020712089E18960
:1039A4004018A081E188F88F08F028FD618E6A88AC
:1039B40048438718A888884207D12989E28E914212
:1039C40003D1E988A28E914206D02989EA880B099D
:1039D4004108E078FFF77EFF2878B073A8886086F6
:1039E400E888A0862889E0862046FFF7EBFA20467F
:1039F40008F071FC00990020087700E0678EA06948
:103A0400B84203D13078E18B884206D02346327B1A
:103A1400E18B1433384608F0E1FBA761A07F3070D6
:103A2400204609F08BFA0020F8BD00005C2AFF1F35
:083A3400442FFF1F0431FF1FA6
:103A3C000A4A094951658A1C0D231370ED231B5C3E
:103A4C0053704030028F4287054A012010700548A0
:103A5C0008800120704700008C31FF1F08000020F7
:083A6C001412FF1F0302000009
:103A7400F8B50446174E1648174F7065174938783D
:103A84000978084301D00020F8BD114B02229B1C89
:103A9400FF211A700931581C095D254601708035D3
:103AA400A87B002804D00321204600F045FA062212
:103AB40000207C210855A872E083E08940346087A7
:103AC400012038701002716DC01C08800120F8BDFF
:103AD4008C31FF1F080000201412FF1F1312FF1F58
:103AE400F8B5344C207D2538032803D3002008F092
:103AF400A3FC2075257D284608F09EFC2E4E2075DB
:103B0400A8421AD806F006FA8305607B9B0DC1070C
:103B14008207C90FD20F40078918C00F0F187F1EE4
:103B2400FFF71CF9C10A6088244A5043F2681268FE
:103B34007A43801A0818C01801E0F06800680AF097
:103B44004DFE1F48012404701F200AF001F91D488E
:103B54000DF028F81C480CF0FFFF28460DF002F881
:103B640028460DF05DF9FF200DF0E6F8F0683C22E0
:103B7400006CC1B25A200AF0F5FC0AF0AFFB0AF05F
:103B8400B5FB0AF0E5FC03200AF098FA0F48818897
:103B9400001D090A891C0AF097FD0AF077FA0C48FF
:103BA40004600C480168491C016010200AF0D0F838
:103BB400F8BD0000442AFF1F080000207102000025
:103BC400E511FF1F55555500D6BE898EC42BFF1F26
:083BD4001812FF1F0C31FF1F46
:103BDC0070B5134C1149134D6165134A297812784D
:103BEC00114301D0002070BD0C4B07219B1C197098
:103BFC00FF260A36591C365C0E708E21095C022297
:103C0C00002903D0032100F093F90622012028702B
:103C1C001002616DC01C0880012070BD8C31FF1F2B
:0C3C2C00080000201412FF1F1312FF1FDD
:103C3800F8B56448FF21027825314A43624954188F
:103C4800A278002A3DD021896048E1808279002548
:103C5800002A0BD1427A002A08D1827A002A05D19B
:103C6800C27A002A02D16278002A09D0E28989182A
:103C7800A1812571217F01292CD1618CE18329E063
:103C88002178002906D0E21DF932118A491C1182D7
:103C9800E58305E02571217F012901D1618CE1834C
:103CA800A289E1888A4215D12079494D002801D09E
:103CB800052907D00821204608F0F6FAE86A401CD2
:103CC800E862F8BD3E21204608F0EEFA286B401C59
:103CD8002863F8BD4078002814D03E48C068808D1D
:103CE800800701D50120207720466030817C00299B
:103CF80008D1007F002805D18A20005D002801D165
:103D0800608CE0832079002800D0E58306F0B2F8C3
:103D1800060009D02577002704E008F051FC0028A8
:103D280002D07F1CB742F8DBA0780028D1D020460B
:103D380008F028FE0128CCD00221204608F0F8FF20
:103D48002078002805D023486169026C891801642D
:103D580001E02048056409F0E9FA0128B9D00BF020
:103D68003FFF1D490968884201D9451A02E01B4AEC
:103D7800511A0D18134EFF2130782531124F484340
:103D8800C0198469203000781549401C48434443D1
:103D9800204600F029F83078FF21253148431149A1
:103DA800C01940690968FF354018053540196E305B
:103DB800844201D8002801DA201A00E0C8200AF05D
:103DC8000BFDF8BD1512FF1F5C2AFF1F8031FF1F76
:103DD8000C31FF1F080000201C12FF1F40420F007B
:083DE800710200002012FF1F10
:103DF00070B5144A13781146C968002B12D0CA6EE8
:103E00000446CD6CD4402C190F4DCC642D78FF2680
:103E1000253675430D4EAD19AD692D02AC4204D85F
:103E2000254603E05069C86470BDCD640C6FA5429F
:103E300000D9CC64521C0649D0400A685843801807
:103E4000086070BD080000201512FF1F5C2AFF1FCC
:043E50002012FF1F1E
:103E5400F0B5214AC605D4680023656F002E31DA17
:103E6400460509D51D4EFF27367825377E431C4F5E
:103E7400F6193679002E04D01361936146050ED4E9
:103E84000EE0D6698E4201D9761A00E08E1BA76F28
:103E9400B74204D99669B54200D3761C9661D161C4
:103EA4009669B5420AD2A56E646E491B2141146914
:103EB40009190C4C11612568691A2160C00504D5E3
:103EC4001370F0BD13619361EAE71078052800D8F8
:103ED400401C1070F0BD0000080000201512FF1FE8
:083EE4005C2AFF1F2012FF1FE2
:103EEC0010B51C481A4941610121C16001601A4A90
:103EFC00506B1A49C0B24978002917D118490023D0
:103F0C00CB56002B174BCB5606DB1B0400240C574F
:103F1C0021025918091808E0FF331B0400240C5720
:103F2C0021025918104B0918C9185163022801D2E3
:103F3C00022002E0502800D95020801E0B4940106E
:103F4C000B5C0548002207211430FDF739FB10BD2E
:103F5C00FF3F0000001003408000034008000020D9
:103F6C006500002000000000FFFE0000300D002066
:103F7C00F8B57E4C01F0F2FC0CF046F87C480026BB
:103F8C0006617C4821467C4C86802078FF222532B5
:103F9C0050437A4D423140190422243008F0AFFAD4
:103FAC0001462078FF222532504340190322283045
:103FBC0008F0A5FA01462078FF222532504340191B
:103FCC0001222E3008F09BFA01462078FF22253280
:103FDC00504340190222303008F091FA0146207803
:103FEC00FF222532504340190222323008F087FA62
:103FFC0001462078FF2225325043401902223430EA
:10400C0008F07DFA01462078FF22253250434019F2
:10401C000222363008F073FA07462078FF2125314A
:10402C004843401902462032917B49009173018E1E
:10403C0049000186418E49004186C18E0901C18625
:10404C0001462E3108F051F92078FF2125314843E3
:10405C00401908F03CF92078FF21253148434019DC
:10406C00828E418EC38E4A4352009A4259DA0029FD
:10407C0057D005223946603008F041FA014601223A
:10408C00684608F03CFA684602782078FF21253112
:10409C004843D30640190146DB0E60314B7152097F
:1040AC002C273A5408F052FA2078FF212531484346
:1040BC004019C683818E4184FEF780FF304907206A
:1040CC000870252009F040FE2078FF22253250434D
:1040DC00421901219170D01DF93086743121C174BF
:1040EC00392086541046012108F0D0F92178FF229E
:1040FC00253251434F193946203148763046214EEE
:10410C003B463064388E0A7B1433F98B801C08F0E4
:10411C0061F80BF063FD1C490968884207D9401A05
:10412C0008E01A48402100780BF010FCF8BD184A42
:10413C00511A0818F168FF2289682532081821786D
:10414C00144B514349190A8E49695A43101A401AA3
:10415C00590040180AF03EFB0C48042100780BF083
:10416C00F5FB0D48816A491C8162F8BDC42BFF1F09
:10417C00442FFF1F442AFF1F1512FF1F5C2AFF1F2D
:10418C00E511FF1F080000201C12FF1FE411FF1F88
:0C419C0040420F00710200000C31FF1FB8
:1041A800F8B5494D4748E86072B607F0D7FA0028D5
:1041B80073D0464EB07900286FD0454F3868002834
:1041C80012D1E868434B808DC00710D0FEF7FAFC87
:1041D800696A884201D3401A01E0591A0818E96847
:1041E8008031C968814202D962B630BFF8BDFEF796
:1041F800E9FCE968181A898DC90711D0364A374B86
:104208001168FF24CB188A34A34200D3296A1160AD
:10421800020C80B24A4348435202C009141809E00C
:10422800C1018200891A4200891AC200101889083F
:10423800400A0C180BF04AFA7D21C900484302D005
:10424800A04200D804460BF0C5FC25490860254863
:104258000269D20734D18068234AC007C00F127898
:104268004042104201D0086802E0E86840690860EE
:10427800844200D9044605F00BFE00280BD03868AC
:10428800002808D1E9688A69C8691218A24202D8C8
:104298003288002A02D062B630BF11E04969201A7C
:1042A800814200D20846420AC10A40098018401AD1
:1042B800CA0880188A09801A090A401A03F092F974
:1042C80062B6F8BDE804002008000020B410FF1F03
:1042D8001812FF1FFFFFFF003412FF1F82F1FFFFBC
:0C42E800B010FF1F00100240E511FF1F86
:1042F40070B5164C144DE06940084000E06106209A
:10430400FDF76CFA11484038826980210A438261C2
:10431400E26901231A43E261A26A920503D42A46A0
:104324006D1E002AF8DC002D07DB226A7E23D60BE3
:1043340082691E409A433243826182698A43826160
:104344003006400E70BD0000983A000040F0004076
:10435400FFB581B00D46064610240C4F0CE0FFF764
:10436400C7FFB04208D2A84206D90499039800F0C6
:104374000FF8C019C72804D32046641EE4B20028ED
:10438400EDD11020001BC0B205B0F0BD21F1FFFF3C
:10439400F0B5002591B00E4607462C460BE01020E0
:1043A400FDF71CFA1448406AA2008104890C68468F
:1043B400641C8150E4B2BC42F1D339466846FEF72E
:1043C400C1FB0E4A002057426C460EE08100635840
:1043D400934201D9D91900E0D11A642902D90020E5
:1043E40011B0F0BD5D19401CC0B2B042EED33146ED
:1043F4002846FBF733FFF3E740F00040420F00008C
:1044040010B500F051F900F009FB064A01215820CB
:1044140000F080FA0423082219463820FFF798FF99
:0844240010BD0000880000201B
:10442C00F8B55D4C5B48E0608030806880F30888AC
:10443C00FCF74CFF59485B49C76A456B5848006804
:10444C00884208D000200CF099FC012080070269FA
:10445C0002218A4302610EF03FFCE0688030406824
:10446C0009F0C8FFE068803000680AF081F8E06865
:10447C004D4E808DC00607D54C4B0722102130467F
:10448C00FDF79EF8012306E003230822092130469C
:10449C00FDF796F80023062211463046FDF790F8FA
:1044AC00434E0020F0610220F0614248706101200F
:1044BC00FDF790F90320F061FEF782FB06460BF046
:1044CC008DFB0090FEF77CFB60620BF0FBFDBE42A7
:1044DC0001D9F01B02E03849F01B4018E168898DC6
:1044EC00C90706D0010C694380B249026843C00970
:1044FC000AE0C1018200891A4200891A891CC20093
:10450C00101889088030400A0D18616B206B411A15
:10451C002848103008188108A1638007E26B800FCF
:10452C008018E063042804D9491C8007800FA1631C
:10453C00E063224E68183146FBF78CFE204A136864
:10454C00C3181360206D08182065B04205D95B1C98
:10455C0031461360FBF77EFE21650AF033FB0BF04E
:10456C003DFB0099401A17492A1809688A4202D261
:10457C00491B081A01E07D20C0000CF035FC02F04C
:10458C004FF9022009F0E0FB00200CF0F7FB0BF0D8
:10459C0013FAF8BDE8040020080000200012FF1FE9
:1045AC002812FF1FB64121031CF00040FB03000042
:1045BC0000100240C4090000FFFFFF007102000060
:0845CC003010FF1FB010FF1FAB
:1045D40070B52748012581068860264CA068C9115A
:1045E4000843A0602449142008602448206024481B
:1045F40060602448037816221721201DFCF7E4FF8D
:104604002148C068006AFDF7E9F821491F4808609D
:104614001F4820498030C163FF21413141621E4857
:104624000078FDF71DF81D4902200CF0C3FB1C495E
:1046340003200CF0BFFBFF200CF07EFB012009F0EF
:104644005BFEFF20F53009F0D3FE582009F0CAFEC6
:10465400144809F063FE284609F0EEFE072009F02D
:104664002DFDE069000A00028830E06170BD0000A1
:104674009021E90140F0004000E100E020B81F5023
:104684003008BE0067000020080000200180063DBD
:10469400000003403408000066000020710200009E
:0846A40040420F0030750000D8
:1046AC00F8B52D4C23782D4D16221B212846FCF7EE
:1046BC0087FF0323112212212846FCF781FF2D1DB1
:1046CC00062316221A212846FCF77AFF032312220E
:1046DC0013212846FCF774FFA079032827D0002368
:1046EC0019221A212846FCF76BFF0B230422072101
:1046FC002846FCF765FFE379162217212846FCF7BC
:10470C005FFF184D1648E86042152A61164868612B
:10471C001649A961134E40367260B060F160114FBA
:10472C001348403F3860E079012802D00BE00323A6
:10473C00D6E70022012311463846FCF741FFFF2043
:10474C00413028617060E0780A49C006C00B4018FF
:10475C00B8630948E861F8BD6000002040F00040F3
:10476C0020010020C0000340A403B00000008A0414
:0C477C00242D0000250800002FFF26005F
:1047880070B52C492B4A4039002825D0022823D05F
:104798008B1513625A020A61274A0A63274A52781C
:1047A80001231B03D2184A61224A2249C03A8039A0
:1047B800002815D06523224DDB02224C012819D090
:1047C80002281CD0204E80191060204850600B60D1
:1047D8008D60CC601E4819E080231362DA02DAE7A4
:1047E8001C481060002088601B4808601B48C8608F
:1047F8001B480BE01B4810608D600B60E9E7194807
:10480800401C10608D600B60CC6017480861174829
:104818004861174888611748C861174808621748EF
:104828004862174888621748C862174808631748DB
:10483800486370BDC0000340030000016000002011
:1048480055555537D6BE898E00800698545A9850CB
:10485800805508220080067800280B0007EE753680
:10486800806608220180064280450822A49C5C5488
:104878004C0C0403025A544E483C36332D007F5DDD
:1048880057514B453C363056504A443E322C262030
:1048980070B50A4B5C6A9D6AA30501269B0D7602DA
:1048A800B34201D99B1B02E0FF33FF3302330B8075
:1048B800290E0170200E107070BD0000C00003406A
:1048C80010B5FFF7EFFE044CE07800F007F8207908
:0C48D800FFF756FF10BD0000600000203C
:1048E40010B5044609483F2C0DD00D230F22122188
:1048F400FCF76AFE0648816BE2060905090DD20B36
:104904001143816310BD0823F0E7000014F0004058
:0449140080000340DC
:10491800F0B5354C666AA56A00236362A362334C1E
:1049280060630E20206263624020A0625020E06233
:104938002A2060622D484030012926D0802101625A
:104948002B49FF232948A53340308360294B436016
:10495800264B2948403B18617D20C000401EFDD2EF
:10496800264889050F18214840388763234B5B1C6C
:10497800C91881632349224889790B0001F062FE36
:10498800070B0B0E0D0E0E0B0E00FF2101310162FD
:1049980017498331D5E71C4800E01C481C491160C1
:1049A8001249403103E0CB6ADB439B0F11D0401E14
:1049B800F9D20E48403887630020A062E062886020
:1049C80060622062FF20413060620748466285626B
:1049D800F0BDC86A0F4B1840106010680122000C27
:1049E800120480184860E4E7001003408000034088
:1049F800CA0200002020000080560C2064652100B7
:104A08001027000060000020204E000030750000D4
:084A180000002020FFFF3F3FDA
:104A200030B5244C2079012828D02079032825D0BE
:104A30002079042822D02079022827D001210220C1
:104A400000F03CF8C01C60700121422000F036F8F4
:104A5000C01CA070A07862781749904222D2002032
:104A6000627853016278A578521B42439A1A103239
:104A700052110A54401C2828F2DB30BD00210220CC
:104A800000F01CF8801C6070002106E0012102206B
:104A900000F014F8801C60700121422000F00EF834
:104AA000801CD6E7002062780A54401C2828FADBD4
:0C4AB00030BD000060000020300D002030
:104ABC0030B51C4C1A4A22601A4A4032012914D0D3
:104ACC001949D16050630E20106200215162FF2001
:104ADC00153050621548857915482B0001F0B0FD52
:104AEC00070A0A070C0D0D0A0D001249E9E71048D8
:104AFC00401E02E0104800E01048401EFDD209485C
:104B0C008030406B51620002000E11620C49D16082
:104B1C00FF21413151626521C902216030BD000085
:104B2C0010000300400003407F4072006000002032
:104B3C000F2700007F405200204E0000307500000F
:044B4C0040401000D5
:104B50000FB410B578210B48FCF7F0FF03AA002032
:104B6000029900F01BF80748FBF7E6FB81B2054805
:104B7000FCF782FA04490020088010BC08BC04B08D
:0C4B800018470000580D0020980000208D
:104B8C0010B5024B0FCBFCF737FA10BDF84E0000F6
:104B9C00F7B5002584B00C4606462F466BE0252859
:104BAC0063D100226078641C1346002866D0252847
:104BBC005BD02D2801D10123641C022021783029DF
:104BCC0007D10343641CF9E70A214A43303A82189F
:104BDC00641C2078014630390929F5D9C1B27329F2
:104BEC000AD0642812D0782819D058281ED07528DD
:104BFC0026D063282ED03DE0069802C806900029E6
:104C0C0000D122A1304600F0A4F80DE06120019300
:104C1C0002900698009202C80123069018E06120C9
:104C2C0005E0304600F04CF8451923E04120019393
:104C3C00029000920698002302C810220690F0E71A
:104C4C006120019302900698009202C800230690FE
:104C5C000A22E6E70698694684460078087360469F
:104C6C00001D06904F7303A9CCE7C1B2304600F08B
:104C7C0011F86D1C641C2078002890D1002E01D0F6
:104C8C0030680770284607B0F0BD0000286E756CC0
:044C9C006C2900007F
:104CA000C9B2002805D0026811700168491C016072
:104CB0007047044A10887828FAD2034B1954401CD4
:0C4CC0001080704798000020580D002064
:104CCC00FFB5002783B00C9E3D46081E3A4605D022
:104CDC00002B13D0059B0A2B0CD00FE0302168461B
:104CEC0001704270324669460D9B039800F031F812
:104CFC0007B0F0BD002901DA01274042694602AC39
:104D0C00CA7203340AE00599FBF7A4FA0A2902DBFC
:104D1C000E9A89183A393031641E21700028F2D16C
:104D2C00002F0ED0002E09D00D98800706D52D210E
:104D3C000398FFF7AFFF6D1C761E02E02D20641E5A
:104D4C002070324621460D9B039800F002F8401962
:024D5C00CEE7A0
:104D5E00FFB50026202781B014460D46002A0FDD30
:104D6E000021284601E0401C491C0278002AFAD195
:104D7E00A14201DB002400E0641A980700D5302719
:104D8E00D80706D00DE039460198FFF782FF641E62
:104D9E00761C002CF7DC04E00198FFF77AFF6D1CFF
:104DAE00761C29780029F7D105E039460198FFF7DE
:104DBE0070FF641E761C002CF7DC304605B0F0BD8B
:104DD00010B50020054CFF212218401C51704028BE
:104DE000FADB00F04BF8207010BD0000D00D002061
:104DF00010B50020054CFF212218401C51700628D8
:104E0000FADB00F059F8207010BD00009D00002072
:104E1000F0B58646080CFF268446002388B2374644
:104E20001C46194601228A4005461540CD402C19E2
:104E3000A4B2FF2F02D1012C00D18FB265462A40C7
:104E4000CA40D21893B2FF2E02D1012B00D18EB2EC
:104E5000491C1029E6DB012C02D0102C08D009E0F7
:104E6000012B07D13001C019714608700220F0BD36
:0C4E7000102B01D00320F0BD0120F0BD8C
:104E7C00F8B50C4D0C4E0024A00040190168684692
:104E8C00FFF7C0FF022805D0002C02DD012800D15D
:104E9C000320F8BD321969460978641C5170402C06
:0C4EAC00EADBF8BD00080011D00D00206A
:104EB800F8B500240C4D0D4F0526A00040190168D7
:104EC8006846FFF7A1FF022805D0002C02DD012863
:104ED80000D10320F8BD321B6946D2190978641C39
:104EE8005170062CE9DBF8BD000900119D00002077
:104EF800090AFFFF00C201000100000000000000D5
:084F08006CB2FF7F0100000004
:104F10000200000040787D01000000000000000059
:104F20000000000000000000000000000000000081
:104F30000000000000000000420F00000000000020
:104F40000000000000000000000000000000000061
:104F50000000000000000000000000000000000051
:104F6000000000007856341200000000000000002D
:104F7000002D230F010002020000000000000000CD
:104F800000000F0000010000000000000000000011
:104F900000000000000000000000202000000000D1
:104FA00000000000294176710000000000000000B0
:104FB0000000000000000000B00000200000000021
:104FC000000000009C030020040400206C0400206A
:104FD00000000000000000000000000000000000D1
:104FE00000000000000000000000000000000000C1
:104FF00000000000A81E00000000000000000000EB
:1050000000000000000000000000000000000000A0
:105010000000000000000000000000000000000090
:105020000000000000000000000000000000000080
:105030000000000000000000000000000000000070
:105040000000000000000000000000000000000060
:105050000000000000000000000000000000000050
:10506000000000000000000001000000000000003F
:105070000E33CDAB34126DE6ECDE05000B00000004
:105080000000000000000000000000000000000020
:105090000000000000000000000000000000000010
:1050A0000000000000000000000000000000000000
:1050B00000000000000000000000000000000000F0
:1053E0000000000000000000551E00003901000010
:0853F0000D01000000000000A7
:1053F80000000000000000000000000000000000A5
:105408000000000000000000000000000000000094
:105418000000000000000000000000000000000084
:105428000000000000000000000000000000000074
:0400000300001A7D62
:00000001FF
