:020000041FFFDC
:1008000000000000B5C1FF1F6CDBFF1F90DBFF1F66
:10081000D4E0FF1F00000000000000000000000006
:1008200000000000000000000000000000000000C8
:1008300000000000000000000000000000000000B8
:1008400000000000000000000000000000000000A8
:100850000000000000000000000000000000000098
:100860000000000000000000000000000000000088
:100870000000000000000000000000000000000078
:100880000000000000000000000000000000000068
:100890000000000000000000000000000000000058
:1008A0000000000000000000000000000000000048
:1008B0000000000000000000000000000000000038
:1008C0000000000000000000000000000000000028
:1008D0000000000000000000000000000000000018
:1008E0000000000000000000000000000000000008
:1008F00000000000000000000000000000000000F8
:1009000000000000000000000000000000000000E7
:1009100000000000000000000000000000000000D7
:1009200000000000000000000000000000000000C7
:1009300000000000000000000000000000000000B7
:1009400000000000000000000000000000000000A7
:100950000000000000000000000000000000000097
:100960000000000000000000000000000000000087
:100970000000000000000000000000000000000077
:100980000000000000000000000000000000000067
:10099000B5A3FF1F79A4FF1F2DCEFF1F000000008D
:1009A0000000000000000000000000000000000047
:1009B0000000000000000000000000000000000037
:1009C0000000000000000000000000000000000027
:1009D0000000000000000000000000000000000017
:1009E0000000000000000000000000000000000007
:1009F00000000000000000000000000000000000F7
:100A000000000000000000000000000000000000E6
:100A100000000000000000000000000000000000D6
:100A200000000000000000000000000000000000C6
:100A300000000000000000000000000000000000B6
:100A400000000000000000000000000000000000A6
:100A50000000000000000000000000000000000096
:100A60000000000000000000000000000000000086
:100A70000000000000000000000000000000000076
:100A80000000000000000000000000000000000066
:100A90000000000000000000000000000000000056
:100AA0000000000000000000000000000000000046
:100AB0000000000000000000000000000000000036
:100AC0000000000000000000000000000000000026
:100AD0000000000000000000000000000000000016
:100AE0000000000000000000000000000000000006
:100AF00000000000000000000000000000000000F6
:100B000000000000000000000000000000000000E5
:100B100000000000000000000000000000000000D5
:100B200000000000000000000000000000000000C5
:100B300000000000000000000000000000000000B5
:100B400000000000000000000000000000000000A5
:100B50000000000000000000000000000000000095
:100B60000000000000000000000000000000000085
:100B70000DA8FF1F000000000000000000000000A2
:100B80000000000000000000696DFF1F0000000071
:100B900000000000999AFF1F000000000000000004
:100BA000000000000000000000000000559BFF1F37
:100BB0000000000000000000419BFF1F4B9BFF1F37
:100BC0007D9AFF1F000000000000000000000000F0
:100BD0000000000000000000000000000000000015
:100BE0000000000000000000000000000000000005
:100BF00000000000BD99FF1F000000000000000081
:0C0C000001FF01FF01FF01FF41000000A7
:020000041FFFDC
:10400000E0F4FF1FD540FF1FDD40FF1FDF40FF1F13
:1040100000000000000000000000000000000000A0
:10402000000000000000000000000000E140FF1F51
:104030000000000000000000E340FF1FE540FF1FFC
:104040000000000000000000000000000000000070
:104050000000000000000000000000000000000060
:104060000000000000000000000000000000000050
:104070000000000000000000000000000000000040
:104080000000000000000000000000000000000030
:104090000000000000000000000000000000000020
:1040A0000000000000000000000000000000000010
:1040B0000000000000000000000000000000000000
:1040C0000348854600F0D0F900480047B5BEFF1F01
:1040D000E0F4FF1F0448804704480047FEE7FEE77E
:1040E000FEE7FEE7FEE7FEE7596DFF1FC140FF1F39
:1040F000F0B51FB40646002082B005464024019169
:1041000000901BE0019922460F46304600F021F94D
:10411000049A059B801A994110D3104619462246ED
:1041200000F007F9361A8F4101972246012000213D
:10413000009F00F0FEF838184D4100902046641EA4
:104140000028DFDC019B00982946324607B0F0BD0D
:10415000F0B51FB486B00020009001900290069840
:10416000069980B204900798090C020400141143C8
:1041700007900027089D099806913E463C4603900B
:104180000398A9B20204000C039004982D0C154367
:1041900048430021224600F0CCF8C7197141103481
:1041A0000E46402CECDB3846029A00F0C2F8009A2A
:1041B000019B8018009059410298019110300290A3
:1041C0004028CCDB00980BB0F0BD000038B50446A9
:1041D000C0681821401E4843A16840183C2148434C
:1041E000616840183C2148432168451860690C21EA
:1041F0004843216940186921C900401A302100F064
:10420000D7F9114A50434219084600921A2902DB95
:104210000E49511800910C2100F0CAF90C4A504384
:10422000009A801800900B4806E0491E425C074B3C
:104230005A43009BD21800920029F6DC21466846BA
:1042400000F0A0F8009838BD801F8607805101005B
:104250008033E10154DCFF1F03460B439B0703D06F
:1042600009E008C9121F08C0042AFAD203E00B783B
:104270000370401C491C521EF9D27047D2B201E0B3
:104280000270401C491EFBD270470022F6E710B5B1
:1042900013460A4604461946FFF7F0FF204610BDB4
:1042A00010B5002200E0521C835C8C5CA34201D15B
:1042B000002BF8D1D8B2E1B2401A10BD70B5104D44
:1042C000002800D12868002414E00A4602E09E423B
:1042D00003D0521C1378002BF9D1DAB2224307D055
:1042E000002B06D0002C04D000210170401C04E0FB
:1042F0000446401C0678002EE7D12860204670BD99
:1043000078E2FF1F0321001D401E037812021A43AA
:10431000491EF9D51046704770B5064602F024FED6
:10432000046805460A220021304600F065F82C603A
:1043300070BD10B5202A04DB0146203A91400020D0
:1043400010BD914020239C1A0346E340194390403E
:1043500010BD10B5202A04DB0846203AD0400021C9
:1043600010BD0B46D340D0402024A21A91400843F0
:10437000194610BD10B5024900F004F810BD000048
:10438000B0EFFF1F70B50C4600683C2100F016F935
:1043900021603C2100F012F96160182100F00EF953
:1043A0000546A1600721001D00F008F9A1610F4832
:1043B000A90008180E4900F001F9024644328808A5
:1043C0006261E0613B2802D3910700D0401C0021CC
:1043D000084B0A462161995C814203D8401A521C5D
:1043E0002261F8E7401CE060204670BD6C0B0000C5
:1043F000B505000060DCFF1FF7B5009C0F460026E6
:104400002578641C002D05D000F040F80068405D60
:10441000C007F5D12B2D02D02D2D18D0641E3946A2
:104420002046029A00F036F8002F04D03968A142E5
:1044300001D1009939607105022400290BDA40424C
:10444000002803DD02F090FD0460A007FEBD0120FE
:1044500080020643E3E70028F8DA02F085FD0460F5
:104460000048FEBDFFFFFF7F064C0125064E05E01C
:10447000E36807CC2B430C3C98471034B442F7D385
:10448000FFF722FE54DDFF1FA4DDFF1F0048704729
:10449000F0DCFF1FF7B582B0029C00272078641C77
:1044A00015460197302802D0002D15D015E0207850
:1044B0000127641C782804D0582802D0002D09D088
:1044C0000BE0002D01D0102D07D1002710252078FA
:1044D000641C02E0082500E00A250026009610E092
:1044E0000099012769430818020C294680B27143DC
:1044F00000908E183804864201D301200190207864
:10450000641C294600F019F80028E9DA039800280D
:1045100005D0002F01D0641E00E0029C04600198C9
:10452000002806D002F020FD02210160C81E05B05F
:10453000F0BD009930040843F9E73A2800D230383A
:10454000202302469A43412A01D310463738884235
:1045500001D30020C043704770B58C180578401C0B
:104560006B075B0F01D10378401C2A1106D102783A
:10457000401C03E006780E70401C491C5B1EF9D1FC
:104580002B0705D40023521E0DD40B70491CFAE7EB
:104590000378401CCB1A921C03E01D780D70491C57
:1045A0005B1C521EF9D5A142D8D3002070BD00007B
:1045B00003B40148019001BD8D02000003B401481D
:1045C000019001BD6102000003B40148019001BDEA
:1045D0000FF4000003B40148019001BD41F4000054
:1045E00003B40148019001BD61F2000003B4014829
:1045F000019001BD8117000003B40148019001BD85
:104600006117000003B40148019001BD4D66000030
:1046100003B40148019001BD5113000003B40148E7
:10462000019001BD3916000003B40148019001BD9D
:104630005DF6000003B40148019001BD75F400006F
:1046400003B40148019001BD8913000003B401487F
:10465000019001BD5D2F000003B40148019001BD30
:10466000CDF9000003B40148019001BDF1F900004B
:1046700003B40148019001BDD111000003B4014809
:10468000019001BD59F9000003B40148019001BD3A
:104690009D18000003B40148019001BDF1F1000034
:1046A00003B40148019001BDF117000003B40148B3
:1046B000019001BD5114000003B40148019001BDF7
:1046C0006916000003B40148019001BD09150000FE
:1046D00003B40148019001BDC960000003B4014862
:1046E000019001BDB51F000003B40148019001BD58
:1046F000E9BF000003B40148019001BD1D1B00008B
:1047000003B40148019001BDED1B000003B4014852
:10471000019001BD6506000003B40148019001BD90
:1047200021FA000003B40148019001BDC11F00003F
:1047300003B40148019001BD49F4000003B40148ED
:10474000019001BDC9F6000003B40148019001BD0C
:10475000C520000003B40148019001BDD54100000F
:1047600003B40148019001BD2141000003B4014898
:10477000019001BDE9FB000003B40148019001BDB7
:1047800055DD000003B40148019001BD89DF000040
:1047900003B40148019001BD75E0000003B4014875
:1047A000019001BDE1DE000003B40148019001BDAC
:1047B00035E1000003B40148019001BD29E4000087
:1047C00003B40148019001BD69E5000003B401484C
:1047D000019001BD91E0000003B40148019001BDCA
:1047E000E1E2000003B40148019001BDF1E20000E4
:1047F00003B40148019001BDCDE6000003B40148B7
:10480000019001BD09E9000003B40148019001BD18
:10481000E1E7000003B40148019001BDB5DF0000ED
:1048200003B40148019001BD6DDF000003B40148ED
:10483000019001BD85E0000003B40148019001BD75
:10484000D1E5000003B40148019001BDCDDF0000B7
:1048500003B40148019001BD1DE0000003B401480C
:10486000019001BDCDE0000003B40148019001BDFD
:1048700031E2000003B40148019001BD49E70000A6
:1048800003B40148019001BD1DDB000003B40148E1
:10489000019001BD2DCF000003B40148019001BD7E
:1048A000A90B010003B40148019001BD5D0B01009B
:1048B00003B40148019001BD690B010003B4014834
:1048C000019001BD250E010003B40148019001BD16
:1048D000F5E3000003B40148019001BD21E30000AD
:1048E00003B40148019001BD15E3000003B4014881
:1048F000019001BDC1E0000003B40148019001BD79
:104900006DDD000003B40148019001BDF1DE00003F
:1049100003B40148019001BD7574000003B401485F
:10492000019001BD8574000003B40148019001BDF0
:104930000959000003B40148019001BD15F20000BF
:1049400003B40148019001BDFDF6000003B4014825
:10495000019001BDC5F9000003B40148019001BDFB
:10496000DD74000003B40148019001BD890D010010
:1049700003B40148019001BDD576000003B401489D
:10498000019001BDFD0E000003B40148019001BD7E
:10499000F1F3000003B40148019001BD611600006D
:1049A00003B40148019001BDA916000003B40148F9
:1049B000019001BD0D34000003B40148019001BD18
:1049C00045C0000003B40148019001BD610700002B
:1049D00003B40148019001BD9107000003B40148F0
:1049E000019001BD691B000003B40148019001BDA5
:1049F000BD07000003B40148019001BD310700006C
:104A000003B40148019001BD7919000003B40148C5
:104A1000019001BD010D000003B40148019001BDEA
:104A2000290D000003B40148019001BD6F21000071
:104A300003B40148019001BD5D0D000003B40148BD
:104A4000019001BD990D000003B40148019001BD22
:104A5000D10D000003B40148019001BDF90D000023
:104A600003B40148019001BD410E000003B40148A8
:104A7000019001BD89F2000003B40148019001BD1D
:104A80004703000003B40148019001BD39750000DF
:104A900003B40148019001BD8D75000003B40148C5
:104AA000019001BD8572000003B40148019001BD71
:104AB000E52C010003B40148019001BD7D9E00007A
:104AC00003B40148019001BDF59E000003B4014804
:104AD000019001BDF94C000003B40148019001BDF3
:104AE000A53D000003B40148019001BD5D520000E6
:104AF00003B40148019001BD552B010003B40148E6
:104B0000019001BDB1C2000003B40148019001BD94
:104B1000F1F0000003B40148019001BDC5C50000DB
:104B200003B40148019001BD0DC7000003B4014862
:104B3000019001BD0BC5000003B40148019001BD07
:104B40003942000003B40148019001BDF14000006A
:104B500003B40148019001BDC140000003B4014805
:104B6000019001BD5D41000003B40148019001BD09
:104B700095C3000003B40148019001BD1DC30000AE
:104B800003B40148019001BD6D45000003B4014824
:104B9000019001BD753C000003B40148019001BDC6
:104BA0007DCE000003B40148019001BD71D7000023
:104BB00003B40148019001BD99D7000003B4014836
:104BC000019001BDB943000003B40148019001BD4B
:104BD0003D44000003B40148019001BDE1D500004F
:104BE00003B40148019001BD7DD2000003B4014827
:104BF000019001BD7D4E000003B40148019001BD4C
:104C000095DA000003B40148019001BD4D4F00004A
:104C100003B40148019001BDE9CF000003B401488D
:104C2000019001BD3DD8000003B40148019001BDD1
:104C300089D4000003B40148019001BD5DD6000095
:104C400003B40148019001BD3DC4000003B4014814
:104C5000019001BDB551000003B40148019001BDB0
:104C60003D0D010003B40148019001BD55E5000070
:104C700003B40148019001BDBD9E000003B401488A
:104C8000019001BDF5C4000003B40148019001BDCD
:104C90003D3F000003B40148019001BD25C2000062
:104CA00003B40148019001BD17C4000003B40148DA
:104CB000019001BDF7C2000003B40148019001BD9D
:104CC00001C4000003B40148019001BDD9380000BF
:104CD00003B40148019001BDDBC2000003B40148E8
:104CE000019001BDE1C1000003B40148019001BD84
:104CF00041CF000003B40148019001BD199F00009D
:104D000003B40148019001BDC9C5000003B40148C6
:104D1000019001BD8DC9000003B40148019001BD9F
:104D200039CD000003B40148019001BD35D3000026
:104D300003B40148019001BD6959000003B4014862
:104D4000019001BD1500010003B40148019001BDAF
:104D500059C5000003B40148019001BD99C4000089
:104D600003B40148019001BDD54A000003B40148D5
:104D7000019001BD3D29000003B40148019001BD2F
:104D80009534000003B40148019001BD691300008F
:104D900003B40148019001BDE11D000003B40148C6
:104DA000019001BDB55E000003B40148019001BD52
:104DB00065B7000003B40148019001BDD5F60000BD
:104DC00003B40148019001BDDDFB000003B40148BC
:104DD000019001BD999E000003B40148019001BDFE
:104DE000ED75000003B40148019001BD39030000D6
:104DF00003B40148019001BD9D1E000003B40148A9
:104E0000019001BD01E4000003B40148019001BD1F
:104E10007DE5000003B40148019001BDD10001000F
:104E200003B40148019001BDD1EB000003B4014877
:104E3000019001BDF50D010003B40148019001BDD1
:104E40002D68000003B40148019001BDB90D0100B7
:104E500003B40148019001BDFDE2000003B4014824
:104E6000019001BDE9E3000003B40148019001BDD8
:104E70003DE4000010B5034A1321034800F01EFF73
:104E800010BD0000F4DAFF1FBCDDFF1FF8B50446BB
:104E90000D4616460027002C05D12A463146044807
:104EA000FFF792FB01E0022700BF00BF3846F8BDC4
:104EB000A5DDFF1FFFB58DB000200B900C900BAA55
:104EC0000E990D9800F086F804460A2C5EDA20460A
:104ED00003F023FA054634480078022801D1012066
:104EE00000E0002000902A462146109B0F9803F016
:104EF00095F91422002106A8FFF76CFB2146062233
:104F000051432431C8B206AA102107F02DFA002817
:104F100015D11022FF2106A8FFF762FB00280ED151
:104F20002146062251432531C8B20AAA042107F0BE
:104F30001BFAE907C90F06AA0F98FFF757FB21468E
:104F40007031C8B202AA102107F00EFA002813D15E
:104F500002A803F0F6F900260CE0B00002A94718F9
:104F60003888002804D0BA7839880F9800F0F6FE07
:104F7000701CC6B2042EF0DB02202840002804D0AA
:104F80000A4801780F9800F0D3FE00BF109804285B
:104F900006D105480078022802D10F9803F00AFADA
:104FA000002011B0F0BD000039E0FF1F38E0FF1F06
:104FB00010B5044605480460054801782620FFF72F
:104FC0001BFB0348007800F073FE10BD4CE0FF1F90
:104FD00038E0FF1FF8B506460F4614460A25002E96
:104FE00006D0012E05D0022E11D0032E29D11BE0B0
:104FF00000BF384603F042F905460A2D06DA002CB8
:1050000004D0062239462046FFF7DEFA1AE0384679
:1050100003F04CF905460A2D05DA002C03D0214691
:10502000284603F05DF90DE0384603F09EF9054689
:105030000A2D05DA002C03D02146284603F050F94A
:1050400000E000BF00BF2846F8BD000070B505466F
:105050000C46002603200002281A0300FFF7D2FAAC
:105060001D10141A20242A2E32394044484E52561C
:105070005A5E62666A6E72787C809084888C90003A
:1050800045480078207084E0102244492046FFF70C
:105090009BFA7EE0102242492046FFF795FA78E01D
:1050A00040480068206074E006223F492046FFF730
:1050B0008BFA6EE03D48007820706AE03C4800883A
:1050C000208066E03B4802783B492046FFF77CFAA7
:1050D0005FE03A4802783A492046FFF775FA58E00F
:1050E00038480078207054E037480078207050E04D
:1050F000062236492046FFF767FA4AE0344800782E
:10510000207046E033480078207042E03248008842
:1051100020803EE03148008820803AE03048007826
:10512000208036E02F480088208032E02E4800881A
:1051300020802EE02D48008820802AE02C4800881E
:10514000208026E006222B492046FFF73DFA20E08A
:105150002948008820801CE028480088208018E02A
:1051600027480088208014E026480078207010E04E
:105170002548008820800CE024480088208008E032
:10518000272D04DA2846FFF743FA208000E00226A4
:1051900000BF00BF304670BDD2DFFF1FA6E4FF1F77
:1051A000B6E4FF1FD4DFFF1FD8DFFF1FDEDFFF1FC6
:1051B000E0DFFF1FE2DFFF1FE3DFFF1F02E0FF1F53
:1051C000C6E4FF1F03E0FF1F04E0FF1F05E0FF1F11
:1051D0000BE0FF1F0CE0FF1F0EE0FF1F14E0FF1F9E
:1051E0001CE0FF1F1EE0FF1F20E0FF1F22E0FF1F4B
:1051F00024E0FF1F16E0FF1F26E0FF1F28E0FF1F2F
:105200002AE0FF1FD1DFFF1F10E0FF1F12E0FF1F8A
:1052100010B5044613480470002013490870401E5E
:10522000124908800F480078FFF7F8F90420104968
:105230000870102200210F48FFF7CCF9102200213E
:105240000D48FFF7C7F900200C4908600C490870A9
:105250000C49087001200C49087000200B490870A7
:1052600010BD0000D0DFFF1FD1DFFF1F0EE0FF1FCA
:10527000D2DFFF1FA6E4FF1FB6E4FF1FD4DFFF1F2E
:1052800003E0FF1F04E0FF1F0BE0FF1F0CE0FF1F08
:10529000FEB506460C460120C0032040002810D071
:1052A00047480078FFF7C0F9051E05D0284603F0EF
:1052B0004FFA2846FFF7BEF920460121C9034840AE
:1052C000FEBD012080032040002804D0204601219B
:1052D00089034840F4E7E007C00F00283ED0394872
:1052E0000078002836D038480078052803D10320FC
:1052F000694608700CE0354801786846017034480A
:1053000001786846417006223249801CFFF75CF93B
:105310003148017868460172304801786846417228
:10532000694627480078FFF78BF9002811D007203D
:10533000254908702A48006800280AD028480068D3
:105340000068002805D02648006801681E480078DB
:10535000884700BF204601214840B1E70220204095
:10536000002816D01848007805280ED11D4800885E
:10537000FFF76CF91C480088002806D01A480288FC
:1053800002210F480078FFF767F9204602214840C4
:1053900096E704202040002806D0002003F050FAB1
:1053A0002046042148408BE708202040002805D0F3
:1053B00003F01CF820460821484081E700207FE7E1
:1053C000D0DFFF1FDEDFFF1FD1DFFF1F03E0FF1F66
:1053D00004E0FF1F05E0FF1F0BE0FF1F0CE0FF1FB5
:1053E00030E0FF1F0EE0FF1F14E0FF1FF8B504467A
:1053F0000D4617461E4617480078052801D0142090
:10540000F8BD062C23DB1920C00184421FDA062DCB
:105410001DDB85421BDAFF20F530874217DA0A2EA2
:1054200015DB1920C001864211DA0B4804800B48B5
:1054300005800B4807800B480680069803F000FAA9
:10544000042109480078FFF70DF90020D8E718205B
:10545000D6E70000D1DFFF1F1EE0FF1F20E0FF1F87
:1054600022E0FF1F24E0FF1FD0DFFF1FF8B5064634
:105470000C46154600200090BA4830180300FFF78C
:10548000C1F8190E1924FD2D6A738DA7B3BFCAD6B2
:10549000FDE2FCFBFAF9F8FDFDFDFDF7FD00102C27
:1054A00005D110222946B048FFF78EF801E01820F8
:1054B000009054E1102C05D110222946AB48FFF78B
:1054C00083F801E01820009049E1042C03D1A84999
:1054D0002868086001E01820009040E1012C37D1D5
:1054E000A44807782878A3490870002F14D00846EC
:1054F0000078002810D1A0480078022807D09E48E4
:105500000078062803D09C48007804281FD19B48C7
:105510000078FFF7ADF81AE0002F18D19548007811
:10552000002814D09448007801280BD092480078C5
:10553000032807D090480078052803D08E480078CB
:10554000042804D101218D480078FFF797F801E085
:105550001820009003E1022C03D128888849088094
:1055600001E018200090FAE01F2C14DC1F2200211B
:105570008448FFF72FF8224629468248FFF724F88F
:10558000814804707F4B224601217C480078FFF758
:105590007BF8009001E018200090E0E01F2C14DC64
:1055A0001F2200217948FFF715F82246294677483F
:1055B000FFF70AF876480470744B027800216F48B0
:1055C0000078FFF761F8009001E018200090C6E035
:1055D000012C06D12878042803DC28786D4908704E
:1055E00001E018200090BAE0012C06D128780328A9
:1055F00003DC28786849087001E018200090AEE0CC
:10560000062C05D1062229466448FEF7DDFF01E09D
:1056100018200090A3E0012C06D12878072803DC8D
:1056200028785F49087001E01820009097E0012C6D
:1056300006D12878032803DC28785A49087001E04D
:10564000182000908BE0022C19D128885649088038
:1056500008460088002814D047480078052810D153
:1056600008460288022145480078FEF7F5FF08E069
:105670004EE03EE030E020E010E003E062E0182081
:1056800000906CE0012C06D12878012803DC2878F2
:105690004649087001E01820009060E02888022C3C
:1056A00008D1062806DB1921C901884202DC4049DD
:1056B000088001E01821009151E02888022C08D1CF
:1056C000062806DB1921C901884202DC3949088015
:1056D00001E01821009142E02888022C06D1FF2128
:1056E000F531884202DA3449088001E0182100913E
:1056F00035E02888022C08D10A2806DB1921C901C7
:10570000884202DC2D49088001E01821009126E042
:105710002F78012C13D1012F11D1082117480078BF
:10572000FEF7B8FF002807D103F08AF804211348D8
:105730000078FEF797FF04E01620009001E01820A3
:1057400000900CE0272E07DA022C05D1298830467C
:10575000FEF752FF009001E00220009000BF00BF62
:105760000098F8BDFFFCFFFFA6E4FF1FB6E4FF1F93
:10577000D4DFFF1FDEDFFF1FD1DFFF1FD0DFFF1FE2
:10578000E0DFFF1FE3DFFF1FE2DFFF1FC6E4FF1FB5
:1057900002E0FF1F03E0FF1F04E0FF1F05E0FF1F03
:1057A0000BE0FF1F0CE0FF1F14E0FF1F1CE0FF1FBA
:1057B0001EE0FF1F20E0FF1F22E0FF1F24E0FF1F6D
:1057C00010B5044606480078002807D1002C01D007
:1057D0000448046003F01CF8002010BD1120FCE711
:1057E000D1DFFF1F30E0FF1F10B507480078052804
:1057F00007D113220548018805480078FEF750FFBD
:1058000010BD1220FCE70000D1DFFF1F0EE0FF1FDC
:10581000D0DFFF1FF8B507460C461E4602252300C1
:10582000FEF7F0FE0A0F06080C090F0D0F0B0E0F06
:10583000002508E007E0002505E004E003E002E0C1
:1058400001E0022500BF00BF002D0FD121463846E0
:10585000FEF72CFF0546002D08D13046079A069921
:10586000FEF72AFFFEF72EFFFEF732FF2846F8BDAF
:1058700070B504460025E007C00F002805D0044A93
:105880000421044800F01AFA0546284670BD0000BD
:1058900008DBFF1F0CDFFF1F10B504460F48047024
:1058A0000F49104800F024F800200AE00021C94305
:1058B000C2000D4B99520021C200D2185160411C08
:1058C000C8B20128F2DB142003F0C2FC03480078C0
:1058D000FEF704FF0548FEF707FF10BDECDEFF1FD3
:1058E00002DFFF1FFFFF0000F0DEFF1FF989FF1F2F
:1058F00070B506460C46104886420ED1002009E0DD
:105900000021C9438200A152002182001219917026
:10591000411CC8B20228F3DB0CE02146304603F0FC
:105920001EF80546002D04D00020C043288000202A
:10593000A87000BF70BD0000FFFF0000FFB581B080
:105940000C4615461F46002000900A98002826D1D4
:10595000022F21D1287869780902401886B2314691
:105960000B988143002914D1E168019800F092F965
:10597000B04210D03246E168019800F025FA00905C
:105980000098002807D161893246019800F0B0F9EB
:1059900001E08020009004E00D20009001E00B2049
:1059A0000090009805B0F0BD70B506460C46012089
:1059B000C0032040002816D00C480078FEF734FEC3
:1059C000051E0BD02878B02803D1284603F01CF917
:1059D00000E000BF00BF2846FEF72CFE2046012154
:1059E000C903484070BD0020FCE70000ECDEFF1F4B
:1059F000FFB587B00D461C46109E0020069005900E
:105A0000287A10210840002814D0099802F09CFF41
:105A10000746002F05D00A2229460798B847059067
:105A200001E00E2005900598002802D005980BB0E3
:105A3000F0BD00BF287802287ED1686800786968C8
:105A400049780902401880B2049029221202049871
:105A5000811A904271D009DC8B49401A0FD001287D
:105A60000ED0022848D0032868D118E0012966D05A
:105A700002297DD003297CD00429F5D1C9E000BFDB
:105A80001198002808D1EF68387830703A782046AD
:105A90007968FEF799FD01E00B200590D6E011989A
:105AA000002826D101203070E868007820706989CC
:105AB000491C88B20021FEF71DFE0746002F0FD0BB
:105AC00031783878801C08183070B87A607078891E
:105AD0000012A0703A78E01C7968FEF775FD07E0C7
:105AE0003078001D307004220021601CFEF772FD2A
:105AF00001E00B200590A9E01198002844D1E86846
:105B000000880190042030700198207001980012E4
:105B1000607003A90198FEF7EDFD0746002F29D01C
:105B2000F868009002AB6846828958493846FEF70B
:105B3000E7FD00280ED103E08AE039E083E046E08B
:105B40003B78022152487A68FEF7E0FD002801D137
:105B5000401E029000980078022808D10098022286
:105B60004168201DFEF730FD3078801C307003E066
:105B70000DE01EE00198029068460089A07068461A
:105B800000890012E07001E00B2005905EE01198A2
:105B900000280AD1E968079800F07CF8074602203F
:105BA000307027703812607001E00B2005904DE0D6
:105BB00000BF1198002807D1E968088802213170D8
:105BC00020700112617001E00B2005903EE0E86852
:105BD000FEF7A2FDC7B21198B84217DC1198B8427F
:105BE00001D1002709E0129911984018B84201DA52
:105BF000129F02E01198381AC7B23770EA681198FC
:105C000011183A462046FEF7DFFC01E00720059018
:105C10001CE01198002813D1E86807213170017841
:105C20002170417861708178A17041880912E1701A
:105C30000179217181796171C1880912A17101E035
:105C40000B20059002E00120069000BF00BF01E09C
:105C5000012006900698012813D1099802F0A4FEAD
:105C60000746002F0AD01299119833462246019117
:105C7000009029460798B847059001E00E2005904E
:105C800000BF0598D3E6000000280000FFFF0000D9
:105C9000DA2F010070B505460E463146284602F05F
:105CA0005EFE0446002C01D0A07870BD0020FCE709
:105CB0000149087070470000EDDEFF1FFEB5044685
:105CC0000F461646002C0FD0019468460780FEF759
:105CD00029FD0546002D06D1002E04D060893146ED
:105CE00003F08EFA054600E002252846FEBD0000BE
:105CF000F8B505460E4617460C480078FF2813D025
:105D00000A20FEF715FD0446002C0CD0B1202070AF
:105D10000020607020716580E6802781214603485D
:105D20000078FEF70BFD00BFF8BD0000EDDEFF1FA1
:105D300070B504460D4608492046FFF7ABFF0646FE
:105D400002203040002804D029462046FEF7FCFC03
:105D500070BD0120FCE7000002DFFF1F7CB5054697
:105D60000E461446684604712004010E68464171CF
:105D70000020022301AA31460090284600F001F8D5
:105D80007CBDFFB583B00D461E4602A92846FEF72E
:105D9000B1FC01900198002811D06846008902F0FA
:105DA0001FFE0746002F08D00C98F3B20090059A0A
:105DB00001990398B847044600E00E2400E001244E
:105DC000204607B0F0BD0000F8B505460F46164660
:105DD0003946284602F0C3FD0446002C09D1394655
:105DE000054802F0BCFD0446002C01D11120F8BD8D
:105DF0002580A6700020FAE7FFFF000070B504467A
:105E00000025E007C00F002805D0044A07210448F8
:105E1000FFF754FF0546284670BD00001CDBFF1F3E
:105E200060DFFF1FF8B506460C4615460027330015
:105E3000FEF7E8FB0805143C3C1C3C26313C152CC5
:105E40000ADC162200211C48FEF7C4FB2246294624
:105E50001948FEF7B9FB00E0182729E0022C03D10E
:105E600028881649088000E0182721E0082C05D171
:105E7000082229461248FEF7EFF900E0182717E03C
:105E8000012C06D10F492878CA69283103F082FB1A
:105E900000E018270CE0012C06D10A492878CA6BCB
:105EA000483103F077FB00E0182701E0022700BF2C
:105EB00000BF3846F8BD000090E4FF1F52DFFF1F0F
:105EC00056DFFF1F60DFFF1FFFB504464E4F81B056
:105ED0000020386020461D46BF30FEF73BFC4B4893
:105EE00026460078B23680340828A06E32462CD080
:105EF0000121FEF735FC444F3078F863761C3046BC
:105F0000FEF700FA00BA000AF17800020843B8630D
:105F1000361D3046FEF7F6F900BA000AF1780002A5
:105F200008437863361D3046FEF7ECF900BA000AE4
:105F3000F178000208433863039801020298014394
:105F4000F960039F00263F1D0EE00021D1E7A8194C
:105F5000401CFEF7D7F90102A85D01432C48301818
:105F60000160361DF6B23F1F042FF0DA032F04D074
:105F7000022F08D0012F0FD014E0A819FEF7C2F9A4
:105F80000102090A09E0A9194878097800020843C2
:105F90001F497118086003E0A95D1D4830180160B1
:105FA000361DF6B200211A4A02E0B0180160361D13
:105FB000FF2EFADD1448174B43600F2303610123C2
:105FC00003604369002BFCD0436901600020039B00
:105FD00011E0811809682954401CC0B20E0A2E54E1
:105FE000401C0E0CC0B22E54401CC0B2090E2954E5
:105FF000401CC0B21B1F002BEBDCA06E401CA06637
:10600000012005B0F0BD000000000440E511FF1FB5
:1060100000010440080F0000FFB504464D4F81B059
:106020000020386020461D46BF30FEF793FB4A48EB
:1060300026460078B23680340828606E32462BD06F
:106040000021FEF78DFB434F3078F863761C304615
:10605000FEF758F900BA000AF17800020843B86365
:10606000361D3046FEF74EF900BA000AF1780002FC
:1060700008437863361D3046FEF744F900BA000A3B
:10608000F17800020843386303980299000208433C
:10609000F8600026039F0EE00121D2E7A819401CFA
:1060A000FEF730F9A95D000208432C497118086019
:1060B000361DF6B23F1F042FF0DA032F04D0022F53
:1060C00008D0012F0FD014E0A819FEF71BF9010228
:1060D000090A09E0A91948780978000208431F490C
:1060E0007118086003E0A95D1C4830180160361D76
:1060F000F6B20021194A02E0B0180160361DFF2EE9
:10610000FADD0F2313481B0243600F2303610123B1
:1061100003604369002BFCD0016003980023001D3D
:1061200011E099180968E9545B1CDBB20E0AEE54C1
:106130005B1C0E0CDBB2EE545B1CDBB2090EE954A7
:106140005B1CDBB2001F0028EBDC606E401C60664D
:1061500005B0F0BD00000440E511FF1F0001044040
:10616000F0B589B0FEF702FBFE4908600420FEF797
:1061700003FBFEF707FB0446C00712D0FA490020D4
:10618000086072B6FEF704FBF849F94DF94E022893
:106190000BD001287ED0F84F05287CD004287BD076
:1061A000ADE2FEF7FBFA09B0F0BD08780F46012812
:1061B00006D0032804D0022802D005286DD09EE224
:1061C0000720FEF7D9FA08AB07AA06A9EB48FEF7A5
:1061D000EBFAEA493439898E0B074906CA0FE749B9
:1061E0001B0F34390C46403420319446002801D02E
:1061F000032B05D0052B6ED0387801286CD081E2B6
:106200003878012801D00328F9D1D94843695B1CAB
:106210004361DB4B087FDD79A842F0D1487F1D7ACE
:10622000A842ECD1887F5D7AA842E8D1C87F9D7AE8
:10623000A842E4D12078DD7AA842E0D160781D7BC5
:10624000A842DCD1F5680020AD8D2D072DD5DB7B74
:10625000012B01D0032B28D1C3001F1AC94BDD5DD0
:1062600095421DD1FB188D7D5F78BD4218D1CD7D43
:106270009F78BD4214D10D7EDF78BD4210D14D7E96
:106280001F79BD420CD18D7E5F79BD4208D1CD7E94
:106290009B7903E0E5E0E6E02EE2E0E09D4202D0FB
:1062A000401C0828D8DB082817D0B14D686D401C69
:1062B0006865706C002802D0804700289FD0FEF7E8
:1062C00079FA01277770FEF751FAA64909688842E2
:1062D00008D9401A09E02CE0AFE0A548016A491C42
:1062E00001620FE2A84A511A0818F16876230A7968
:1062F000181A801A4A6C096CD2B2C9B2C0B2FEF741
:106300005FFAFEF763FA9848076000207070FEF7A6
:1063100063FAFEF767FAA08C010A9848891C3030AE
:10632000FEF766FA0E20FEF727FAA869401CA8615E
:10633000E8E13F78012F01D0022FD2D1E869401C5B
:10634000E8618F480B7FC0798342CAD18C484B7F6C
:10635000007A8342C5D18A488B7F407A8342C0D17C
:106360008748CB7F807A8342BBD185482378C07A27
:106370008342B6D16078824C237B9842B1D1F068D9
:106380000023808D000726D5E07B022801D003285A
:1063900021D1D800C61A7B48845D944218D13018A8
:1063A0008C7D4678B44213D1CC7D8678B4420FD12F
:1063B0000C7EC678B4420BD14C7E0679B44207D12C
:1063C0008C7E4679B44203D1CC7E8079844202D05F
:1063D0005B1C082BDDDB6D48022F1AD10478644565
:1063E00027D18A7D4478A24223D1CA7D8478A242F3
:1063F0001FD10A7EC478A2421BD14A7E0479A242F0
:1064000017D18A7E4479A24213D1C97E8279914202
:106410000FD1082B0DD0696D0622491C69656146B4
:1064200001705649401C891CFEF7CEF8FEF7E6F9CC
:1064300068E1686A401C686264E15149487BC207B0
:1064400001D0252004E0800701D5262000E0272088
:10645000097D8142ECD93220FEF7D6F952E10720BE
:106460004EE106204CE10878072879D10B20FEF791
:1064700083F94149FF22097825325143444A0020DB
:106480008B185870505443480068002805D0FEF718
:10649000C1F940490978C84005E0FEF7BBF93E491B
:1064A0000968FEF78BF80746E00535D539480068DE
:1064B000002805D0FEF7B4F936490978C84005E050
:1064C000FEF7AEF934490968FEF778F82A4B0090D8
:1064D0001878FF21253148432D4940180279002AB8
:1064E00001D000220271234A7130121D911D06F065
:1064F00085FCF1680098C968381A4118274801607E
:10650000600526D51C49FF22097825325143204ACF
:106510000120891848701CE01748FF2200782532B6
:106520001B4B012150431954296DFF3F491C29651C
:10653000F1680F3F0969C018CA19184920300A606C
:10654000407E410016480818FF300130018D491C7B
:1065500001852046009905F0CFFBFEF767F921E0A1
:10656000CDE000001C12FF1F1812FF1FE511FF1FD6
:106570000C31FF1FDCE1FF1F1512FF1FF82BFF1F5F
:10658000442AFF1F892BFF1F40420F000C12FF1FE0
:106590005C2AFF1F2410FF1F2010FF1F2012FF1F67
:1065A00088EDFF1F61490746087000200872487295
:1065B0008872C8725E48044202D0E86C401CE864ED
:1065C0005C48FF220078253250435B4A57498318C4
:1065D000D81DF930827C06928A1DFF33C07C491C8D
:1065E0001333FEF729F902465248FF21007825317E
:1065F000484351494018C11DF931CA740279002A33
:106600000CD10223069A897C1A4019408A4205D08F
:1066100046494A78002A01D101224A70474949680F
:106620008E220904090E0391125C002A02D0AA6E80
:10663000D219AA662030407E414D40004019C0303A
:10664000C18BC919C183FEF7FDF801463948FF2205
:10665000007825325043384A80182030407E400070
:1066600040198030828A8918818207AA05A904A866
:10667000FEF7EEF82F48FF210078253148432E49D8
:1066800040182030407E694640002A5A097D511842
:1066900029524019403069464289097C511841818C
:1066A000600705D50398874202D23846FEF7D6F830
:1066B000FEF7DAF81D480021224B81701A78012A72
:1066C0000CD1002F0AD0204A1469002C03D0127D6F
:1066D000D243920702D0012282701970807900287B
:1066E00001D0FEF7C7F8FEF7CBF8F078002809D004
:1066F0003189FDF7C3FF05E00878082809D0052097
:10670000FEF73AF8FEF74AF862B60320FEF734F8CF
:1067100049E53878FF212531484307490B4A40189D
:10672000911D713006F06AFB0920E9E78031FF1FF7
:10673000020800001512FF1F5C2AFF1F0010034013
:1067400088EDFF1F1312FF1F442FFF1FE0E1FF1F03
:10675000F8B58E4F079CBE1D9C460D46002A1FD0E3
:10676000012A05D0032A0ED0022A0CD0042A59D1BE
:10677000002C57D00699002901D0012952D1032AB3
:1067800001D0022A0AD10146814BA039994249D24F
:10679000A02D47D3012189038D4243D8002A0BD174
:1067A0007B4B01462039803399423BD2202D39D38F
:1067B000012189038D4235D8854233D361460029B2
:1067C00001D001292ED10999002905D0012903D032
:1067D000022901D0032925D10899490722D06D4B00
:1067E0009988012920D09A7308994907490F59734C
:1067F0001CD06849099BCB736346002B1BD0012337
:106800008B713378CB7173780B72B3784B72F378EA
:106810008B723379CB7273790B73012A19D0042AE6
:1068200028D036E01220F8BD0C20F8BD59480721C9
:1068300041733020F8BD00238B713B78CB717B789E
:106840000B72BB784B72FB788B723B79CB727B7986
:10685000E2E75148069B03702378437063788370A6
:10686000A378C370E37803712379437163798371EB
:1068700002200EE0484B069E1E7026785E706678F9
:106880009E70A678DE70E6781E7126795E71647956
:106890009C7148801300FDF7B5FE0504060A080642
:1068A0000B00002504E0012502E0022500E006259A
:1068B0003A4E8A79B0880C460009000128434023EB
:1068C000910198430143D001802291430843B08055
:1068D0000622E11DB01DFDF777FE37464037B88C24
:1068E000A179000900014022001D90438901014364
:1068F000B98430460622E11D6630FDF765FEA07CB6
:106900000321000249024118B2883F20000282435D
:10691000114389B2B180012D12D18143032080023D
:106920000818B0801C49BB8C087880229343C001B2
:106930001843B884304606220C30491CFDF744FE4B
:106940001748017808291AD0072918D0A17B0B0015
:10695000FDF758FE050408100C081700012101700E
:106960001F200AE002210170202006E004210170AE
:10697000222002E0032101702120FDF7FDFE00200E
:10698000F8BD002101701E20F7E70000F911FF1F7C
:10699000613F0000442AFF1F0C12FF1FC42BFF1F82
:1069A000E511FF1F10B50E480E4B0278FF20253071
:1069B00042430021D018FF24C1701334215499544C
:1069C00001230246037160329371137420238161A5
:1069D00019548E23195451740521818110BD000072
:1069E0001512FF1F5C2AFF1FFEB572B65548C0681E
:1069F000476D866D082F01D8002F00D10427082E7F
:106A000001D8002E00D104264F48504D816C504CC7
:106A1000491C81642878FF21253148430019203022
:106A2000407E41004B480818FF304130418E491CE0
:106A30004186FDF72BFFFDF7CFFEFDF7D3FE28784B
:106A4000FF21253148430019806AFDF725FF28788A
:106A5000FF21253148430019406AFDF723FF2878BC
:106A6000FF212531484300192030407EFDF720FFEB
:106A70002878FF212531484300192030407EFDF75A
:106A80001DFF2978FF202530414308190279002A8B
:106A90000BD02E21095C304A40695143400009184F
:106AA0002848C068C06F081815E0615C00292549B6
:106AB00009D0CA684069096C136940185B0040003E
:106AC0001818D16C06E0C9684069CA6840005200D5
:106AD000C96C10184018FDF7F7FE1A4DE868806C75
:106AE000FDF7F8FEE868416CCAB2016C808FC9B24C
:106AF000C0B2FDF765FE0420FDF7F2FE0720FDF7AA
:106B0000F5FE02A93846FDF7F7FE69460989C2B2CB
:106B100001250E48019100950078FF212531484359
:106B20000019FF300130817CF3B23020FDF7EAFE1E
:106B3000FDF74CFE0948056062B61420FDF71CFE07
:106B4000FEBD0000DCE1FF1F0C31FF1F1512FF1F0F
:106B50005C2AFF1F88EDFF1F710200001812FF1F43
:106B6000002805DBC206D20E01219140014A1160C6
:106B70007047000000E100E010B5002819DB1A4A58
:106B800003231B02D21883089B00D2588307DC0E14
:106B9000FF23A3409A438B071B0E8407E40EA340F8
:106BA0001A43114B032424021B198408A4001A5110
:106BB00018E00E4A03071B0F083B9B089B00D258A6
:106BC0008307DC0EFF23A3409A438B071B0E840729
:106BD000E40EA3401A43054B0407240F083CA40805
:106BE000A4001A5110BD000000E100E01CED00E01F
:106BF00010B5002819DB1A4A03231B02D218830898
:106C00009B00D2588307DC0EFF23A3409A438B07D7
:106C10001B0E8407E40EA3401A43114B03242402E5
:106C20001B198408A4001A5118E00E4A03071B0F11
:106C3000083B9B089B00D2588307DC0EFF23A34030
:106C40009A438B071B0E8407E40EA3401A43054B9F
:106C50000407240F083CA408A4001A5110BD00002A
:106C600000E100E01CED00E010B5002819DB1A4A35
:106C700003231B02D21883089B00D2588307DC0E23
:106C8000FF23A3409A438B071B0E8407E40EA34007
:106C90001A43114B032424021B198408A4001A511F
:106CA00018E00E4A03071B0F083B9B089B00D258B5
:106CB0008307DC0EFF23A3409A438B071B0E840738
:106CC000E40EA3401A43054B0407240F083CA40814
:106CD000A4001A5110BD000000E100E01CED00E02E
:106CE00010B5002819DB1A4A03231B02D2188308A7
:106CF0009B00D2588307DC0EFF23A3409A438B07E7
:106D00001B0E8407E40EA3401A43114B03242402F4
:106D10001B198408A4001A5118E00E4A03071B0F20
:106D2000083B9B089B00D2588307DC0EFF23A3403F
:106D30009A438B071B0E8407E40EA3401A43054BAE
:106D40000407240F083CA408A4001A5110BD000039
:106D500000E100E01CED00E00148024908607047D6
:106D600040787D01D8E1FF1F10B572B61948C068A0
:106D7000C00703D01748001FFDF7CAFD154C403C63
:106D8000A06BC00707D013481838FDF7C1FD1248A3
:106D90000168491C0160606AC0070CD0E16A0F48B5
:106DA000C162A16941630B482C38FDF7B1FD0C4865
:106DB0000168491C01602069C00707D02046FDF723
:106DC000A7FD2046FDF7AAFDFDF7AEFD62B6002047
:106DD00010BD0000401002402C10FF1FDCE1FF1F1F
:106DE0003010FF1FF8B50646002700F0E1FC05460D
:106DF0000AE000F0DDFC0446AC4201D3601B02E077
:106E00000348401B00190746B742F2D3F8BD000003
:106E1000FFFFFF001CB5044621463FA005F098FB8C
:106E2000052C04D141494248FEF710F971E0414870
:106E3000007805282CD1052C2AD0012001900121B1
:106E40003A48008806F002FD042C0CD120210820CD
:106E5000FDF7D2FB20210920FDF7CEFB36490020AB
:106E6000FDF7CAFB0DE0192189010820FDF7C4FBDD
:106E7000192189010920FDF7BFFB00210846FDF714
:106E8000BBFB01AA01212A480938FEF7EFFA40E0CE
:106E900028480078022825D1032C23D127480078E0
:106EA000002803D000202549087032E00820FDF7B3
:106EB000AFFB20282DD10120019019218901082044
:106EC000FDF79AFB192189010920FDF795FB0021A7
:106ED0000846FDF791FB01AA012115480938FEF784
:106EE000C5FA16E0012C14D16946C1208000FEF7D6
:106EF000ADF868464179C17101798171C1784171FC
:106F000000210171C1706A4608210020FDF7BEFF13
:106F100000BF084804701CBD5772697374476170E4
:106F2000537461746543423A2025640002E1FF1FF7
:106F30000E030000D9E0FF1F3075000004E1FF1FC1
:106F40000FB410B504A9074B02AA039800F020F86B
:106F5000044602A9002000F001F9204610BC08BC3C
:106F600004B018475D71FF1F004870477CE2FF1FA7
:106F700002E008C8121F08C1002AFAD17047704702
:106F8000002001E001C1121F002AFBD17047000060
:106F9000FFB58DB00F460546002606E025280AD02D
:106FA000109A0F9990476D1C761C28780028F5D10F
:106FB000304611B0F0BD00240121674A009400E082
:106FC00004436D1C2B780846203B98401042F7D1B3
:106FD00028782E2815D10420044368786D1C2A28AF
:106FE0000AD101CF6D1C00900BE000990A22514399
:106FF000303940186D1C0090287801463039092935
:10700000F3D92878692843D006DC0028D0D063283B
:107010000BD0642804D13BE073280FD075284CD0E6
:10702000109A0F999047761C94E038786946087258
:107030000020487202A80190012003E03868019006
:107040000020C0433F1D61070CD5002400E0641CF4
:1070500000998C420FDA8442F9DB0199095D00291D
:10706000F5D108E0002400E0641C8442FCDB0199B7
:10707000095D0029F8D1361907E0019801990078D7
:10708000491C0191109A0F999047641EF5D261E056
:107090000A20019001CF002802DA40422D2102E0AF
:1070A000210504D52B216A461172012103E0E10775
:1070B00001D02021F7E70C9104E00A20019001CFD4
:1070C00000210C910BA90B9108E00199FDF776FACC
:1070D0000A460B993032491E0B910A700028F4D1F0
:1070E0000B9803A9081A20300190600701D5009879
:1070F00001E0012000900199884203DD01460198DA
:10710000081A00E000200024009006E002A8109A6F
:10711000005D0F999047641C761C0C988442F5DB47
:1071200004E0109A30200F999047761C0099481E71
:1071300000900029F5DC08E00B980B990078491CB9
:107140000B91109A0F999047761C0199481E019057
:107150000029F1DC6D1C28E7092801000A68531C8E
:107160000B601070704710B502211D20FFF7B8FDAD
:1071700010BD000030B58BB004464548047045A0F2
:1071800005F0E6F901210A910721099100210891F2
:107190000791C8210691C9000591012104917D2123
:1071A000C900039140A103C90291019001AA0621DF
:1071B0003F48FEF75BF909AA0121C3208000FEF7D2
:1071C00055F90AAA01213A48801FFEF74FF908AA8B
:1071D00002213748401FFEF749F9364A0B2161204A
:1071E000C000FEF743F9344A07213148001FFEF77B
:1071F0003DF907AA012131200001FEF737F906AA5F
:1072000002212B48801DFEF731F905AA02212848EA
:10721000C01DFEF72BF904AA022125480830FEF70D
:1072200025F903AA0221C5208000FEF71FF9234A91
:1072300015210020FEF7F6FDFF2591352946062091
:10724000FDF7DAF929460720FDF7D6F92946082087
:10725000FDF7D2F929460920FDF7CEF90020C043F9
:10726000FEF7CCFD0020C043FEF702FBFDF702FE57
:1072700005F01CF9124806F0CDFA00F0F3F80121F0
:1072800003480078FDF7FAF903F0D6FC0BB030BDE7
:10729000D8E0FF1F0A0A0A61707057726973744957
:1072A0006E69740A0A0A0000010203040506000060
:1072B0000B030000DAE0FF1FE5E0FF1FECE0FF1F1B
:1072C00001D8FF1F70B506460C460120C0032040C0
:1072D000002810D01B480078FDF7A6F9051E05D040
:1072E000284600F035F82846FDF7A4F9204601218C
:1072F000C903484070BDE007C00F002809D01248FC
:10730000FEF75EFA1148FDF753FE20460121484082
:10731000F0E704202040002805D000F005F92046C1
:1073200004214840E6E7012040022040002806D022
:1073300003F068FD2046012149024840DAE70020B9
:10734000D8E70000D8E0FF1F08E1FF1FD8DBFF1FD0
:1073500070470000FEB50446002719481922920123
:107360000023056841682846FCF7C2FE009001A88A
:1073700006F00CF8124880680199884203D9114937
:1073800000984018009010490198FDF717F90099EE
:10739000401800906846FCF7EDFF0746387C401C1B
:1073A0002071B88A09494018E080387BE070387A4B
:1073B000A07038796070387820700020FEBD000021
:1073C00078EDFF1FC2F52800400600006C070000A2
:1073D000F1B584B001A805F0D9FF0498FCF7F6FEDA
:1073E00000260546294614A005F0B2F819218901A6
:1073F00000202C4637460391029020463946029BD6
:10740000039AFCF7A5FE05460E4631460022019878
:10741000281A9141094A03C208490198886008A0C6
:1074200005F096F81021054805F0A4F90CA005F028
:107430008FF805B0F0BD00002578000078EDFF1F43
:107440006170705F6461746574696D655F61646AC1
:107450007573745F626173656C696E653A0A0000EA
:107460000A00000010B500F0EDF8024800F03CFE04
:1074700010BD00003075000003B58FB02C2104A8AA
:10748000FCF703FF10A80078401E089010A8408861
:107490001649401A099008A8C07F079008A8807F65
:1074A000069008A8407F059008A8007F049010A0CF
:1074B00005F04EF808A8017F427F807F019202917B
:1074C000009008A8C37F10A8027841880DA005F09D
:1074D0003FF804A8FFF77CFF1021114805F04AF996
:1074E00010A005F035F8002011B000BD6C070000B9
:1074F0000A6170705F6461746574696D655F73655E
:10750000743A0A0054696D652069732025642D253D
:10751000642D25642C2025643A25643A25640A00EC
:1075200078EDFF1F0A00000008B5002000906846B3
:1075300005F02CFF0B4880680099884208D909485B
:10754000016840680122091C5041064A11605060E0
:10755000044900988860044800F0C6FD00F07EFCF5
:1075600008BD000078EDFF1F3075000010B5FDF775
:10757000E1F90120FDF7E4F9FDF7E8F9002010BD7D
:10758000F0B500248E464A1E12E0714600230D1B02
:107590006D1E0AE09E0031188C46875949688F425B
:1075A00002D9815161464F605B1C9D42F2D8641C38
:1075B0009442EAD3F0BD000010B505231B221F2121
:1075C0000D4805F0C7FE0C4C0C4B08340722102167
:1075D000204605F0BFFE062201231146204605F095
:1075E000B9FE05481438416A012211434162C1695C
:1075F000034A1143C16110BD14F00040FB030000B9
:1076000004003E0010B50020054CFF212218401C4C
:1076100051704028FADB05F08FFA207010BD000091
:107620006CEFFF1F10B50020054CFF212218401CF5
:1076300051700628FADB05F09DFA207010BD00009D
:107640006FE2FF1F10B58EB003A801F08FFE049A01
:10765000039905980192029100900798421C064CEC
:107660000898011905A0069B04F072FF03A8FFF714
:10767000AFFE0EB010BD00006C07000063686563CC
:107680006B5F64656661756C745F64617465746971
:107690006D650A54696D652069732025642D256424
:1076A0002D25642C2025643A25643A2564000000C9
:1076B00010B502460B460021002000BF03E0545CD9
:1076C00060404C1CE1B29942F9DB10BDF0B5864632
:1076D000080CFF268446002388B237461C4619460C
:1076E00001228A4005461540CD402C19A4B2FF2F37
:1076F00002D1012C00D18FB265462A40CA40D2186F
:1077000093B2FF2E02D1012B00D18EB2491C102959
:10771000E6DB012C02D0102C08D009E0012B07D1A8
:107720003001C019714608700220F0BD102B01D045
:107730000320F0BD0120F0BD10B528210148FCF761
:10774000A4FD10BD64E8FF1F032800DA7047012183
:107750008907896801228240914301229207916042
:1077600000BFF3E7032800DA704701218907896821
:1077700001228240114301229207916000BFF3E78A
:1077800001480068704700001410FF1F012189079D
:10779000096801228240914301229207116011463B
:1077A000096801228240114301229207116070474B
:1077B0000449886A0202886A120A0002000A90429A
:1077C000F7D1704700F0004030B585B004460D4653
:1077D00003A8FFF7BFFD217868460170617841700A
:1077E000408A7D210901401AC1B268468170017C3E
:1077F000C170C17B0171817B4171417B8171017BD2
:10780000C1710821FFF754FF6946087209216846D3
:1078100000F04CF805B030BDF8B504460F462646DA
:10782000B178F07803F0F6F90546002D00D100E0BC
:107830000A200546EAB23946204600F04FF8F8BD66
:1078400070B504460D4600222946204600F046F851
:1078500070BD10B586B00446217868460171617824
:10786000417101218171002101A8C17002210171C2
:10787000012168464172002101A8817101216846F9
:10788000C172002101A8017203A90131C120800049
:10789000FDF7DCFB132101A8FFF70AFF6946C87555
:1078A000142101A800F002F806B010BD70B586B032
:1078B00006460D4618216846FCF7E7FC69468D70C0
:1078C000002404E0315D00A803300155641CAC4283
:1078D000F8DB684605F0D4FF06B070BD70B588B01F
:1078E00004460D461646207869460871012D01DDD3
:1078F000607800E00020694648716846867103217F
:1079000001A8FFF7D5FE01466846C171182102A8FB
:10791000FCF7BBFC0421684681720179C172417990
:1079200002A801716846817902A841716846C1794F
:1079300002A8817105F0A4FF08B070BDF0B587B052
:1079400004460F460026254605A8FFF703FDA87844
:107950007D210901411868464182E978017429793D
:10796000C17369798173A9794173E9790173017BE5
:10797000427B807B0192029100906846C37B027C2F
:10798000418A07A004F0E4FD04990398FFF774FD11
:107990000646F2B239462046FFF7A0FF07B0F0BD19
:1079A000636D645F7365745F74696D653A20256407
:1079B0002C25642C25642C25642C252C25640A0098
:1079C00010B504460120FFF70DFA1149CB6A1148A2
:1079D000C26A934202D2C96A511A00E000210163CF
:1079E000FFF7E6FE0C490123C86201190A46083276
:1079F0001B069A4203D309310902090A641A0119C4
:107A00000648C162416A2922D2031143416210BD76
:107A100000100240DCE1FF1F0012FF1F00F00040D9
:107A2000F8B506460D4617462A46314607A004F02B
:107A30008FFD002407E0A0003A5821460DA004F075
:107A400087FD601CC4B2AC42F5DBF8BD636D6420F9
:107A5000696420697320307825782C207061726108
:107A60006D65746572206E756D2069732025640ADA
:107A700000000000706172616D202564203A2025AD
:107A8000730A00007FB505460C460E4B0FCB6E46C1
:107A90000FC6002C02D1062004B070BD0A4A0B4963
:107AA000222002F05DFC68460FC802F055FE08482F
:107AB0004560002007490870488005488460002020
:107AC000EAE7000014DCFF1F017EFF1FED7DFF1FB2
:107AD00068EDFF1F68E9FF1FF0B58DB000200C9026
:107AE000614F012080023818406803903D1D00203E
:107AF00002900190009001240BE0601E285C612838
:107B000005D1285D742802D1601C84B204E0601C99
:107B100084B27888A042F0DC00BF7888A04204D10B
:107B200052A004F015FD0DB0F0BD2819029014E02C
:107B3000285D202802D0285D002802D10020285589
:107B40000EE0285D202802DB285D7D2803DD50A0A3
:107B500004F0FEFCE7E7601C84B27888A042E7DC12
:107B600000BF0298FCF7D8FD002803D153A004F011
:107B7000EFFCD8E700261EE0F1000398405A0028E9
:107B800005D0F100039808184068002803D152A0DE
:107B900004F0DEFCC7E7F200039810184168029871
:107BA000FCF77EFB002804D1F1000398405A0C90AA
:107BB00003E0701C86B2202EDEDB00BF0C9800288C
:107BC00003D14FA004F0C4FCADE7601C84B22819B7
:107BD00001903BE0285D202818D10020285501980D
:107BE000FCF79AFD002800D133E00099890004AA2F
:107BF000019850500098401CC0B20090009808288E
:107C000000DB26E02819401C01901DE0285D0028BB
:107C10000FD10198FCF780FD002800D119E00099F0
:107C2000890004AA019850500098401CC0B20090EE
:107C30000FE0285D202802DB285D7D2803DD3BA0C6
:107C400004F086FC6FE700BF601C84B27888A04215
:107C5000C0DC00BF01208002381804AA83680099A4
:107C60000C98984700BF5EE768E9FF1F5061727388
:107C7000652066696C65642C20646964206E6F748D
:107C800020666F756E6420226174220A0000000075
:107C90005061727365206661696C65642C20636D48
:107CA000642068617320696C6C6567616C2063682F
:107CB000617261637465720A000000005061727342
:107CC00065206661696C65642C20636D642069734E
:107CD00020656D7074790A00506172736520666169
:107CE000696C65642C20636D64206973206E6F7409
:107CF000206D6174636820636D646C6973740A003D
:107D00005061727365206661696C65642C20636DD7
:107D100064206973206E6F74206D617463682063E2
:107D20006D646C6973745F310A0000005061727396
:107D300065206661696C65642C20706172616D6597
:107D40007465722068617320696C6C6567616C2072
:107D50006368617261637465720A0000F8B5064673
:107D6000214C201D00903078012802D0022838D103
:107D700000E000BF77682078002804D1222002F0BC
:107D8000BBFA012020702078012826D1002520E0B0
:107D9000785D0D2802D0785D0A2811D10021628813
:107DA000009881546088401C608002202070FFF79A
:107DB00093FE002020706080222002F01DFB0BE06B
:107DC000795D6288009881546088401C6080681CDE
:107DD000C5B2307AA842DBDC02E0222002F00CFBC4
:107DE00000E000BF00BFF8BD68E9FF1F10B500212B
:107DF0000A2001F059FF01210A2002F059F810BDB4
:107E000010B500210E2002F08DF801210E2002F0A5
:107E100089F800210E2002F085F8002409E00A20EC
:107E200002F018F8002803D1222002F065FA02E0DF
:107E3000641C142CF3DB00BF00210E2002F072F84A
:107E400001210E2002F06EF800210E2002F06AF8E7
:107E500000200149087010BD68E9FF1F00B585B01A
:107E600003A8FFF777FA6846017B427B807B01928B
:107E7000029100906846C37B027C418A02A004F014
:107E800067FB05B000BD000054696D652069732073
:107E900025642D25642D25642C2025643A25643A1B
:107EA00025640A00FFB583B00F461D460D9E0C9C4D
:107EB00000200290786800787968497809024018B3
:107EC00080B20190714A0198811A904268D00ADC10
:107ED0006F49401800280FD0012822D0022835D041
:107EE000032872D147E0012973D002296FD00329FA
:107EF0006ED02929F5D1ABE0082C02D307200290DF
:107F00000EE00820001BB04201D9304601E00820F5
:107F1000001B28702A785F4801190598FCF754FB6C
:107F2000B0E00C2C02D3072002900EE00C20001BC6
:107F3000B04201D9304601E00C20001B28702A789D
:107F4000554801190598FCF73FFB9BE00D2C02D327
:107F5000072002900EE00D20001BB04201D93046F0
:107F600001E00D20001B28702A784C480119059863
:107F7000FCF72AFB86E0112C02D3072002900EE0CA
:107F80001120001BB04201D9304601E01120001B36
:107F900028702A78424801190598FCF715FB71E012
:107FA000112C02D3072002900EE01120001BB042DA
:107FB00001D9304601E01120001B28702A78394889
:107FC00001190598FCF700FB5CE056E001E015E0C4
:107FD00029E0112C02D3072002900EE01120001B93
:107FE000B04201D9304601E01120001B28702A78E8
:107FF0002D4801190598FCF7E7FA43E0112C02D34C
:10800000072002900EE01120001BB04201D930463B
:1080100001E01120001B28702A78244801190598D6
:10802000FCF7D2FA2EE00E2C02D3072002900EE0CD
:108030000E20001BB04201D9304601E00E20001B8B
:1080400028702A781A4801190598FCF7BDFA19E03A
:10805000072C02D3072002900EE00720001BB0423D
:1080600001D9304601E00720001B28702A7811480A
:1080700001190598FCF7A8FA04E0002028700A20EE
:10808000029000BF00BF029807B0F0BD272A000091
:10809000DDD5FFFFA5DDFF1F80DAFF1F8DDAFF1F93
:1080A0009BDAFF1FADDAFF1FBFDAFF1FD1DAFF1F18
:1080B000E3DAFF1FB5DDFF1F70B504462646094809
:1080C000855DFF2D00D170BD0021284601F0CAFD5D
:1080D0000021284601F05AFE0021284601F08EFEBC
:1080E00000BFF0E708DCFF1F10B50446224604215C
:1080F00002480078FCF7B0FA10BD0000D8E0FF1F7E
:10810000F8B5414A0446D068808DC00764D03F4826
:10811000406A3F4D8104890CA94202D9684208187F
:1081200000E0681AC82819D32B2601233601DB0288
:10813000B04207D2C80041028601891BC6008919D6
:10814000081A09E0C80041028601891B4601891B03
:10815000C600891B40000818C018010B2C482D4B85
:10816000C430814200D9196819607D26906AF600F2
:10817000B0420AD2284EFF278E198A37BE4200D35A
:10818000116A401C1960906209E0106A060A3718EB
:108190008F4203D3861B8E4200D808461860106AAF
:1081A000C100091A18680918C9081162C108A84253
:1081B0000AD9194AC43A80186043C00801E0401A3D
:1081C000641E8842FBD807E0281A6043C00801E01B
:1081D000401A641C8842FBD80C4806220023114632
:1081E000243805F0B7F82046FCF7B6FB02F0E2F8B9
:1081F00002F054F80020FCF7BFFA0120FCF7B2FBB4
:108200000120FCF7B5FBF8BDDCE1FF1F40F00040AA
:10821000420F00003412FF1F82F1FFFFFFB587B04D
:108220000C4616461F46082F05D120460621484316
:108230002230C5B204E02046062148432130C5B2B1
:108240001C2200216846FCF7C5F96A461C21284615
:1082500004F08AF800280ED16846807E07280ADBE1
:108260006846807E102806DCF107C90F6A46109B1D
:108270000798FCF783FB0BB0F0BD000070B5054616
:1082800000240DE00E216143074A88180622294682
:10829000FCF77AFB002801D0204670BD601CC4B2F8
:1082A0000A2CEFDB0A20F8E7F6E4FF1F70B505465D
:1082B00000240EE00E216143084A8918881D062219
:1082C0002946FCF761FB002801D0204670BD601CE8
:1082D000C4B20A2CEEDB0A20F8E70000F6E4FF1F28
:1082E0007FB504460D460A2C01DA002D02D102208A
:1082F00004B070BD2146062251432031C8B26A46FF
:108300000E2104F031F80646002E04D106226946FB
:108310002846FCF759F93046EAE71FB504462146DE
:10832000062251432031C8B26A460E2104F01CF8DF
:10833000002804D168468089C0B204B010BD002076
:10834000FBE7014600200DE082008A5AD2438300F9
:10835000CA52820052189278D24383005B189A70F6
:10836000421CD0B20428EFDB70477FB505460024DD
:108370001CE02146062251432331C8B26A4610212F
:1083800003F0F2FF00280FD11022FF216846FCF70E
:1083900027F9002808D129466846FCF7FBFA00288F
:1083A00002D1204604B070BD601CC4B20A2CE0DBD0
:1083B0000A20F7E770B5054600240A48007800282F
:1083C00001D0012000E00020044307480078002885
:1083D00001D0042000E00020044321462846FCF799
:1083E000DFFA70BD3FE0FF1F3CE0FF1F08B50E48FD
:1083F0000078002815D0012802D0022810D10CE006
:10840000012000900948038809480288094801882A
:1084100009480088FCF7EAFF04E0FDF7E5F901E010
:1084200000BF00BF00BF08BD2CE0FF1F24E0FF1FFE
:1084300022E0FF1F20E0FF1F1EE0FF1FF8B50446EB
:108440000026A0780300FCF7DDF80805FE214A4B62
:108450008FE3FDFE25466F78002F10D10622E91C20
:10846000A748FCF7B1F80120A6490870A64BA74819
:1084700002780121A6480078FCF706F90746002F8C
:1084800002D007209F490870012625E1254668781B
:1084900000281CD1E878002809D09E4B9E4802781D
:1084A00000219B480078FCF7EFF868700FE09548D2
:1084B000007802280BD0012195480078FCF7EAF8F3
:1084C000002804D1012192480078FCF7D7F8687899
:1084D000002803D007208B4908700126FCE000BF6C
:1084E0002546687800283AD1A07803280BD1854822
:1084F0000078052803D106208249087032E0022066
:10850000804908702EE08548008800280BD08448F8
:10851000007800280AD08148028801217C48007830
:10852000FCF79AF802E000207D4908707548007851
:10853000062803D105207349087013E071480078BC
:10854000042808D10120764908700121704800787C
:10855000FCF794F806E003206A49087002E007205F
:10856000684908700126B7E025466878002840D1A0
:108570000622291D6B48FCF727F868896A4908809C
:10858000A8896A490880E8896949088005205D4909
:10859000087068480088002806D0664802880221D2
:1085A0005B480078FCF758F8A88963490880E88997
:1085B00062490880288A6249088062480078012858
:1085C0000DD11F20FCF724F807467D20C00078431A
:1085D000024604214E480078FCF73EF800BF6A8945
:1085E000E8780423291DFCF765FC00204C4908703D
:1085F0000CE06878312806D1002049490870032032
:108600004049087002E007203E490870012663E0F7
:108610002546062200214348FBF7DCFF002046499F
:108620000880464908804649088004213848007877
:10863000FCF718F8082136480078FCF713F8A879F9
:10864000082801E01FE046E003D104202D4908700E
:1086500002E003202B4908700126314800780028E9
:1086600004D02B480078FCF703F807E001202C49E0
:108670000870012126480078FCF700F80020C0436C
:108680002949088028E02546082121480078FBF781
:10869000E9FF687800281DD1E888274908802889E3
:1086A00026490880688926490880042118480078EE
:1086B000FBF7F0FF00280DD123480068002809D0FF
:1086C0002148006803681E4802881C4801881A482F
:1086D0000088984700E000BF00BF012E0ED11B4864
:1086E000006800280AD0194800680068002805D0F2
:1086F000164800680168034800788847F8BD000004
:10870000D8DFFF1FD1DFFF1FE3DFFF1FE2DFFF1F07
:10871000D0DFFF1FC6E4FF1F02E0FF1FE0DFFF1FE7
:10872000DEDFFF1F16E0FF1F0EE0FF1F10E0FF1F40
:1087300012E0FF1F14E0FF1F26E0FF1F28E0FF1FCD
:108740002AE0FF1F1CE0FF1F34E0FF1F30E0FF1F87
:10875000F8B504462078912804D0A22828D0D02843
:1087600048D121E060780E281DD12546A8882349EC
:10877000884217D1A868C07846B2214800780528F9
:108780000FD17F2E0DD01F480068002809D01D484A
:1087900000684068002804D01A48006841683046E4
:1087A000884700BF00BF26E02046FFF747FE22E0D3
:1087B0002546687913281CD12E46083630880128B2
:1087C0000BD111480078022807D108210F48007802
:1087D000FBF748FFFDF708F80AE00520FBF718FF54
:1087E00007463A46082109480078FBF735FF00BFE5
:1087F00000BF00E000BF00BFF8BD0000051400008E
:10880000D1DFFF1F30E0FF1F2CE0FF1FD0DFFF1F75
:108810001CB506480649074B002200910190064806
:10882000017806480078FCF7F5FF1CBDD4DFFF1F78
:10883000B6E4FF1FA6E4FF1FD2DFFF1FD0DFFF1F3C
:108840007CB504461E4800881E490988884211DB11
:108850001B4800881C49098888420BDC1B4800889B
:108860001B490988884205D11A4800881A49098895
:10887000884223D00520FBF7CBFE0546114801882E
:108880006846018010480188684641801048018888
:1088900068468180104801886846C1800F48027888
:1088A00069460F480088FCF781F80E4804702A4694
:1088B00008210A480078FBF7CFFE00BF7CBD00000E
:1088C00026E0FF1F1EE0FF1F20E0FF1F28E0FF1F24
:1088D00022E0FF1F2AE0FF1F24E0FF1FD0DFFF1F61
:1088E0000EE0FF1F2CE0FF1FF8B506460F4630468E
:1088F00000F046F80446002C06D1114800F040F87C
:108900000446002C00D02680002C17D0002511E052
:10891000182068436168085A002809D11821694362
:108920006268501818223946FBF74EFE0020F8BD49
:10893000681CC5B2034800788542E9DB0920F6E7E8
:10894000FFFF0000F8DEFF1F70B50546284600F067
:1089500037F80446002C00D170BDA068FCE7034640
:108960000A46002108E08800105A984202D1880087
:1089700080187047481CC1B20229F4DB0020F8E7D8
:108980000246002109E0C800064B185A904202D165
:10899000C800C0187047481CC1B20129F3DB002091
:1089A000F8E70000F0DEFF1F70B50546284600F02E
:1089B00007F80446002C00D170BD2068FCE70000D9
:1089C00002460648016805E08888904201D188681F
:1089D000704709680029F7D10020F9E7FCDEFF1F86
:1089E00070B505462846FFF7EBFF0446002C00D182
:1089F00070BD6068FCE70000F3B581B00C46012C47
:108A000007D0022C29D101210198FBF7D5FF0028BE
:108A100023D10198FFF7B4FF0546002D18D000269A
:108A20000EE01820704369680F183888002800D1BC
:108A30000AE0182200213846FBF7CCFD701CC6B2B4
:108A4000064800788642ECDB00BF0020C043288047
:108A500003490198FCF74CFF00BFFEBDF8DEFF1F85
:108A600002DFFF1F70B50446044D17202880608880
:108A70002946FBF7A7FF002070BD000076E4FF1F2A
:108A8000F3B585B00546284608300490002768886D
:108A9000FFF776FF0646002E35D00020039029E030
:108AA00071681822039850430C182088002800D1C0
:108AB00025E004980078012811D16088009023797E
:108AC00021886888621D0290FDF75BF90746002F38
:108AD00005D0002104980170218806980180182291
:108AE00000212046FBF776FD002020800398401CE3
:108AF000C0B203900849097803988842D0DB00BFD0
:108B00000020C0433080002F02D16888FBF760FF4F
:108B1000384607B0F0BD0000F8DEFF1FF3B585B0A2
:108B200007463D460835354C162200212046FBF706
:108B300051FD04A800902B79698828886A1D03904C
:108B4000FBF74CFF064645E0102000212C4A00921E
:108B50000191029078882B4B69460A8A3146FCF7CE
:108B600047FF002812D1E8792549097888420DD1BC
:108B700023480278234928460830FBF705FF0028E0
:108B800004D0718920788200A01C8152698803ABCF
:108B90006846028A3046FBF7B3FD0646207881001E
:108BA000A01C405A002814D0002E09D068468189A4
:108BB0002278501C20709200A01C1018418008E000
:108BC0000021C9432278501C20709200A01C10186C
:108BD000418000BF002E02D020780528B4DB207829
:108BE000002806DD78882146FBF7FEFE002007B04E
:108BF000F0BD2988069801800A20F8E776E4FF1F77
:108C000000DFFF1F60E4FF1FF8B50546002000905D
:108C100028790E2833D00CDC08281ED004DC02286A
:108C200010D0062849D112E00A281CD00C2844D1C3
:108C30001FE0102829D012282DD0162831D018284E
:108C40003BD134E02846FFF70DFF044637E0694684
:108C50002846FFF763FF044631E06946284600F0E6
:108C60005FF904462BE06946284600F051FA0446B5
:108C700025E06946284600F075F804461FE069467D
:108C8000284600F0E1F9044619E06946284600F05C
:108C900099F8044613E06946284600F06BFA04464A
:108CA0000DE06946284600F023F8044607E06946CF
:108CB0002846FFF7E5FE044601E0002400BF00BFA0
:108CC000002C0ED0687814280BD0084E287930700C
:108CD000684600887080347168883146FBF78AFEE8
:108CE00000BF2846FBF78CFEF8BD000076E4FF1FAE
:108CF000F3B583B00446264608360025308802A91D
:108D0000FBF7F8FC0746002F23D0387A20210840D3
:108D1000002810D068460089FFF716FE01900198E0
:108D2000002806D0608812223946019B98470546E4
:108D300000E00E2500BF002D0CD160883146FFF702
:108D4000D3FD0546002D05D160883146FBF75EFE58
:108D500000E00125002D02D03188049801802846CA
:108D600005B0F0BDF3B587B005462E46083630880D
:108D700005A9FBF7BFFC06900698002816D0104FF7
:108D80001621708800970291019068887B1C0490DE
:108D90006846828A06990498FCF72AFE0446002C4D
:108DA00003D168883946FBF737FE00E00124002C28
:108DB00002D0318808980180204609B0F0BD00003B
:108DC00076E4FF1FF3B587B0079807460837514C84
:108DD00000250020059006A800903B797988388806
:108DE0007A1D0490FBF7FAFD064677E0317A079A80
:108DF0005088FBF717FE05900598002803D071896D
:108E0000089801806CE011200021434A00920191F2
:108E1000029007984088414B03906846028B314688
:108E20000398FCF7E5FD05900598002803D07189AB
:108E30000898018054E0002D04D137480078001DC7
:108E400060700CE0617834480078001D814200D0E9
:108E500046E0314800782818112800DD40E0B17A5A
:108E600028466A1CD5B2A21C1154708900122946EA
:108E70006A1CD5B2A21C5054798804AB6846028B98
:108E80003046FBF73DFC0646002E10D06846008AAF
:108E9000C1B228466A1CD5B2A21C11546846008A89
:108EA000001229466A1CD5B2A21C50540AE0FF21C8
:108EB00028466A1CD5B2A21C115428466A1CD5B299
:108EC000A21C1154A11C481913490A781349FBF735
:108ED0007BFB114800782818C5B200BF002E85D151
:108EE00000BF002D0CDD61782846FBF761FB207088
:108EF000079948882146FBF79BFD002009B0F0BD8B
:108F00000598002801D10A20059039880898018029
:108F10000598F3E776E4FF1F00DFFF1F60E4FF1F03
:108F2000F3B589B00746384608300890424D089896
:108F30000088079000240020069061E005A80090BA
:108F4000089803794188421D0798FBF747FD0646BC
:108F5000002E00D156E070890790317A7888FBF7AF
:108F600061FD06900698002800D04BE013200021F8
:108F7000324A0092019102907888314B0490684601
:108F8000828A31460498FCF733FD06900698002843
:108F900000D037E0002C04D128480078801C68708D
:108FA00006E0697825480078801C814200D029E0DD
:108FB000224800782018132800DD23E0B17A2046EB
:108FC000621CD4B2AA1C1154708900122146621C82
:108FD000D4B2AA1C5054A91C081918490A78184977
:108FE000FBF7F2FA154800782018C4B21549079823
:108FF000884200D106E00798401C80B2079000BF6D
:10900000132C9BDD00BF002C0BDD69782046FBF79D
:10901000CFFA287078882946FBF710FD00200BB0A6
:10902000F0BD0698002801D10A2006900A990798F9
:1090300008800698F3E7000076E4FF1F00DFFF1FBB
:1090400060E4FF1FFFFF0000F3B587B00646374618
:1090500008372C4C002006902070002541E0690064
:10906000785A04A9FBF746FB05900598002806D11D
:10907000012006906800395A0898018037E01620D0
:109080000021214A00920191029070881F4B0390A9
:109090006846028A05990398FCF7AAFC0690069890
:1090A000002804D06800395A089801801FE0207811
:1090B000154909784018162804DD20781621081A69
:1090C000114908702278611C50180F490A780F491D
:1090D000FBF77AFA20780C49097840182070681C50
:1090E000C5B2B87DA84202DD20781628B7DB00BFE4
:1090F0000698002803D170882146FBF7A5FC069846
:1091000009B0F0BD76E4FF1F00DFFF1F60E4FF1F22
:10911000F0B587B005460F462846083006900699F8
:10912000088804A9FBF7E6FA05900598002816D0F0
:109130000F4E162000210096019102906888731C42
:1091400003906846028A05990398FCF751FC04468F
:10915000002C03D168883146FBF77CFC00E0012439
:10916000002C02D0069800883880204607B0F0BD59
:1091700076E4FF1FF3B583B005462C46083400277C
:10918000208802A9FBF7B6FA0646002E2AD0307ACC
:1091900020210840002810D068460089FFF7D4FB42
:1091A00001900198002806D0688812223146019B60
:1091B0009847074600E00E2700BF002F13D100207C
:1091C0000090A37821886888E21C0190FCF7D9FD03
:1091D0000746002F07D1207E002804D16888FBF7BE
:1091E0003FFC00E00127002F02D021880498018075
:1091F000207E002802D0002005B0F0BD3846FBE7F5
:1092000070B505460E46002D01D1022070BD0C2020
:10921000FBF72CFC0446002C01D11320F6E70020BC
:109220002060A580A66009480068002802D1074890
:10923000046008E00549086800E00068016800294A
:10924000FBD1046000BF0020E0E70000FCDEFF1F50
:10925000F8B5044618206043009000201E490870AD
:109260001E48406800280AD0002006E00021C20005
:109270001A4BD2185160411CC8B20128F6DB184DB8
:10928000002D26D000212846009AFBF7A3F90020E4
:1092900019E001466143CAB2182151434919C3007C
:1092A0000E4E9B195960002109E00023C6000B4FA8
:1092B000F619766818274F43F3534B1CD9B2A142D5
:1092C000F3DB411CC8B20128E3DB03480470002033
:1092D000F8BD1320FCE70000F8DEFF1FF0DEFF1FE3
:1092E00080E2FF1FFFB585B005460C4616460E9F6F
:1092F00000200490207802281CD160680078616802
:1093000049780902401880B203900D49039840182B
:1093100000280AD1022000970190324621462846B3
:10932000089BFCF70BFB049002E00120049000BFB7
:1093300000BF01E001200490049809B0F0BD0000D6
:10934000FED6FFFF0848816C491C8164C16CC26C69
:109350000902C90F5203D20F5140C26C5202120AC5
:109360005118C164C06C7047DCE1FF1F70B588B054
:109370000446002638A003F0EBF83AA003F0E8F822
:1093800035A101A8FBF778FB39A101A8FAF796FFF0
:10939000064600250CE0A800364A115801A8FAF745
:1093A0007FFF002803D1681C6946087702E06D1C26
:1093B0000C2DF0DB00BF2EA10020FAF77FFF064640
:1093C0003046FAF7A9FFC1B26846C17628A100204D
:1093D000FAF774FF06463046FAF79EFF81B26846F8
:1093E000C18320A101A8FBF747FB23A101A8FAF73D
:1093F00065FF06463046FAF78FFFC1B268468176B0
:109400001DA10020FAF75AFF06463046FAF784FFFE
:10941000C1B26846417618A10020FAF74FFF064610
:109420003046FAF779FFC1B268460176007F401EE8
:1094300020616846C08B1149401A60616846C07E51
:10944000E0606846807EA0606846407E6060684656
:10945000007E206008B070BD466562203238203240
:109460003031390031333A35383A353400000000B4
:109470002000000024DCFF1F3A0000006C07000001
:1094800030B50146002010E08400094D6419E46CF9
:10949000A2B284006419E46C230C84000A534400D3
:1094A000641C64000B53421CD0B20928ECDB30BDB5
:1094B00080400240FEB50D4614461E460020009036
:1094C0000898002801DD0B20FEBD287802285BD11A
:1094D00068680078696849780902401880B201908C
:1094E000152149020198401A0300FBF78BF8050487
:1094F00013231B294700E868FBF70EF9C7B2099848
:10950000874200DD099F37703A462046E968FBF73D
:109510005BF838E0E9680888022131702070011298
:10952000617030E00620307006222046E968FBF7C3
:109530004BF828E001203070E8680078207022E0C5
:10954000E868002817D0E868082131700178217098
:109550000188091261708178A17041880912E17057
:10956000017921718188091261718179A171C188A4
:109570000912E17101E00020307004E00020307039
:109580000120009000BF03E0002030700120009017
:10959000009899E710B502230340002B04D00B7804
:1095A000022423430B7003E00B780224A3430B70C7
:1095B00008230340002B04D00B78082423430B70AE
:1095C00003E00B780824A3430B7020230340002BF7
:1095D00004D00B78202423430B7003E00B78202465
:1095E000A3430B7002230340002B07D10823034041
:1095F000002B03D120230340002B04D013780C242C
:109600002343137005E0002803D113780C24A343EF
:10961000137010BDFEB50C4616461F46089D00206F
:1096200002902078022877D16068007861684978D4
:109630000902401880B20190152149020198401A90
:1096400006D0012831D0022868D0032873D151E018
:10965000E068FBF761F8C0B200900098854205DC35
:10966000E819152804DD0D20029001E00720029082
:109670000298002818D1E16848193A463146FAF7AD
:10968000A3FFE81985B20020E16848553548006815
:10969000002809D0334800680068002804D0314809
:1096A000006801680020884755E0002D04D1022F92
:1096B00004D00D20029001E00B20029002980028B7
:1096C00017D1E0680090307871780902401881B2B3
