:020000041FFFDC
:1008000000000000C1A6FF1FA8B7FF1FCCB7FF1F45
:10081000480300200000000000000000000000006D
:1008200000000000000000000000000000000000C8
:1008300000000000000000000000000000000000B8
:1008400000000000000000000000000000000000A8
:100850000000000000000000000000000000000098
:100860000000000000000000000000000000000088
:100870000000000000000000000000000000000078
:100880000000000000000000000000000000000068
:100890000000000000000000000000000000000058
:1008A0000000000000000000000000000000000048
:1008B0000000000000000000000000000000000038
:1008C0000000000000000000000000000000000028
:1008D0000000000000000000000000000000000018
:1008E0000000000000000000000000000000000008
:1008F00000000000000000000000000000000000F8
:1009000000000000000000000000000000000000E7
:1009100000000000000000000000000000000000D7
:1009200000000000000000000000000000000000C7
:1009300000000000000000000000000000000000B7
:1009400000000000000000000000000000000000A7
:100950000000000000000000000000000000000097
:100960000000000000000000000000000000000087
:100970000000000000000000000000000000000077
:100980000000000000000000000000000000000067
:10099000F98CFF1F8D8DFF1F31AFFF1F000000007E
:1009A0000000000000000000000000000000000047
:1009B0000000000000000000000000000000000037
:1009C0000000000000000000000000000000000027
:1009D0000000000000000000000000000000000017
:1009E0000000000000000000000000000000000007
:1009F00000000000000000000000000000000000F7
:100A000000000000000000000000000000000000E6
:100A100000000000000000000000000000000000D6
:100A200000000000000000000000000000000000C6
:100A300000000000000000000000000000000000B6
:100A400000000000000000000000000000000000A6
:100A50000000000000000000000000000000000096
:100A60000000000000000000000000000000000086
:100A70000000000000000000000000000000000076
:100A80000000000000000000000000000000000066
:100A90000000000000000000000000000000000056
:100AA0000000000000000000000000000000000046
:100AB0000000000000000000000000000000000036
:100AC0000000000000000000000000000000000026
:100AD0000000000000000000000000000000000016
:100AE0000000000000000000000000000000000006
:100AF00000000000000000000000000000000000F6
:100B000000000000000000000000000000000000E5
:100B100000000000000000000000000000000000D5
:100B200000000000000000000000000000000000C5
:100B300000000000000000000000000000000000B5
:100B400000000000000000000000000000000000A5
:100B50000000000000000000000000000000000095
:100B60000000000000000000000000000000000085
:100B70006990FF1F0000000000000000000000005E
:100B80000000000000000000C168FF1F000000001E
:100B90000000000000000000000000000000000055
:100BA0000000000000000000000000008184FF1F22
:100BB0000000000000000000000000000000000035
:100BC0006984FF1F0000000000000000000000001A
:100BD0000000000000000000000000000000000015
:100BE0000000000000000000000000000000000005
:100BF00000000000000000000000000000000000F5
:0C0C000001FF01FF01FF01FF41000000A7
:020000041FFFDC
:1040000080200020D540FF1FDD40FF1FDF40FF1F45
:1040100000000000000000000000000000000000A0
:10402000000000000000000000000000E140FF1F51
:104030000000000000000000E340FF1FE540FF1FFC
:104040000000000000000000000000000000000070
:104050000000000000000000000000000000000060
:104060000000000000000000000000000000000050
:104070000000000000000000000000000000000040
:104080000000000000000000000000000000000030
:104090000000000000000000000000000000000020
:1040A0000000000000000000000000000000000010
:1040B0000000000000000000000000000000000000
:1040C0000348854600F042F80048004771A4FF1FEE
:1040D000802000200448804704480047FEE7FEE7B0
:1040E000FEE7FEE7FEE7FEE7B168FF1FC140FF1FE6
:1040F00003460B439B0703D009E008C9121F08C001
:10410000042AFAD203E00B780370401C491C521EAB
:10411000F9D27047D2B201E00270401C491EFBD2B6
:1041200070470022F6E710B513460A4604461946C2
:10413000FFF7F0FF204610BD0321001D401E03784D
:1041400012021A43491EF9D510467047064C012544
:10415000064E05E0E36807CC2B430C3C984710342F
:10416000B442F7D3FFF7B0FF88B8FF1FC8B8FF1FEE
:1041700070B58C180578401C6B075B0F01D1037874
:10418000401C2A1106D10278401C03E006780E700C
:10419000401C491C5B1EF9D12B0705D40023521E7D
:1041A0000DD40B70491CFAE70378401CCB1A921C03
:1041B00003E01D780D70491C5B1C521EF9D5A1420D
:1041C000D8D3002070BD000003B40148019001BDA8
:1041D0000FF4000003B40148019001BD41F4000058
:1041E00003B40148019001BDFD0E000003B4014875
:1041F000019001BD61F2000003B40148019001BDCE
:104200008117000003B40148019001BDA916000008
:1042100003B40148019001BD6117000003B40148D7
:10422000019001BDF1F3000003B40148019001BD0C
:104230006116000003B40148019001BD4D66000005
:1042400003B40148019001BD5113000003B40148BB
:10425000019001BD3916000003B40148019001BD71
:104260005DF6000003B40148019001BD75F4000043
:1042700003B40148019001BD8913000003B4014853
:10428000019001BD5D2F000003B40148019001BD04
:10429000CDF9000003B40148019001BDF1F900001F
:1042A00003B40148019001BDD111000003B40148DD
:1042B000019001BD59F9000003B40148019001BD0E
:1042C0009D18000003B40148019001BDF1F1000008
:1042D00003B40148019001BDF117000003B4014887
:1042E000019001BD5114000003B40148019001BDCB
:1042F0006916000003B40148019001BD09150000D2
:1043000003B40148019001BDC960000003B4014835
:10431000019001BDB51F000003B40148019001BD2B
:10432000E9BF000003B40148019001BD1D1B00005E
:1043300003B40148019001BDED1B000003B4014826
:10434000019001BD6506000003B40148019001BD64
:1043500021FA000003B40148019001BDC11F000013
:1043600003B40148019001BD89F2000003B4014883
:10437000019001BD49F4000003B40148019001BD62
:10438000C9F6000003B40148019001BDC52000003A
:1043900003B40148019001BD45C0000003B40148C9
:1043A000019001BD9D1E000003B40148019001BDB4
:1043B000D541000003B40148019001BD2141000036
:1043C00003B40148019001BDE9FB000003B40148BA
:1043D000019001BD55DD000003B40148019001BD0D
:1043E00089DF000003B40148019001BD75E00000C1
:1043F00003B40148019001BDE1DE000003B40148AF
:10440000019001BD35E1000003B40148019001BDF8
:1044100029E4000003B40148019001BD69E50000F2
:1044200003B40148019001BD91E0000003B40148CC
:10443000019001BDE1E2000003B40148019001BD1B
:10444000F1E2000003B40148019001BDCDE6000097
:1044500003B40148019001BD09E9000003B401481B
:10446000019001BDE1E7000003B40148019001BDE6
:10447000B5DF000003B40148019001BD61020000F6
:1044800003B40148019001BD6DDF000003B4014891
:10449000019001BD85E0000003B40148019001BD19
:1044A000D1E5000003B40148019001BDCDDF00005B
:1044B00003B40148019001BD1DE0000003B40148B0
:1044C000019001BDCDE0000003B40148019001BDA1
:1044D00031E2000003B40148019001BD49E700004A
:1044E00003B40148019001BD1DDB000003B4014885
:1044F000019001BD2DCF000003B40148019001BD22
:10450000A90B010003B40148019001BD5D0B01003E
:1045100003B40148019001BD690B010003B40148D7
:10452000019001BD250E010003B40148019001BDB9
:10453000F5E3000003B40148019001BD21E3000050
:1045400003B40148019001BD15E3000003B4014824
:10455000019001BDC1E0000003B40148019001BD1C
:104560006DDD000003B40148019001BDF1DE0000E3
:1045700003B40148019001BD7574000003B4014803
:10458000019001BD8574000003B40148019001BD94
:104590000959000003B40148019001BD15F2000063
:1045A00003B40148019001BDFDF6000003B40148C9
:1045B000019001BDC5F9000003B40148019001BD9F
:1045C000DD74000003B40148019001BD890D0100B4
:1045D00003B40148019001BDD576000003B4014841
:1045E000019001BD8D02000003B40148019001BD9E
:1045F0000D34000003B40148019001BD9107000093
:1046000003B40148019001BD691B000003B40148D7
:10461000019001BDBD07000003B40148019001BD38
:104620006107000003B40148019001BDF90D0000CD
:1046300003B40148019001BD290D000003B40148F5
:10464000019001BD3107000003B40148019001BD94
:104650007919000003B40148019001BD010D00006B
:1046600003B40148019001BD6F21000003B401486B
:10467000019001BD5D0D000003B40148019001BD32
:10468000990D000003B40148019001BDD10D000057
:1046900003B40148019001BD410E000003B401487C
:1046A000019001BD3975000003B40148019001BDBE
:1046B0008D75000003B40148019001BD85720000B2
:1046C00003B40148019001BDE52C010003B4014889
:1046D000019001BD7D9E000003B40148019001BD21
:1046E000F59E000003B40148019001BDF94C0000A3
:1046F00003B40148019001BDA53D000003B4014889
:10470000019001BD5D52000003B40148019001BD5C
:10471000552B010003B40148019001BDB1C2000056
:1047200003B40148019001BDF1F0000003B4014859
:10473000019001BDC5C5000003B40148019001BD51
:104740000DC7000003B40148019001BD0BC5000076
:1047500003B40148019001BD3942000003B401488F
:10476000019001BDF140000003B40148019001BD7A
:10477000C140000003B40148019001BD5D4100004B
:1047800003B40148019001BD95C3000003B4014882
:10479000019001BD1DC3000003B40148019001BD9B
:1047A0006D45000003B40148019001BD753C000057
:1047B00003B40148019001BD7DCE000003B401485F
:1047C000019001BD71D7000003B40148019001BD03
:1047D00099D7000003B40148019001BDB94300001E
:1047E00003B40148019001BD3D44000003B40148F9
:1047F000019001BDE1D5000003B40148019001BD65
:104800007DD2000003B40148019001BD7D4E00003F
:1048100003B40148019001BD95DA000003B40148DA
:10482000019001BD4D4F000003B40148019001BD4E
:10483000E9CF000003B40148019001BD3DD800005C
:1048400003B40148019001BD89D4000003B40148BC
:10485000019001BD5DD6000003B40148019001BD87
:104860003DC4000003B40148019001BDB5510000F2
:1048700003B40148019001BD3D0D010003B401489E
:10488000019001BD55E5000003B40148019001BD50
:10489000BD9E000003B40148019001BDF5C40000B5
:1048A00003B40148019001BD3D3F000003B401483D
:1048B000019001BD25C2000003B40148019001BD73
:1048C00017C4000003B40148019001BDF7C2000005
:1048D00003B40148019001BD01C4000003B40148C4
:1048E000019001BDD938000003B40148019001BD19
:1048F000DBC2000003B40148019001BDE1C100002A
:1049000003B40148019001BD41CF000003B4014848
:10491000019001BD199F000003B40148019001BD41
:10492000C9C5000003B40148019001BD8DC9000054
:1049300003B40148019001BD39CD000003B4014822
:10494000019001BD35D3000003B40148019001BDC1
:104950006959000003B40148019001BD1500010030
:1049600003B40148019001BD59C5000003B40148DA
:10497000019001BD99C4000003B40148019001BD3C
:10498000D54A000003B40148019001BD3D29000053
:1049900003B40148019001BD9534000003B40148FF
:1049A000019001BD6913000003B40148019001BDED
:1049B000E11D000003B40148019001BDB55E000097
:1049C00003B40148019001BD65B7000003B401487C
:1049D000019001BDD5F6000003B40148019001BD6E
:1049E000DDFB000003B40148019001BD999E000069
:1049F00003B40148019001BDED75000003B4014806
:104A0000019001BD3903000003B40148019001BDCC
:104A100001E4000003B40148019001BD7DE5000000
:104A200003B40148019001BDD100010003B4014865
:104A3000019001BDD1EB000003B40148019001BD1C
:104A4000F50D010003B40148019001BD2D6800007F
:104A500003B40148019001BDB90D010003B4014840
:104A6000019001BDFDE2000003B40148019001BDC9
:104A7000E9E3000003B40148019001BD3DE40000FA
:104A800010B5034A1321034800F068FD10BD000073
:104A900058B7FF1F1400002010B50024134600284B
:104AA00002D00224204610BD0A4619460148FFF7ED
:104AB0008BFBF7E70B000020FFB595B000251095A4
:104AC00010AA119500F0A6F806460A287CD20446E2
:104AD0000620444320462030C0B26A460E2105F02D
:104AE000C7FE002802D168468089C5B21798139086
:104AF000404818990078022813D000201290082905
:104B000011D020462130C7B21C2200216846FFF791
:104B100061FB6A461C21384605F0AAFE002805D034
:104B200010E00120EAE720462230ECE76846807E6C
:104B3000C01F092806D8E907C90F6A46129B1398B7
:104B4000FFF74EFB1422002107A8FFF743FB204686
:104B50002430C0B207AA102105F08AFE002812D125
:104B60001022FF2107A8FFF741FB00280BD12534B5
:104B7000E0B20BAA042105F07BFEE907C90F07AAE2
:104B80001798FFF739FB7036F0B20CAA102105F028
:104B90006FFE002811D10CA802F01DFD00240CAE00
:104BA000A00080190188002903D08278179800F0AE
:104BB00031FD641CE4B2042CF2D3A80704D50D48DF
:104BC000017B179800F014FD189804280FD10949AB
:104BD000087802280BD10A791798002A00D0012200
:104BE0004978002900D004211143FFF70BFB002076
:104BF00019B0F0BDA801002010B5054CA061217BC3
:104C00002620FFF705FB207B00F0A2FC10BD000072
:104C1000A8010020F0B50A2485B015460F460028EB
:104C200006D0012804D0022810D0032846D11FE066
:104C3000084602F09DFC04460A283FD2002D3DD0D4
:104C4000062239462846FFF7BFFA37E01D4E0024FA
:104C50000E206043801906223946801DFFF7DEFAD8
:104C6000002823D1641CE4B20A2CF1D30A241DE0ED
:104C700000242046062148432330C0B26A46102152
:104C800005F0F6FD00280CD11022FF216846FFF741
:104C9000ADFA002805D139466846FFF7C5FA002865
:104CA00004D0641CE4B20A2CE3D3DFE70A2C05D25B
:104CB000002D03D02946204602F072FC204605B0A4
:104CC000F0BD00006806002070B50C4601460320C8
:104CD00000020A1A002534481300FFF7ABFA1D1032
:104CE00012151C1F2326282C303234383A3C3E4003
:104CF000424446484A4E50525A5456585A00C07977
:104D000011E01022294902E02849102210312046E2
:104D1000FFF75AFA45E0C06A206042E022490622C5
:104D20003C31F4E7007820703BE0808936E01E4992
:104D300042784231EBE71D4982781F39E7E7007A74
:104D4000F1E7407AEFE7184906223031DFE7807A51
:104D5000E9E7C07AE7E7C08920E0808A1EE0C078F2
:104D60001CE0C08A1AE0008B18E0408B16E0808BB4
:104D700014E00D4906223631C9E7C08B0EE0008CE5
:104D80000CE0408C0AE08079CDE7008A06E0408A9A
:104D900004E0272904D20846FFF752FA208000E0F9
:104DA0000225284670BD0000500200203307002075
:104DB00070B50E4C00256071A571691EE181FFF789
:104DC00045FA0420E071102200210948FFF702FA99
:104DD0000748102200211030FFF7FCF9E562257228
:104DE00065720120A072E57270BD000050020020C3
:104DF00033070020FEB53B4D0C4608040CD56879FE
:104E0000FFF72AFA050004D002F0EEFC2846FFF76F
:104E100029FA0120C00360E0600403D5012080036B
:104E20004840FEBD2F48E1070126807900292AD09D
:104E30002978002920D0052821D0287A69460870D1
:104E4000687A4870274900A8062230310230FFF7FF
:104E5000BBF9A87A69460872E87A48726879FFF760
:104E600007FA002808D00720A871696A002903D032
:104E70000968002900D0884720467040FEBD032005
:104E800069460870E5E7A1070DD5052809D1E8892D
:104E9000FFF7F4F9AA8A002A03D002216879FFF704
:104EA000F3F9022019E0600704D5002002F0DCFCD1
:104EB000042012E0200712D52879012802D0022808
:104EC0000AD107E00096AB8B6A8B298BE88A00F049
:104ED0000BF801E000F05AF908206040FEBD002008
:104EE000FEBD000050020020F8B5134C069DA679C7
:104EF000052E01D01420F8BD104F861FBE4219D2D6
:104F0000062917D3BE1DB14214D2FF27F537BA4286
:104F100010D20A2B0ED3B3420CD2E08221836283DB
:104F2000A383284602F0A0FC04216079FFF7B2F9C0
:104F30000020F8BD1820F8BD500200207A0C0000B7
:104F4000F7B50C4680490098164642187F4F002559
:104F50007879B9791300FFF76DF9190E141BE92060
:104F600040455970777E888FE996A2A9B4BFC8E9F9
:104F7000E9E9E9D3E900102C76D1102231467448D2
:104F80006FE0102C70D1724810223146103068E06A
:104F9000042C69D13068F862CEE0012C64D13B78F2
:104FA00032783A70002B0AD0002A07D1022903D0A8
:104FB000062901D0042901D1FFF772F9BCE0002ACB
:104FC0000AD0012905D0032903D0052901D00429DD
:104FD00002D10121FFF76AF9AEE0022C44D13088FA
:104FE000B881A9E01F2C3FD858481F220021423029
:104FF000FFF7F0F85548224631464230FFF7E4F813
:10500000524B7C7042332246012112E01F2C7CD887
:105010004F481F2200211F38FFF7DCF84C4822467A
:1050200031461F38FFF7D0F8494BBC701F3B224672
:1050300000217879FFF740F983E0012C65D13078C1
:10504000042862D8387277E0012C5ED130780328CA
:105050005BD8787270E0062C57D13C480622314666
:105060003030FFF7B1F867E04FE0012C4DD13078D8
:1050700007284AD8B8725FE0012C46D1307803285F
:1050800043D8F87258E0022C3FD13288BA82002A05
:1050900052D0052950D10221FFF7F6F84CE0012C3F
:1050A00033D13078012830D8F87045E03088022CB0
:1050B0002BD1062829D31921C901884225D8F88285
:1050C0003AE03088022C20D106281ED31921C901CC
:1050D00088421AD838832FE03088022C15D1FF215E
:1050E000F531884211D2788326E03088022C0CD129
:1050F0000A280AD31921C901884206D8B8831BE0BF
:105100003178012C01D1012901D0182514E00821A2
:10511000FFF7D8F8002801D016250DE0002002F096
:10512000A3FB04217879FFF7B5F805E0009827285C
:1051300001D2022C02D002252846FEBD3188FFF79D
:1051400067F80546F8E70000FFFCFFFF500200206B
:10515000330700201CB50B4CA179002901D0112088
:105160001CBD002800D06062064907482C31034668
:1051700001910090103B0022E179607900F016F86F
:1051800000201CBD500200204307002010B5064837
:105190008179052901D0122010BDC18913224079DF
:1051A000FFF796F810BD000050020020F8B51D462C
:1051B0000224069F079E0B00FFF73CF80A1508061D
:1051C0000608150615060615002C0CD1FFF786F803
:1051D000040008D1324639462846FFF785F8FFF724
:1051E00089F8FFF78DF82046F8BD0000014610B59C
:1051F0000020C90704D0034A0421034800F0AEF997
:1052000010BD00006CB7FF1F6401002070B50F4D8A
:105210000F4CA87029461031204600F01DF80021DF
:1052200028460B460830CA0084521218491C090649
:105230005360090EF7D0142002F0E6FEA878FFF7BD
:1052400065F80448FFF768F870BD00004C010020C5
:10525000FFFF00003179FF1F70B50A4C0025A04206
:1052600009D1002082008C525218401CC0B29570A7
:105270000228F7D370BD02F02AFB0028FAD0048080
:10528000857070BDFFFF0000F8B50E460746069911
:1052900000240798002902D00B242046F8BD022BD9
:1052A00001D00D24F9E711785278120289188DB2D5
:1052B0002946814301D08024EFE73846F16800F0A9
:1052C0003FF9A842E9D02A463846F16800F0D0F903
:1052D0000400E2D171892A46384600F06DF9DCE716
:1052E00070B50C46080412D50A488078FEF7B4FF62
:1052F000050008D02878B02802D1284602F0F8FB33
:105300002846FEF7AFFF0120C003604070BD0020BB
:1053100070BD00004C010020FFB583B0087A002565
:105320000C9E1C460F46C0060DD5059802F0C8FA23
:10533000030006D00A22394603989847050035D164
:1053400001E00E2532E0387802281DD17868292244
:105350000178407812020002081881B2881A91423E
:105360007ED009DC7348081A23D0012821D00228F6
:105370004FD0032808D125E0012872D0022871D02F
:1053800003286DD004286ED0059802F0C1FA0028D9
:105390006AD00568002DD4D00E990D980191009027
:1053A0003346224639460398A8470546284607B0A3
:1053B000F0BD0D98002872D1F8680178317002783C
:1053C000416896E00D98002869D101203070F86896
:1053D0000021007820707889401C80B2FEF7A2FF7F
:1053E00000280DD0317802788918891C3170817AB3
:1053F00061704189090AA17002784168E01C79E076
:1054000030780422001D30700021601CFEF7E2FE9F
:10541000CCE70D98002875D1F86802A900880090A3
:1054200004203070009820700098000A6070009886
:10543000FEF778FF070029D0F868009068460289D7
:1054400001AB3D493846FEF773FF002810D13B7889
:1054500002213A487A68FEF771FF002808D104E07B
:1054600026E030E01CE04AE062E03348694688808C
:105470000098007802280CD1009802224168201D73
:10548000FEF7A2FE3078801C307002E0694600987A
:10549000888068468088A070000AE07086E731E066
:1054A0000D9800282ED1F968039800F049F804E01F
:1054B0000D98002826D1F8680088022131702070EC
:1054C000000A607072E7F868FEF73EFF0D99C0B2FF
:1054D000814212D8814201D1002206E00E9A891839
:1054E000814202D30D99401AC2B23270F9680D9808
:1054F00009182046FEF768FE58E7072556E70D987D
:10550000002801D00B2551E70721F8683170017898
:105510002170417861708178A1704188090AE17039
:105520000179217181796171C088000AA0713DE71C
:1055300000252FE700280000FFFF0000DA2F010000
:1055400010B502F0C4F9002800D0807810BD00002A
:1055500001490870704700004C0100207CB51546D9
:10556000040019D0684601940180FEF7F3FE0300A1
:105570001DD1002D1BD06489002C0DD00C20FEF70E
:10558000EFFE00280AD0002303608480094A85606A
:105590005168002904D006E0022308E0132306E046
:1055A000506004E011460A68002AFBD108601846E2
:1055B0007CBD00004C010020F8B50C4C074620785B
:1055C00015460E46FF280FD00A20FEF7CFFE010039
:1055D0000AD0B12008700020487008714F80CE803A
:1055E0000D812078FEF7C8FEF8BD00004C010020B8
:1055F00070B50C4605460649FFF7A2FF800704D5A3
:1056000021462846FEF7BEFE70BD012070BD000099
:105610005C0100201CB56B461A71120A5A710022F7
:105620000092022301AA00F001F81CBDFFB583B06F
:1056300008461E4601A90C9FFEF774FE050014D013
:105640006846808802F064F900280AD04468002C7B
:1056500009D00097F3B22946059A0398A04707B0EE
:10566000F0BD0024F3E70E20F9E70120F7E7000082
:1056700070B514460E46054602F029F9002806D1F9
:105680003146054802F023F9002803D005808470D4
:10569000002070BD112070BDFFFF0000014610B555
:1056A0000020C90704D0034A07210348FFF756FF2B
:1056B00010BD000080B7FF1FDC01002070B50D4653
:1056C000164600241D490300FEF7B4FD08051234F8
:1056D000341934222934152D23D8162200211848D4
:1056E000FEF778FD2A4631461548FEF76DFD22E0AB
:1056F000022D16D111491088103908801BE0082DA1
:105700000FD10E48082231460838FEF7F1FC12E0AE
:10571000012D06D1CA6909493078283107E0012DE9
:1057200001D0182407E0CA6B04493078483102F0F0
:1057300034FD00E00224204670BD0000DC010020A2
:10574000FE060020FEB50446014633A005F0B8F879
:10575000374D052C08D028781927BF01052809D016
:105760000026022830D031E0314932480C31FFF7B1
:10577000ABFA4FE001206946087002212879FEF754
:1057800089FD0121A88900F071F8042C09D120219C
:105790000820FEF73DFD20210920FEF739FD2649AE
:1057A00008E039460820FEF733FD39460920FEF7A8
:1057B0002FFD00210020FEF72BFD1E486A46012127
:1057C0000938FFF7BDFB25E0032C02D0012C0ED0D9
:1057D00020E0E878002801D0EE701BE00820FEF7FA
:1057E0002FFD202816D1012069460870D9E7C12075
:1057F00069468000FFF768FA69464879C8710879F8
:105800008871C87848710E71CE706A4608210020F0
:10581000FFF742F92C70FEBD4865617274526174E5
:1058200065476170537461746543423A2025640092
:105830004C0300200E0300003075000070B50546D3
:10584000002407490748FFF707FDE80706D004488A
:10585000054A08210830FFF781FE0446204670BD46
:10586000BC020020FFFF00009CB7FF1F10B50446DC
:10587000084884420DD0012907D0022909D101210D
:105880002046FEF785FD002803D103492046FFF797
:10589000E3FC10BDFEFF0000BC02002070B58AB022
:1058A000484C6A46207101201075072111760021AD
:1058B00011811173C8211184C900118290837D2543
:1058C000ED00958440A003C8019100900621404856
:1058D000FFF736FBC32006AA01218000FFF730FB4B
:1058E0003B4805AA0121801FFFF72AFB384802AA7E
:1058F0000221401FFFF724FB2246612020321121A4
:10590000C000FFF71DFB324822460E320721001F60
:10591000FFF716FB312003AA01210001FFF710FB5E
:105920002B4808AA0221801DFFF70AFB284804AA79
:105930000221C01DFFF704FB254807AA02210830F9
:10594000FFF7FEFAC52009AA02218000FFF7F8FA46
:105950002246313215210020FFF7B0FE02206A46B0
:105960001070012100F0A6F8FF269136314606207E
:10597000FEF74EFC31460720FEF74AFC3146082070
:10598000FEF746FC31460920FEF742FC0026F643AE
:105990003046FFF783FE3046FFF728FCFFF770F82C
:1059A0003046FFF74BFF0B4800F07EF801212079CD
:1059B000FEF77CFC2A4610212079FEF765FC0AB030
:1059C00070BD00004C030020010203040506000026
:1059D0000B030000A990FF1F70B50C46054608494F
:1059E000FFF7AEFDC00709D0054800220830408D02
:1059F000208021462846FEF7D1FC70BD122070BDE4
:105A0000BC02002070B5214D0C46080409D5287948
:105A1000FEF722FC002801D0FEF724FC0120C00381
:105A20002BE0E00708D019481830FFF793FB18481F
:105A3000FFF7E2F8012020E0A0070FD515A004F041
:105A40003FFF2878052807D103F04AFB7D22120189
:105A500002212879FEF718FC02200EE0200701D56C
:105A600008200FE0E0060AD501F02AFA7D22D200D4
:105A700010212879FEF708FC1020604070BDA006B8
:105A800002D52020484070BD002070BD4C0300208E
:105A9000D8B7FF1F48454152545F504552494F44C3
:105AA00049435F4556540A00014948607047000069
:105AB000B402002001460020012902D0022901D0B1
:105AC000022070471178014A11707047B40200201B
:105AD000FFB504464E4F81B00020386020461D4679
:105AE000BF30FEF761FC4B4826460078B236803462
:105AF0000828A06E32462CD00121FEF75BFC444FF3
:105B00003078F863761C3046FEF716FB00BA000AC0
:105B1000F17800020843B863361D3046FEF70CFBEF
:105B200000BA000AF178000208437863361D304657
:105B3000FEF702FB00BA000AF1780002084338635E
:105B40000398010202980143F960039F00263F1D5C
:105B50000EE00021D1E7A819401CFEF7EDFA010282
:105B6000A85D01432C4830180160361DF6B23F1F76
:105B7000042FF0DA032F04D0022F08D0012F0FD00A
:105B800014E0A819FEF7D8FA0102090A09E0A919D8
:105B900048780978000208431F497118086003E03B
:105BA000A95D1D4830180160361DF6B200211A4A61
:105BB00002E0B0180160361DFF2EFADD1448174BC5
:105BC00043600F230361012303604369002BFCD072
:105BD000436901600020039B11E081180968295482
:105BE000401CC0B20E0A2E54401C0E0CC0B22E54E3
:105BF000401CC0B2090E2954401CC0B21B1F002B10
:105C0000EBDCA06E401CA066012005B0F0BD0000DA
:105C100000000440E511FF1F00010440080F0000D0
:105C2000FFB504464D4F81B00020386020461D4628
:105C3000BF30FEF7B9FB4A4826460078B2368034BA
:105C40000828606E32462BD00021FEF7B3FB434F8D
:105C50003078F863761C3046FEF76EFA00BA000A18
:105C6000F17800020843B863361D3046FEF764FA47
:105C700000BA000AF178000208437863361D304606
:105C8000FEF75AFA00BA000AF178000208433863B6
:105C90000398029900020843F8600026039F0EE073
:105CA0000121D2E7A819401CFEF746FAA95D0002BF
:105CB00008432C4971180860361DF6B23F1F042FA7
:105CC000F0DA032F04D0022F08D0012F0FD014E0F8
:105CD000A819FEF731FA0102090A09E0A919487862
:105CE0000978000208431F497118086003E0A95DA4
:105CF0001C4830180160361DF6B20021194A02E036
:105D0000B0180160361DFF2EFADD0F2313481B0269
:105D100043600F230361012303604369002BFCD020
:105D2000016003980023001D11E099180968E954E7
:105D30005B1CDBB20E0AEE545B1C0E0CDBB2EE54A5
:105D40005B1CDBB2090EE9545B1CDBB2001F0028B0
:105D5000EBDC606E401C606605B0F0BD00000440E6
:105D6000E511FF1F00010440F0B589B0FEF728FBE4
:105D7000FE4908600420FEF729FBFEF72DFB0446D0
:105D8000C00712D0FA490020086072B6FEF72AFB5D
:105D9000F849F94DF94E02280BD001287ED0F84F72
:105DA00005287CD004287BD0ADE2FEF721FB09B0AA
:105DB000F0BD08780F46012806D0032804D0022839
:105DC00002D005286DD09EE20720FEF7FFFA08AB4F
:105DD00007AA06A9EB48FEF711FBEA493439898E78
:105DE0000B074906CA0FE7491B0F34390C464034EC
:105DF00020319446002801D0032B05D0052B6ED00E
:105E0000387801286CD081E23878012801D0032845
:105E1000F9D1D94843695B1C4361DB4B087FDD79CD
:105E2000A842F0D1487F1D7AA842ECD1887F5D7AE4
:105E3000A842E8D1C87F9D7AA842E4D12078DD7AD3
:105E4000A842E0D160781D7BA842DCD1F568002033
:105E5000AD8D2D072DD5DB7B012B01D0032B28D158
:105E6000C3001F1AC94BDD5D95421DD1FB188D7D06
:105E70005F78BD4218D1CD7D9F78BD4214D10D7E93
:105E8000DF78BD4210D14D7E1F79BD420CD18D7E91
:105E90005F79BD4208D1CD7E9B7903E0E5E0E6E085
:105EA0002EE2E0E09D4202D0401C0828D8DB082802
:105EB00017D0B14D686D401C6865706C002802D029
:105EC000804700289FD0FEF79FFA01277770FEF7E2
:105ED00077FAA6490968884208D9401A09E02CE0F7
:105EE000AFE0A548016A491C01620FE2A84A511AB5
:105EF0000818F16876230A79181A801A4A6C096C16
:105F0000D2B2C9B2C0B2FEF785FAFEF789FA984854
:105F1000076000207070FEF789FAFEF78DFAA08CFA
:105F2000010A9848891C3030FEF78CFA0E20FEF7E3
:105F30004DFAA869401CA861E8E13F78012F01D023
:105F4000022FD2D1E869401CE8618F480B7FC079ED
:105F50008342CAD18C484B7F007A8342C5D18A489C
:105F60008B7F407A8342C0D18748CB7F807A83423F
:105F7000BBD185482378C07A8342B6D16078824C01
:105F8000237B9842B1D1F0680023808D000726D58D
:105F9000E07B022801D0032821D1D800C61A7B4813
:105FA000845D944218D130188C7D4678B44213D168
:105FB000CC7D8678B4420FD10C7EC678B4420BD12A
:105FC0004C7E0679B44207D18C7E4679B44203D127
:105FD000CC7E8079844202D05B1C082BDDDB6D48CF
:105FE000022F1AD10478644527D18A7D4478A242D1
:105FF00023D1CA7D8478A2421FD10A7EC478A242EE
:106000001BD14A7E0479A24217D18A7E4479A242EA
:1060100013D1C97E827991420FD1082B0DD0696DC1
:106020000622491C6965614601705649401C891C5D
:10603000FEF7CAF8FEF70CFA68E1686A401C68626D
:1060400064E15149487BC20701D0252004E0800764
:1060500001D5262000E02720097D8142ECD932209D
:10606000FEF7FCF952E107204EE106204CE10878EA
:10607000072879D10B20FEF7A9F94149FF220978B9
:1060800025325143444A00208B18587050544348DD
:106090000068002805D0FEF7E7F940490978C840B4
:1060A00005E0FEF7E1F93E490968FEF7E3F9074626
:1060B000E00535D539480068002805D0FEF7E0F93D
:1060C00036490978C84005E0FEF7DAF9344909682D
:1060D000FEF7D0F92A4B00901878FF21253148436C
:1060E0002D4940180279002A01D000220271234A6A
:1060F0007130121D911D04F003FFF1680098C9680A
:10610000381A411827480160600526D51C49FF222E
:10611000097825325143204A0120891848701CE033
:106120001748FF22007825321B4B01215043195498
:10613000296DFF3F491C2965F1680F3F0969C018A7
:10614000CA19184920300A60407E410016480818D4
:10615000FF300130018D491C01852046009904F073
:10616000F3F8FEF793F921E0CDE000001C12FF1FC9
:106170001812FF1FE511FF1F0C31FF1FAC03002099
:106180001512FF1FF82BFF1F442AFF1F892BFF1F2B
:1061900040420F000C12FF1F5C2AFF1F2410FF1F3C
:1061A0002010FF1F2012FF1F581A002061490746C8
:1061B00008700020087248728872C8725E480442F3
:1061C00002D0E86C401CE8645C48FF22007825326D
:1061D00050435B4A57498318D81DF930827C069298
:1061E0008A1DFF33C07C491C1333FEF755F9024664
:1061F0005248FF2100782531484351494018C11DBC
:10620000F931CA740279002A0CD10223069A897CDA
:106210001A4019408A4205D046494A78002A01D1DD
:1062200001224A70474949688E220904090E0391E8
:10623000125C002A02D0AA6ED219AA662030407ED3
:10624000414D40004019C030C18BC919C183FEF7D0
:1062500029F901463948FF22007825325043384A4F
:1062600080182030407E400040198030828A891892
:10627000818207AA05A904A8FEF71AF92F48FF2171
:106280000078253148432E4940182030407E694629
:1062900040002A5A097D5118295240194030694658
:1062A0004289097C51184181600705D503988742CE
:1062B00002D23846FEF702F9FEF706F91D48002122
:1062C000224B81701A78012A0CD1002F0AD0204A63
:1062D0001469002C03D0127DD243920702D0012210
:1062E000827019708079002801D0FEF7F3F8FEF76C
:1062F000F7F8F078002809D03189FDF7D7FF05E0DD
:106300000878082809D00520FEF760F8FEF770F835
:1063100062B60320FEF75AF849E53878FF212531A7
:10632000484307490B4A4018911D713004F0E8FDBD
:106330000920E9E78031FF1F020800001512FF1F46
:106340005C2AFF1F00100340581A00201312FF1F81
:10635000442FFF1FB0030020F8B58E4F079CBE1DD1
:106360009C460D46002A1FD0012A05D0032A0ED0D4
:10637000022A0CD0042A59D1002C57D006990029A2
:1063800001D0012952D1032A01D0022A0AD10146A3
:10639000814BA039994249D2A02D47D301218903CD
:1063A0008D4243D8002A0BD17B4B014620398033E4
:1063B00099423BD2202D39D3012189038D4235D812
:1063C000854233D36146002901D001292ED1099994
:1063D000002905D0012903D0022901D0032925D1A4
:1063E0000899490722D06D4B9988012920D09A73CA
:1063F00008994907490F59731CD06849099BCB7309
:106400006346002B1BD001238B713378CB717378DB
:106410000B72B3784B72F3788B723379CB727379DA
:106420000B73012A19D0042A28D036E01220F8BDB7
:106430000C20F8BD5948072141733020F8BD0023D6
:106440008B713B78CB717B780B72BB784B72FB788E
:106450008B723B79CB727B79E2E75148069B0370E4
:106460002378437063788370A378C370E3780371F3
:10647000237943716379837102200EE0484B069EB5
:106480001E7026785E7066789E70A678DE70E6785C
:106490001E7126795E7164799C7148801300FDF746
:1064A000C9FE0504060A08060B00002504E00125C4
:1064B00002E0022500E006253A4E8A79B0880C46B3
:1064C0000009000128434023910198430143D00172
:1064D000802291430843B0800622E11DB01DFDF7E4
:1064E00073FE37464037B88CA1790009000140227D
:1064F000001D904389010143B98430460622E11D05
:106500006630FDF761FEA07C0321000249024118BC
:10651000B2883F2000028243114389B2B180012D2D
:1065200012D18143032080020818B0801C49BB8C23
:10653000087880229343C0011843B884304606226D
:106540000C30491CFDF740FE1748017808291AD085
:10655000072918D0A17B0B00FDF76CFE050408107D
:106560000C081700012101701F200AE002210170B0
:10657000202006E004210170222002E003210170A6
:106580002120FDF723FF0020F8BD002101701E200F
:10659000F7E70000F911FF1F613F0000442AFF1FC9
:1065A0000C12FF1FC42BFF1FE511FF1F10B50E4873
:1065B0000E4B0278FF20253042430021D018FF24E3
:1065C000C17013342154995401230246037160327F
:1065D000937113742023816119548E2319545174BB
:1065E0000521818110BD00001512FF1F5C2AFF1FCD
:1065F000FEB572B65548C068476D866D082F01D844
:10660000002F00D10427082E01D8002E00D1042627
:106610004F48504D816C504C491C81642878FF21B3
:106620002531484300192030407E41004B4808186E
:10663000FF304130418E491C4186FDF757FFFDF781
:10664000F5FEFDF7F9FE2878FF21253148430019B2
:10665000806AFDF751FF2878FF2125314843001952
:10666000406AFDF74FFF2878FF2125314843001984
:106670002030407EFDF74CFF2878FF21253148432C
:1066800000192030407EFDF749FF2978FF20253092
:10669000414308190279002A0BD02E21095C304AA7
:1066A00040695143400009182848C068C06F081865
:1066B00015E0615C0029254909D0CA684069096C68
:1066C000136940185B0040001818D16C06E0C968D7
:1066D0004069CA6840005200C96C10184018FDF7A4
:1066E00023FF1A4DE868806CFDF724FFE868416CD1
:1066F000CAB2016C808FC9B2C0B2FDF78BFE042014
:10670000FDF71EFF0720FDF721FF02A93846FDF720
:1067100023FF69460989C2B201250E4801910095FF
:106720000078FF21253148430019FF300130817C7A
:10673000F3B23020FDF716FFFDF772FE0948056041
:1067400062B61420FDF742FEFEBD0000AC0300203F
:106750000C31FF1F1512FF1F5C2AFF1F581A002063
:10676000710200001812FF1F002805DBC106C90EC8
:1067700001208840014908607047000000E100E006
:106780008307FF22DB0E9A408907090E99400028F3
:1067900008DB830809489B001818036893430B43E0
:1067A000036070470007000F0838830804489B0007
:1067B0001818C36993430B43C361704700E400E0BA
:1067C00000ED00E08307FF22DB0E9A408907090EE7
:1067D0009940002808DB830809489B0018180368C3
:1067E00093430B43036070470007000F083883088A
:1067F00004489B001818C36993430B43C361704757
:1068000000E400E000ED00E0F8B504460020034697
:106810000A5C8507ED0EAA401343401C0428F7DBF1
:1068200000F03CF90028FBD100F084FA210220049A
:10683000090E0843FF273F0221463940084372B63C
:1068400000211A4DA960194E0002803E801C306064
:10685000336062B600F022F90028FBD100F05AFA4A
:1068600011200006201869462A695207FCD572B625
:106870000422AA6004020204240E22433840024388
:106880001002C01C306062B628694007FCD5307821
:10689000087030784870307888703078C870009808
:1068A000984201D00020F8BD0120F8BD80000811F9
:1068B000024901480860704740787D01A803002024
:1068C00010B572B61948C068C00703D01748001F3A
:1068D000FDF74EFE154C403CA06BC00707D0134897
:1068E0001838FDF745FE12480168491C0160606ACE
:1068F000C0070CD0E16A0F48C162A16941630B482F
:106900002C38FDF735FE0C480168491C01602069F0
:10691000C00707D02046FDF72BFE2046FDF72EFED0
:10692000FDF732FE62B6002010BD000040100240AC
:106930002C10FF1FAC0300203010FF1FF8B50646D7
:10694000002700F011F904460648051B06E000F098
:106950000BF9A04201D3071B00E02F18B742F6D372
:10696000F8BD0000FFFFFF0008B500020091000A1B
:1069700004226946FFF748FF002800D0012008BD27
:10698000EFF30380704702E008C8121F08C1002A15
:10699000FAD170477047002001E001C1121F002AA0
:1069A000FBD1704710B5FDF7F5FD0120FDF7F8FDAF
:1069B000FDF7FCFD002010BDF0B500248E464A1EF8
:1069C00012E0714600230D1B6D1E0AE09E00311877
:1069D0008C46875949688F4202D9815161464F6080
:1069E0005B1C9D42F2D8641C9442EAD3F0BD0000C7
:1069F00010B505231B221F210D4804F053FC0C4C3D
:106A00000C4B083407221021204604F04BFC0622D0
:106A100001231146204604F045FC05481438416A1C
:106A2000012211434162C169034A1143C16110BD92
:106A300014F00040FB03000004003E0001680A055A
:106A400008D11031044A016052781203914201D3F7
:106A5000891A0160704700009C03002010B50020D7
:106A6000054CFF212218401C51704028FADB04F02D
:106A7000FFF8207010BD00003C1C002010B5002065
:106A8000054CFF212218401C51700628FADB04F047
:106A90000DF9207010BD00003F0400200848016976
:106AA0004907FCD5012181600549052280390A701A
:106AB00002695207FCD50878C007C00F7047000074
:106AC00080000811F0B58646080CFF268446002396
:106AD00088B237461C46194601228A4005461540B1
:106AE000CD402C19A4B2FF2F02D1012C00D18FB2BE
:106AF00065462A40CA40D21893B2FF2E02D1012B1C
:106B000000D18EB2491C1029E6DB012C02D0102CDA
:106B100008D009E0012B07D13001C0197146087077
:106B20000220F0BD102B01D00320F0BD0120F0BDEC
:106B3000032806D3012189078B6801228240134371
:106B40008B60704701480068704700001410FF1FF9
:106B5000012292071368012181408B431360106862
:106B600008431060704700000449886A0202886A7E
:106B7000120A0002000A9042F7D1704700F000406C
:106B800010B504460120FFF7D9FE1149CB6A114820
:106B9000C26A934202D2C96A511A00E0002101631D
:106BA000FFF7E2FF0C490123C86201190A460832C7
:106BB0001B069A4203D309310902090A641A011912
:106BC0000648C162416A2922D2031143416210BDC5
:106BD00000100240AC0300200012FF1F00F0004034
:106BE000F8B5496894460A78497806980902511818
:106BF0008FB2444A11210025079CBE1A091A9742F8
:106C000043D009DC404ABA1813D0012A1CD0022A0A
:106C100025D0032A08D12EE0012E40D0022E48D0E4
:106C2000032E50D0292E5AD0002018700A2528464D
:106C3000F8BD082855D20821091AA14200D80C46EF
:106C4000E2B21A70314957E00C284AD20C21091AD5
:106C5000A14200D80C46E2B21A702D494CE00D2832
:106C60003FD20D21091AA14200D80C462849E2B2B0
:106C70001A700D3140E0112833D2A14200D80C46E1
:106C80002349E2B21A701B3136E0112829D2A14201
:106C900000D80C461E49E2B21A702D312CE01128A2
:106CA0001FD2A14200D80C461949E2B21A703F31F6
:106CB00022E0112815D2A14200D80C461449E2B2B4
:106CC0001A70513118E00E280BD20E21091AA14278
:106CD00000D80C460E49E2B21A7063310CE0072866
:106CE00001D30725A3E70721091AA14200D80C46C2
:106CF0000649E2B21A70C91F09186046FDF764FA26
:106D000095E70000272A0000DDD5FFFF0B000020DB
:106D1000E4B6FF1F064801694907FCD500218160E0
:106D2000034A0421803A117001694907FCD5704774
:106D300080000811064801694907FCD500218160DF
:106D4000034A0621803A117001694907FCD5704752
:106D500080000811F8B5414A0446D068808DC0070C
:106D600064D03F48406A3F4D8104890CA94202D952
:106D70006842081800E0681AC82819D32B26012396
:106D80003601DB02B04207D2C80041028601891BEE
:106D9000C6008919081A09E0C80041028601891B4A
:106DA0004601891BC600891B40000818C018010B4A
:106DB0002C482D4BC430814200D9196819607D26BA
:106DC000906AF600B0420AD2284EFF278E198A3701
:106DD000BE4200D3116A401C1960906209E0106A3B
:106DE000060A37188F4203D3861B8E4200D8084606
:106DF0001860106AC100091A18680918C9081162D8
:106E0000C108A8420AD9194AC43A80186043C00888
:106E100001E0401A641E8842FBD807E0281A60434C
:106E2000C00801E0401A641C8842FBD80C480622C6
:106E300000231146243804F035FA2046FDF7BCFB48
:106E400001F05AFF01F0E4FE0020FDF7BFFA012037
:106E5000FDF7B8FB0120FDF7BBFBF8BDAC0300203C
:106E600040F00040420F00003412FF1F82F1FFFF8C
:106E700003460002012100B5000A490388421BD3E2
:106E8000FFF70CFE0028FBD1FFF754FF0B49002051
:106E9000886019021804090E0843FF2109020B40FB
:106EA000184306490002803920300860FFF7F6FDDC
:106EB0000028FBD1FFF72EFF00BD00008000081165
:106EC000FEB500209B4D009068780A2803D39AA055
:106ED00003F0F6FCFEBD01F0D9FB002808D1042127
:106EE0009A4801F0BFFB010002D099A003F0E8FC32
:106EF0009A4E002132469A48FDF76CF9984C0020D2
:106F00002054401C80B2B042FAD32878012806D021
:106F1000022835D003287DD0042830D1F1E091A09B
:106F200003F0CEFC01F05EFB044601469CA003F09A
:106F3000C7FC01200246012C0BD9894901F072FCE3
:106F4000010003D082A003F0BBFC02E098A003F094
:106F5000B7FC3246304694420BD9814901F062FCBD
:106F6000010003D07AA003F0ABFC02E090A003F094
:106F7000A7FC01F037FB014689A003F0A1FCAFE0BC
:106F80008EA003F09DFC754E002132467448FDF73B
:106F900021F9012701AB32467149384601F0E6FB81
:106FA000060003D001466AA003F08AFC394692A08D
:106FB00003F086FC6A46918891A003F081FC93A0BF
:106FC00003F07EFC00216A460846928805E0235CB7
:106FD000C7B2BB4205D1401C80B29042F7D3002912
:106FE00001D08DA000E08EA003F06AFC5B4F002171
:106FF0003A465B48FDF7EEF83A4601AB5849104671
:1070000001F0B4FB002E03D0314651A003F058FC30
:10701000394600E01FE083A003F052FC69468988EE
:1070200077A003F04DFC79A003F04AFC00226946EA
:107030001046898805E0235CC6B2B34205D1401CE6
:1070400080B28842F7D3002A01D073A000E074A078
:1070500003F036FC44E075A003F032FC01F0C2FA04
:1070600001464FA003F02CFC684601F0DFFA014610
:107070007DA0009A03F024FC0124204601F00CFBC3
:1070800001000BD166A003F01BFC01AB3246344972
:10709000204601F06BFB0146252802D02CA003F00E
:1070A0000FFC304601F0F8FA01003FD15CA003F07C
:1070B00007FC01AB30463246294901F057FB014637
:1070C000252833D101F08EFA014635A003F0F8FBF4
:1070D000684601F0ABFA014663A0009A03F0F0FBAA
:1070E0002878401CC0B22870042800D8F2E601209D
:1070F00028706878401CC1B26970634803F0E0FBF7
:10710000FEBD624803F0DCFB01F06CFA014624A0EE
:1071100003F0D6FB684601F089FA014652A0009AB6
:1071200003F0CEFB01F0D4F90100CBD008A003F0AE
:10713000C7FBC7E7A40300206673206578616D7004
:107140006C6520656E64210A00000000005000118B
:107150006572726F723A25640A000000FF0F00002A
:10716000580A00200A66735F77726974652E2E2EA6
:107170002E2E2E2E2E2E2E2E2E2E2E2E2E2E2E2E2F
:107180002E2E2E2E2E2E2E2E2E2E2E2E2E2E2E2E1F
:107190002E2E2E2E2E2E2E2E2E2E2E2E2E0A00008F
:1071A000667265655F73697A653A25640A00000056
:1071B0007772697465206F6B0A0000000A66735F5E
:1071C000726561642E2E2E2E2E2E2E2E2E2E2E2EFB
:1071D0002E2E2E2E2E2E2E2E2E2E2E2E2E2E2E2ECF
:1071E0002E2E2E2E2E2E2E2E2E2E2E2E2E2E2E2EBF
:1071F0002E2E2E2E0A00000069643A25640A000033
:107200006964206C656E3A25640A00006964206434
:107210006174613A0A0000006572726F720A0000C0
:107220006F6B0A000A69643A25640A000A66735F94
:1072300064656C6574652E2E2E2E2E2E2E2E2E2E0F
:107240002E2E2E2E2E2E2E2E2E2E2E2E2E2E2E2E5E
:107250002E2E2E2E2E2E2E2E2E2E2E2E2E2E2E2E4E
:107260002E2E2E2E2E2E0A00676172626167655FD8
:1072700073697A653A256420676172626167655F48
:107280006E756D3A25640A00FCB7FF1F40B8FF1FFA
:10729000F0B5524E524F99B07168396071783971BA
:1072A000FF21B97110210024797125460922FF219F
:1072B000F81DFCF78FFF4E22002104A8FCF78AFF7F
:1072C00035E038682103401803F094FF014610228E
:1072D0006846FCF779FF00983968884218D16846FB
:1072E00000793979884213D16846407979798842A2
:1072F0000ED1684671788079491E884225DAA0420D
:1073000001D1022500E0032504A90855B8710CE05D
:107310000098401C19D168460079FF2815D16846AD
:107320004079FF2811D104A90855641CE4B23979C9
:10733000A142C6D8042D08D0B8790024FF2807D070
:10734000012D05D0002004AA24E0202019B0F0BDB2
:1073500000250DE0BD71386829034018102220492E
:1073600003F056FF002801D01F20EFE76D1CEDB29F
:107370003879401EA842EDDC3C743879401E7874A0
:10738000102078820120307026E0135C002B03D09F
:10739000401CC0B28142F8D881421DD9401E081855
:1073A000FDF71CF9797401203070002218A91046ED
:1073B000189400F017F8002802D0212802D004E029
:1073C000189901E0012109037982C0B2212803D074
:1073D000002801D02A20B9E70020B7E79C0300204D
:1073E000440A0020F7B5012484B000200E46274649
:1073F0000190A6E05C480179407CC019FDF73AF89D
:10740000C8B2FF2C03D3FF3CA4B2FF2C36D2049A9F
:10741000002A01D1544A11740003012503900198F8
:10742000002803D000200190281906E0012C05D97E
:107430002819811EFF291ADA401E85B203982901F6
:1074400008180290484801680298081803F0D2FE14
:10745000014604226846FCF7B7FE049800280ED0C7
:10746000012822D0022842D0062007B0F0BDFF201C
:107470000230401B201A84B2012001905FE0009985
:107480008803800F04D0022802D0032852D107E0DD
:107490000803800F012821D1080D21E0012124E0FB
:1074A00002980005000D306055E000988203910FAE
:1074B00004D0022905D003293CD152E0910F0229C2
:1074C00008D1328881B292B2914203D106990298D2
:1074D000086040E00103890F01293ED0012429E022
:1074E0000C21FCF7C7FF0029D8D1441822E00098EE
:1074F0008103890F04D00229ECD003291AD12AE094
:107500000103890F012903D0306801240C300BE0FE
:10751000000D0C21FCF7AEFF002900D0012144181A
:107520000C2031686043081830600698069900689E
:10753000401C08606D1CADB2FF2D00D86FE77F1CAA
:10754000FFB20A484078874200D253E704980028E7
:1075500005D0012805D0002087E7000DC0E72120D5
:1075600083E7252081E70000440A00209C030020D7
:1075700070B50A4D064600240E20604340190622CD
:107580003146FCF74BFE002801D0204670BD641C3C
:10759000E4B20A2CF0D30A2070BD00006806002077
:1075A0007FB50D460A280CD2002D0AD0062148438B
:1075B0002030C0B26A460E2103F05AF9040003D00D
:1075C00007E0022004B070BD062269462846FCF799
:1075D000FBFD2046F6E700218A00835A491CDB4365
:1075E000835212189378C9B2DB4393700429F3D302
:1075F00070470000F8B5074600200090784CB97835
:10760000054607266079A2790B00FCF713FE0805F2
:10761000DD1A36365E98C1DD787800285AD1704878
:107620000622F91C3C30FCF7CFFD0120A0716C4B09
:107630000146423362786079FCF73EFE002849D16A
:10764000C5E07978002945D1F978002906D0654B45
:10765000A2780021FCF730FE78700AE0022A0BD0F5
:107660000121FCF72FFE002803D101216079FCF7EE
:107670001DFE787800282DD1F8BD7B78002B29D10C
:10768000032909D0A289002A0CD0217800290AD028
:107690000121FCF7F9FD06E0052A01D0022012E0E5
:1076A000062010E02570A079062802D0042802D018
:1076B00008E0052007E00120207001466079FCF712
:1076C000F5FD84E00320A07181E07878002803D0E4
:1076D000312832D0A6717AE041480622391D363071
:1076E000FCF772FD7889E081B8892082F889608290
:1076F0000520A071A28A002A03D002216079FCF73C
:10770000C3FDB889E083F8892084388A6084E078F2
:1077100001280AD11F20FCF793FD7D21C9004843B1
:10772000024604216079FCF7AFFD7A89F8780423DA
:10773000391DFDF7C1F9257049E02570C2E72848D9
:10774000062200213630FCF745FDE583258465845B
:1077500004216079FCF79EFD08216079FCF79AFD11
:10776000B879082808D00320A0712078002805D017
:107770006079FCF795FD07E00420F5E70120207013
:1077800001466079FCF792FD0020C043E0811EE0D5
:107790000821FCF77FFD7878002800D06CE7F88896
:1077A000E083388920847889608404216079FCF73B
:1077B00089FD0028F2D1A06A0028EFD00368628C0E
:1077C000218CE08B9847F8BD00980028FBD0606AB8
:1077D0000028F8D001680029F5D0A0798847F8BDC5
:1077E000500200201407002010B501781C4C91298C
:1077F00006D0A2291BD0D02901D1FFF7FBFE10BD76
:1078000041780E29FBD1828816498A42F7D18168D6
:1078100003200856A1790529F1D17F28EFD0616AAC
:107820000029ECD049680029E9D0884710BD41798A
:107830001329FBD10089012802D12079022808D020
:107840000520FCF7FDFC024608216079FCF71CFDD1
:1078500010BD08216079FCF71DFDFDF797FC10BDF8
:1078600050020020051400007CB5144C0546E08B46
:10787000E18A88420AD3218B884207D8208C618B09
:10788000884203D1608CA18B884216D00520FCF77A
:10789000D7FC0646E08A69460880208B4880608BCA
:1078A0008880A08BC8806279E089FCF79DFE2571F5
:1078B000324608216079FCF7E7FC7CBD50020020CD
:1078C00010B500F025F8002800D0806810BD002217
:1078D0009300CB5A834202D1900040187047521C4B
:1078E000D2B2022AF4D3002070470000074A0021D8
:1078F000CB00D35A834202D1C80080187047491C7C
:107900000906090EF4D00020704700005401002041
:107910000649496805E08A88824201D18868704733
:1079200009680029F7D10020704700004C010020B1
:10793000F8B50746012906D0022924D10121FCF718
:1079400027FD00281FD13846FFF7D0FF050015D0CE
:1079500000240D4E0CE01820696860430818018867
:10796000002908D018220021FCF734FC641CE4B282
:1079700070788442EFD30020C04328800249384603
:107980001031FDF769FCF8BD4C010020F3B5074646
:1079900083B00830029000267888FFF7A7FF019097
:1079A00000282FD0002523E0019841681820684363
:1079B0000C18218800291FD00298007801280ED1C8
:1079C0006088009023797888621DFDF72FFE0600FD
:1079D00005D002990020087004982188018018229F
:1079E00000212046FCF7F6FB00206D1C2080EDB244
:1079F000074840788542D7D30021C9430198002E1B
:107A0000018002D17888FCF7F5FD304605B0F0BD65
:107A10004C010020F3B50546334C074685B00835C8
:107A2000162200212046FCF7D5FB03A800902B79F5
:107A3000698828886A1DFCF7E3FD064640E02B486C
:107A4000102200216B4607C3274B69468A89788834
:107A5000163B3146FDF760FC002812D12348E97936
:107A6000C01EC27891420CD11F49284616390830F1
:107A7000FCF7D4FB002804D021787089890009190B
:107A8000488068468289698804AB3046FCF750FC20
:107A900021780646880000194288002A10D0002E5E
:107AA00005D06A46128A491C217082800AE00A06C3
:107AB0000020920DC0431219491C2170908004E0EF
:107AC000002E02D020780528B9D32078002806D0CF
:107AD00078882146FCF79AFD002007B0F0BD069893
:107AE000298801800A20F8E73E0600204F01002087
:107AF000F0B585B0044600256846858120790E28BA
:107B000075D00EDC082821D004DC022812D006280B
:107B100067D116E0264608360A281DD00C2860D109
:107B200034E0102868D012286BD016286ED01828A0
:107B300057D170E03A49172008806088FCF76CFD47
:107B40004FE003A92046FFF765FF03E003A92046A5
:107B500000F04EF9054635E0308804A9FCF7E2FB59
:107B6000010011D02E4F16200097019502906A4611
:107B700060887B1C128AFDF7CFFB05001AD1608854
:107B80003946FCF74FFD1DE0012513E0308804A9BC
:107B9000FCF7C8FB0100F7D07288214F1620019234
:107BA000009702906A466088128A7B1CFDF7B4FB3E
:107BB000050003D030886946888103E06088394633
:107BC000FCF736FD002D0CD06078142809D014493C
:107BD000207908706846808948800D716088FCF7BC
:107BE0002DFD2046FCF730FD05B0F0BDFFE703A9F1
:107BF000204600F07DF9ADE703A9204600F064F8C7
:107C0000A8E703A9204600F0C7F9A3E703A9204687
:107C100000F008F89EE703A92046FFF7B7FE99E7B2
:107C20003E060020F8B504460F4605460834008994
:107C30006946FCF777FB06003DD0307A80060ED50A
:107C400068460088FFF73CFE030006D068881222D1
:107C500031469847061E02D02EE00E262CE06E8894
:107C60003046FFF743FE010005D11548FFF73EFE01
:107C700001000ED00E80134A0020567807E018232A
:107C80004A684343D25A002A07D0401CC0B2B042CF
:107C9000F5D30926002E09D00EE04968182250437A
:107CA00008182146FCF790FA0026F3E76888214679
:107CB000FCF7D0FC02E00126208838803046F8BD71
:107CC000FFFF00004C010020F3B587B0079A04A81D
:107CD0000832039200900026137951881088424C94
:107CE0003746521DFCF78CFC054662E00798297A5E
:107CF0004088FCF7B5FC070003D00898698901802B
:107D000059E03A48112200216B4607C30798364BC9
:107D100069460A8A4088163B2946FDF7FDFA0700A6
:107D2000EBD1002E28D031486178C01EC078021DEA
:107D3000914242D1301811283FD8A119A87A8870F1
:107D4000761CF0B269892218090A401C9170C6B2EB
:107D5000039805AB41886846028A2846FCF7E8FA92
:107D600005000FD06946888AA11988706946761C7B
:107D7000898AF0B2090A0AE01C48C01EC078001DBA
:107D80006070DAE7FF21A0198170761CF0B222182A
:107D900091701649401CC91ECA78C6B21249A01972
:107DA0001639801CFCF710FA1048C01EC078301835
:107DB000C6B2002D9AD1002E0CD061783046FCF767
:107DC00059FB2070079821464088FCF74FFC0020A3
:107DD00009B0F0BD002F00D10A2703980188089848
:107DE00001803846F4E700003E0600204F010020E5
:107DF000F3B585B005983B4D083003900788002403
:107E0000019404A80090039803794188421D3846E4
:107E1000FCF7F6FB06004CD005987789317A40884C
:107E2000FCF71EFC0190002843D12F4813220021AB
:107E30006B4607C305982B4B69460A8A4088163B58
:107E40003146FDF769FA0190002832D1002C2AD082
:107E500025486978C01EC078801C81422BD12249F8
:107E6000C91EC8782018132823D82A19B07A907010
:107E7000641CE0B272892B18120A9A70401C0C46DE
:107E8000CA78C6B21749A8191639801CFCF79CF9A4
:107E9000E0783018C4B2154887420AD07F1CBFB2C0
:107EA000132CAED907E01048C01EC078801C687043
:107EB000D5E7002C0CD069782046FCF7DBFA287057
:107EC000059829464088FCF7D7FB002007B0F0BD95
:107ED0000198002801D10A20019006980780019896
:107EE000F4E700003E0600204F010020FFFF0000E5
:107EF000F3B585B00027264C059E27703D46083611
:107F000038E06800305A03A9FCF70CFA010013D0DE
:107F10002048162300226F460DC705981C4B6A4661
:107F20004088163B9289FDF7F7F9070006D06800F4
:107F3000315A0698018028E00127F8E71549207892
:107F4000C91ECA788218162A02D91622101AC870B9
:107F500022781049601C1018C91ECA780C491639BD
:107F6000FCF732F90B482178C01EC07808186D1C48
:107F70002070EDB2B07DA84202D920781628C0D377
:107F8000059821464088FCF77DFB384607B0F0BDD8
:107F90003E0600204F010020FEB504460F4606466F
:107FA0000834008901A9FCF7BDF9050022D0287A20
:107FB00080060ED568468088FFF782FC030006D055
:107FC0007088122229469847050002D013E00E253A
:107FD00011E000200090A37821887088E21CFDF752
:107FE00025FB050007D1207E002809D17088FCF709
:107FF0004FFB02E0012520883880207E002801D038
:108000000020FEBD2846FEBDF8B5044602461820F5
:108010004243194800250646457008367068002816
:1080200007D00020C1008919401C00064D60000ED9
:10803000F8D0124F00213846FCF7CCF80023184640
:108040006043C0B218214843C1190B48DA00083018
:1080500016187160002105E018224A437068491C17
:108060008552C9B2A142F7D35B1C1B061B0EE6D09A
:10807000014844700020F8BD4C0100204804002055
:108080007CB50C78069D022C0ED14C68267864785D
:1080900024023419054EA4B2F44205D102240095FD
:1080A0000194FDF7F1F87CBD01207CBDFED6FFFFF9
:1080B0000848816C491C8164C16CC26C0902C90FFB
:1080C0005203D20F5140C26C5202120A5118C164BD
:1080D000C06C7047AC030020F8B5069800271D4619
:1080E00014460E46002801D00B20F8BD3078002140
:1080F000022801D019704DE07068027840780002C3
:108100001018152280B25202801A0300FCF792F870
:108110000504121F1A254100F068FCF715F9C2B2D8
:108120000798824200D902462A70F1682046FCF77F
:108130004BF830E0F0680221008829702070000AB6
:10814000607028E0062028700246F168EEE7012002
:108150002870F068007820701DE0F068002816D0C4
:1081600008212970017821700188090A61708178DD
:10817000A1704188090AE170017921718188090A99
:1081800061718179A171C088000AE07103E02970F2
:1081900001E0297001273846F8BD10B50B78840737
:1081A00002D50224234301E0FD2423400B70030782
:1081B0000B7802D50824234301E0F72423400B70F9
:1081C00083060B7802D52024234301E0DF242340DB
:1081D0000B700A21084201D1810603D510780C21C9
:1081E000084304E0002803D11078F3210840107000
:1081F00010BD0000FFB581B0087800240A9E1F461C
:108200000D4602280FD168680178407800020818EE
:10821000152180B24902401A09D0012829D002282C
:1082200048D003283CD00124204605B0F0BDE868C2
:10823000FCF78AF8C0B2864205D8F01900901528DC
:1082400003D90D24F0E70724EEE7E8683A468019E1
:108250000399FBF7B9FF0098EA6880B20021115436
:108260001C4840680028DFD001680029DCD00020CD
:1082700012E0002E12D1022BE3D10399E8680A78AC
:108280004978090251180180124840680028CBD073
:1082900001680029C8D001208847C5E70B24C3E73F
:1082A000002EFBD1062BCCD10622E8680399FBF700
:1082B0008BFFB9E7002EF1D1012BC2D103980078D2
:1082C000002803D0012801D08024ADE7E9680870B8
:1082D000AAE70000CC01002010B5122801D3052028
:1082E00010BD0B4B9C6B01228240104620439863CB
:1082F000586B90435863D86B002906D09043D863DD
:10830000186B02431A63002010BD1043F7E700000A
:1083100000800040084B042807D2012207E01043E8
:1083200000E09043586100207047012212388240DB
:1083300058690029F5D0F2E70038004070B50F4EBB
:10834000002435196878022806D9E0B200F0ACFBA9
:108350000146E0B200F0C4FB232C0ADA6878022858
:1083600007D9E0B200F0A0FB0C216143891920314C
:108370004871641C232CE4DB70BD00006C070020F6
:1083800070B502211020FEF71DFA1020FEF7ECF95F
:10839000114E00240C206043801920300079002801
:1083A00013D0E0B200F0C4FBE5B2284600F07CFB3D
:1083B00000280ED000210C226A43921920325279F3
:1083C000824202D0284600F03DF8641C232CE1DBF9
:1083D00070BD0121EFE700006C070020F3B5184ED7
:1083E00081B00F46002401200199A040084222D00C
:1083F000384201D1012500E00025E0B2294600F015
:1084000021F80C20604380194168806800290DD054
:10841000002806D0002D02D00021E0B203E00121A7
:10842000FBE7E0B20021FFF757FF04E0002802D08D
:10843000E0B20121F7E7641C122CD4DBFEBD000082
:1084400090070020074A0C2343439B185A68002AD0
:1084500001D0002904D09A68002A02D0012900D155
:10846000104770479007002010B50448C16B034ABD
:1084700040321068D060FFF7B1FF10BD00800040AF
:1084800010B50E4880680007000F062807D007DCEB
:1084900002280BD0042802D1012000F0A9FF10BD52
:1084A000072806D00C28FAD10220F6E700F0C8FF12
:1084B00010BD02484030C06B10BD000000400040BD
:1084C00003E00B780370401C491C521EF9D2704720
:1084D000F0B589B000200090FEF752FA800602D075
:1084E000292009B0F0BD3D48007800280DD03C4F50
:1084F000787C05903979401CFBF7BCFFC8B2079027
:1085000005980003002400903BE02720E9E7079846
:1085100031460019FBF7AEFF0D030695BC710598B7
:1085200031460019FBF7A6FF0803396810224018EE
:108530002B4902F06DFE002847D1002C02D1009893
:1085400010300090002610353868401902F052FEB5
:108550000146042204A8FBF737FE04988003800F2D
:10856000022815D0032804D0761CF6B21035FF2E51
:10857000EAD31A49069849680818FEF779FC641C82
:10858000E4B23E79701EA042C1DCFEF781FEA8E78E
:108590003968281D081802F02DFE01460C2201A89A
:1085A000FBF712FE386800990422401804A902F073
:1085B0002FFE002809D100983968001D08180C22E8
:1085C00001A902F025FE002801D01F2089E70098AC
:1085D000103000906846FEF731FAC5E79C03002092
:1085E000440A002070B50F4900200978002916D0F0
:1085F0000D4A0125548A2D03AC420FD2507C1179CB
:10860000127C4018801A401EFBF7E8FFFF20000193
:108610004143281B40180C214843000970BD00202D
:1086200070BD00009C030020440A00201CB50446D5
:108630000020009001900A480078002808D001AA84
:1086400069460220FEF7CEFE002803D001201CBDA3
:1086500027201CBD002C01D00198206000981CBD73
:108660009C03002010B5084A1378002B01D0272066
:1086700010BD030501D1032901D2062010BD5170A0
:108680005060FEF705FE10BD9C03002001480078F5
:10869000704700009C030020FEB5002405460094AE
:1086A000FEF76EF9800601D02920FEBD244800782F
:1086B000002807D06946284600F046F8002803D075
:1086C0002520FEBD2720FEBD1E4E009930684018B3
:1086D00002F090FD0146042201A8FBF775FD019808
:1086E0000C21000DFBF7C6FE002900D00121451822
:1086F00003273F041FE030680099401802F07AFD1C
:108700000146042201A8FBF75FFD01980099B843D8
:10871000019030680422401801A902F079FD002878
:1087200001D01F20FEBD0098103000906846FEF773
:1087300085F9641CA4B2AC42DDD30020FEBD00006C
:108740009C030020440A002008B500230093064B38
:108750001B78002B06D00A46009069460120FEF7E0
:1087600041FE08BD272008BD9C030020FFB583B053
:108770001C4616460F460025FEF702F9800602D079
:10878000292007B0F0BD2548007800280BD0002F25
:108790000BD0002E09D069460398FFF7D5FF0028BB
:1087A00005D02520EDE72720EBE72220E9E71C484C
:1087B00000990068401802F01DFD0146042201A83E
:1087C000FBF702FD002C02D00198000D20800198DB
:1087D000040DB4421CD91FE00C2C01D30C2000E086
:1087E0002046C6B20E4801680098001D081802F025
:1087F00001FD014678193246FBF7E6FCA01B84B266
:10880000009810300090A81985B26846FEF716F956
:10881000002CE1D10020B4E72620B2E79C03002021
:10882000440A0020F7B588B014460546FEF7A8F8BC
:10883000800602D029200BB0F0BD47480078002800
:1088400009D00998002804D0002C02D04348844263
:1088500003D92220EFE72720EDE7FFF7C3FEA04270
:1088600001D22320E7E705A92846FFF76DFF00287E
:1088700006D12846FFF710FF002801D00120DAE7D3
:10888000009821050003000B0843009006946846F9
:1088900005800321009809048843012149044018F8
:1088A0000327BF0400900C2C01D838430090002609
:1088B0000C2C10D90698A042009803D1B84301218E
:1088C000890402E0B8430121C90440180C250C3C7E
:1088D000A4B200900AE000980103890F022901D098
:1088E000012901D1B8430090E5B200241C48428A16
:1088F0000168007C89180003081805900422694665
:1089000001A8FBF761FC09982A46811902A8FBF728
:108910005BFC2A1D01A9059802F07AFC002801D011
:108920001F2088E770190E4D86B2688A0121103029
:1089300080B20903688288420AD1287C2979401CC8
:10894000FBF798FD687C814202D010206882297470
:10895000002CADD100206EE79C030020FF0F00002B
:10896000440A0020C306DB0E01229A40064B400950
:108970008000C0180029C16801D0114300E0914374
:10898000C1600020704700000038004030B50D463F
:1089900004460121FFF7E6FFA108074889000A18ED
:1089A0009169A007C00EFF23834099438540294366
:1089B0009161002030BD00000038004010B5114C1E
:1089C0002078002801D0072010BDFF21C9310D48B3
:1089D000FBF7A7FB012020700B49002008634863C8
:1089E0000A490862486202211020FDF7EBFE1020C0
:1089F000FDF7BAFE064A07490D2000F05BF900209A
:108A000010BD00006C0700200080004080F0004096
:108A10008183FF1F3D83FF1F30B50D4604460428A8
:108A200003D320461F38032803D801212046FFF72F
:108A300071FC00212046FFF795FF01200B49122C05
:108A400008D2A0404A68002D01D0024300E08243D2
:108A50004A6008E0123CA0400A69002D01D00243A0
:108A600000E082430A61002030BD00000080004029
:108A700070B50C460A21FBF7FDFC4A008A1801215B
:108A80000B46521C9340551CA9400B43D94383000D
:108A90000448181883680B402146914019438160AF
:108AA000002070BD00F000400C4A0C4B0121403A00
:108AB000122807D281405068084201D0106809E0AE
:108AC000186907E0123881401069084201D0D06867
:108AD00000E05869084000D0012070474080004005
:108AE000F8B50E4605460A21FBF7C4FC48000918F4
:108AF000EA060124D20E204690406A0993000B4AF0
:108B00009A18136A034313628C40084F2846803F2B
:108B10000A21FBF7AFFC8000C0198168002E01D04C
:108B2000214300E0A14381600020F8BD80F00040B7
:108B300070B5054618480C226A431418616801266E
:108B4000002902D1A168002906D013492439491906
:108B5000122D03D3032302E0122070BD04234B70B7
:108B60000121815400212846FFF756FF6068002844
:108B700010D0A06800280CD02846FFF795FF0028E9
:108B800001D0012100E000212846FFF7A5FB0020CD
:108B900070BD00263146F7E79007002010B5094860
:108BA000007800F0BFF9012000F076F91F2000F0F6
:108BB00017F8FFF703FF01F0A1FE03A001F080FE0C
:108BC00010BD00000A040020616C6C20647269769C
:108BD000657220696E6974204F4B210A0000000005
:108BE0000449420903D000204860062070474860CD
:108BF000002070479403002010B500231122152196
:108C0000024802F04FFB002010BD00001CF00040A5
:108C100010B50448112243681521034802F042FBB5
:108C2000002010BD940300201CF0004010B57821F6
:108C30000948FBF776FA09480078012805D0022890
:108C400006D0032806D0042804D1FBF727FD01E055
:108C5000FBF72AFD002010BDCC0900209403002062
:108C600010B51249044609781220012914D00429AC
:108C700012D072B600210E4B0C224A439A5C002A95
:108C800011D0A2420CD10C2251430120C9184870C6
:108C9000FBF704FD002006E0FBF700FD002010BDFF
:108CA000491C0A29E8DB62B610BD000094030020CD
:108CB000CC09002070B500240E4E23460C255D43E0
:108CC000755D854201D1072070BD002D0BD05B1C66
:108CD0000A2BF3DB002C0AD0002363702070A26003
:108CE0001846616070BD0C2463439C19F2E70320B1
:108CF00070BD0000CC09002070B5FFF789FF0A4D58
:108D0000002420460C214843295C002909D0401941
:108D10004068002800D08047641C0A2CF1DB00204A
:108D200070BD122070BD0000CC09002070B515493F
:108D30000022097801290FD004290DD072B6002134
:108D4000114D0E460C234B43EC5C002C0FD084429B
:108D500005D15B195E7007E0FBF7A0FC0CE05B1926
:108D60005B78002B00D0521C491C0A29EADB002A40
:108D700004D0FBF793FC62B6002070BDFBF794FCB7
:108D8000F9E7000094030020CC09002070B50A4DDB
:108D9000002420460C214843295C002909D04019B1
:108DA0008068002800D08047641C0A2CF1DB00207A
:108DB00070BD122070BD0000CC09002010B516490E
:108DC0000A20087015490120087015490020087014
:108DD00000F030F813480421C16113498160C1607B
:108DE00001611249416101210A20FFF741FE0D484E
:108DF0000D230F221221143002F054FA0021042016
:108E0000FDF7BEFC01210220FDF7BAFC084A002153
:108E10002020FFF74FFF10BD0704002008040020AA
:108E20000904002000F00040B66DDB36B6EDC3B09B
:108E3000B9B1FF1F70B515480022C0680424866BC5
:108E40001025134813493300FBF7F4F90708080508
:108E50000C0E1308050005600C600DE02022026076
:108E6000052004E0302305E040220260062008606F
:108E700002E0602303600A60FBF71CFCFBF720FCA8
:108E800002F056F801F032FF70BD0000AC03002084
:108E90002010FF1F2410FF1FF8B51F4E1E4F08366D
:108EA0001E4C1125012820D000281DD100211020A2
:108EB000FFF7DEFD00211120FFF7DAFD0323082272
:108EC0000921304602F0EEF9062200231146304611
:108ED00002F0E8F916231B221F21384602F0E2F9BE
:108EE0002068C16AA943C162F8BD05231B221F2166
:108EF000384602F0D7F90A4B07221021304602F01B
:108F0000D1F9062201231146304602F0CBF9206840
:108F1000C16A2943E7E7000014F00040B8030020CD
:108F2000FB030000F8B5FF212D312B4E2B4C002800
:108F30001AD001232A4A9B04022817D08025012831
:108F400019D016681E431660536806460B36012773
:108F5000B7403B43536053682B43536003281AD0F8
:108F6000042833D01F4A17E0266016E015681D4319
:108F700015601D4A10E017681F43176053680127EA
:108F80007F05BB43536053683F123B4353605368B4
:108F90002B435360E8E7154A2260491E0904090C77
:108FA000FBD103460E4800220321001F02F07AF98C
:108FB00001208007C1690E4D890709D58069000528
:108FC000010E491C2068FBF755FA02E0094AE3E765
:108FD00020682860F8BD00000048E8011010FF1F5D
:108FE00040F0004000D8B8050024F400006CDC021A
:108FF0001410FF1F0090D0031FB5124C20780028DA
:1090000002D0112004B010BD20210E48FBF789F8D2
:109010006846407A002803D16846C07A002801D00B
:109020000520EFE768460FC810340FC40120203C2C
:10903000207002F0BDF9044A00210820FFF73AFE33
:109040000020DFE7AC090020B1B3FF1F10B5054ACF
:10905000927E002A02D002F06BF910BD02F034F9C2
:1090600010BD0000AC0900206D46294606A001F0A5
:1090700027FC0024A000295809A001F021FC641C51
:10908000102CF7DBFEE70000486172642046617532
:109090006C742053502069732025780A000000006A
:1090A000307825782C00000010B50C4B012806D034
:1090B00002280ED0032801D10020D88010BD1878D6
:1090C0000528FBD17D22120102211879FBF7DCF87B
:1090D00010BD02211879FBF7DDF810BD4C0300200C
:1090E00010B51F4C1C4A1D49A378501DC95CD17096
:1090F00063781371CB0702D000230370401C0B0769
:1091000004D5E38803701B0A4370801CC90608D588
:1091100021890170090A417061898170090AC17051
:10912000001D801AC01E90700B49A089FCF754FCEA
:10913000E0880A30E0806078401CC0B2607050283F
:1091400001D149206070C1B20F200003FBF792F9F2
:109150006081208110BD000054070020D0B7FF1FA0
:109160004C03002030B5039C0020002C01D00B20C4
:1091700030BD4C682578647824022C19054DA4B2C2
:10918000AC4205D101241C70C9680978117030BD4A
:109190000A2030BD382A0000FEB515464A68002472
:1091A00016785278089F1202B218184E92B292198D
:1091B000174E16D0FF3A382A02D00A242046FEBDA8
:1091C000002F01D00B24F9E7012B01D00D24F5E786
:1091D0002878012801D08024F0E7C96808700320AE
:1091E0000FE00122019200972A46FCF74DF8040097
:1091F000E4D169782878090240180004000C03D0F3
:10920000012071688847D9E70220FAE7FED6FFFF00
:10921000B4020020F8B55249504A534B5148CA6035
:10922000D861002003468400401C1351FF28FADD5A
:10923000C8684E4A04468034A2600622C2620A22EE
:1092400002654B4A157885634A4DC5611578142629
:10925000022D03D01578032D03D003E010250562FD
:1092600000E00662444D4561444D85613C25E56062
:109270003625C563342747640825056439276760A8
:1092800032272760AF24E40004601478022C03D056
:109290001278032A02D003E0466001E00B2242600C
:1092A000C824FF22C4602D328260A4000461344CC3
:1092B00084647D26F6004662324CC464324E866277
:1092C0000226466682660926C666304E06674567F0
:1092D0008267B210C2674C618B70CB80CB700B8100
:1092E0002C482B491F4A81602B49803A294B116138
:1092F0002A49803399622A49C1622A490163254873
:109300002949C0384163294901602249284A8039E6
:10931000CA62284A0A60284AC2601E4A274C403A5C
:109320009463274C1463274C5463274C4C61274C9F
:109330008C61274C0C62274CDC61274C1C62274B4C
:10934000D363274ACA61274981622749C1622749F5
:109350008163FDF783FBFDF791FBF8BD000CFF1F58
:10936000AC030020000CFF1F0010FF1F8020002016
:109370000A0400207E04000060E31600DC05000003
:1093800050C30000540B00006A180000204E00007B
:10939000E1A3FF1F0009FF1F695DFF1FEDACFF1F69
:1093A000215CFF1FD15AFF1F7198FF1F5963FF1FD8
:1093B000619BFF1FDD94FF1FAD65FF1F49B4FF1FB9
:1093C00025A7FF1F556DFF1F95A4FF1FF165FF1F08
:1093D000D99FFF1FF1B5FF1FF169FF1F816BFF1FB1
:1093E000F59AFF1F2DA1FF1FE99DFF1F4996FF1F43
:1093F00070B5114C88B0217E104B03AD00290BD005
:109400000E4980314968CAB2002102E01E786E54CC
:10941000491C9142FADB04E0197D012219786B4660
:109420001973E169002905D06B46187001951A720D
:109430006846884708B070BDAC0900200040004075
:109440003EB51B4A1178101D00292FD0117E00292E
:109450002CD0917E002929D00178022926D181883B
:1094600044888368091B89B2102900D9102100297A
:109470000BD0104C0A46491E89B2002A16D04288E9
:10948000551C45809A5C2270F4E70121017000218F
:1094900041808180D169002905D007486C460DC8FC
:1094A0000DC4684688470820FFF740FC3EBD000019
:1094B000AC09002000400040F0B7FF1F10B5192490
:1094C0002402428E01E0491E4184418C4B1C5343CF
:1094D000A34201DD0029F6D110BD0000F0B585B032
:1094E00054480290FBF7F2F8002856D00020019073
:1094F000FBF7F2F8302148434F4945184F482818E8
:10950000FF35FF3502350090A88A060A8707BF0F8E
:1095100044D048480446803060340390032F14D070
:10952000002E02D0207C002838D04548816D491C8F
:1095300081650398807B002800D00420301A80B217
:10954000FBF7D0F80190002831D00398807B0028E9
:1095500009D0361FF6B232463946009B0298FBF717
:10956000C7F8002828D0032F2ED035483246816B0B
:10957000491C816300990198FEF7A2FF1120205633
:1095800000902C483B46C07832460199FBF7B6F86C
:1095900000202861A882FBF7B7F83EE03D21029841
:1095A000FBF7B8F82648C16B491CC1633FE024486B
:1095B000016E491C01663AE00198FBF7B1F83D21C4
:1095C0000298FBF7A7F832E01D4E706B401C7063E9
:1095D000FBF79AF81B48007808280DD0009800780F
:1095E000032813D0062811D002280FD00D280DD043
:1095F000207C002805D009E000990298FBF796F836
:109600000BE00298E030007B002809D00099029816
:10961000FBF792F800202861A882012005B0F0BD78
:109620003D210298FBF776F8F06B401CF0630020B8
:10963000F4E700005C2AFF1FC42BFF1F1602000086
:109640000C31FF1FE511FF1FF8B504460A78FF3003
:109650002646274625460130E03660378035491CCE
:109660001300FAF7E7FD0D084BF865F5F5AE60BE9F
:1096700060B1BBDBF50008782870204602228230FA
:10968000491CFBF75FF80146204602228430FBF7B5
:1096900059F80146204602228630FBF753F801466E
:1096A000204602228830FBF74DF829780222490033
:1096B0002970698849006980A9884900A980298999
:1096C00009012981014620467E30FBF73BF87E20C8
