:020000041FFFDC
:10080000000000001D9FFF1F00C7FF1F24C7FF1F20
:1008100084CAFF1F0000000000000000000000006C
:1008200000000000000000000000000000000000C8
:1008300000000000000000000000000000000000B8
:1008400000000000000000000000000000000000A8
:100850000000000000000000000000000000000098
:100860000000000000000000000000000000000088
:100870000000000000000000000000000000000078
:100880000000000000000000000000000000000068
:100890000000000000000000000000000000000058
:1008A0000000000000000000000000000000000048
:1008B0000000000000000000000000000000000038
:1008C0000000000000000000000000000000000028
:1008D0000000000000000000000000000000000018
:1008E0000000000000000000000000000000000008
:1008F00000000000000000000000000000000000F8
:1009000000000000000000000000000000000000E7
:1009100000000000000000000000000000000000D7
:1009200000000000000000000000000000000000C7
:1009300000000000000000000000000000000000B7
:1009400000000000000000000000000000000000A7
:100950000000000000000000000000000000000097
:100960000000000000000000000000000000000087
:100970000000000000000000000000000000000077
:100980000000000000000000000000000000000067
:100990008586FF1F1987FF1FF9B5FF1F00000000A4
:1009A0000000000000000000000000000000000047
:1009B0000000000000000000000000000000000037
:1009C0000000000000000000000000000000000027
:1009D0000000000000000000000000000000000017
:1009E0000000000000000000000000000000000007
:1009F00000000000000000000000000000000000F7
:100A000000000000000000000000000000000000E6
:100A100000000000000000000000000000000000D6
:100A200000000000000000000000000000000000C6
:100A300000000000000000000000000000000000B6
:100A400000000000000000000000000000000000A6
:100A50000000000000000000000000000000000096
:100A60000000000000000000000000000000000086
:100A70000000000000000000000000000000000076
:100A80000000000000000000000000000000000066
:100A90000000000000000000000000000000000056
:100AA0000000000000000000000000000000000046
:100AB0000000000000000000000000000000000036
:100AC0000000000000000000000000000000000026
:100AD0000000000000000000000000000000000016
:100AE0000000000000000000000000000000000006
:100AF00000000000000000000000000000000000F6
:100B000000000000000000000000000000000000E5
:100B100000000000000000000000000000000000D5
:100B200000000000000000000000000000000000C5
:100B300000000000000000000000000000000000B5
:100B400000000000000000000000000000000000A5
:100B50000000000000000000000000000000000095
:100B60000000000000000000000000000000000085
:100B7000118AFF1F000000000000000000000000BC
:100B80000000000000000000996CFF1F0000000042
:100B90000000000000000000000000000000000055
:100BA00000000000ED4AFF1F000000008982FF1FC7
:100BB00000000000000000007582FF1F7F82FF1F01
:100BC0005D82FF1F00000000000000000000000028
:100BD0000000000000000000000000000000000015
:100BE0000000000000000000000000000000000005
:100BF00000000000000000000000000000000000F5
:0C0C000001FF01FF01FF01FF41000000A7
:020000041FFFDC
:1040000048DAFF1FD540FF1FDD40FF1FDF40FF1FC5
:1040100000000000000000000000000000000000A0
:10402000000000000000000000000000E140FF1F51
:104030000000000000000000E340FF1FE540FF1FFC
:104040000000000000000000000000000000000070
:104050000000000000000000000000000000000060
:104060000000000000000000000000000000000050
:104070000000000000000000000000000000000040
:104080000000000000000000000000000000000030
:104090000000000000000000000000000000000020
:1040A0000000000000000000000000000000000010
:1040B0000000000000000000000000000000000000
:1040C0000348854600F042F800480047AD9CFF1FBA
:1040D00048DAFF1F0448804704480047FEE7FEE730
:1040E000FEE7FEE7FEE7FEE7896CFF1FC140FF1F0A
:1040F00003460B439B0703D009E008C9121F08C001
:10410000042AFAD203E00B780370401C491C521EAB
:10411000F9D27047D2B201E00270401C491EFBD2B6
:1041200070470022F6E710B513460A4604461946C2
:10413000FFF7F0FF204610BD0321001D401E03784D
:1041400012021A43491EF9D510467047064C012544
:10415000064E05E0E36807CC2B430C3C984710342F
:10416000B442F7D3FFF7B0FF80C7FF1FD0C7FF1FD0
:1041700070B58C180578401C6B075B0F01D1037874
:10418000401C2A1106D10278401C03E006780E700C
:10419000401C491C5B1EF9D12B0705D40023521E7D
:1041A0000DD40B70491CFAE70378401CCB1A921C03
:1041B00003E01D780D70491C5B1C521EF9D5A1420D
:1041C000D8D3002070BD000003B40148019001BDA8
:1041D0007574000003B40148019001BD0FF40000A4
:1041E00003B40148019001BD41F4000003B401484B
:1041F000019001BDFD0E000003B40148019001BD16
:1042000061F2000003B40148019001BD8117000074
:1042100003B40148019001BDA916000003B4014890
:10422000019001BDF1F3000003B40148019001BD0C
:104230006116000003B40148019001BD4D66000005
:1042400003B40148019001BD5113000003B40148BB
:10425000019001BD3916000003B40148019001BD71
:104260005DF6000003B40148019001BD75F4000043
:1042700003B40148019001BD8913000003B4014853
:10428000019001BD5D2F000003B40148019001BD04
:10429000CDF9000003B40148019001BDF1F900001F
:1042A00003B40148019001BDD111000003B40148DD
:1042B000019001BD59F9000003B40148019001BD0E
:1042C0009D18000003B40148019001BDF1F1000008
:1042D00003B40148019001BD6117000003B4014817
:1042E000019001BDF117000003B40148019001BD28
:1042F0005114000003B40148019001BD691600008B
:1043000003B40148019001BD0915000003B4014840
:10431000019001BDC960000003B40148019001BDD6
:10432000B51F000003B40148019001BDE9BF0000C2
:1043300003B40148019001BD9D1E000003B4014873
:10434000019001BD991D000003B40148019001BD19
:104350001D1B000003B40148019001BDED1B0000CE
:1043600003B40148019001BD6506000003B4014893
:10437000019001BD21FA000003B40148019001BD84
:10438000C11F000003B40148019001BD89F2000083
:1043900003B40148019001BD49F4000003B4014891
:1043A000019001BDC9F6000003B40148019001BDB0
:1043B000C520000003B40148019001BDD5410000B3
:1043C00003B40148019001BD2141000003B401483C
:1043D000019001BDE9FB000003B40148019001BD5B
:1043E00055DD000003B40148019001BD89DF0000E4
:1043F00003B40148019001BD75E0000003B4014819
:10440000019001BDE1DE000003B40148019001BD4F
:1044100035E1000003B40148019001BD29E400002A
:1044200003B40148019001BD69E5000003B40148EF
:10443000019001BD91E0000003B40148019001BD6D
:10444000E1E2000003B40148019001BDF1E2000087
:1044500003B40148019001BDCDE6000003B401485A
:10446000019001BD09E9000003B40148019001BDBC
:10447000E1E7000003B40148019001BDB5DF000091
:1044800003B40148019001BD6102000003B401487A
:10449000019001BD6DDF000003B40148019001BD32
:1044A00085E0000003B40148019001BDD1E50000A2
:1044B00003B40148019001BDCDDF000003B4014801
:1044C000019001BD1DE0000003B40148019001BD51
:1044D000CDE0000003B40148019001BD31E20000CD
:1044E00003B40148019001BD49E7000003B401484D
:1044F000019001BD1DDB000003B40148019001BD26
:104500002DCF000003B40148019001BDA90B0100AB
:1045100003B40148019001BD5D0B010003B40148E3
:10452000019001BD690B010003B40148019001BD78
:10453000250E010003B40148019001BDF5E3000020
:1045400003B40148019001BD21E3000003B4014818
:10455000019001BD15E3000003B40148019001BDC5
:10456000C1E0000003B40148019001BD6DDD000011
:1045700003B40148019001BDF1DE000003B401481D
:10458000019001BDC54F000003B40148019001BD79
:104590008574000003B40148019001BD0959000071
:1045A00003B40148019001BD15F2000003B40148B5
:1045B000019001BDFDF6000003B40148019001BD6A
:1045C000C5F9000003B40148019001BDDD7400008D
:1045D00003B40148019001BD890D010003B40148F5
:1045E000019001BDD576000003B40148019001BDE2
:1045F0000D34000003B40148019001BD45C0000026
:1046000003B40148019001BD9107000003B40148C3
:10461000019001BD691B000003B40148019001BD78
:10462000BD07000003B40148019001BD610700000F
:1046300003B40148019001BDF90D000003B4014825
:10464000019001BD290D000003B40148019001BD96
:104650003107000003B40148019001BD7919000041
:1046600003B40148019001BD010D000003B40148ED
:10467000019001BD6F21000003B40148019001BD0C
:104680005D0D000003B40148019001BD990D0000CB
:1046900003B40148019001BDD10D000003B40148ED
:1046A000019001BD410E000003B40148019001BD1D
:1046B0003975000003B40148019001BD8D750000FB
:1046C00003B40148019001BD8572000003B40148A4
:1046D000019001BDE52C010003B40148019001BD2A
:1046E0007D9E000003B40148019001BDF59E0000CD
:1046F00003B40148019001BDF94C000003B4014826
:10470000019001BDA53D000003B40148019001BD29
:104710005D52000003B40148019001BD552B01001A
:1047200003B40148019001BDB1C2000003B40148C7
:10473000019001BDF1F0000003B40148019001BDFA
:10474000C5C5000003B40148019001BD0DC70000BC
:1047500003B40148019001BD0BC5000003B401483A
:10476000019001BD3942000003B40148019001BD30
:10477000F140000003B40148019001BDC1400000B8
:1047800003B40148019001BD5D41000003B401483C
:10479000019001BD95C3000003B40148019001BD23
:1047A0001DC3000003B40148019001BD6D45000028
:1047B00003B40148019001BD753C000003B40148F9
:1047C000019001BD7DCE000003B40148019001BD00
:1047D00071D7000003B40148019001BD99D70000D2
:1047E00003B40148019001BDB943000003B401487E
:1047F000019001BD3D44000003B40148019001BD9A
:10480000E1D5000003B40148019001BD7DD2000054
:1048100003B40148019001BD7D4E000003B401487E
:10482000019001BD95DA000003B40148019001BD7B
:104830004D4F000003B40148019001BDE9CF0000D5
:1048400003B40148019001BD3DD8000003B4014804
:10485000019001BD89D4000003B40148019001BD5D
:104860005DD6000003B40148019001BD3DC40000C5
:1048700003B40148019001BDB551000003B40148E3
:10488000019001BD3D0D010003B40148019001BD3F
:1048900055E5000003B40148019001BDBD9E000034
:1048A00003B40148019001BDF5C4000003B4014800
:1048B000019001BD3D3F000003B40148019001BDDE
:1048C00025C2000003B40148019001BD17C40000D7
:1048D00003B40148019001BDF7C2000003B40148D0
:1048E000019001BD01C4000003B40148019001BD65
:1048F000D938000003B40148019001BDDBC20000BB
:1049000003B40148019001BDE1C1000003B40148B6
:10491000019001BD41CF000003B40148019001BDE9
:10492000199F000003B40148019001BDC9C50000F2
:1049300003B40148019001BD8DC9000003B40148D2
:10494000019001BD39CD000003B40148019001BDC3
:1049500035D3000003B40148019001BD695900003E
:1049600003B40148019001BD1500010003B40148E2
:10497000019001BD59C5000003B40148019001BD7B
:1049800099C4000003B40148019001BDD54A00005C
:1049900003B40148019001BD3D29000003B4014862
:1049A000019001BD9534000003B40148019001BDA0
:1049B0006913000003B40148019001BDE11D00002E
:1049C00003B40148019001BDB55E000003B4014885
:1049D000019001BD65B7000003B40148019001BD1D
:1049E000D5F6000003B40148019001BDDDFB0000D5
:1049F00003B40148019001BD999E000003B4014831
:104A0000019001BDED75000003B40148019001BDA6
:104A10003903000003B40148019001BD01AF00005B
:104A200003B40148019001BD71B0000003B4014816
:104A3000019001BDADE5000003B40148019001BD46
:104A400005B0000003B40148019001BD8D020000D3
:104A500003B40148019001BD3DE4000003B40148E6
:104A6000019001BD09E3000003B40148019001BDBC
:104A700015E4000003B40148019001BDBF2E010000
:104A800003B40148019001BD01E4000003B40148F2
:104A9000019001BD7DE5000003B40148019001BD16
:104AA000D100010003B40148019001BDD1EB000029
:104AB00003B40148019001BDF50D010003B40148A4
:104AC000019001BD2D68000003B40148019001BDB3
:104AD000B90D010003B40148019001BDFDE20000E1
:104AE00003B40148019001BDE9E3000070B572B65E
:104AF0001A4D28691A4CC00707D02846FFF764FBF7
:104B00002168002901D001208847686AC00708D0C1
:104B100012481430FFF758FB2168002901D0022009
:104B20008847A86BC00708D00C482830FFF74CFB1B
:104B30002168002901D00320884708484030C06818
:104B4000C00708D005483C30FFF73EFB216800292C
:104B500001D00420884762B670BD000000100040FC
:104B6000ECCCFF1F10B5034A1321034800F0AEFD43
:104B700010BD0000CCC6FF1FE4C7FF1F10B5002406
:104B80001346002802D00224204610BD0A461946CA
:104B90000148FFF71FFBF7E7DBC7FF1FFFB599B021
:104BA0000026079607AA089600F098F805460A28F6
:104BB0007CD204460620444320462030C0B26A46D8
:104BC0000E2105F083FA002802D168468089C6B21A
:104BD0001B984149099009781C98022913D000219B
:104BE0001791082811D020462130C7B21C2200217D
:104BF0006846FFF7F5FA6A461C21384605F066FA62
:104C0000002805D010E00121EAE720462230ECE739
:104C10006846807EC01F092806D8F107C90F6A467A
:104C2000179B0998FFF7E2FA142200210BA8FFF75F
:104C3000D7FA20462430C0B20BAA102105F046FA5C
:104C4000002812D11022FF210BA8FFF7D5FA002867
:104C50000BD12534E0B20FAA042105F037FAF10791
:104C6000C90F0BAA1B98FFF7CDFA7035E8B210AA4E
:104C7000102105F02BFA002811D110A802F097FBA3
:104C8000002410ADA00040190188002903D08278CB
:104C90001B9800F077FD641CE4B2042CF2D3B0073B
:104CA00004D50D48017B1B9800F05AFD1C98042880
:104CB0000FD10949087802280BD10A791B98002ADC
:104CC00000D001224978002900D004211143FFF7C8
:104CD0009FFA00201DB0F0BD1CC9FF1FF0B50A24CB
:104CE00085B016460F46002807D0012805D00A25B2
:104CF000022810D0032847D11FE0084602F024FB09
:104D000004460A2840D2002E3ED0062239463046BC
:104D1000FFF760FA38E01E4F002400910E20604338
:104D2000C0190622801D0099FFF778FA002823D1C8
:104D3000641CE4B20A2CF1D31CE0002420460621B6
:104D400048432330C0B26A46102105F0BFF900285D
:104D50000CD11022FF216846FFF74EFA002805D13A
:104D600039466846FFF760FA002805D0641CE4B2B3
:104D70000A2CE3D32C4607E00A2C05D2002E03D0E0
:104D80003146204602F0F8FA204605B0F0BD00009A
:104D9000A0CDFF1F70B50C460146032000020A1A81
:104DA000002534481300FFF745FA1D1012151C1F8B
:104DB0002326282C303234383A3C3E404244464880
:104DC0004A4E50525A5456585A00C07911E0102297
:104DD000294902E02849102210312046FFF7FAF94C
:104DE00045E0C06A206042E0224906223C31F4E7F7
:104DF000007820703BE0808936E01E4942784231DD
:104E0000EBE71D4982781F39E7E7007AF1E7407A3E
:104E1000EFE7184906223031DFE7807AE9E7C07A08
:104E2000E7E7C08920E0808A1EE0C0781CE0C08AE5
:104E30001AE0008B18E0408B16E0808B14E00D49DF
:104E400006223631C9E7C08B0EE0008C0CE0408CA6
:104E50000AE08079CDE7008A06E0408A04E027294D
:104E600004D20846FFF7ECF9208000E0022528462E
:104E700070BD0000C4C9FF1F6BCEFF1F70B50E4C84
:104E800000256071A571691EE181FFF7DFF904203B
:104E9000E071102200210948FFF7A2F9074810220B
:104EA00000211030FFF79CF9E56225726572012040
:104EB000A072E57270BD0000C4C9FF1F6BCEFF1F5A
:104EC000FEB53B4D0C4608040CD56879FFF7C4F9D4
:104ED000050004D002F074FB2846FFF7C3F9012057
:104EE000C00360E0600403D5012080034840FEBD9C
:104EF0002F48E1070126807900292AD02978002946
:104F000020D0052821D0297A68460170697A41703D
:104F1000274906223031801CFFF75CF9A97A6846E0
:104F20000172E97A417269466879FFF7A1F90028B0
:104F300008D00720A871696A002903D009680029F0
:104F400000D0884720467040FEBD032069460870A7
:104F5000E4E7A1070DD5052809D1E889FFF78EF907
:104F6000AA8A002A03D002216879FFF78DF902206E
:104F700019E0600704D5002002F062FB042012E073
:104F8000200712D52879012802D002280AD107E08B
:104F90000096AB8B6A8B298BE88A00F00BF801E056
:104FA00000F05AF908206040FEBD0020FEBD000060
:104FB000C4C9FF1FF8B5134C069EA579052D01D075
:104FC0001420F8BD104F851FBD4219D2062917D3F2
:104FD000BD1DA94214D2FF27F537BA4210D20A2BC1
:104FE0000ED3AB420CD2E08221836283A38330468E
:104FF00002F026FB04216079FFF74CF90020F8BD90
:105000001820F8BDC4C9FF1F7A0C0000F7B50D4683
:1050100080490098164642187F4F00247879B97964
:105020001300FFF707F9190E141BE92040455970CA
:10503000777E888FE996A2A9B4BFC8E9E9E9E9D3E8
:10504000E900102D76D11022314674486FE0102D02
:1050500070D1724810223146103068E0042D69D1B9
:105060003068F862CEE0012D64D13B7832783A7036
:10507000002B0AD0002A07D1022903D0062901D02B
:10508000042901D1FFF70CF9BCE0002A0AD001295C
:1050900005D0032903D0052901D0042902D101211B
:1050A000FFF704F9AEE0022D44D13088B881A9E0C1
:1050B0001F2D3FD858481F2200214230FFF790F89B
:1050C00055482A4631464230FFF784F8524B7D70EE
:1050D00042332A46012112E01F2D7CD84F481F225F
:1050E00000211F38FFF77CF84C482A4631461F380C
:1050F000FFF770F8494B2A461F3BBD7000217879B5
:10510000FFF7DAF883E0012D65D13078042862D802
:10511000387277E0012D5ED1307803285BD8787241
:1051200070E0062D57D13C48062231463030FFF75B
:1051300051F867E04FE0012D4DD1307807284AD86B
:10514000B8725FE0012D46D13078032843D8F87259
:1051500058E0022D3FD13288BA82002A52D0052968
:1051600050D10221FFF790F84CE0012D33D1307877
:10517000012830D8F87045E03088022D2BD1062860
:1051800029D31921C901884225D8F8823AE030880C
:10519000022D20D106281ED31921C90188421AD810
:1051A00038832FE03088022D15D1FF21F531884258
:1051B00011D2788326E03088022D0CD10A280AD338
:1051C0001921C901884206D8B8831BE03178012D26
:1051D00001D1012901D0182414E00821FFF772F849
:1051E000002801D016240DE0002002F029FA042145
:1051F0007879FFF74FF805E00098272801D2022DB3
:1052000002D002242046FEBD3188FFF761F8044633
:10521000F8E70000FFFCFFFFC4C9FF1F6BCEFF1FB4
:105220001CB50B4CA179002901D011201CBD002810
:1052300000D06062064907482C3103460191009076
:10524000103B0022E179607900F016F800201CBDC7
:10525000C4C9FF1F7BCEFF1F10B506488179052901
:1052600001D0122010BDC18913224079FFF736F812
:1052700010BD0000C4C9FF1FF8B51D460224069FDB
:10528000079E0B00FEF7D6FF051104111104110053
:10529000FFF72AF8040008D1324639462846FFF7BE
:1052A00029F8FFF72DF8FFF731F82046F8BD000088
:1052B000014610B50020C90704D0034A0421034861
:1052C00000F004FA10BD0000F4C6FF1F40CAFF1F23
:1052D00010B5002309E01C012418E468944202D1AF
:1052E0001901081810BD5B1C9BB28B42F3D3002040
:1052F00010BD000070B50F4D0F4CA870294610313D
:10530000204600F01DF8002128460B460830CA0050
:1053100084521218491C09065360090EF7D0142054
:1053200002F068FDA878FEF7F7FF0448FEF7FAFFE1
:1053300070BD000028CAFF1FFFFF00000D77FF1F90
:1053400070B50A4C0025A04209D1002082008C5281
:105350005218401CC0B295700228F7D370BD02F0FD
:10536000A4F90028FAD00480857070BDFFFF00000A
:10537000F8B50E460746069900240798002902D082
:105380000B242046F8BD022B01D00D24F9E711783B
:105390005278120289188DB22946814301D08024A7
:1053A000EFE73846F16800F089F9A842E9D02A46CB
:1053B0003846F16800F012FA0400E2D171892A46F9
:1053C000384600F0B1F9DCE7FFB5064600208FB0A3
:1053D000224F05460D90A80084192088B84236D087
:1053E000A078002833D0109A18991298FFF770FF10
:1053F000039000282BD005A8023014210090002231
:10540000029112980192428905AB208803330399D7
:1054100000F042F800281AD1039869464089888232
:10542000A078C00707D0208805A9119AFEF780FF51
:105430000D9908430D90A078800708D5208805A90C
:10544000199B119AFEF77AFF0D9908430D906D1C78
:10545000EDB2022DBFD30D9813B0F0BDFFFF0000D9
:1054600070B50C46080412D50A488078FEF7F4FEA1
:10547000050008D02878B02802D1284602F026FA84
:105480002846FEF7EFFE0120C003604070BD0020FB
:1054900070BD000028CAFF1FFFB587B0087A00253D
:1054A000109E1C460F46C0060DD5099802F0F6F86E
:1054B000030006D00A22394607989847050035D1DF
:1054C00001E00E2532E0387802281DD178682922C3
:1054D0000178407812020002081880B2811A9042C6
:1054E0007ED009DC7249401A23D0012821D002283D
:1054F00051D0032808D125E0012972D0022971D0AA
:1055000003296DD004296ED0099802F0EFF8002825
:10551000D7D00568002DD4D0129911980191009030
:105520003346224639460798A847054628460BB019
:10553000F0BD1198002873D1F868017831700278B5
:10554000416897E0119800286AD101203070F8680E
:105550000021007820707889401C80B2FEF7F4FEAC
:1055600000280FD0317802788918891C3170817A2F
:1055700061704189090AA17002784168E01CFEF758
:1055800029FED3E730780422001D30700021601C12
:10559000FEF726FECAE71198002872D1F86804A920
:1055A0000088009004203070009820700098000A55
:1055B00060700098FEF7C8FE070028D0F8680590D4
:1055C0006846028A03AB3B493846FEF7C3FE002813
:1055D0000FD13B78022138487A68FEF7C1FE03E01C
:1055E00027E031E01DE049E0002802D1314869465A
:1055F00088810598007802280CD10598022241681C
:10560000201DFEF7E7FD3078801C307002E069460F
:105610000098888168468089A070000AE07085E75C
:105620002FE0119800282CD1F968079800F046F86F
:1056300004E01198002824D1F86800880221317014
:105640002070000A607071E7F868FEF78FFE11990C
:10565000C0B2814210D8814201D1002206E0129AE4
:105660008918814202D31199401AC2B23270F96886
:1056700011980918204682E7072557E71198002856
:1056800001D00B2552E70721F868317001782170AD
:10569000417861708178A1704188090AE1700179CF
:1056A000217181796171C088000AA0713EE7000014
:1056B00000280000FFFF0000DA2F010010B501F004
:1056C000F4FF002800D0807810BD00007CB514469F
:1056D000050019D0684601950180FEF74DFE0300D4
:1056E0001DD1002C1BD06D89002D0DD00C20FEF794
:1056F00049FE00280AD0002303608580094A84609F
:105700005168002904D006E0022308E0132306E0D4
:10571000506004E011460A68002AFBD10860184670
:105720007CBD000028CAFF1FF8B50C4C0746207846
:1057300015460E46FF280FD00A20FEF729FE01006D
:105740000AD0B12008700020487008714F80CE80C8
:105750000D812078FEF722FEF8BD000028CAFF1F49
:1057600070B50C4605460649FFF7A8FF800704D52B
:1057700021462846FEF718FE70BD012070BD0000CE
:1057800038CAFF1F1CB56B461A71120A5A710022E3
:105790000092022301AA00F001F81CBDFFB583B0FE
:1057A00008461E4601A90C9FFEF7CEFD050012D04B
:1057B0006846808801F09AFF00280AD04468002CCF
:1057C00007D00097F3B22946059A0398A04707B07F
:1057D000F0BD0E20FBE70120F9E7000070B514468C
:1057E0000E46054601F061FF002806D13146054806
:1057F00001F05BFF002803D005808470002070BD9D
:10580000112070BDFFFF0000014610B50020C90740
:1058100004D0034A07210348FFF758FF10BD0000DA
:10582000E0C6FF1F50C9FF1F70B50D461646002485
:105830001D490300FEF7FEFC08051234341934221A
:105840002934152D23D8162200211848FEF7C8FC4C
:105850002A4631461548FEF7BDFC22E0022D16D13E
:1058600011491088103908801BE0082D0FD10E480F
:10587000082231460838FEF73BFC12E0012D06D124
:10588000CA6909493078283107E0012D01D0182470
:1058900007E0CA6B04493078483102F074FB00E03D
:1058A0000224204670BD000050C9FF1F36CEFF1FE6
:1058B000074A9278002A04D04A1E114203D01220CF
:1058C000704702207047034AD07011810020704752
:1058D0005C2AFF1FF4CCFF1F05490028C96801D0CE
:1058E000082000E00420486588650020704700001B
:1058F000F4CCFF1FFFB504464E4F81B00020386046
:1059000020461D46BF30FEF755FD4B482646007821
:10591000B23680340828A06E32462CD00121FEF722
:105920004FFD444F3078F863761C3046FEF704FC98
:1059300000BA000AF17800020843B863361D304609
:10594000FEF7FAFB00BA000AF17800020843786318
:10595000361D3046FEF7F0FB00BA000AF17800026F
:10596000084338630398010202980143F960039FDA
:1059700000263F1D0EE00021D1E7A819401CFEF7CC
:10598000DBFB0102A85D01432C4830180160361D85
:10599000F6B23F1F042FF0DA032F04D0022F08D0F5
:1059A000012F0FD014E0A819FEF7C6FB0102090A67
:1059B00009E0A91948780978000208431F497118BD
:1059C000086003E0A95D1D4830180160361DF6B27D
:1059D00000211A4A02E0B0180160361DFF2EFADDE0
:1059E0001448174B43600F2303610123036043698D
:1059F000002BFCD0436901600020039B11E081185B
:105A000009682954401CC0B20E0A2E54401C0E0CCA
:105A1000C0B22E54401CC0B2090E2954401CC0B262
:105A20001B1F002BEBDCA06E401CA066012005B004
:105A3000F0BD000000000440E511FF1F000104401C
:105A4000080F0000FFB504464D4F81B000203860BC
:105A500020461D46BF30FEF7ADFC4A48264600787A
:105A6000B23680340828606E32462BD00021FEF713
:105A7000A7FC434F3078F863761C3046FEF75CFB9A
:105A800000BA000AF17800020843B863361D3046B8
:105A9000FEF752FB00BA000AF1780002084378636F
:105AA000361D3046FEF748FB00BA000AF1780002C6
:105AB000084338630398029900020843F8600026FF
:105AC000039F0EE00121D2E7A819401CFEF734FB2A
:105AD000A95D000208432C4971180860361DF6B212
:105AE0003F1F042FF0DA032F04D0022F08D0012F1C
:105AF0000FD014E0A819FEF71FFB0102090A09E004
:105B0000A91948780978000208431F4971180860EC
:105B100003E0A95D1C4830180160361DF6B2002173
:105B2000194A02E0B0180160361DFF2EFADD0F237E
:105B300013481B0243600F23036101230360436981
:105B4000002BFCD0016003980023001D11E0991880
:105B50000968E9545B1CDBB20E0AEE545B1C0E0CA8
:105B6000DBB2EE545B1CDBB2090EE9545B1CDBB20A
:105B7000001F0028EBDC606E401C606605B0F0BDC5
:105B800000000440E511FF1F00010440F0B589B09A
:105B9000FEF71CFCFE4908600420FEF71DFCFEF722
:105BA00021FC0446C00712D0FA490020086072B6F2
:105BB000FEF71EFCF849F94DF94E02280BD00128DA
:105BC0007ED0F84F05287CD004287BD0ADE2FEF7CC
:105BD00015FC09B0F0BD08780F46012806D003284F
:105BE00004D0022802D005286DD09EE20720FEF7DF
:105BF000F3FB08AB07AA06A9EB48FEF705FCEA4948
:105C00003439898E0B074906CA0FE7491B0F34390F
:105C10000C46403420319446002801D0032B05D097
:105C2000052B6ED0387801286CD081E238780128B5
:105C300001D00328F9D1D94843695B1C4361DB4B90
:105C4000087FDD79A842F0D1487F1D7AA842ECD1C7
:105C5000887F5D7AA842E8D1C87F9D7AA842E4D1C6
:105C60002078DD7AA842E0D160781D7BA842DCD1A3
:105C7000F5680020AD8D2D072DD5DB7B012B01D0E4
:105C8000032B28D1C3001F1AC94BDD5D95421DD1DE
:105C9000FB188D7D5F78BD4218D1CD7D9F78BD42C8
:105CA00014D10D7EDF78BD4210D14D7E1F79BD42EB
:105CB0000CD18D7E5F79BD4208D1CD7E9B7903E00A
:105CC000E5E0E6E02EE2E0E09D4202D0401C08283C
:105CD000D8DB082817D0B14D686D401C6865706C22
:105CE000002802D0804700289FD0FEF793FB0127B1
:105CF0007770FEF76BFBA6490968884208D9401AFD
:105D000009E02CE0AFE0A548016A491C01620FE2FE
:105D1000A84A511A0818F16876230A79181A801AC5
:105D20004A6C096CD2B2C9B2C0B2FEF779FBFEF779
:105D30007DFB9848076000207070FEF77DFBFEF742
:105D400081FBA08C010A9848891C3030FEF780FB4B
:105D50000E20FEF741FBA869401CA861E8E13F78EE
:105D6000012F01D0022FD2D1E869401CE8618F4891
:105D70000B7FC0798342CAD18C484B7F007A834223
:105D8000C5D18A488B7F407A8342C0D18748CB7F78
:105D9000807A8342BBD185482378C07A8342B6D1CA
:105DA0006078824C237B9842B1D1F0680023808DCB
:105DB000000726D5E07B022801D0032821D1D80096
:105DC000C61A7B48845D944218D130188C7D467881
:105DD000B44213D1CC7D8678B4420FD10C7EC67804
:105DE000B4420BD14C7E0679B44207D18C7E467901
:105DF000B44203D1CC7E8079844202D05B1C082B54
:105E0000DDDB6D48022F1AD10478644527D18A7DE5
:105E10004478A24223D1CA7D8478A2421FD10A7E4F
:105E2000C478A2421BD14A7E0479A24217D18A7E4D
:105E30004479A24213D1C97E827991420FD1082BB5
:105E40000DD0696D0622491C69656146017056498D
:105E5000401C891CFEF7BEF9FEF700FB68E1686A8A
:105E6000401C686264E15149487BC20701D025208B
:105E700004E0800701D5262000E02720097D81422B
:105E8000ECD93220FEF7F0FA52E107204EE106206D
:105E90004CE10878072879D10B20FEF79DFA41499B
:105EA000FF22097825325143444A00208B1858704C
:105EB000505443480068002805D0FEF7DBFA4049FB
:105EC0000978C84005E0FEF7D5FA3E490968FEF7B3
:105ED000D7FA0746E00535D539480068002805D0CF
:105EE000FEF7D4FA36490978C84005E0FEF7CEFA45
:105EF00034490968FEF7C4FA2A4B00901878FF214C
:105F0000253148432D4940180279002A01D000224A
:105F10000271234A7130121D911D05F055FBF16885
:105F20000098C968381A411827480160600526D5CD
:105F30001C49FF22097825325143204A0120891843
:105F400048701CE01748FF22007825321B4B0121C6
:105F500050431954296DFF3F491C2965F1680F3FD3
:105F60000969C018CA19184920300A60407E4100EA
:105F700016480818FF300130018D491C0185204664
:105F8000009903F0FFFDFEF787FA21E0CDE0000065
:105F90001C12FF1F1812FF1FE511FF1F0C31FF1FFE
:105FA000F4CCFF1F1512FF1FF82BFF1F442AFF1F01
:105FB000892BFF1F40420F000C12FF1F5C2AFF1F9E
:105FC0002410FF1F2010FF1F2012FF1F20D4FF1FCF
:105FD0006149074608700020087248728872C872CA
:105FE0005E48044202D0E86C401CE8645C48FF2232
:105FF0000078253250435B4A57498318D81DF93041
:10600000827C06928A1DFF33C07C491C1333FEF745
:1060100049FA02465248FF21007825314843514948
:106020004018C11DF931CA740279002A0CD102232B
:10603000069A897C1A4019408A4205D046494A7816
:10604000002A01D101224A70474949688E22090479
:10605000090E0391125C002A02D0AA6ED219AA6618
:106060002030407E414D40004019C030C18BC919DD
:10607000C183FEF71DFA01463948FF220078253218
:106080005043384A80182030407E4000401980300C
:10609000828A8918818207AA05A904A8FEF70EFA48
:1060A0002F48FF210078253148432E4940182030E1
:1060B000407E694640002A5A097D511829524019EC
:1060C000403069464289097C51184181600705D5F5
:1060D0000398874202D23846FEF7F6F9FEF7FAF93E
:1060E0001D480021224B81701A78012A0CD1002F03
:1060F0000AD0204A1469002C03D0127DD2439207A3
:1061000002D00122827019708079002801D0FEF738
:10611000E7F9FEF7EBF9F078002809D03189FEF7AE
:10612000C5F805E00878082809D00520FEF754F9DD
:10613000FEF764F962B60320FEF74EF949E53878B8
:10614000FF212531484307490B4A4018911D713002
:1061500005F03AFA0920E9E78031FF1F0208000044
:106160001512FF1F5C2AFF1F0010034020D4FF1FE1
:106170001312FF1F442FFF1FF8CCFF1F10B5084A52
:106180000346908E000A0C38C0B2002105E0541876
:106190004034A4785C54491CC9B28142F7D310BD85
:1061A000C42BFF1F054A0021531820339B7D435405
:1061B000491CC9B20629F7D370470000C42BFF1F42
:1061C00042000B48835A10180B804A22125A4A8008
:1061D0009422125A8A80DE22125ACA80FF22293261
:1061E000125AFF300A814130408E488170470000CA
:1061F00020D4FF1F10B5FF22BD3200210148FDF75A
:10620000EFFF10BD20D4FF1F014948647047000014
:10621000F4CCFF1F024A1018603001737047000071
:10622000C42BFF1FF8B58E4F079CBE1D9C460D4624
:10623000002A1FD0012A05D0032A0ED0022A0CD032
:10624000042A59D1002C57D00699002901D00129E0
:1062500052D1032A01D0022A0AD10146814BA0392A
:10626000994249D2A02D47D3012189038D4243D8B9
:10627000002A0BD17B4B01462039803399423BD217
:10628000202D39D3012189038D4235D8854233D35E
:106290006146002901D001292ED10999002905D094
:1062A000012903D0022901D0032925D108994907E2
:1062B00022D06D4B9988012920D09A7308994907FB
:1062C000490F59731CD06849099BCB736346002B57
:1062D0001BD001238B713378CB7173780B72B37839
:1062E0004B72F3788B723379CB7273790B73012A0B
:1062F00019D0042A28D036E01220F8BD0C20F8BDB1
:106300005948072141733020F8BD00238B713B7839
:10631000CB717B780B72BB784B72FB788B723B79BD
:10632000CB727B79E2E75148069B03702378437078
:1063300063788370A378C370E37803712379437122
:106340006379837102200EE0484B069E1E7026780A
:106350005E7066789E70A678DE70E6781E7126798B
:106360005E7164799C7148801300FDF763FF05043A
:10637000060A08060B00002504E0012502E00225BC
:1063800000E006253A4E8A79B0880C4600090001E3
:1063900028434023910198430143D0018022914337
:1063A0000843B0800622E11DB01DFDF713FF3746FC
:1063B0004037B88CA179000900014022001D9043AC
:1063C00089010143B98430460622E11D6630FDF79C
:1063D00001FFA07C0321000249024118B2883F203E
:1063E00000028243114389B2B180012D12D1814351
:1063F000032080020818B0801C49BB8C08788022DA
:106400009343C0011843B884304606220C30491C1F
:10641000FDF7E0FE1748017808291AD0072918D09F
:10642000A17B0B00FDF706FF050408100C08170000
:10643000012101701F200AE002210170202006E0E6
:1064400004210170222002E0032101702120FDF7C8
:10645000C3FF0020F8BD002101701E20F7E70000F7
:10646000F911FF1F613F0000442AFF1F0C12FF1F9C
:10647000C42BFF1FE511FF1F10B50E480E4B02780D
:10648000FF20253042430021D018FF24C17013346F
:10649000215499540123024603716032937113749D
:1064A0002023816119548E2319545174052181814F
:1064B00010BD00001512FF1F5C2AFF1FFEB572B64B
:1064C0005548C068476D866D082F01D8002F00D150
:1064D0000427082E01D8002E00D104264F48504D25
:1064E000816C504C491C81642878FF212531484338
:1064F00000192030407E41004B480818FF304130E1
:10650000418E491C4186FDF7F7FFFDF795FFFDF72A
:1065100099FF2878FF21253148430019806AFDF74B
:10652000F1FF2878FF21253148430019406AFDF723
:10653000EFFF2878FF212531484300192030407EA5
:10654000FDF7ECFF2878FF21253148430019203062
:10655000407EFDF7E9FF2978FF20253041430819E7
:106560000279002A0BD02E21095C304A4069514340
:10657000400009182848C068C06F081815E0615C21
:106580000029254909D0CA684069096C1369401877
:106590005B0040001818D16C06E0C9684069CA6801
:1065A00040005200C96C10184018FDF7C3FF1A4D87
:1065B000E868806CFDF7C4FFE868416CCAB2016C02
:1065C000808FC9B2C0B2FDF72BFF0420FDF7BEFFDC
:1065D0000720FDF7C1FF02A93846FDF7C3FF694652
:1065E0000989C2B201250E48019100950078FF216A
:1065F000253148430019FF300130817CF3B230204F
:10660000FDF7B6FFFDF712FF0948056062B61420DA
:10661000FDF7E2FEFEBD0000F4CCFF1F0C31FF1FB2
:106620001512FF1F5C2AFF1F20D4FF1F71020000FC
:106630001812FF1FF0B591B016A003F01FFE164D03
:106640002878012805D0032805D0022808D013A0F7
:1066500002E018A000E01CA003F010FE11B0F0BD95
:106660001EA003F00BFE00246F462E19717820A0A7
:1066700003F004FE70783855641C402CF5DB0020D4
:1066800010A9087003A003F0F9FD694619A003F0F2
:10669000F5FDE3E70A00000004D6FF1F5B4348490D
:1066A000505F494420554E434845434B45445D0A9D
:1066B000000000005B434849505F494420454D506D
:1066C00054595D0A000000005B434849505F49444B
:1066D00020494E56414C49445D0A00005B434849FD
:1066E000505F49442056414C49445D0A0000000077
:1066F000257800002573000070B510A003F0BEFDE2
:106700000F4D2878012805D0032805D0022807D08E
:106710000CA002E011A000E015A003F0AFFD70BDD9
:1067200019A003F0ABFD0024281941781BA003F049
:10673000A5FD641C062CF7DB00A0EEE70A000000B4
:1067400087CDFF1F5B434849505F4D414444522071
:10675000554E434845434B45445D0A005B43484919
:10676000505F4D4144445220454D5054595D0A00FC
:106770005B434849505F4D4144445220494E564185
:106780004C49445D0A0000005B434849505F4D415D
:106790004444522056414C49445D0A002530327829
:1067A0000000000010B50BA003F068FD0AA003F084
:1067B00065FD0C490CA003F061FD0CA003F05EFD2B
:1067C000084909A00C3103F059FD02A003F056FD61
:1067D00010BD00000A00000050415443485F4C497E
:1067E000423A000068C7FF1F257300002020000008
:1067F000002805DBC106C90E012088400149086058
:106800007047000000E100E08307FF22DB0E9A40A2
:106810008907090E9940002808DB830809489B0076
:106820001B18186890430843186070470007000F52
:106830000838830804489B001B18D8699043084314
:10684000D861704700E400E000ED00E08307FF221C
:10685000DB0E9A408907090E9940002808DB83085F
:1068600009489B001B18186890430843186070473C
:106870000007000F0838830804489B001B18D869DC
:1068800090430843D861704700E400E000ED00E069
:1068900070B55F4C8CB0607203F016FD5D48FFF779
:1068A000B3FC06211F20FDF713FD0121684601728C
:1068B000017307210174002585821821818319261F
:1068C00076010684FF218584F531018552A003C835
:1068D00000905348019101786846017606AA01218B
:1068E0005048FEF793FB4F486A460621801CFEF78E
:1068F0008DFBC32004AA01218000FEF787FB4948D5
:1069000002AA0121001FFEF781FB464805AA0221C9
:10691000C01EFEF77BFB2246612030321C21C000E6
:10692000FEF774FB3F4822464C321E21801EFEF7C4
:106930006DFB312003AA01210001FEF767FB3948F6
:1069400007AA02210830FEF761FB364808AA022197
:106950000930FEF75BFB334809AA02210A30FEF733
:1069600055FBC5200AAA02218000FEF74FFB2246F4
:106970006A3215210020FEF757FF31460620FDF749
:10698000A7FC31460720FDF7A3FC31460820FDF7A0
:106990009FFC31460920FDF79BFC6E1E3046FEF73A
:1069A00033FF3046FEF784FCFEF7DCF8304600F09B
:1069B000D5F81DA00FC86E460FC61F496846018254
:1069C0001E4981830F21017505766A46102100203A
:1069D00000F016F904AA0221012000F011F90221A9
:1069E00007AA084600F00CF905AA0121032000F0CF
:1069F00007F906AA0121042000F002F92046103010
:106A000000F0F4F80121607AFDF750FC0CB070BD85
:106A100088CAFF1F45B9FF1F0102030405060000D5
:106A2000D0C7FF1F09030000FDA50693A4E24FB1E4
:106A3000AFCFC6EB0764782574270000ED6B00002C
:106A4000FEB5414D0C46080409D5687AFDF704FCF3
:106A5000002801D0FDF706FC0120C0036FE0E0072D
:106A6000012600280BD038481430FEF7D9FB374AEE
:106A70000221687AFDF708FC20467040FEBD200721
:106A800008D5684606706A4601213148FEF7BEFA0D
:106A9000082054E0600602D540204840FEBDA00713
:106AA0004FD5294E00271C3634E0A889010A3170E1
:106AB0007070002F22D1264869461130FEF76AF91E
:106AC000234801A91230FEF765F968460188080AD3
:106AD000B073F17368468088307402A90020FDF716
:106AE0004DFD6846007A70741A480088FF38FF38F8
:106AF00002388010B07418480078F074124A1421DB
:106B00001C32052005F08EF8002806D1A889401C0B
:106B1000A8817F1C68788742C7DB6A89002A07D072
:106B2000A87800280AD10221687AFDF7ADFB05E0BC
:106B30000221687AFDF7AEFB0020A88102206040A8
:106B4000FEBD0020FEBD000088CAFF1F88130000A4
:106B500005030000FECCFF1FF8CCFF1F70B50546F3
:106B6000002409490948FEF7EBFB0948FDF7DAFB69
:106B7000E80706D00448074A18210830FEF7A6FDAA
:106B80000446204670BD00001CCBFF1FFFFF000025
:106B9000F5BBFF1F40C7FF1F70B50C46014600251F
:106BA00010480B00FDF746FB0705080A0D101B17E0
:106BB0001B0010220C490AE0408800E080882080F9
:106BC0000EE0007820700BE00749142210312046B7
:106BD000FDF700FB04E0044914223831F7E70225F1
:106BE000284670BD08CBFF1FABD0FF1F002803D085
:106BF00002498860002070471120704708CBFF1FB2
:106C000070B51546024600241D481300FDF712FB1F
:106C100007050B141D223429340010292AD80A46EE
:106C20002946184823E0022924D169782A780902E4
:106C3000114349BA418020E002291BD169782A78A2
:106C40000902114349BA818017E0012912D129783C
:106C5000017012E014290DD80A480A46294610305E
:106C600005E0142906D807480A4629463830FDF7BA
:106C7000B1FA02E0182400E00224204670BD0000B2
:106C800008CBFF1FABD0FF1F0249014808607047C7
:106C900040787D01F0CCFF1F10B572B61948C0686E
:106CA000C00703D01748001FFDF78EFA154C403C73
:106CB000A06BC00707D013481838FDF785FA1248B3
:106CC0000168491C0160606AC0070CD0E16A0F4886
:106CD000C162A16941630B482C38FDF775FA0C4875
:106CE0000168491C01602069C00707D02046FDF7F4
:106CF0006BFA2046FDF748FCFDF74CFC62B600201D
:106D000010BD0000401002402C10FF1FF4CCFF1FEC
:106D10003010FF1F10B57D21C003C900FDF7B0FB87
:106D200000F002F810BD0000F8B50646002400F09F
:106D3000A7F905460648471B06E000F0A1F9A8425E
:106D400001D3441B00E03C18B442F6D3F8BD000068
:106D5000FFFFFF0010B5044601F0F6FC06490246AD
:106D60008B1A01F0F1FC904201D3801A00E0181850
:106D7000A042F6D910BD000040420F0002E008C852
:106D8000121F08C1002AFAD170477047002001E0A5
:106D900001C1121F002AFBD1704710B5FDF700FC9E
:106DA0000120FDF703FCFDF707FC002010BDF0B546
:106DB00000248E464A1E12E0714600230D1B6D1EF4
:106DC0000AE09E0031188C46875949688F4202D9E3
:106DD000815161464F605B1C9D42F2D8641C944215
:106DE000EAD3F0BD10B586B0044614220FA1684660
:106DF000FDF77EF91249302008707820487006208F
:106E0000891C6A46A41D641E2378401E1B09D35C9E
:106E10000B70237800061B071B0FD35C4B70891C7B
:106E2000000EF0D10870064806B010BD3031323384
:106E30003435363738394142434445460000000076
:106E40009CD0FF1F10B505231B221F210D4805F004
:106E500063F90C4C0C4B083407221021204605F036
:106E60005BF9062201231146204605F055F9054835
:106E70001438416A012211434162C169034A114336
:106E8000C16110BD14F00040FB03000004003E008F
:106E9000F0B5002091B00C900890074606460546D4
:106EA000079023A003F0EAF9002404A92046FFF785
:106EB00087F96846838AC28A018B408A03936B46AE
:106EC00007C36846038A428B21461EA003F0D6F909
:106ED0006846418B0798641C081880B20790684682
:106EE000018A0898E4B2081880B208906846418A7E
:106EF0000C98081880B20C906846008B401985B237
:106F00006846C08A801986B26846808AC01987B2EE
:106F1000252CCAD30C986946E1C1282114A0089BEE
:106F2000079A03F0ABF9FFF765F911B0F0BD000067
:106F30005B504552205354415453204E6F74696640
:106F4000795D0D005B5045525D202530327820255B
:106F5000303478202530347820253034782025309E
:106F60003478202530347820253034780A00000029
:106F70000A5B5045525D2025303278202530347828
:106F8000202530347820253034782025303478207E
:106F90002530347820253034780A000010B50020E0
:106FA000054CFF212218401C51704028FADB03F0E9
:106FB0005BFB207010BD000004D6FF1F10B5002041
:106FC000054CFF212218401C51700628FADB03F003
:106FD00069FB207010BD000087CDFF1FF0B586460D
:106FE000080CFF268446002388B237461C46194603
:106FF00001228A4005461540CD402C19A4B2FF2F2E
:1070000002D1012C00D18FB265462A40CA40D21865
:1070100093B2FF2E02D1012B00D18EB2491C102950
:10702000E6DB012C02D0102C08D009E0012B07D19F
:107030003001C019714608700220F0BD102B01D03C
:107040000320F0BD0120F0BD032806D301218907EC
:107050008A68012383401A438A60704701480068A8
:10706000704700001410FF1F012189070B680122DF
:10707000824093430B60086810430860704700002B
:107080000449886A0202886A120A0002000A9042D1
:10709000F7D1704700F0004010B504460120FFF71B
:1070A00043FE1149CB6A1148C26A934202D2C96AAF
:1070B000511A00E000210163FFF7E2FF0C490123B0
:1070C000C86201190A4608321B069A4203D30931E5
:1070D0000902090A641A01190648C162416A292293
:1070E000D2031143416210BD00100240F4CCFF1FD7
:1070F0000012FF1F00F00040F8B5496894460A7876
:107100004978069C090251188EB2444A1121002583
:107110000798B71A091B964243D009DC404AB218B7
:1071200013D0012A1CD0022A25D0032A08D12EE030
:10713000012F40D0022F48D0032F50D0292F5AD0F2
:10714000002018700A252846F8BD082C55D20821C1
:10715000091B814200D80846C2B21A70314857E074
:107160000C2C4AD20C21091B814200D80846C2B21D
:107170001A702D484CE00D2C3FD20D21091B814285
:1071800000D80846C2B228481A700D3040E0112CD1
:1071900033D2814200D80846C2B223481A701B304D
:1071A00036E0112C29D2814200D80846C2B21E48CE
:1071B0001A702D302CE0112C1FD2814200D80846C5
:1071C000C2B219481A703F3022E0112C15D2814208
:1071D00000D80846C2B214481A70513018E00E2C7C
:1071E0000BD20E21091B814200D80846C2B20E48BC
:1071F0001A7063300CE0072C01D30725A3E70721A1
:10720000091B814200D80846C2B206481A70C01F46
:1072100001196046FCF7DEFF95E70000272A000011
:10722000DDD5FFFFDBC7FF1F58C6FF1FF8B5414A7A
:107230000446D068808DC00764D03F48406A3F4D07
:107240008104890CA94202D96842081800E0681A32
:10725000C82819D32B2601233601DB02B04207D2FE
:10726000C80041028601891BC6008919081A09E075
:10727000C80041028601891B4601891BC600891B83
:1072800040000818C018010B2C482D4BC430814217
:1072900000D9196819607D26906AF600B0420AD2BA
:1072A000284EFF278E198A37BE4200D3116A401C30
:1072B0001960906209E0106A060A37188F4203D3FA
:1072C000861B8E4200D808461860106AC100091A51
:1072D00018680918C9081162C108A8420AD9194AD0
:1072E000C43A80186043C00801E0401A641E884216
:1072F000FBD807E0281A6043C00801E0401A641C6C
:107300008842FBD80C48062200231146243804F09A
:1073100003FF2046FDF756F901F0B4F901F022F918
:107320000020FDF759F80120FDF752F90120FDF783
:1073300055F9F8BDF4CCFF1F40F00040420F0000AB
:107340003412FF1F82F1FFFF70B50A4D064600247C
:107350000E206043401906223146FCF75FFF0028EB
:1073600001D0204670BD641CE4B20A2CF0D30A2080
:1073700070BD0000A0CDFF1F7FB50C460A280CD2BF
:10738000002C0AD0062148432030C0B26A460E21A4
:1073900002F09CFE050003D007E0022004B070BD9F
:1073A000062269462046FCF715FF2846F6E700212D
:1073B0008A00835A491CDB43835212189378C9B25E
:1073C000DB4393700429F3D370470000F8B57A4C7F
:1073D00087780146002507266079A2793B00FCF7F3
:1073E00029FF0805361A37375F9ACD3648780028C6
:1073F0005CD1714806223C30C91CFCF7EBFE012031
:10740000A0716D4B0146423362786079FCF754FFFE
:1074100000284BD1A8E00F464978002946D1F978D9
:10742000002906D0654BA2780021FCF745FF787053
:107430000AE0022A0BD00121FCF744FF002803D107
:1074400001216079FCF732FF787800282ED1F8BD51
:10745000497800292AD1032F09D0A289002A0CD00B
:10746000217800290AD00121FCF70EFF06E0052A49
:1074700001D0022012E0062010E02570A079062835
:1074800002D0042802D008E0052007E00120207087
:1074900001466079FCF70AFF66E00320A07163E013
:1074A00048780F46002803D0312832D0A6715BE01F
:1074B00041480622391D3630FCF78CFE7889E08180
:1074C000B8892082F88960820520A071A28A002AEA
:1074D00003D002216079FCF7D7FEB889E083F889F0
:1074E0002084388A6084E07801280AD11F20FCF7C4
:1074F000A7FE7D21C9004843024604216079FCF7BC
:10750000C3FE7A89F8780423391DFDF747FB2570FF
:107510002AE02570C1E728480E46062200213630B1
:10752000FCF75EFEE5832584658404216079FCF721
:10753000B1FE08216079FCF7ADFEB079082808D0CB
:107540000320A0712078002805D06079FCF7A8FE00
:1075500007E00420F5E70120207001466079FCF780
:10756000A5FE0020C043E081606A002800D16EE7DC
:1075700001680029FBD0A0798847F8BD0D46082195
:10758000FCF788FE687829460028F6D1E888E08371
:10759000288920844889608404216079FCF792FE60
:1075A0000028EAD1A06A0028E7D00368628C218C09
:1075B000E08B9847F8BD0000C4C9FF1F4CCEFF1FE9
:1075C00010B501781C4C912906D0A2291BD0D029D6
:1075D00001D1FFF7FBFE10BD41780E29FBD1818858
:1075E000164A9142F7D1816803200856A1790529EE
:1075F000F1D17F28EFD0616A0029ECD049680029D9
:10760000E9D0884710BD41791329FBD100890128B1
:1076100002D12079022808D00520FCF711FE02468D
:1076200008216079FCF730FE10BD08216079FCF775
:1076300031FEFDF711FE10BDC4C9FF1F0514000087
:107640007CB5154C0546E08BE18A88420AD3218B34
:10765000884207D8208C618B884203D1608CA18B33
:10766000884217D00520FCF7EBFD0646E18A684604
:107670000180218B4180618B8180A18BC1806279E7
:107680006946E089FCF7B0FF257132460821607930
:10769000FCF7FAFD7CBD0000C4C9FF1F10B500F067
:1076A00025F8002800D0806810BD00229300CB5A36
:1076B000834202D1900040187047521CD2B2022A75
:1076C000F4D3002070470000074A0021CB00D35AB2
:1076D000834202D1C80080187047491C0906090E70
:1076E000F4D000207047000030CAFF1F06494968E7
:1076F00005E08A88824201D18868704709680029BC
:10770000F7D100207047000028CAFF1FF8B50746D0
:10771000012906D0022924D10121FCF76BFF0028A2
:107720001FD13846FFF7D0FF050015D000240D4EBD
:107730000CE018206968604308180188002908D007
:1077400018220021FCF74CFD641CE4B270788442DE
:10775000EFD30020C0432880024938461031FDF79E
:10776000EFFDF8BD28CAFF1FF3B5064683B0083009
:107770000190002000907088FFF7A6FF07002FD02F
:10778000002523E01820796868430C182188002917
:1077900020D00198007801280FD1608800902379CB
:1077A0007088621DFDF7FAFF0090002805D001994E
:1077B00000200870049821880180182200212046AA
:1077C000FCF70EFD00206D1C2080EDB207484078CC
:1077D0008542D7D30020C04338800098002802D1CA
:1077E0007088FCF70DFF009805B0F0BD28CAFF1F98
:1077F000F3B50546334C064685B008351622002100
:107800002046FCF7EDFC03A800902B7969882888B6
:107810006A1DFCF7FBFE074640E02B4810220021C2
:107820006B4607C3274B69468A897088163B3946E1
:10783000FDF732FE002812D12348E979C01EC27834
:1078400091420CD11F49284616390830FCF7E6FC56
:10785000002804D021787889890009194880684671
:107860008289698804AB3846FCF774FD07462078A6
:10787000810009194A88002A10D0002F05D06A46D5
:10788000128A401C20708A800AE002060021920DB4
:10789000C9431219401C2070918004E0002F02D0CF
:1078A00020780528B9D32078002806D07088214692
:1078B000FCF7B2FE002007B0F0BD069829880180D1
:1078C0000A20F8E782D0FF1F2BCAFF1FF0B585B052
:1078D000044600276846878120790E2860D00EDC98
:1078E000082821D004DC022812D006287FD116E017
:1078F000254608350A281CD00C2878D133E01028FA
:1079000053D0122856D0162859D018286FD15BE0D2
:107910003949172008806088FCF784FE67E003A9D6
:107920002046FFF765FF53E003A9204600F056F913
:107930004EE0288804A9FCF707FD010011D02E4E67
:1079400016200197009602906A466088731C128A7E
:10795000FDF7A2FD00281AD160883146FCF768FEC9
:1079600045E0012013E0288804A9FCF7EDFC0100A4
:10797000F7D06A88204E16200192009602906A463F
:107980006088128A731CFDF787FD002803D02988C0
:107990006A4691811CE060883146FCF74FFE26E084
:1079A00003A9204600F09AF912E003A9204600F04E
:1079B00075F80DE003A9204600F0E4F908E003A9FA
:1079C000204600F01BF803E003A92046FFF7CCFE99
:1079D00000280CD06178142909D0074922790A704F
:1079E0006A4692894A8008716088FCF72DFE20461D
:1079F000FCF730FE05B0F0BD82D0FF1FF8B504469D
:107A00000F460546083400896946FCF79DFC0600D0
:107A10003AD0307A80060ED568460088FFF73EFEE1
:107A2000030006D06888122231469847060002D02B
:107A30002BE00E2629E06E883046FFF745FE010058
:107A400005D11448FFF740FE01000ED00E80124A07
:107A50000020527807E018264B6846439B5B002BBA
:107A600005D0401CC0B29042F5D309260DE049680C
:107A70001822504308182146FCF7ACFB0026688802
:107A80002146FCF7EDFD02E00126208838803046D3
:107A9000F8BD0000FFFF000028CAFF1FF3B58BB040
:107AA00000200B9E0746039004A800903246337BCB
:107AB00071893089474C0D320836FCF7A7FD054621
:107AC0006DE00B98297A4088FCF7D0FD070003D0C1
:107AD0000C986989018064E03F48112200216B46BF
:107AE00007C30B983B4B69460A8A4088163B2946D8
:107AF000FDF7D2FC0700EBD1039800282DD03648C3
:107B00006178C01EC078021D91424DD103990818BA
:107B1000112849D80398A97A201881700398698997
:107B2000401CC0B22218090A401C9170C0B20390D8
:107B30006846028A718807AB2846FCF70BFC0500F3
:107B400011D06946888B039961188870039869463B
:107B5000401C898BC0B2090A0CE01F48C01EC078C7
:107B6000001D6070D6E70398FF21201881700398EC
:107B7000401CC0B222189170401CC0B2164903903C
:107B8000C91ECA78134920181639801CFCF722FB3D
:107B900011490398C91EC9784018C0B20390002D3E
:107BA0008FD1039800280CD061780398FCF768FC0B
:107BB00020700B9821464088FCF75EFD00200DB038
:107BC000F0BD002F00D10A270C983188018038467B
:107BD000F5E7000082D0FF1F2BCAFF1FF3B585B069
:107BE000059E3B4D308900240836039004A8009080
:107BF00033797188721D0398FCF708FD070050D097
:107C0000788903900598397A4088FCF72FFD002881
:107C10000FD13048132200216B4607C305982C4B27
:107C200069460A8A4088163B3946FDF735FC00282C
:107C30000ED0002C44D069782046FCF721FC287037
:107C4000059829464088FCF71DFD002007B0F0BDCF
:107C5000002C29D01F486978C01EC078801C814242
:107C6000E9D11C49C91EC8782018132819D82A1927
:107C7000B87A9070641CE0B27A892B18120A9A7054
:107C8000401C0C46CA78C7B21149E8191639801C45
:107C9000FCF7A0FAE07810493818C4B2039888427B
:107CA00008D1002CC7D10DE00A48C01EC078801C46
:107CB0006870D6E7401C80B20390132C96D9BAE7BF
:107CC000002800D10A20069A03991180BEE700001F
:107CD00082D0FF1F2BCAFF1FFFFF0000F3B585B046
:107CE0000027264C059E27703D46083638E0680080
:107CF000305A03A9FCF728FB010013D020481623B3
:107D000000226F460DC705981C4B6A464088163BFB
:107D10009289FDF7C1FB070006D06800315A06982A
:107D2000018028E00127F8E7154A2078D21ED17893
:107D30004118162902D91621081AD0702178601C22
:107D400008180F49C91ECA780C491639FCF742FABF
:107D50000B482178C01EC07808186D1C2070EDB249
:107D6000B07DA84202D920781628C0D305982146B4
:107D70004088FCF78DFC384607B0F0BD82D0FF1F6D
:107D80002BCAFF1FFEB504460F460646083400897D
:107D900001A9FCF7D9FA050022D0287A80060ED571
:107DA00068468088FFF77AFC030006D070881222AC
:107DB00029469847050002D013E00E2511E0002067
:107DC0000090A37821887088E21CFDF7E7FC05008D
:107DD00007D1207E002806D17088FCF75FFC02E006
:107DE000012520883880207E002801D00020FEBD9B
:107DF0002846FEBDF8B504460246182042431948FD
:107E000000250746457008377868002807D000200D
:107E1000C100C919401C00064D60000EF8D0124E7A
:107E200000213046FCF7DCF9002001466143C9B26D
:107E3000182251438B190B49C200083152180021F6
:107E4000536005E018274F435368491CDD53C9B2FE
:107E5000A142F7D3401C0006000EE6D00148447052
:107E60000020F8BD28CAFF1F8CCEFF1F7CB50C7800
:107E7000069D022C0ED14C682678647824023419B1
:107E8000054EA4B2F44205D1022400950194FDF7F9
:107E90006FFA7CBD01207CBDFED6FFFF0848816CD7
:107EA000491C8164C16CC26C0902C90F5203D20F14
:107EB0005140C26C5202120A5118C164C06C704722
:107EC000F4CCFF1FF8B5069800271D4614460E4651
:107ED000002801D00B20F8BD30780021022801D005
:107EE00019704DE070680278407800021018152271
:107EF00080B25202801A0300FCF79CF90504121F9D
:107F00001A254100F068FCF731FAC2B207988242A4
:107F100000D902462A70F1682046FCF75BF930E090
:107F2000F0680221008829702070000A607028E043
:107F3000062028700246F168EEE701202870F068FC
:107F4000007820701DE0F068002816D00821297004
:107F5000017821700188090A61708178A1704188D7
:107F6000090AE170017921718188090A61718179B9
:107F7000A171C088000AE07103E0297001E0297056
:107F800001273846F8BD10B50B78840702D50224C6
:107F9000234301E0FD2423400B7003070B7802D537
:107FA0000824234301E0F72423400B7083060B7859
:107FB00002D52024234301E0DF2423400B700A2153
:107FC000084201D1810603D510780C21084304E052
:107FD000002803D11078F3210840107010BD000074
:107FE000FFB581B0087800240A9E1F460D4602287E
:107FF0000FD168680178407800020818152180B216
:108000004902401A09D0012829D0022848D0032863
:108010003CD00124204605B0F0BDE868FCF7A6F985
:10802000C0B2864205D8F0190090152803D90D2456
:10803000F0E70724EEE7E8683A4680190399FCF771
:10804000C9F80098EA6880B2002111541C484068C1
:108050000028DFD001680029DCD0002012E0002ECB
:1080600012D1022BE3D10399E8680A784978090212
:1080700051180180124840680028CBD001680029BF
:10808000C8D001208847C5E70B24C3E7002EFBD1E9
:10809000062BCCD10622E8680399FCF79BF8B9E7D8
:1080A000002EF1D1012BC2D103980078002803D013
:1080B000012801D08024ADE7E9680870AAE7000034
:1080C00040C9FF1F10B5122801D3052010BD0C4B6D
:1080D0009C6B01228240104620439863586B90436A
:1080E0005863DC6B002907D020469043D863186B97
:1080F00002431A63002010BD10462043F6E700003B
:1081000000800040084A042807D2012307E01843F2
:1081100000E09843506100207047012312388340EB
:1081200050690029F5D0F2E70038004070B50F4DD6
:1081300000242E197078022807D9E0B200F06CF9FB
:10814000E2B20146104600F083F9232C0ADA707877
:10815000022807D9E0B200F05FF90C216143491908
:1081600020314871641C232CE3DB70BD70D1FF1FEC
:1081700070B502211020FEF769FB1020FEF738FBD6
:10818000114E00240C206043801920300079002813
:1081900013D0E0B200F084F9E5B2284600F03CF9D3
:1081A00000280ED000210C226A4392192032527905
:1081B000824202D0284600F03FF8641C232CE1DB09
:1081C00070BD0121EFE7000070D1FF1FF3B5194E1C
:1081D000002481B0074601252846A040384225D01A
:1081E0000299084201D1012000E000200090E0B295
:1081F000009900F021F80C206043801941688068E4
:1082000000290ED0002807D00098002802D00021B5
:10821000E0B203E00121FBE7E0B20021FFF752FFEB
:1082200004E0002802D0E0B20121F7E7641C122C20
:10823000D2DBFEBD94D1FF1F074A0C2343439B189A
:108240005A68002A01D0002904D09A68002A02D076
:10825000012900D11047704794D1FF1F10B5044881
:10826000C16B034A40321068D060FFF7AFFF10BD0A
:108270000080004010B5002003F0C8FE10BD10B50E
:10828000012003F0C3FE10BD10B50E488068000742
:10829000000F062807D007DC02280BD0042802D1E3
:1082A000012000F0C3FC10BD072806D00C28FAD12D
:1082B0000220F6E700F0E0FC10BD02484030C06B41
:1082C00010BD00000040004003E00B780370401C2C
:1082D000491C521EF9D27047C306DB0E01229A4098
:1082E000064B40098000C0180029C16801D0114325
:1082F00000E09143C160002070470000003800405A
:1083000030B50C4605460121FFF7E6FFA9080748EE
:10831000890009188869AA07D20EFF239340984361
:10832000944020438861002030BD000000380040A8
:1083300010B5114C2078002801D0072010BDFF2176
:10834000C9310D48FBF7EDFE012020700B490020DC
:10835000086348630A490862486202211020FEF758
:1083600075FA1020FEF744FA064A07490D2000F07E
:108370006BF9002010BD000070D1FF1F008000408D
:1083800080F000407181FF1F2D81FF1F30B50D4629
:108390000446042803D320461F38032803D80121AC
:1083A0002046FFF7AFFE00212046FFF795FF01238F
:1083B0000B4A122C08D2A3405068002D01D018435C
:1083C00000E09843506008E0123CA3401069002D83
:1083D00001D0184300E098431061002030BD000038
:1083E0000080004070B50C460A21FCF749F84A00AD
:1083F000891801221346491C8B404D1CAA40134387
:1084000082000448121890688C409843044394609A
:10841000002070BD00F000400C4A0C4B0121403A96
:10842000122807D281405068084201D0106809E044
:10843000186907E0123881401069084201D0D068FD
:1084400000E05869084000D001207047408000409B
:10845000F8B50E4605460A21FCF712F8480009183F
:10846000EA060124D20E204690406A0993000B4A86
:108470009A18136A034313628C40084F2846803FC2
:108480000A21FBF7FDFF8000C0198168002E01D092
:10849000214300E0A14381600020F8BD80F000404E
:1084A00070B5044618480C22624315186968012605
:1084B000002902D1A968002906D0134924390919D5
:1084C000122C03D3032302E0122070BD04234B704F
:1084D0000121815400212046FFF758FF68680028D9
:1084E00010D0A86800280CD02046FFF795FF002880
:1084F00001D0012100E000212046FFF7E3FD00202C
:1085000070BD00263146F7E794D1FF1F10B507492B
:108510000968814202D2C043081800E0081A0449E1
:1085200048437D21C900FBF7ABFF10BD3010FF1F92
:10853000710200000449420903D00020486006206F
:108540007047486000207047E0CCFF1F10B5002343
:1085500011221521024803F0DFFD002010BD0000AC
:108560001CF0004010B5044811224368152103484F
:1085700003F0D2FD002010BDE0CCFF1F1CF0004036
:1085800010B578210948FBF7CCFD0948007801288F
:1085900005D0022806D0032806D0042804D1FCF711
:1085A00083F801E0FCF786F8002010BDF8D0FF1F2B
:1085B000E0CCFF1F10B512490346097812200129AB
:1085C00014D0042912D072B600210E4A0C244C4358
:1085D000145D002C11D09C420CD10C235943012076
:1085E00089184870FCF760F8002006E0FCF75CF89A
:1085F000002010BD491C0A29E8DB62B610BD00004E
:10860000E0CCFF1FF8D0FF1F70B50E4605460622CE
:10861000002311460A4803F07FFD002407E06000B4
:1086200041194978285CFFF713FF641CE4B2B44297
:10863000F5D3034903481C390860002070BD0000D1
:108640001CF00040A5A55A5A30B50D4C00230C254E
:108650005D43655D854201D1072030BD002D04D00A
:108660005B1C0A2BF3DB032030BD0C256B431B196D
:10867000F9D000245C7018709A602046596030BDB3
:10868000F8D0FF1F70B5FFF76DFF0A4D002420469C
:108690000C214843295C002909D040194068002872
:1086A00000D08047641C0A2CF1DB002070BD122032
:1086B00070BD0000F8D0FF1F70B515490023097880
:1086C00001290FD004290DD072B60021114A0D46A0
:1086D0000C244C43165D002E0FD0864205D1A41801
:1086E000657007E0FBF7E0FF0CE0A4186478002C4D
:1086F00000D05B1C491C0A29EADB002B04D0FBF7E5
:10870000D3FF62B6002070BDFBF7D4FFF9E700008D
:10871000E0CCFF1FF8D0FF1F70B50A4D00242046A3
:108720000C214843295C002909D0401980680028A1
:1087300000D08047641C0A2CF1DB002070BD1220A1
:1087400070BD0000F8D0FF1F0248C06A02498008CF
:10875000081A70470010024040420F0010B5164939
:108760000A2008701549012008701549002008707A
:1087700000F030F813480421C16113498160C160E1
:1087800001611249416101210A20FFF72BFE0D48CA
:108790000D230F221221143003F0BEFC002104200F
:1087A000FEF732F801210220FEF72EF8084A0021D8
:1087B0002020FFF749FF10BD4FCDFF1F50CDFF1FF9
:1087C00051CDFF1F00F00040B66DDB36B6EDC3B0F3
:1087D00031B9FF1F70B515480022C0680424866BAC
:1087E0001025134813493300FBF724FD070808053B
:1087F0000C0E1308050005600C600DE020220260DD
:10880000052004E0302305E04022026006200860D5
:1088100002E0602303600A60FBF752FFFBF756FF9C
:1088200002F0EAFE01F068FF70BD0000F4CCFF1F0B
:108830002010FF1F2410FF1FF8B51F4D1E4F0835D5
:108840001E4C1126012820D000281DD10021102007
:10885000FFF7C8FD00211120FFF7C4FD0323082204
:108860000921284603F058FC062200231146284619
:1088700003F052FC16231B221F21384603F04CFC48
:108880002068C16AB143C162F8BD05231B221F21C4
:10889000384603F041FC0A4B07221021284603F01A
:1088A0003BFC062201231146284603F035FC2068D4
:1088B000C16A3143E7E7000014F0004000CDFF1F1C
:1088C000FB030000F8B5FF222D322A4E2A4C002867
:1088D00032D0012329499B0402282FD0802501286A
:1088E00031D00E681E430E604B6806460B360127DA
:1088F000B7403B434B604B682B434B60032832D05F
:10890000042832D01E492160521E1204120CFBD1E1
:1089100003461A480321001F03F0FEFB01208007D5
:10892000C169184D890722D580690005010E491CCF
:108930002068FBF7A5FD1BE02660E5E70D681D43F9
:108940000D601149DFE70F681F430F604B68012777
:108950007F05BB434B604B683F123B434B604B680A
:108960002B434B60E8E70949CDE70949CBE720688D
:108970002860F8BD0048E8011010FF1F40F00040DB
:1089800000D8B8051410FF1F0024F400006CDC02AE
:108990000090D00301480068704700003010FF1FAE
:1089A0001FB5124C2078002802D0112004B010BD51
:1089B00020210E48FBF7B5FB6846407A002803D11A
:1089C0006846C07A002801D00520EFE768460FC846
:1089D00010340FC40120203C207003F023FC044A13
:1089E00000210820FFF730FE0020DFE738D3FF1F0B
:1089F00025C2FF1F10B5054A927E002A02D003F05F
:108A0000D1FB10BD03F09AFB10BD000038D3FF1F4F
:108A10006D46294606A001F031FC0024A00029582B
:108A200009A001F02BFC641C102CF7DBFEE7000012
:108A300048617264204661756C74205350206973DC
:108A40002025780A00000000307825782C000000EE
:108A5000F8B55249504A534B5148CA60D86100207A
:108A600003468400401C1351FF28FADDC8684E4AB3
:108A700004468034A2600622C2620A2202654B4A82
:108A8000157885634A4DC56115781426022D03D0EB
:108A90001578032D03D003E01025056200E006627F
:108AA000444D4561444D85613C25E5603625C563EF
:108AB0003427476408250564392767603227276013
:108AC000AF24E40004601478022C03D01278032A47
:108AD00002D003E0466001E00B224260C824FF227E
:108AE000C4602D328260A4000461344C84647D260D
:108AF000F6004662324CC464324E866202264666F6
:108B000082660926C666304E066745678267B210E0
:108B1000C2674C618B70CB80CB700B812C482B498A
:108B20001F4A81602B49803A294B11612A498033C1
:108B300099622A49C1622A49016325482949C038F6
:108B40004163294901602249284A8039CA62284A7A
:108B50000A60284AC2601E4A274C403A9463274C58
:108B60001463274C5463274C4C61274C8C61274C71
:108B70000C62274CDC61274C1C62274BD363274ACD
:108B8000CA61274981622749C16227498163FEF78B
:108B900005FAFEF713FAF8BD000CFF1FF4CCFF1F17
:108BA000000CFF1F0010FF1F48DAFF1F52CDFF1FF0
:108BB0007E04000060E31600DC05000050C30000E6
:108BC000540B00006A180000204E00001D9CFF1F7F
:108BD0000009FF1F8D5BFF1FF9A6FF1F455AFF1FEE
:108BE000F558FF1FAD90FF1F2562FF1F9D93FF1FCC
:108BF000198DFF1F7964FF1FBDC3FF1F819FFF1FDA
:108C00002D72FF1FF19CFF1FBD64FF1F1598FF1FF2
:108C100065C5FF1F456EFF1F9970FF1F3193FF1F32
:108C20006999FF1F2596FF1F858EFF1F70B5104C99
:108C30008AB0227E0F496D46002A0BD00D4A803241
:108C40005268D3B2002202E00E78AE54521C9A420F
:108C5000FADB03E00A7D012309782970E169002924
:108C600004D0287506952B7705A888470AB070BDF3
:108C700038D3FF1F004000403EB51C490A78081D4C
:108C8000002A31D00A46097E00292DD0917E002984
:108C90002AD00178022927D1818844888368091B5A
:108CA00089B2102901D9102101E000290BD0104D03
:108CB0000A46491E89B2002A16D04288541C4480B4
:108CC0009A5C2A70F4E701210170002141808180C3
:108CD000D169002905D0074A6C460DCA0DC4684603
:108CE00088470820FFF7E8FC3EBD000038D3FF1F8F
:108CF000004000404CC7FF1F10B519242402428ECB
:108D000001E0491E4184418C4B1C5343A34201DDC9
:108D10000029F6D110BD0000F0B585B0544802908E
:108D2000FBF7DAFC002856D000200190FBF7DAFCB4
:108D3000302148434F4945184F482818FF35FF3523
:108D400002350090A88A060A8707BF0F44D048481A
:108D50000446803060340390032F14D0002E02D0DC
:108D6000207C002838D04548816D491C81650398D6
:108D7000807B002800D00420301A80B2FBF7B8FCBA
:108D80000190002831D00398807B002809D0361F3D
:108D9000F6B232463946009B0298FBF7AFFC00283A
:108DA00028D0032F2ED035483246816B491C816371
:108DB00000990198FFF788FA1120205600902C485E
:108DC0003B46C07832460199FBF79EFC00202861A3
:108DD000A882FBF79FFC3EE03D210298FBF7A0FC38
:108DE0002648C16B491CC1633FE02448016E491C01
:108DF00001663AE00198FBF799FC3D210298FBF7E8
:108E00008FFC32E01D4E706B401C7063FBF782FCE0
:108E10001B48007808280DD000980078032813D04C
:108E2000062811D002280FD00D280DD0207C002854
:108E300005D009E000990298FBF77EFC0BE0029850
:108E4000E030007B002809D000990298FBF77AFCFB
:108E500000202861A882012005B0F0BD3D210298C4
:108E6000FBF75EFCF06B401CF0630020F4E70000B1
:108E70005C2AFF1FC42BFF1F160200000C31FF1FCE
:108E8000E511FF1FF8B504460A78FF30264627464D
:108E900025460130E03660378035491C1300FBF76A
:108EA000C9F90D084BF865F5F5AE60BE60B1BBDBE6
:108EB000F50008782870204602228230491CFBF712
:108EC00047FC0146204602228430FBF741FC014664
:108ED000204602228630FBF73BFC01462046022258
:108EE0008830FBF735FC297802224900297069880F
:108EF00049006980A9884900A98029890901298137
:108F0000014620467E30FBF723FC7E20005BE18893
:108F1000401A81B26148814201D3282122E0E888C9
:108F2000A988401C490048432989884201D33B2134
:108F300018E00120387712E005225948FBF708FCB9
:108F40000146204602228C30FBF702FCA889E1880A
:108F5000401A81B251488142DFD20120A87200201C
:108F6000E083F8BD2046FBF7DBFBF8BD307D002831
:108F700009D14C4A25181318E035401C5B78C0B263
:108F80006B750828F6D3707DC00734D00020B87107
:108F900038740120307420460822A830FBF7D8FB33
:108FA000014620460222B030FBF7D2FB01462046A4
:108FB000A03008220646FBF7CBFB054608213046C9
:108FC000FBF7CCFB20462946943004220546FBF7EC
:108FD000BFFB04212846FBF7C1FB20469830FBF776
:108FE000C3FB20469030FBF7C5FB0C212E48FBF756
:108FF000C7FB04212CE01A2070730D2128E001200A
:10900000B073F8BD0020B8713874DF210855012114
:10901000317330700B211BE00120F073F8BD214A41
:10902000002013182518E035401C5B78C0B26B7522
:109030000828F6D3002015180B786D78491C2B40B2
:109040002518E035401CC0B26B750828F3D3092100
:109050002046FBF79BFBF8BD737F012B16D00A78E7
:109060000270E01D0222FB30491CFBF771FB014638
:10907000E01D0222FD30FBF76BFB01207077F07FD3
:109080000028E8D10C21E3E700E002E0427207216A
:10909000DEE7097801720122C27163E7FF7F0000F9
:1090A000F411FF1F802BFF1F0032FF1FF0B5044695
:1090B0008BB0C0300A902046F53002900B300790FC
:1090C000274625468038E0376035264640360990E9
:1090D000A5E0E87C801E0300FBF7ACF80C07A11BA1
:1090E0003265F3BCDCA18BF4A7A1A87C012803D0D6
:1090F000204600F057FB12E08C488078002801D011
:109100001621D8E0708F401E0004000C70876FD0CD
:1091100009E1A87C012804D0204600F009FAA874CF
:1091200001E18248C0780028ECD02046FBF734FBF0
:1091300022462146E078B032A831FBF733FB6EE0DF
:10914000A87C012812D00A98C07F012822D0387844
:10915000002868D0224621462046BF329831CF30C1
:10916000FBF726FB0A990120C87758E06F48C078C2
:10917000002807D0099901208873099800214166C9
:1091800009988166B87B0128BCD106212046FBF7EF
:1091900015FB44E02046FBF717FB0128B8D100205F
:1091A000B8730120BBE7A87C012803D02046FBF759
:1091B00011FBB4E75D48C0780028A3D0608CE08341
:1091C0002046FBF7E9FA0120A8712874387B0128B2
:1091D000E07809D001220021FBF702FB0020387360
:1091E0003874F873B8731AE00021FBF7FFFAF5E75B
:1091F00060E0A87C012805D02046FBF7FDFA012895
:1092000007D090E0F87B0128BED12046FBF7C4FAD6
:1092100005E00020F873099988730120A874E87D9F
:10922000002800D055E70BB0F0BDA87C012803D082
:10923000204600F09BFA72E73C48C178002905D02F
:10924000099A002191730121A9712974807800285D
:10925000DBD157E7A87C012806D02046FBF7D2FADD
:10926000A874002038755EE0387D012806D0708F24
:10927000401E0004000C708706D054E0E178002006
:10928000029AFBF7C5FAC0E7E1782220029AFBF7C1
:10929000BFFA0FE0A87C012803D0204600F08CF92B
:1092A0003DE72248C0780028D3D001203875608C73
:1092B000E083AAE722212046FBF732FA0120B2E739
:1092C00000E02BE0A87C012805D00120F87720469B
:1092D000FBF7A4FA23E7787F012806D0708F401EA1
:1092E0000004000C70870ED01DE0B87F01288CD1DF
:1092F0000798808800900798E178438802780020DA
:10930000FBF792FA81E70798808800900798E17848
:10931000438802782220FBF787FACBE7204600F04B
:10932000F5FA0128AFD000207DE700008031FF1F53
:1093300010B5FBF781F8FBF785F8164CA07B03000E
:10934000FAF778FF0507040D0A041800FBF772FA14
:1093500007E0FBF775FA04E0FBF778FA01E0FBF7AA
:109360007BFA0D498878002811D0627BD30703D09F
:10937000252206E0122010BD920701D5262200E02A
:109380002722237D934202D1C988FAF78FFF00205C
:1093900010BD0000442AFF1FF4CCFF1FF8B5574C46
:1093A000574EA17BF06801293BD0856A554F2A2290
:1093B0000021B81DFAF714FFB888A179000900014F
:1093C0004022401C9043890101434F48802200788D
:1093D0009143C00108433F210902884303218902C8
:1093E0004018B8800622E11DB81DFAF7F3FE464981
:1093F00038460622491C0C30FAF7ECFE207D253851
:10940000032803D30020FBF72DFA2075207D0746A3
:10941000FBF728FA2075A17B012904D0B84219D99D
:1094200016E0456AC2E73949F0680A68C06D52190A
:1094300080180860364988420AD3364800210170F6
:10944000FBF716FA344802210078FAF72FFFF8BD2F
:1094500028460EE0607BC1078207C90FD20F89182A
:109460004007C00F081861882C4A401E51436843CA
:10947000081AFAF7F9FF2748022101702020FAF7AD
:10948000ABFF2748FBF73EF82648FBF741F8384684
:10949000FBF744F83846FBF747F8FF20FBF7EEF9F7
:1094A000F068416CCAB2016C808FC9B2C0B2FAF7E1
:1094B000B7FFFAF7C1FFFAF7C5FFFBF7E5F903209D
:1094C000FBF74AF80F488188001D090A891CFAF742
:1094D000BFFFFAF7ABFF144901200860A17B1348D6
:1094E000012906D00169491C01611020FAF774FFB7
:1094F000F8BDC168491CC160F7E70000442AFF1F9E
:10950000F4CCFF1FC42BFF1F0C12FF1FF011FF1F15
:1095100000881300E511FF1FE411FF1F7102000016
:1095200055555500D6BE898E1812FF1F0C31FF1FEE
:10953000F8B504461C481D4D861C6865FBF7AAF962
:10954000002801D00020F8BD0420307016482146C4
:109550009831C01C08220F46FBF7A2F92146903132
:1095600004220E46FBF79CF908213846FBF7F6F873
:1095700004213046FBF7F2F8002008210A1A1219DC
:109580008032D37B2218A032401CC0B2D375082889
:10959000F4D3074901200870696D064808804034FB
:1095A000208F60870120F8BD8C31FF1FF4CCFF1F96
:1095B0001412FF1F030D0000F8B50446164E15489F
:1095C000164F7065164938780978084301D0002095
:1095D000F8BD10480925801C05702146401C082252
:1095E000F531FBF75DF98E20005D002807D0736D23
:1095F0002A46032120469B1CFBF758F90D25002025
:10960000E083012038702802716DC01C08800120A1
:10961000F8BD00008C31FF1FF4CCFF1F1412FF1F98
:109620001312FF1FF8B54E4CFBF734F925462E46B2
:1096300060368035002814D1A06E002811D1494829
:10964000006900280DD148480078002809D1207809
:10965000002806D1207F002803D0B17C002902D049
:109660000BE0002008E0317F002906D1A97A00290B
:1096700003D1012801D1608CE083E088E18B4018A0
:10968000401C20812046FBF717F9012804D1002057
:10969000E083E088401C20810096307F304E2036E9
:1096A000012845D127464037FA8F2189E088FBF70A
:1096B00009F900283CD0F88F208129462046FBF785
:1096C00007F9E888608400202077E083012020717A
