:020000041FFFDC
:1008000000000000B545FF1FF493FF1FFC93FF1F7E
:100810002C96FF1F000000000000000000000000F8
:1008200000000000000000000000000000000000C8
:1008300000000000000000000000000000000000B8
:1008400000000000000000000000000000000000A8
:100850000000000000000000000000000000000098
:100860000000000000000000000000000000000088
:100870000000000000000000000000000000000078
:100880000000000000000000000000000000000068
:100890000000000000000000000000000000000058
:1008A0000000000000000000000000000000000048
:1008B0000000000000000000000000000000000038
:1008C0000000000000000000000000000000000028
:1008D0000000000000000000000000000000000018
:1008E0000000000000000000000000000000000008
:1008F00000000000000000000000000000000000F8
:1009000000000000000000000000000000000000E7
:1009100000000000000000000000000000000000D7
:1009200000000000000000000000000000000000C7
:1009300000000000000000000000000000000000B7
:1009400000000000000000000000000000000000A7
:100950000000000000000000000000000000000097
:100960000000000000000000000000000000000087
:100970000000000000000000000000000000000077
:100980000000000000000000000000000000000067
:100990004153FF1F0353FF1FED8EFF1F0000000098
:1009A0000000000000000000000000000000000047
:1009B0000000000000000000000000000000000037
:1009C0000000000000000000000000000000000027
:1009D0000000000000000000000000000000000017
:1009E0000000000000000000000000000000000007
:1009F00000000000000000000000000000000000F7
:100A000000000000000000000000000000000000E6
:100A100000000000000000000000000000000000D6
:100A200000000000000000000000000000000000C6
:100A300000000000000000000000000000000000B6
:100A400000000000000000000000000000000000A6
:100A50000000000000000000000000000000000096
:100A60000000000000000000000000000000000086
:100A70000000000000000000000000000000000076
:100A80000000000000000000000000000000000066
:100A90000000000000000000000000000000000056
:100AA0000000000000000000000000000000000046
:100AB0000000000000000000000000000000000036
:100AC0000000000000000000000000000000000026
:100AD0000000000000000000000000000000000016
:100AE0000000000000000000000000000000000006
:100AF00000000000000000000000000000000000F6
:100B000000000000000000000000000000000000E5
:100B100000000000000000000000000000000000D5
:100B200000000000000000000000000000000000C5
:100B300000000000000000000000000000000000B5
:100B400000000000000000000000000000000000A5
:100B50000000000000000000000000000000000095
:100B60000000000000000000000000000000000085
:100B70001942FF1F000000000000000000000000FC
:100B800000000000000000002D72FF1F00000000A8
:100B90000000000000000000000000000000000055
:100BA000000000000000000000000000E14EFF1FF8
:100BB0000000000000000000000000000000000035
:100BC0008B48FF1F00000000000000000000000034
:100BD0000000000000000000000000000000000015
:100BE0000000000000000000000000000000000005
:100BF000000000001D5BFF1F00000000000000005F
:0C0C000001FF01FF01FF01FF41000000A7
:020000041FFFDC
:10400000F01F01204D5EFF1F555EFF1F575EFF1F13
:1040100000000000000000000000000000000000A0
:10402000000000000000000000000000595EFF1FBB
:1040300000000000000000005B5EFF1F5D5EFF1FD0
:104040000000000000000000000000000000000070
:104050000000000000000000000000000000000060
:104060000000000000000000000000000000000050
:104070000000000000000000000000000000000040
:104080000000000000000000000000000000000030
:104090000000000000000000000000000000000020
:1040A0000000000000000000000000000000000010
:1040B0000000000000000000000000000000000000
:1040C0000348854601F00AFF004800474F41FF1FA3
:1040D000F01F01208307FF22DB0E9A408907090E9B
:1040E0009940002808DB83083A489B0018180368A9
:1040F00093430B43036070470007000F08388308A1
:1041000035489B001818C36993430B43C36170473C
:1041100010B500210420FFF7DDFF01210220FFF789
:10412000D9FF10BD10B52D48007801F0D4FB1F2039
:1041300001F01DF9002001F0DAF900F058FE00F05E
:104140009AFC01F02FFD26A000F038FE10BD10B53E
:1041500022490220019C087003F05CFA01F006F885
:1041600000F00AF8FFF7DEFF214623A000F026FE4C
:1041700000F012FA002010BD10B520490A20087086
:104180001F49012008701F490020087003F010FA31
:104190001D480421C1611D498160C16001611C4944
:1041A000416101210A2000F0B3FB17480D230F22C3
:1041B0001221143001F07DFB00210420FFF78AFF5B
:1041C00001210220FFF786FF124A0021202001F082
:1041D00057F810BD00E400E000ED00E09E96FF1FE0
:1041E000616C6C2064726976657220696E697420F6
:1041F0004F4B210A0000000025780A009B96FF1F04
:104200009C96FF1F9D96FF1F00F00040B66DDB36A9
:10421000B6EDC3B01141FF1F6D46294606A000F060
:10422000CDFD0024A000295809A000F0C7FD641CA2
:10423000102CF7DBFEE700004861726420466175D0
:104240006C742053502069732025780A0000000008
:10425000307825782C000000F0B51368814C9B0065
:104260000E68E558831B02D508205B4200E0002061
:10427000EC10AB4203DB042738435B1B64196D1061
:10428000AB4203DB022738435B1B64196D10AB4262
:1042900002DB012318436419030705D5331B724C55
:1042A0000B60A34206DB06E033196F4C0B60E4435E
:1042B000A34200DD0C606B4C8300403CE358116866
:1042C000C918116001D5002102E0582901DD5821EB
:1042D0001160F0BDF1B582B00298006801283BD1B1
:1042E00000273C463E463D462DE00298B900406816
:1042F0005C4A4158543A08B209140191111F7F1CBD
:10430000FFF7AAFF574A00904C3A111F0198FFF798
:10431000A3FFA2000C21891A009A8A4088403243E8
:104320002843641C96B285B2032C0CDD4D492A0447
:104330005C398869324383004C4C401CE2500026B3
:1043400035463446886102988068B842CDD84548E1
:104350005C384169491C4161FEBD1CB501206A46BB
:10436000107004215170052191700021D170282115
:104370001171032151719171D0713D4A01990098D9
:1043800001F023FC0090002803D03AA000F016FDB5
:104390001CBD3FA000F012FD45A000F00FFD31480C
:1043A000494A5C387021007801F0D6FD01F088FCA4
:1043B0001CBD2C495C390870002048618861CCE73D
:1043C00070B50C4641A000F0F9FC20040CD525483E
:1043D0005C38007801F0C6FD002801D001F0C8FD6E
:1043E0000120C003604070BD0025602C03D0702CFC
:1043F00007D0002070BD3CA000F0E0FCFFF7ADFF4F
:1044000004E03FA000F0DAFC00F002F8284670BD9E
:1044100070B501F086FC3FA000F0D0FC43A000F096
:10442000CDFC104D47A05C3DA96900F0C7FC00F031
:10443000B5FD002815D100240C4E05E0A000315830
:1044400041A000F0BBFC641CA8698442F6DB3FA0DD
:1044500000F0B4FC21463BA000F0B0FC43A000F00B
:10446000ADFC70BDC894FF1F0080FFFFDC96FF1FEE
:10447000D542FF1F566F69636520636F6E6669677B
:1044800075726174696F6E206661696C65640A009B
:10449000566F69636520636F6E66696775726174D4
:1044A000696F6E207375636365656465640A0000F7
:1044B000566F6963652063617074757265207374EB
:1044C00061727465640A000010270000766F6963EA
:1044D000655F50726F636573734576656E743A20DD
:1044E000307825780A000000766F69636543617053
:1044F000747572655461736B5F4556540A00000011
:10450000766F69636553746F705461736B5F455662
:10451000540A0000566F6963652063617074757298
:10452000652073746F707065640A0000566F69636C
:1045300065206461746120776F72642073617665B1
:10454000643A000025640A0025780A00566F696302
:104550006520646174612062797465207472616E93
:10456000736D69747465643A00000000566F696386
:10457000652064617461206275666665722074727C
:10458000616E736D697474656420737563636573BC
:104590007366756C6C79000010B501F0EFFC0120BA
:1045A00001F0F2FC112000F07DFF01F0F3FC00208F
:1045B00010BD000010B50024042001F0F1FC0749F3
:1045C00004220860002101F0F1FC2046012401F0E2
:1045D000F3FC2046FFF7EDFE10BD00002C96FF1FF8
:1045E0008307FF22DB0E9A408907090E99400028B5
:1045F00008DB8308F9489B001818036893430B43B2
:10460000036070470007000F08388308F4489B00D8
:104610001818C36993430B43C361704710B5122840
:1046200001D3052010BDEF4B9C6B01228240104648
:1046300020439863586B90435863D86B002906D089
:104640009043D863186B02431A63002010BD1043D7
:10465000F7E7E54A0C2343439B185A68002A01D028
:10466000002904D09A68002A02D0012900D11047FD
:104670007047DC4B01214033DA4A122807D28140CF
:104680005068084201D0106809E0186907E0123844
:1046900081401069084201D0D06800E058690840A4
:1046A00000D001207047F8B50E4605460A2101F0FA
:1046B00089FC48000918EA060124D20E20469040E1
:1046C0006A099300C94A9A18136A034313628C401B
:1046D000C64F2846803F0A2101F074FC8000C019B3
:1046E0008168002E01D0214300E0A14381600020B9
:1046F000F8BD70B5BC4E0024243E351968780228F8
:1047000006D9E0B2FFF7B5FF0146E0B2FFF7CBFFF5
:10471000232C0ADA6878022807D9E0B2FFF7A9FF4C
:104720000C216143891920314871641C232CE4DB7E
:1047300070BDC306DB0E01229A40AD4B40098000DC
:10474000C0180029C16801D0114300E09143C16045
:1047500000207047A64B042807D2012207E010432F
:1047600000E09043586100207047012212388240D7
:1047700058690029F5D0F2E730B50D460446042803
:1047800003D320461F38032803D801212046FFF712
:10479000E1FF00212046FFF7CCFF01209149122CB8
:1047A00008D2A0404A68002D01D0024300E08243B5
:1047B0004A6008E0123CA0400A69002D01D0024383
:1047C00000E082430A61002030BD70B5054686488E
:1047D0000C226A43141861680126002902D1A168DD
:1047E000002906D0804924394919122D03D3032307
:1047F00002E0122070BD04234B700121815400217E
:104800002846FFF7B9FF6068002810D0A06800288C
:104810000CD02846FFF72DFF002801D0012100E031
:1048200000212846FFF7FAFE002070BD0026314621
:10483000F7E770B502211020FFF7D2FE102000F03C
:104840006DF9694E0024243E0C206043801920300D
:104850000079002813D0E0B2FFF7B7FFE5B2284691
:10486000FFF707FF00280ED000210C226A4392199F
:1048700020325279824202D02846FFF7EAFE641CB9
:10488000232CE1DB70BD0121EFE710B55548C16B6A
:10489000544A40321068D06000F049F910BD30B57C
:1048A0000D4604460121FFF767FF01224D48122CF7
:1048B00008D2A2400168002D01D0114300E09143CD
:1048C000016008E0123CA240C168002D01D01143F4
:1048D00000E09143C160002030BD10B504460121C5
:1048E000FFF74AFF01213F48122C07D20268A1407E
:1048F0000A43026002688A43026007E0123CC26811
:10490000A1400A43C260C2688A43C260002010BD51
:1049100070B50C460A2101F055FB4A008A180121A6
:104920000B46521C9340551CA9400B43D9438300AE
:104930002E488038181883680B402146914019434F
:104940008160002070BD70B5034601220B3B144608
:104950009C40274D00290ED0C106C90E8A4041094E
:1049600089004919CB6B9343CB630021FFF7D0FF3C
:104970002868204301E02868A0432860002070BD1B
:10498000C306DB0E01229A40194B40098000C01873
:104990000029416C01D0114300E0914341640020A3
:1049A000704730B50D4604460121FFF7C2FEA1084D
:1049B0000F4889000A189169A007C00EFF238340A1
:1049C0009943854029439161002030BD30B50446AC
:1049D0000548112C0ED9052030BD000000E400E090
:1049E00000ED00E0008000400017012080F0004052
:1049F000003800400C210025614345546548294694
:104A0000001945702046FFF7B7FE6349886B4A6B73
:104A10000120A0400346104348630A6B9A430A638F
:104A20002846D9E7F8B55B4F16460D4604462437AD
:104A3000FFF7CCFF0C206043C3199E6020465D60E9
:104A4000FFF7C3FE050002D02046FFF7BFFF284650
:104A5000F8BD30B54F4D04462435112801D9052045
:104A6000BAE7FFF7B3FF0C200021444360198160CF
:104A700041600846B0E710B5464C2078002801D0C8
:104A8000072010BDFF21C931424801F012FA012070
:104A90002070414900200863486340490862486229
:104AA00002211020FFF79CFD102000F037F83C4A4F
:104AB0003C490D2000F0E4FB002010BD3A4881681D
:104AC00001221143816070473748816849084900D5
:104AD00081607047344881680222114381607047C9
:104AE0003148816802229143816070472E48816875
:104AF00040221143816070472B48816840229143D6
:104B00008160704728488168802211438160704726
:104B1000254881688022914381607047002805DB29
:104B2000C106C90E01208840204908607047F3B5CE
:104B3000184E81B024360F46002401200199A04070
:104B4000084222D0384201D1012500E00025E0B220
:104B50002946FFF77EFD0C2060438019416880687C
:104B600000290DD0002806D0002D02D00021E0B28F
:104B700003E00121FBE7E0B20021FFF74FFD04E075
:104B8000002802D0E0B20121F7E7641C122CD4DB2C
:104B9000FEBD0000DC1601200080004080F00040D7
:104BA0003348FF1FF346FF1F0038004000E100E0DC
:104BB000C9B2002805D0026811700168491C016063
:104BC00070478E4A10887828FAD28D4B1954401CB1
:104BD00010807047FFB50025202781B014460E468F
:104BE000002A0FDD0021304601E0401C491C0278FC
:104BF000002AFAD1A14201DB002400E0641A9807E0
:104C000000D53027D80706D00DE039460198FFF7C8
:104C1000CFFF641E6D1C002CF7DC04E00198FFF749
:104C2000C7FF6D1C761C31780029F7D105E03946A5
:104C30000198FFF7BDFF641E6D1C002CF7DC2846B1
:104C400005B0F0BDFFB583B000270C9E3D460800BF
:104C500005D0002B13D0059A0A2A0CD00FE0302083
:104C6000694608700020487032460D9B0398FFF794
:104C7000B1FF07B0F0BD002901DA01274042002151
:104C80006A4602ACD17203340AE0059901F09AF940
:104C90000A2902DB0E9A89183A393031641E2170D4
:104CA0000028F2D1002F0ED0002E09D00D988007D9
:104CB00006D52D210398FFF77BFF6D1C761E02E0C1
:104CC0002D20641E2070324621460D9B0398FFF76D
:104CD00081FF4019CDE7F7B5002584B016460C4694
:104CE00061275FE0252857D100226078641C1346B5
:104CF00000285AD025284FD02D2801D10123641C2B
:104D000002202178302907D10343641CF9E70A21E6
:104D10004A43303A8218641C207801463039092908
:104D2000F5D9C1B273290AD064280ED0782811D0E1
:104D3000582817D075281DD0632821D031E002CE25
:104D4000002900D12FA1049822E068468CC00123DD
:104D5000316813E068468CC008E0361D0498FFF700
:104D600071FF17E04120019300920290002310226E
:104D70003168F2E768468CC0316800230A22ECE70C
:104D80003178684601730021417303A9361D0498E8
:104D9000FFF720FF451904E0C1B20498FFF708FFB0
:104DA0006D1C641C207800289CD10498002803D036
:104DB000049900200968087028465AE70FB410B516
:104DC00078210F4801F075F803AA00200299FFF737
:104DD00082FF0B4801F0FCF881B2094800F0E9F8C5
:104DE00006490020088010BC08BC04B0184710B564
:104DF000064B0FCB00F091F810BD00003096FF1F5E
:104E0000A4180120286E756C6C2900000094FF1F07
:104E100070B5CD4C88B0217ECC4B03AD00290BD0B2
:104E2000CA4980314968CAB2002102E01E786E5436
:104E3000491C9142FADB04E0197D012219786B4686
:104E40001973E169002905D06B46187001951A7233
:104E50006846884708B070BDF8B5BB4C103400F008
:104E600043FB0746082000F01DFB082000F02EFB46
:104E700020780821FFF795FD60780921FFF791FD63
:104E8000B24D00262E73616838114A08801801F06F
:104E900099F82E6180212973287003202873207AC5
:104EA000002802D087222A7200E02E7201226A6056
:104EB000002802D0686808436860A07A002803D000
:104EC00068680221084368600121A148C9020160A5
:104ED000A04801680902090A020711430160F8BDF0
:104EE00010B59A4880680007000F062807D007DC35
:104EF00002280BD0042802D10120FFF789FF10BD42
:104F0000072806D00C28FAD10220F6E700F0E4F8D2
:104F100010BD8E484030C06B10BD1FB58A4C207844
:104F2000002802D0112004B010BD2021864800F0D6
:104F3000C0FF6846407A002803D16846C07A00283E
:104F400001D00520EFE768460FC810340FC40120D8
:104F5000203C2070FFF780FF7F4A0021082000F0EE
:104F60008FF90020DFE710B5774B1C781A1D002C55
:104F700005D09B7E002B04D01378002B03D0072094
:104F800010BD052010BD72B69060D1800020508009
:104F900090800120107062B6002010BD6A48817EAA
:104FA000002904D00079012801D011207047002089
:104FB000704710B5644A927E002A02D000F021F8B2
:104FC00010BD00F059F810BD38B50024634B5F4A9E
:104FD000009404E000994D1C009599420ADC117D73
:104FE0008906F7D51070009406E00098411C0091E6
:104FF000984201DD0D2038BD107D4006F5D500201A
:1050000038BD70B5564C0D1E08D0002806D021784A
:10501000002908D0012903D0112070BD062070BDE1
:10502000E188A94201D2032070BDA36801462A4647
:10503000184600F025FFA58000206080022525701D
:10504000A088A268102800D91020404B5968A943B5
:10505000596004E061884E1C6680515C19700146FD
:10506000401E80B20029F5D15868284358600820B6
:1050700000F0B6F8002070BDF8B50025334B394E6E
:105080004033324C009504E0009A571C0097B2421E
:105090001BDCDA6BD207F7D10BE0009A531C0093AC
:1050A000B24212DC227D9206F7D502782270401CB3
:1050B00000950A46491E89B2002A0095F2D106E001
:1050C0000098411C0091B04201DD0D20F8BD207D0B
:1050D0004006F5D50020F8BD3EB51B4A1178101DDD
:1050E00000292FD0117E00292CD0917E002929D0B3
:1050F0000178022926D1818844888368091B89B2F6
:10510000102900D9102100290BD0104C0A46491E45
:1051100089B2002A16D04288551C45809A5C2270BC
:10512000F4E701210170002141808180D1690029CB
:1051300005D00D486C460DC80DC468468847082048
:1051400000F073F83EBD00001C1901200040004033
:1051500000E100E008E400E0594EFF1F10270000C6
:1051600020190120A08601001094FF1F10B578219E
:10517000C84800F09EFEC8480078012805D00228E3
:1051800006D0032806D0042804D100F027FF01E050
:1051900000F02AFF002010BD10B5BF490024097897
:1051A000012919D0042917D072B60021B94B0C225D
:1051B0004A439A5C002A0CD0824207D10C2041431A
:1051C000C8184078012804D1012402E0491C0A29AA
:1051D000EDDB62B6002C01D0012010BD002010BD17
:1051E00010B5AD49044609781220012914D00429CC
:1051F00012D072B60021A74B0C224A439A5C002AB7
:1052000011D0A2420CD10C2251430120C918487080
:1052100000F0E4FE002006E000F0E0FE002010BDFB
:10522000491C0A29E8DB62B610BD70B59A49002214
:10523000097801290FD004290DD072B60021954DAF
:105240000E460C234B43EC5C002C0FD0844205D15E
:105250005B195E7007E000F0C1FE0CE05B195B7843
:10526000002B00D0521C491C0A29EADB002A04D07A
:1052700000F0B4FE62B6002070BD00F0B5FEF9E7A4
:1052800070B50024834E23460C255D43755D854231
:1052900001D1072070BD002D0BD05B1C0A2BF3DB66
:1052A000002C0AD0002363702070A2601846616051
:1052B00070BD0C2463439C19F2E7032070BD10B548
:1052C00004460020734902460C235343CB5CA3429F
:1052D00003D10C205043401804E0002B0FD0521C87
:1052E0000A2AF1DB00280AD072B609218A1A0C2199
:1052F0004A43411800F0C4FD62B6002010BD1220E0
:1053000010BD70B5634D002420460C214843295C34
:10531000002909D040198068002800D08047641C0B
:105320000A2CF1DB002070BD122070BD10B55A4868
:10533000112243681521594800F0BBFA002010BD26
:1053400070B5FFF7F3FF534D002420460C2148436E
:10535000295C002909D040194068002800D0804706
:10536000641C0A2CF1DB002070BD122070BD4A497C
:10537000420903D0002048600620704748600020A2
:10538000704710B5002311221521444800F091FA0E
:10539000002010BD414810B51A22012311460838DB
:1053A00000F087FA002010BD3C4810B51A220023F7
:1053B0001146083800F07DFA002010BD70B50E4689
:1053C0000546062200231146344800F072FA0024F4
:1053D00007E0620050194178A85CFFF764F9641C8B
:1053E000E4B2B442F5D32D492D481C3908600020A1
:1053F00070BDF3B583B00E460025012000F077F8AC
:1054000003210398FFF784FA002700976946039861
:1054100008700A2000F044FA0398FFF72AF90028E0
:105420002CD01E4920241C39486A4008400048629C
:10543000486A022210434862FF22F5320197019820
:10544000431C01939042FADD486A012210434862EE
:1054500001F0D0FF0746744304E001F0CBFFC01B0E
:10546000A04215D20398FFF704F90028F5D1002DCA
:105470000ED101216846FFF7A1FFFEE70398FFF771
:10548000F8F8002804D101216846FFF797FFFEE7EE
:1054900005B0F0BD3C1901203496FF1F1CF0004000
:1054A000A5A55A5A032806D3012189078B68012232
:1054B000824013438B607047032806D3012189077C
:1054C0008B680122824093438B60704701229207D0
:1054D0001368012181408B431360106808431060FA
:1054E00070472C48006870472B4800687047F8B533
:1054F0002A4E2A4F08362A4C1125012820D0002890
:105500001DD100211020FFF703FA00211120FFF721
:10551000FFF9032308220921304600F0CAF90622C8
:1055200000231146304600F0C4F916231B221F2128
:10553000384600F0BEF92068C16AA943C162F8BDCF
:1055400005231B221F21384600F0B3F9154B072213
:105550001021304600F0ADF90622012311463046F5
:1055600000F0A7F92068C16A2943E7E70E48006800
:10557000704710B50C490968814202D2C04308182F
:1055800000E0081A094948437D21C90000F01AFDCE
:1055900010BD00001010FF1F1410FF1F14F000407A
:1055A0004C96FF1FFB0300003010FF1F710200002C
:1055B00001E00170401C521EFBD2704703E00B78E3
:1055C0000370401C491C521EF9D2704704E008C900
:1055D000042A08C002D3121F002AF8D1704704E041
:1055E0000378934207D1401C491C0A78002AF7D15E
:1055F0000078002801D0002070470120704730B5A6
:1056000000230BE0C45CCD5CAC4201D9012030BD6D
:10561000AC4201D2022030BD5B1CDBB29342F1D31D
:10562000002030BDCAE7002101E0401C491C02787F
:10563000002AFAD1084670470146002000E0401CCD
:105640000A5C002AFBD1704701463039092905D987
:105650003139052902D94138052801D80120704780
:1056600000207047F0B5302606707822427007227D
:105670000F27092493003D469D400D40DD402B003F
:1056800000F0B8FC10090C0E16181A1C1E2022245B
:1056900026282A2C2E11A31AC65404E0312300E038
:1056A0003223A51A4355521EE4D500218172F0BD64
:1056B0003323F6E73423F4E73523F2E73623F0E724
:1056C0003723EEE73823ECE73923EAE76123E8E7FD
:1056D0006223E6E76323E4E76423E2E76523E0E788
:1056E0006623DEE770B507220F2614469300354681
:1056F0009D400D40DD402B0000F07CFC10090B1399
:105700001517191B1D1F21232527292B2D0E30238B
:1057100000E03123A51A4355521EE7D5002101723E
:1057200070BD3223F6E73323F4E73423F2E7352361
:10573000F0E73623EEE73723ECE73823EAE73923AF
:10574000E8E76123E6E76223E4E76323E2E7642313
:10575000E0E76523DEE76623DCE770B50024064654
:105760002546FFF760FF0246082837DD002070BDA0
:105770003078761C422842D00DDC3038030000F02F
:1057800039FC122C66625E5A56524E4A462C2C2C1C
:105790002C2C2C2C422C622831D00CDC452816D025
:1057A00004DC432827D0442817D120E046280AD01B
:1057B000612812D127E063281DD0642817D06528FE
:1057C00005D0662809D1501B80000F2102E0501B34
:1057D00080000E21001F81400C196D1C954204DAD7
:1057E0003078FFF731FF0028C2D1204670BD501B32
:1057F00080000D21EEE7501B80000C21EAE7501BD2
:1058000080000B21E6E7501B80000A21E2E7501BD5
:1058100080000921DEE7501B80000821DAE7501BD9
:1058200080000721D6E7501B80000621D2E7501BDD
:1058300080000521CEE7501B80000421CAE7501BE1
:1058400080000321C6E7501B80000221C2E7501BE5
:1058500080000121BEE70146002008E01346303BEE
:10586000092B08D80A23584330381018491C0A78E5
:10587000002AF3D1704700207047F8B5064600278C
:1058800001F0B8FD04464E48051B06E001F0B2FDEC
:10589000A04201D3071B00E02F18B742F6D3F8BD92
:1058A00010B57D21C003C90000F08CFBFFF7E5FFB8
:1058B00010BDF0B506680024E4439340012704E0DE
:1058C0003D469540AC43521CD2B28A42F8D926409C
:1058D0001E430660F0BDF8B5FF212D31394E3A4C1C
:1058E00000281AD00123394A9B04022817D08025AA
:1058F000012819D016681E431660536806460B36F9
:105900000127B7403B43536053682B435360032840
:105910001AD0042833D02E4A17E0266016E0156806
:105920001D4315602B4A10E017681F43176053682A
:1059300001277F05BB43536053683F123B435360CD
:1059400053682B435360E8E7234A2260491E090449
:10595000090CFBD103461D4800220321001FFFF75D
:10596000A8FF01208007C1691C4D890709D58069FE
:105970000005010E491C206800F024FB02E0184AD3
:10598000E3E720682860F8BD1648C06A1649800819
:10599000081A704710B50446FFF7F6FF0246124892
:1059A000831AFFF7F1FF904201D3801A00E0181824
:1059B000A042F6D910BD0020012189070861704777
:1059C000FFFFFF000048E8011010FF1F40F00040FB
:1059D00000D8B8050024F400006CDC021410FF1F8E
:1059E0000090D0030010024040420F0010B511207B
:1059F000FFF758FD002201231146FE48FFF759FF2B
:105A000010BD10B51120FFF757FD00231A461946A7
:105A1000F848FFF74EFF10BDF64810B500220123ED
:105A200011460C30FFF745FF10BD0023F14810B5BB
:105A30001A4619460C30FFF73CFF002305220721C8
:105A4000ED48FFF736FFEC4C0422343401231146B5
:105A50002046FFF72EFF0022012311462046FFF7C4
:105A600028FF0223012219462046FFF722FF10BD1E
:105A700010B50C462221FEF794FF21212046FEF7A7
:105A800090FF10BD70B50E2801D90E2001E0082846
:105A900002D90223083803E0042803D90123001F98
:105AA000C4B201E000230446D34D1122122128463E
:105AB000FFF7FFFE2346132215212846FFF7F9FEC4
:105AC00070BD0346CB4810B5102216210C30FFF7ED
:105AD000F0FE10BD0346C74810B50C220D210C3056
:105AE000FFF7E7FE10BD0346C24810B508220921A2
:105AF0000C30FFF7DEFE10BD0023BE4810B51A467D
:105B000019461430FFF7D5FE10BDBA4810B5002273
:105B1000012311461430FFF7CCFE10BDFEB5B54C85
:105B2000606B0321090288436063E06BB34DC205DB
:105B3000284610380126C168002A11DAB04B00202F
:105B40008200D7183F68401CAF508028F8DBA06B5C
:105B5000FF2201321043A063E06BC005FCD413E0C8
:105B6000E06B800518D5A74F00208200D3191B6871
:105B7000401CAB508028F8DBA06B0122520210437E
:105B8000A063E06B8005FCD4002905D08020029042
:105B90000096019568468847606B03210902084317
:105BA0006063FEBD10B5002211461120FFF768FBAF
:105BB000002211461420FFF763FB904810380021A3
:105BC000016041608160C16010BD37B58B4D86B00A
:105BD000103D28781446002802D0112009B030BDAD
:105BE000002C0FD01120FFF75DFC6846EC60007EB2
:105BF000002809D0FFF710FF6846817E407EFFF73E
:105C000037FF07E00620E9E7FFF70FFF6846C07E91
:105C1000FFF738FF6846007FFFF753FF6846407F75
:105C2000FFF758FF6846807FFFF75DFF714C012347
:105C30000C34022203212046FFF73BFE0122002301
:105C400011462046FFF735FE6846C07F002802D087
:105C5000FFF75BFF01E0FFF74FFF0A22032130202F
:105C600003AB029207C3372101200191009000236A
:105C700009220621402000F093F8082206A9681C9A
:105C800000F0FEF85C484838C16B40221143C16304
:105C900059480838016812031143016041688022A5
:105CA000114341604168920391434160416842144D
:105CB00011434160C16B10221143C16300208DE785
:105CC00010B51120FFF7EEFB4C4C0120103C20706A
:105CD0001120FFF785FA1420FFF782FA6078082177
:105CE000002808D14448083882684B031A43826070
:105CF00082680A43826044490868FF221202904386
:105D00000122D20310430860404990030860FFF766
:105D10006DFE3848416B032212021143416300209B
:105D200010BD10B53348416B032212029143416309
:105D3000FFF767FE314C103C6078002806D12E48F2
:105D40000838816801221204914381601420FFF712
:105D50006CFA1120FFF769FA0020207010BD10B511
:105D60002448416B032212029143416301202749D9
:105D7000400780310860214C103C6078002805D035
:105D8000A078FEF723FEE078FEF720FE00202060DA
:105D90006060A060E0601420FFF747FA002010BDAB
:105DA000FFB5144C81B015460F460346103414223B
:105DB0001E2120460D9EFFF77CFD3B46102213213D
:105DC0002046FFF776FD2B4608220D212046FFF7DF
:105DD00070FD042207212046049BFFF76AFD002284
:105DE000032120460A9BFFF764FD14221E21241D77
:105DF00020460DE00000054048F00040C419012095
:105E000000080540000A05401CE400E000E100E055
:105E10000B9BFFF74EFD0822122120460C9BFFF73B
:105E200048FD241D334608220F212046FFF741FD7F
:105E30000422062120460E9BFFF73BFD0022032192
:105E400020460F9BFFF735FD05B0F0BD04488047A5
:105E500004480047FEE7FEE7FEE7FEE7FEE7FEE751
:105E6000715EFF1FC140FF1F04490348086070476F
:105E7000024901480860704740787D013C96FF1F49
:105E800003460B439B0703D009E008C9121F08C053
:105E9000042AFAD203E00B780370401C491C521EFE
:105EA000F9D27047D2B201E00270401C491EFBD209
:105EB00070470022F6E710B513460A460446194615
:105EC000FFF7F0FF204610BD0321001D401E0378A0
:105ED00012021A43491EF9D510467047064C012597
:105EE000064E05E0E36807CC2B430C3C9847103482
:105EF000B442F7D3FEF7E8F81C94FF1F6C94FF1F21
:105F000070B58C180578401C6B075B0F01D10378C6
:105F1000401C2A1106D10278401C03E006780E705E
:105F2000401C491C5B1EF9D12B0705D40023521ECF
:105F30000DD40B70491CFAE70378401CCB1A921C55
:105F400003E01D780D70491C5B1C521EF9D5A1425F
:105F5000D8D3002070BD000003B40148019001BDFA
:105F6000CDF9000003B40148019001BD5DF60000C9
:105F700003B40148019001BD75F4000003B4014869
:105F8000019001BD15F2000003B40148019001BD6C
:105F9000FDF6000003B40148019001BDC5F9000001
:105FA00003B40148019001BD89F2000003B4014827
:105FB000019001BD41F4000003B40148019001BD0E
:105FC000D54A000003B40148019001BD6102000000
:105FD00003B40148019001BD3903000003B4014836
:105FE000019001BD3975000003B40148019001BD65
:105FF0008D75000003B40148019001BD4D6600009D
:1060000003B40148019001BDD541000003B401482B
:10601000019001BD2141000003B40148019001BD80
:10602000E9FB000003B40148019001BD55DD00000B
:1060300003B40148019001BD89DF000003B40148A9
:10604000019001BD75E0000003B40148019001BD5D
:10605000E1DE000003B40148019001BD35E100001C
:1060600003B40148019001BD29E4000003B40148D4
:10607000019001BD69E5000003B40148019001BD34
:1060800091E0000003B40148019001BDE1E200008D
:1060900003B40148019001BDF1E2000003B40148DE
:1060A000019001BDCDE6000003B40148019001BD9F
:1060B0000FF4000003B40148019001BD09E900009C
:1060C00003B40148019001BDE1E7000003B40148B9
:1060D000019001BDB5DF000003B40148019001BD8E
:1060E0006DDF000003B40148019001BD85E00000B0
:1060F00003B40148019001BDD1E5000003B401489B
:10610000019001BDCDDF000003B40148019001BD45
:106110001DE0000003B40148019001BDCDE0000086
:1061200003B40148019001BD31E2000003B401480D
:10613000019001BD49E7000003B40148019001BD91
:106140001DDB000003B40148019001BD59F90000B6
:1061500003B40148019001BD2DCF000003B40148F4
:10616000019001BDA90B010003B40148019001BDDC
:106170005D0B010003B40148019001BD690B0100F2
:1061800003B40148019001BD250E010003B401488C
:10619000019001BDF5E3000003B40148019001BD89
:1061A00021E3000003B40148019001BD15E30000A4
:1061B00003B40148019001BDC1E0000003B40148EF
:1061C000019001BD6DDD000003B40148019001BDE7
:1061D000F1DE000003B40148019001BD75740000B8
:1061E00003B40148019001BD8574000003B4014867
:1061F000019001BD0959000003B40148019001BD9F
:10620000DD74000003B40148019001BD890D010057
:1062100003B40148019001BDD576000003B40148E4
:10622000019001BD8572000003B40148019001BDD9
:10623000E52C010003B40148019001BD7D9E0000E2
:1062400003B40148019001BDF59E000003B401486C
:10625000019001BDF94C000003B40148019001BD5B
:10626000A53D000003B40148019001BD5D5200004E
:1062700003B40148019001BD552B010003B401484E
:10628000019001BDB1C2000003B40148019001BDFD
:10629000F1F0000003B40148019001BDC5C5000044
:1062A00003B40148019001BD0DC7000003B40148CB
:1062B000019001BD0BC5000003B40148019001BD70
:1062C0003942000003B40148019001BDF1400000D3
:1062D00003B40148019001BDC140000003B401486E
:1062E000019001BD5D41000003B40148019001BD72
:1062F00095C3000003B40148019001BD1DC3000017
:1063000003B40148019001BD6D45000003B401488C
:10631000019001BD753C000003B40148019001BD2E
:106320007DCE000003B40148019001BD71D700008B
:1063300003B40148019001BD99D7000003B401489E
:10634000019001BDB943000003B40148019001BDB3
:106350003D44000003B40148019001BDE1D50000B7
:1063600003B40148019001BD7DD2000003B401488F
:10637000019001BD7D4E000003B40148019001BDB4
:1063800095DA000003B40148019001BD4D4F0000B3
:1063900003B40148019001BDE9CF000003B40148F6
:1063A000019001BD3DD8000003B40148019001BD3A
:1063B00089D4000003B40148019001BD5DD60000FE
:1063C00003B40148019001BD3DC4000003B401487D
:1063D000019001BDB551000003B40148019001BD19
:1063E0003D0D010003B40148019001BD55E50000D9
:1063F00003B40148019001BDBD9E000003B40148F3
:10640000019001BDF5C4000003B40148019001BD35
:106410003D3F000003B40148019001BD25C20000CA
:1064200003B40148019001BD17C4000003B4014842
:10643000019001BDF7C2000003B40148019001BD05
:1064400001C4000003B40148019001BDD938000027
:1064500003B40148019001BDDBC2000003B4014850
:10646000019001BDE1C1000003B40148019001BDEC
:1064700041CF000003B40148019001BD199F000005
:1064800003B40148019001BDC9C5000003B401482F
:10649000019001BD8DC9000003B40148019001BD08
:1064A00039CD000003B40148019001BD35D300008F
:1064B00003B40148019001BD6959000003B40148CB
:1064C000019001BD1500010003B40148019001BD18
:1064D00059C5000003B40148019001BD99C40000F2
:1064E00003B40148019001BD65B7000003B4014841
:1064F000019001BDD5F6000003B40148019001BD33
:10650000DDFB000003B40148019001BD999E00002D
:1065100003B40148019001BDED75000003B40148CA
:10652000019001BD01E4000003B40148019001BDE8
:106530007DE5000003B40148019001BDD1000100D8
:1065400003B40148019001BDD1EB000003B4014840
:10655000019001BDF50D010003B40148019001BD9A
:106560002D68000003B40148019001BDB90D010080
:1065700003B40148019001BDFDE2000003B40148ED
:10658000019001BDE9E3000003B40148019001BDA1
:106590003DE40000FFB504464E4F81B00020386056
:1065A00020461D46BF30FFF72BFD4B48264600789E
:1065B000B23680340828A06E32462CD00121FFF775
:1065C00025FD444F3078F863761C3046FFF77CFC9D
:1065D00000BA000AF17800020843B863361D30465D
:1065E000FFF772FC00BA000AF178000208437863F2
:1065F000361D3046FFF768FC00BA000AF178000249
:10660000084338630398010202980143F960039F2D
:1066100000263F1D0EE00021D1E7A819401CFFF71E
:1066200053FC0102A85D01432C4830180160361D5F
:10663000F6B23F1F042FF0DA032F04D0022F08D048
:10664000012F0FD014E0A819FFF73EFC0102090A40
:1066500009E0A91948780978000208431F49711810
:10666000086003E0A95D1D4830180160361DF6B2D0
:1066700000211A4A02E0B0180160361DFF2EFADD33
:106680001448174B43600F230361012303604369E0
:10669000002BFCD0436901600020039B11E08118AE
:1066A00009682954401CC0B20E0A2E54401C0E0C1E
:1066B000C0B22E54401CC0B2090E2954401CC0B2B6
:1066C0001B1F002BEBDCA06E401CA066012005B058
:1066D000F0BD000000000440E511FF1F0001044070
:1066E000080F0000FFB504464D4F81B00020386010
:1066F00020461D46BF30FFF783FC4A4826460078F7
:10670000B23680340828606E32462BD00021FFF765
:106710007DFC434F3078F863761C3046FFF7D4FB9E
:1067200000BA000AF17800020843B863361D30460B
:10673000FFF7CAFB00BA000AF17800020843786349
:10674000361D3046FFF7C0FB00BA000AF1780002A0
:10675000084338630398029900020843F860002652
:10676000039F0EE00121D2E7A819401CFFF7ACFB04
:10677000A95D000208432C4971180860361DF6B265
:106780003F1F042FF0DA032F04D0022F08D0012F6F
:106790000FD014E0A819FFF797FB0102090A09E0DE
:1067A000A91948780978000208431F497118086040
:1067B00003E0A95D1C4830180160361DF6B20021C7
:1067C000194A02E0B0180160361DFF2EFADD0F23D2
:1067D00013481B0243600F230361012303604369D5
:1067E000002BFCD0016003980023001D11E09918D4
:1067F0000968E9545B1CDBB20E0AEE545B1C0E0CFC
:10680000DBB2EE545B1CDBB2090EE9545B1CDBB25D
:10681000001F0028EBDC606E401C606605B0F0BD18
:1068200000000440E511FF1F00010440F0B589B0ED
:10683000FFF7F2FBFE4908600420FFF7F3FBFFF7C8
:10684000F7FB0446C00712D0FA490020086072B670
:10685000FFF7F4FBF849F94DF94E02280BD0012857
:106860007ED0F84F05287CD004287BD0ADE2FFF71E
:10687000EBFB09B0F0BD08780F46012806D00328CD
:1068800004D0022802D005286DD09EE20720FFF731
:10689000C9FB08AB07AA06A9EB48FFF7DBFBEA49EF
:1068A0003439898E0B074906CA0FE7491B0F343963
:1068B0000C46403420319446002801D0032B05D0EB
:1068C000052B6ED0387801286CD081E23878012809
:1068D00001D00328F9D1D94843695B1C4361DB4BE4
:1068E000087FDD79A842F0D1487F1D7AA842ECD11B
:1068F000887F5D7AA842E8D1C87F9D7AA842E4D11A
:106900002078DD7AA842E0D160781D7BA842DCD1F6
:10691000F5680020AD8D2D072DD5DB7B012B01D037
:10692000032B28D1C3001F1AC94BDD5D95421DD131
:10693000FB188D7D5F78BD4218D1CD7D9F78BD421B
:1069400014D10D7EDF78BD4210D14D7E1F79BD423E
:106950000CD18D7E5F79BD4208D1CD7E9B7903E05D
:10696000E5E0E6E02EE2E0E09D4202D0401C08288F
:10697000D8DB082817D0B14D686D401C6865706C75
:10698000002802D0804700289FD0FFF769FB01272D
:106990007770FFF741FBA6490968884208D9401A79
:1069A00009E02CE0AFE0A548016A491C01620FE252
:1069B000A84A511A0818F16876230A79181A801A19
:1069C0004A6C096CD2B2C9B2C0B2FFF74FFBFFF7F5
:1069D00053FB9848076000207070FFF753FBFFF7E8
:1069E00057FBA08C010A9848891C3030FFF756FBF2
:1069F0000E20FFF717FBA869401CA861E8E13F786B
:106A0000012F01D0022FD2D1E869401CE8618F48E4
:106A10000B7FC0798342CAD18C484B7F007A834276
:106A2000C5D18A488B7F407A8342C0D18748CB7FCB
:106A3000807A8342BBD185482378C07A8342B6D11D
:106A40006078824C237B9842B1D1F0680023808D1E
:106A5000000726D5E07B022801D0032821D1D800E9
:106A6000C61A7B48845D944218D130188C7D4678D4
:106A7000B44213D1CC7D8678B4420FD10C7EC67857
:106A8000B4420BD14C7E0679B44207D18C7E467954
:106A9000B44203D1CC7E8079844202D05B1C082BA7
:106AA000DDDB6D48022F1AD10478644527D18A7D39
:106AB0004478A24223D1CA7D8478A2421FD10A7EA3
:106AC000C478A2421BD14A7E0479A24217D18A7EA1
:106AD0004479A24213D1C97E827991420FD1082B09
:106AE0000DD0696D0622491C6965614601705649E1
:106AF000401C891CFFF7D8FAFFF7DCFA68E1686AE6
:106B0000401C686264E15149487BC20701D02520DE
:106B100004E0800701D5262000E02720097D81427E
:106B2000ECD93220FFF7CCFA52E107204EE10620E3
:106B30004CE10878072879D10B20FFF773FA414917
:106B4000FF22097825325143444A00208B1858709F
:106B5000505443480068002805D0FFF7B7FA404971
:106B60000978C84005E0FFF7B1FA3E490968FFF728
:106B700029FA0746E00535D539480068002805D0D0
:106B8000FFF7AAFA36490978C84005E0FFF7A4FAEA
:106B900034490968FFF716FA2A4B00901878FF214C
:106BA000253148432D4940180279002A01D000229E
:106BB0000271234A7130121D911D02F07FF9F168B4
:106BC0000098C968381A411827480160600526D521
:106BD0001C49FF22097825325143204A0120891897
:106BE00048701CE01748FF22007825321B4B01211A
:106BF00050431954296DFF3F491C2965F1680F3F27
:106C00000969C018CA19184920300A60407E41003D
:106C100016480818FF300130018D491C01852046B7
:106C2000009901F02BFDFFF75DFA21E0CDE00000B7
:106C30001C12FF1F1812FF1FE511FF1F0C31FF1F51
:106C40004096FF1F1512FF1FF82BFF1F442AFF1F3E
:106C5000892BFF1F40420F000C12FF1F5C2AFF1FF1
:106C60002410FF1F2010FF1F2012FF1FC41B012034
:106C70006149074608700020087248728872C8721D
:106C80005E48044202D0E86C401CE8645C48FF2285
:106C90000078253250435B4A57498318D81DF93094
:106CA000827C06928A1DFF33C07C491C1333FFF798
:106CB0001FFA02465248FF210078253148435149C6
:106CC0004018C11DF931CA740279002A0CD102237F
:106CD000069A897C1A4019408A4205D046494A786A
:106CE000002A01D101224A70474949688E220904CD
:106CF000090E0391125C002A02D0AA6ED219AA666C
:106D00002030407E414D40004019C030C18BC91930
:106D1000C183FFF7F3F901463948FF220078253295
:106D20005043384A80182030407E4000401980305F
:106D3000828A8918818207AA05A904A8FFF7E4F9C5
:106D40002F48FF210078253148432E494018203034
:106D5000407E694640002A5A097D5118295240193F
:106D6000403069464289097C51184181600705D548
:106D70000398874202D23846FFF7CCF9FFF7D0F9E3
:106D80001D480021224B81701A78012A0CD1002F56
:106D90000AD0204A1469002C03D0127DD2439207F6
:106DA00002D00122827019708079002801D0FFF78B
:106DB000BDF9FFF7C1F9F078002809D03189FFF754
:106DC000C1F905E00878082809D00520FFF72AF95D
:106DD000FFF73AF962B60320FFF724F949E538785E
:106DE000FF212531484307490B4A4018911D713056
:106DF00002F064F80920E9E78031FF1F0208000073
:106E00001512FF1F5C2AFF1F00100340C41B012046
:106E10001312FF1F442FFF1F4496FF1FF8B58E4F1C
:106E2000079CBE1D9C460D46002A1FD0012A05D096
:106E3000032A0ED0022A0CD0042A59D1002C57D094
:106E40000699002901D0012952D1032A01D0022A32
:106E50000AD10146814BA039994249D2A02D47D38E
:106E6000012189038D4243D8002A0BD17B4B014677
:106E70002039803399423BD2202D39D30121890317
:106E80008D4235D8854233D36146002901D001298E
:106E90002ED10999002905D0012903D0022901D05A
:106EA000032925D10899490722D06D4B99880129DA
:106EB00020D09A7308994907490F59731CD0684923
:106EC000099BCB736346002B1BD001238B71337856
:106ED000CB7173780B72B3784B72F3788B72337912
:106EE000CB7273790B73012A19D0042A28D036E0AB
:106EF0001220F8BD0C20F8BD5948072141733020FD
:106F0000F8BD00238B713B78CB717B780B72BB781B
:106F10004B72FB788B723B79CB727B79E2E75148FD
:106F2000069B03702378437063788370A378C370E3
:106F3000E3780371237943716379837102200EE052
:106F4000484B069E1E7026785E7066789E70A67806
:106F5000DE70E6781E7126795E7164799C714880D6
:106F60001300FFF747F80504060A08060B00002582
:106F700004E0012502E0022500E006253A4E8A7968
:106F8000B0880C4600090001284340239101984332
:106F90000143D001802291430843B0800622E11DC5
:106FA000B01DFFF781F837464037B88CA17900094A
:106FB00000014022001D904389010143B9843046FD
:106FC0000622E11D6630FFF76FF8A07C0321000266
:106FD00049024118B2883F2000028243114389B21E
:106FE000B180012D12D18143032080020818B080A6
:106FF0001C49BB8C087880229343C0011843B88495
:10700000304606220C30491CFFF74EF8174801782D
:1070100008291AD0072918D0A17B0B00FEF7EAFF38
:10702000050408100C081700012101701F200AE058
:1070300002210170202006E004210170222002E0DC
:10704000032101702120FEF7EDFF0020F8BD002193
:1070500001701E20F7E70000F911FF1F613F0000DB
:10706000442AFF1F0C12FF1FC42BFF1FE511FF1F37
:1070700010B50E480E4B0278FF2025304243002108
:10708000D018FF24C17013342154995401230246AF
:1070900003716032937113742023816119548E231C
:1070A000195451740521818110BD00001512FF1F74
:1070B0005C2AFF1FFEB572B65548C068476D866DE5
:1070C000082F01D8002F00D10427082E01D8002E48
:1070D00000D104264F48504D816C504C491C8164AE
:1070E0002878FF212531484300192030407E410097
:1070F0004B480818FF304130418E491C4186FFF74C
:1071000027F8FEF7BFFFFEF7C3FF2878FF212531E0
:1071100048430019806AFFF721F82878FF212531BC
:1071200048430019406AFFF71FF82878FF212531EE
:10713000484300192030407EFFF71CF82878FF21D3
:107140002531484300192030407EFFF719F829788F
:10715000FF202530414308190279002A0BD02E2147
:10716000095C304A40695143400009182848C0680A
:10717000C06F081815E0615C0029254909D0CA686C
:107180004069096C136940185B0040001818D16C05
:1071900006E0C9684069CA6840005200C96C10180E
:1071A0004018FEF7F3FF1A4DE868806CFEF7F4FF15
:1071B000E868416CCAB2016C808FC9B2C0B2FEF7F8
:1071C00055FF0420FEF7EEFF0720FEF7F1FF02A9AE
:1071D0003846FEF7F3FF69460989C2B201250E4819
:1071E000019100950078FF21253148430019FF30B7
:1071F0000130817CF3B23020FEF7E6FFFEF73CFF62
:107200000948056062B61420FEF70CFFFEBD0000C1
:107210004096FF1F0C31FF1F1512FF1F5C2AFF1F36
:10722000C41B0120710200001812FF1F10B572B6B6
:107230001948C068C00703D01748001FFEF7CAFFEF
:10724000154C403CA06BC00707D013481838FEF718
:10725000C1FF12480168491C0160606AC0070CD078
:10726000E16A0F48C162A16941630B482C38FEF7FF
:10727000B1FF0C480168491C01602069C00707D0B4
:107280002046FEF7A7FF2046FEF7AAFFFEF7AEFF57
:1072900062B6002010BD0000401002402C10FF1FFD
:1072A0004096FF1F3010FF1F02E008C8121F08C1E0
:1072B000002AFAD170477047002001E001C1121F77
:1072C000002AFBD17047F0B500248E464A1E12E01A
:1072D000714600230D1B6D1E0AE09E0031188C467E
:1072E000875949688F4202D9815161464F605B1CC2
:1072F0009D42F2D8641C9442EAD3F0BD10B5052338
:107300001B221F210D48FEF7D4FA0C4C0C4B0834FD
:10731000072210212046FEF7CCFA0622012311464F
:107320002046FEF7C6FA05481438416A0122114387
:107330004162C169034A1143C16110BD14F00040AC
:10734000FB03000004003E0010B50020054CFF21A7
:107350002218401C51704028FADB01F067FC2070B5
:1073600010BD0000A81D012010B50020054CFF2114
:107370002218401C51700628FADB01F075FC2070C1
:1073800010BD0000D396FF1FF0B58646080CFF26FF
:107390008446002388B237461C46194601228A409B
:1073A00005461540CD402C19A4B2FF2F02D1012C67
:1073B00000D18FB265462A40CA40D21893B2FF2E40
:1073C00002D1012B00D18EB2491C1029E6DB012C21
:1073D00002D0102C08D009E0012B07D13001C019D0
:1073E000714608700220F0BD102B01D00320F0BDC3
:1073F0000120F0BD0449886A0202886A120A00026C
:10740000000A9042F7D1704700F0004010B50446E2
:107410000120FEF732FA1149CB6A1148C26A934241
:1074200002D2C96A511A00E000210163FFF7E2FFAE
:107430000C490123C86201190A4608321B069A4208
:1074400003D309310902090A641A01190648C16205
:10745000416A2922D2031143416210BD001002404B
:107460004096FF1F0012FF1F00F00040F8B5414A90
:107470000446D068808DC00764D03F48406A3F4DC5
:107480008104890CA94202D96842081800E0681AF0
:10749000C82819D32B2601233601DB02B04207D2BC
:1074A000C80041028601891BC6008919081A09E033
:1074B000C80041028601891B4601891BC600891B41
:1074C00040000818C018010B2C482D4BC4308142D5
:1074D00000D9196819607D26906AF600B0420AD278
:1074E000284EFF278E198A37BE4200D3116A401CEE
:1074F0001960906209E0106A060A37188F4203D3B8
:10750000861B8E4200D808461860106AC100091A0E
:1075100018680918C9081162C108A8420AD9194A8D
:10752000C43A80186043C00801E0401A641E8842D3
:10753000FBD807E0281A6043C00801E0401A641C29
:107540008842FBD80C480622002311462438FEF757
:10755000B0F92046FEF750FEFDF7F2FEFDF7E6FE1D
:107560000020FEF75FFD0120FEF74CFE0120FEF734
:107570004FFEF8BD4096FF1F40F00040420F000054
:107580003412FF1F82F1FFFF0848816C491C81649F
:10759000C16CC26C0902C90F5203D20F5140C26CB8
:1075A0005202120A5118C164C06C70474096FF1F06
:1075B00070B515480022C0680424866B1025134856
:1075C00013493300FEF716FD070808050C0E1308D3
:1075D000050005600C600DE020220260052004E03B
:1075E000302305E0402202600620086002E06023AC
:1075F00003600A60FEF712FEFEF716FE01F076FC4D
:1076000001F052FB70BD00004096FF1F2010FF1FCD
:107610002410FF1FF8B55249504A534B5148CA60D5
:10762000D861002003468400401C1351FF28FADD76
:10763000C8684E4A04468034A2600622C2620A220A
:1076400002654B4A157885634A4DC5611578142645
:10765000022D03D01578032D03D003E01025056219
:1076600000E00662444D4561444D85613C25E5607E
:107670003625C563342747640825056439276760C4
:1076800032272760AF24E40004601478022C03D072
:107690001278032A02D003E0466001E00B22426028
:1076A000C824FF22C4602D328260A4000461344CDF
:1076B00084647D26F6004662324CC464324E866293
:1076C0000226466682660926C666304E066745670C
:1076D0008267B210C2674C618B70CB80CB700B811C
:1076E0002C482B491F4A81602B49803A294B116154
:1076F0002A49803399622A49C1622A49016325488F
:107700002949C0384163294901602249284A803902
:10771000CA62284A0A60284AC2601E4A274C403A78
:107720009463274C1463274C5463274C4C61274CBB
:107730008C61274C0C62274CDC61274C1C62274B68
:10774000D363274ACA61274981622749C162274911
:107750008163FFF7F9FDFFF707FEF8BD000CFF1F7F
:107760004096FF1F000CFF1F0010FF1FF01F01209D
:107770009E96FF1F7E04000060E31600DC050000FB
:1077800050C30000540B00006A180000204E000097
:107790001587FF1F0009FF1F2D68FF1FA98CFF1F02
:1077A000E566FF1F9565FF1FA57BFF1F1D6EFF1F71
:1077B000957EFF1F1178FF1F7170FF1F7591FF1FCE
:1077C000D189FF1F6D74FF1FA587FF1FB570FF1FB5
:1077D0000D83FF1F1D93FF1FFD72FF1F0D74FF1F01
:1077E000297EFF1F6184FF1F1D81FF1F7D79FF1F01
:1077F00010B519242402428E01E0491E4184418CB7
:107800004B1C5343A34201DD0029F6D110BD0000FB
:10781000F0B585B054480290FEF70CFD002856D014
:1078200000200190FEF70CFD302148434F494518D8
:107830004F482818FF35FF3502350090A88A060A00
:107840008707BF0F44D04848044680306034039017
:10785000032F14D0002E02D0207C002838D04548B9
:10786000816D491C81650398807B002800D004202D
:10787000301A80B2FEF7EAFC0190002831D003985C
:10788000807B002809D0361FF6B232463946009B6D
:107890000298FEF7E1FC002828D0032F2ED03548AF
:1078A0003246816B491C816300990198FDF786FE81
:1078B0001120205600902C483B46C0783246019952
:1078C000FEF7D0FC00202861A882FEF7D1FC3EE044
:1078D0003D210298FEF7D2FC2648C16B491CC163CA
:1078E0003FE02448016E491C01663AE00198FEF72A
:1078F000CBFC3D210298FEF7C1FC32E01D4E706BBF
:10790000401C7063FEF7B4FC1B48007808280DD0BB
:1079100000980078032813D0062811D002280FD031
:107920000D280DD0207C002805D009E00099029890
:10793000FEF7B0FC0BE00298E030007B002809D095
:1079400000990298FEF7ACFC00202861A882012073
:1079500005B0F0BD3D210298FEF790FCF06B401C95
:10796000F0630020F4E700005C2AFF1FC42BFF1F18
:10797000160200000C31FF1FE511FF1FF8B5044689
:107980000A78FF302646274625460130E036603724
:107990008035491C1300FEF72DFB0D084BF865F5EB
:1079A000F5AE60BE60B1BBDBF500087828702046FC
:1079B00002228230491CFEF779FC01462046022251
:1079C0008430FEF773FC0146204602228630FEF723
:1079D0006DFC0146204602228830FEF767FC2978BC
:1079E000022249002970698849006980A9884900F4
:1079F000A980298909012981014620467E30FEF7A8
:107A000055FC7E20005BE188401A81B261488142CA
:107A100001D3282122E0E888A988401C4900484376
:107A20002989884201D33B2118E00120387712E0F0
:107A300005225948FEF73AFC0146204602228C30C6
:107A4000FEF734FCA889E188401A81B2514881428E
:107A5000DFD20120A8720020E083F8BD2046FEF7A7
:107A60000DFCF8BD307D002809D14C4A25181318AB
:107A7000E035401C5B78C0B26B750828F6D3707D8A
:107A8000C00734D00020B87138740120307420460B
:107A90000822A830FEF70AFC014620460222B03038
:107AA000FEF704FC01462046A03008220646FEF7F9
:107AB000FDFB054608213046FEF7FEFB2046294621
:107AC000943004220546FEF7F1FB04212846FEF718
:107AD000F3FB20469830FEF7F5FB20469030FEF78A
:107AE000F7FB0C212E48FEF7F9FB04212CE01A20AD
:107AF00070730D2128E00120B073F8BD0020B8712B
:107B00003874DF2108550121317330700B211BE0DF
:107B10000120F073F8BD214A002013182518E03524
:107B2000401C5B78C0B26B750828F6D3002015188E
:107B30000B786D78491C2B402518E035401CC0B2ED
:107B40006B750828F3D309212046FEF7CDFBF8BD5D
:107B5000737F012B16D00A780270E01D0222FB30E1
:107B6000491CFEF7A3FB0146E01D0222FD30FEF793
:107B70009DFB01207077F07F0028E8D10C21E3E71E
:107B800000E002E042720721DEE70978017201227B
:107B9000C27163E7FF7F0000F411FF1F802BFF1FFE
:107BA0000032FF1FF0B504468BB0C0300A9020466B
:107BB000F53002900B300790274625468038E03795
:107BC0006035264640360990A5E0E87C801E03001B
:107BD000FEF710FA0C07A11B3265F3BCDCA18BF495
:107BE000A7A1A87C012803D0204600F057FB12E093
:107BF0008C488078002801D01621D8E0708F401E74
:107C00000004000C70876FD009E1A87C012804D023
:107C1000204600F009FAA87401E18248C0780028E3
:107C2000ECD02046FEF766FB22462146E078B032D3
:107C3000A831FEF765FB6EE0A87C012812D00A98F7
:107C4000C07F012822D03878002868D022462146FB
:107C50002046BF329831CF30FEF758FB0A990120F9
:107C6000C87758E06F48C078002807D009990120EC
:107C7000887309980021416609988166B87B0128BC
:107C8000BCD106212046FEF747FB44E02046FEF724
:107C900049FB0128B8D10020B8730120BBE7A87CBC
:107CA000012803D02046FEF743FBB4E75D48C078C7
:107CB0000028A3D0608CE0832046FEF71BFB012048
:107CC000A8712874387B0128E07809D001220021AE
:107CD000FEF734FB002038733874F873B8731AE079
:107CE0000021FEF731FBF5E760E0A87C012805D014
:107CF0002046FEF72FFB012807D090E0F87B0128F3
:107D0000BED12046FEF7F6FA05E00020F873099987
:107D100088730120A874E87D002800D055E70BB0D7
:107D2000F0BDA87C012803D0204600F09BFA72E742
:107D30003C48C178002905D0099A0021917301219E
:107D4000A971297480780028DBD157E7A87C012825
:107D500006D02046FEF704FBA874002038755EE0CC
:107D6000387D012806D0708F401E0004000C7087FB
:107D700006D054E0E1780020029AFEF7F7FAC0E757
:107D8000E1782220029AFEF7F1FA0FE0A87C0128A0
:107D900003D0204600F08CF93DE72248C078002847
:107DA000D3D001203875608CE083AAE722212046D9
:107DB000FEF764FA0120B2E700E02BE0A87C01287E
:107DC00005D00120F8772046FEF7D6FA23E7787F22
:107DD000012806D0708F401E0004000C70870ED062
:107DE0001DE0B87F01288CD1079880880090079803
:107DF000E178438802780020FEF7C4FA81E707980B
:107E0000808800900798E178438802782220FEF766
:107E1000B9FACBE7204600F0F5FA0128AFD00020F0
:107E20007DE700008031FF1F10B5FEF72BF9FEF74C
:107E30002FF9164CA07B0300FEF7DCF80507040DB4
:107E40000A041800FEF7A4FA07E0FEF7A7FA04E018
:107E5000FEF7AAFA01E0FEF7ADFA0D49887800288E
:107E600011D0627BD30703D0252206E0122010BD7B
:107E7000920701D5262200E02722237D934202D1DA
:107E8000C988FEF75FF9002010BD0000442AFF1FDB
:107E90004096FF1FF8B5574C574EA17BF06801295B
:107EA0003BD0856A554F2A220021B81DFEF77EF887
:107EB000B888A179000900014022401C9043890143
:107EC00001434F48802200789143C00108433F217D
:107ED00009028843032189024018B8800622E11D67
:107EE000B81DFEF7E1F8464938460622491C0C3019
:107EF000FEF7DAF8207D2538032803D30020FEF7AB
:107F00005FFA2075207D0746FEF75AFA2075A17B9F
:107F1000012904D0B84219D916E0456AC2E73949A7
:107F2000F0680A68C06D52198018086036498842A6
:107F30000AD3364800210170FEF748FA344802217E
:107F40000078FEF7FFF8F8BD28460EE0607BC10719
:107F50008207C90FD20F89184007C00F081861881F
:107F60002C4A401E51436843081AFEF7A9F82748D7
:107F7000022101702020FEF755F82748FEF7EEF8A1
:107F80002648FEF7F1F83846FEF7F4F83846FEF7D3
:107F9000F7F8FF20FEF720FAF068416CCAB2016CD6
:107FA000808FC9B2C0B2FEF761F8FEF76BF8FEF73A
:107FB0006FF8FEF717FA0320FEF7FAF80F488188EA
:107FC000001D090A891CFEF769F8FEF755F81449E7
:107FD00001200860A17B1348012906D00169491CD2
:107FE00001611020FEF71EF8F8BDC168491CC16090
:107FF000F7E70000442AFF1F4096FF1FC42BFF1F16
:108000000C12FF1FF011FF1F00881300E511FF1F66
:10801000E411FF1F7102000055555500D6BE898E30
:108020001812FF1F0C31FF1FF8B504461C481D4DE8
:10803000861C6865FEF7DCF9002801D00020F8BD39
:1080400004203070164821469831C01C08220F4683
:10805000FEF7D4F92146903104220E46FEF7CEF900
:1080600008213846FEF728F904213046FEF724F9A6
:10807000002008210A1A12198032D37B2218A0325C
:10808000401CC0B2D3750828F4D3074901200870FA
:10809000696D064808804034208F60870120F8BD54
:1080A0008C31FF1F4096FF1F1412FF1F030D0000AD
:1080B000F8B50446164E1548164F706516493878BF
:1080C0000978084301D00020F8BD10480925801C1C
:1080D00005702146401C0822F531FEF78FF98E20ED
:1080E000005D002807D0736D2A46032120469B1CA3
:1080F000FEF78AF90D250020E08301203870280260
:10810000716DC01C08800120F8BD00008C31FF1F7C
:108110004096FF1F1412FF1F1312FF1FF8B54E4C9D
:10812000FEF766F925462E4660368035002814D1C4
:10813000A06E002811D14948006900280DD1484897
:108140000078002809D12078002806D1207F002857
:1081500003D0B17C002902D00BE0002008E0317F81
:10816000002906D1A97A002903D1012801D1608C08
:10817000E083E088E18B4018401C20812046FEF718
:1081800049F9012804D10020E083E088401C2081C7
:108190000096307F304E2036012845D127464037A3
:1081A000FA8F2189E088FEF73BF900283CD0F88F50
:1081B000208129462046FEF739F9E88860840020AE
:1081C0002077E083012020712089E1894018A08177
:1081D000E188F88FFEF730F9618E6A884843871886
:1081E000A888884207D12989E28E914203D1E98883
:1081F000A28E914206D02989EA880B094108E078CD
:10820000FEF720F92878B073A8886086E888A086F1
:108210002889E0862046FFF7EBFA2046FEF718F99A
:1082200000990020087700E0678EA069B84203D16A
:108230003078E18B884206D02346327BE18B1433C1
:108240003846FEF70BF9A761A07F30702046FEF795
:108250000BF90020F8BD00005C2AFF1F442FFF1F10
:108260000431FF1F0A4A094951658A1C0D23137006
:10827000ED231B5C53704030028F4287054A01207A
:108280001070054808800120704700008C31FF1FE6
:108290004096FF1F1412FF1F03020000F8B50446AA
:1082A000174E1648174F70651749387809780843F4
:1082B00001D00020F8BD114B02229B1CFF211A7037
:1082C0000931581C095D254601708035A87B0028BE
:1082D00004D003212046FEF797F8062200207C21D7
:1082E0000855A872E083E089403460870120387027
:1082F0001002716DC01C08800120F8BD8C31FF1F79
:108300004096FF1F1412FF1F1312FF1FF8B5344CC5
:10831000207D2538032803D30020FEF751F820756F
:10832000257D2846FEF74CF82E4E2075A8421AD817
:10833000FEF7A0F88305607B9B0DC1078207C90F7C
:10834000D20F40078918C00F0F187F1EFFF71CF9C6
:10835000C10A6088244A5043F26812687A43801A3E
:108360000818C01801E0F0680068FDF7A9FE1F4872
:10837000012404701F20FDF755FE1D48FDF7EEFE99
:108380001C48FDF7F1FE2846FDF7F4FE2846FDF7F0
:10839000F7FEFF20FEF720F8F0683C22006CC1B227
:1083A0005A20FDF763FEFDF76DFEFDF771FEFEF747
:1083B00019F80320FDF7FCFE0F488188001D090A0B
:1083C000891CFDF76BFEFDF757FE0C4804600C4856
:1083D0000168491C01601020FDF724FEF8BD000073
:1083E000442AFF1F4096FF1F71020000E511FF1F86
:1083F00055555500D6BE898EC42BFF1F1812FF1F7E
:108400000C31FF1F70B5134C1149134D6165134AB0
:1084100029781278114301D0002070BD0C4B072140
:108420009B1C1970FF260A36591C365C0E708E2173
:10843000095C0222002903D00321FDF7E5FF062293
:10844000012028701002616DC01C0880012070BDE1
:108450008C31FF1F4096FF1F1412FF1F1312FF1FC6
:10846000F8B56448FF21027825314A43624954181F
:10847000A278002A3DD021896048E18082790025D8
:10848000002A0BD1427A002A08D1827A002A05D12B
:10849000C27A002A02D16278002A09D0E2898918BA
:1084A000A1812571217F01292CD1618CE18329E0F3
:1084B0002178002906D0E21DF932118A491C118267
:1084C000E58305E02571217F012901D1618CE183DC
:1084D000A289E1888A4215D12079494D002801D02E
:1084E000052907D008212046FDF7C8FEE86A401C90
:1084F000E862F8BD3E212046FDF7C0FE286B401C17
:108500002863F8BD4078002814D03E48C068808DAC
:10851000800701D50120207720466030817C00292A
:1085200008D1007F002805D18A20005D002801D1F4
:10853000608CE0832079002800D0E583FDF77AFE87
:10854000060009D02577002704E0FDF799FF0028F1
:1085500002D07F1CB742F8DBA0780028D1D020469B
:10856000FDF794FF0128CCD002212046FDF794FFAF
:108570002078002805D023486169026C89180164BD
:1085800001E020480564FDF78DFF0128B9D0FDF713
:1085900043FD1D490968884201D9451A02E01B4A7A
:1085A000511A0D18134EFF2130782531124F4843D0
:1085B000C0198469203000781549401C4843444361
:1085C000204600F029F83078FF2125314843114931
:1085D000C01940690968FF354018053540196E30EB
:1085E000844201D8002801DA201A00E0C820FDF7F3
:1085F00067FDF8BD1512FF1F5C2AFF1F8031FF1FAA
:108600000C31FF1F4096FF1F1C12FF1F40420F003E
:10861000710200002012FF1F70B5144A1378114632
:10862000C968002B12D0CA6E0446CD6CD4402C19F8
:108630000F4DCC642D78FF26253675430D4EAD19B0
:10864000AD692D02AC4204D8254603E05069C864E8
:1086500070BDCD640C6FA54200D9CC64521C064994
:10866000D0400A6858438018086070BD4096FF1FCC
:108670001512FF1F5C2AFF1F2012FF1FF0B5214AB1
:10868000C605D4680023656F002E31DA460509D58A
:108690001D4EFF27367825377E431C4FF619367955
:1086A000002E04D01361936146050ED40EE0D66906
:1086B0008E4201D9761A00E08E1BA76FB74204D90B
:1086C0009669B54200D3761C9661D1619669B54230
:1086D0000AD2A56E646E491B2141146909190C4C1C
:1086E00011612568691A2160C00504D51370F0BDB9
:1086F00013619361EAE71078052800D8401C1070D8
:10870000F0BD00004096FF1F1512FF1F5C2AFF1FDF
:108710002012FF1F10B51C481A4941610121C16098
:1087200001601A4A506B1A49C0B24978002917D122
:1087300018490023CB56002B174BCB5606DB1B04E6
:1087400000240C5721025918091808E0FF331B04B4
:1087500000240C5721025918104B0918C9185163ED
:10876000022801D2022002E0502800D95020801EA9
:108770000B4940100B5C0548002207211430FDF71F
:1087800098F810BDFF3F0000001003408000034038
:108790004096FF1F9D96FF1F00000000FFFE000097
:1087A000801D0120F8B57E4CFDF782FEFDF786FEA8
:1087B0007C48002606617C4821467C4C86802078D7
:1087C000FF22253250437A4D423140190422243091
:1087D000FDF76CFD01462078FF22253250434019F9
:1087E00003222830FDF762FD01462078FF22253262
:1087F0005043401901222E30FDF758FD01462078E4
:10880000FF2225325043401902223030FDF74EFD41
:1088100001462078FF22253250434019022232308F
:10882000FDF744FD01462078FF22253250434019D0
:1088300002223430FDF73AFD01462078FF2225322E
:108840005043401902223630FDF730FD07462078AC
:10885000FF2125314843401902462032917B4900CF
:108860009173018E49000186418E49004186C18E77
:108870000901C18601462E31FDF7D8FD2078FF2180
:10888000253148434019FDF7E3FD2078FF212531CC
:1088900048434019828E418EC38E4A4352009A4209
:1088A00059DA002957D0052239466030FDF7FEFC21
:1088B000014601226846FDF7F9FC684602782078F7
:1088C000FF2125314843D30640190146DB0E6031B4
:1088D0004B7152092C273A54FDF7F6FD2078FF2101
:1088E000253148434019C683818E4184FEF780FFBD
:1088F0003049072008702520FDF794FB2078FF22DF
:1089000025325043421901219170D01DF9308674EF
:108910003121C1743920865410460121FDF7DAFD5A
:108920002178FF22253251434F19394620314876AC
:108930003046214E3B463064388E0A7B1433F98B27
:10894000801CFDF78BFDFDF767FB1C490968884219
:1089500007D9401A08E01A4840210078FDF7F2FBD9
:10896000F8BD184A511A0818F168FF2289682532A3
:1089700008182178144B514349190A8E49695A4302
:10898000101A401A59004018FDF79AFB0C480421B0
:108990000078FDF7D7FB0D48816A491C8162F8BD5C
:1089A000C42BFF1F442FFF1F442AFF1F1512FF1F58
:1089B0005C2AFF1FE511FF1F4096FF1F1C12FF1FBF
:1089C000E411FF1F40420F00710200000C31FF1F35
:1089D000F8B5494D4748E86072B6FDF781FD0028BB
:1089E00073D0464EB07900286FD0454F38680028C4
:1089F00012D1E868434B808DC00710D0FEF7FAFC17
:108A0000696A884201D3401A01E0591A0818E968D6
:108A10008031C968814202D962B630BFF8BDFEF725
:108A2000E9FCE968181A898DC90711D0364A374B15
:108A30001168FF24CB188A34A34200D3296A11603D
:108A4000020C80B24A4348435202C009141809E09C
:108A5000C1018200891A4200891AC20010188908CF
:108A6000400A0C18FDF742FD7D21C900484302D0A1
:108A7000A04200D80446FDF73FFD2549086025487F
:108A80000269D20734D18068234AC007C00F127828
:108A90004042104201D0086802E0E868406908607E
:108AA000844200D90446FDF72DFD00280BD038681C
:108AB000002808D1E9688A69C8691218A24202D858
:108AC0003288002A02D062B630BF11E04969201A0C
:108AD000814200D20846420AC10A40098018401A61
:108AE000CA0880188A09801A090A401AFDF710FD81
:108AF00062B6F8BD000CFF1F4096FF1FB410FF1FA9
:108B00001812FF1FFFFFFF003412FF1F82F1FFFF4B
:108B1000B010FF1F00100240E511FF1F70B5164C8A
:108B2000144DE06940084000E0610620FCF7A5FE16
:108B300011484038826980210A438261E269012339
:108B40001A43E261A26A920503D42A466D1E002AE6
:108B5000F8DC002D07DB226A7E23D60B82691E40DB
:108B60009A433243826182698A4382613006400EB1
:108B700070BD0000983A000040F00040FFB581B0A1
:108B80000D46064610240C4F0CE0FFF7C7FFB0421D
:108B900008D2A84206D90499039800F00FF8C0192A
:108BA000C72804D32046641EE4B20028EDD110206B
:108BB000001BC0B205B0F0BD21F1FFFFF0B50025EC
:108BC00091B00E4607462C460BE01020FCF755FEF0
:108BD0001448406AA2008104890C6846641C8150D4
:108BE000E4B2BC42F1D339466846FEF76CFB0E4A4C
:108BF000002057426C460EE081006358934201D931
:108C0000D91900E0D11A642902D9002011B0F0BDB1
:108C10005D19401CC0B2B042EED331462846FDF784
:108C2000D1F9F3E740F00040420F0000F8B50C4DD9
:108C30000C4E0024A000401901686846FEF7A4FB12
:108C4000022805D0002C02DD012800D10320F8BD48
:108C5000321969460978641C5170402CEADBF8BD72
:108C600000080011A81D0120F8B500240C4D0D4F7F
:108C70000526A000401901686846FEF785FB02281A
:108C800005D0002C02DD012800D10320F8BD321BE5
:108C90006946D2190978641C5170062CE9DBF8BDCD
:108CA00000090011D396FF1F10B500F011F800F075
:108CB000C9F9064A0121582000F040F9042308228E
:108CC00019463820FFF75AFF10BD0000C096FF1F5D
:108CD000F8B52D4C23782D4D16221B212846FCF784
:108CE000E8FD0323112212212846FCF7E2FD2D1D89
:108CF000062316221A212846FCF7DBFD0323122245
:108D000013212846FCF7D5FDA079032827D000239E
:108D100019221A212846FCF7CCFD0B230422072137
:108D20002846FCF7C6FDE379162217212846FCF7F2
:108D3000C0FD184D1648E86042152A611648686162
:108D40001649A961134E40367260B060F160114F50
:108D50001348403F3860E079012802D00BE003233C
:108D6000D6E70022012311463846FCF7A2FDFF207A
:108D7000413028617060E0780A49C006C00B401895
:108D8000B8630948E861F8BD9896FF1F40F00040BD
:108D900020010020C0000340A403B00000008A04AA
:108DA000242D0000250800002FFF260070B52C4957
:108DB0002B4A4039002825D0022823D08B15136276
:108DC0005A020A61274A0A63274A527801231B0381
:108DD000D2184A61224A2249C03A8039002815D067
:108DE0006523224DDB02224C012819D002281CD019
:108DF000204E80191060204850600B608D60CC6060
:108E00001E4819E080231362DA02DAE71C4810607A
:108E1000002088601B4808601B48C8601B480BE0A6
:108E20001B4810608D600B60E9E71948401C10601A
:108E30008D600B60CC60174808611748486117487F
:108E400088611748C8611748086217484862174880
:108E500088621748C862174808631748486370BD9E
:108E6000C0000340030000019896FF1F5555553779
:108E7000D6BE898E00800698545A98508055082294
:108E80000080067800280B0007EE75368066082201
:108E90000180064280450822A49C5C544C0C0403CB
:108EA000025A544E483C36332D007F5D57514B4596
:108EB0003C363056504A443E322C262070B50A4B80
:108EC0005C6A9D6AA30501269B0D7602B34201D917
:108ED0009B1B02E0FF33FF3302330B80290E01702E
:108EE000200E107070BD0000C000034010B5FFF7E9
:108EF000EFFE044CE07800F007F82079FFF756FF0A
:108F000010BD00009896FF1F10B5044609483F2C7D
:108F10000DD00D230F221221FCF7CBFC0648816BEC
:108F2000E2060905090DD20B1143816310BD082328
:108F3000F0E7000014F0004080000340F0B5354C2D
:108F4000666AA56A00236362A362334C60630E20E5
:108F5000206263624020A0625020E0622A206062AA
:108F60002D484030012926D0802101622B49FF2362
:108F70002948A53340308360294B4360264B29485C
:108F8000403B18617D20C000401EFDD22648890567
:108F90000F18214840388763234B5B1CC918816335
:108FA0002349224889790B00FDF724F8070B0B0EA3
:108FB0000D0E0E0B0E00FF210131016217498331A6
:108FC000D5E71C4800E01C481C491160124940319B
:108FD00003E0CB6ADB439B0F11D0401EF9D20E4851
:108FE000403887630020A062E0628860606220628F
:108FF000FF2041306062074846628562F0BDC86A62
:109000000F4B1840106010680122000C12048018E9
:109010004860E4E70010034080000340CA020000FB
:109020002020000080560C206465210010270000DD
:109030009896FF1F204E0000307500000000202091
:10904000FFFF3F3F30B5244C2079012828D02079FC
:10905000032825D02079042822D02079022827D07F
:109060000121022000F03CF8C01C60700121422068
:1090700000F036F8C01CA070A078627817499042C2
:1090800022D20020627853016278A578521B4243B5
:109090009A1A103252110A54401C2828F2DB30BDB3
:1090A0000021022000F01CF8801C6070002106E006
:1090B0000121022000F014F8801C60700121422080
:1090C00000F00EF8801CD6E7002062780A54401C9D
:1090D0002828FADB30BD00009896FF1F801D012074
:1090E00030B51C4C1A4A22601A4A4032012914D069
:1090F0001949D16050630E20106200215162FF2097
:10910000153050621548857915482B00FCF772FF21
:10911000070A0A070C0D0D0A0D001249E9E710486D
:10912000401E02E0104800E01048401EFDD20948F1
:109130008030406B51620002000E11620C49D16018
:10914000FF21413151626521C902216030BD00001B
:1091500010000300400003407F4072009896FF1FFC
:109160000F2700007F405200204E000030750000A5
:1091700040401000F8B55D4C5B48E060803080688E
:1091800080F30888FCF7FDF859485B49C76A456BCE
:1091900058480068884208D00020FDF733F80120C5
:1091A0008007026902218A430261FDF73DF8E06809
:1091B00080304068FDF7B2F9E06880300068FDF764
:1091C000B3F9E0684D4E808DC00607D54C4B0722A1
:1091D00010213046FCF76DFB012306E00323082233
:1091E00009213046FCF765FB002306221146304674
:1091F000FCF75FFB434E0020F0610220F061424823
:1092000070610120FCF739FB0320F061FEF7F2F8F2
:109210000646FCF701FF0090FEF7ECF86062FDF7F0
:1092200089F9BE4201D9F01B02E03849F01B401811
:10923000E168898DC90706D0010C694380B24902F3
:109240006843C0090AE0C1018200891A4200891AF4
:10925000891CC200101889088030400A0D18616B03
:10926000206B411A2848103008188108A163800734
:10927000E26B800F8018E063042804D9491C800742
:10928000800FA163E063224E68183146FCF79AFE16
:10929000204A1368C3181360206D08182065B04277
:1092A00005D95B1C31461360FCF78CFE2165FDF788
:1092B00047F9FCF7B1FE0099401A17492A180968C6
:1092C0008A4202D2491B081A01E07D20C000FDF746
:1092D0003DF9FDF741F90220FCF7A4FE0020FCF760
:1092E00091FFFCF757FEF8BD000CFF1F4096FF1FD3
:1092F0000012FF1F2812FF1FB64121031CF000407F
:10930000FB03000000100240C4090000FFFFFF0043
:10931000710200003010FF1FB010FF1F70B527480A
:10932000012581068860264CA068C9110843A06009
:1093300024491420086024482060244860602448A0
:10934000037816221721201DFCF7B3FA2148C068C4
:10935000006AFCF792FA21491F4808601F4820491B
:109360008030C163FF21413141621E480078FCF723
:10937000B2FA1D490220FDF7F5F81C490320FDF75C
:10938000F1F8FF20FDF728F80120FDF7F1F8FF20A4
:10939000F530FCF7FBFE5820FDF7F0F81448FCF719
:1093A000FBFE2846FDF7F0F80720FCF701FFE06917
:1093B000000A00028830E06170BD00009021E901E0
:1093C00040F0004000E100E020B81F503008BE002F
:1093D0009F96FF1F4096FF1F0180063D000003403F
:1093E000340800009E96FF1F7102000040420F00EB
:1093F00030750000F14B0000C143FF1F0200000068
:10940000090AFFFF00C20100010000000000000087
:109410000300000000000000000000006C94FF1F2B
:10942000DC96FF1F20010000A872FF1FDC96FF1FC3
:109430006C94FF1F70020000005FFF1F000CFF1FF5
:10944000DC96FF1F0C000000A872FF1FDC96FF1FB8
:10945000000CFF1F00040000005FFF1F8C95FF1F22
:10946000DC96FF1F14890100B872FF1F011CDAFF90
:10947000013202320432060A2108205A0708320952
:10948000320A320B320C320D320E321032113213DC
:10949000321532173219321C321F3222322532294C
:1094A000322D32323237323C324232493250325827
:1094B0003261326B32763282328F329D32AD32BEC1
:1094C00032D132E62AFD6822011A33041A51041AF5
:1094D00073041A98041AC1041AEE041A20C51A5605
:1094E000041A92041AD404231C031A6C041AC30429
:1094F0001A24DD1A8E042302051A83041A10E91AAD
:10950000AB041A56E91A12E91AE0041AC3ED1ABD9F
:10951000ED1AD0ED1AFFED1A4CE91BBA0F0819E944
:109520001A07E923EE141A06E91A54E923DC1B236F
:10953000A51E23B6211A15E923CA2823DF2C235B95
:1095400031234B3623B93B23B241234448237E4F7A
:10955000237157232F6023CE691B627460A27F1989
:10956000AB511C40787DC6011E1A429001289578A7
:10957000563412152D230F016A026B311949091354
:0C9580006E832020C52941767100000098
:040000051FFF40C1D8
:00000001FF
